{
	"contracts/230516_1/2.sol": {
		"CHILD": {
			"abi": [
				{
					"inputs": [],
					"name": "character",
					"outputs": [
						{
							"internalType": "string",
							"name": "",
							"type": "string"
						}
					],
					"stateMutability": "pure",
					"type": "function"
				},
				{
					"inputs": [],
					"name": "fathersAddress",
					"outputs": [
						{
							"internalType": "address",
							"name": "",
							"type": "address"
						}
					],
					"stateMutability": "view",
					"type": "function"
				},
				{
					"inputs": [],
					"name": "fathersAddress2",
					"outputs": [
						{
							"internalType": "address",
							"name": "",
							"type": "address"
						}
					],
					"stateMutability": "view",
					"type": "function"
				},
				{
					"inputs": [],
					"name": "fathersCrypto",
					"outputs": [
						{
							"internalType": "uint256",
							"name": "",
							"type": "uint256"
						}
					],
					"stateMutability": "view",
					"type": "function"
				},
				{
					"inputs": [],
					"name": "fathersName",
					"outputs": [
						{
							"internalType": "string",
							"name": "",
							"type": "string"
						}
					],
					"stateMutability": "pure",
					"type": "function"
				},
				{
					"inputs": [],
					"name": "fathersWallet",
					"outputs": [
						{
							"internalType": "uint256",
							"name": "",
							"type": "uint256"
						}
					],
					"stateMutability": "view",
					"type": "function"
				},
				{
					"inputs": [],
					"name": "fathersWallet2",
					"outputs": [
						{
							"internalType": "uint256",
							"name": "",
							"type": "uint256"
						}
					],
					"stateMutability": "view",
					"type": "function"
				},
				{
					"inputs": [],
					"name": "getAddress",
					"outputs": [
						{
							"internalType": "address",
							"name": "",
							"type": "address"
						}
					],
					"stateMutability": "view",
					"type": "function"
				},
				{
					"inputs": [],
					"name": "getDaddy2Address",
					"outputs": [
						{
							"internalType": "address",
							"name": "",
							"type": "address"
						}
					],
					"stateMutability": "view",
					"type": "function"
				},
				{
					"inputs": [],
					"name": "getDaddyAddress",
					"outputs": [
						{
							"internalType": "address",
							"name": "",
							"type": "address"
						}
					],
					"stateMutability": "view",
					"type": "function"
				},
				{
					"inputs": [],
					"name": "wallet",
					"outputs": [
						{
							"internalType": "uint256",
							"name": "",
							"type": "uint256"
						}
					],
					"stateMutability": "view",
					"type": "function"
				},
				{
					"inputs": [],
					"name": "who",
					"outputs": [
						{
							"internalType": "string",
							"name": "",
							"type": "string"
						}
					],
					"stateMutability": "pure",
					"type": "function"
				}
			],
			"devdoc": {
				"kind": "dev",
				"methods": {},
				"version": 1
			},
			"evm": {
				"assembly": "    /* \"contracts/230516_1/2.sol\":2348:4040  contract CHILD is DAD {... */\n  mstore(0x40, 0x80)\n    /* \"contracts/230516_1/2.sol\":1022:1025  100 */\n  0x64\n    /* \"contracts/230516_1/2.sol\":1003:1025  uint public wallet=100 */\n  0x01\n  sstore\n    /* \"contracts/230516_1/2.sol\":1079:1083  1000 */\n  0x03e8\n    /* \"contracts/230516_1/2.sol\":1058:1083  uint internal crypto=1000 */\n  0x02\n  sstore\n    /* \"contracts/230516_1/2.sol\":1167:1172  10000 */\n  0x2710\n    /* \"contracts/230516_1/2.sol\":1144:1172  uint private emergency=10000 */\n  0x03\n  sstore\n    /* \"contracts/230516_1/2.sol\":3013:3022  new DAD() */\n  mload(0x40)\n  tag_1\n  swap1\n  tag_2\n  jump\t// in\ntag_1:\n  mload(0x40)\n  dup1\n  swap2\n  sub\n  swap1\n  0x00\n  create\n  dup1\n  iszero\n  dup1\n  iszero\n  tag_3\n  jumpi\n  returndatasize\n  0x00\n  dup1\n  returndatacopy\n  revert(0x00, returndatasize)\ntag_3:\n  pop\n    /* \"contracts/230516_1/2.sol\":3001:3022  DAD daddy = new DAD() */\n  0x04\n  exp(0x0100, 0x00)\n  dup2\n  sload\n  dup2\n  0xffffffffffffffffffffffffffffffffffffffff\n  mul\n  not\n  and\n  swap1\n  dup4\n  0xffffffffffffffffffffffffffffffffffffffff\n  and\n  mul\n  or\n  swap1\n  sstore\n  pop\n    /* \"contracts/230516_1/2.sol\":3041:3050  new DAD() */\n  mload(0x40)\n  tag_4\n  swap1\n  tag_2\n  jump\t// in\ntag_4:\n  mload(0x40)\n  dup1\n  swap2\n  sub\n  swap1\n  0x00\n  create\n  dup1\n  iszero\n  dup1\n  iszero\n  tag_5\n  jumpi\n  returndatasize\n  0x00\n  dup1\n  returndatacopy\n  revert(0x00, returndatasize)\ntag_5:\n  pop\n    /* \"contracts/230516_1/2.sol\":3028:3050  DAD daddy2 = new DAD() */\n  0x05\n  exp(0x0100, 0x00)\n  dup2\n  sload\n  dup2\n  0xffffffffffffffffffffffffffffffffffffffff\n  mul\n  not\n  and\n  swap1\n  dup4\n  0xffffffffffffffffffffffffffffffffffffffff\n  and\n  mul\n  or\n  swap1\n  sstore\n  pop\n    /* \"contracts/230516_1/2.sol\":2348:4040  contract CHILD is DAD {... */\n  callvalue\n  dup1\n  iszero\n  tag_6\n  jumpi\n  0x00\n  dup1\n  revert\ntag_6:\n  pop\n  jump(tag_7)\ntag_2:\n  dataSize(sub_1)\n  dup1\n  dataOffset(sub_1)\n  dup4\n  codecopy\n  add\n  swap1\n  jump\t// out\ntag_7:\n  dataSize(sub_0)\n  dup1\n  dataOffset(sub_0)\n  0x00\n  codecopy\n  0x00\n  return\nstop\n\nsub_0: assembly {\n        /* \"contracts/230516_1/2.sol\":2348:4040  contract CHILD is DAD {... */\n      mstore(0x40, 0x80)\n      callvalue\n      dup1\n      iszero\n      tag_1\n      jumpi\n      0x00\n      dup1\n      revert\n    tag_1:\n      pop\n      jumpi(tag_2, lt(calldatasize, 0x04))\n      shr(0xe0, calldataload(0x00))\n      dup1\n      0xbfc8b3bc\n      gt\n      tag_15\n      jumpi\n      dup1\n      0xbfc8b3bc\n      eq\n      tag_9\n      jumpi\n      dup1\n      0xc2e86e29\n      eq\n      tag_10\n      jumpi\n      dup1\n      0xd6d21dfd\n      eq\n      tag_11\n      jumpi\n      dup1\n      0xf0e79e29\n      eq\n      tag_12\n      jumpi\n      dup1\n      0xf7b7bb92\n      eq\n      tag_13\n      jumpi\n      dup1\n      0xf9aff3f0\n      eq\n      tag_14\n      jumpi\n      jump(tag_2)\n    tag_15:\n      dup1\n      0x38cc4831\n      eq\n      tag_3\n      jumpi\n      dup1\n      0x4d2e03a0\n      eq\n      tag_4\n      jumpi\n      dup1\n      0x521eb273\n      eq\n      tag_5\n      jumpi\n      dup1\n      0x7e498940\n      eq\n      tag_6\n      jumpi\n      dup1\n      0x8149837d\n      eq\n      tag_7\n      jumpi\n      dup1\n      0x8903e812\n      eq\n      tag_8\n      jumpi\n    tag_2:\n      0x00\n      dup1\n      revert\n        /* \"contracts/230516_1/2.sol\":1570:1658  function getAddress() public view returns(address) {... */\n    tag_3:\n      tag_16\n      tag_17\n      jump\t// in\n    tag_16:\n      mload(0x40)\n      tag_18\n      swap2\n      swap1\n      tag_19\n      jump\t// in\n    tag_18:\n      mload(0x40)\n      dup1\n      swap2\n      sub\n      swap1\n      return\n        /* \"contracts/230516_1/2.sol\":1472:1564  function character() external pure returns(string memory) {... */\n    tag_4:\n      tag_20\n      tag_21\n      jump\t// in\n    tag_20:\n      mload(0x40)\n      tag_22\n      swap2\n      swap1\n      tag_23\n      jump\t// in\n    tag_22:\n      mload(0x40)\n      dup1\n      swap2\n      sub\n      swap1\n      return\n        /* \"contracts/230516_1/2.sol\":1003:1025  uint public wallet=100 */\n    tag_5:\n      tag_24\n      tag_25\n      jump\t// in\n    tag_24:\n      mload(0x40)\n      tag_26\n      swap2\n      swap1\n      tag_27\n      jump\t// in\n    tag_26:\n      mload(0x40)\n      dup1\n      swap2\n      sub\n      swap1\n      return\n        /* \"contracts/230516_1/2.sol\":3358:3452  function getDaddyAddress() public view returns(address) {... */\n    tag_6:\n      tag_28\n      tag_29\n      jump\t// in\n    tag_28:\n      mload(0x40)\n      tag_30\n      swap2\n      swap1\n      tag_19\n      jump\t// in\n    tag_30:\n      mload(0x40)\n      dup1\n      swap2\n      sub\n      swap1\n      return\n        /* \"contracts/230516_1/2.sol\":2796:2891  function fathersAddress() public view returns(address) {... */\n    tag_7:\n      tag_31\n      tag_32\n      jump\t// in\n    tag_31:\n      mload(0x40)\n      tag_33\n      swap2\n      swap1\n      tag_19\n      jump\t// in\n    tag_33:\n      mload(0x40)\n      dup1\n      swap2\n      sub\n      swap1\n      return\n        /* \"contracts/230516_1/2.sol\":3458:3554  function getDaddy2Address() public view returns(address) {... */\n    tag_8:\n      tag_34\n      tag_35\n      jump\t// in\n    tag_34:\n      mload(0x40)\n      tag_36\n      swap2\n      swap1\n      tag_19\n      jump\t// in\n    tag_36:\n      mload(0x40)\n      dup1\n      swap2\n      sub\n      swap1\n      return\n        /* \"contracts/230516_1/2.sol\":2514:2608  function fathersName() public pure returns(string memory) {... */\n    tag_9:\n      tag_37\n      tag_38\n      jump\t// in\n    tag_37:\n      mload(0x40)\n      tag_39\n      swap2\n      swap1\n      tag_23\n      jump\t// in\n    tag_39:\n      mload(0x40)\n      dup1\n      swap2\n      sub\n      swap1\n      return\n        /* \"contracts/230516_1/2.sol\":2614:2699  function fathersWallet() public view returns(uint) {... */\n    tag_10:\n      tag_40\n      tag_41\n      jump\t// in\n    tag_40:\n      mload(0x40)\n      tag_42\n      swap2\n      swap1\n      tag_27\n      jump\t// in\n    tag_42:\n      mload(0x40)\n      dup1\n      swap2\n      sub\n      swap1\n      return\n        /* \"contracts/230516_1/2.sol\":2376:2508  function who() override public pure returns(string memory) {... */\n    tag_11:\n      tag_43\n      tag_44\n      jump\t// in\n    tag_43:\n      mload(0x40)\n      tag_45\n      swap2\n      swap1\n      tag_23\n      jump\t// in\n    tag_45:\n      mload(0x40)\n      dup1\n      swap2\n      sub\n      swap1\n      return\n        /* \"contracts/230516_1/2.sol\":2705:2790  function fathersCrypto() public view returns(uint) {... */\n    tag_12:\n      tag_46\n      tag_47\n      jump\t// in\n    tag_46:\n      mload(0x40)\n      tag_48\n      swap2\n      swap1\n      tag_27\n      jump\t// in\n    tag_48:\n      mload(0x40)\n      dup1\n      swap2\n      sub\n      swap1\n      return\n        /* \"contracts/230516_1/2.sol\":2897:2995  function fathersAddress2() public view returns(address) {... */\n    tag_13:\n      tag_49\n      tag_50\n      jump\t// in\n    tag_49:\n      mload(0x40)\n      tag_51\n      swap2\n      swap1\n      tag_19\n      jump\t// in\n    tag_51:\n      mload(0x40)\n      dup1\n      swap2\n      sub\n      swap1\n      return\n        /* \"contracts/230516_1/2.sol\":3162:3252  function fathersWallet2() public view returns(uint) {... */\n    tag_14:\n      tag_52\n      tag_53\n      jump\t// in\n    tag_52:\n      mload(0x40)\n      tag_54\n      swap2\n      swap1\n      tag_27\n      jump\t// in\n    tag_54:\n      mload(0x40)\n      dup1\n      swap2\n      sub\n      swap1\n      return\n        /* \"contracts/230516_1/2.sol\":1570:1658  function getAddress() public view returns(address) {... */\n    tag_17:\n        /* \"contracts/230516_1/2.sol\":1612:1619  address */\n      0x00\n        /* \"contracts/230516_1/2.sol\":1646:1650  this */\n      address\n        /* \"contracts/230516_1/2.sol\":1631:1651  return address(this) */\n      swap1\n      pop\n        /* \"contracts/230516_1/2.sol\":1570:1658  function getAddress() public view returns(address) {... */\n      swap1\n      jump\t// out\n        /* \"contracts/230516_1/2.sol\":1472:1564  function character() external pure returns(string memory) {... */\n    tag_21:\n        /* \"contracts/230516_1/2.sol\":1515:1528  string memory */\n      0x60\n        /* \"contracts/230516_1/2.sol\":1540:1557  return \"not good\" */\n      mload(0x40)\n      dup1\n      0x40\n      add\n      0x40\n      mstore\n      dup1\n      0x08\n      dup2\n      mstore\n      0x20\n      add\n      0x6e6f7420676f6f64000000000000000000000000000000000000000000000000\n      dup2\n      mstore\n      pop\n      swap1\n      pop\n        /* \"contracts/230516_1/2.sol\":1472:1564  function character() external pure returns(string memory) {... */\n      swap1\n      jump\t// out\n        /* \"contracts/230516_1/2.sol\":1003:1025  uint public wallet=100 */\n    tag_25:\n      sload(0x01)\n      dup2\n      jump\t// out\n        /* \"contracts/230516_1/2.sol\":3358:3452  function getDaddyAddress() public view returns(address) {... */\n    tag_29:\n        /* \"contracts/230516_1/2.sol\":3405:3412  address */\n      0x00\n        /* \"contracts/230516_1/2.sol\":3439:3444  daddy */\n      0x04\n      0x00\n      swap1\n      sload\n      swap1\n      0x0100\n      exp\n      swap1\n      div\n      0xffffffffffffffffffffffffffffffffffffffff\n      and\n        /* \"contracts/230516_1/2.sol\":3424:3445  return address(daddy) */\n      swap1\n      pop\n        /* \"contracts/230516_1/2.sol\":3358:3452  function getDaddyAddress() public view returns(address) {... */\n      swap1\n      jump\t// out\n        /* \"contracts/230516_1/2.sol\":2796:2891  function fathersAddress() public view returns(address) {... */\n    tag_32:\n        /* \"contracts/230516_1/2.sol\":2842:2849  address */\n      0x00\n        /* \"contracts/230516_1/2.sol\":2868:2884  DAD.getAddress() */\n      tag_59\n        /* \"contracts/230516_1/2.sol\":2868:2882  DAD.getAddress */\n      tag_17\n        /* \"contracts/230516_1/2.sol\":2868:2884  DAD.getAddress() */\n      jump\t// in\n    tag_59:\n        /* \"contracts/230516_1/2.sol\":2861:2884  return DAD.getAddress() */\n      swap1\n      pop\n        /* \"contracts/230516_1/2.sol\":2796:2891  function fathersAddress() public view returns(address) {... */\n      swap1\n      jump\t// out\n        /* \"contracts/230516_1/2.sol\":3458:3554  function getDaddy2Address() public view returns(address) {... */\n    tag_35:\n        /* \"contracts/230516_1/2.sol\":3506:3513  address */\n      0x00\n        /* \"contracts/230516_1/2.sol\":3540:3546  daddy2 */\n      0x05\n      0x00\n      swap1\n      sload\n      swap1\n      0x0100\n      exp\n      swap1\n      div\n      0xffffffffffffffffffffffffffffffffffffffff\n      and\n        /* \"contracts/230516_1/2.sol\":3525:3547  return address(daddy2) */\n      swap1\n      pop\n        /* \"contracts/230516_1/2.sol\":3458:3554  function getDaddy2Address() public view returns(address) {... */\n      swap1\n      jump\t// out\n        /* \"contracts/230516_1/2.sol\":2514:2608  function fathersName() public pure returns(string memory) {... */\n    tag_38:\n        /* \"contracts/230516_1/2.sol\":2557:2570  string memory */\n      0x60\n        /* \"contracts/230516_1/2.sol\":2589:2601  super.name() */\n      tag_62\n        /* \"contracts/230516_1/2.sol\":2589:2599  super.name */\n      tag_63\n        /* \"contracts/230516_1/2.sol\":2589:2601  super.name() */\n      jump\t// in\n    tag_62:\n        /* \"contracts/230516_1/2.sol\":2582:2601  return super.name() */\n      swap1\n      pop\n        /* \"contracts/230516_1/2.sol\":2514:2608  function fathersName() public pure returns(string memory) {... */\n      swap1\n      jump\t// out\n        /* \"contracts/230516_1/2.sol\":2614:2699  function fathersWallet() public view returns(uint) {... */\n    tag_41:\n        /* \"contracts/230516_1/2.sol\":2659:2663  uint */\n      0x00\n        /* \"contracts/230516_1/2.sol\":2682:2692  DAD.wallet */\n      sload(0x01)\n        /* \"contracts/230516_1/2.sol\":2675:2692  return DAD.wallet */\n      swap1\n      pop\n        /* \"contracts/230516_1/2.sol\":2614:2699  function fathersWallet() public view returns(uint) {... */\n      swap1\n      jump\t// out\n        /* \"contracts/230516_1/2.sol\":2376:2508  function who() override public pure returns(string memory) {... */\n    tag_44:\n        /* \"contracts/230516_1/2.sol\":2420:2433  string memory */\n      0x60\n        /* \"contracts/230516_1/2.sol\":2452:2463  super.who() */\n      tag_66\n        /* \"contracts/230516_1/2.sol\":2452:2461  super.who */\n      tag_67\n        /* \"contracts/230516_1/2.sol\":2452:2463  super.who() */\n      jump\t// in\n    tag_66:\n        /* \"contracts/230516_1/2.sol\":2445:2463  return super.who() */\n      swap1\n      pop\n        /* \"contracts/230516_1/2.sol\":2376:2508  function who() override public pure returns(string memory) {... */\n      swap1\n      jump\t// out\n        /* \"contracts/230516_1/2.sol\":2705:2790  function fathersCrypto() public view returns(uint) {... */\n    tag_47:\n        /* \"contracts/230516_1/2.sol\":2750:2754  uint */\n      0x00\n        /* \"contracts/230516_1/2.sol\":2773:2783  DAD.crypto */\n      sload(0x02)\n        /* \"contracts/230516_1/2.sol\":2766:2783  return DAD.crypto */\n      swap1\n      pop\n        /* \"contracts/230516_1/2.sol\":2705:2790  function fathersCrypto() public view returns(uint) {... */\n      swap1\n      jump\t// out\n        /* \"contracts/230516_1/2.sol\":2897:2995  function fathersAddress2() public view returns(address) {... */\n    tag_50:\n        /* \"contracts/230516_1/2.sol\":2944:2951  address */\n      0x00\n        /* \"contracts/230516_1/2.sol\":2970:2988  super.getAddress() */\n      tag_70\n        /* \"contracts/230516_1/2.sol\":2970:2986  super.getAddress */\n      tag_17\n        /* \"contracts/230516_1/2.sol\":2970:2988  super.getAddress() */\n      jump\t// in\n    tag_70:\n        /* \"contracts/230516_1/2.sol\":2963:2988  return super.getAddress() */\n      swap1\n      pop\n        /* \"contracts/230516_1/2.sol\":2897:2995  function fathersAddress2() public view returns(address) {... */\n      swap1\n      jump\t// out\n        /* \"contracts/230516_1/2.sol\":3162:3252  function fathersWallet2() public view returns(uint) {... */\n    tag_53:\n        /* \"contracts/230516_1/2.sol\":3208:3212  uint */\n      0x00\n        /* \"contracts/230516_1/2.sol\":3231:3236  daddy */\n      0x04\n      0x00\n      swap1\n      sload\n      swap1\n      0x0100\n      exp\n      swap1\n      div\n      0xffffffffffffffffffffffffffffffffffffffff\n      and\n        /* \"contracts/230516_1/2.sol\":3231:3243  daddy.wallet */\n      0xffffffffffffffffffffffffffffffffffffffff\n      and\n      0x521eb273\n        /* \"contracts/230516_1/2.sol\":3231:3245  daddy.wallet() */\n      mload(0x40)\n      dup2\n      0xffffffff\n      and\n      0xe0\n      shl\n      dup2\n      mstore\n      0x04\n      add\n      0x20\n      mload(0x40)\n      dup1\n      dup4\n      sub\n      dup2\n      dup7\n      gas\n      staticcall\n      iszero\n      dup1\n      iszero\n      tag_73\n      jumpi\n      returndatasize\n      0x00\n      dup1\n      returndatacopy\n      revert(0x00, returndatasize)\n    tag_73:\n      pop\n      pop\n      pop\n      pop\n      mload(0x40)\n      returndatasize\n      not(0x1f)\n      0x1f\n      dup3\n      add\n      and\n      dup3\n      add\n      dup1\n      0x40\n      mstore\n      pop\n      dup2\n      add\n      swap1\n      tag_74\n      swap2\n      swap1\n      tag_75\n      jump\t// in\n    tag_74:\n        /* \"contracts/230516_1/2.sol\":3224:3245  return daddy.wallet() */\n      swap1\n      pop\n        /* \"contracts/230516_1/2.sol\":3162:3252  function fathersWallet2() public view returns(uint) {... */\n      swap1\n      jump\t// out\n        /* \"contracts/230516_1/2.sol\":1301:1385  function name() internal pure returns(string memory) {... */\n    tag_63:\n        /* \"contracts/230516_1/2.sol\":1339:1352  string memory */\n      0x60\n        /* \"contracts/230516_1/2.sol\":1364:1378  return \"David\" */\n      mload(0x40)\n      dup1\n      0x40\n      add\n      0x40\n      mstore\n      dup1\n      0x05\n      dup2\n      mstore\n      0x20\n      add\n      0x4461766964000000000000000000000000000000000000000000000000000000\n      dup2\n      mstore\n      pop\n      swap1\n      pop\n        /* \"contracts/230516_1/2.sol\":1301:1385  function name() internal pure returns(string memory) {... */\n      swap1\n      jump\t// out\n        /* \"contracts/230516_1/2.sol\":1199:1295  function who() virtual public pure returns(string memory) {... */\n    tag_67:\n        /* \"contracts/230516_1/2.sol\":1242:1255  string memory */\n      0x60\n        /* \"contracts/230516_1/2.sol\":1267:1288  return \"dad from DAD\" */\n      mload(0x40)\n      dup1\n      0x40\n      add\n      0x40\n      mstore\n      dup1\n      0x0c\n      dup2\n      mstore\n      0x20\n      add\n      0x6461642066726f6d204441440000000000000000000000000000000000000000\n      dup2\n      mstore\n      pop\n      swap1\n      pop\n        /* \"contracts/230516_1/2.sol\":1199:1295  function who() virtual public pure returns(string memory) {... */\n      swap1\n      jump\t// out\n        /* \"#utility.yul\":7:133   */\n    tag_78:\n        /* \"#utility.yul\":44:51   */\n      0x00\n        /* \"#utility.yul\":84:126   */\n      0xffffffffffffffffffffffffffffffffffffffff\n        /* \"#utility.yul\":77:82   */\n      dup3\n        /* \"#utility.yul\":73:127   */\n      and\n        /* \"#utility.yul\":62:127   */\n      swap1\n      pop\n        /* \"#utility.yul\":7:133   */\n      swap2\n      swap1\n      pop\n      jump\t// out\n        /* \"#utility.yul\":139:235   */\n    tag_79:\n        /* \"#utility.yul\":176:183   */\n      0x00\n        /* \"#utility.yul\":205:229   */\n      tag_96\n        /* \"#utility.yul\":223:228   */\n      dup3\n        /* \"#utility.yul\":205:229   */\n      tag_78\n      jump\t// in\n    tag_96:\n        /* \"#utility.yul\":194:229   */\n      swap1\n      pop\n        /* \"#utility.yul\":139:235   */\n      swap2\n      swap1\n      pop\n      jump\t// out\n        /* \"#utility.yul\":241:359   */\n    tag_80:\n        /* \"#utility.yul\":328:352   */\n      tag_98\n        /* \"#utility.yul\":346:351   */\n      dup2\n        /* \"#utility.yul\":328:352   */\n      tag_79\n      jump\t// in\n    tag_98:\n        /* \"#utility.yul\":323:326   */\n      dup3\n        /* \"#utility.yul\":316:353   */\n      mstore\n        /* \"#utility.yul\":241:359   */\n      pop\n      pop\n      jump\t// out\n        /* \"#utility.yul\":365:587   */\n    tag_19:\n        /* \"#utility.yul\":458:462   */\n      0x00\n        /* \"#utility.yul\":496:498   */\n      0x20\n        /* \"#utility.yul\":485:494   */\n      dup3\n        /* \"#utility.yul\":481:499   */\n      add\n        /* \"#utility.yul\":473:499   */\n      swap1\n      pop\n        /* \"#utility.yul\":509:580   */\n      tag_100\n        /* \"#utility.yul\":577:578   */\n      0x00\n        /* \"#utility.yul\":566:575   */\n      dup4\n        /* \"#utility.yul\":562:579   */\n      add\n        /* \"#utility.yul\":553:559   */\n      dup5\n        /* \"#utility.yul\":509:580   */\n      tag_80\n      jump\t// in\n    tag_100:\n        /* \"#utility.yul\":365:587   */\n      swap3\n      swap2\n      pop\n      pop\n      jump\t// out\n        /* \"#utility.yul\":593:692   */\n    tag_81:\n        /* \"#utility.yul\":645:651   */\n      0x00\n        /* \"#utility.yul\":679:684   */\n      dup2\n        /* \"#utility.yul\":673:685   */\n      mload\n        /* \"#utility.yul\":663:685   */\n      swap1\n      pop\n        /* \"#utility.yul\":593:692   */\n      swap2\n      swap1\n      pop\n      jump\t// out\n        /* \"#utility.yul\":698:867   */\n    tag_82:\n        /* \"#utility.yul\":782:793   */\n      0x00\n        /* \"#utility.yul\":816:822   */\n      dup3\n        /* \"#utility.yul\":811:814   */\n      dup3\n        /* \"#utility.yul\":804:823   */\n      mstore\n        /* \"#utility.yul\":856:860   */\n      0x20\n        /* \"#utility.yul\":851:854   */\n      dup3\n        /* \"#utility.yul\":847:861   */\n      add\n        /* \"#utility.yul\":832:861   */\n      swap1\n      pop\n        /* \"#utility.yul\":698:867   */\n      swap3\n      swap2\n      pop\n      pop\n      jump\t// out\n        /* \"#utility.yul\":873:1119   */\n    tag_83:\n        /* \"#utility.yul\":954:955   */\n      0x00\n        /* \"#utility.yul\":964:1077   */\n    tag_104:\n        /* \"#utility.yul\":978:984   */\n      dup4\n        /* \"#utility.yul\":975:976   */\n      dup2\n        /* \"#utility.yul\":972:985   */\n      lt\n        /* \"#utility.yul\":964:1077   */\n      iszero\n      tag_106\n      jumpi\n        /* \"#utility.yul\":1063:1064   */\n      dup1\n        /* \"#utility.yul\":1058:1061   */\n      dup3\n        /* \"#utility.yul\":1054:1065   */\n      add\n        /* \"#utility.yul\":1048:1066   */\n      mload\n        /* \"#utility.yul\":1044:1045   */\n      dup2\n        /* \"#utility.yul\":1039:1042   */\n      dup5\n        /* \"#utility.yul\":1035:1046   */\n      add\n        /* \"#utility.yul\":1028:1067   */\n      mstore\n        /* \"#utility.yul\":1000:1002   */\n      0x20\n        /* \"#utility.yul\":997:998   */\n      dup2\n        /* \"#utility.yul\":993:1003   */\n      add\n        /* \"#utility.yul\":988:1003   */\n      swap1\n      pop\n        /* \"#utility.yul\":964:1077   */\n      jump(tag_104)\n    tag_106:\n        /* \"#utility.yul\":1111:1112   */\n      0x00\n        /* \"#utility.yul\":1102:1108   */\n      dup5\n        /* \"#utility.yul\":1097:1100   */\n      dup5\n        /* \"#utility.yul\":1093:1109   */\n      add\n        /* \"#utility.yul\":1086:1113   */\n      mstore\n        /* \"#utility.yul\":935:1119   */\n      pop\n        /* \"#utility.yul\":873:1119   */\n      pop\n      pop\n      pop\n      jump\t// out\n        /* \"#utility.yul\":1125:1227   */\n    tag_84:\n        /* \"#utility.yul\":1166:1172   */\n      0x00\n        /* \"#utility.yul\":1217:1219   */\n      0x1f\n        /* \"#utility.yul\":1213:1220   */\n      not\n        /* \"#utility.yul\":1208:1210   */\n      0x1f\n        /* \"#utility.yul\":1201:1206   */\n      dup4\n        /* \"#utility.yul\":1197:1211   */\n      add\n        /* \"#utility.yul\":1193:1221   */\n      and\n        /* \"#utility.yul\":1183:1221   */\n      swap1\n      pop\n        /* \"#utility.yul\":1125:1227   */\n      swap2\n      swap1\n      pop\n      jump\t// out\n        /* \"#utility.yul\":1233:1610   */\n    tag_85:\n        /* \"#utility.yul\":1321:1324   */\n      0x00\n        /* \"#utility.yul\":1349:1388   */\n      tag_109\n        /* \"#utility.yul\":1382:1387   */\n      dup3\n        /* \"#utility.yul\":1349:1388   */\n      tag_81\n      jump\t// in\n    tag_109:\n        /* \"#utility.yul\":1404:1475   */\n      tag_110\n        /* \"#utility.yul\":1468:1474   */\n      dup2\n        /* \"#utility.yul\":1463:1466   */\n      dup6\n        /* \"#utility.yul\":1404:1475   */\n      tag_82\n      jump\t// in\n    tag_110:\n        /* \"#utility.yul\":1397:1475   */\n      swap4\n      pop\n        /* \"#utility.yul\":1484:1549   */\n      tag_111\n        /* \"#utility.yul\":1542:1548   */\n      dup2\n        /* \"#utility.yul\":1537:1540   */\n      dup6\n        /* \"#utility.yul\":1530:1534   */\n      0x20\n        /* \"#utility.yul\":1523:1528   */\n      dup7\n        /* \"#utility.yul\":1519:1535   */\n      add\n        /* \"#utility.yul\":1484:1549   */\n      tag_83\n      jump\t// in\n    tag_111:\n        /* \"#utility.yul\":1574:1603   */\n      tag_112\n        /* \"#utility.yul\":1596:1602   */\n      dup2\n        /* \"#utility.yul\":1574:1603   */\n      tag_84\n      jump\t// in\n    tag_112:\n        /* \"#utility.yul\":1569:1572   */\n      dup5\n        /* \"#utility.yul\":1565:1604   */\n      add\n        /* \"#utility.yul\":1558:1604   */\n      swap2\n      pop\n        /* \"#utility.yul\":1325:1610   */\n      pop\n        /* \"#utility.yul\":1233:1610   */\n      swap3\n      swap2\n      pop\n      pop\n      jump\t// out\n        /* \"#utility.yul\":1616:1929   */\n    tag_23:\n        /* \"#utility.yul\":1729:1733   */\n      0x00\n        /* \"#utility.yul\":1767:1769   */\n      0x20\n        /* \"#utility.yul\":1756:1765   */\n      dup3\n        /* \"#utility.yul\":1752:1770   */\n      add\n        /* \"#utility.yul\":1744:1770   */\n      swap1\n      pop\n        /* \"#utility.yul\":1816:1825   */\n      dup2\n        /* \"#utility.yul\":1810:1814   */\n      dup2\n        /* \"#utility.yul\":1806:1826   */\n      sub\n        /* \"#utility.yul\":1802:1803   */\n      0x00\n        /* \"#utility.yul\":1791:1800   */\n      dup4\n        /* \"#utility.yul\":1787:1804   */\n      add\n        /* \"#utility.yul\":1780:1827   */\n      mstore\n        /* \"#utility.yul\":1844:1922   */\n      tag_114\n        /* \"#utility.yul\":1917:1921   */\n      dup2\n        /* \"#utility.yul\":1908:1914   */\n      dup5\n        /* \"#utility.yul\":1844:1922   */\n      tag_85\n      jump\t// in\n    tag_114:\n        /* \"#utility.yul\":1836:1922   */\n      swap1\n      pop\n        /* \"#utility.yul\":1616:1929   */\n      swap3\n      swap2\n      pop\n      pop\n      jump\t// out\n        /* \"#utility.yul\":1935:2012   */\n    tag_86:\n        /* \"#utility.yul\":1972:1979   */\n      0x00\n        /* \"#utility.yul\":2001:2006   */\n      dup2\n        /* \"#utility.yul\":1990:2006   */\n      swap1\n      pop\n        /* \"#utility.yul\":1935:2012   */\n      swap2\n      swap1\n      pop\n      jump\t// out\n        /* \"#utility.yul\":2018:2136   */\n    tag_87:\n        /* \"#utility.yul\":2105:2129   */\n      tag_117\n        /* \"#utility.yul\":2123:2128   */\n      dup2\n        /* \"#utility.yul\":2105:2129   */\n      tag_86\n      jump\t// in\n    tag_117:\n        /* \"#utility.yul\":2100:2103   */\n      dup3\n        /* \"#utility.yul\":2093:2130   */\n      mstore\n        /* \"#utility.yul\":2018:2136   */\n      pop\n      pop\n      jump\t// out\n        /* \"#utility.yul\":2142:2364   */\n    tag_27:\n        /* \"#utility.yul\":2235:2239   */\n      0x00\n        /* \"#utility.yul\":2273:2275   */\n      0x20\n        /* \"#utility.yul\":2262:2271   */\n      dup3\n        /* \"#utility.yul\":2258:2276   */\n      add\n        /* \"#utility.yul\":2250:2276   */\n      swap1\n      pop\n        /* \"#utility.yul\":2286:2357   */\n      tag_119\n        /* \"#utility.yul\":2354:2355   */\n      0x00\n        /* \"#utility.yul\":2343:2352   */\n      dup4\n        /* \"#utility.yul\":2339:2356   */\n      add\n        /* \"#utility.yul\":2330:2336   */\n      dup5\n        /* \"#utility.yul\":2286:2357   */\n      tag_87\n      jump\t// in\n    tag_119:\n        /* \"#utility.yul\":2142:2364   */\n      swap3\n      swap2\n      pop\n      pop\n      jump\t// out\n        /* \"#utility.yul\":2451:2568   */\n    tag_89:\n        /* \"#utility.yul\":2560:2561   */\n      0x00\n        /* \"#utility.yul\":2557:2558   */\n      dup1\n        /* \"#utility.yul\":2550:2562   */\n      revert\n        /* \"#utility.yul\":2697:2819   */\n    tag_91:\n        /* \"#utility.yul\":2770:2794   */\n      tag_124\n        /* \"#utility.yul\":2788:2793   */\n      dup2\n        /* \"#utility.yul\":2770:2794   */\n      tag_86\n      jump\t// in\n    tag_124:\n        /* \"#utility.yul\":2763:2768   */\n      dup2\n        /* \"#utility.yul\":2760:2795   */\n      eq\n        /* \"#utility.yul\":2750:2813   */\n      tag_125\n      jumpi\n        /* \"#utility.yul\":2809:2810   */\n      0x00\n        /* \"#utility.yul\":2806:2807   */\n      dup1\n        /* \"#utility.yul\":2799:2811   */\n      revert\n        /* \"#utility.yul\":2750:2813   */\n    tag_125:\n        /* \"#utility.yul\":2697:2819   */\n      pop\n      jump\t// out\n        /* \"#utility.yul\":2825:2968   */\n    tag_92:\n        /* \"#utility.yul\":2882:2887   */\n      0x00\n        /* \"#utility.yul\":2913:2919   */\n      dup2\n        /* \"#utility.yul\":2907:2920   */\n      mload\n        /* \"#utility.yul\":2898:2920   */\n      swap1\n      pop\n        /* \"#utility.yul\":2929:2962   */\n      tag_127\n        /* \"#utility.yul\":2956:2961   */\n      dup2\n        /* \"#utility.yul\":2929:2962   */\n      tag_91\n      jump\t// in\n    tag_127:\n        /* \"#utility.yul\":2825:2968   */\n      swap3\n      swap2\n      pop\n      pop\n      jump\t// out\n        /* \"#utility.yul\":2974:3325   */\n    tag_75:\n        /* \"#utility.yul\":3044:3050   */\n      0x00\n        /* \"#utility.yul\":3093:3095   */\n      0x20\n        /* \"#utility.yul\":3081:3090   */\n      dup3\n        /* \"#utility.yul\":3072:3079   */\n      dup5\n        /* \"#utility.yul\":3068:3091   */\n      sub\n        /* \"#utility.yul\":3064:3096   */\n      slt\n        /* \"#utility.yul\":3061:3180   */\n      iszero\n      tag_129\n      jumpi\n        /* \"#utility.yul\":3099:3178   */\n      tag_130\n      tag_89\n      jump\t// in\n    tag_130:\n        /* \"#utility.yul\":3061:3180   */\n    tag_129:\n        /* \"#utility.yul\":3219:3220   */\n      0x00\n        /* \"#utility.yul\":3244:3308   */\n      tag_131\n        /* \"#utility.yul\":3300:3307   */\n      dup5\n        /* \"#utility.yul\":3291:3297   */\n      dup3\n        /* \"#utility.yul\":3280:3289   */\n      dup6\n        /* \"#utility.yul\":3276:3298   */\n      add\n        /* \"#utility.yul\":3244:3308   */\n      tag_92\n      jump\t// in\n    tag_131:\n        /* \"#utility.yul\":3234:3308   */\n      swap2\n      pop\n        /* \"#utility.yul\":3190:3318   */\n      pop\n        /* \"#utility.yul\":2974:3325   */\n      swap3\n      swap2\n      pop\n      pop\n      jump\t// out\n\n    auxdata: 0xa2646970667358221220bec4093d238295ce5fd93d5449afc7986a6b65412cb137a2da87a2543179fb2964736f6c63430008120033\n}\n\nsub_1: assembly {\n        /* \"contracts/230516_1/2.sol\":971:1660  contract DAD {... */\n      mstore(0x40, 0x80)\n        /* \"contracts/230516_1/2.sol\":1022:1025  100 */\n      0x64\n        /* \"contracts/230516_1/2.sol\":1003:1025  uint public wallet=100 */\n      0x01\n      sstore\n        /* \"contracts/230516_1/2.sol\":1079:1083  1000 */\n      0x03e8\n        /* \"contracts/230516_1/2.sol\":1058:1083  uint internal crypto=1000 */\n      0x02\n      sstore\n        /* \"contracts/230516_1/2.sol\":1167:1172  10000 */\n      0x2710\n        /* \"contracts/230516_1/2.sol\":1144:1172  uint private emergency=10000 */\n      0x03\n      sstore\n        /* \"contracts/230516_1/2.sol\":971:1660  contract DAD {... */\n      callvalue\n      dup1\n      iszero\n      tag_1\n      jumpi\n      0x00\n      dup1\n      revert\n    tag_1:\n      pop\n      dataSize(sub_0)\n      dup1\n      dataOffset(sub_0)\n      0x00\n      codecopy\n      0x00\n      return\n    stop\n\n    sub_0: assembly {\n            /* \"contracts/230516_1/2.sol\":971:1660  contract DAD {... */\n          mstore(0x40, 0x80)\n          callvalue\n          dup1\n          iszero\n          tag_1\n          jumpi\n          0x00\n          dup1\n          revert\n        tag_1:\n          pop\n          jumpi(tag_2, lt(calldatasize, 0x04))\n          shr(0xe0, calldataload(0x00))\n          dup1\n          0x38cc4831\n          eq\n          tag_3\n          jumpi\n          dup1\n          0x4d2e03a0\n          eq\n          tag_4\n          jumpi\n          dup1\n          0x521eb273\n          eq\n          tag_5\n          jumpi\n          dup1\n          0xd6d21dfd\n          eq\n          tag_6\n          jumpi\n        tag_2:\n          0x00\n          dup1\n          revert\n            /* \"contracts/230516_1/2.sol\":1570:1658  function getAddress() public view returns(address) {... */\n        tag_3:\n          tag_7\n          tag_8\n          jump\t// in\n        tag_7:\n          mload(0x40)\n          tag_9\n          swap2\n          swap1\n          tag_10\n          jump\t// in\n        tag_9:\n          mload(0x40)\n          dup1\n          swap2\n          sub\n          swap1\n          return\n            /* \"contracts/230516_1/2.sol\":1472:1564  function character() external pure returns(string memory) {... */\n        tag_4:\n          tag_11\n          tag_12\n          jump\t// in\n        tag_11:\n          mload(0x40)\n          tag_13\n          swap2\n          swap1\n          tag_14\n          jump\t// in\n        tag_13:\n          mload(0x40)\n          dup1\n          swap2\n          sub\n          swap1\n          return\n            /* \"contracts/230516_1/2.sol\":1003:1025  uint public wallet=100 */\n        tag_5:\n          tag_15\n          tag_16\n          jump\t// in\n        tag_15:\n          mload(0x40)\n          tag_17\n          swap2\n          swap1\n          tag_18\n          jump\t// in\n        tag_17:\n          mload(0x40)\n          dup1\n          swap2\n          sub\n          swap1\n          return\n            /* \"contracts/230516_1/2.sol\":1199:1295  function who() virtual public pure returns(string memory) {... */\n        tag_6:\n          tag_19\n          tag_20\n          jump\t// in\n        tag_19:\n          mload(0x40)\n          tag_21\n          swap2\n          swap1\n          tag_14\n          jump\t// in\n        tag_21:\n          mload(0x40)\n          dup1\n          swap2\n          sub\n          swap1\n          return\n            /* \"contracts/230516_1/2.sol\":1570:1658  function getAddress() public view returns(address) {... */\n        tag_8:\n            /* \"contracts/230516_1/2.sol\":1612:1619  address */\n          0x00\n            /* \"contracts/230516_1/2.sol\":1646:1650  this */\n          address\n            /* \"contracts/230516_1/2.sol\":1631:1651  return address(this) */\n          swap1\n          pop\n            /* \"contracts/230516_1/2.sol\":1570:1658  function getAddress() public view returns(address) {... */\n          swap1\n          jump\t// out\n            /* \"contracts/230516_1/2.sol\":1472:1564  function character() external pure returns(string memory) {... */\n        tag_12:\n            /* \"contracts/230516_1/2.sol\":1515:1528  string memory */\n          0x60\n            /* \"contracts/230516_1/2.sol\":1540:1557  return \"not good\" */\n          mload(0x40)\n          dup1\n          0x40\n          add\n          0x40\n          mstore\n          dup1\n          0x08\n          dup2\n          mstore\n          0x20\n          add\n          0x6e6f7420676f6f64000000000000000000000000000000000000000000000000\n          dup2\n          mstore\n          pop\n          swap1\n          pop\n            /* \"contracts/230516_1/2.sol\":1472:1564  function character() external pure returns(string memory) {... */\n          swap1\n          jump\t// out\n            /* \"contracts/230516_1/2.sol\":1003:1025  uint public wallet=100 */\n        tag_16:\n          sload(0x01)\n          dup2\n          jump\t// out\n            /* \"contracts/230516_1/2.sol\":1199:1295  function who() virtual public pure returns(string memory) {... */\n        tag_20:\n            /* \"contracts/230516_1/2.sol\":1242:1255  string memory */\n          0x60\n            /* \"contracts/230516_1/2.sol\":1267:1288  return \"dad from DAD\" */\n          mload(0x40)\n          dup1\n          0x40\n          add\n          0x40\n          mstore\n          dup1\n          0x0c\n          dup2\n          mstore\n          0x20\n          add\n          0x6461642066726f6d204441440000000000000000000000000000000000000000\n          dup2\n          mstore\n          pop\n          swap1\n          pop\n            /* \"contracts/230516_1/2.sol\":1199:1295  function who() virtual public pure returns(string memory) {... */\n          swap1\n          jump\t// out\n            /* \"#utility.yul\":7:133   */\n        tag_25:\n            /* \"#utility.yul\":44:51   */\n          0x00\n            /* \"#utility.yul\":84:126   */\n          0xffffffffffffffffffffffffffffffffffffffff\n            /* \"#utility.yul\":77:82   */\n          dup3\n            /* \"#utility.yul\":73:127   */\n          and\n            /* \"#utility.yul\":62:127   */\n          swap1\n          pop\n            /* \"#utility.yul\":7:133   */\n          swap2\n          swap1\n          pop\n          jump\t// out\n            /* \"#utility.yul\":139:235   */\n        tag_26:\n            /* \"#utility.yul\":176:183   */\n          0x00\n            /* \"#utility.yul\":205:229   */\n          tag_38\n            /* \"#utility.yul\":223:228   */\n          dup3\n            /* \"#utility.yul\":205:229   */\n          tag_25\n          jump\t// in\n        tag_38:\n            /* \"#utility.yul\":194:229   */\n          swap1\n          pop\n            /* \"#utility.yul\":139:235   */\n          swap2\n          swap1\n          pop\n          jump\t// out\n            /* \"#utility.yul\":241:359   */\n        tag_27:\n            /* \"#utility.yul\":328:352   */\n          tag_40\n            /* \"#utility.yul\":346:351   */\n          dup2\n            /* \"#utility.yul\":328:352   */\n          tag_26\n          jump\t// in\n        tag_40:\n            /* \"#utility.yul\":323:326   */\n          dup3\n            /* \"#utility.yul\":316:353   */\n          mstore\n            /* \"#utility.yul\":241:359   */\n          pop\n          pop\n          jump\t// out\n            /* \"#utility.yul\":365:587   */\n        tag_10:\n            /* \"#utility.yul\":458:462   */\n          0x00\n            /* \"#utility.yul\":496:498   */\n          0x20\n            /* \"#utility.yul\":485:494   */\n          dup3\n            /* \"#utility.yul\":481:499   */\n          add\n            /* \"#utility.yul\":473:499   */\n          swap1\n          pop\n            /* \"#utility.yul\":509:580   */\n          tag_42\n            /* \"#utility.yul\":577:578   */\n          0x00\n            /* \"#utility.yul\":566:575   */\n          dup4\n            /* \"#utility.yul\":562:579   */\n          add\n            /* \"#utility.yul\":553:559   */\n          dup5\n            /* \"#utility.yul\":509:580   */\n          tag_27\n          jump\t// in\n        tag_42:\n            /* \"#utility.yul\":365:587   */\n          swap3\n          swap2\n          pop\n          pop\n          jump\t// out\n            /* \"#utility.yul\":593:692   */\n        tag_28:\n            /* \"#utility.yul\":645:651   */\n          0x00\n            /* \"#utility.yul\":679:684   */\n          dup2\n            /* \"#utility.yul\":673:685   */\n          mload\n            /* \"#utility.yul\":663:685   */\n          swap1\n          pop\n            /* \"#utility.yul\":593:692   */\n          swap2\n          swap1\n          pop\n          jump\t// out\n            /* \"#utility.yul\":698:867   */\n        tag_29:\n            /* \"#utility.yul\":782:793   */\n          0x00\n            /* \"#utility.yul\":816:822   */\n          dup3\n            /* \"#utility.yul\":811:814   */\n          dup3\n            /* \"#utility.yul\":804:823   */\n          mstore\n            /* \"#utility.yul\":856:860   */\n          0x20\n            /* \"#utility.yul\":851:854   */\n          dup3\n            /* \"#utility.yul\":847:861   */\n          add\n            /* \"#utility.yul\":832:861   */\n          swap1\n          pop\n            /* \"#utility.yul\":698:867   */\n          swap3\n          swap2\n          pop\n          pop\n          jump\t// out\n            /* \"#utility.yul\":873:1119   */\n        tag_30:\n            /* \"#utility.yul\":954:955   */\n          0x00\n            /* \"#utility.yul\":964:1077   */\n        tag_46:\n            /* \"#utility.yul\":978:984   */\n          dup4\n            /* \"#utility.yul\":975:976   */\n          dup2\n            /* \"#utility.yul\":972:985   */\n          lt\n            /* \"#utility.yul\":964:1077   */\n          iszero\n          tag_48\n          jumpi\n            /* \"#utility.yul\":1063:1064   */\n          dup1\n            /* \"#utility.yul\":1058:1061   */\n          dup3\n            /* \"#utility.yul\":1054:1065   */\n          add\n            /* \"#utility.yul\":1048:1066   */\n          mload\n            /* \"#utility.yul\":1044:1045   */\n          dup2\n            /* \"#utility.yul\":1039:1042   */\n          dup5\n            /* \"#utility.yul\":1035:1046   */\n          add\n            /* \"#utility.yul\":1028:1067   */\n          mstore\n            /* \"#utility.yul\":1000:1002   */\n          0x20\n            /* \"#utility.yul\":997:998   */\n          dup2\n            /* \"#utility.yul\":993:1003   */\n          add\n            /* \"#utility.yul\":988:1003   */\n          swap1\n          pop\n            /* \"#utility.yul\":964:1077   */\n          jump(tag_46)\n        tag_48:\n            /* \"#utility.yul\":1111:1112   */\n          0x00\n            /* \"#utility.yul\":1102:1108   */\n          dup5\n            /* \"#utility.yul\":1097:1100   */\n          dup5\n            /* \"#utility.yul\":1093:1109   */\n          add\n            /* \"#utility.yul\":1086:1113   */\n          mstore\n            /* \"#utility.yul\":935:1119   */\n          pop\n            /* \"#utility.yul\":873:1119   */\n          pop\n          pop\n          pop\n          jump\t// out\n            /* \"#utility.yul\":1125:1227   */\n        tag_31:\n            /* \"#utility.yul\":1166:1172   */\n          0x00\n            /* \"#utility.yul\":1217:1219   */\n          0x1f\n            /* \"#utility.yul\":1213:1220   */\n          not\n            /* \"#utility.yul\":1208:1210   */\n          0x1f\n            /* \"#utility.yul\":1201:1206   */\n          dup4\n            /* \"#utility.yul\":1197:1211   */\n          add\n            /* \"#utility.yul\":1193:1221   */\n          and\n            /* \"#utility.yul\":1183:1221   */\n          swap1\n          pop\n            /* \"#utility.yul\":1125:1227   */\n          swap2\n          swap1\n          pop\n          jump\t// out\n            /* \"#utility.yul\":1233:1610   */\n        tag_32:\n            /* \"#utility.yul\":1321:1324   */\n          0x00\n            /* \"#utility.yul\":1349:1388   */\n          tag_51\n            /* \"#utility.yul\":1382:1387   */\n          dup3\n            /* \"#utility.yul\":1349:1388   */\n          tag_28\n          jump\t// in\n        tag_51:\n            /* \"#utility.yul\":1404:1475   */\n          tag_52\n            /* \"#utility.yul\":1468:1474   */\n          dup2\n            /* \"#utility.yul\":1463:1466   */\n          dup6\n            /* \"#utility.yul\":1404:1475   */\n          tag_29\n          jump\t// in\n        tag_52:\n            /* \"#utility.yul\":1397:1475   */\n          swap4\n          pop\n            /* \"#utility.yul\":1484:1549   */\n          tag_53\n            /* \"#utility.yul\":1542:1548   */\n          dup2\n            /* \"#utility.yul\":1537:1540   */\n          dup6\n            /* \"#utility.yul\":1530:1534   */\n          0x20\n            /* \"#utility.yul\":1523:1528   */\n          dup7\n            /* \"#utility.yul\":1519:1535   */\n          add\n            /* \"#utility.yul\":1484:1549   */\n          tag_30\n          jump\t// in\n        tag_53:\n            /* \"#utility.yul\":1574:1603   */\n          tag_54\n            /* \"#utility.yul\":1596:1602   */\n          dup2\n            /* \"#utility.yul\":1574:1603   */\n          tag_31\n          jump\t// in\n        tag_54:\n            /* \"#utility.yul\":1569:1572   */\n          dup5\n            /* \"#utility.yul\":1565:1604   */\n          add\n            /* \"#utility.yul\":1558:1604   */\n          swap2\n          pop\n            /* \"#utility.yul\":1325:1610   */\n          pop\n            /* \"#utility.yul\":1233:1610   */\n          swap3\n          swap2\n          pop\n          pop\n          jump\t// out\n            /* \"#utility.yul\":1616:1929   */\n        tag_14:\n            /* \"#utility.yul\":1729:1733   */\n          0x00\n            /* \"#utility.yul\":1767:1769   */\n          0x20\n            /* \"#utility.yul\":1756:1765   */\n          dup3\n            /* \"#utility.yul\":1752:1770   */\n          add\n            /* \"#utility.yul\":1744:1770   */\n          swap1\n          pop\n            /* \"#utility.yul\":1816:1825   */\n          dup2\n            /* \"#utility.yul\":1810:1814   */\n          dup2\n            /* \"#utility.yul\":1806:1826   */\n          sub\n            /* \"#utility.yul\":1802:1803   */\n          0x00\n            /* \"#utility.yul\":1791:1800   */\n          dup4\n            /* \"#utility.yul\":1787:1804   */\n          add\n            /* \"#utility.yul\":1780:1827   */\n          mstore\n            /* \"#utility.yul\":1844:1922   */\n          tag_56\n            /* \"#utility.yul\":1917:1921   */\n          dup2\n            /* \"#utility.yul\":1908:1914   */\n          dup5\n            /* \"#utility.yul\":1844:1922   */\n          tag_32\n          jump\t// in\n        tag_56:\n            /* \"#utility.yul\":1836:1922   */\n          swap1\n          pop\n            /* \"#utility.yul\":1616:1929   */\n          swap3\n          swap2\n          pop\n          pop\n          jump\t// out\n            /* \"#utility.yul\":1935:2012   */\n        tag_33:\n            /* \"#utility.yul\":1972:1979   */\n          0x00\n            /* \"#utility.yul\":2001:2006   */\n          dup2\n            /* \"#utility.yul\":1990:2006   */\n          swap1\n          pop\n            /* \"#utility.yul\":1935:2012   */\n          swap2\n          swap1\n          pop\n          jump\t// out\n            /* \"#utility.yul\":2018:2136   */\n        tag_34:\n            /* \"#utility.yul\":2105:2129   */\n          tag_59\n            /* \"#utility.yul\":2123:2128   */\n          dup2\n            /* \"#utility.yul\":2105:2129   */\n          tag_33\n          jump\t// in\n        tag_59:\n            /* \"#utility.yul\":2100:2103   */\n          dup3\n            /* \"#utility.yul\":2093:2130   */\n          mstore\n            /* \"#utility.yul\":2018:2136   */\n          pop\n          pop\n          jump\t// out\n            /* \"#utility.yul\":2142:2364   */\n        tag_18:\n            /* \"#utility.yul\":2235:2239   */\n          0x00\n            /* \"#utility.yul\":2273:2275   */\n          0x20\n            /* \"#utility.yul\":2262:2271   */\n          dup3\n            /* \"#utility.yul\":2258:2276   */\n          add\n            /* \"#utility.yul\":2250:2276   */\n          swap1\n          pop\n            /* \"#utility.yul\":2286:2357   */\n          tag_61\n            /* \"#utility.yul\":2354:2355   */\n          0x00\n            /* \"#utility.yul\":2343:2352   */\n          dup4\n            /* \"#utility.yul\":2339:2356   */\n          add\n            /* \"#utility.yul\":2330:2336   */\n          dup5\n            /* \"#utility.yul\":2286:2357   */\n          tag_34\n          jump\t// in\n        tag_61:\n            /* \"#utility.yul\":2142:2364   */\n          swap3\n          swap2\n          pop\n          pop\n          jump\t// out\n\n        auxdata: 0xa26469706673582212208a1be0cbf2694e55c62eb4b62478988546460764b3ebd39ac4ed77de4d8cd3be64736f6c63430008120033\n    }\n}\n",
				"bytecode": {
					"linkReferences": {},
					"object": "608060405260646001556103e8600255612710600355604051610021906100f9565b604051809103906000f08015801561003d573d6000803e3d6000fd5b50600460006101000a81548173ffffffffffffffffffffffffffffffffffffffff021916908373ffffffffffffffffffffffffffffffffffffffff16021790555060405161008a906100f9565b604051809103906000f0801580156100a6573d6000803e3d6000fd5b50600560006101000a81548173ffffffffffffffffffffffffffffffffffffffff021916908373ffffffffffffffffffffffffffffffffffffffff1602179055503480156100f357600080fd5b50610106565b6102fa8061070d83390190565b6105f8806101156000396000f3fe608060405234801561001057600080fd5b50600436106100b45760003560e01c8063bfc8b3bc11610071578063bfc8b3bc1461016d578063c2e86e291461018b578063d6d21dfd146101a9578063f0e79e29146101c7578063f7b7bb92146101e5578063f9aff3f014610203576100b4565b806338cc4831146100b95780634d2e03a0146100d7578063521eb273146100f55780637e498940146101135780638149837d146101315780638903e8121461014f575b600080fd5b6100c1610221565b6040516100ce9190610463565b60405180910390f35b6100df610229565b6040516100ec919061050e565b60405180910390f35b6100fd610266565b60405161010a9190610549565b60405180910390f35b61011b61026c565b6040516101289190610463565b60405180910390f35b610139610296565b6040516101469190610463565b60405180910390f35b6101576102a5565b6040516101649190610463565b60405180910390f35b6101756102cf565b604051610182919061050e565b60405180910390f35b6101936102de565b6040516101a09190610549565b60405180910390f35b6101b16102e8565b6040516101be919061050e565b60405180910390f35b6101cf6102f7565b6040516101dc9190610549565b60405180910390f35b6101ed610301565b6040516101fa9190610463565b60405180910390f35b61020b610310565b6040516102189190610549565b60405180910390f35b600030905090565b60606040518060400160405280600881526020017f6e6f7420676f6f64000000000000000000000000000000000000000000000000815250905090565b60015481565b6000600460009054906101000a900473ffffffffffffffffffffffffffffffffffffffff16905090565b60006102a0610221565b905090565b6000600560009054906101000a900473ffffffffffffffffffffffffffffffffffffffff16905090565b60606102d96103a8565b905090565b6000600154905090565b60606102f26103e5565b905090565b6000600254905090565b600061030b610221565b905090565b6000600460009054906101000a900473ffffffffffffffffffffffffffffffffffffffff1673ffffffffffffffffffffffffffffffffffffffff1663521eb2736040518163ffffffff1660e01b8152600401602060405180830381865afa15801561037f573d6000803e3d6000fd5b505050506040513d601f19601f820116820180604052508101906103a39190610595565b905090565b60606040518060400160405280600581526020017f4461766964000000000000000000000000000000000000000000000000000000815250905090565b60606040518060400160405280600c81526020017f6461642066726f6d204441440000000000000000000000000000000000000000815250905090565b600073ffffffffffffffffffffffffffffffffffffffff82169050919050565b600061044d82610422565b9050919050565b61045d81610442565b82525050565b60006020820190506104786000830184610454565b92915050565b600081519050919050565b600082825260208201905092915050565b60005b838110156104b857808201518184015260208101905061049d565b60008484015250505050565b6000601f19601f8301169050919050565b60006104e08261047e565b6104ea8185610489565b93506104fa81856020860161049a565b610503816104c4565b840191505092915050565b6000602082019050818103600083015261052881846104d5565b905092915050565b6000819050919050565b61054381610530565b82525050565b600060208201905061055e600083018461053a565b92915050565b600080fd5b61057281610530565b811461057d57600080fd5b50565b60008151905061058f81610569565b92915050565b6000602082840312156105ab576105aa610564565b5b60006105b984828501610580565b9150509291505056fea2646970667358221220bec4093d238295ce5fd93d5449afc7986a6b65412cb137a2da87a2543179fb2964736f6c63430008120033608060405260646001556103e860025561271060035534801561002157600080fd5b506102c9806100316000396000f3fe608060405234801561001057600080fd5b506004361061004c5760003560e01c806338cc4831146100515780634d2e03a01461006f578063521eb2731461008d578063d6d21dfd146100ab575b600080fd5b6100596100c9565b6040516100669190610192565b60405180910390f35b6100776100d1565b604051610084919061023d565b60405180910390f35b61009561010e565b6040516100a29190610278565b60405180910390f35b6100b3610114565b6040516100c0919061023d565b60405180910390f35b600030905090565b60606040518060400160405280600881526020017f6e6f7420676f6f64000000000000000000000000000000000000000000000000815250905090565b60015481565b60606040518060400160405280600c81526020017f6461642066726f6d204441440000000000000000000000000000000000000000815250905090565b600073ffffffffffffffffffffffffffffffffffffffff82169050919050565b600061017c82610151565b9050919050565b61018c81610171565b82525050565b60006020820190506101a76000830184610183565b92915050565b600081519050919050565b600082825260208201905092915050565b60005b838110156101e75780820151818401526020810190506101cc565b60008484015250505050565b6000601f19601f8301169050919050565b600061020f826101ad565b61021981856101b8565b93506102298185602086016101c9565b610232816101f3565b840191505092915050565b600060208201905081810360008301526102578184610204565b905092915050565b6000819050919050565b6102728161025f565b82525050565b600060208201905061028d6000830184610269565b9291505056fea26469706673582212208a1be0cbf2694e55c62eb4b62478988546460764b3ebd39ac4ed77de4d8cd3be64736f6c63430008120033",
					"opcodes": "PUSH1 0x80 PUSH1 0x40 MSTORE PUSH1 0x64 PUSH1 0x1 SSTORE PUSH2 0x3E8 PUSH1 0x2 SSTORE PUSH2 0x2710 PUSH1 0x3 SSTORE PUSH1 0x40 MLOAD PUSH2 0x21 SWAP1 PUSH2 0xF9 JUMP JUMPDEST PUSH1 0x40 MLOAD DUP1 SWAP2 SUB SWAP1 PUSH1 0x0 CREATE DUP1 ISZERO DUP1 ISZERO PUSH2 0x3D JUMPI RETURNDATASIZE PUSH1 0x0 DUP1 RETURNDATACOPY RETURNDATASIZE PUSH1 0x0 REVERT JUMPDEST POP PUSH1 0x4 PUSH1 0x0 PUSH2 0x100 EXP DUP2 SLOAD DUP2 PUSH20 0xFFFFFFFFFFFFFFFFFFFFFFFFFFFFFFFFFFFFFFFF MUL NOT AND SWAP1 DUP4 PUSH20 0xFFFFFFFFFFFFFFFFFFFFFFFFFFFFFFFFFFFFFFFF AND MUL OR SWAP1 SSTORE POP PUSH1 0x40 MLOAD PUSH2 0x8A SWAP1 PUSH2 0xF9 JUMP JUMPDEST PUSH1 0x40 MLOAD DUP1 SWAP2 SUB SWAP1 PUSH1 0x0 CREATE DUP1 ISZERO DUP1 ISZERO PUSH2 0xA6 JUMPI RETURNDATASIZE PUSH1 0x0 DUP1 RETURNDATACOPY RETURNDATASIZE PUSH1 0x0 REVERT JUMPDEST POP PUSH1 0x5 PUSH1 0x0 PUSH2 0x100 EXP DUP2 SLOAD DUP2 PUSH20 0xFFFFFFFFFFFFFFFFFFFFFFFFFFFFFFFFFFFFFFFF MUL NOT AND SWAP1 DUP4 PUSH20 0xFFFFFFFFFFFFFFFFFFFFFFFFFFFFFFFFFFFFFFFF AND MUL OR SWAP1 SSTORE POP CALLVALUE DUP1 ISZERO PUSH2 0xF3 JUMPI PUSH1 0x0 DUP1 REVERT JUMPDEST POP PUSH2 0x106 JUMP JUMPDEST PUSH2 0x2FA DUP1 PUSH2 0x70D DUP4 CODECOPY ADD SWAP1 JUMP JUMPDEST PUSH2 0x5F8 DUP1 PUSH2 0x115 PUSH1 0x0 CODECOPY PUSH1 0x0 RETURN INVALID PUSH1 0x80 PUSH1 0x40 MSTORE CALLVALUE DUP1 ISZERO PUSH2 0x10 JUMPI PUSH1 0x0 DUP1 REVERT JUMPDEST POP PUSH1 0x4 CALLDATASIZE LT PUSH2 0xB4 JUMPI PUSH1 0x0 CALLDATALOAD PUSH1 0xE0 SHR DUP1 PUSH4 0xBFC8B3BC GT PUSH2 0x71 JUMPI DUP1 PUSH4 0xBFC8B3BC EQ PUSH2 0x16D JUMPI DUP1 PUSH4 0xC2E86E29 EQ PUSH2 0x18B JUMPI DUP1 PUSH4 0xD6D21DFD EQ PUSH2 0x1A9 JUMPI DUP1 PUSH4 0xF0E79E29 EQ PUSH2 0x1C7 JUMPI DUP1 PUSH4 0xF7B7BB92 EQ PUSH2 0x1E5 JUMPI DUP1 PUSH4 0xF9AFF3F0 EQ PUSH2 0x203 JUMPI PUSH2 0xB4 JUMP JUMPDEST DUP1 PUSH4 0x38CC4831 EQ PUSH2 0xB9 JUMPI DUP1 PUSH4 0x4D2E03A0 EQ PUSH2 0xD7 JUMPI DUP1 PUSH4 0x521EB273 EQ PUSH2 0xF5 JUMPI DUP1 PUSH4 0x7E498940 EQ PUSH2 0x113 JUMPI DUP1 PUSH4 0x8149837D EQ PUSH2 0x131 JUMPI DUP1 PUSH4 0x8903E812 EQ PUSH2 0x14F JUMPI JUMPDEST PUSH1 0x0 DUP1 REVERT JUMPDEST PUSH2 0xC1 PUSH2 0x221 JUMP JUMPDEST PUSH1 0x40 MLOAD PUSH2 0xCE SWAP2 SWAP1 PUSH2 0x463 JUMP JUMPDEST PUSH1 0x40 MLOAD DUP1 SWAP2 SUB SWAP1 RETURN JUMPDEST PUSH2 0xDF PUSH2 0x229 JUMP JUMPDEST PUSH1 0x40 MLOAD PUSH2 0xEC SWAP2 SWAP1 PUSH2 0x50E JUMP JUMPDEST PUSH1 0x40 MLOAD DUP1 SWAP2 SUB SWAP1 RETURN JUMPDEST PUSH2 0xFD PUSH2 0x266 JUMP JUMPDEST PUSH1 0x40 MLOAD PUSH2 0x10A SWAP2 SWAP1 PUSH2 0x549 JUMP JUMPDEST PUSH1 0x40 MLOAD DUP1 SWAP2 SUB SWAP1 RETURN JUMPDEST PUSH2 0x11B PUSH2 0x26C JUMP JUMPDEST PUSH1 0x40 MLOAD PUSH2 0x128 SWAP2 SWAP1 PUSH2 0x463 JUMP JUMPDEST PUSH1 0x40 MLOAD DUP1 SWAP2 SUB SWAP1 RETURN JUMPDEST PUSH2 0x139 PUSH2 0x296 JUMP JUMPDEST PUSH1 0x40 MLOAD PUSH2 0x146 SWAP2 SWAP1 PUSH2 0x463 JUMP JUMPDEST PUSH1 0x40 MLOAD DUP1 SWAP2 SUB SWAP1 RETURN JUMPDEST PUSH2 0x157 PUSH2 0x2A5 JUMP JUMPDEST PUSH1 0x40 MLOAD PUSH2 0x164 SWAP2 SWAP1 PUSH2 0x463 JUMP JUMPDEST PUSH1 0x40 MLOAD DUP1 SWAP2 SUB SWAP1 RETURN JUMPDEST PUSH2 0x175 PUSH2 0x2CF JUMP JUMPDEST PUSH1 0x40 MLOAD PUSH2 0x182 SWAP2 SWAP1 PUSH2 0x50E JUMP JUMPDEST PUSH1 0x40 MLOAD DUP1 SWAP2 SUB SWAP1 RETURN JUMPDEST PUSH2 0x193 PUSH2 0x2DE JUMP JUMPDEST PUSH1 0x40 MLOAD PUSH2 0x1A0 SWAP2 SWAP1 PUSH2 0x549 JUMP JUMPDEST PUSH1 0x40 MLOAD DUP1 SWAP2 SUB SWAP1 RETURN JUMPDEST PUSH2 0x1B1 PUSH2 0x2E8 JUMP JUMPDEST PUSH1 0x40 MLOAD PUSH2 0x1BE SWAP2 SWAP1 PUSH2 0x50E JUMP JUMPDEST PUSH1 0x40 MLOAD DUP1 SWAP2 SUB SWAP1 RETURN JUMPDEST PUSH2 0x1CF PUSH2 0x2F7 JUMP JUMPDEST PUSH1 0x40 MLOAD PUSH2 0x1DC SWAP2 SWAP1 PUSH2 0x549 JUMP JUMPDEST PUSH1 0x40 MLOAD DUP1 SWAP2 SUB SWAP1 RETURN JUMPDEST PUSH2 0x1ED PUSH2 0x301 JUMP JUMPDEST PUSH1 0x40 MLOAD PUSH2 0x1FA SWAP2 SWAP1 PUSH2 0x463 JUMP JUMPDEST PUSH1 0x40 MLOAD DUP1 SWAP2 SUB SWAP1 RETURN JUMPDEST PUSH2 0x20B PUSH2 0x310 JUMP JUMPDEST PUSH1 0x40 MLOAD PUSH2 0x218 SWAP2 SWAP1 PUSH2 0x549 JUMP JUMPDEST PUSH1 0x40 MLOAD DUP1 SWAP2 SUB SWAP1 RETURN JUMPDEST PUSH1 0x0 ADDRESS SWAP1 POP SWAP1 JUMP JUMPDEST PUSH1 0x60 PUSH1 0x40 MLOAD DUP1 PUSH1 0x40 ADD PUSH1 0x40 MSTORE DUP1 PUSH1 0x8 DUP2 MSTORE PUSH1 0x20 ADD PUSH32 0x6E6F7420676F6F64000000000000000000000000000000000000000000000000 DUP2 MSTORE POP SWAP1 POP SWAP1 JUMP JUMPDEST PUSH1 0x1 SLOAD DUP2 JUMP JUMPDEST PUSH1 0x0 PUSH1 0x4 PUSH1 0x0 SWAP1 SLOAD SWAP1 PUSH2 0x100 EXP SWAP1 DIV PUSH20 0xFFFFFFFFFFFFFFFFFFFFFFFFFFFFFFFFFFFFFFFF AND SWAP1 POP SWAP1 JUMP JUMPDEST PUSH1 0x0 PUSH2 0x2A0 PUSH2 0x221 JUMP JUMPDEST SWAP1 POP SWAP1 JUMP JUMPDEST PUSH1 0x0 PUSH1 0x5 PUSH1 0x0 SWAP1 SLOAD SWAP1 PUSH2 0x100 EXP SWAP1 DIV PUSH20 0xFFFFFFFFFFFFFFFFFFFFFFFFFFFFFFFFFFFFFFFF AND SWAP1 POP SWAP1 JUMP JUMPDEST PUSH1 0x60 PUSH2 0x2D9 PUSH2 0x3A8 JUMP JUMPDEST SWAP1 POP SWAP1 JUMP JUMPDEST PUSH1 0x0 PUSH1 0x1 SLOAD SWAP1 POP SWAP1 JUMP JUMPDEST PUSH1 0x60 PUSH2 0x2F2 PUSH2 0x3E5 JUMP JUMPDEST SWAP1 POP SWAP1 JUMP JUMPDEST PUSH1 0x0 PUSH1 0x2 SLOAD SWAP1 POP SWAP1 JUMP JUMPDEST PUSH1 0x0 PUSH2 0x30B PUSH2 0x221 JUMP JUMPDEST SWAP1 POP SWAP1 JUMP JUMPDEST PUSH1 0x0 PUSH1 0x4 PUSH1 0x0 SWAP1 SLOAD SWAP1 PUSH2 0x100 EXP SWAP1 DIV PUSH20 0xFFFFFFFFFFFFFFFFFFFFFFFFFFFFFFFFFFFFFFFF AND PUSH20 0xFFFFFFFFFFFFFFFFFFFFFFFFFFFFFFFFFFFFFFFF AND PUSH4 0x521EB273 PUSH1 0x40 MLOAD DUP2 PUSH4 0xFFFFFFFF AND PUSH1 0xE0 SHL DUP2 MSTORE PUSH1 0x4 ADD PUSH1 0x20 PUSH1 0x40 MLOAD DUP1 DUP4 SUB DUP2 DUP7 GAS STATICCALL ISZERO DUP1 ISZERO PUSH2 0x37F JUMPI RETURNDATASIZE PUSH1 0x0 DUP1 RETURNDATACOPY RETURNDATASIZE PUSH1 0x0 REVERT JUMPDEST POP POP POP POP PUSH1 0x40 MLOAD RETURNDATASIZE PUSH1 0x1F NOT PUSH1 0x1F DUP3 ADD AND DUP3 ADD DUP1 PUSH1 0x40 MSTORE POP DUP2 ADD SWAP1 PUSH2 0x3A3 SWAP2 SWAP1 PUSH2 0x595 JUMP JUMPDEST SWAP1 POP SWAP1 JUMP JUMPDEST PUSH1 0x60 PUSH1 0x40 MLOAD DUP1 PUSH1 0x40 ADD PUSH1 0x40 MSTORE DUP1 PUSH1 0x5 DUP2 MSTORE PUSH1 0x20 ADD PUSH32 0x4461766964000000000000000000000000000000000000000000000000000000 DUP2 MSTORE POP SWAP1 POP SWAP1 JUMP JUMPDEST PUSH1 0x60 PUSH1 0x40 MLOAD DUP1 PUSH1 0x40 ADD PUSH1 0x40 MSTORE DUP1 PUSH1 0xC DUP2 MSTORE PUSH1 0x20 ADD PUSH32 0x6461642066726F6D204441440000000000000000000000000000000000000000 DUP2 MSTORE POP SWAP1 POP SWAP1 JUMP JUMPDEST PUSH1 0x0 PUSH20 0xFFFFFFFFFFFFFFFFFFFFFFFFFFFFFFFFFFFFFFFF DUP3 AND SWAP1 POP SWAP2 SWAP1 POP JUMP JUMPDEST PUSH1 0x0 PUSH2 0x44D DUP3 PUSH2 0x422 JUMP JUMPDEST SWAP1 POP SWAP2 SWAP1 POP JUMP JUMPDEST PUSH2 0x45D DUP2 PUSH2 0x442 JUMP JUMPDEST DUP3 MSTORE POP POP JUMP JUMPDEST PUSH1 0x0 PUSH1 0x20 DUP3 ADD SWAP1 POP PUSH2 0x478 PUSH1 0x0 DUP4 ADD DUP5 PUSH2 0x454 JUMP JUMPDEST SWAP3 SWAP2 POP POP JUMP JUMPDEST PUSH1 0x0 DUP2 MLOAD SWAP1 POP SWAP2 SWAP1 POP JUMP JUMPDEST PUSH1 0x0 DUP3 DUP3 MSTORE PUSH1 0x20 DUP3 ADD SWAP1 POP SWAP3 SWAP2 POP POP JUMP JUMPDEST PUSH1 0x0 JUMPDEST DUP4 DUP2 LT ISZERO PUSH2 0x4B8 JUMPI DUP1 DUP3 ADD MLOAD DUP2 DUP5 ADD MSTORE PUSH1 0x20 DUP2 ADD SWAP1 POP PUSH2 0x49D JUMP JUMPDEST PUSH1 0x0 DUP5 DUP5 ADD MSTORE POP POP POP POP JUMP JUMPDEST PUSH1 0x0 PUSH1 0x1F NOT PUSH1 0x1F DUP4 ADD AND SWAP1 POP SWAP2 SWAP1 POP JUMP JUMPDEST PUSH1 0x0 PUSH2 0x4E0 DUP3 PUSH2 0x47E JUMP JUMPDEST PUSH2 0x4EA DUP2 DUP6 PUSH2 0x489 JUMP JUMPDEST SWAP4 POP PUSH2 0x4FA DUP2 DUP6 PUSH1 0x20 DUP7 ADD PUSH2 0x49A JUMP JUMPDEST PUSH2 0x503 DUP2 PUSH2 0x4C4 JUMP JUMPDEST DUP5 ADD SWAP2 POP POP SWAP3 SWAP2 POP POP JUMP JUMPDEST PUSH1 0x0 PUSH1 0x20 DUP3 ADD SWAP1 POP DUP2 DUP2 SUB PUSH1 0x0 DUP4 ADD MSTORE PUSH2 0x528 DUP2 DUP5 PUSH2 0x4D5 JUMP JUMPDEST SWAP1 POP SWAP3 SWAP2 POP POP JUMP JUMPDEST PUSH1 0x0 DUP2 SWAP1 POP SWAP2 SWAP1 POP JUMP JUMPDEST PUSH2 0x543 DUP2 PUSH2 0x530 JUMP JUMPDEST DUP3 MSTORE POP POP JUMP JUMPDEST PUSH1 0x0 PUSH1 0x20 DUP3 ADD SWAP1 POP PUSH2 0x55E PUSH1 0x0 DUP4 ADD DUP5 PUSH2 0x53A JUMP JUMPDEST SWAP3 SWAP2 POP POP JUMP JUMPDEST PUSH1 0x0 DUP1 REVERT JUMPDEST PUSH2 0x572 DUP2 PUSH2 0x530 JUMP JUMPDEST DUP2 EQ PUSH2 0x57D JUMPI PUSH1 0x0 DUP1 REVERT JUMPDEST POP JUMP JUMPDEST PUSH1 0x0 DUP2 MLOAD SWAP1 POP PUSH2 0x58F DUP2 PUSH2 0x569 JUMP JUMPDEST SWAP3 SWAP2 POP POP JUMP JUMPDEST PUSH1 0x0 PUSH1 0x20 DUP3 DUP5 SUB SLT ISZERO PUSH2 0x5AB JUMPI PUSH2 0x5AA PUSH2 0x564 JUMP JUMPDEST JUMPDEST PUSH1 0x0 PUSH2 0x5B9 DUP5 DUP3 DUP6 ADD PUSH2 0x580 JUMP JUMPDEST SWAP2 POP POP SWAP3 SWAP2 POP POP JUMP INVALID LOG2 PUSH5 0x6970667358 0x22 SLT KECCAK256 0xBE 0xC4 MULMOD RETURNDATASIZE 0x23 DUP3 SWAP6 0xCE 0x5F 0xD9 RETURNDATASIZE SLOAD 0x49 0xAF 0xC7 SWAP9 PUSH11 0x6B65412CB137A2DA87A254 BALANCE PUSH26 0xFB2964736F6C63430008120033608060405260646001556103E8 PUSH1 0x2 SSTORE PUSH2 0x2710 PUSH1 0x3 SSTORE CALLVALUE DUP1 ISZERO PUSH2 0x21 JUMPI PUSH1 0x0 DUP1 REVERT JUMPDEST POP PUSH2 0x2C9 DUP1 PUSH2 0x31 PUSH1 0x0 CODECOPY PUSH1 0x0 RETURN INVALID PUSH1 0x80 PUSH1 0x40 MSTORE CALLVALUE DUP1 ISZERO PUSH2 0x10 JUMPI PUSH1 0x0 DUP1 REVERT JUMPDEST POP PUSH1 0x4 CALLDATASIZE LT PUSH2 0x4C JUMPI PUSH1 0x0 CALLDATALOAD PUSH1 0xE0 SHR DUP1 PUSH4 0x38CC4831 EQ PUSH2 0x51 JUMPI DUP1 PUSH4 0x4D2E03A0 EQ PUSH2 0x6F JUMPI DUP1 PUSH4 0x521EB273 EQ PUSH2 0x8D JUMPI DUP1 PUSH4 0xD6D21DFD EQ PUSH2 0xAB JUMPI JUMPDEST PUSH1 0x0 DUP1 REVERT JUMPDEST PUSH2 0x59 PUSH2 0xC9 JUMP JUMPDEST PUSH1 0x40 MLOAD PUSH2 0x66 SWAP2 SWAP1 PUSH2 0x192 JUMP JUMPDEST PUSH1 0x40 MLOAD DUP1 SWAP2 SUB SWAP1 RETURN JUMPDEST PUSH2 0x77 PUSH2 0xD1 JUMP JUMPDEST PUSH1 0x40 MLOAD PUSH2 0x84 SWAP2 SWAP1 PUSH2 0x23D JUMP JUMPDEST PUSH1 0x40 MLOAD DUP1 SWAP2 SUB SWAP1 RETURN JUMPDEST PUSH2 0x95 PUSH2 0x10E JUMP JUMPDEST PUSH1 0x40 MLOAD PUSH2 0xA2 SWAP2 SWAP1 PUSH2 0x278 JUMP JUMPDEST PUSH1 0x40 MLOAD DUP1 SWAP2 SUB SWAP1 RETURN JUMPDEST PUSH2 0xB3 PUSH2 0x114 JUMP JUMPDEST PUSH1 0x40 MLOAD PUSH2 0xC0 SWAP2 SWAP1 PUSH2 0x23D JUMP JUMPDEST PUSH1 0x40 MLOAD DUP1 SWAP2 SUB SWAP1 RETURN JUMPDEST PUSH1 0x0 ADDRESS SWAP1 POP SWAP1 JUMP JUMPDEST PUSH1 0x60 PUSH1 0x40 MLOAD DUP1 PUSH1 0x40 ADD PUSH1 0x40 MSTORE DUP1 PUSH1 0x8 DUP2 MSTORE PUSH1 0x20 ADD PUSH32 0x6E6F7420676F6F64000000000000000000000000000000000000000000000000 DUP2 MSTORE POP SWAP1 POP SWAP1 JUMP JUMPDEST PUSH1 0x1 SLOAD DUP2 JUMP JUMPDEST PUSH1 0x60 PUSH1 0x40 MLOAD DUP1 PUSH1 0x40 ADD PUSH1 0x40 MSTORE DUP1 PUSH1 0xC DUP2 MSTORE PUSH1 0x20 ADD PUSH32 0x6461642066726F6D204441440000000000000000000000000000000000000000 DUP2 MSTORE POP SWAP1 POP SWAP1 JUMP JUMPDEST PUSH1 0x0 PUSH20 0xFFFFFFFFFFFFFFFFFFFFFFFFFFFFFFFFFFFFFFFF DUP3 AND SWAP1 POP SWAP2 SWAP1 POP JUMP JUMPDEST PUSH1 0x0 PUSH2 0x17C DUP3 PUSH2 0x151 JUMP JUMPDEST SWAP1 POP SWAP2 SWAP1 POP JUMP JUMPDEST PUSH2 0x18C DUP2 PUSH2 0x171 JUMP JUMPDEST DUP3 MSTORE POP POP JUMP JUMPDEST PUSH1 0x0 PUSH1 0x20 DUP3 ADD SWAP1 POP PUSH2 0x1A7 PUSH1 0x0 DUP4 ADD DUP5 PUSH2 0x183 JUMP JUMPDEST SWAP3 SWAP2 POP POP JUMP JUMPDEST PUSH1 0x0 DUP2 MLOAD SWAP1 POP SWAP2 SWAP1 POP JUMP JUMPDEST PUSH1 0x0 DUP3 DUP3 MSTORE PUSH1 0x20 DUP3 ADD SWAP1 POP SWAP3 SWAP2 POP POP JUMP JUMPDEST PUSH1 0x0 JUMPDEST DUP4 DUP2 LT ISZERO PUSH2 0x1E7 JUMPI DUP1 DUP3 ADD MLOAD DUP2 DUP5 ADD MSTORE PUSH1 0x20 DUP2 ADD SWAP1 POP PUSH2 0x1CC JUMP JUMPDEST PUSH1 0x0 DUP5 DUP5 ADD MSTORE POP POP POP POP JUMP JUMPDEST PUSH1 0x0 PUSH1 0x1F NOT PUSH1 0x1F DUP4 ADD AND SWAP1 POP SWAP2 SWAP1 POP JUMP JUMPDEST PUSH1 0x0 PUSH2 0x20F DUP3 PUSH2 0x1AD JUMP JUMPDEST PUSH2 0x219 DUP2 DUP6 PUSH2 0x1B8 JUMP JUMPDEST SWAP4 POP PUSH2 0x229 DUP2 DUP6 PUSH1 0x20 DUP7 ADD PUSH2 0x1C9 JUMP JUMPDEST PUSH2 0x232 DUP2 PUSH2 0x1F3 JUMP JUMPDEST DUP5 ADD SWAP2 POP POP SWAP3 SWAP2 POP POP JUMP JUMPDEST PUSH1 0x0 PUSH1 0x20 DUP3 ADD SWAP1 POP DUP2 DUP2 SUB PUSH1 0x0 DUP4 ADD MSTORE PUSH2 0x257 DUP2 DUP5 PUSH2 0x204 JUMP JUMPDEST SWAP1 POP SWAP3 SWAP2 POP POP JUMP JUMPDEST PUSH1 0x0 DUP2 SWAP1 POP SWAP2 SWAP1 POP JUMP JUMPDEST PUSH2 0x272 DUP2 PUSH2 0x25F JUMP JUMPDEST DUP3 MSTORE POP POP JUMP JUMPDEST PUSH1 0x0 PUSH1 0x20 DUP3 ADD SWAP1 POP PUSH2 0x28D PUSH1 0x0 DUP4 ADD DUP5 PUSH2 0x269 JUMP JUMPDEST SWAP3 SWAP2 POP POP JUMP INVALID LOG2 PUSH5 0x6970667358 0x22 SLT KECCAK256 DUP11 SHL 0xE0 0xCB CALLCODE PUSH10 0x4E55C62EB4B624789885 CHAINID CHAINID SMOD PUSH5 0xB3EBD39AC4 0xED PUSH24 0xDE4D8CD3BE64736F6C634300081200330000000000000000 "
				},
				"gasEstimates": {
					"creation": {
						"codeDepositCost": "305600",
						"executionCost": "infinite",
						"totalCost": "infinite"
					},
					"external": {
						"character()": "infinite",
						"fathersAddress()": "509",
						"fathersAddress2()": "508",
						"fathersCrypto()": "2503",
						"fathersName()": "infinite",
						"fathersWallet()": "2459",
						"fathersWallet2()": "infinite",
						"getAddress()": "386",
						"getDaddy2Address()": "2633",
						"getDaddyAddress()": "2589",
						"wallet()": "2474",
						"who()": "infinite"
					}
				},
				"methodIdentifiers": {
					"character()": "4d2e03a0",
					"fathersAddress()": "8149837d",
					"fathersAddress2()": "f7b7bb92",
					"fathersCrypto()": "f0e79e29",
					"fathersName()": "bfc8b3bc",
					"fathersWallet()": "c2e86e29",
					"fathersWallet2()": "f9aff3f0",
					"getAddress()": "38cc4831",
					"getDaddy2Address()": "8903e812",
					"getDaddyAddress()": "7e498940",
					"wallet()": "521eb273",
					"who()": "d6d21dfd"
				}
			},
			"storageLayout": {
				"storage": [
					{
						"astId": 140,
						"contract": "contracts/230516_1/2.sol:CHILD",
						"label": "a",
						"offset": 0,
						"slot": "0",
						"type": "t_uint256"
					},
					{
						"astId": 143,
						"contract": "contracts/230516_1/2.sol:CHILD",
						"label": "wallet",
						"offset": 0,
						"slot": "1",
						"type": "t_uint256"
					},
					{
						"astId": 146,
						"contract": "contracts/230516_1/2.sol:CHILD",
						"label": "crypto",
						"offset": 0,
						"slot": "2",
						"type": "t_uint256"
					},
					{
						"astId": 149,
						"contract": "contracts/230516_1/2.sol:CHILD",
						"label": "emergency",
						"offset": 0,
						"slot": "3",
						"type": "t_uint256"
					},
					{
						"astId": 308,
						"contract": "contracts/230516_1/2.sol:CHILD",
						"label": "daddy",
						"offset": 0,
						"slot": "4",
						"type": "t_contract(DAD)193"
					},
					{
						"astId": 315,
						"contract": "contracts/230516_1/2.sol:CHILD",
						"label": "daddy2",
						"offset": 0,
						"slot": "5",
						"type": "t_contract(DAD)193"
					}
				],
				"types": {
					"t_contract(DAD)193": {
						"encoding": "inplace",
						"label": "contract DAD",
						"numberOfBytes": "20"
					},
					"t_uint256": {
						"encoding": "inplace",
						"label": "uint256",
						"numberOfBytes": "32"
					}
				}
			},
			"userdoc": {
				"kind": "user",
				"methods": {},
				"version": 1
			}
		}
	}
}