{
	"contracts/230516_1/2.sol": {
		"MOM": {
			"abi": [
				{
					"inputs": [],
					"name": "getHusbandChar",
					"outputs": [
						{
							"internalType": "string",
							"name": "",
							"type": "string"
						}
					],
					"stateMutability": "view",
					"type": "function"
				},
				{
					"inputs": [],
					"name": "getWallet",
					"outputs": [
						{
							"internalType": "uint256",
							"name": "",
							"type": "uint256"
						}
					],
					"stateMutability": "view",
					"type": "function"
				},
				{
					"inputs": [],
					"name": "husbandAddress",
					"outputs": [
						{
							"internalType": "address",
							"name": "",
							"type": "address"
						}
					],
					"stateMutability": "view",
					"type": "function"
				},
				{
					"inputs": [],
					"name": "who",
					"outputs": [
						{
							"internalType": "string",
							"name": "",
							"type": "string"
						}
					],
					"stateMutability": "pure",
					"type": "function"
				}
			],
			"devdoc": {
				"kind": "dev",
				"methods": {},
				"version": 1
			},
			"evm": {
				"assembly": "    /* \"contracts/230516_1/2.sol\":1662:2346  contract MOM {... */\n  mstore(0x40, 0x80)\n    /* \"contracts/230516_1/2.sol\":1695:1704  new DAD() */\n  mload(0x40)\n  tag_1\n  swap1\n  tag_2\n  jump\t// in\ntag_1:\n  mload(0x40)\n  dup1\n  swap2\n  sub\n  swap1\n  0x00\n  create\n  dup1\n  iszero\n  dup1\n  iszero\n  tag_3\n  jumpi\n  returndatasize\n  0x00\n  dup1\n  returndatacopy\n  revert(0x00, returndatasize)\ntag_3:\n  pop\n    /* \"contracts/230516_1/2.sol\":1681:1704  DAD husband = new DAD() */\n  0x00\n  dup1\n  0x0100\n  exp\n  dup2\n  sload\n  dup2\n  0xffffffffffffffffffffffffffffffffffffffff\n  mul\n  not\n  and\n  swap1\n  dup4\n  0xffffffffffffffffffffffffffffffffffffffff\n  and\n  mul\n  or\n  swap1\n  sstore\n  pop\n    /* \"contracts/230516_1/2.sol\":1662:2346  contract MOM {... */\n  callvalue\n  dup1\n  iszero\n  tag_4\n  jumpi\n  0x00\n  dup1\n  revert\ntag_4:\n  pop\n  jump(tag_5)\ntag_2:\n  dataSize(sub_1)\n  dup1\n  dataOffset(sub_1)\n  dup4\n  codecopy\n  add\n  swap1\n  jump\t// out\ntag_5:\n  dataSize(sub_0)\n  dup1\n  dataOffset(sub_0)\n  0x00\n  codecopy\n  0x00\n  return\nstop\n\nsub_0: assembly {\n        /* \"contracts/230516_1/2.sol\":1662:2346  contract MOM {... */\n      mstore(0x40, 0x80)\n      callvalue\n      dup1\n      iszero\n      tag_1\n      jumpi\n      0x00\n      dup1\n      revert\n    tag_1:\n      pop\n      jumpi(tag_2, lt(calldatasize, 0x04))\n      shr(0xe0, calldataload(0x00))\n      dup1\n      0x0c304e4b\n      eq\n      tag_3\n      jumpi\n      dup1\n      0x13299604\n      eq\n      tag_4\n      jumpi\n      dup1\n      0x1c7d5c42\n      eq\n      tag_5\n      jumpi\n      dup1\n      0xd6d21dfd\n      eq\n      tag_6\n      jumpi\n    tag_2:\n      0x00\n      dup1\n      revert\n        /* \"contracts/230516_1/2.sol\":1812:1916  function getHusbandChar() public view returns(string memory) {... */\n    tag_3:\n      tag_7\n      tag_8\n      jump\t// in\n    tag_7:\n      mload(0x40)\n      tag_9\n      swap2\n      swap1\n      tag_10\n      jump\t// in\n    tag_9:\n      mload(0x40)\n      dup1\n      swap2\n      sub\n      swap1\n      return\n        /* \"contracts/230516_1/2.sol\":1922:2009  function getWallet() public view returns(uint) {... */\n    tag_4:\n      tag_11\n      tag_12\n      jump\t// in\n    tag_11:\n      mload(0x40)\n      tag_13\n      swap2\n      swap1\n      tag_14\n      jump\t// in\n    tag_13:\n      mload(0x40)\n      dup1\n      swap2\n      sub\n      swap1\n      return\n        /* \"contracts/230516_1/2.sol\":2015:2110  function husbandAddress() public view returns(address) {... */\n    tag_5:\n      tag_15\n      tag_16\n      jump\t// in\n    tag_15:\n      mload(0x40)\n      tag_17\n      swap2\n      swap1\n      tag_18\n      jump\t// in\n    tag_17:\n      mload(0x40)\n      dup1\n      swap2\n      sub\n      swap1\n      return\n        /* \"contracts/230516_1/2.sol\":1710:1806  function who() virtual public pure returns(string memory) {... */\n    tag_6:\n      tag_19\n      tag_20\n      jump\t// in\n    tag_19:\n      mload(0x40)\n      tag_21\n      swap2\n      swap1\n      tag_10\n      jump\t// in\n    tag_21:\n      mload(0x40)\n      dup1\n      swap2\n      sub\n      swap1\n      return\n        /* \"contracts/230516_1/2.sol\":1812:1916  function getHusbandChar() public view returns(string memory) {... */\n    tag_8:\n        /* \"contracts/230516_1/2.sol\":1858:1871  string memory */\n      0x60\n        /* \"contracts/230516_1/2.sol\":1890:1897  husband */\n      0x00\n      dup1\n      sload\n      swap1\n      0x0100\n      exp\n      swap1\n      div\n      0xffffffffffffffffffffffffffffffffffffffff\n      and\n        /* \"contracts/230516_1/2.sol\":1890:1907  husband.character */\n      0xffffffffffffffffffffffffffffffffffffffff\n      and\n      0x4d2e03a0\n        /* \"contracts/230516_1/2.sol\":1890:1909  husband.character() */\n      mload(0x40)\n      dup2\n      0xffffffff\n      and\n      0xe0\n      shl\n      dup2\n      mstore\n      0x04\n      add\n      0x00\n      mload(0x40)\n      dup1\n      dup4\n      sub\n      dup2\n      dup7\n      gas\n      staticcall\n      iszero\n      dup1\n      iszero\n      tag_24\n      jumpi\n      returndatasize\n      0x00\n      dup1\n      returndatacopy\n      revert(0x00, returndatasize)\n    tag_24:\n      pop\n      pop\n      pop\n      pop\n      mload(0x40)\n      returndatasize\n      0x00\n      dup3\n      returndatacopy\n      returndatasize\n      not(0x1f)\n      0x1f\n      dup3\n      add\n      and\n      dup3\n      add\n      dup1\n      0x40\n      mstore\n      pop\n      dup2\n      add\n      swap1\n      tag_25\n      swap2\n      swap1\n      tag_26\n      jump\t// in\n    tag_25:\n        /* \"contracts/230516_1/2.sol\":1883:1909  return husband.character() */\n      swap1\n      pop\n        /* \"contracts/230516_1/2.sol\":1812:1916  function getHusbandChar() public view returns(string memory) {... */\n      swap1\n      jump\t// out\n        /* \"contracts/230516_1/2.sol\":1922:2009  function getWallet() public view returns(uint) {... */\n    tag_12:\n        /* \"contracts/230516_1/2.sol\":1963:1967  uint */\n      0x00\n        /* \"contracts/230516_1/2.sol\":1986:1993  husband */\n      dup1\n      0x00\n      swap1\n      sload\n      swap1\n      0x0100\n      exp\n      swap1\n      div\n      0xffffffffffffffffffffffffffffffffffffffff\n      and\n        /* \"contracts/230516_1/2.sol\":1986:2000  husband.wallet */\n      0xffffffffffffffffffffffffffffffffffffffff\n      and\n      0x521eb273\n        /* \"contracts/230516_1/2.sol\":1986:2002  husband.wallet() */\n      mload(0x40)\n      dup2\n      0xffffffff\n      and\n      0xe0\n      shl\n      dup2\n      mstore\n      0x04\n      add\n      0x20\n      mload(0x40)\n      dup1\n      dup4\n      sub\n      dup2\n      dup7\n      gas\n      staticcall\n      iszero\n      dup1\n      iszero\n      tag_29\n      jumpi\n      returndatasize\n      0x00\n      dup1\n      returndatacopy\n      revert(0x00, returndatasize)\n    tag_29:\n      pop\n      pop\n      pop\n      pop\n      mload(0x40)\n      returndatasize\n      not(0x1f)\n      0x1f\n      dup3\n      add\n      and\n      dup3\n      add\n      dup1\n      0x40\n      mstore\n      pop\n      dup2\n      add\n      swap1\n      tag_30\n      swap2\n      swap1\n      tag_31\n      jump\t// in\n    tag_30:\n        /* \"contracts/230516_1/2.sol\":1979:2002  return husband.wallet() */\n      swap1\n      pop\n        /* \"contracts/230516_1/2.sol\":1922:2009  function getWallet() public view returns(uint) {... */\n      swap1\n      jump\t// out\n        /* \"contracts/230516_1/2.sol\":2015:2110  function husbandAddress() public view returns(address) {... */\n    tag_16:\n        /* \"contracts/230516_1/2.sol\":2061:2068  address */\n      0x00\n        /* \"contracts/230516_1/2.sol\":2095:2102  husband */\n      dup1\n      0x00\n      swap1\n      sload\n      swap1\n      0x0100\n      exp\n      swap1\n      div\n      0xffffffffffffffffffffffffffffffffffffffff\n      and\n        /* \"contracts/230516_1/2.sol\":2080:2103  return address(husband) */\n      swap1\n      pop\n        /* \"contracts/230516_1/2.sol\":2015:2110  function husbandAddress() public view returns(address) {... */\n      swap1\n      jump\t// out\n        /* \"contracts/230516_1/2.sol\":1710:1806  function who() virtual public pure returns(string memory) {... */\n    tag_20:\n        /* \"contracts/230516_1/2.sol\":1753:1766  string memory */\n      0x60\n        /* \"contracts/230516_1/2.sol\":1778:1799  return \"mom from MOM\" */\n      mload(0x40)\n      dup1\n      0x40\n      add\n      0x40\n      mstore\n      dup1\n      0x0c\n      dup2\n      mstore\n      0x20\n      add\n      0x6d6f6d2066726f6d204d4f4d0000000000000000000000000000000000000000\n      dup2\n      mstore\n      pop\n      swap1\n      pop\n        /* \"contracts/230516_1/2.sol\":1710:1806  function who() virtual public pure returns(string memory) {... */\n      swap1\n      jump\t// out\n        /* \"#utility.yul\":7:106   */\n    tag_34:\n        /* \"#utility.yul\":59:65   */\n      0x00\n        /* \"#utility.yul\":93:98   */\n      dup2\n        /* \"#utility.yul\":87:99   */\n      mload\n        /* \"#utility.yul\":77:99   */\n      swap1\n      pop\n        /* \"#utility.yul\":7:106   */\n      swap2\n      swap1\n      pop\n      jump\t// out\n        /* \"#utility.yul\":112:281   */\n    tag_35:\n        /* \"#utility.yul\":196:207   */\n      0x00\n        /* \"#utility.yul\":230:236   */\n      dup3\n        /* \"#utility.yul\":225:228   */\n      dup3\n        /* \"#utility.yul\":218:237   */\n      mstore\n        /* \"#utility.yul\":270:274   */\n      0x20\n        /* \"#utility.yul\":265:268   */\n      dup3\n        /* \"#utility.yul\":261:275   */\n      add\n        /* \"#utility.yul\":246:275   */\n      swap1\n      pop\n        /* \"#utility.yul\":112:281   */\n      swap3\n      swap2\n      pop\n      pop\n      jump\t// out\n        /* \"#utility.yul\":287:533   */\n    tag_36:\n        /* \"#utility.yul\":368:369   */\n      0x00\n        /* \"#utility.yul\":378:491   */\n    tag_61:\n        /* \"#utility.yul\":392:398   */\n      dup4\n        /* \"#utility.yul\":389:390   */\n      dup2\n        /* \"#utility.yul\":386:399   */\n      lt\n        /* \"#utility.yul\":378:491   */\n      iszero\n      tag_63\n      jumpi\n        /* \"#utility.yul\":477:478   */\n      dup1\n        /* \"#utility.yul\":472:475   */\n      dup3\n        /* \"#utility.yul\":468:479   */\n      add\n        /* \"#utility.yul\":462:480   */\n      mload\n        /* \"#utility.yul\":458:459   */\n      dup2\n        /* \"#utility.yul\":453:456   */\n      dup5\n        /* \"#utility.yul\":449:460   */\n      add\n        /* \"#utility.yul\":442:481   */\n      mstore\n        /* \"#utility.yul\":414:416   */\n      0x20\n        /* \"#utility.yul\":411:412   */\n      dup2\n        /* \"#utility.yul\":407:417   */\n      add\n        /* \"#utility.yul\":402:417   */\n      swap1\n      pop\n        /* \"#utility.yul\":378:491   */\n      jump(tag_61)\n    tag_63:\n        /* \"#utility.yul\":525:526   */\n      0x00\n        /* \"#utility.yul\":516:522   */\n      dup5\n        /* \"#utility.yul\":511:514   */\n      dup5\n        /* \"#utility.yul\":507:523   */\n      add\n        /* \"#utility.yul\":500:527   */\n      mstore\n        /* \"#utility.yul\":349:533   */\n      pop\n        /* \"#utility.yul\":287:533   */\n      pop\n      pop\n      pop\n      jump\t// out\n        /* \"#utility.yul\":539:641   */\n    tag_37:\n        /* \"#utility.yul\":580:586   */\n      0x00\n        /* \"#utility.yul\":631:633   */\n      0x1f\n        /* \"#utility.yul\":627:634   */\n      not\n        /* \"#utility.yul\":622:624   */\n      0x1f\n        /* \"#utility.yul\":615:620   */\n      dup4\n        /* \"#utility.yul\":611:625   */\n      add\n        /* \"#utility.yul\":607:635   */\n      and\n        /* \"#utility.yul\":597:635   */\n      swap1\n      pop\n        /* \"#utility.yul\":539:641   */\n      swap2\n      swap1\n      pop\n      jump\t// out\n        /* \"#utility.yul\":647:1024   */\n    tag_38:\n        /* \"#utility.yul\":735:738   */\n      0x00\n        /* \"#utility.yul\":763:802   */\n      tag_66\n        /* \"#utility.yul\":796:801   */\n      dup3\n        /* \"#utility.yul\":763:802   */\n      tag_34\n      jump\t// in\n    tag_66:\n        /* \"#utility.yul\":818:889   */\n      tag_67\n        /* \"#utility.yul\":882:888   */\n      dup2\n        /* \"#utility.yul\":877:880   */\n      dup6\n        /* \"#utility.yul\":818:889   */\n      tag_35\n      jump\t// in\n    tag_67:\n        /* \"#utility.yul\":811:889   */\n      swap4\n      pop\n        /* \"#utility.yul\":898:963   */\n      tag_68\n        /* \"#utility.yul\":956:962   */\n      dup2\n        /* \"#utility.yul\":951:954   */\n      dup6\n        /* \"#utility.yul\":944:948   */\n      0x20\n        /* \"#utility.yul\":937:942   */\n      dup7\n        /* \"#utility.yul\":933:949   */\n      add\n        /* \"#utility.yul\":898:963   */\n      tag_36\n      jump\t// in\n    tag_68:\n        /* \"#utility.yul\":988:1017   */\n      tag_69\n        /* \"#utility.yul\":1010:1016   */\n      dup2\n        /* \"#utility.yul\":988:1017   */\n      tag_37\n      jump\t// in\n    tag_69:\n        /* \"#utility.yul\":983:986   */\n      dup5\n        /* \"#utility.yul\":979:1018   */\n      add\n        /* \"#utility.yul\":972:1018   */\n      swap2\n      pop\n        /* \"#utility.yul\":739:1024   */\n      pop\n        /* \"#utility.yul\":647:1024   */\n      swap3\n      swap2\n      pop\n      pop\n      jump\t// out\n        /* \"#utility.yul\":1030:1343   */\n    tag_10:\n        /* \"#utility.yul\":1143:1147   */\n      0x00\n        /* \"#utility.yul\":1181:1183   */\n      0x20\n        /* \"#utility.yul\":1170:1179   */\n      dup3\n        /* \"#utility.yul\":1166:1184   */\n      add\n        /* \"#utility.yul\":1158:1184   */\n      swap1\n      pop\n        /* \"#utility.yul\":1230:1239   */\n      dup2\n        /* \"#utility.yul\":1224:1228   */\n      dup2\n        /* \"#utility.yul\":1220:1240   */\n      sub\n        /* \"#utility.yul\":1216:1217   */\n      0x00\n        /* \"#utility.yul\":1205:1214   */\n      dup4\n        /* \"#utility.yul\":1201:1218   */\n      add\n        /* \"#utility.yul\":1194:1241   */\n      mstore\n        /* \"#utility.yul\":1258:1336   */\n      tag_71\n        /* \"#utility.yul\":1331:1335   */\n      dup2\n        /* \"#utility.yul\":1322:1328   */\n      dup5\n        /* \"#utility.yul\":1258:1336   */\n      tag_38\n      jump\t// in\n    tag_71:\n        /* \"#utility.yul\":1250:1336   */\n      swap1\n      pop\n        /* \"#utility.yul\":1030:1343   */\n      swap3\n      swap2\n      pop\n      pop\n      jump\t// out\n        /* \"#utility.yul\":1349:1426   */\n    tag_39:\n        /* \"#utility.yul\":1386:1393   */\n      0x00\n        /* \"#utility.yul\":1415:1420   */\n      dup2\n        /* \"#utility.yul\":1404:1420   */\n      swap1\n      pop\n        /* \"#utility.yul\":1349:1426   */\n      swap2\n      swap1\n      pop\n      jump\t// out\n        /* \"#utility.yul\":1432:1550   */\n    tag_40:\n        /* \"#utility.yul\":1519:1543   */\n      tag_74\n        /* \"#utility.yul\":1537:1542   */\n      dup2\n        /* \"#utility.yul\":1519:1543   */\n      tag_39\n      jump\t// in\n    tag_74:\n        /* \"#utility.yul\":1514:1517   */\n      dup3\n        /* \"#utility.yul\":1507:1544   */\n      mstore\n        /* \"#utility.yul\":1432:1550   */\n      pop\n      pop\n      jump\t// out\n        /* \"#utility.yul\":1556:1778   */\n    tag_14:\n        /* \"#utility.yul\":1649:1653   */\n      0x00\n        /* \"#utility.yul\":1687:1689   */\n      0x20\n        /* \"#utility.yul\":1676:1685   */\n      dup3\n        /* \"#utility.yul\":1672:1690   */\n      add\n        /* \"#utility.yul\":1664:1690   */\n      swap1\n      pop\n        /* \"#utility.yul\":1700:1771   */\n      tag_76\n        /* \"#utility.yul\":1768:1769   */\n      0x00\n        /* \"#utility.yul\":1757:1766   */\n      dup4\n        /* \"#utility.yul\":1753:1770   */\n      add\n        /* \"#utility.yul\":1744:1750   */\n      dup5\n        /* \"#utility.yul\":1700:1771   */\n      tag_40\n      jump\t// in\n    tag_76:\n        /* \"#utility.yul\":1556:1778   */\n      swap3\n      swap2\n      pop\n      pop\n      jump\t// out\n        /* \"#utility.yul\":1784:1910   */\n    tag_41:\n        /* \"#utility.yul\":1821:1828   */\n      0x00\n        /* \"#utility.yul\":1861:1903   */\n      0xffffffffffffffffffffffffffffffffffffffff\n        /* \"#utility.yul\":1854:1859   */\n      dup3\n        /* \"#utility.yul\":1850:1904   */\n      and\n        /* \"#utility.yul\":1839:1904   */\n      swap1\n      pop\n        /* \"#utility.yul\":1784:1910   */\n      swap2\n      swap1\n      pop\n      jump\t// out\n        /* \"#utility.yul\":1916:2012   */\n    tag_42:\n        /* \"#utility.yul\":1953:1960   */\n      0x00\n        /* \"#utility.yul\":1982:2006   */\n      tag_79\n        /* \"#utility.yul\":2000:2005   */\n      dup3\n        /* \"#utility.yul\":1982:2006   */\n      tag_41\n      jump\t// in\n    tag_79:\n        /* \"#utility.yul\":1971:2006   */\n      swap1\n      pop\n        /* \"#utility.yul\":1916:2012   */\n      swap2\n      swap1\n      pop\n      jump\t// out\n        /* \"#utility.yul\":2018:2136   */\n    tag_43:\n        /* \"#utility.yul\":2105:2129   */\n      tag_81\n        /* \"#utility.yul\":2123:2128   */\n      dup2\n        /* \"#utility.yul\":2105:2129   */\n      tag_42\n      jump\t// in\n    tag_81:\n        /* \"#utility.yul\":2100:2103   */\n      dup3\n        /* \"#utility.yul\":2093:2130   */\n      mstore\n        /* \"#utility.yul\":2018:2136   */\n      pop\n      pop\n      jump\t// out\n        /* \"#utility.yul\":2142:2364   */\n    tag_18:\n        /* \"#utility.yul\":2235:2239   */\n      0x00\n        /* \"#utility.yul\":2273:2275   */\n      0x20\n        /* \"#utility.yul\":2262:2271   */\n      dup3\n        /* \"#utility.yul\":2258:2276   */\n      add\n        /* \"#utility.yul\":2250:2276   */\n      swap1\n      pop\n        /* \"#utility.yul\":2286:2357   */\n      tag_83\n        /* \"#utility.yul\":2354:2355   */\n      0x00\n        /* \"#utility.yul\":2343:2352   */\n      dup4\n        /* \"#utility.yul\":2339:2356   */\n      add\n        /* \"#utility.yul\":2330:2336   */\n      dup5\n        /* \"#utility.yul\":2286:2357   */\n      tag_43\n      jump\t// in\n    tag_83:\n        /* \"#utility.yul\":2142:2364   */\n      swap3\n      swap2\n      pop\n      pop\n      jump\t// out\n        /* \"#utility.yul\":2370:2445   */\n    tag_44:\n        /* \"#utility.yul\":2403:2409   */\n      0x00\n        /* \"#utility.yul\":2436:2438   */\n      0x40\n        /* \"#utility.yul\":2430:2439   */\n      mload\n        /* \"#utility.yul\":2420:2439   */\n      swap1\n      pop\n        /* \"#utility.yul\":2370:2445   */\n      swap1\n      jump\t// out\n        /* \"#utility.yul\":2451:2568   */\n    tag_45:\n        /* \"#utility.yul\":2560:2561   */\n      0x00\n        /* \"#utility.yul\":2557:2558   */\n      dup1\n        /* \"#utility.yul\":2550:2562   */\n      revert\n        /* \"#utility.yul\":2574:2691   */\n    tag_46:\n        /* \"#utility.yul\":2683:2684   */\n      0x00\n        /* \"#utility.yul\":2680:2681   */\n      dup1\n        /* \"#utility.yul\":2673:2685   */\n      revert\n        /* \"#utility.yul\":2697:2814   */\n    tag_47:\n        /* \"#utility.yul\":2806:2807   */\n      0x00\n        /* \"#utility.yul\":2803:2804   */\n      dup1\n        /* \"#utility.yul\":2796:2808   */\n      revert\n        /* \"#utility.yul\":2820:2937   */\n    tag_48:\n        /* \"#utility.yul\":2929:2930   */\n      0x00\n        /* \"#utility.yul\":2926:2927   */\n      dup1\n        /* \"#utility.yul\":2919:2931   */\n      revert\n        /* \"#utility.yul\":2943:3123   */\n    tag_49:\n        /* \"#utility.yul\":2991:3068   */\n      0x4e487b7100000000000000000000000000000000000000000000000000000000\n        /* \"#utility.yul\":2988:2989   */\n      0x00\n        /* \"#utility.yul\":2981:3069   */\n      mstore\n        /* \"#utility.yul\":3088:3092   */\n      0x41\n        /* \"#utility.yul\":3085:3086   */\n      0x04\n        /* \"#utility.yul\":3078:3093   */\n      mstore\n        /* \"#utility.yul\":3112:3116   */\n      0x24\n        /* \"#utility.yul\":3109:3110   */\n      0x00\n        /* \"#utility.yul\":3102:3117   */\n      revert\n        /* \"#utility.yul\":3129:3410   */\n    tag_50:\n        /* \"#utility.yul\":3212:3239   */\n      tag_91\n        /* \"#utility.yul\":3234:3238   */\n      dup3\n        /* \"#utility.yul\":3212:3239   */\n      tag_37\n      jump\t// in\n    tag_91:\n        /* \"#utility.yul\":3204:3210   */\n      dup2\n        /* \"#utility.yul\":3200:3240   */\n      add\n        /* \"#utility.yul\":3342:3348   */\n      dup2\n        /* \"#utility.yul\":3330:3340   */\n      dup2\n        /* \"#utility.yul\":3327:3349   */\n      lt\n        /* \"#utility.yul\":3306:3324   */\n      0xffffffffffffffff\n        /* \"#utility.yul\":3294:3304   */\n      dup3\n        /* \"#utility.yul\":3291:3325   */\n      gt\n        /* \"#utility.yul\":3288:3350   */\n      or\n        /* \"#utility.yul\":3285:3373   */\n      iszero\n      tag_92\n      jumpi\n        /* \"#utility.yul\":3353:3371   */\n      tag_93\n      tag_49\n      jump\t// in\n    tag_93:\n        /* \"#utility.yul\":3285:3373   */\n    tag_92:\n        /* \"#utility.yul\":3393:3403   */\n      dup1\n        /* \"#utility.yul\":3389:3391   */\n      0x40\n        /* \"#utility.yul\":3382:3404   */\n      mstore\n        /* \"#utility.yul\":3172:3410   */\n      pop\n        /* \"#utility.yul\":3129:3410   */\n      pop\n      pop\n      jump\t// out\n        /* \"#utility.yul\":3416:3545   */\n    tag_51:\n        /* \"#utility.yul\":3450:3456   */\n      0x00\n        /* \"#utility.yul\":3477:3497   */\n      tag_95\n      tag_44\n      jump\t// in\n    tag_95:\n        /* \"#utility.yul\":3467:3497   */\n      swap1\n      pop\n        /* \"#utility.yul\":3506:3539   */\n      tag_96\n        /* \"#utility.yul\":3534:3538   */\n      dup3\n        /* \"#utility.yul\":3526:3532   */\n      dup3\n        /* \"#utility.yul\":3506:3539   */\n      tag_50\n      jump\t// in\n    tag_96:\n        /* \"#utility.yul\":3416:3545   */\n      swap2\n      swap1\n      pop\n      jump\t// out\n        /* \"#utility.yul\":3551:3859   */\n    tag_52:\n        /* \"#utility.yul\":3613:3617   */\n      0x00\n        /* \"#utility.yul\":3703:3721   */\n      0xffffffffffffffff\n        /* \"#utility.yul\":3695:3701   */\n      dup3\n        /* \"#utility.yul\":3692:3722   */\n      gt\n        /* \"#utility.yul\":3689:3745   */\n      iszero\n      tag_98\n      jumpi\n        /* \"#utility.yul\":3725:3743   */\n      tag_99\n      tag_49\n      jump\t// in\n    tag_99:\n        /* \"#utility.yul\":3689:3745   */\n    tag_98:\n        /* \"#utility.yul\":3763:3792   */\n      tag_100\n        /* \"#utility.yul\":3785:3791   */\n      dup3\n        /* \"#utility.yul\":3763:3792   */\n      tag_37\n      jump\t// in\n    tag_100:\n        /* \"#utility.yul\":3755:3792   */\n      swap1\n      pop\n        /* \"#utility.yul\":3847:3851   */\n      0x20\n        /* \"#utility.yul\":3841:3845   */\n      dup2\n        /* \"#utility.yul\":3837:3852   */\n      add\n        /* \"#utility.yul\":3829:3852   */\n      swap1\n      pop\n        /* \"#utility.yul\":3551:3859   */\n      swap2\n      swap1\n      pop\n      jump\t// out\n        /* \"#utility.yul\":3865:4299   */\n    tag_53:\n        /* \"#utility.yul\":3954:3959   */\n      0x00\n        /* \"#utility.yul\":3979:4045   */\n      tag_102\n        /* \"#utility.yul\":3995:4044   */\n      tag_103\n        /* \"#utility.yul\":4037:4043   */\n      dup5\n        /* \"#utility.yul\":3995:4044   */\n      tag_52\n      jump\t// in\n    tag_103:\n        /* \"#utility.yul\":3979:4045   */\n      tag_51\n      jump\t// in\n    tag_102:\n        /* \"#utility.yul\":3970:4045   */\n      swap1\n      pop\n        /* \"#utility.yul\":4068:4074   */\n      dup3\n        /* \"#utility.yul\":4061:4066   */\n      dup2\n        /* \"#utility.yul\":4054:4075   */\n      mstore\n        /* \"#utility.yul\":4106:4110   */\n      0x20\n        /* \"#utility.yul\":4099:4104   */\n      dup2\n        /* \"#utility.yul\":4095:4111   */\n      add\n        /* \"#utility.yul\":4144:4147   */\n      dup5\n        /* \"#utility.yul\":4135:4141   */\n      dup5\n        /* \"#utility.yul\":4130:4133   */\n      dup5\n        /* \"#utility.yul\":4126:4142   */\n      add\n        /* \"#utility.yul\":4123:4148   */\n      gt\n        /* \"#utility.yul\":4120:4232   */\n      iszero\n      tag_104\n      jumpi\n        /* \"#utility.yul\":4151:4230   */\n      tag_105\n      tag_48\n      jump\t// in\n    tag_105:\n        /* \"#utility.yul\":4120:4232   */\n    tag_104:\n        /* \"#utility.yul\":4241:4293   */\n      tag_106\n        /* \"#utility.yul\":4286:4292   */\n      dup5\n        /* \"#utility.yul\":4281:4284   */\n      dup3\n        /* \"#utility.yul\":4276:4279   */\n      dup6\n        /* \"#utility.yul\":4241:4293   */\n      tag_36\n      jump\t// in\n    tag_106:\n        /* \"#utility.yul\":3960:4299   */\n      pop\n        /* \"#utility.yul\":3865:4299   */\n      swap4\n      swap3\n      pop\n      pop\n      pop\n      jump\t// out\n        /* \"#utility.yul\":4319:4674   */\n    tag_54:\n        /* \"#utility.yul\":4386:4391   */\n      0x00\n        /* \"#utility.yul\":4435:4438   */\n      dup3\n        /* \"#utility.yul\":4428:4432   */\n      0x1f\n        /* \"#utility.yul\":4420:4426   */\n      dup4\n        /* \"#utility.yul\":4416:4433   */\n      add\n        /* \"#utility.yul\":4412:4439   */\n      slt\n        /* \"#utility.yul\":4402:4524   */\n      tag_108\n      jumpi\n        /* \"#utility.yul\":4443:4522   */\n      tag_109\n      tag_47\n      jump\t// in\n    tag_109:\n        /* \"#utility.yul\":4402:4524   */\n    tag_108:\n        /* \"#utility.yul\":4553:4559   */\n      dup2\n        /* \"#utility.yul\":4547:4560   */\n      mload\n        /* \"#utility.yul\":4578:4668   */\n      tag_110\n        /* \"#utility.yul\":4664:4667   */\n      dup5\n        /* \"#utility.yul\":4656:4662   */\n      dup3\n        /* \"#utility.yul\":4649:4653   */\n      0x20\n        /* \"#utility.yul\":4641:4647   */\n      dup7\n        /* \"#utility.yul\":4637:4654   */\n      add\n        /* \"#utility.yul\":4578:4668   */\n      tag_53\n      jump\t// in\n    tag_110:\n        /* \"#utility.yul\":4569:4668   */\n      swap2\n      pop\n        /* \"#utility.yul\":4392:4674   */\n      pop\n        /* \"#utility.yul\":4319:4674   */\n      swap3\n      swap2\n      pop\n      pop\n      jump\t// out\n        /* \"#utility.yul\":4680:5204   */\n    tag_26:\n        /* \"#utility.yul\":4760:4766   */\n      0x00\n        /* \"#utility.yul\":4809:4811   */\n      0x20\n        /* \"#utility.yul\":4797:4806   */\n      dup3\n        /* \"#utility.yul\":4788:4795   */\n      dup5\n        /* \"#utility.yul\":4784:4807   */\n      sub\n        /* \"#utility.yul\":4780:4812   */\n      slt\n        /* \"#utility.yul\":4777:4896   */\n      iszero\n      tag_112\n      jumpi\n        /* \"#utility.yul\":4815:4894   */\n      tag_113\n      tag_45\n      jump\t// in\n    tag_113:\n        /* \"#utility.yul\":4777:4896   */\n    tag_112:\n        /* \"#utility.yul\":4956:4957   */\n      0x00\n        /* \"#utility.yul\":4945:4954   */\n      dup3\n        /* \"#utility.yul\":4941:4958   */\n      add\n        /* \"#utility.yul\":4935:4959   */\n      mload\n        /* \"#utility.yul\":4986:5004   */\n      0xffffffffffffffff\n        /* \"#utility.yul\":4978:4984   */\n      dup2\n        /* \"#utility.yul\":4975:5005   */\n      gt\n        /* \"#utility.yul\":4972:5089   */\n      iszero\n      tag_114\n      jumpi\n        /* \"#utility.yul\":5008:5087   */\n      tag_115\n      tag_46\n      jump\t// in\n    tag_115:\n        /* \"#utility.yul\":4972:5089   */\n    tag_114:\n        /* \"#utility.yul\":5113:5187   */\n      tag_116\n        /* \"#utility.yul\":5179:5186   */\n      dup5\n        /* \"#utility.yul\":5170:5176   */\n      dup3\n        /* \"#utility.yul\":5159:5168   */\n      dup6\n        /* \"#utility.yul\":5155:5177   */\n      add\n        /* \"#utility.yul\":5113:5187   */\n      tag_54\n      jump\t// in\n    tag_116:\n        /* \"#utility.yul\":5103:5187   */\n      swap2\n      pop\n        /* \"#utility.yul\":4906:5197   */\n      pop\n        /* \"#utility.yul\":4680:5204   */\n      swap3\n      swap2\n      pop\n      pop\n      jump\t// out\n        /* \"#utility.yul\":5210:5332   */\n    tag_55:\n        /* \"#utility.yul\":5283:5307   */\n      tag_118\n        /* \"#utility.yul\":5301:5306   */\n      dup2\n        /* \"#utility.yul\":5283:5307   */\n      tag_39\n      jump\t// in\n    tag_118:\n        /* \"#utility.yul\":5276:5281   */\n      dup2\n        /* \"#utility.yul\":5273:5308   */\n      eq\n        /* \"#utility.yul\":5263:5326   */\n      tag_119\n      jumpi\n        /* \"#utility.yul\":5322:5323   */\n      0x00\n        /* \"#utility.yul\":5319:5320   */\n      dup1\n        /* \"#utility.yul\":5312:5324   */\n      revert\n        /* \"#utility.yul\":5263:5326   */\n    tag_119:\n        /* \"#utility.yul\":5210:5332   */\n      pop\n      jump\t// out\n        /* \"#utility.yul\":5338:5481   */\n    tag_56:\n        /* \"#utility.yul\":5395:5400   */\n      0x00\n        /* \"#utility.yul\":5426:5432   */\n      dup2\n        /* \"#utility.yul\":5420:5433   */\n      mload\n        /* \"#utility.yul\":5411:5433   */\n      swap1\n      pop\n        /* \"#utility.yul\":5442:5475   */\n      tag_121\n        /* \"#utility.yul\":5469:5474   */\n      dup2\n        /* \"#utility.yul\":5442:5475   */\n      tag_55\n      jump\t// in\n    tag_121:\n        /* \"#utility.yul\":5338:5481   */\n      swap3\n      swap2\n      pop\n      pop\n      jump\t// out\n        /* \"#utility.yul\":5487:5838   */\n    tag_31:\n        /* \"#utility.yul\":5557:5563   */\n      0x00\n        /* \"#utility.yul\":5606:5608   */\n      0x20\n        /* \"#utility.yul\":5594:5603   */\n      dup3\n        /* \"#utility.yul\":5585:5592   */\n      dup5\n        /* \"#utility.yul\":5581:5604   */\n      sub\n        /* \"#utility.yul\":5577:5609   */\n      slt\n        /* \"#utility.yul\":5574:5693   */\n      iszero\n      tag_123\n      jumpi\n        /* \"#utility.yul\":5612:5691   */\n      tag_124\n      tag_45\n      jump\t// in\n    tag_124:\n        /* \"#utility.yul\":5574:5693   */\n    tag_123:\n        /* \"#utility.yul\":5732:5733   */\n      0x00\n        /* \"#utility.yul\":5757:5821   */\n      tag_125\n        /* \"#utility.yul\":5813:5820   */\n      dup5\n        /* \"#utility.yul\":5804:5810   */\n      dup3\n        /* \"#utility.yul\":5793:5802   */\n      dup6\n        /* \"#utility.yul\":5789:5811   */\n      add\n        /* \"#utility.yul\":5757:5821   */\n      tag_56\n      jump\t// in\n    tag_125:\n        /* \"#utility.yul\":5747:5821   */\n      swap2\n      pop\n        /* \"#utility.yul\":5703:5831   */\n      pop\n        /* \"#utility.yul\":5487:5838   */\n      swap3\n      swap2\n      pop\n      pop\n      jump\t// out\n\n    auxdata: 0xa264697066735822122062b2f1d695fea748c23fb0474afb821ee71e8078942210a42cc0ba24d33218c164736f6c63430008120033\n}\n\nsub_1: assembly {\n        /* \"contracts/230516_1/2.sol\":971:1660  contract DAD {... */\n      mstore(0x40, 0x80)\n        /* \"contracts/230516_1/2.sol\":1022:1025  100 */\n      0x64\n        /* \"contracts/230516_1/2.sol\":1003:1025  uint public wallet=100 */\n      0x01\n      sstore\n        /* \"contracts/230516_1/2.sol\":1079:1083  1000 */\n      0x03e8\n        /* \"contracts/230516_1/2.sol\":1058:1083  uint internal crypto=1000 */\n      0x02\n      sstore\n        /* \"contracts/230516_1/2.sol\":1167:1172  10000 */\n      0x2710\n        /* \"contracts/230516_1/2.sol\":1144:1172  uint private emergency=10000 */\n      0x03\n      sstore\n        /* \"contracts/230516_1/2.sol\":971:1660  contract DAD {... */\n      callvalue\n      dup1\n      iszero\n      tag_1\n      jumpi\n      0x00\n      dup1\n      revert\n    tag_1:\n      pop\n      dataSize(sub_0)\n      dup1\n      dataOffset(sub_0)\n      0x00\n      codecopy\n      0x00\n      return\n    stop\n\n    sub_0: assembly {\n            /* \"contracts/230516_1/2.sol\":971:1660  contract DAD {... */\n          mstore(0x40, 0x80)\n          callvalue\n          dup1\n          iszero\n          tag_1\n          jumpi\n          0x00\n          dup1\n          revert\n        tag_1:\n          pop\n          jumpi(tag_2, lt(calldatasize, 0x04))\n          shr(0xe0, calldataload(0x00))\n          dup1\n          0x38cc4831\n          eq\n          tag_3\n          jumpi\n          dup1\n          0x4d2e03a0\n          eq\n          tag_4\n          jumpi\n          dup1\n          0x521eb273\n          eq\n          tag_5\n          jumpi\n          dup1\n          0xd6d21dfd\n          eq\n          tag_6\n          jumpi\n        tag_2:\n          0x00\n          dup1\n          revert\n            /* \"contracts/230516_1/2.sol\":1570:1658  function getAddress() public view returns(address) {... */\n        tag_3:\n          tag_7\n          tag_8\n          jump\t// in\n        tag_7:\n          mload(0x40)\n          tag_9\n          swap2\n          swap1\n          tag_10\n          jump\t// in\n        tag_9:\n          mload(0x40)\n          dup1\n          swap2\n          sub\n          swap1\n          return\n            /* \"contracts/230516_1/2.sol\":1472:1564  function character() external pure returns(string memory) {... */\n        tag_4:\n          tag_11\n          tag_12\n          jump\t// in\n        tag_11:\n          mload(0x40)\n          tag_13\n          swap2\n          swap1\n          tag_14\n          jump\t// in\n        tag_13:\n          mload(0x40)\n          dup1\n          swap2\n          sub\n          swap1\n          return\n            /* \"contracts/230516_1/2.sol\":1003:1025  uint public wallet=100 */\n        tag_5:\n          tag_15\n          tag_16\n          jump\t// in\n        tag_15:\n          mload(0x40)\n          tag_17\n          swap2\n          swap1\n          tag_18\n          jump\t// in\n        tag_17:\n          mload(0x40)\n          dup1\n          swap2\n          sub\n          swap1\n          return\n            /* \"contracts/230516_1/2.sol\":1199:1295  function who() virtual public pure returns(string memory) {... */\n        tag_6:\n          tag_19\n          tag_20\n          jump\t// in\n        tag_19:\n          mload(0x40)\n          tag_21\n          swap2\n          swap1\n          tag_14\n          jump\t// in\n        tag_21:\n          mload(0x40)\n          dup1\n          swap2\n          sub\n          swap1\n          return\n            /* \"contracts/230516_1/2.sol\":1570:1658  function getAddress() public view returns(address) {... */\n        tag_8:\n            /* \"contracts/230516_1/2.sol\":1612:1619  address */\n          0x00\n            /* \"contracts/230516_1/2.sol\":1646:1650  this */\n          address\n            /* \"contracts/230516_1/2.sol\":1631:1651  return address(this) */\n          swap1\n          pop\n            /* \"contracts/230516_1/2.sol\":1570:1658  function getAddress() public view returns(address) {... */\n          swap1\n          jump\t// out\n            /* \"contracts/230516_1/2.sol\":1472:1564  function character() external pure returns(string memory) {... */\n        tag_12:\n            /* \"contracts/230516_1/2.sol\":1515:1528  string memory */\n          0x60\n            /* \"contracts/230516_1/2.sol\":1540:1557  return \"not good\" */\n          mload(0x40)\n          dup1\n          0x40\n          add\n          0x40\n          mstore\n          dup1\n          0x08\n          dup2\n          mstore\n          0x20\n          add\n          0x6e6f7420676f6f64000000000000000000000000000000000000000000000000\n          dup2\n          mstore\n          pop\n          swap1\n          pop\n            /* \"contracts/230516_1/2.sol\":1472:1564  function character() external pure returns(string memory) {... */\n          swap1\n          jump\t// out\n            /* \"contracts/230516_1/2.sol\":1003:1025  uint public wallet=100 */\n        tag_16:\n          sload(0x01)\n          dup2\n          jump\t// out\n            /* \"contracts/230516_1/2.sol\":1199:1295  function who() virtual public pure returns(string memory) {... */\n        tag_20:\n            /* \"contracts/230516_1/2.sol\":1242:1255  string memory */\n          0x60\n            /* \"contracts/230516_1/2.sol\":1267:1288  return \"dad from DAD\" */\n          mload(0x40)\n          dup1\n          0x40\n          add\n          0x40\n          mstore\n          dup1\n          0x0c\n          dup2\n          mstore\n          0x20\n          add\n          0x6461642066726f6d204441440000000000000000000000000000000000000000\n          dup2\n          mstore\n          pop\n          swap1\n          pop\n            /* \"contracts/230516_1/2.sol\":1199:1295  function who() virtual public pure returns(string memory) {... */\n          swap1\n          jump\t// out\n            /* \"#utility.yul\":7:133   */\n        tag_25:\n            /* \"#utility.yul\":44:51   */\n          0x00\n            /* \"#utility.yul\":84:126   */\n          0xffffffffffffffffffffffffffffffffffffffff\n            /* \"#utility.yul\":77:82   */\n          dup3\n            /* \"#utility.yul\":73:127   */\n          and\n            /* \"#utility.yul\":62:127   */\n          swap1\n          pop\n            /* \"#utility.yul\":7:133   */\n          swap2\n          swap1\n          pop\n          jump\t// out\n            /* \"#utility.yul\":139:235   */\n        tag_26:\n            /* \"#utility.yul\":176:183   */\n          0x00\n            /* \"#utility.yul\":205:229   */\n          tag_38\n            /* \"#utility.yul\":223:228   */\n          dup3\n            /* \"#utility.yul\":205:229   */\n          tag_25\n          jump\t// in\n        tag_38:\n            /* \"#utility.yul\":194:229   */\n          swap1\n          pop\n            /* \"#utility.yul\":139:235   */\n          swap2\n          swap1\n          pop\n          jump\t// out\n            /* \"#utility.yul\":241:359   */\n        tag_27:\n            /* \"#utility.yul\":328:352   */\n          tag_40\n            /* \"#utility.yul\":346:351   */\n          dup2\n            /* \"#utility.yul\":328:352   */\n          tag_26\n          jump\t// in\n        tag_40:\n            /* \"#utility.yul\":323:326   */\n          dup3\n            /* \"#utility.yul\":316:353   */\n          mstore\n            /* \"#utility.yul\":241:359   */\n          pop\n          pop\n          jump\t// out\n            /* \"#utility.yul\":365:587   */\n        tag_10:\n            /* \"#utility.yul\":458:462   */\n          0x00\n            /* \"#utility.yul\":496:498   */\n          0x20\n            /* \"#utility.yul\":485:494   */\n          dup3\n            /* \"#utility.yul\":481:499   */\n          add\n            /* \"#utility.yul\":473:499   */\n          swap1\n          pop\n            /* \"#utility.yul\":509:580   */\n          tag_42\n            /* \"#utility.yul\":577:578   */\n          0x00\n            /* \"#utility.yul\":566:575   */\n          dup4\n            /* \"#utility.yul\":562:579   */\n          add\n            /* \"#utility.yul\":553:559   */\n          dup5\n            /* \"#utility.yul\":509:580   */\n          tag_27\n          jump\t// in\n        tag_42:\n            /* \"#utility.yul\":365:587   */\n          swap3\n          swap2\n          pop\n          pop\n          jump\t// out\n            /* \"#utility.yul\":593:692   */\n        tag_28:\n            /* \"#utility.yul\":645:651   */\n          0x00\n            /* \"#utility.yul\":679:684   */\n          dup2\n            /* \"#utility.yul\":673:685   */\n          mload\n            /* \"#utility.yul\":663:685   */\n          swap1\n          pop\n            /* \"#utility.yul\":593:692   */\n          swap2\n          swap1\n          pop\n          jump\t// out\n            /* \"#utility.yul\":698:867   */\n        tag_29:\n            /* \"#utility.yul\":782:793   */\n          0x00\n            /* \"#utility.yul\":816:822   */\n          dup3\n            /* \"#utility.yul\":811:814   */\n          dup3\n            /* \"#utility.yul\":804:823   */\n          mstore\n            /* \"#utility.yul\":856:860   */\n          0x20\n            /* \"#utility.yul\":851:854   */\n          dup3\n            /* \"#utility.yul\":847:861   */\n          add\n            /* \"#utility.yul\":832:861   */\n          swap1\n          pop\n            /* \"#utility.yul\":698:867   */\n          swap3\n          swap2\n          pop\n          pop\n          jump\t// out\n            /* \"#utility.yul\":873:1119   */\n        tag_30:\n            /* \"#utility.yul\":954:955   */\n          0x00\n            /* \"#utility.yul\":964:1077   */\n        tag_46:\n            /* \"#utility.yul\":978:984   */\n          dup4\n            /* \"#utility.yul\":975:976   */\n          dup2\n            /* \"#utility.yul\":972:985   */\n          lt\n            /* \"#utility.yul\":964:1077   */\n          iszero\n          tag_48\n          jumpi\n            /* \"#utility.yul\":1063:1064   */\n          dup1\n            /* \"#utility.yul\":1058:1061   */\n          dup3\n            /* \"#utility.yul\":1054:1065   */\n          add\n            /* \"#utility.yul\":1048:1066   */\n          mload\n            /* \"#utility.yul\":1044:1045   */\n          dup2\n            /* \"#utility.yul\":1039:1042   */\n          dup5\n            /* \"#utility.yul\":1035:1046   */\n          add\n            /* \"#utility.yul\":1028:1067   */\n          mstore\n            /* \"#utility.yul\":1000:1002   */\n          0x20\n            /* \"#utility.yul\":997:998   */\n          dup2\n            /* \"#utility.yul\":993:1003   */\n          add\n            /* \"#utility.yul\":988:1003   */\n          swap1\n          pop\n            /* \"#utility.yul\":964:1077   */\n          jump(tag_46)\n        tag_48:\n            /* \"#utility.yul\":1111:1112   */\n          0x00\n            /* \"#utility.yul\":1102:1108   */\n          dup5\n            /* \"#utility.yul\":1097:1100   */\n          dup5\n            /* \"#utility.yul\":1093:1109   */\n          add\n            /* \"#utility.yul\":1086:1113   */\n          mstore\n            /* \"#utility.yul\":935:1119   */\n          pop\n            /* \"#utility.yul\":873:1119   */\n          pop\n          pop\n          pop\n          jump\t// out\n            /* \"#utility.yul\":1125:1227   */\n        tag_31:\n            /* \"#utility.yul\":1166:1172   */\n          0x00\n            /* \"#utility.yul\":1217:1219   */\n          0x1f\n            /* \"#utility.yul\":1213:1220   */\n          not\n            /* \"#utility.yul\":1208:1210   */\n          0x1f\n            /* \"#utility.yul\":1201:1206   */\n          dup4\n            /* \"#utility.yul\":1197:1211   */\n          add\n            /* \"#utility.yul\":1193:1221   */\n          and\n            /* \"#utility.yul\":1183:1221   */\n          swap1\n          pop\n            /* \"#utility.yul\":1125:1227   */\n          swap2\n          swap1\n          pop\n          jump\t// out\n            /* \"#utility.yul\":1233:1610   */\n        tag_32:\n            /* \"#utility.yul\":1321:1324   */\n          0x00\n            /* \"#utility.yul\":1349:1388   */\n          tag_51\n            /* \"#utility.yul\":1382:1387   */\n          dup3\n            /* \"#utility.yul\":1349:1388   */\n          tag_28\n          jump\t// in\n        tag_51:\n            /* \"#utility.yul\":1404:1475   */\n          tag_52\n            /* \"#utility.yul\":1468:1474   */\n          dup2\n            /* \"#utility.yul\":1463:1466   */\n          dup6\n            /* \"#utility.yul\":1404:1475   */\n          tag_29\n          jump\t// in\n        tag_52:\n            /* \"#utility.yul\":1397:1475   */\n          swap4\n          pop\n            /* \"#utility.yul\":1484:1549   */\n          tag_53\n            /* \"#utility.yul\":1542:1548   */\n          dup2\n            /* \"#utility.yul\":1537:1540   */\n          dup6\n            /* \"#utility.yul\":1530:1534   */\n          0x20\n            /* \"#utility.yul\":1523:1528   */\n          dup7\n            /* \"#utility.yul\":1519:1535   */\n          add\n            /* \"#utility.yul\":1484:1549   */\n          tag_30\n          jump\t// in\n        tag_53:\n            /* \"#utility.yul\":1574:1603   */\n          tag_54\n            /* \"#utility.yul\":1596:1602   */\n          dup2\n            /* \"#utility.yul\":1574:1603   */\n          tag_31\n          jump\t// in\n        tag_54:\n            /* \"#utility.yul\":1569:1572   */\n          dup5\n            /* \"#utility.yul\":1565:1604   */\n          add\n            /* \"#utility.yul\":1558:1604   */\n          swap2\n          pop\n            /* \"#utility.yul\":1325:1610   */\n          pop\n            /* \"#utility.yul\":1233:1610   */\n          swap3\n          swap2\n          pop\n          pop\n          jump\t// out\n            /* \"#utility.yul\":1616:1929   */\n        tag_14:\n            /* \"#utility.yul\":1729:1733   */\n          0x00\n            /* \"#utility.yul\":1767:1769   */\n          0x20\n            /* \"#utility.yul\":1756:1765   */\n          dup3\n            /* \"#utility.yul\":1752:1770   */\n          add\n            /* \"#utility.yul\":1744:1770   */\n          swap1\n          pop\n            /* \"#utility.yul\":1816:1825   */\n          dup2\n            /* \"#utility.yul\":1810:1814   */\n          dup2\n            /* \"#utility.yul\":1806:1826   */\n          sub\n            /* \"#utility.yul\":1802:1803   */\n          0x00\n            /* \"#utility.yul\":1791:1800   */\n          dup4\n            /* \"#utility.yul\":1787:1804   */\n          add\n            /* \"#utility.yul\":1780:1827   */\n          mstore\n            /* \"#utility.yul\":1844:1922   */\n          tag_56\n            /* \"#utility.yul\":1917:1921   */\n          dup2\n            /* \"#utility.yul\":1908:1914   */\n          dup5\n            /* \"#utility.yul\":1844:1922   */\n          tag_32\n          jump\t// in\n        tag_56:\n            /* \"#utility.yul\":1836:1922   */\n          swap1\n          pop\n            /* \"#utility.yul\":1616:1929   */\n          swap3\n          swap2\n          pop\n          pop\n          jump\t// out\n            /* \"#utility.yul\":1935:2012   */\n        tag_33:\n            /* \"#utility.yul\":1972:1979   */\n          0x00\n            /* \"#utility.yul\":2001:2006   */\n          dup2\n            /* \"#utility.yul\":1990:2006   */\n          swap1\n          pop\n            /* \"#utility.yul\":1935:2012   */\n          swap2\n          swap1\n          pop\n          jump\t// out\n            /* \"#utility.yul\":2018:2136   */\n        tag_34:\n            /* \"#utility.yul\":2105:2129   */\n          tag_59\n            /* \"#utility.yul\":2123:2128   */\n          dup2\n            /* \"#utility.yul\":2105:2129   */\n          tag_33\n          jump\t// in\n        tag_59:\n            /* \"#utility.yul\":2100:2103   */\n          dup3\n            /* \"#utility.yul\":2093:2130   */\n          mstore\n            /* \"#utility.yul\":2018:2136   */\n          pop\n          pop\n          jump\t// out\n            /* \"#utility.yul\":2142:2364   */\n        tag_18:\n            /* \"#utility.yul\":2235:2239   */\n          0x00\n            /* \"#utility.yul\":2273:2275   */\n          0x20\n            /* \"#utility.yul\":2262:2271   */\n          dup3\n            /* \"#utility.yul\":2258:2276   */\n          add\n            /* \"#utility.yul\":2250:2276   */\n          swap1\n          pop\n            /* \"#utility.yul\":2286:2357   */\n          tag_61\n            /* \"#utility.yul\":2354:2355   */\n          0x00\n            /* \"#utility.yul\":2343:2352   */\n          dup4\n            /* \"#utility.yul\":2339:2356   */\n          add\n            /* \"#utility.yul\":2330:2336   */\n          dup5\n            /* \"#utility.yul\":2286:2357   */\n          tag_34\n          jump\t// in\n        tag_61:\n            /* \"#utility.yul\":2142:2364   */\n          swap3\n          swap2\n          pop\n          pop\n          jump\t// out\n\n        auxdata: 0xa26469706673582212208a1be0cbf2694e55c62eb4b62478988546460764b3ebd39ac4ed77de4d8cd3be64736f6c63430008120033\n    }\n}\n",
				"bytecode": {
					"linkReferences": {},
					"object": "60806040526040516100109061007e565b604051809103906000f08015801561002c573d6000803e3d6000fd5b506000806101000a81548173ffffffffffffffffffffffffffffffffffffffff021916908373ffffffffffffffffffffffffffffffffffffffff16021790555034801561007857600080fd5b5061008b565b6102fa8061064f83390190565b6105b58061009a6000396000f3fe608060405234801561001057600080fd5b506004361061004c5760003560e01c80630c304e4b14610051578063132996041461006f5780631c7d5c421461008d578063d6d21dfd146100ab575b600080fd5b6100596100c9565b60405161006691906102f1565b60405180910390f35b610077610164565b604051610084919061032c565b60405180910390f35b6100956101fb565b6040516100a29190610388565b60405180910390f35b6100b3610224565b6040516100c091906102f1565b60405180910390f35b606060008054906101000a900473ffffffffffffffffffffffffffffffffffffffff1673ffffffffffffffffffffffffffffffffffffffff16634d2e03a06040518163ffffffff1660e01b8152600401600060405180830381865afa158015610136573d6000803e3d6000fd5b505050506040513d6000823e3d601f19601f8201168201806040525081019061015f91906104dd565b905090565b60008060009054906101000a900473ffffffffffffffffffffffffffffffffffffffff1673ffffffffffffffffffffffffffffffffffffffff1663521eb2736040518163ffffffff1660e01b8152600401602060405180830381865afa1580156101d2573d6000803e3d6000fd5b505050506040513d601f19601f820116820180604052508101906101f69190610552565b905090565b60008060009054906101000a900473ffffffffffffffffffffffffffffffffffffffff16905090565b60606040518060400160405280600c81526020017f6d6f6d2066726f6d204d4f4d0000000000000000000000000000000000000000815250905090565b600081519050919050565b600082825260208201905092915050565b60005b8381101561029b578082015181840152602081019050610280565b60008484015250505050565b6000601f19601f8301169050919050565b60006102c382610261565b6102cd818561026c565b93506102dd81856020860161027d565b6102e6816102a7565b840191505092915050565b6000602082019050818103600083015261030b81846102b8565b905092915050565b6000819050919050565b61032681610313565b82525050565b6000602082019050610341600083018461031d565b92915050565b600073ffffffffffffffffffffffffffffffffffffffff82169050919050565b600061037282610347565b9050919050565b61038281610367565b82525050565b600060208201905061039d6000830184610379565b92915050565b6000604051905090565b600080fd5b600080fd5b600080fd5b600080fd5b7f4e487b7100000000000000000000000000000000000000000000000000000000600052604160045260246000fd5b6103f9826102a7565b810181811067ffffffffffffffff82111715610418576104176103c1565b5b80604052505050565b600061042b6103a3565b905061043782826103f0565b919050565b600067ffffffffffffffff821115610457576104566103c1565b5b610460826102a7565b9050602081019050919050565b600061048061047b8461043c565b610421565b90508281526020810184848401111561049c5761049b6103bc565b5b6104a784828561027d565b509392505050565b600082601f8301126104c4576104c36103b7565b5b81516104d484826020860161046d565b91505092915050565b6000602082840312156104f3576104f26103ad565b5b600082015167ffffffffffffffff811115610511576105106103b2565b5b61051d848285016104af565b91505092915050565b61052f81610313565b811461053a57600080fd5b50565b60008151905061054c81610526565b92915050565b600060208284031215610568576105676103ad565b5b60006105768482850161053d565b9150509291505056fea264697066735822122062b2f1d695fea748c23fb0474afb821ee71e8078942210a42cc0ba24d33218c164736f6c63430008120033608060405260646001556103e860025561271060035534801561002157600080fd5b506102c9806100316000396000f3fe608060405234801561001057600080fd5b506004361061004c5760003560e01c806338cc4831146100515780634d2e03a01461006f578063521eb2731461008d578063d6d21dfd146100ab575b600080fd5b6100596100c9565b6040516100669190610192565b60405180910390f35b6100776100d1565b604051610084919061023d565b60405180910390f35b61009561010e565b6040516100a29190610278565b60405180910390f35b6100b3610114565b6040516100c0919061023d565b60405180910390f35b600030905090565b60606040518060400160405280600881526020017f6e6f7420676f6f64000000000000000000000000000000000000000000000000815250905090565b60015481565b60606040518060400160405280600c81526020017f6461642066726f6d204441440000000000000000000000000000000000000000815250905090565b600073ffffffffffffffffffffffffffffffffffffffff82169050919050565b600061017c82610151565b9050919050565b61018c81610171565b82525050565b60006020820190506101a76000830184610183565b92915050565b600081519050919050565b600082825260208201905092915050565b60005b838110156101e75780820151818401526020810190506101cc565b60008484015250505050565b6000601f19601f8301169050919050565b600061020f826101ad565b61021981856101b8565b93506102298185602086016101c9565b610232816101f3565b840191505092915050565b600060208201905081810360008301526102578184610204565b905092915050565b6000819050919050565b6102728161025f565b82525050565b600060208201905061028d6000830184610269565b9291505056fea26469706673582212208a1be0cbf2694e55c62eb4b62478988546460764b3ebd39ac4ed77de4d8cd3be64736f6c63430008120033",
					"opcodes": "PUSH1 0x80 PUSH1 0x40 MSTORE PUSH1 0x40 MLOAD PUSH2 0x10 SWAP1 PUSH2 0x7E JUMP JUMPDEST PUSH1 0x40 MLOAD DUP1 SWAP2 SUB SWAP1 PUSH1 0x0 CREATE DUP1 ISZERO DUP1 ISZERO PUSH2 0x2C JUMPI RETURNDATASIZE PUSH1 0x0 DUP1 RETURNDATACOPY RETURNDATASIZE PUSH1 0x0 REVERT JUMPDEST POP PUSH1 0x0 DUP1 PUSH2 0x100 EXP DUP2 SLOAD DUP2 PUSH20 0xFFFFFFFFFFFFFFFFFFFFFFFFFFFFFFFFFFFFFFFF MUL NOT AND SWAP1 DUP4 PUSH20 0xFFFFFFFFFFFFFFFFFFFFFFFFFFFFFFFFFFFFFFFF AND MUL OR SWAP1 SSTORE POP CALLVALUE DUP1 ISZERO PUSH2 0x78 JUMPI PUSH1 0x0 DUP1 REVERT JUMPDEST POP PUSH2 0x8B JUMP JUMPDEST PUSH2 0x2FA DUP1 PUSH2 0x64F DUP4 CODECOPY ADD SWAP1 JUMP JUMPDEST PUSH2 0x5B5 DUP1 PUSH2 0x9A PUSH1 0x0 CODECOPY PUSH1 0x0 RETURN INVALID PUSH1 0x80 PUSH1 0x40 MSTORE CALLVALUE DUP1 ISZERO PUSH2 0x10 JUMPI PUSH1 0x0 DUP1 REVERT JUMPDEST POP PUSH1 0x4 CALLDATASIZE LT PUSH2 0x4C JUMPI PUSH1 0x0 CALLDATALOAD PUSH1 0xE0 SHR DUP1 PUSH4 0xC304E4B EQ PUSH2 0x51 JUMPI DUP1 PUSH4 0x13299604 EQ PUSH2 0x6F JUMPI DUP1 PUSH4 0x1C7D5C42 EQ PUSH2 0x8D JUMPI DUP1 PUSH4 0xD6D21DFD EQ PUSH2 0xAB JUMPI JUMPDEST PUSH1 0x0 DUP1 REVERT JUMPDEST PUSH2 0x59 PUSH2 0xC9 JUMP JUMPDEST PUSH1 0x40 MLOAD PUSH2 0x66 SWAP2 SWAP1 PUSH2 0x2F1 JUMP JUMPDEST PUSH1 0x40 MLOAD DUP1 SWAP2 SUB SWAP1 RETURN JUMPDEST PUSH2 0x77 PUSH2 0x164 JUMP JUMPDEST PUSH1 0x40 MLOAD PUSH2 0x84 SWAP2 SWAP1 PUSH2 0x32C JUMP JUMPDEST PUSH1 0x40 MLOAD DUP1 SWAP2 SUB SWAP1 RETURN JUMPDEST PUSH2 0x95 PUSH2 0x1FB JUMP JUMPDEST PUSH1 0x40 MLOAD PUSH2 0xA2 SWAP2 SWAP1 PUSH2 0x388 JUMP JUMPDEST PUSH1 0x40 MLOAD DUP1 SWAP2 SUB SWAP1 RETURN JUMPDEST PUSH2 0xB3 PUSH2 0x224 JUMP JUMPDEST PUSH1 0x40 MLOAD PUSH2 0xC0 SWAP2 SWAP1 PUSH2 0x2F1 JUMP JUMPDEST PUSH1 0x40 MLOAD DUP1 SWAP2 SUB SWAP1 RETURN JUMPDEST PUSH1 0x60 PUSH1 0x0 DUP1 SLOAD SWAP1 PUSH2 0x100 EXP SWAP1 DIV PUSH20 0xFFFFFFFFFFFFFFFFFFFFFFFFFFFFFFFFFFFFFFFF AND PUSH20 0xFFFFFFFFFFFFFFFFFFFFFFFFFFFFFFFFFFFFFFFF AND PUSH4 0x4D2E03A0 PUSH1 0x40 MLOAD DUP2 PUSH4 0xFFFFFFFF AND PUSH1 0xE0 SHL DUP2 MSTORE PUSH1 0x4 ADD PUSH1 0x0 PUSH1 0x40 MLOAD DUP1 DUP4 SUB DUP2 DUP7 GAS STATICCALL ISZERO DUP1 ISZERO PUSH2 0x136 JUMPI RETURNDATASIZE PUSH1 0x0 DUP1 RETURNDATACOPY RETURNDATASIZE PUSH1 0x0 REVERT JUMPDEST POP POP POP POP PUSH1 0x40 MLOAD RETURNDATASIZE PUSH1 0x0 DUP3 RETURNDATACOPY RETURNDATASIZE PUSH1 0x1F NOT PUSH1 0x1F DUP3 ADD AND DUP3 ADD DUP1 PUSH1 0x40 MSTORE POP DUP2 ADD SWAP1 PUSH2 0x15F SWAP2 SWAP1 PUSH2 0x4DD JUMP JUMPDEST SWAP1 POP SWAP1 JUMP JUMPDEST PUSH1 0x0 DUP1 PUSH1 0x0 SWAP1 SLOAD SWAP1 PUSH2 0x100 EXP SWAP1 DIV PUSH20 0xFFFFFFFFFFFFFFFFFFFFFFFFFFFFFFFFFFFFFFFF AND PUSH20 0xFFFFFFFFFFFFFFFFFFFFFFFFFFFFFFFFFFFFFFFF AND PUSH4 0x521EB273 PUSH1 0x40 MLOAD DUP2 PUSH4 0xFFFFFFFF AND PUSH1 0xE0 SHL DUP2 MSTORE PUSH1 0x4 ADD PUSH1 0x20 PUSH1 0x40 MLOAD DUP1 DUP4 SUB DUP2 DUP7 GAS STATICCALL ISZERO DUP1 ISZERO PUSH2 0x1D2 JUMPI RETURNDATASIZE PUSH1 0x0 DUP1 RETURNDATACOPY RETURNDATASIZE PUSH1 0x0 REVERT JUMPDEST POP POP POP POP PUSH1 0x40 MLOAD RETURNDATASIZE PUSH1 0x1F NOT PUSH1 0x1F DUP3 ADD AND DUP3 ADD DUP1 PUSH1 0x40 MSTORE POP DUP2 ADD SWAP1 PUSH2 0x1F6 SWAP2 SWAP1 PUSH2 0x552 JUMP JUMPDEST SWAP1 POP SWAP1 JUMP JUMPDEST PUSH1 0x0 DUP1 PUSH1 0x0 SWAP1 SLOAD SWAP1 PUSH2 0x100 EXP SWAP1 DIV PUSH20 0xFFFFFFFFFFFFFFFFFFFFFFFFFFFFFFFFFFFFFFFF AND SWAP1 POP SWAP1 JUMP JUMPDEST PUSH1 0x60 PUSH1 0x40 MLOAD DUP1 PUSH1 0x40 ADD PUSH1 0x40 MSTORE DUP1 PUSH1 0xC DUP2 MSTORE PUSH1 0x20 ADD PUSH32 0x6D6F6D2066726F6D204D4F4D0000000000000000000000000000000000000000 DUP2 MSTORE POP SWAP1 POP SWAP1 JUMP JUMPDEST PUSH1 0x0 DUP2 MLOAD SWAP1 POP SWAP2 SWAP1 POP JUMP JUMPDEST PUSH1 0x0 DUP3 DUP3 MSTORE PUSH1 0x20 DUP3 ADD SWAP1 POP SWAP3 SWAP2 POP POP JUMP JUMPDEST PUSH1 0x0 JUMPDEST DUP4 DUP2 LT ISZERO PUSH2 0x29B JUMPI DUP1 DUP3 ADD MLOAD DUP2 DUP5 ADD MSTORE PUSH1 0x20 DUP2 ADD SWAP1 POP PUSH2 0x280 JUMP JUMPDEST PUSH1 0x0 DUP5 DUP5 ADD MSTORE POP POP POP POP JUMP JUMPDEST PUSH1 0x0 PUSH1 0x1F NOT PUSH1 0x1F DUP4 ADD AND SWAP1 POP SWAP2 SWAP1 POP JUMP JUMPDEST PUSH1 0x0 PUSH2 0x2C3 DUP3 PUSH2 0x261 JUMP JUMPDEST PUSH2 0x2CD DUP2 DUP6 PUSH2 0x26C JUMP JUMPDEST SWAP4 POP PUSH2 0x2DD DUP2 DUP6 PUSH1 0x20 DUP7 ADD PUSH2 0x27D JUMP JUMPDEST PUSH2 0x2E6 DUP2 PUSH2 0x2A7 JUMP JUMPDEST DUP5 ADD SWAP2 POP POP SWAP3 SWAP2 POP POP JUMP JUMPDEST PUSH1 0x0 PUSH1 0x20 DUP3 ADD SWAP1 POP DUP2 DUP2 SUB PUSH1 0x0 DUP4 ADD MSTORE PUSH2 0x30B DUP2 DUP5 PUSH2 0x2B8 JUMP JUMPDEST SWAP1 POP SWAP3 SWAP2 POP POP JUMP JUMPDEST PUSH1 0x0 DUP2 SWAP1 POP SWAP2 SWAP1 POP JUMP JUMPDEST PUSH2 0x326 DUP2 PUSH2 0x313 JUMP JUMPDEST DUP3 MSTORE POP POP JUMP JUMPDEST PUSH1 0x0 PUSH1 0x20 DUP3 ADD SWAP1 POP PUSH2 0x341 PUSH1 0x0 DUP4 ADD DUP5 PUSH2 0x31D JUMP JUMPDEST SWAP3 SWAP2 POP POP JUMP JUMPDEST PUSH1 0x0 PUSH20 0xFFFFFFFFFFFFFFFFFFFFFFFFFFFFFFFFFFFFFFFF DUP3 AND SWAP1 POP SWAP2 SWAP1 POP JUMP JUMPDEST PUSH1 0x0 PUSH2 0x372 DUP3 PUSH2 0x347 JUMP JUMPDEST SWAP1 POP SWAP2 SWAP1 POP JUMP JUMPDEST PUSH2 0x382 DUP2 PUSH2 0x367 JUMP JUMPDEST DUP3 MSTORE POP POP JUMP JUMPDEST PUSH1 0x0 PUSH1 0x20 DUP3 ADD SWAP1 POP PUSH2 0x39D PUSH1 0x0 DUP4 ADD DUP5 PUSH2 0x379 JUMP JUMPDEST SWAP3 SWAP2 POP POP JUMP JUMPDEST PUSH1 0x0 PUSH1 0x40 MLOAD SWAP1 POP SWAP1 JUMP JUMPDEST PUSH1 0x0 DUP1 REVERT JUMPDEST PUSH1 0x0 DUP1 REVERT JUMPDEST PUSH1 0x0 DUP1 REVERT JUMPDEST PUSH1 0x0 DUP1 REVERT JUMPDEST PUSH32 0x4E487B7100000000000000000000000000000000000000000000000000000000 PUSH1 0x0 MSTORE PUSH1 0x41 PUSH1 0x4 MSTORE PUSH1 0x24 PUSH1 0x0 REVERT JUMPDEST PUSH2 0x3F9 DUP3 PUSH2 0x2A7 JUMP JUMPDEST DUP2 ADD DUP2 DUP2 LT PUSH8 0xFFFFFFFFFFFFFFFF DUP3 GT OR ISZERO PUSH2 0x418 JUMPI PUSH2 0x417 PUSH2 0x3C1 JUMP JUMPDEST JUMPDEST DUP1 PUSH1 0x40 MSTORE POP POP POP JUMP JUMPDEST PUSH1 0x0 PUSH2 0x42B PUSH2 0x3A3 JUMP JUMPDEST SWAP1 POP PUSH2 0x437 DUP3 DUP3 PUSH2 0x3F0 JUMP JUMPDEST SWAP2 SWAP1 POP JUMP JUMPDEST PUSH1 0x0 PUSH8 0xFFFFFFFFFFFFFFFF DUP3 GT ISZERO PUSH2 0x457 JUMPI PUSH2 0x456 PUSH2 0x3C1 JUMP JUMPDEST JUMPDEST PUSH2 0x460 DUP3 PUSH2 0x2A7 JUMP JUMPDEST SWAP1 POP PUSH1 0x20 DUP2 ADD SWAP1 POP SWAP2 SWAP1 POP JUMP JUMPDEST PUSH1 0x0 PUSH2 0x480 PUSH2 0x47B DUP5 PUSH2 0x43C JUMP JUMPDEST PUSH2 0x421 JUMP JUMPDEST SWAP1 POP DUP3 DUP2 MSTORE PUSH1 0x20 DUP2 ADD DUP5 DUP5 DUP5 ADD GT ISZERO PUSH2 0x49C JUMPI PUSH2 0x49B PUSH2 0x3BC JUMP JUMPDEST JUMPDEST PUSH2 0x4A7 DUP5 DUP3 DUP6 PUSH2 0x27D JUMP JUMPDEST POP SWAP4 SWAP3 POP POP POP JUMP JUMPDEST PUSH1 0x0 DUP3 PUSH1 0x1F DUP4 ADD SLT PUSH2 0x4C4 JUMPI PUSH2 0x4C3 PUSH2 0x3B7 JUMP JUMPDEST JUMPDEST DUP2 MLOAD PUSH2 0x4D4 DUP5 DUP3 PUSH1 0x20 DUP7 ADD PUSH2 0x46D JUMP JUMPDEST SWAP2 POP POP SWAP3 SWAP2 POP POP JUMP JUMPDEST PUSH1 0x0 PUSH1 0x20 DUP3 DUP5 SUB SLT ISZERO PUSH2 0x4F3 JUMPI PUSH2 0x4F2 PUSH2 0x3AD JUMP JUMPDEST JUMPDEST PUSH1 0x0 DUP3 ADD MLOAD PUSH8 0xFFFFFFFFFFFFFFFF DUP2 GT ISZERO PUSH2 0x511 JUMPI PUSH2 0x510 PUSH2 0x3B2 JUMP JUMPDEST JUMPDEST PUSH2 0x51D DUP5 DUP3 DUP6 ADD PUSH2 0x4AF JUMP JUMPDEST SWAP2 POP POP SWAP3 SWAP2 POP POP JUMP JUMPDEST PUSH2 0x52F DUP2 PUSH2 0x313 JUMP JUMPDEST DUP2 EQ PUSH2 0x53A JUMPI PUSH1 0x0 DUP1 REVERT JUMPDEST POP JUMP JUMPDEST PUSH1 0x0 DUP2 MLOAD SWAP1 POP PUSH2 0x54C DUP2 PUSH2 0x526 JUMP JUMPDEST SWAP3 SWAP2 POP POP JUMP JUMPDEST PUSH1 0x0 PUSH1 0x20 DUP3 DUP5 SUB SLT ISZERO PUSH2 0x568 JUMPI PUSH2 0x567 PUSH2 0x3AD JUMP JUMPDEST JUMPDEST PUSH1 0x0 PUSH2 0x576 DUP5 DUP3 DUP6 ADD PUSH2 0x53D JUMP JUMPDEST SWAP2 POP POP SWAP3 SWAP2 POP POP JUMP INVALID LOG2 PUSH5 0x6970667358 0x22 SLT KECCAK256 PUSH3 0xB2F1D6 SWAP6 INVALID 0xA7 BASEFEE 0xC2 EXTCODEHASH 0xB0 SELFBALANCE 0x4A 0xFB DUP3 0x1E 0xE7 0x1E DUP1 PUSH25 0x942210A42CC0BA24D33218C164736F6C634300081200336080 PUSH1 0x40 MSTORE PUSH1 0x64 PUSH1 0x1 SSTORE PUSH2 0x3E8 PUSH1 0x2 SSTORE PUSH2 0x2710 PUSH1 0x3 SSTORE CALLVALUE DUP1 ISZERO PUSH2 0x21 JUMPI PUSH1 0x0 DUP1 REVERT JUMPDEST POP PUSH2 0x2C9 DUP1 PUSH2 0x31 PUSH1 0x0 CODECOPY PUSH1 0x0 RETURN INVALID PUSH1 0x80 PUSH1 0x40 MSTORE CALLVALUE DUP1 ISZERO PUSH2 0x10 JUMPI PUSH1 0x0 DUP1 REVERT JUMPDEST POP PUSH1 0x4 CALLDATASIZE LT PUSH2 0x4C JUMPI PUSH1 0x0 CALLDATALOAD PUSH1 0xE0 SHR DUP1 PUSH4 0x38CC4831 EQ PUSH2 0x51 JUMPI DUP1 PUSH4 0x4D2E03A0 EQ PUSH2 0x6F JUMPI DUP1 PUSH4 0x521EB273 EQ PUSH2 0x8D JUMPI DUP1 PUSH4 0xD6D21DFD EQ PUSH2 0xAB JUMPI JUMPDEST PUSH1 0x0 DUP1 REVERT JUMPDEST PUSH2 0x59 PUSH2 0xC9 JUMP JUMPDEST PUSH1 0x40 MLOAD PUSH2 0x66 SWAP2 SWAP1 PUSH2 0x192 JUMP JUMPDEST PUSH1 0x40 MLOAD DUP1 SWAP2 SUB SWAP1 RETURN JUMPDEST PUSH2 0x77 PUSH2 0xD1 JUMP JUMPDEST PUSH1 0x40 MLOAD PUSH2 0x84 SWAP2 SWAP1 PUSH2 0x23D JUMP JUMPDEST PUSH1 0x40 MLOAD DUP1 SWAP2 SUB SWAP1 RETURN JUMPDEST PUSH2 0x95 PUSH2 0x10E JUMP JUMPDEST PUSH1 0x40 MLOAD PUSH2 0xA2 SWAP2 SWAP1 PUSH2 0x278 JUMP JUMPDEST PUSH1 0x40 MLOAD DUP1 SWAP2 SUB SWAP1 RETURN JUMPDEST PUSH2 0xB3 PUSH2 0x114 JUMP JUMPDEST PUSH1 0x40 MLOAD PUSH2 0xC0 SWAP2 SWAP1 PUSH2 0x23D JUMP JUMPDEST PUSH1 0x40 MLOAD DUP1 SWAP2 SUB SWAP1 RETURN JUMPDEST PUSH1 0x0 ADDRESS SWAP1 POP SWAP1 JUMP JUMPDEST PUSH1 0x60 PUSH1 0x40 MLOAD DUP1 PUSH1 0x40 ADD PUSH1 0x40 MSTORE DUP1 PUSH1 0x8 DUP2 MSTORE PUSH1 0x20 ADD PUSH32 0x6E6F7420676F6F64000000000000000000000000000000000000000000000000 DUP2 MSTORE POP SWAP1 POP SWAP1 JUMP JUMPDEST PUSH1 0x1 SLOAD DUP2 JUMP JUMPDEST PUSH1 0x60 PUSH1 0x40 MLOAD DUP1 PUSH1 0x40 ADD PUSH1 0x40 MSTORE DUP1 PUSH1 0xC DUP2 MSTORE PUSH1 0x20 ADD PUSH32 0x6461642066726F6D204441440000000000000000000000000000000000000000 DUP2 MSTORE POP SWAP1 POP SWAP1 JUMP JUMPDEST PUSH1 0x0 PUSH20 0xFFFFFFFFFFFFFFFFFFFFFFFFFFFFFFFFFFFFFFFF DUP3 AND SWAP1 POP SWAP2 SWAP1 POP JUMP JUMPDEST PUSH1 0x0 PUSH2 0x17C DUP3 PUSH2 0x151 JUMP JUMPDEST SWAP1 POP SWAP2 SWAP1 POP JUMP JUMPDEST PUSH2 0x18C DUP2 PUSH2 0x171 JUMP JUMPDEST DUP3 MSTORE POP POP JUMP JUMPDEST PUSH1 0x0 PUSH1 0x20 DUP3 ADD SWAP1 POP PUSH2 0x1A7 PUSH1 0x0 DUP4 ADD DUP5 PUSH2 0x183 JUMP JUMPDEST SWAP3 SWAP2 POP POP JUMP JUMPDEST PUSH1 0x0 DUP2 MLOAD SWAP1 POP SWAP2 SWAP1 POP JUMP JUMPDEST PUSH1 0x0 DUP3 DUP3 MSTORE PUSH1 0x20 DUP3 ADD SWAP1 POP SWAP3 SWAP2 POP POP JUMP JUMPDEST PUSH1 0x0 JUMPDEST DUP4 DUP2 LT ISZERO PUSH2 0x1E7 JUMPI DUP1 DUP3 ADD MLOAD DUP2 DUP5 ADD MSTORE PUSH1 0x20 DUP2 ADD SWAP1 POP PUSH2 0x1CC JUMP JUMPDEST PUSH1 0x0 DUP5 DUP5 ADD MSTORE POP POP POP POP JUMP JUMPDEST PUSH1 0x0 PUSH1 0x1F NOT PUSH1 0x1F DUP4 ADD AND SWAP1 POP SWAP2 SWAP1 POP JUMP JUMPDEST PUSH1 0x0 PUSH2 0x20F DUP3 PUSH2 0x1AD JUMP JUMPDEST PUSH2 0x219 DUP2 DUP6 PUSH2 0x1B8 JUMP JUMPDEST SWAP4 POP PUSH2 0x229 DUP2 DUP6 PUSH1 0x20 DUP7 ADD PUSH2 0x1C9 JUMP JUMPDEST PUSH2 0x232 DUP2 PUSH2 0x1F3 JUMP JUMPDEST DUP5 ADD SWAP2 POP POP SWAP3 SWAP2 POP POP JUMP JUMPDEST PUSH1 0x0 PUSH1 0x20 DUP3 ADD SWAP1 POP DUP2 DUP2 SUB PUSH1 0x0 DUP4 ADD MSTORE PUSH2 0x257 DUP2 DUP5 PUSH2 0x204 JUMP JUMPDEST SWAP1 POP SWAP3 SWAP2 POP POP JUMP JUMPDEST PUSH1 0x0 DUP2 SWAP1 POP SWAP2 SWAP1 POP JUMP JUMPDEST PUSH2 0x272 DUP2 PUSH2 0x25F JUMP JUMPDEST DUP3 MSTORE POP POP JUMP JUMPDEST PUSH1 0x0 PUSH1 0x20 DUP3 ADD SWAP1 POP PUSH2 0x28D PUSH1 0x0 DUP4 ADD DUP5 PUSH2 0x269 JUMP JUMPDEST SWAP3 SWAP2 POP POP JUMP INVALID LOG2 PUSH5 0x6970667358 0x22 SLT KECCAK256 DUP11 SHL 0xE0 0xCB CALLCODE PUSH10 0x4E55C62EB4B624789885 CHAINID CHAINID SMOD PUSH5 0xB3EBD39AC4 0xED PUSH24 0xDE4D8CD3BE64736F6C634300081200330000000000000000 "
				},
				"gasEstimates": {
					"creation": {
						"codeDepositCost": "292200",
						"executionCost": "infinite",
						"totalCost": "infinite"
					},
					"external": {
						"getHusbandChar()": "infinite",
						"getWallet()": "infinite",
						"husbandAddress()": "2544",
						"who()": "infinite"
					}
				},
				"methodIdentifiers": {
					"getHusbandChar()": "0c304e4b",
					"getWallet()": "13299604",
					"husbandAddress()": "1c7d5c42",
					"who()": "d6d21dfd"
				}
			},
			"storageLayout": {
				"storage": [
					{
						"astId": 200,
						"contract": "contracts/230516_1/2.sol:MOM",
						"label": "husband",
						"offset": 0,
						"slot": "0",
						"type": "t_contract(DAD)193"
					}
				],
				"types": {
					"t_contract(DAD)193": {
						"encoding": "inplace",
						"label": "contract DAD",
						"numberOfBytes": "20"
					}
				}
			},
			"userdoc": {
				"kind": "user",
				"methods": {},
				"version": 1
			}
		}
	}
}