{
	"contracts/230612/1.sol": {
		"A": {
			"abi": [
				{
					"inputs": [],
					"name": "a",
					"outputs": [
						{
							"internalType": "uint256",
							"name": "",
							"type": "uint256"
						}
					],
					"stateMutability": "view",
					"type": "function"
				},
				{
					"inputs": [
						{
							"internalType": "uint256",
							"name": "_n",
							"type": "uint256"
						}
					],
					"name": "change",
					"outputs": [
						{
							"internalType": "uint256",
							"name": "",
							"type": "uint256"
						}
					],
					"stateMutability": "nonpayable",
					"type": "function"
				},
				{
					"inputs": [
						{
							"internalType": "uint256",
							"name": "_a",
							"type": "uint256"
						},
						{
							"internalType": "uint256",
							"name": "_b",
							"type": "uint256"
						},
						{
							"internalType": "uint256",
							"name": "_c",
							"type": "uint256"
						}
					],
					"name": "mul",
					"outputs": [
						{
							"internalType": "uint256",
							"name": "",
							"type": "uint256"
						}
					],
					"stateMutability": "pure",
					"type": "function"
				}
			],
			"devdoc": {
				"kind": "dev",
				"methods": {},
				"version": 1
			},
			"evm": {
				"assembly": "    /* \"contracts/230612/1.sol\":279:501  contract A {... */\n  mstore(0x40, 0x80)\n  callvalue\n  dup1\n  iszero\n  tag_1\n  jumpi\n  0x00\n  dup1\n  revert\ntag_1:\n  pop\n  dataSize(sub_0)\n  dup1\n  dataOffset(sub_0)\n  0x00\n  codecopy\n  0x00\n  return\nstop\n\nsub_0: assembly {\n        /* \"contracts/230612/1.sol\":279:501  contract A {... */\n      mstore(0x40, 0x80)\n      callvalue\n      dup1\n      iszero\n      tag_1\n      jumpi\n      0x00\n      dup1\n      revert\n    tag_1:\n      pop\n      jumpi(tag_2, lt(calldatasize, 0x04))\n      shr(0xe0, calldataload(0x00))\n      dup1\n      0x0dbe671f\n      eq\n      tag_3\n      jumpi\n      dup1\n      0x75322e47\n      eq\n      tag_4\n      jumpi\n      dup1\n      0xe91cac2d\n      eq\n      tag_5\n      jumpi\n    tag_2:\n      0x00\n      dup1\n      revert\n        /* \"contracts/230612/1.sol\":296:309  uint public a */\n    tag_3:\n      tag_6\n      tag_7\n      jump\t// in\n    tag_6:\n      mload(0x40)\n      tag_8\n      swap2\n      swap1\n      tag_9\n      jump\t// in\n    tag_8:\n      mload(0x40)\n      dup1\n      swap2\n      sub\n      swap1\n      return\n        /* \"contracts/230612/1.sol\":423:493  function change(uint _n) public returns (uint) {... */\n    tag_4:\n      tag_10\n      0x04\n      dup1\n      calldatasize\n      sub\n      dup2\n      add\n      swap1\n      tag_11\n      swap2\n      swap1\n      tag_12\n      jump\t// in\n    tag_11:\n      tag_13\n      jump\t// in\n    tag_10:\n      mload(0x40)\n      tag_14\n      swap2\n      swap1\n      tag_9\n      jump\t// in\n    tag_14:\n      mload(0x40)\n      dup1\n      swap2\n      sub\n      swap1\n      return\n        /* \"contracts/230612/1.sol\":315:417  function mul(uint _a, uint _b, uint _c) public pure returns(uint) {... */\n    tag_5:\n      tag_15\n      0x04\n      dup1\n      calldatasize\n      sub\n      dup2\n      add\n      swap1\n      tag_16\n      swap2\n      swap1\n      tag_17\n      jump\t// in\n    tag_16:\n      tag_18\n      jump\t// in\n    tag_15:\n      mload(0x40)\n      tag_19\n      swap2\n      swap1\n      tag_9\n      jump\t// in\n    tag_19:\n      mload(0x40)\n      dup1\n      swap2\n      sub\n      swap1\n      return\n        /* \"contracts/230612/1.sol\":296:309  uint public a */\n    tag_7:\n      sload(0x00)\n      dup2\n      jump\t// out\n        /* \"contracts/230612/1.sol\":423:493  function change(uint _n) public returns (uint) {... */\n    tag_13:\n        /* \"contracts/230612/1.sol\":464:468  uint */\n      0x00\n        /* \"contracts/230612/1.sol\":484:486  _n */\n      dup2\n        /* \"contracts/230612/1.sol\":480:481  a */\n      0x00\n        /* \"contracts/230612/1.sol\":480:486  a = _n */\n      dup2\n      swap1\n      sstore\n      pop\n        /* \"contracts/230612/1.sol\":423:493  function change(uint _n) public returns (uint) {... */\n      swap2\n      swap1\n      pop\n      jump\t// out\n        /* \"contracts/230612/1.sol\":315:417  function mul(uint _a, uint _b, uint _c) public pure returns(uint) {... */\n    tag_18:\n        /* \"contracts/230612/1.sol\":375:379  uint */\n      0x00\n        /* \"contracts/230612/1.sol\":407:409  _c */\n      dup2\n        /* \"contracts/230612/1.sol\":403:405  _b */\n      dup4\n        /* \"contracts/230612/1.sol\":399:401  _a */\n      dup6\n        /* \"contracts/230612/1.sol\":399:405  _a* _b */\n      tag_22\n      swap2\n      swap1\n      tag_23\n      jump\t// in\n    tag_22:\n        /* \"contracts/230612/1.sol\":399:409  _a* _b* _c */\n      tag_24\n      swap2\n      swap1\n      tag_23\n      jump\t// in\n    tag_24:\n        /* \"contracts/230612/1.sol\":391:410  return (_a* _b* _c) */\n      swap1\n      pop\n        /* \"contracts/230612/1.sol\":315:417  function mul(uint _a, uint _b, uint _c) public pure returns(uint) {... */\n      swap4\n      swap3\n      pop\n      pop\n      pop\n      jump\t// out\n        /* \"#utility.yul\":7:84   */\n    tag_25:\n        /* \"#utility.yul\":44:51   */\n      0x00\n        /* \"#utility.yul\":73:78   */\n      dup2\n        /* \"#utility.yul\":62:78   */\n      swap1\n      pop\n        /* \"#utility.yul\":7:84   */\n      swap2\n      swap1\n      pop\n      jump\t// out\n        /* \"#utility.yul\":90:208   */\n    tag_26:\n        /* \"#utility.yul\":177:201   */\n      tag_36\n        /* \"#utility.yul\":195:200   */\n      dup2\n        /* \"#utility.yul\":177:201   */\n      tag_25\n      jump\t// in\n    tag_36:\n        /* \"#utility.yul\":172:175   */\n      dup3\n        /* \"#utility.yul\":165:202   */\n      mstore\n        /* \"#utility.yul\":90:208   */\n      pop\n      pop\n      jump\t// out\n        /* \"#utility.yul\":214:436   */\n    tag_9:\n        /* \"#utility.yul\":307:311   */\n      0x00\n        /* \"#utility.yul\":345:347   */\n      0x20\n        /* \"#utility.yul\":334:343   */\n      dup3\n        /* \"#utility.yul\":330:348   */\n      add\n        /* \"#utility.yul\":322:348   */\n      swap1\n      pop\n        /* \"#utility.yul\":358:429   */\n      tag_38\n        /* \"#utility.yul\":426:427   */\n      0x00\n        /* \"#utility.yul\":415:424   */\n      dup4\n        /* \"#utility.yul\":411:428   */\n      add\n        /* \"#utility.yul\":402:408   */\n      dup5\n        /* \"#utility.yul\":358:429   */\n      tag_26\n      jump\t// in\n    tag_38:\n        /* \"#utility.yul\":214:436   */\n      swap3\n      swap2\n      pop\n      pop\n      jump\t// out\n        /* \"#utility.yul\":523:640   */\n    tag_28:\n        /* \"#utility.yul\":632:633   */\n      0x00\n        /* \"#utility.yul\":629:630   */\n      dup1\n        /* \"#utility.yul\":622:634   */\n      revert\n        /* \"#utility.yul\":769:891   */\n    tag_30:\n        /* \"#utility.yul\":842:866   */\n      tag_43\n        /* \"#utility.yul\":860:865   */\n      dup2\n        /* \"#utility.yul\":842:866   */\n      tag_25\n      jump\t// in\n    tag_43:\n        /* \"#utility.yul\":835:840   */\n      dup2\n        /* \"#utility.yul\":832:867   */\n      eq\n        /* \"#utility.yul\":822:885   */\n      tag_44\n      jumpi\n        /* \"#utility.yul\":881:882   */\n      0x00\n        /* \"#utility.yul\":878:879   */\n      dup1\n        /* \"#utility.yul\":871:883   */\n      revert\n        /* \"#utility.yul\":822:885   */\n    tag_44:\n        /* \"#utility.yul\":769:891   */\n      pop\n      jump\t// out\n        /* \"#utility.yul\":897:1036   */\n    tag_31:\n        /* \"#utility.yul\":943:948   */\n      0x00\n        /* \"#utility.yul\":981:987   */\n      dup2\n        /* \"#utility.yul\":968:988   */\n      calldataload\n        /* \"#utility.yul\":959:988   */\n      swap1\n      pop\n        /* \"#utility.yul\":997:1030   */\n      tag_46\n        /* \"#utility.yul\":1024:1029   */\n      dup2\n        /* \"#utility.yul\":997:1030   */\n      tag_30\n      jump\t// in\n    tag_46:\n        /* \"#utility.yul\":897:1036   */\n      swap3\n      swap2\n      pop\n      pop\n      jump\t// out\n        /* \"#utility.yul\":1042:1371   */\n    tag_12:\n        /* \"#utility.yul\":1101:1107   */\n      0x00\n        /* \"#utility.yul\":1150:1152   */\n      0x20\n        /* \"#utility.yul\":1138:1147   */\n      dup3\n        /* \"#utility.yul\":1129:1136   */\n      dup5\n        /* \"#utility.yul\":1125:1148   */\n      sub\n        /* \"#utility.yul\":1121:1153   */\n      slt\n        /* \"#utility.yul\":1118:1237   */\n      iszero\n      tag_48\n      jumpi\n        /* \"#utility.yul\":1156:1235   */\n      tag_49\n      tag_28\n      jump\t// in\n    tag_49:\n        /* \"#utility.yul\":1118:1237   */\n    tag_48:\n        /* \"#utility.yul\":1276:1277   */\n      0x00\n        /* \"#utility.yul\":1301:1354   */\n      tag_50\n        /* \"#utility.yul\":1346:1353   */\n      dup5\n        /* \"#utility.yul\":1337:1343   */\n      dup3\n        /* \"#utility.yul\":1326:1335   */\n      dup6\n        /* \"#utility.yul\":1322:1344   */\n      add\n        /* \"#utility.yul\":1301:1354   */\n      tag_31\n      jump\t// in\n    tag_50:\n        /* \"#utility.yul\":1291:1354   */\n      swap2\n      pop\n        /* \"#utility.yul\":1247:1364   */\n      pop\n        /* \"#utility.yul\":1042:1371   */\n      swap3\n      swap2\n      pop\n      pop\n      jump\t// out\n        /* \"#utility.yul\":1377:1996   */\n    tag_17:\n        /* \"#utility.yul\":1454:1460   */\n      0x00\n        /* \"#utility.yul\":1462:1468   */\n      dup1\n        /* \"#utility.yul\":1470:1476   */\n      0x00\n        /* \"#utility.yul\":1519:1521   */\n      0x60\n        /* \"#utility.yul\":1507:1516   */\n      dup5\n        /* \"#utility.yul\":1498:1505   */\n      dup7\n        /* \"#utility.yul\":1494:1517   */\n      sub\n        /* \"#utility.yul\":1490:1522   */\n      slt\n        /* \"#utility.yul\":1487:1606   */\n      iszero\n      tag_52\n      jumpi\n        /* \"#utility.yul\":1525:1604   */\n      tag_53\n      tag_28\n      jump\t// in\n    tag_53:\n        /* \"#utility.yul\":1487:1606   */\n    tag_52:\n        /* \"#utility.yul\":1645:1646   */\n      0x00\n        /* \"#utility.yul\":1670:1723   */\n      tag_54\n        /* \"#utility.yul\":1715:1722   */\n      dup7\n        /* \"#utility.yul\":1706:1712   */\n      dup3\n        /* \"#utility.yul\":1695:1704   */\n      dup8\n        /* \"#utility.yul\":1691:1713   */\n      add\n        /* \"#utility.yul\":1670:1723   */\n      tag_31\n      jump\t// in\n    tag_54:\n        /* \"#utility.yul\":1660:1723   */\n      swap4\n      pop\n        /* \"#utility.yul\":1616:1733   */\n      pop\n        /* \"#utility.yul\":1772:1774   */\n      0x20\n        /* \"#utility.yul\":1798:1851   */\n      tag_55\n        /* \"#utility.yul\":1843:1850   */\n      dup7\n        /* \"#utility.yul\":1834:1840   */\n      dup3\n        /* \"#utility.yul\":1823:1832   */\n      dup8\n        /* \"#utility.yul\":1819:1841   */\n      add\n        /* \"#utility.yul\":1798:1851   */\n      tag_31\n      jump\t// in\n    tag_55:\n        /* \"#utility.yul\":1788:1851   */\n      swap3\n      pop\n        /* \"#utility.yul\":1743:1861   */\n      pop\n        /* \"#utility.yul\":1900:1902   */\n      0x40\n        /* \"#utility.yul\":1926:1979   */\n      tag_56\n        /* \"#utility.yul\":1971:1978   */\n      dup7\n        /* \"#utility.yul\":1962:1968   */\n      dup3\n        /* \"#utility.yul\":1951:1960   */\n      dup8\n        /* \"#utility.yul\":1947:1969   */\n      add\n        /* \"#utility.yul\":1926:1979   */\n      tag_31\n      jump\t// in\n    tag_56:\n        /* \"#utility.yul\":1916:1979   */\n      swap2\n      pop\n        /* \"#utility.yul\":1871:1989   */\n      pop\n        /* \"#utility.yul\":1377:1996   */\n      swap3\n      pop\n      swap3\n      pop\n      swap3\n      jump\t// out\n        /* \"#utility.yul\":2002:2182   */\n    tag_32:\n        /* \"#utility.yul\":2050:2127   */\n      0x4e487b7100000000000000000000000000000000000000000000000000000000\n        /* \"#utility.yul\":2047:2048   */\n      0x00\n        /* \"#utility.yul\":2040:2128   */\n      mstore\n        /* \"#utility.yul\":2147:2151   */\n      0x11\n        /* \"#utility.yul\":2144:2145   */\n      0x04\n        /* \"#utility.yul\":2137:2152   */\n      mstore\n        /* \"#utility.yul\":2171:2175   */\n      0x24\n        /* \"#utility.yul\":2168:2169   */\n      0x00\n        /* \"#utility.yul\":2161:2176   */\n      revert\n        /* \"#utility.yul\":2188:2598   */\n    tag_23:\n        /* \"#utility.yul\":2228:2235   */\n      0x00\n        /* \"#utility.yul\":2251:2271   */\n      tag_59\n        /* \"#utility.yul\":2269:2270   */\n      dup3\n        /* \"#utility.yul\":2251:2271   */\n      tag_25\n      jump\t// in\n    tag_59:\n        /* \"#utility.yul\":2246:2271   */\n      swap2\n      pop\n        /* \"#utility.yul\":2285:2305   */\n      tag_60\n        /* \"#utility.yul\":2303:2304   */\n      dup4\n        /* \"#utility.yul\":2285:2305   */\n      tag_25\n      jump\t// in\n    tag_60:\n        /* \"#utility.yul\":2280:2305   */\n      swap3\n      pop\n        /* \"#utility.yul\":2340:2341   */\n      dup3\n        /* \"#utility.yul\":2337:2338   */\n      dup3\n        /* \"#utility.yul\":2333:2342   */\n      mul\n        /* \"#utility.yul\":2362:2392   */\n      tag_61\n        /* \"#utility.yul\":2380:2391   */\n      dup2\n        /* \"#utility.yul\":2362:2392   */\n      tag_25\n      jump\t// in\n    tag_61:\n        /* \"#utility.yul\":2351:2392   */\n      swap2\n      pop\n        /* \"#utility.yul\":2541:2542   */\n      dup3\n        /* \"#utility.yul\":2532:2539   */\n      dup3\n        /* \"#utility.yul\":2528:2543   */\n      div\n        /* \"#utility.yul\":2525:2526   */\n      dup5\n        /* \"#utility.yul\":2522:2544   */\n      eq\n        /* \"#utility.yul\":2502:2503   */\n      dup4\n        /* \"#utility.yul\":2495:2504   */\n      iszero\n        /* \"#utility.yul\":2475:2558   */\n      or\n        /* \"#utility.yul\":2452:2591   */\n      tag_62\n      jumpi\n        /* \"#utility.yul\":2571:2589   */\n      tag_63\n      tag_32\n      jump\t// in\n    tag_63:\n        /* \"#utility.yul\":2452:2591   */\n    tag_62:\n        /* \"#utility.yul\":2236:2598   */\n      pop\n        /* \"#utility.yul\":2188:2598   */\n      swap3\n      swap2\n      pop\n      pop\n      jump\t// out\n\n    auxdata: 0xa2646970667358221220253cde642a2a0efcb2092b00ff3d1b17742ba417117ffbae0b14f5c09dc80d9b64736f6c63430008120033\n}\n",
				"bytecode": {
					"linkReferences": {},
					"object": "608060405234801561001057600080fd5b50610286806100206000396000f3fe608060405234801561001057600080fd5b50600436106100415760003560e01c80630dbe671f1461004657806375322e4714610064578063e91cac2d14610094575b600080fd5b61004e6100c4565b60405161005b9190610113565b60405180910390f35b61007e6004803603810190610079919061015f565b6100ca565b60405161008b9190610113565b60405180910390f35b6100ae60048036038101906100a9919061018c565b6100d8565b6040516100bb9190610113565b60405180910390f35b60005481565b600081600081905550919050565b60008183856100e7919061020e565b6100f1919061020e565b90509392505050565b6000819050919050565b61010d816100fa565b82525050565b60006020820190506101286000830184610104565b92915050565b600080fd5b61013c816100fa565b811461014757600080fd5b50565b60008135905061015981610133565b92915050565b6000602082840312156101755761017461012e565b5b60006101838482850161014a565b91505092915050565b6000806000606084860312156101a5576101a461012e565b5b60006101b38682870161014a565b93505060206101c48682870161014a565b92505060406101d58682870161014a565b9150509250925092565b7f4e487b7100000000000000000000000000000000000000000000000000000000600052601160045260246000fd5b6000610219826100fa565b9150610224836100fa565b9250828202610232816100fa565b91508282048414831517610249576102486101df565b5b509291505056fea2646970667358221220253cde642a2a0efcb2092b00ff3d1b17742ba417117ffbae0b14f5c09dc80d9b64736f6c63430008120033",
					"opcodes": "PUSH1 0x80 PUSH1 0x40 MSTORE CALLVALUE DUP1 ISZERO PUSH2 0x10 JUMPI PUSH1 0x0 DUP1 REVERT JUMPDEST POP PUSH2 0x286 DUP1 PUSH2 0x20 PUSH1 0x0 CODECOPY PUSH1 0x0 RETURN INVALID PUSH1 0x80 PUSH1 0x40 MSTORE CALLVALUE DUP1 ISZERO PUSH2 0x10 JUMPI PUSH1 0x0 DUP1 REVERT JUMPDEST POP PUSH1 0x4 CALLDATASIZE LT PUSH2 0x41 JUMPI PUSH1 0x0 CALLDATALOAD PUSH1 0xE0 SHR DUP1 PUSH4 0xDBE671F EQ PUSH2 0x46 JUMPI DUP1 PUSH4 0x75322E47 EQ PUSH2 0x64 JUMPI DUP1 PUSH4 0xE91CAC2D EQ PUSH2 0x94 JUMPI JUMPDEST PUSH1 0x0 DUP1 REVERT JUMPDEST PUSH2 0x4E PUSH2 0xC4 JUMP JUMPDEST PUSH1 0x40 MLOAD PUSH2 0x5B SWAP2 SWAP1 PUSH2 0x113 JUMP JUMPDEST PUSH1 0x40 MLOAD DUP1 SWAP2 SUB SWAP1 RETURN JUMPDEST PUSH2 0x7E PUSH1 0x4 DUP1 CALLDATASIZE SUB DUP2 ADD SWAP1 PUSH2 0x79 SWAP2 SWAP1 PUSH2 0x15F JUMP JUMPDEST PUSH2 0xCA JUMP JUMPDEST PUSH1 0x40 MLOAD PUSH2 0x8B SWAP2 SWAP1 PUSH2 0x113 JUMP JUMPDEST PUSH1 0x40 MLOAD DUP1 SWAP2 SUB SWAP1 RETURN JUMPDEST PUSH2 0xAE PUSH1 0x4 DUP1 CALLDATASIZE SUB DUP2 ADD SWAP1 PUSH2 0xA9 SWAP2 SWAP1 PUSH2 0x18C JUMP JUMPDEST PUSH2 0xD8 JUMP JUMPDEST PUSH1 0x40 MLOAD PUSH2 0xBB SWAP2 SWAP1 PUSH2 0x113 JUMP JUMPDEST PUSH1 0x40 MLOAD DUP1 SWAP2 SUB SWAP1 RETURN JUMPDEST PUSH1 0x0 SLOAD DUP2 JUMP JUMPDEST PUSH1 0x0 DUP2 PUSH1 0x0 DUP2 SWAP1 SSTORE POP SWAP2 SWAP1 POP JUMP JUMPDEST PUSH1 0x0 DUP2 DUP4 DUP6 PUSH2 0xE7 SWAP2 SWAP1 PUSH2 0x20E JUMP JUMPDEST PUSH2 0xF1 SWAP2 SWAP1 PUSH2 0x20E JUMP JUMPDEST SWAP1 POP SWAP4 SWAP3 POP POP POP JUMP JUMPDEST PUSH1 0x0 DUP2 SWAP1 POP SWAP2 SWAP1 POP JUMP JUMPDEST PUSH2 0x10D DUP2 PUSH2 0xFA JUMP JUMPDEST DUP3 MSTORE POP POP JUMP JUMPDEST PUSH1 0x0 PUSH1 0x20 DUP3 ADD SWAP1 POP PUSH2 0x128 PUSH1 0x0 DUP4 ADD DUP5 PUSH2 0x104 JUMP JUMPDEST SWAP3 SWAP2 POP POP JUMP JUMPDEST PUSH1 0x0 DUP1 REVERT JUMPDEST PUSH2 0x13C DUP2 PUSH2 0xFA JUMP JUMPDEST DUP2 EQ PUSH2 0x147 JUMPI PUSH1 0x0 DUP1 REVERT JUMPDEST POP JUMP JUMPDEST PUSH1 0x0 DUP2 CALLDATALOAD SWAP1 POP PUSH2 0x159 DUP2 PUSH2 0x133 JUMP JUMPDEST SWAP3 SWAP2 POP POP JUMP JUMPDEST PUSH1 0x0 PUSH1 0x20 DUP3 DUP5 SUB SLT ISZERO PUSH2 0x175 JUMPI PUSH2 0x174 PUSH2 0x12E JUMP JUMPDEST JUMPDEST PUSH1 0x0 PUSH2 0x183 DUP5 DUP3 DUP6 ADD PUSH2 0x14A JUMP JUMPDEST SWAP2 POP POP SWAP3 SWAP2 POP POP JUMP JUMPDEST PUSH1 0x0 DUP1 PUSH1 0x0 PUSH1 0x60 DUP5 DUP7 SUB SLT ISZERO PUSH2 0x1A5 JUMPI PUSH2 0x1A4 PUSH2 0x12E JUMP JUMPDEST JUMPDEST PUSH1 0x0 PUSH2 0x1B3 DUP7 DUP3 DUP8 ADD PUSH2 0x14A JUMP JUMPDEST SWAP4 POP POP PUSH1 0x20 PUSH2 0x1C4 DUP7 DUP3 DUP8 ADD PUSH2 0x14A JUMP JUMPDEST SWAP3 POP POP PUSH1 0x40 PUSH2 0x1D5 DUP7 DUP3 DUP8 ADD PUSH2 0x14A JUMP JUMPDEST SWAP2 POP POP SWAP3 POP SWAP3 POP SWAP3 JUMP JUMPDEST PUSH32 0x4E487B7100000000000000000000000000000000000000000000000000000000 PUSH1 0x0 MSTORE PUSH1 0x11 PUSH1 0x4 MSTORE PUSH1 0x24 PUSH1 0x0 REVERT JUMPDEST PUSH1 0x0 PUSH2 0x219 DUP3 PUSH2 0xFA JUMP JUMPDEST SWAP2 POP PUSH2 0x224 DUP4 PUSH2 0xFA JUMP JUMPDEST SWAP3 POP DUP3 DUP3 MUL PUSH2 0x232 DUP2 PUSH2 0xFA JUMP JUMPDEST SWAP2 POP DUP3 DUP3 DIV DUP5 EQ DUP4 ISZERO OR PUSH2 0x249 JUMPI PUSH2 0x248 PUSH2 0x1DF JUMP JUMPDEST JUMPDEST POP SWAP3 SWAP2 POP POP JUMP INVALID LOG2 PUSH5 0x6970667358 0x22 SLT KECCAK256 0x25 EXTCODECOPY 0xDE PUSH5 0x2A2A0EFCB2 MULMOD 0x2B STOP SELFDESTRUCT RETURNDATASIZE SHL OR PUSH21 0x2BA417117FFBAE0B14F5C09DC80D9B64736F6C6343 STOP ADDMOD SLT STOP CALLER "
				},
				"gasEstimates": {
					"creation": {
						"codeDepositCost": "129200",
						"executionCost": "177",
						"totalCost": "129377"
					},
					"external": {
						"a()": "2407",
						"change(uint256)": "infinite",
						"mul(uint256,uint256,uint256)": "infinite"
					}
				},
				"methodIdentifiers": {
					"a()": "0dbe671f",
					"change(uint256)": "75322e47",
					"mul(uint256,uint256,uint256)": "e91cac2d"
				}
			},
			"storageLayout": {
				"storage": [
					{
						"astId": 3,
						"contract": "contracts/230612/1.sol:A",
						"label": "a",
						"offset": 0,
						"slot": "0",
						"type": "t_uint256"
					}
				],
				"types": {
					"t_uint256": {
						"encoding": "inplace",
						"label": "uint256",
						"numberOfBytes": "32"
					}
				}
			},
			"userdoc": {
				"kind": "user",
				"methods": {},
				"version": 1
			}
		}
	}
}