{
	"data": {
		"bytecode": {
			"linkReferences": {},
			"object": "608060405234801561001057600080fd5b506107d7806100206000396000f3fe608060405234801561001057600080fd5b50600436106100365760003560e01c80637cc790e41461003b57806394b670b614610057575b600080fd5b6100556004803603810190610050919061033d565b610073565b005b610071600480360381019061006c919061033d565b6100d9565b005b600060405180604001604052808481526020018381525090806001815401808255809150506001900390600052602060002090600202016000909190919091506000820151816000015560208201518160010190816100d291906105b0565b5050505050565b6000604051806040016040528084815260200183815250908060018154018082558091505060019003906000526020600020906002020160009091909190915060008201518160000155602082015181600101908161013891906105b0565b5050507f8a4366c02f2b925f5a07787487355b7eb20fad7158739d15274fb2381379f2e6828260405161016c929190610705565b60405180910390a17f5c3f49245590fafa6e6b621caba9f6bb87c147b141799b23138e7b77e68621d16040516101a190610781565b60405180910390a15050565b6000604051905090565b600080fd5b600080fd5b6000819050919050565b6101d4816101c1565b81146101df57600080fd5b50565b6000813590506101f1816101cb565b92915050565b600080fd5b600080fd5b6000601f19601f8301169050919050565b7f4e487b7100000000000000000000000000000000000000000000000000000000600052604160045260246000fd5b61024a82610201565b810181811067ffffffffffffffff8211171561026957610268610212565b5b80604052505050565b600061027c6101ad565b90506102888282610241565b919050565b600067ffffffffffffffff8211156102a8576102a7610212565b5b6102b182610201565b9050602081019050919050565b82818337600083830152505050565b60006102e06102db8461028d565b610272565b9050828152602081018484840111156102fc576102fb6101fc565b5b6103078482856102be565b509392505050565b600082601f830112610324576103236101f7565b5b81356103348482602086016102cd565b91505092915050565b60008060408385031215610354576103536101b7565b5b6000610362858286016101e2565b925050602083013567ffffffffffffffff811115610383576103826101bc565b5b61038f8582860161030f565b9150509250929050565b600081519050919050565b7f4e487b7100000000000000000000000000000000000000000000000000000000600052602260045260246000fd5b600060028204905060018216806103eb57607f821691505b6020821081036103fe576103fd6103a4565b5b50919050565b60008190508160005260206000209050919050565b60006020601f8301049050919050565b600082821b905092915050565b6000600883026104667fffffffffffffffffffffffffffffffffffffffffffffffffffffffffffffffff82610429565b6104708683610429565b95508019841693508086168417925050509392505050565b6000819050919050565b60006104ad6104a86104a3846101c1565b610488565b6101c1565b9050919050565b6000819050919050565b6104c783610492565b6104db6104d3826104b4565b848454610436565b825550505050565b600090565b6104f06104e3565b6104fb8184846104be565b505050565b5b8181101561051f576105146000826104e8565b600181019050610501565b5050565b601f8211156105645761053581610404565b61053e84610419565b8101602085101561054d578190505b61056161055985610419565b830182610500565b50505b505050565b600082821c905092915050565b600061058760001984600802610569565b1980831691505092915050565b60006105a08383610576565b9150826002028217905092915050565b6105b982610399565b67ffffffffffffffff8111156105d2576105d1610212565b5b6105dc82546103d3565b6105e7828285610523565b600060209050601f83116001811461061a5760008415610608578287015190505b6106128582610594565b86555061067a565b601f19841661062886610404565b60005b828110156106505784890151825560018201915060208501945060208101905061062b565b8683101561066d5784890151610669601f891682610576565b8355505b6001600288020188555050505b505050505050565b61068b816101c1565b82525050565b600082825260208201905092915050565b60005b838110156106c05780820151818401526020810190506106a5565b60008484015250505050565b60006106d782610399565b6106e18185610691565b93506106f18185602086016106a2565b6106fa81610201565b840191505092915050565b600060408201905061071a6000830185610682565b818103602083015261072c81846106cc565b90509392505050565b7f4e65772055736572000000000000000000000000000000000000000000000000600082015250565b600061076b600883610691565b915061077682610735565b602082019050919050565b6000602082019050818103600083015261079a8161075e565b905091905056fea26469706673582212200ad6eac7902612e99377f112a45a28b54fc798468da095cb065ec83c48e8807764736f6c63430008120033",
			"opcodes": "PUSH1 0x80 PUSH1 0x40 MSTORE CALLVALUE DUP1 ISZERO PUSH2 0x10 JUMPI PUSH1 0x0 DUP1 REVERT JUMPDEST POP PUSH2 0x7D7 DUP1 PUSH2 0x20 PUSH1 0x0 CODECOPY PUSH1 0x0 RETURN INVALID PUSH1 0x80 PUSH1 0x40 MSTORE CALLVALUE DUP1 ISZERO PUSH2 0x10 JUMPI PUSH1 0x0 DUP1 REVERT JUMPDEST POP PUSH1 0x4 CALLDATASIZE LT PUSH2 0x36 JUMPI PUSH1 0x0 CALLDATALOAD PUSH1 0xE0 SHR DUP1 PUSH4 0x7CC790E4 EQ PUSH2 0x3B JUMPI DUP1 PUSH4 0x94B670B6 EQ PUSH2 0x57 JUMPI JUMPDEST PUSH1 0x0 DUP1 REVERT JUMPDEST PUSH2 0x55 PUSH1 0x4 DUP1 CALLDATASIZE SUB DUP2 ADD SWAP1 PUSH2 0x50 SWAP2 SWAP1 PUSH2 0x33D JUMP JUMPDEST PUSH2 0x73 JUMP JUMPDEST STOP JUMPDEST PUSH2 0x71 PUSH1 0x4 DUP1 CALLDATASIZE SUB DUP2 ADD SWAP1 PUSH2 0x6C SWAP2 SWAP1 PUSH2 0x33D JUMP JUMPDEST PUSH2 0xD9 JUMP JUMPDEST STOP JUMPDEST PUSH1 0x0 PUSH1 0x40 MLOAD DUP1 PUSH1 0x40 ADD PUSH1 0x40 MSTORE DUP1 DUP5 DUP2 MSTORE PUSH1 0x20 ADD DUP4 DUP2 MSTORE POP SWAP1 DUP1 PUSH1 0x1 DUP2 SLOAD ADD DUP1 DUP3 SSTORE DUP1 SWAP2 POP POP PUSH1 0x1 SWAP1 SUB SWAP1 PUSH1 0x0 MSTORE PUSH1 0x20 PUSH1 0x0 KECCAK256 SWAP1 PUSH1 0x2 MUL ADD PUSH1 0x0 SWAP1 SWAP2 SWAP1 SWAP2 SWAP1 SWAP2 POP PUSH1 0x0 DUP3 ADD MLOAD DUP2 PUSH1 0x0 ADD SSTORE PUSH1 0x20 DUP3 ADD MLOAD DUP2 PUSH1 0x1 ADD SWAP1 DUP2 PUSH2 0xD2 SWAP2 SWAP1 PUSH2 0x5B0 JUMP JUMPDEST POP POP POP POP POP JUMP JUMPDEST PUSH1 0x0 PUSH1 0x40 MLOAD DUP1 PUSH1 0x40 ADD PUSH1 0x40 MSTORE DUP1 DUP5 DUP2 MSTORE PUSH1 0x20 ADD DUP4 DUP2 MSTORE POP SWAP1 DUP1 PUSH1 0x1 DUP2 SLOAD ADD DUP1 DUP3 SSTORE DUP1 SWAP2 POP POP PUSH1 0x1 SWAP1 SUB SWAP1 PUSH1 0x0 MSTORE PUSH1 0x20 PUSH1 0x0 KECCAK256 SWAP1 PUSH1 0x2 MUL ADD PUSH1 0x0 SWAP1 SWAP2 SWAP1 SWAP2 SWAP1 SWAP2 POP PUSH1 0x0 DUP3 ADD MLOAD DUP2 PUSH1 0x0 ADD SSTORE PUSH1 0x20 DUP3 ADD MLOAD DUP2 PUSH1 0x1 ADD SWAP1 DUP2 PUSH2 0x138 SWAP2 SWAP1 PUSH2 0x5B0 JUMP JUMPDEST POP POP POP PUSH32 0x8A4366C02F2B925F5A07787487355B7EB20FAD7158739D15274FB2381379F2E6 DUP3 DUP3 PUSH1 0x40 MLOAD PUSH2 0x16C SWAP3 SWAP2 SWAP1 PUSH2 0x705 JUMP JUMPDEST PUSH1 0x40 MLOAD DUP1 SWAP2 SUB SWAP1 LOG1 PUSH32 0x5C3F49245590FAFA6E6B621CABA9F6BB87C147B141799B23138E7B77E68621D1 PUSH1 0x40 MLOAD PUSH2 0x1A1 SWAP1 PUSH2 0x781 JUMP JUMPDEST PUSH1 0x40 MLOAD DUP1 SWAP2 SUB SWAP1 LOG1 POP POP JUMP JUMPDEST PUSH1 0x0 PUSH1 0x40 MLOAD SWAP1 POP SWAP1 JUMP JUMPDEST PUSH1 0x0 DUP1 REVERT JUMPDEST PUSH1 0x0 DUP1 REVERT JUMPDEST PUSH1 0x0 DUP2 SWAP1 POP SWAP2 SWAP1 POP JUMP JUMPDEST PUSH2 0x1D4 DUP2 PUSH2 0x1C1 JUMP JUMPDEST DUP2 EQ PUSH2 0x1DF JUMPI PUSH1 0x0 DUP1 REVERT JUMPDEST POP JUMP JUMPDEST PUSH1 0x0 DUP2 CALLDATALOAD SWAP1 POP PUSH2 0x1F1 DUP2 PUSH2 0x1CB JUMP JUMPDEST SWAP3 SWAP2 POP POP JUMP JUMPDEST PUSH1 0x0 DUP1 REVERT JUMPDEST PUSH1 0x0 DUP1 REVERT JUMPDEST PUSH1 0x0 PUSH1 0x1F NOT PUSH1 0x1F DUP4 ADD AND SWAP1 POP SWAP2 SWAP1 POP JUMP JUMPDEST PUSH32 0x4E487B7100000000000000000000000000000000000000000000000000000000 PUSH1 0x0 MSTORE PUSH1 0x41 PUSH1 0x4 MSTORE PUSH1 0x24 PUSH1 0x0 REVERT JUMPDEST PUSH2 0x24A DUP3 PUSH2 0x201 JUMP JUMPDEST DUP2 ADD DUP2 DUP2 LT PUSH8 0xFFFFFFFFFFFFFFFF DUP3 GT OR ISZERO PUSH2 0x269 JUMPI PUSH2 0x268 PUSH2 0x212 JUMP JUMPDEST JUMPDEST DUP1 PUSH1 0x40 MSTORE POP POP POP JUMP JUMPDEST PUSH1 0x0 PUSH2 0x27C PUSH2 0x1AD JUMP JUMPDEST SWAP1 POP PUSH2 0x288 DUP3 DUP3 PUSH2 0x241 JUMP JUMPDEST SWAP2 SWAP1 POP JUMP JUMPDEST PUSH1 0x0 PUSH8 0xFFFFFFFFFFFFFFFF DUP3 GT ISZERO PUSH2 0x2A8 JUMPI PUSH2 0x2A7 PUSH2 0x212 JUMP JUMPDEST JUMPDEST PUSH2 0x2B1 DUP3 PUSH2 0x201 JUMP JUMPDEST SWAP1 POP PUSH1 0x20 DUP2 ADD SWAP1 POP SWAP2 SWAP1 POP JUMP JUMPDEST DUP3 DUP2 DUP4 CALLDATACOPY PUSH1 0x0 DUP4 DUP4 ADD MSTORE POP POP POP JUMP JUMPDEST PUSH1 0x0 PUSH2 0x2E0 PUSH2 0x2DB DUP5 PUSH2 0x28D JUMP JUMPDEST PUSH2 0x272 JUMP JUMPDEST SWAP1 POP DUP3 DUP2 MSTORE PUSH1 0x20 DUP2 ADD DUP5 DUP5 DUP5 ADD GT ISZERO PUSH2 0x2FC JUMPI PUSH2 0x2FB PUSH2 0x1FC JUMP JUMPDEST JUMPDEST PUSH2 0x307 DUP5 DUP3 DUP6 PUSH2 0x2BE JUMP JUMPDEST POP SWAP4 SWAP3 POP POP POP JUMP JUMPDEST PUSH1 0x0 DUP3 PUSH1 0x1F DUP4 ADD SLT PUSH2 0x324 JUMPI PUSH2 0x323 PUSH2 0x1F7 JUMP JUMPDEST JUMPDEST DUP2 CALLDATALOAD PUSH2 0x334 DUP5 DUP3 PUSH1 0x20 DUP7 ADD PUSH2 0x2CD JUMP JUMPDEST SWAP2 POP POP SWAP3 SWAP2 POP POP JUMP JUMPDEST PUSH1 0x0 DUP1 PUSH1 0x40 DUP4 DUP6 SUB SLT ISZERO PUSH2 0x354 JUMPI PUSH2 0x353 PUSH2 0x1B7 JUMP JUMPDEST JUMPDEST PUSH1 0x0 PUSH2 0x362 DUP6 DUP3 DUP7 ADD PUSH2 0x1E2 JUMP JUMPDEST SWAP3 POP POP PUSH1 0x20 DUP4 ADD CALLDATALOAD PUSH8 0xFFFFFFFFFFFFFFFF DUP2 GT ISZERO PUSH2 0x383 JUMPI PUSH2 0x382 PUSH2 0x1BC JUMP JUMPDEST JUMPDEST PUSH2 0x38F DUP6 DUP3 DUP7 ADD PUSH2 0x30F JUMP JUMPDEST SWAP2 POP POP SWAP3 POP SWAP3 SWAP1 POP JUMP JUMPDEST PUSH1 0x0 DUP2 MLOAD SWAP1 POP SWAP2 SWAP1 POP JUMP JUMPDEST PUSH32 0x4E487B7100000000000000000000000000000000000000000000000000000000 PUSH1 0x0 MSTORE PUSH1 0x22 PUSH1 0x4 MSTORE PUSH1 0x24 PUSH1 0x0 REVERT JUMPDEST PUSH1 0x0 PUSH1 0x2 DUP3 DIV SWAP1 POP PUSH1 0x1 DUP3 AND DUP1 PUSH2 0x3EB JUMPI PUSH1 0x7F DUP3 AND SWAP2 POP JUMPDEST PUSH1 0x20 DUP3 LT DUP2 SUB PUSH2 0x3FE JUMPI PUSH2 0x3FD PUSH2 0x3A4 JUMP JUMPDEST JUMPDEST POP SWAP2 SWAP1 POP JUMP JUMPDEST PUSH1 0x0 DUP2 SWAP1 POP DUP2 PUSH1 0x0 MSTORE PUSH1 0x20 PUSH1 0x0 KECCAK256 SWAP1 POP SWAP2 SWAP1 POP JUMP JUMPDEST PUSH1 0x0 PUSH1 0x20 PUSH1 0x1F DUP4 ADD DIV SWAP1 POP SWAP2 SWAP1 POP JUMP JUMPDEST PUSH1 0x0 DUP3 DUP3 SHL SWAP1 POP SWAP3 SWAP2 POP POP JUMP JUMPDEST PUSH1 0x0 PUSH1 0x8 DUP4 MUL PUSH2 0x466 PUSH32 0xFFFFFFFFFFFFFFFFFFFFFFFFFFFFFFFFFFFFFFFFFFFFFFFFFFFFFFFFFFFFFFFF DUP3 PUSH2 0x429 JUMP JUMPDEST PUSH2 0x470 DUP7 DUP4 PUSH2 0x429 JUMP JUMPDEST SWAP6 POP DUP1 NOT DUP5 AND SWAP4 POP DUP1 DUP7 AND DUP5 OR SWAP3 POP POP POP SWAP4 SWAP3 POP POP POP JUMP JUMPDEST PUSH1 0x0 DUP2 SWAP1 POP SWAP2 SWAP1 POP JUMP JUMPDEST PUSH1 0x0 PUSH2 0x4AD PUSH2 0x4A8 PUSH2 0x4A3 DUP5 PUSH2 0x1C1 JUMP JUMPDEST PUSH2 0x488 JUMP JUMPDEST PUSH2 0x1C1 JUMP JUMPDEST SWAP1 POP SWAP2 SWAP1 POP JUMP JUMPDEST PUSH1 0x0 DUP2 SWAP1 POP SWAP2 SWAP1 POP JUMP JUMPDEST PUSH2 0x4C7 DUP4 PUSH2 0x492 JUMP JUMPDEST PUSH2 0x4DB PUSH2 0x4D3 DUP3 PUSH2 0x4B4 JUMP JUMPDEST DUP5 DUP5 SLOAD PUSH2 0x436 JUMP JUMPDEST DUP3 SSTORE POP POP POP POP JUMP JUMPDEST PUSH1 0x0 SWAP1 JUMP JUMPDEST PUSH2 0x4F0 PUSH2 0x4E3 JUMP JUMPDEST PUSH2 0x4FB DUP2 DUP5 DUP5 PUSH2 0x4BE JUMP JUMPDEST POP POP POP JUMP JUMPDEST JUMPDEST DUP2 DUP2 LT ISZERO PUSH2 0x51F JUMPI PUSH2 0x514 PUSH1 0x0 DUP3 PUSH2 0x4E8 JUMP JUMPDEST PUSH1 0x1 DUP2 ADD SWAP1 POP PUSH2 0x501 JUMP JUMPDEST POP POP JUMP JUMPDEST PUSH1 0x1F DUP3 GT ISZERO PUSH2 0x564 JUMPI PUSH2 0x535 DUP2 PUSH2 0x404 JUMP JUMPDEST PUSH2 0x53E DUP5 PUSH2 0x419 JUMP JUMPDEST DUP2 ADD PUSH1 0x20 DUP6 LT ISZERO PUSH2 0x54D JUMPI DUP2 SWAP1 POP JUMPDEST PUSH2 0x561 PUSH2 0x559 DUP6 PUSH2 0x419 JUMP JUMPDEST DUP4 ADD DUP3 PUSH2 0x500 JUMP JUMPDEST POP POP JUMPDEST POP POP POP JUMP JUMPDEST PUSH1 0x0 DUP3 DUP3 SHR SWAP1 POP SWAP3 SWAP2 POP POP JUMP JUMPDEST PUSH1 0x0 PUSH2 0x587 PUSH1 0x0 NOT DUP5 PUSH1 0x8 MUL PUSH2 0x569 JUMP JUMPDEST NOT DUP1 DUP4 AND SWAP2 POP POP SWAP3 SWAP2 POP POP JUMP JUMPDEST PUSH1 0x0 PUSH2 0x5A0 DUP4 DUP4 PUSH2 0x576 JUMP JUMPDEST SWAP2 POP DUP3 PUSH1 0x2 MUL DUP3 OR SWAP1 POP SWAP3 SWAP2 POP POP JUMP JUMPDEST PUSH2 0x5B9 DUP3 PUSH2 0x399 JUMP JUMPDEST PUSH8 0xFFFFFFFFFFFFFFFF DUP2 GT ISZERO PUSH2 0x5D2 JUMPI PUSH2 0x5D1 PUSH2 0x212 JUMP JUMPDEST JUMPDEST PUSH2 0x5DC DUP3 SLOAD PUSH2 0x3D3 JUMP JUMPDEST PUSH2 0x5E7 DUP3 DUP3 DUP6 PUSH2 0x523 JUMP JUMPDEST PUSH1 0x0 PUSH1 0x20 SWAP1 POP PUSH1 0x1F DUP4 GT PUSH1 0x1 DUP2 EQ PUSH2 0x61A JUMPI PUSH1 0x0 DUP5 ISZERO PUSH2 0x608 JUMPI DUP3 DUP8 ADD MLOAD SWAP1 POP JUMPDEST PUSH2 0x612 DUP6 DUP3 PUSH2 0x594 JUMP JUMPDEST DUP7 SSTORE POP PUSH2 0x67A JUMP JUMPDEST PUSH1 0x1F NOT DUP5 AND PUSH2 0x628 DUP7 PUSH2 0x404 JUMP JUMPDEST PUSH1 0x0 JUMPDEST DUP3 DUP2 LT ISZERO PUSH2 0x650 JUMPI DUP5 DUP10 ADD MLOAD DUP3 SSTORE PUSH1 0x1 DUP3 ADD SWAP2 POP PUSH1 0x20 DUP6 ADD SWAP5 POP PUSH1 0x20 DUP2 ADD SWAP1 POP PUSH2 0x62B JUMP JUMPDEST DUP7 DUP4 LT ISZERO PUSH2 0x66D JUMPI DUP5 DUP10 ADD MLOAD PUSH2 0x669 PUSH1 0x1F DUP10 AND DUP3 PUSH2 0x576 JUMP JUMPDEST DUP4 SSTORE POP JUMPDEST PUSH1 0x1 PUSH1 0x2 DUP9 MUL ADD DUP9 SSTORE POP POP POP JUMPDEST POP POP POP POP POP POP JUMP JUMPDEST PUSH2 0x68B DUP2 PUSH2 0x1C1 JUMP JUMPDEST DUP3 MSTORE POP POP JUMP JUMPDEST PUSH1 0x0 DUP3 DUP3 MSTORE PUSH1 0x20 DUP3 ADD SWAP1 POP SWAP3 SWAP2 POP POP JUMP JUMPDEST PUSH1 0x0 JUMPDEST DUP4 DUP2 LT ISZERO PUSH2 0x6C0 JUMPI DUP1 DUP3 ADD MLOAD DUP2 DUP5 ADD MSTORE PUSH1 0x20 DUP2 ADD SWAP1 POP PUSH2 0x6A5 JUMP JUMPDEST PUSH1 0x0 DUP5 DUP5 ADD MSTORE POP POP POP POP JUMP JUMPDEST PUSH1 0x0 PUSH2 0x6D7 DUP3 PUSH2 0x399 JUMP JUMPDEST PUSH2 0x6E1 DUP2 DUP6 PUSH2 0x691 JUMP JUMPDEST SWAP4 POP PUSH2 0x6F1 DUP2 DUP6 PUSH1 0x20 DUP7 ADD PUSH2 0x6A2 JUMP JUMPDEST PUSH2 0x6FA DUP2 PUSH2 0x201 JUMP JUMPDEST DUP5 ADD SWAP2 POP POP SWAP3 SWAP2 POP POP JUMP JUMPDEST PUSH1 0x0 PUSH1 0x40 DUP3 ADD SWAP1 POP PUSH2 0x71A PUSH1 0x0 DUP4 ADD DUP6 PUSH2 0x682 JUMP JUMPDEST DUP2 DUP2 SUB PUSH1 0x20 DUP4 ADD MSTORE PUSH2 0x72C DUP2 DUP5 PUSH2 0x6CC JUMP JUMPDEST SWAP1 POP SWAP4 SWAP3 POP POP POP JUMP JUMPDEST PUSH32 0x4E65772055736572000000000000000000000000000000000000000000000000 PUSH1 0x0 DUP3 ADD MSTORE POP JUMP JUMPDEST PUSH1 0x0 PUSH2 0x76B PUSH1 0x8 DUP4 PUSH2 0x691 JUMP JUMPDEST SWAP2 POP PUSH2 0x776 DUP3 PUSH2 0x735 JUMP JUMPDEST PUSH1 0x20 DUP3 ADD SWAP1 POP SWAP2 SWAP1 POP JUMP JUMPDEST PUSH1 0x0 PUSH1 0x20 DUP3 ADD SWAP1 POP DUP2 DUP2 SUB PUSH1 0x0 DUP4 ADD MSTORE PUSH2 0x79A DUP2 PUSH2 0x75E JUMP JUMPDEST SWAP1 POP SWAP2 SWAP1 POP JUMP INVALID LOG2 PUSH5 0x6970667358 0x22 SLT KECCAK256 EXP 0xD6 0xEA 0xC7 SWAP1 0x26 SLT 0xE9 SWAP4 PUSH24 0xF112A45A28B54FC798468DA095CB065EC83C48E880776473 PUSH16 0x6C634300081200330000000000000000 "
		},
		"gasEstimates": {
			"creation": {
				"codeDepositCost": "401400",
				"executionCost": "436",
				"totalCost": "401836"
			},
			"external": {
				"setUser(uint256,string)": "infinite",
				"setUser2(uint256,string)": "infinite"
			}
		},
		"methodIdentifiers": {
			"setUser(uint256,string)": "94b670b6",
			"setUser2(uint256,string)": "7cc790e4"
		}
	},
	"abi": [
		{
			"anonymous": false,
			"inputs": [
				{
					"indexed": false,
					"internalType": "uint256",
					"name": "_number",
					"type": "uint256"
				},
				{
					"indexed": false,
					"internalType": "string",
					"name": "_name",
					"type": "string"
				}
			],
			"name": "newUser",
			"type": "event"
		},
		{
			"anonymous": false,
			"inputs": [
				{
					"indexed": false,
					"internalType": "string",
					"name": "_message",
					"type": "string"
				}
			],
			"name": "userPush",
			"type": "event"
		},
		{
			"inputs": [
				{
					"internalType": "uint256",
					"name": "_number",
					"type": "uint256"
				},
				{
					"internalType": "string",
					"name": "_name",
					"type": "string"
				}
			],
			"name": "setUser",
			"outputs": [],
			"stateMutability": "nonpayable",
			"type": "function"
		},
		{
			"inputs": [
				{
					"internalType": "uint256",
					"name": "_number",
					"type": "uint256"
				},
				{
					"internalType": "string",
					"name": "_name",
					"type": "string"
				}
			],
			"name": "setUser2",
			"outputs": [],
			"stateMutability": "nonpayable",
			"type": "function"
		}
	]
}