{
	"data": {
		"bytecode": {
			"linkReferences": {},
			"object": "608060405234801561001057600080fd5b50610652806100206000396000f3fe608060405234801561001057600080fd5b506004361061004c5760003560e01c8063771602f714610051578063a391c15b14610081578063b67d77c5146100b1578063c8a4ac9c146100e1575b600080fd5b61006b60048036038101906100669190610280565b610111565b60405161007891906102cf565b60405180910390f35b61009b60048036038101906100969190610280565b61015e565b6040516100a891906102cf565b60405180910390f35b6100cb60048036038101906100c69190610280565b6101ab565b6040516100d891906102cf565b60405180910390f35b6100fb60048036038101906100f69190610280565b6101f8565b60405161010891906102cf565b60405180910390f35b6000818361011f9190610319565b90507fb6b5cc8d796f972ea923b4b1823e1622abb9692795942bf5bf82718b70826a1d8160405161015091906103aa565b60405180910390a192915050565b6000818361016c9190610407565b90507f4c19187a63ce550fe54c7d210208dabbf9abb75f086030facecf7a29e4ae08678160405161019d9190610484565b60405180910390a192915050565b600081836101b991906104b2565b90507f2be97a214521f2a9b3174fdcbe7d8581e8300b0c6d978940c18896bf3be80508816040516101ea9190610532565b60405180910390a192915050565b600081836102069190610560565b90507f5bf6cd8e02871ff486e006918c9d086bcdcab4204fb48d98dd2d0534585a507e8160405161023791906105ee565b60405180910390a192915050565b600080fd5b6000819050919050565b61025d8161024a565b811461026857600080fd5b50565b60008135905061027a81610254565b92915050565b6000806040838503121561029757610296610245565b5b60006102a58582860161026b565b92505060206102b68582860161026b565b9150509250929050565b6102c98161024a565b82525050565b60006020820190506102e460008301846102c0565b92915050565b7f4e487b7100000000000000000000000000000000000000000000000000000000600052601160045260246000fd5b60006103248261024a565b915061032f8361024a565b9250828201905080821115610347576103466102ea565b5b92915050565b600082825260208201905092915050565b7f506c757300000000000000000000000000000000000000000000000000000000600082015250565b600061039460048361034d565b915061039f8261035e565b602082019050919050565b600060408201905081810360008301526103c381610387565b90506103d260208301846102c0565b92915050565b7f4e487b7100000000000000000000000000000000000000000000000000000000600052601260045260246000fd5b60006104128261024a565b915061041d8361024a565b92508261042d5761042c6103d8565b5b828204905092915050565b7f4469766964656400000000000000000000000000000000000000000000000000600082015250565b600061046e60078361034d565b915061047982610438565b602082019050919050565b6000604082019050818103600083015261049d81610461565b90506104ac60208301846102c0565b92915050565b60006104bd8261024a565b91506104c88361024a565b92508282039050818111156104e0576104df6102ea565b5b92915050565b7f4d696e7573000000000000000000000000000000000000000000000000000000600082015250565b600061051c60058361034d565b9150610527826104e6565b602082019050919050565b6000604082019050818103600083015261054b8161050f565b905061055a60208301846102c0565b92915050565b600061056b8261024a565b91506105768361024a565b92508282026105848161024a565b9150828204841483151761059b5761059a6102ea565b5b5092915050565b7f54696d6573000000000000000000000000000000000000000000000000000000600082015250565b60006105d860058361034d565b91506105e3826105a2565b602082019050919050565b60006040820190508181036000830152610607816105cb565b905061061660208301846102c0565b9291505056fea264697066735822122056244ec7a33182dc0d6ce17694203244bbb5993da63f4fe9863df16b490d69b464736f6c63430008120033",
			"opcodes": "PUSH1 0x80 PUSH1 0x40 MSTORE CALLVALUE DUP1 ISZERO PUSH2 0x10 JUMPI PUSH1 0x0 DUP1 REVERT JUMPDEST POP PUSH2 0x652 DUP1 PUSH2 0x20 PUSH1 0x0 CODECOPY PUSH1 0x0 RETURN INVALID PUSH1 0x80 PUSH1 0x40 MSTORE CALLVALUE DUP1 ISZERO PUSH2 0x10 JUMPI PUSH1 0x0 DUP1 REVERT JUMPDEST POP PUSH1 0x4 CALLDATASIZE LT PUSH2 0x4C JUMPI PUSH1 0x0 CALLDATALOAD PUSH1 0xE0 SHR DUP1 PUSH4 0x771602F7 EQ PUSH2 0x51 JUMPI DUP1 PUSH4 0xA391C15B EQ PUSH2 0x81 JUMPI DUP1 PUSH4 0xB67D77C5 EQ PUSH2 0xB1 JUMPI DUP1 PUSH4 0xC8A4AC9C EQ PUSH2 0xE1 JUMPI JUMPDEST PUSH1 0x0 DUP1 REVERT JUMPDEST PUSH2 0x6B PUSH1 0x4 DUP1 CALLDATASIZE SUB DUP2 ADD SWAP1 PUSH2 0x66 SWAP2 SWAP1 PUSH2 0x280 JUMP JUMPDEST PUSH2 0x111 JUMP JUMPDEST PUSH1 0x40 MLOAD PUSH2 0x78 SWAP2 SWAP1 PUSH2 0x2CF JUMP JUMPDEST PUSH1 0x40 MLOAD DUP1 SWAP2 SUB SWAP1 RETURN JUMPDEST PUSH2 0x9B PUSH1 0x4 DUP1 CALLDATASIZE SUB DUP2 ADD SWAP1 PUSH2 0x96 SWAP2 SWAP1 PUSH2 0x280 JUMP JUMPDEST PUSH2 0x15E JUMP JUMPDEST PUSH1 0x40 MLOAD PUSH2 0xA8 SWAP2 SWAP1 PUSH2 0x2CF JUMP JUMPDEST PUSH1 0x40 MLOAD DUP1 SWAP2 SUB SWAP1 RETURN JUMPDEST PUSH2 0xCB PUSH1 0x4 DUP1 CALLDATASIZE SUB DUP2 ADD SWAP1 PUSH2 0xC6 SWAP2 SWAP1 PUSH2 0x280 JUMP JUMPDEST PUSH2 0x1AB JUMP JUMPDEST PUSH1 0x40 MLOAD PUSH2 0xD8 SWAP2 SWAP1 PUSH2 0x2CF JUMP JUMPDEST PUSH1 0x40 MLOAD DUP1 SWAP2 SUB SWAP1 RETURN JUMPDEST PUSH2 0xFB PUSH1 0x4 DUP1 CALLDATASIZE SUB DUP2 ADD SWAP1 PUSH2 0xF6 SWAP2 SWAP1 PUSH2 0x280 JUMP JUMPDEST PUSH2 0x1F8 JUMP JUMPDEST PUSH1 0x40 MLOAD PUSH2 0x108 SWAP2 SWAP1 PUSH2 0x2CF JUMP JUMPDEST PUSH1 0x40 MLOAD DUP1 SWAP2 SUB SWAP1 RETURN JUMPDEST PUSH1 0x0 DUP2 DUP4 PUSH2 0x11F SWAP2 SWAP1 PUSH2 0x319 JUMP JUMPDEST SWAP1 POP PUSH32 0xB6B5CC8D796F972EA923B4B1823E1622ABB9692795942BF5BF82718B70826A1D DUP2 PUSH1 0x40 MLOAD PUSH2 0x150 SWAP2 SWAP1 PUSH2 0x3AA JUMP JUMPDEST PUSH1 0x40 MLOAD DUP1 SWAP2 SUB SWAP1 LOG1 SWAP3 SWAP2 POP POP JUMP JUMPDEST PUSH1 0x0 DUP2 DUP4 PUSH2 0x16C SWAP2 SWAP1 PUSH2 0x407 JUMP JUMPDEST SWAP1 POP PUSH32 0x4C19187A63CE550FE54C7D210208DABBF9ABB75F086030FACECF7A29E4AE0867 DUP2 PUSH1 0x40 MLOAD PUSH2 0x19D SWAP2 SWAP1 PUSH2 0x484 JUMP JUMPDEST PUSH1 0x40 MLOAD DUP1 SWAP2 SUB SWAP1 LOG1 SWAP3 SWAP2 POP POP JUMP JUMPDEST PUSH1 0x0 DUP2 DUP4 PUSH2 0x1B9 SWAP2 SWAP1 PUSH2 0x4B2 JUMP JUMPDEST SWAP1 POP PUSH32 0x2BE97A214521F2A9B3174FDCBE7D8581E8300B0C6D978940C18896BF3BE80508 DUP2 PUSH1 0x40 MLOAD PUSH2 0x1EA SWAP2 SWAP1 PUSH2 0x532 JUMP JUMPDEST PUSH1 0x40 MLOAD DUP1 SWAP2 SUB SWAP1 LOG1 SWAP3 SWAP2 POP POP JUMP JUMPDEST PUSH1 0x0 DUP2 DUP4 PUSH2 0x206 SWAP2 SWAP1 PUSH2 0x560 JUMP JUMPDEST SWAP1 POP PUSH32 0x5BF6CD8E02871FF486E006918C9D086BCDCAB4204FB48D98DD2D0534585A507E DUP2 PUSH1 0x40 MLOAD PUSH2 0x237 SWAP2 SWAP1 PUSH2 0x5EE JUMP JUMPDEST PUSH1 0x40 MLOAD DUP1 SWAP2 SUB SWAP1 LOG1 SWAP3 SWAP2 POP POP JUMP JUMPDEST PUSH1 0x0 DUP1 REVERT JUMPDEST PUSH1 0x0 DUP2 SWAP1 POP SWAP2 SWAP1 POP JUMP JUMPDEST PUSH2 0x25D DUP2 PUSH2 0x24A JUMP JUMPDEST DUP2 EQ PUSH2 0x268 JUMPI PUSH1 0x0 DUP1 REVERT JUMPDEST POP JUMP JUMPDEST PUSH1 0x0 DUP2 CALLDATALOAD SWAP1 POP PUSH2 0x27A DUP2 PUSH2 0x254 JUMP JUMPDEST SWAP3 SWAP2 POP POP JUMP JUMPDEST PUSH1 0x0 DUP1 PUSH1 0x40 DUP4 DUP6 SUB SLT ISZERO PUSH2 0x297 JUMPI PUSH2 0x296 PUSH2 0x245 JUMP JUMPDEST JUMPDEST PUSH1 0x0 PUSH2 0x2A5 DUP6 DUP3 DUP7 ADD PUSH2 0x26B JUMP JUMPDEST SWAP3 POP POP PUSH1 0x20 PUSH2 0x2B6 DUP6 DUP3 DUP7 ADD PUSH2 0x26B JUMP JUMPDEST SWAP2 POP POP SWAP3 POP SWAP3 SWAP1 POP JUMP JUMPDEST PUSH2 0x2C9 DUP2 PUSH2 0x24A JUMP JUMPDEST DUP3 MSTORE POP POP JUMP JUMPDEST PUSH1 0x0 PUSH1 0x20 DUP3 ADD SWAP1 POP PUSH2 0x2E4 PUSH1 0x0 DUP4 ADD DUP5 PUSH2 0x2C0 JUMP JUMPDEST SWAP3 SWAP2 POP POP JUMP JUMPDEST PUSH32 0x4E487B7100000000000000000000000000000000000000000000000000000000 PUSH1 0x0 MSTORE PUSH1 0x11 PUSH1 0x4 MSTORE PUSH1 0x24 PUSH1 0x0 REVERT JUMPDEST PUSH1 0x0 PUSH2 0x324 DUP3 PUSH2 0x24A JUMP JUMPDEST SWAP2 POP PUSH2 0x32F DUP4 PUSH2 0x24A JUMP JUMPDEST SWAP3 POP DUP3 DUP3 ADD SWAP1 POP DUP1 DUP3 GT ISZERO PUSH2 0x347 JUMPI PUSH2 0x346 PUSH2 0x2EA JUMP JUMPDEST JUMPDEST SWAP3 SWAP2 POP POP JUMP JUMPDEST PUSH1 0x0 DUP3 DUP3 MSTORE PUSH1 0x20 DUP3 ADD SWAP1 POP SWAP3 SWAP2 POP POP JUMP JUMPDEST PUSH32 0x506C757300000000000000000000000000000000000000000000000000000000 PUSH1 0x0 DUP3 ADD MSTORE POP JUMP JUMPDEST PUSH1 0x0 PUSH2 0x394 PUSH1 0x4 DUP4 PUSH2 0x34D JUMP JUMPDEST SWAP2 POP PUSH2 0x39F DUP3 PUSH2 0x35E JUMP JUMPDEST PUSH1 0x20 DUP3 ADD SWAP1 POP SWAP2 SWAP1 POP JUMP JUMPDEST PUSH1 0x0 PUSH1 0x40 DUP3 ADD SWAP1 POP DUP2 DUP2 SUB PUSH1 0x0 DUP4 ADD MSTORE PUSH2 0x3C3 DUP2 PUSH2 0x387 JUMP JUMPDEST SWAP1 POP PUSH2 0x3D2 PUSH1 0x20 DUP4 ADD DUP5 PUSH2 0x2C0 JUMP JUMPDEST SWAP3 SWAP2 POP POP JUMP JUMPDEST PUSH32 0x4E487B7100000000000000000000000000000000000000000000000000000000 PUSH1 0x0 MSTORE PUSH1 0x12 PUSH1 0x4 MSTORE PUSH1 0x24 PUSH1 0x0 REVERT JUMPDEST PUSH1 0x0 PUSH2 0x412 DUP3 PUSH2 0x24A JUMP JUMPDEST SWAP2 POP PUSH2 0x41D DUP4 PUSH2 0x24A JUMP JUMPDEST SWAP3 POP DUP3 PUSH2 0x42D JUMPI PUSH2 0x42C PUSH2 0x3D8 JUMP JUMPDEST JUMPDEST DUP3 DUP3 DIV SWAP1 POP SWAP3 SWAP2 POP POP JUMP JUMPDEST PUSH32 0x4469766964656400000000000000000000000000000000000000000000000000 PUSH1 0x0 DUP3 ADD MSTORE POP JUMP JUMPDEST PUSH1 0x0 PUSH2 0x46E PUSH1 0x7 DUP4 PUSH2 0x34D JUMP JUMPDEST SWAP2 POP PUSH2 0x479 DUP3 PUSH2 0x438 JUMP JUMPDEST PUSH1 0x20 DUP3 ADD SWAP1 POP SWAP2 SWAP1 POP JUMP JUMPDEST PUSH1 0x0 PUSH1 0x40 DUP3 ADD SWAP1 POP DUP2 DUP2 SUB PUSH1 0x0 DUP4 ADD MSTORE PUSH2 0x49D DUP2 PUSH2 0x461 JUMP JUMPDEST SWAP1 POP PUSH2 0x4AC PUSH1 0x20 DUP4 ADD DUP5 PUSH2 0x2C0 JUMP JUMPDEST SWAP3 SWAP2 POP POP JUMP JUMPDEST PUSH1 0x0 PUSH2 0x4BD DUP3 PUSH2 0x24A JUMP JUMPDEST SWAP2 POP PUSH2 0x4C8 DUP4 PUSH2 0x24A JUMP JUMPDEST SWAP3 POP DUP3 DUP3 SUB SWAP1 POP DUP2 DUP2 GT ISZERO PUSH2 0x4E0 JUMPI PUSH2 0x4DF PUSH2 0x2EA JUMP JUMPDEST JUMPDEST SWAP3 SWAP2 POP POP JUMP JUMPDEST PUSH32 0x4D696E7573000000000000000000000000000000000000000000000000000000 PUSH1 0x0 DUP3 ADD MSTORE POP JUMP JUMPDEST PUSH1 0x0 PUSH2 0x51C PUSH1 0x5 DUP4 PUSH2 0x34D JUMP JUMPDEST SWAP2 POP PUSH2 0x527 DUP3 PUSH2 0x4E6 JUMP JUMPDEST PUSH1 0x20 DUP3 ADD SWAP1 POP SWAP2 SWAP1 POP JUMP JUMPDEST PUSH1 0x0 PUSH1 0x40 DUP3 ADD SWAP1 POP DUP2 DUP2 SUB PUSH1 0x0 DUP4 ADD MSTORE PUSH2 0x54B DUP2 PUSH2 0x50F JUMP JUMPDEST SWAP1 POP PUSH2 0x55A PUSH1 0x20 DUP4 ADD DUP5 PUSH2 0x2C0 JUMP JUMPDEST SWAP3 SWAP2 POP POP JUMP JUMPDEST PUSH1 0x0 PUSH2 0x56B DUP3 PUSH2 0x24A JUMP JUMPDEST SWAP2 POP PUSH2 0x576 DUP4 PUSH2 0x24A JUMP JUMPDEST SWAP3 POP DUP3 DUP3 MUL PUSH2 0x584 DUP2 PUSH2 0x24A JUMP JUMPDEST SWAP2 POP DUP3 DUP3 DIV DUP5 EQ DUP4 ISZERO OR PUSH2 0x59B JUMPI PUSH2 0x59A PUSH2 0x2EA JUMP JUMPDEST JUMPDEST POP SWAP3 SWAP2 POP POP JUMP JUMPDEST PUSH32 0x54696D6573000000000000000000000000000000000000000000000000000000 PUSH1 0x0 DUP3 ADD MSTORE POP JUMP JUMPDEST PUSH1 0x0 PUSH2 0x5D8 PUSH1 0x5 DUP4 PUSH2 0x34D JUMP JUMPDEST SWAP2 POP PUSH2 0x5E3 DUP3 PUSH2 0x5A2 JUMP JUMPDEST PUSH1 0x20 DUP3 ADD SWAP1 POP SWAP2 SWAP1 POP JUMP JUMPDEST PUSH1 0x0 PUSH1 0x40 DUP3 ADD SWAP1 POP DUP2 DUP2 SUB PUSH1 0x0 DUP4 ADD MSTORE PUSH2 0x607 DUP2 PUSH2 0x5CB JUMP JUMPDEST SWAP1 POP PUSH2 0x616 PUSH1 0x20 DUP4 ADD DUP5 PUSH2 0x2C0 JUMP JUMPDEST SWAP3 SWAP2 POP POP JUMP INVALID LOG2 PUSH5 0x6970667358 0x22 SLT KECCAK256 JUMP 0x24 0x4E 0xC7 LOG3 BALANCE DUP3 0xDC 0xD PUSH13 0xE17694203244BBB5993DA63F4F 0xE9 DUP7 RETURNDATASIZE CALL PUSH12 0x490D69B464736F6C63430008 SLT STOP CALLER "
		},
		"gasEstimates": {
			"creation": {
				"codeDepositCost": "323600",
				"executionCost": "362",
				"totalCost": "323962"
			},
			"external": {
				"add(uint256,uint256)": "infinite",
				"div(uint256,uint256)": "infinite",
				"mul(uint256,uint256)": "infinite",
				"sub(uint256,uint256)": "infinite"
			}
		},
		"methodIdentifiers": {
			"add(uint256,uint256)": "771602f7",
			"div(uint256,uint256)": "a391c15b",
			"mul(uint256,uint256)": "c8a4ac9c",
			"sub(uint256,uint256)": "b67d77c5"
		}
	},
	"abi": [
		{
			"anonymous": false,
			"inputs": [
				{
					"indexed": false,
					"internalType": "string",
					"name": "add",
					"type": "string"
				},
				{
					"indexed": false,
					"internalType": "uint256",
					"name": "result",
					"type": "uint256"
				}
			],
			"name": "ADD",
			"type": "event"
		},
		{
			"anonymous": false,
			"inputs": [
				{
					"indexed": false,
					"internalType": "string",
					"name": "div",
					"type": "string"
				},
				{
					"indexed": false,
					"internalType": "uint256",
					"name": "result",
					"type": "uint256"
				}
			],
			"name": "DIV",
			"type": "event"
		},
		{
			"anonymous": false,
			"inputs": [
				{
					"indexed": false,
					"internalType": "string",
					"name": "mul",
					"type": "string"
				},
				{
					"indexed": false,
					"internalType": "uint256",
					"name": "result",
					"type": "uint256"
				}
			],
			"name": "MUL",
			"type": "event"
		},
		{
			"anonymous": false,
			"inputs": [
				{
					"indexed": false,
					"internalType": "string",
					"name": "sub",
					"type": "string"
				},
				{
					"indexed": false,
					"internalType": "uint256",
					"name": "result",
					"type": "uint256"
				}
			],
			"name": "SUB",
			"type": "event"
		},
		{
			"inputs": [
				{
					"internalType": "uint256",
					"name": "_a",
					"type": "uint256"
				},
				{
					"internalType": "uint256",
					"name": "_b",
					"type": "uint256"
				}
			],
			"name": "add",
			"outputs": [
				{
					"internalType": "uint256",
					"name": "_c",
					"type": "uint256"
				}
			],
			"stateMutability": "nonpayable",
			"type": "function"
		},
		{
			"inputs": [
				{
					"internalType": "uint256",
					"name": "_a",
					"type": "uint256"
				},
				{
					"internalType": "uint256",
					"name": "_b",
					"type": "uint256"
				}
			],
			"name": "div",
			"outputs": [
				{
					"internalType": "uint256",
					"name": "_c",
					"type": "uint256"
				}
			],
			"stateMutability": "nonpayable",
			"type": "function"
		},
		{
			"inputs": [
				{
					"internalType": "uint256",
					"name": "_a",
					"type": "uint256"
				},
				{
					"internalType": "uint256",
					"name": "_b",
					"type": "uint256"
				}
			],
			"name": "mul",
			"outputs": [
				{
					"internalType": "uint256",
					"name": "_c",
					"type": "uint256"
				}
			],
			"stateMutability": "nonpayable",
			"type": "function"
		},
		{
			"inputs": [
				{
					"internalType": "uint256",
					"name": "_a",
					"type": "uint256"
				},
				{
					"internalType": "uint256",
					"name": "_b",
					"type": "uint256"
				}
			],
			"name": "sub",
			"outputs": [
				{
					"internalType": "uint256",
					"name": "_c",
					"type": "uint256"
				}
			],
			"stateMutability": "nonpayable",
			"type": "function"
		}
	]
}