{
	"data": {
		"bytecode": {
			"linkReferences": {},
			"object": "608060405234801561001057600080fd5b5061028e806100206000396000f3fe608060405234801561001057600080fd5b506004361061002b5760003560e01c806375322e4714610030575b600080fd5b61004a60048036038101906100459190610154565b610062565b60405161005993929190610190565b60405180910390f35b6000806000603c808561007591906101f6565b61007f91906101f6565b9250603c610e10856100919190610227565b61009b91906101f6565b9150603c846100aa9190610227565b90506000604051806060016040528085815260200184815260200183815250908060018154018082558091505060019003906000526020600020906003020160009091909190915060008201518160000155602082015181600101556040820151816002015550509193909250565b600080fd5b6000819050919050565b6101318161011e565b811461013c57600080fd5b50565b60008135905061014e81610128565b92915050565b60006020828403121561016a57610169610119565b5b60006101788482850161013f565b91505092915050565b61018a8161011e565b82525050565b60006060820190506101a56000830186610181565b6101b26020830185610181565b6101bf6040830184610181565b949350505050565b7f4e487b7100000000000000000000000000000000000000000000000000000000600052601260045260246000fd5b60006102018261011e565b915061020c8361011e565b92508261021c5761021b6101c7565b5b828204905092915050565b60006102328261011e565b915061023d8361011e565b92508261024d5761024c6101c7565b5b82820690509291505056fea26469706673582212208b4b7a3a3ae26b13ec373250ba374aea9e0acb5d6cc9085e50e5b5b678765eba64736f6c63430008120033",
			"opcodes": "PUSH1 0x80 PUSH1 0x40 MSTORE CALLVALUE DUP1 ISZERO PUSH2 0x10 JUMPI PUSH1 0x0 DUP1 REVERT JUMPDEST POP PUSH2 0x28E DUP1 PUSH2 0x20 PUSH1 0x0 CODECOPY PUSH1 0x0 RETURN INVALID PUSH1 0x80 PUSH1 0x40 MSTORE CALLVALUE DUP1 ISZERO PUSH2 0x10 JUMPI PUSH1 0x0 DUP1 REVERT JUMPDEST POP PUSH1 0x4 CALLDATASIZE LT PUSH2 0x2B JUMPI PUSH1 0x0 CALLDATALOAD PUSH1 0xE0 SHR DUP1 PUSH4 0x75322E47 EQ PUSH2 0x30 JUMPI JUMPDEST PUSH1 0x0 DUP1 REVERT JUMPDEST PUSH2 0x4A PUSH1 0x4 DUP1 CALLDATASIZE SUB DUP2 ADD SWAP1 PUSH2 0x45 SWAP2 SWAP1 PUSH2 0x154 JUMP JUMPDEST PUSH2 0x62 JUMP JUMPDEST PUSH1 0x40 MLOAD PUSH2 0x59 SWAP4 SWAP3 SWAP2 SWAP1 PUSH2 0x190 JUMP JUMPDEST PUSH1 0x40 MLOAD DUP1 SWAP2 SUB SWAP1 RETURN JUMPDEST PUSH1 0x0 DUP1 PUSH1 0x0 PUSH1 0x3C DUP1 DUP6 PUSH2 0x75 SWAP2 SWAP1 PUSH2 0x1F6 JUMP JUMPDEST PUSH2 0x7F SWAP2 SWAP1 PUSH2 0x1F6 JUMP JUMPDEST SWAP3 POP PUSH1 0x3C PUSH2 0xE10 DUP6 PUSH2 0x91 SWAP2 SWAP1 PUSH2 0x227 JUMP JUMPDEST PUSH2 0x9B SWAP2 SWAP1 PUSH2 0x1F6 JUMP JUMPDEST SWAP2 POP PUSH1 0x3C DUP5 PUSH2 0xAA SWAP2 SWAP1 PUSH2 0x227 JUMP JUMPDEST SWAP1 POP PUSH1 0x0 PUSH1 0x40 MLOAD DUP1 PUSH1 0x60 ADD PUSH1 0x40 MSTORE DUP1 DUP6 DUP2 MSTORE PUSH1 0x20 ADD DUP5 DUP2 MSTORE PUSH1 0x20 ADD DUP4 DUP2 MSTORE POP SWAP1 DUP1 PUSH1 0x1 DUP2 SLOAD ADD DUP1 DUP3 SSTORE DUP1 SWAP2 POP POP PUSH1 0x1 SWAP1 SUB SWAP1 PUSH1 0x0 MSTORE PUSH1 0x20 PUSH1 0x0 KECCAK256 SWAP1 PUSH1 0x3 MUL ADD PUSH1 0x0 SWAP1 SWAP2 SWAP1 SWAP2 SWAP1 SWAP2 POP PUSH1 0x0 DUP3 ADD MLOAD DUP2 PUSH1 0x0 ADD SSTORE PUSH1 0x20 DUP3 ADD MLOAD DUP2 PUSH1 0x1 ADD SSTORE PUSH1 0x40 DUP3 ADD MLOAD DUP2 PUSH1 0x2 ADD SSTORE POP POP SWAP2 SWAP4 SWAP1 SWAP3 POP JUMP JUMPDEST PUSH1 0x0 DUP1 REVERT JUMPDEST PUSH1 0x0 DUP2 SWAP1 POP SWAP2 SWAP1 POP JUMP JUMPDEST PUSH2 0x131 DUP2 PUSH2 0x11E JUMP JUMPDEST DUP2 EQ PUSH2 0x13C JUMPI PUSH1 0x0 DUP1 REVERT JUMPDEST POP JUMP JUMPDEST PUSH1 0x0 DUP2 CALLDATALOAD SWAP1 POP PUSH2 0x14E DUP2 PUSH2 0x128 JUMP JUMPDEST SWAP3 SWAP2 POP POP JUMP JUMPDEST PUSH1 0x0 PUSH1 0x20 DUP3 DUP5 SUB SLT ISZERO PUSH2 0x16A JUMPI PUSH2 0x169 PUSH2 0x119 JUMP JUMPDEST JUMPDEST PUSH1 0x0 PUSH2 0x178 DUP5 DUP3 DUP6 ADD PUSH2 0x13F JUMP JUMPDEST SWAP2 POP POP SWAP3 SWAP2 POP POP JUMP JUMPDEST PUSH2 0x18A DUP2 PUSH2 0x11E JUMP JUMPDEST DUP3 MSTORE POP POP JUMP JUMPDEST PUSH1 0x0 PUSH1 0x60 DUP3 ADD SWAP1 POP PUSH2 0x1A5 PUSH1 0x0 DUP4 ADD DUP7 PUSH2 0x181 JUMP JUMPDEST PUSH2 0x1B2 PUSH1 0x20 DUP4 ADD DUP6 PUSH2 0x181 JUMP JUMPDEST PUSH2 0x1BF PUSH1 0x40 DUP4 ADD DUP5 PUSH2 0x181 JUMP JUMPDEST SWAP5 SWAP4 POP POP POP POP JUMP JUMPDEST PUSH32 0x4E487B7100000000000000000000000000000000000000000000000000000000 PUSH1 0x0 MSTORE PUSH1 0x12 PUSH1 0x4 MSTORE PUSH1 0x24 PUSH1 0x0 REVERT JUMPDEST PUSH1 0x0 PUSH2 0x201 DUP3 PUSH2 0x11E JUMP JUMPDEST SWAP2 POP PUSH2 0x20C DUP4 PUSH2 0x11E JUMP JUMPDEST SWAP3 POP DUP3 PUSH2 0x21C JUMPI PUSH2 0x21B PUSH2 0x1C7 JUMP JUMPDEST JUMPDEST DUP3 DUP3 DIV SWAP1 POP SWAP3 SWAP2 POP POP JUMP JUMPDEST PUSH1 0x0 PUSH2 0x232 DUP3 PUSH2 0x11E JUMP JUMPDEST SWAP2 POP PUSH2 0x23D DUP4 PUSH2 0x11E JUMP JUMPDEST SWAP3 POP DUP3 PUSH2 0x24D JUMPI PUSH2 0x24C PUSH2 0x1C7 JUMP JUMPDEST JUMPDEST DUP3 DUP3 MOD SWAP1 POP SWAP3 SWAP2 POP POP JUMP INVALID LOG2 PUSH5 0x6970667358 0x22 SLT KECCAK256 DUP12 0x4B PUSH27 0x3A3AE26B13EC373250BA374AEA9E0ACB5D6CC9085E50E5B5B67876 0x5E 0xBA PUSH5 0x736F6C6343 STOP ADDMOD SLT STOP CALLER "
		},
		"gasEstimates": {
			"creation": {
				"codeDepositCost": "130800",
				"executionCost": "177",
				"totalCost": "130977"
			},
			"external": {
				"change(uint256)": "infinite"
			}
		},
		"methodIdentifiers": {
			"change(uint256)": "75322e47"
		}
	},
	"abi": [
		{
			"inputs": [
				{
					"internalType": "uint256",
					"name": "n",
					"type": "uint256"
				}
			],
			"name": "change",
			"outputs": [
				{
					"internalType": "uint256",
					"name": "_hour",
					"type": "uint256"
				},
				{
					"internalType": "uint256",
					"name": "_min",
					"type": "uint256"
				},
				{
					"internalType": "uint256",
					"name": "_sec",
					"type": "uint256"
				}
			],
			"stateMutability": "nonpayable",
			"type": "function"
		}
	]
}