{
	"contracts/230503_1.sol": {
		"UintandString": {
			"abi": [
				{
					"inputs": [],
					"name": "getA",
					"outputs": [
						{
							"internalType": "uint256",
							"name": "",
							"type": "uint256"
						}
					],
					"stateMutability": "view",
					"type": "function"
				},
				{
					"inputs": [],
					"name": "getAandB",
					"outputs": [
						{
							"internalType": "uint256",
							"name": "",
							"type": "uint256"
						},
						{
							"internalType": "string",
							"name": "",
							"type": "string"
						}
					],
					"stateMutability": "view",
					"type": "function"
				},
				{
					"inputs": [],
					"name": "getB",
					"outputs": [
						{
							"internalType": "string",
							"name": "",
							"type": "string"
						}
					],
					"stateMutability": "view",
					"type": "function"
				},
				{
					"inputs": [
						{
							"internalType": "uint256",
							"name": "_a",
							"type": "uint256"
						}
					],
					"name": "setA",
					"outputs": [],
					"stateMutability": "nonpayable",
					"type": "function"
				},
				{
					"inputs": [
						{
							"internalType": "uint256",
							"name": "_a",
							"type": "uint256"
						},
						{
							"internalType": "string",
							"name": "_b",
							"type": "string"
						}
					],
					"name": "setAandB",
					"outputs": [],
					"stateMutability": "nonpayable",
					"type": "function"
				},
				{
					"inputs": [],
					"name": "setAasFive",
					"outputs": [],
					"stateMutability": "nonpayable",
					"type": "function"
				},
				{
					"inputs": [
						{
							"internalType": "string",
							"name": "_b",
							"type": "string"
						}
					],
					"name": "setB",
					"outputs": [],
					"stateMutability": "nonpayable",
					"type": "function"
				},
				{
					"inputs": [],
					"name": "setBasABC",
					"outputs": [],
					"stateMutability": "nonpayable",
					"type": "function"
				},
				{
					"inputs": [],
					"name": "setBasC",
					"outputs": [],
					"stateMutability": "nonpayable",
					"type": "function"
				},
				{
					"inputs": [],
					"name": "setBasC2",
					"outputs": [],
					"stateMutability": "nonpayable",
					"type": "function"
				}
			],
			"devdoc": {
				"kind": "dev",
				"methods": {},
				"version": 1
			},
			"evm": {
				"assembly": "    /* \"contracts/230503_1.sol\":63:880  contract UintandString {... */\n  mstore(0x40, 0x80)\n  callvalue\n  dup1\n  iszero\n  tag_1\n  jumpi\n  0x00\n  dup1\n  revert\ntag_1:\n  pop\n  dataSize(sub_0)\n  dup1\n  dataOffset(sub_0)\n  0x00\n  codecopy\n  0x00\n  return\nstop\n\nsub_0: assembly {\n        /* \"contracts/230503_1.sol\":63:880  contract UintandString {... */\n      mstore(0x40, 0x80)\n      callvalue\n      dup1\n      iszero\n      tag_1\n      jumpi\n      0x00\n      dup1\n      revert\n    tag_1:\n      pop\n      jumpi(tag_2, lt(calldatasize, 0x04))\n      shr(0xe0, calldataload(0x00))\n      dup1\n      0xa1c51915\n      gt\n      tag_13\n      jumpi\n      dup1\n      0xa1c51915\n      eq\n      tag_8\n      jumpi\n      dup1\n      0xb5e7bc60\n      eq\n      tag_9\n      jumpi\n      dup1\n      0xd46300fd\n      eq\n      tag_10\n      jumpi\n      dup1\n      0xee919d50\n      eq\n      tag_11\n      jumpi\n      dup1\n      0xf176a4b3\n      eq\n      tag_12\n      jumpi\n      jump(tag_2)\n    tag_13:\n      dup1\n      0x0eefc91f\n      eq\n      tag_3\n      jumpi\n      dup1\n      0x5e448e16\n      eq\n      tag_4\n      jumpi\n      dup1\n      0x71c59316\n      eq\n      tag_5\n      jumpi\n      dup1\n      0x7a72b903\n      eq\n      tag_6\n      jumpi\n      dup1\n      0x9b36f8da\n      eq\n      tag_7\n      jumpi\n    tag_2:\n      0x00\n      dup1\n      revert\n        /* \"contracts/230503_1.sol\":689:780  function setAandB(uint _a, string memory _b) public {... */\n    tag_3:\n      tag_14\n      0x04\n      dup1\n      calldatasize\n      sub\n      dup2\n      add\n      swap1\n      tag_15\n      swap2\n      swap1\n      tag_16\n      jump\t// in\n    tag_15:\n      tag_17\n      jump\t// in\n    tag_14:\n      stop\n        /* \"contracts/230503_1.sol\":572:623  function setBasC2() public {... */\n    tag_4:\n      tag_18\n      tag_19\n      jump\t// in\n    tag_18:\n      stop\n        /* \"contracts/230503_1.sol\":629:683  function setBasABC() public {... */\n    tag_5:\n      tag_20\n      tag_21\n      jump\t// in\n    tag_20:\n      stop\n        /* \"contracts/230503_1.sol\":236:287  function setAasFive() public {... */\n    tag_6:\n      tag_22\n      tag_23\n      jump\t// in\n    tag_22:\n      stop\n        /* \"contracts/230503_1.sol\":516:566  function setBasC() public {... */\n    tag_7:\n      tag_24\n      tag_25\n      jump\t// in\n    tag_24:\n      stop\n        /* \"contracts/230503_1.sol\":434:510  function getB() public view returns(string memory) {... */\n    tag_8:\n      tag_26\n      tag_27\n      jump\t// in\n    tag_26:\n      mload(0x40)\n      tag_28\n      swap2\n      swap1\n      tag_29\n      jump\t// in\n    tag_28:\n      mload(0x40)\n      dup1\n      swap2\n      sub\n      swap1\n      return\n        /* \"contracts/230503_1.sol\":366:428  function setB(string memory _b) public {... */\n    tag_9:\n      tag_30\n      0x04\n      dup1\n      calldatasize\n      sub\n      dup2\n      add\n      swap1\n      tag_31\n      swap2\n      swap1\n      tag_32\n      jump\t// in\n    tag_31:\n      tag_33\n      jump\t// in\n    tag_30:\n      stop\n        /* \"contracts/230503_1.sol\":293:360  function getA() public view returns(uint) {... */\n    tag_10:\n      tag_34\n      tag_35\n      jump\t// in\n    tag_34:\n      mload(0x40)\n      tag_36\n      swap2\n      swap1\n      tag_37\n      jump\t// in\n    tag_36:\n      mload(0x40)\n      dup1\n      swap2\n      sub\n      swap1\n      return\n        /* \"contracts/230503_1.sol\":177:230  function setA(uint _a) public {... */\n    tag_11:\n      tag_38\n      0x04\n      dup1\n      calldatasize\n      sub\n      dup2\n      add\n      swap1\n      tag_39\n      swap2\n      swap1\n      tag_40\n      jump\t// in\n    tag_39:\n      tag_41\n      jump\t// in\n    tag_38:\n      stop\n        /* \"contracts/230503_1.sol\":786:877  function getAandB() public view returns(uint , string memory ){... */\n    tag_12:\n      tag_42\n      tag_43\n      jump\t// in\n    tag_42:\n      mload(0x40)\n      tag_44\n      swap3\n      swap2\n      swap1\n      tag_45\n      jump\t// in\n    tag_44:\n      mload(0x40)\n      dup1\n      swap2\n      sub\n      swap1\n      return\n        /* \"contracts/230503_1.sol\":689:780  function setAandB(uint _a, string memory _b) public {... */\n    tag_17:\n        /* \"contracts/230503_1.sol\":755:757  _a */\n      dup2\n        /* \"contracts/230503_1.sol\":751:752  a */\n      0x00\n        /* \"contracts/230503_1.sol\":751:757  a = _a */\n      dup2\n      swap1\n      sstore\n      pop\n        /* \"contracts/230503_1.sol\":771:773  _b */\n      dup1\n        /* \"contracts/230503_1.sol\":767:768  b */\n      0x01\n        /* \"contracts/230503_1.sol\":767:773  b = _b */\n      swap1\n      dup2\n      tag_47\n      swap2\n      swap1\n      tag_48\n      jump\t// in\n    tag_47:\n      pop\n        /* \"contracts/230503_1.sol\":689:780  function setAandB(uint _a, string memory _b) public {... */\n      pop\n      pop\n      jump\t// out\n        /* \"contracts/230503_1.sol\":572:623  function setBasC2() public {... */\n    tag_19:\n        /* \"contracts/230503_1.sol\":609:616  b = \"C\" */\n      mload(0x40)\n      dup1\n      0x40\n      add\n      0x40\n      mstore\n      dup1\n      0x01\n      dup2\n      mstore\n      0x20\n      add\n      0x4300000000000000000000000000000000000000000000000000000000000000\n      dup2\n      mstore\n      pop\n        /* \"contracts/230503_1.sol\":609:610  b */\n      0x01\n        /* \"contracts/230503_1.sol\":609:616  b = \"C\" */\n      swap1\n      dup2\n      tag_50\n      swap2\n      swap1\n      tag_48\n      jump\t// in\n    tag_50:\n      pop\n        /* \"contracts/230503_1.sol\":572:623  function setBasC2() public {... */\n      jump\t// out\n        /* \"contracts/230503_1.sol\":629:683  function setBasABC() public {... */\n    tag_21:\n        /* \"contracts/230503_1.sol\":667:676  b = \"abc\" */\n      mload(0x40)\n      dup1\n      0x40\n      add\n      0x40\n      mstore\n      dup1\n      0x03\n      dup2\n      mstore\n      0x20\n      add\n      0x6162630000000000000000000000000000000000000000000000000000000000\n      dup2\n      mstore\n      pop\n        /* \"contracts/230503_1.sol\":667:668  b */\n      0x01\n        /* \"contracts/230503_1.sol\":667:676  b = \"abc\" */\n      swap1\n      dup2\n      tag_52\n      swap2\n      swap1\n      tag_48\n      jump\t// in\n    tag_52:\n      pop\n        /* \"contracts/230503_1.sol\":629:683  function setBasABC() public {... */\n      jump\t// out\n        /* \"contracts/230503_1.sol\":236:287  function setAasFive() public {... */\n    tag_23:\n        /* \"contracts/230503_1.sol\":279:280  5 */\n      0x05\n        /* \"contracts/230503_1.sol\":275:276  a */\n      0x00\n        /* \"contracts/230503_1.sol\":275:280  a = 5 */\n      dup2\n      swap1\n      sstore\n      pop\n        /* \"contracts/230503_1.sol\":236:287  function setAasFive() public {... */\n      jump\t// out\n        /* \"contracts/230503_1.sol\":516:566  function setBasC() public {... */\n    tag_25:\n        /* \"contracts/230503_1.sol\":552:559  b = \"c\" */\n      mload(0x40)\n      dup1\n      0x40\n      add\n      0x40\n      mstore\n      dup1\n      0x01\n      dup2\n      mstore\n      0x20\n      add\n      0x6300000000000000000000000000000000000000000000000000000000000000\n      dup2\n      mstore\n      pop\n        /* \"contracts/230503_1.sol\":552:553  b */\n      0x01\n        /* \"contracts/230503_1.sol\":552:559  b = \"c\" */\n      swap1\n      dup2\n      tag_55\n      swap2\n      swap1\n      tag_48\n      jump\t// in\n    tag_55:\n      pop\n        /* \"contracts/230503_1.sol\":516:566  function setBasC() public {... */\n      jump\t// out\n        /* \"contracts/230503_1.sol\":434:510  function getB() public view returns(string memory) {... */\n    tag_27:\n        /* \"contracts/230503_1.sol\":470:483  string memory */\n      0x60\n        /* \"contracts/230503_1.sol\":502:503  b */\n      0x01\n        /* \"contracts/230503_1.sol\":495:503  return b */\n      dup1\n      sload\n      tag_57\n      swap1\n      tag_58\n      jump\t// in\n    tag_57:\n      dup1\n      0x1f\n      add\n      0x20\n      dup1\n      swap2\n      div\n      mul\n      0x20\n      add\n      mload(0x40)\n      swap1\n      dup2\n      add\n      0x40\n      mstore\n      dup1\n      swap3\n      swap2\n      swap1\n      dup2\n      dup2\n      mstore\n      0x20\n      add\n      dup3\n      dup1\n      sload\n      tag_59\n      swap1\n      tag_58\n      jump\t// in\n    tag_59:\n      dup1\n      iszero\n      tag_60\n      jumpi\n      dup1\n      0x1f\n      lt\n      tag_61\n      jumpi\n      0x0100\n      dup1\n      dup4\n      sload\n      div\n      mul\n      dup4\n      mstore\n      swap2\n      0x20\n      add\n      swap2\n      jump(tag_60)\n    tag_61:\n      dup3\n      add\n      swap2\n      swap1\n      0x00\n      mstore\n      keccak256(0x00, 0x20)\n      swap1\n    tag_62:\n      dup2\n      sload\n      dup2\n      mstore\n      swap1\n      0x01\n      add\n      swap1\n      0x20\n      add\n      dup1\n      dup4\n      gt\n      tag_62\n      jumpi\n      dup3\n      swap1\n      sub\n      0x1f\n      and\n      dup3\n      add\n      swap2\n    tag_60:\n      pop\n      pop\n      pop\n      pop\n      pop\n      swap1\n      pop\n        /* \"contracts/230503_1.sol\":434:510  function getB() public view returns(string memory) {... */\n      swap1\n      jump\t// out\n        /* \"contracts/230503_1.sol\":366:428  function setB(string memory _b) public {... */\n    tag_33:\n        /* \"contracts/230503_1.sol\":419:421  _b */\n      dup1\n        /* \"contracts/230503_1.sol\":415:416  b */\n      0x01\n        /* \"contracts/230503_1.sol\":415:421  b = _b */\n      swap1\n      dup2\n      tag_64\n      swap2\n      swap1\n      tag_48\n      jump\t// in\n    tag_64:\n      pop\n        /* \"contracts/230503_1.sol\":366:428  function setB(string memory _b) public {... */\n      pop\n      jump\t// out\n        /* \"contracts/230503_1.sol\":293:360  function getA() public view returns(uint) {... */\n    tag_35:\n        /* \"contracts/230503_1.sol\":329:333  uint */\n      0x00\n        /* \"contracts/230503_1.sol\":352:353  a */\n      dup1\n      sload\n        /* \"contracts/230503_1.sol\":345:353  return a */\n      swap1\n      pop\n        /* \"contracts/230503_1.sol\":293:360  function getA() public view returns(uint) {... */\n      swap1\n      jump\t// out\n        /* \"contracts/230503_1.sol\":177:230  function setA(uint _a) public {... */\n    tag_41:\n        /* \"contracts/230503_1.sol\":221:223  _a */\n      dup1\n        /* \"contracts/230503_1.sol\":217:218  a */\n      0x00\n        /* \"contracts/230503_1.sol\":217:223  a = _a */\n      dup2\n      swap1\n      sstore\n      pop\n        /* \"contracts/230503_1.sol\":177:230  function setA(uint _a) public {... */\n      pop\n      jump\t// out\n        /* \"contracts/230503_1.sol\":786:877  function getAandB() public view returns(uint , string memory ){... */\n    tag_43:\n        /* \"contracts/230503_1.sol\":826:830  uint */\n      0x00\n        /* \"contracts/230503_1.sol\":833:846  string memory */\n      0x60\n        /* \"contracts/230503_1.sol\":866:867  a */\n      sload(0x00)\n        /* \"contracts/230503_1.sol\":868:869  b */\n      0x01\n        /* \"contracts/230503_1.sol\":858:870  return (a,b) */\n      dup1\n      dup1\n      sload\n      tag_68\n      swap1\n      tag_58\n      jump\t// in\n    tag_68:\n      dup1\n      0x1f\n      add\n      0x20\n      dup1\n      swap2\n      div\n      mul\n      0x20\n      add\n      mload(0x40)\n      swap1\n      dup2\n      add\n      0x40\n      mstore\n      dup1\n      swap3\n      swap2\n      swap1\n      dup2\n      dup2\n      mstore\n      0x20\n      add\n      dup3\n      dup1\n      sload\n      tag_69\n      swap1\n      tag_58\n      jump\t// in\n    tag_69:\n      dup1\n      iszero\n      tag_70\n      jumpi\n      dup1\n      0x1f\n      lt\n      tag_71\n      jumpi\n      0x0100\n      dup1\n      dup4\n      sload\n      div\n      mul\n      dup4\n      mstore\n      swap2\n      0x20\n      add\n      swap2\n      jump(tag_70)\n    tag_71:\n      dup3\n      add\n      swap2\n      swap1\n      0x00\n      mstore\n      keccak256(0x00, 0x20)\n      swap1\n    tag_72:\n      dup2\n      sload\n      dup2\n      mstore\n      swap1\n      0x01\n      add\n      swap1\n      0x20\n      add\n      dup1\n      dup4\n      gt\n      tag_72\n      jumpi\n      dup3\n      swap1\n      sub\n      0x1f\n      and\n      dup3\n      add\n      swap2\n    tag_70:\n      pop\n      pop\n      pop\n      pop\n      pop\n      swap1\n      pop\n      swap2\n      pop\n      swap2\n      pop\n        /* \"contracts/230503_1.sol\":786:877  function getAandB() public view returns(uint , string memory ){... */\n      swap1\n      swap2\n      jump\t// out\n        /* \"#utility.yul\":7:82   */\n    tag_73:\n        /* \"#utility.yul\":40:46   */\n      0x00\n        /* \"#utility.yul\":73:75   */\n      0x40\n        /* \"#utility.yul\":67:76   */\n      mload\n        /* \"#utility.yul\":57:76   */\n      swap1\n      pop\n        /* \"#utility.yul\":7:82   */\n      swap1\n      jump\t// out\n        /* \"#utility.yul\":88:205   */\n    tag_74:\n        /* \"#utility.yul\":197:198   */\n      0x00\n        /* \"#utility.yul\":194:195   */\n      dup1\n        /* \"#utility.yul\":187:199   */\n      revert\n        /* \"#utility.yul\":211:328   */\n    tag_75:\n        /* \"#utility.yul\":320:321   */\n      0x00\n        /* \"#utility.yul\":317:318   */\n      dup1\n        /* \"#utility.yul\":310:322   */\n      revert\n        /* \"#utility.yul\":334:411   */\n    tag_76:\n        /* \"#utility.yul\":371:378   */\n      0x00\n        /* \"#utility.yul\":400:405   */\n      dup2\n        /* \"#utility.yul\":389:405   */\n      swap1\n      pop\n        /* \"#utility.yul\":334:411   */\n      swap2\n      swap1\n      pop\n      jump\t// out\n        /* \"#utility.yul\":417:539   */\n    tag_77:\n        /* \"#utility.yul\":490:514   */\n      tag_116\n        /* \"#utility.yul\":508:513   */\n      dup2\n        /* \"#utility.yul\":490:514   */\n      tag_76\n      jump\t// in\n    tag_116:\n        /* \"#utility.yul\":483:488   */\n      dup2\n        /* \"#utility.yul\":480:515   */\n      eq\n        /* \"#utility.yul\":470:533   */\n      tag_117\n      jumpi\n        /* \"#utility.yul\":529:530   */\n      0x00\n        /* \"#utility.yul\":526:527   */\n      dup1\n        /* \"#utility.yul\":519:531   */\n      revert\n        /* \"#utility.yul\":470:533   */\n    tag_117:\n        /* \"#utility.yul\":417:539   */\n      pop\n      jump\t// out\n        /* \"#utility.yul\":545:684   */\n    tag_78:\n        /* \"#utility.yul\":591:596   */\n      0x00\n        /* \"#utility.yul\":629:635   */\n      dup2\n        /* \"#utility.yul\":616:636   */\n      calldataload\n        /* \"#utility.yul\":607:636   */\n      swap1\n      pop\n        /* \"#utility.yul\":645:678   */\n      tag_119\n        /* \"#utility.yul\":672:677   */\n      dup2\n        /* \"#utility.yul\":645:678   */\n      tag_77\n      jump\t// in\n    tag_119:\n        /* \"#utility.yul\":545:684   */\n      swap3\n      swap2\n      pop\n      pop\n      jump\t// out\n        /* \"#utility.yul\":690:807   */\n    tag_79:\n        /* \"#utility.yul\":799:800   */\n      0x00\n        /* \"#utility.yul\":796:797   */\n      dup1\n        /* \"#utility.yul\":789:801   */\n      revert\n        /* \"#utility.yul\":813:930   */\n    tag_80:\n        /* \"#utility.yul\":922:923   */\n      0x00\n        /* \"#utility.yul\":919:920   */\n      dup1\n        /* \"#utility.yul\":912:924   */\n      revert\n        /* \"#utility.yul\":936:1038   */\n    tag_81:\n        /* \"#utility.yul\":977:983   */\n      0x00\n        /* \"#utility.yul\":1028:1030   */\n      0x1f\n        /* \"#utility.yul\":1024:1031   */\n      not\n        /* \"#utility.yul\":1019:1021   */\n      0x1f\n        /* \"#utility.yul\":1012:1017   */\n      dup4\n        /* \"#utility.yul\":1008:1022   */\n      add\n        /* \"#utility.yul\":1004:1032   */\n      and\n        /* \"#utility.yul\":994:1032   */\n      swap1\n      pop\n        /* \"#utility.yul\":936:1038   */\n      swap2\n      swap1\n      pop\n      jump\t// out\n        /* \"#utility.yul\":1044:1224   */\n    tag_82:\n        /* \"#utility.yul\":1092:1169   */\n      0x4e487b7100000000000000000000000000000000000000000000000000000000\n        /* \"#utility.yul\":1089:1090   */\n      0x00\n        /* \"#utility.yul\":1082:1170   */\n      mstore\n        /* \"#utility.yul\":1189:1193   */\n      0x41\n        /* \"#utility.yul\":1186:1187   */\n      0x04\n        /* \"#utility.yul\":1179:1194   */\n      mstore\n        /* \"#utility.yul\":1213:1217   */\n      0x24\n        /* \"#utility.yul\":1210:1211   */\n      0x00\n        /* \"#utility.yul\":1203:1218   */\n      revert\n        /* \"#utility.yul\":1230:1511   */\n    tag_83:\n        /* \"#utility.yul\":1313:1340   */\n      tag_125\n        /* \"#utility.yul\":1335:1339   */\n      dup3\n        /* \"#utility.yul\":1313:1340   */\n      tag_81\n      jump\t// in\n    tag_125:\n        /* \"#utility.yul\":1305:1311   */\n      dup2\n        /* \"#utility.yul\":1301:1341   */\n      add\n        /* \"#utility.yul\":1443:1449   */\n      dup2\n        /* \"#utility.yul\":1431:1441   */\n      dup2\n        /* \"#utility.yul\":1428:1450   */\n      lt\n        /* \"#utility.yul\":1407:1425   */\n      0xffffffffffffffff\n        /* \"#utility.yul\":1395:1405   */\n      dup3\n        /* \"#utility.yul\":1392:1426   */\n      gt\n        /* \"#utility.yul\":1389:1451   */\n      or\n        /* \"#utility.yul\":1386:1474   */\n      iszero\n      tag_126\n      jumpi\n        /* \"#utility.yul\":1454:1472   */\n      tag_127\n      tag_82\n      jump\t// in\n    tag_127:\n        /* \"#utility.yul\":1386:1474   */\n    tag_126:\n        /* \"#utility.yul\":1494:1504   */\n      dup1\n        /* \"#utility.yul\":1490:1492   */\n      0x40\n        /* \"#utility.yul\":1483:1505   */\n      mstore\n        /* \"#utility.yul\":1273:1511   */\n      pop\n        /* \"#utility.yul\":1230:1511   */\n      pop\n      pop\n      jump\t// out\n        /* \"#utility.yul\":1517:1646   */\n    tag_84:\n        /* \"#utility.yul\":1551:1557   */\n      0x00\n        /* \"#utility.yul\":1578:1598   */\n      tag_129\n      tag_73\n      jump\t// in\n    tag_129:\n        /* \"#utility.yul\":1568:1598   */\n      swap1\n      pop\n        /* \"#utility.yul\":1607:1640   */\n      tag_130\n        /* \"#utility.yul\":1635:1639   */\n      dup3\n        /* \"#utility.yul\":1627:1633   */\n      dup3\n        /* \"#utility.yul\":1607:1640   */\n      tag_83\n      jump\t// in\n    tag_130:\n        /* \"#utility.yul\":1517:1646   */\n      swap2\n      swap1\n      pop\n      jump\t// out\n        /* \"#utility.yul\":1652:1960   */\n    tag_85:\n        /* \"#utility.yul\":1714:1718   */\n      0x00\n        /* \"#utility.yul\":1804:1822   */\n      0xffffffffffffffff\n        /* \"#utility.yul\":1796:1802   */\n      dup3\n        /* \"#utility.yul\":1793:1823   */\n      gt\n        /* \"#utility.yul\":1790:1846   */\n      iszero\n      tag_132\n      jumpi\n        /* \"#utility.yul\":1826:1844   */\n      tag_133\n      tag_82\n      jump\t// in\n    tag_133:\n        /* \"#utility.yul\":1790:1846   */\n    tag_132:\n        /* \"#utility.yul\":1864:1893   */\n      tag_134\n        /* \"#utility.yul\":1886:1892   */\n      dup3\n        /* \"#utility.yul\":1864:1893   */\n      tag_81\n      jump\t// in\n    tag_134:\n        /* \"#utility.yul\":1856:1893   */\n      swap1\n      pop\n        /* \"#utility.yul\":1948:1952   */\n      0x20\n        /* \"#utility.yul\":1942:1946   */\n      dup2\n        /* \"#utility.yul\":1938:1953   */\n      add\n        /* \"#utility.yul\":1930:1953   */\n      swap1\n      pop\n        /* \"#utility.yul\":1652:1960   */\n      swap2\n      swap1\n      pop\n      jump\t// out\n        /* \"#utility.yul\":1966:2112   */\n    tag_86:\n        /* \"#utility.yul\":2063:2069   */\n      dup3\n        /* \"#utility.yul\":2058:2061   */\n      dup2\n        /* \"#utility.yul\":2053:2056   */\n      dup4\n        /* \"#utility.yul\":2040:2070   */\n      calldatacopy\n        /* \"#utility.yul\":2104:2105   */\n      0x00\n        /* \"#utility.yul\":2095:2101   */\n      dup4\n        /* \"#utility.yul\":2090:2093   */\n      dup4\n        /* \"#utility.yul\":2086:2102   */\n      add\n        /* \"#utility.yul\":2079:2106   */\n      mstore\n        /* \"#utility.yul\":1966:2112   */\n      pop\n      pop\n      pop\n      jump\t// out\n        /* \"#utility.yul\":2118:2543   */\n    tag_87:\n        /* \"#utility.yul\":2196:2201   */\n      0x00\n        /* \"#utility.yul\":2221:2287   */\n      tag_137\n        /* \"#utility.yul\":2237:2286   */\n      tag_138\n        /* \"#utility.yul\":2279:2285   */\n      dup5\n        /* \"#utility.yul\":2237:2286   */\n      tag_85\n      jump\t// in\n    tag_138:\n        /* \"#utility.yul\":2221:2287   */\n      tag_84\n      jump\t// in\n    tag_137:\n        /* \"#utility.yul\":2212:2287   */\n      swap1\n      pop\n        /* \"#utility.yul\":2310:2316   */\n      dup3\n        /* \"#utility.yul\":2303:2308   */\n      dup2\n        /* \"#utility.yul\":2296:2317   */\n      mstore\n        /* \"#utility.yul\":2348:2352   */\n      0x20\n        /* \"#utility.yul\":2341:2346   */\n      dup2\n        /* \"#utility.yul\":2337:2353   */\n      add\n        /* \"#utility.yul\":2386:2389   */\n      dup5\n        /* \"#utility.yul\":2377:2383   */\n      dup5\n        /* \"#utility.yul\":2372:2375   */\n      dup5\n        /* \"#utility.yul\":2368:2384   */\n      add\n        /* \"#utility.yul\":2365:2390   */\n      gt\n        /* \"#utility.yul\":2362:2474   */\n      iszero\n      tag_139\n      jumpi\n        /* \"#utility.yul\":2393:2472   */\n      tag_140\n      tag_80\n      jump\t// in\n    tag_140:\n        /* \"#utility.yul\":2362:2474   */\n    tag_139:\n        /* \"#utility.yul\":2483:2537   */\n      tag_141\n        /* \"#utility.yul\":2530:2536   */\n      dup5\n        /* \"#utility.yul\":2525:2528   */\n      dup3\n        /* \"#utility.yul\":2520:2523   */\n      dup6\n        /* \"#utility.yul\":2483:2537   */\n      tag_86\n      jump\t// in\n    tag_141:\n        /* \"#utility.yul\":2202:2543   */\n      pop\n        /* \"#utility.yul\":2118:2543   */\n      swap4\n      swap3\n      pop\n      pop\n      pop\n      jump\t// out\n        /* \"#utility.yul\":2563:2903   */\n    tag_88:\n        /* \"#utility.yul\":2619:2624   */\n      0x00\n        /* \"#utility.yul\":2668:2671   */\n      dup3\n        /* \"#utility.yul\":2661:2665   */\n      0x1f\n        /* \"#utility.yul\":2653:2659   */\n      dup4\n        /* \"#utility.yul\":2649:2666   */\n      add\n        /* \"#utility.yul\":2645:2672   */\n      slt\n        /* \"#utility.yul\":2635:2757   */\n      tag_143\n      jumpi\n        /* \"#utility.yul\":2676:2755   */\n      tag_144\n      tag_79\n      jump\t// in\n    tag_144:\n        /* \"#utility.yul\":2635:2757   */\n    tag_143:\n        /* \"#utility.yul\":2793:2799   */\n      dup2\n        /* \"#utility.yul\":2780:2800   */\n      calldataload\n        /* \"#utility.yul\":2818:2897   */\n      tag_145\n        /* \"#utility.yul\":2893:2896   */\n      dup5\n        /* \"#utility.yul\":2885:2891   */\n      dup3\n        /* \"#utility.yul\":2878:2882   */\n      0x20\n        /* \"#utility.yul\":2870:2876   */\n      dup7\n        /* \"#utility.yul\":2866:2883   */\n      add\n        /* \"#utility.yul\":2818:2897   */\n      tag_87\n      jump\t// in\n    tag_145:\n        /* \"#utility.yul\":2809:2897   */\n      swap2\n      pop\n        /* \"#utility.yul\":2625:2903   */\n      pop\n        /* \"#utility.yul\":2563:2903   */\n      swap3\n      swap2\n      pop\n      pop\n      jump\t// out\n        /* \"#utility.yul\":2909:3563   */\n    tag_16:\n        /* \"#utility.yul\":2987:2993   */\n      0x00\n        /* \"#utility.yul\":2995:3001   */\n      dup1\n        /* \"#utility.yul\":3044:3046   */\n      0x40\n        /* \"#utility.yul\":3032:3041   */\n      dup4\n        /* \"#utility.yul\":3023:3030   */\n      dup6\n        /* \"#utility.yul\":3019:3042   */\n      sub\n        /* \"#utility.yul\":3015:3047   */\n      slt\n        /* \"#utility.yul\":3012:3131   */\n      iszero\n      tag_147\n      jumpi\n        /* \"#utility.yul\":3050:3129   */\n      tag_148\n      tag_74\n      jump\t// in\n    tag_148:\n        /* \"#utility.yul\":3012:3131   */\n    tag_147:\n        /* \"#utility.yul\":3170:3171   */\n      0x00\n        /* \"#utility.yul\":3195:3248   */\n      tag_149\n        /* \"#utility.yul\":3240:3247   */\n      dup6\n        /* \"#utility.yul\":3231:3237   */\n      dup3\n        /* \"#utility.yul\":3220:3229   */\n      dup7\n        /* \"#utility.yul\":3216:3238   */\n      add\n        /* \"#utility.yul\":3195:3248   */\n      tag_78\n      jump\t// in\n    tag_149:\n        /* \"#utility.yul\":3185:3248   */\n      swap3\n      pop\n        /* \"#utility.yul\":3141:3258   */\n      pop\n        /* \"#utility.yul\":3325:3327   */\n      0x20\n        /* \"#utility.yul\":3314:3323   */\n      dup4\n        /* \"#utility.yul\":3310:3328   */\n      add\n        /* \"#utility.yul\":3297:3329   */\n      calldataload\n        /* \"#utility.yul\":3356:3374   */\n      0xffffffffffffffff\n        /* \"#utility.yul\":3348:3354   */\n      dup2\n        /* \"#utility.yul\":3345:3375   */\n      gt\n        /* \"#utility.yul\":3342:3459   */\n      iszero\n      tag_150\n      jumpi\n        /* \"#utility.yul\":3378:3457   */\n      tag_151\n      tag_75\n      jump\t// in\n    tag_151:\n        /* \"#utility.yul\":3342:3459   */\n    tag_150:\n        /* \"#utility.yul\":3483:3546   */\n      tag_152\n        /* \"#utility.yul\":3538:3545   */\n      dup6\n        /* \"#utility.yul\":3529:3535   */\n      dup3\n        /* \"#utility.yul\":3518:3527   */\n      dup7\n        /* \"#utility.yul\":3514:3536   */\n      add\n        /* \"#utility.yul\":3483:3546   */\n      tag_88\n      jump\t// in\n    tag_152:\n        /* \"#utility.yul\":3473:3546   */\n      swap2\n      pop\n        /* \"#utility.yul\":3268:3556   */\n      pop\n        /* \"#utility.yul\":2909:3563   */\n      swap3\n      pop\n      swap3\n      swap1\n      pop\n      jump\t// out\n        /* \"#utility.yul\":3569:3668   */\n    tag_89:\n        /* \"#utility.yul\":3621:3627   */\n      0x00\n        /* \"#utility.yul\":3655:3660   */\n      dup2\n        /* \"#utility.yul\":3649:3661   */\n      mload\n        /* \"#utility.yul\":3639:3661   */\n      swap1\n      pop\n        /* \"#utility.yul\":3569:3668   */\n      swap2\n      swap1\n      pop\n      jump\t// out\n        /* \"#utility.yul\":3674:3843   */\n    tag_90:\n        /* \"#utility.yul\":3758:3769   */\n      0x00\n        /* \"#utility.yul\":3792:3798   */\n      dup3\n        /* \"#utility.yul\":3787:3790   */\n      dup3\n        /* \"#utility.yul\":3780:3799   */\n      mstore\n        /* \"#utility.yul\":3832:3836   */\n      0x20\n        /* \"#utility.yul\":3827:3830   */\n      dup3\n        /* \"#utility.yul\":3823:3837   */\n      add\n        /* \"#utility.yul\":3808:3837   */\n      swap1\n      pop\n        /* \"#utility.yul\":3674:3843   */\n      swap3\n      swap2\n      pop\n      pop\n      jump\t// out\n        /* \"#utility.yul\":3849:4095   */\n    tag_91:\n        /* \"#utility.yul\":3930:3931   */\n      0x00\n        /* \"#utility.yul\":3940:4053   */\n    tag_156:\n        /* \"#utility.yul\":3954:3960   */\n      dup4\n        /* \"#utility.yul\":3951:3952   */\n      dup2\n        /* \"#utility.yul\":3948:3961   */\n      lt\n        /* \"#utility.yul\":3940:4053   */\n      iszero\n      tag_158\n      jumpi\n        /* \"#utility.yul\":4039:4040   */\n      dup1\n        /* \"#utility.yul\":4034:4037   */\n      dup3\n        /* \"#utility.yul\":4030:4041   */\n      add\n        /* \"#utility.yul\":4024:4042   */\n      mload\n        /* \"#utility.yul\":4020:4021   */\n      dup2\n        /* \"#utility.yul\":4015:4018   */\n      dup5\n        /* \"#utility.yul\":4011:4022   */\n      add\n        /* \"#utility.yul\":4004:4043   */\n      mstore\n        /* \"#utility.yul\":3976:3978   */\n      0x20\n        /* \"#utility.yul\":3973:3974   */\n      dup2\n        /* \"#utility.yul\":3969:3979   */\n      add\n        /* \"#utility.yul\":3964:3979   */\n      swap1\n      pop\n        /* \"#utility.yul\":3940:4053   */\n      jump(tag_156)\n    tag_158:\n        /* \"#utility.yul\":4087:4088   */\n      0x00\n        /* \"#utility.yul\":4078:4084   */\n      dup5\n        /* \"#utility.yul\":4073:4076   */\n      dup5\n        /* \"#utility.yul\":4069:4085   */\n      add\n        /* \"#utility.yul\":4062:4089   */\n      mstore\n        /* \"#utility.yul\":3911:4095   */\n      pop\n        /* \"#utility.yul\":3849:4095   */\n      pop\n      pop\n      pop\n      jump\t// out\n        /* \"#utility.yul\":4101:4478   */\n    tag_92:\n        /* \"#utility.yul\":4189:4192   */\n      0x00\n        /* \"#utility.yul\":4217:4256   */\n      tag_160\n        /* \"#utility.yul\":4250:4255   */\n      dup3\n        /* \"#utility.yul\":4217:4256   */\n      tag_89\n      jump\t// in\n    tag_160:\n        /* \"#utility.yul\":4272:4343   */\n      tag_161\n        /* \"#utility.yul\":4336:4342   */\n      dup2\n        /* \"#utility.yul\":4331:4334   */\n      dup6\n        /* \"#utility.yul\":4272:4343   */\n      tag_90\n      jump\t// in\n    tag_161:\n        /* \"#utility.yul\":4265:4343   */\n      swap4\n      pop\n        /* \"#utility.yul\":4352:4417   */\n      tag_162\n        /* \"#utility.yul\":4410:4416   */\n      dup2\n        /* \"#utility.yul\":4405:4408   */\n      dup6\n        /* \"#utility.yul\":4398:4402   */\n      0x20\n        /* \"#utility.yul\":4391:4396   */\n      dup7\n        /* \"#utility.yul\":4387:4403   */\n      add\n        /* \"#utility.yul\":4352:4417   */\n      tag_91\n      jump\t// in\n    tag_162:\n        /* \"#utility.yul\":4442:4471   */\n      tag_163\n        /* \"#utility.yul\":4464:4470   */\n      dup2\n        /* \"#utility.yul\":4442:4471   */\n      tag_81\n      jump\t// in\n    tag_163:\n        /* \"#utility.yul\":4437:4440   */\n      dup5\n        /* \"#utility.yul\":4433:4472   */\n      add\n        /* \"#utility.yul\":4426:4472   */\n      swap2\n      pop\n        /* \"#utility.yul\":4193:4478   */\n      pop\n        /* \"#utility.yul\":4101:4478   */\n      swap3\n      swap2\n      pop\n      pop\n      jump\t// out\n        /* \"#utility.yul\":4484:4797   */\n    tag_29:\n        /* \"#utility.yul\":4597:4601   */\n      0x00\n        /* \"#utility.yul\":4635:4637   */\n      0x20\n        /* \"#utility.yul\":4624:4633   */\n      dup3\n        /* \"#utility.yul\":4620:4638   */\n      add\n        /* \"#utility.yul\":4612:4638   */\n      swap1\n      pop\n        /* \"#utility.yul\":4684:4693   */\n      dup2\n        /* \"#utility.yul\":4678:4682   */\n      dup2\n        /* \"#utility.yul\":4674:4694   */\n      sub\n        /* \"#utility.yul\":4670:4671   */\n      0x00\n        /* \"#utility.yul\":4659:4668   */\n      dup4\n        /* \"#utility.yul\":4655:4672   */\n      add\n        /* \"#utility.yul\":4648:4695   */\n      mstore\n        /* \"#utility.yul\":4712:4790   */\n      tag_165\n        /* \"#utility.yul\":4785:4789   */\n      dup2\n        /* \"#utility.yul\":4776:4782   */\n      dup5\n        /* \"#utility.yul\":4712:4790   */\n      tag_92\n      jump\t// in\n    tag_165:\n        /* \"#utility.yul\":4704:4790   */\n      swap1\n      pop\n        /* \"#utility.yul\":4484:4797   */\n      swap3\n      swap2\n      pop\n      pop\n      jump\t// out\n        /* \"#utility.yul\":4803:5312   */\n    tag_32:\n        /* \"#utility.yul\":4872:4878   */\n      0x00\n        /* \"#utility.yul\":4921:4923   */\n      0x20\n        /* \"#utility.yul\":4909:4918   */\n      dup3\n        /* \"#utility.yul\":4900:4907   */\n      dup5\n        /* \"#utility.yul\":4896:4919   */\n      sub\n        /* \"#utility.yul\":4892:4924   */\n      slt\n        /* \"#utility.yul\":4889:5008   */\n      iszero\n      tag_167\n      jumpi\n        /* \"#utility.yul\":4927:5006   */\n      tag_168\n      tag_74\n      jump\t// in\n    tag_168:\n        /* \"#utility.yul\":4889:5008   */\n    tag_167:\n        /* \"#utility.yul\":5075:5076   */\n      0x00\n        /* \"#utility.yul\":5064:5073   */\n      dup3\n        /* \"#utility.yul\":5060:5077   */\n      add\n        /* \"#utility.yul\":5047:5078   */\n      calldataload\n        /* \"#utility.yul\":5105:5123   */\n      0xffffffffffffffff\n        /* \"#utility.yul\":5097:5103   */\n      dup2\n        /* \"#utility.yul\":5094:5124   */\n      gt\n        /* \"#utility.yul\":5091:5208   */\n      iszero\n      tag_169\n      jumpi\n        /* \"#utility.yul\":5127:5206   */\n      tag_170\n      tag_75\n      jump\t// in\n    tag_170:\n        /* \"#utility.yul\":5091:5208   */\n    tag_169:\n        /* \"#utility.yul\":5232:5295   */\n      tag_171\n        /* \"#utility.yul\":5287:5294   */\n      dup5\n        /* \"#utility.yul\":5278:5284   */\n      dup3\n        /* \"#utility.yul\":5267:5276   */\n      dup6\n        /* \"#utility.yul\":5263:5285   */\n      add\n        /* \"#utility.yul\":5232:5295   */\n      tag_88\n      jump\t// in\n    tag_171:\n        /* \"#utility.yul\":5222:5295   */\n      swap2\n      pop\n        /* \"#utility.yul\":5018:5305   */\n      pop\n        /* \"#utility.yul\":4803:5312   */\n      swap3\n      swap2\n      pop\n      pop\n      jump\t// out\n        /* \"#utility.yul\":5318:5436   */\n    tag_93:\n        /* \"#utility.yul\":5405:5429   */\n      tag_173\n        /* \"#utility.yul\":5423:5428   */\n      dup2\n        /* \"#utility.yul\":5405:5429   */\n      tag_76\n      jump\t// in\n    tag_173:\n        /* \"#utility.yul\":5400:5403   */\n      dup3\n        /* \"#utility.yul\":5393:5430   */\n      mstore\n        /* \"#utility.yul\":5318:5436   */\n      pop\n      pop\n      jump\t// out\n        /* \"#utility.yul\":5442:5664   */\n    tag_37:\n        /* \"#utility.yul\":5535:5539   */\n      0x00\n        /* \"#utility.yul\":5573:5575   */\n      0x20\n        /* \"#utility.yul\":5562:5571   */\n      dup3\n        /* \"#utility.yul\":5558:5576   */\n      add\n        /* \"#utility.yul\":5550:5576   */\n      swap1\n      pop\n        /* \"#utility.yul\":5586:5657   */\n      tag_175\n        /* \"#utility.yul\":5654:5655   */\n      0x00\n        /* \"#utility.yul\":5643:5652   */\n      dup4\n        /* \"#utility.yul\":5639:5656   */\n      add\n        /* \"#utility.yul\":5630:5636   */\n      dup5\n        /* \"#utility.yul\":5586:5657   */\n      tag_93\n      jump\t// in\n    tag_175:\n        /* \"#utility.yul\":5442:5664   */\n      swap3\n      swap2\n      pop\n      pop\n      jump\t// out\n        /* \"#utility.yul\":5670:5999   */\n    tag_40:\n        /* \"#utility.yul\":5729:5735   */\n      0x00\n        /* \"#utility.yul\":5778:5780   */\n      0x20\n        /* \"#utility.yul\":5766:5775   */\n      dup3\n        /* \"#utility.yul\":5757:5764   */\n      dup5\n        /* \"#utility.yul\":5753:5776   */\n      sub\n        /* \"#utility.yul\":5749:5781   */\n      slt\n        /* \"#utility.yul\":5746:5865   */\n      iszero\n      tag_177\n      jumpi\n        /* \"#utility.yul\":5784:5863   */\n      tag_178\n      tag_74\n      jump\t// in\n    tag_178:\n        /* \"#utility.yul\":5746:5865   */\n    tag_177:\n        /* \"#utility.yul\":5904:5905   */\n      0x00\n        /* \"#utility.yul\":5929:5982   */\n      tag_179\n        /* \"#utility.yul\":5974:5981   */\n      dup5\n        /* \"#utility.yul\":5965:5971   */\n      dup3\n        /* \"#utility.yul\":5954:5963   */\n      dup6\n        /* \"#utility.yul\":5950:5972   */\n      add\n        /* \"#utility.yul\":5929:5982   */\n      tag_78\n      jump\t// in\n    tag_179:\n        /* \"#utility.yul\":5919:5982   */\n      swap2\n      pop\n        /* \"#utility.yul\":5875:5992   */\n      pop\n        /* \"#utility.yul\":5670:5999   */\n      swap3\n      swap2\n      pop\n      pop\n      jump\t// out\n        /* \"#utility.yul\":6005:6428   */\n    tag_45:\n        /* \"#utility.yul\":6146:6150   */\n      0x00\n        /* \"#utility.yul\":6184:6186   */\n      0x40\n        /* \"#utility.yul\":6173:6182   */\n      dup3\n        /* \"#utility.yul\":6169:6187   */\n      add\n        /* \"#utility.yul\":6161:6187   */\n      swap1\n      pop\n        /* \"#utility.yul\":6197:6268   */\n      tag_181\n        /* \"#utility.yul\":6265:6266   */\n      0x00\n        /* \"#utility.yul\":6254:6263   */\n      dup4\n        /* \"#utility.yul\":6250:6267   */\n      add\n        /* \"#utility.yul\":6241:6247   */\n      dup6\n        /* \"#utility.yul\":6197:6268   */\n      tag_93\n      jump\t// in\n    tag_181:\n        /* \"#utility.yul\":6315:6324   */\n      dup2\n        /* \"#utility.yul\":6309:6313   */\n      dup2\n        /* \"#utility.yul\":6305:6325   */\n      sub\n        /* \"#utility.yul\":6300:6302   */\n      0x20\n        /* \"#utility.yul\":6289:6298   */\n      dup4\n        /* \"#utility.yul\":6285:6303   */\n      add\n        /* \"#utility.yul\":6278:6326   */\n      mstore\n        /* \"#utility.yul\":6343:6421   */\n      tag_182\n        /* \"#utility.yul\":6416:6420   */\n      dup2\n        /* \"#utility.yul\":6407:6413   */\n      dup5\n        /* \"#utility.yul\":6343:6421   */\n      tag_92\n      jump\t// in\n    tag_182:\n        /* \"#utility.yul\":6335:6421   */\n      swap1\n      pop\n        /* \"#utility.yul\":6005:6428   */\n      swap4\n      swap3\n      pop\n      pop\n      pop\n      jump\t// out\n        /* \"#utility.yul\":6434:6614   */\n    tag_94:\n        /* \"#utility.yul\":6482:6559   */\n      0x4e487b7100000000000000000000000000000000000000000000000000000000\n        /* \"#utility.yul\":6479:6480   */\n      0x00\n        /* \"#utility.yul\":6472:6560   */\n      mstore\n        /* \"#utility.yul\":6579:6583   */\n      0x22\n        /* \"#utility.yul\":6576:6577   */\n      0x04\n        /* \"#utility.yul\":6569:6584   */\n      mstore\n        /* \"#utility.yul\":6603:6607   */\n      0x24\n        /* \"#utility.yul\":6600:6601   */\n      0x00\n        /* \"#utility.yul\":6593:6608   */\n      revert\n        /* \"#utility.yul\":6620:6940   */\n    tag_58:\n        /* \"#utility.yul\":6664:6670   */\n      0x00\n        /* \"#utility.yul\":6701:6702   */\n      0x02\n        /* \"#utility.yul\":6695:6699   */\n      dup3\n        /* \"#utility.yul\":6691:6703   */\n      div\n        /* \"#utility.yul\":6681:6703   */\n      swap1\n      pop\n        /* \"#utility.yul\":6748:6749   */\n      0x01\n        /* \"#utility.yul\":6742:6746   */\n      dup3\n        /* \"#utility.yul\":6738:6750   */\n      and\n        /* \"#utility.yul\":6769:6787   */\n      dup1\n        /* \"#utility.yul\":6759:6840   */\n      tag_185\n      jumpi\n        /* \"#utility.yul\":6825:6829   */\n      0x7f\n        /* \"#utility.yul\":6817:6823   */\n      dup3\n        /* \"#utility.yul\":6813:6830   */\n      and\n        /* \"#utility.yul\":6803:6830   */\n      swap2\n      pop\n        /* \"#utility.yul\":6759:6840   */\n    tag_185:\n        /* \"#utility.yul\":6887:6889   */\n      0x20\n        /* \"#utility.yul\":6879:6885   */\n      dup3\n        /* \"#utility.yul\":6876:6890   */\n      lt\n        /* \"#utility.yul\":6856:6874   */\n      dup2\n        /* \"#utility.yul\":6853:6891   */\n      sub\n        /* \"#utility.yul\":6850:6934   */\n      tag_186\n      jumpi\n        /* \"#utility.yul\":6906:6924   */\n      tag_187\n      tag_94\n      jump\t// in\n    tag_187:\n        /* \"#utility.yul\":6850:6934   */\n    tag_186:\n        /* \"#utility.yul\":6671:6940   */\n      pop\n        /* \"#utility.yul\":6620:6940   */\n      swap2\n      swap1\n      pop\n      jump\t// out\n        /* \"#utility.yul\":6946:7087   */\n    tag_95:\n        /* \"#utility.yul\":6995:6999   */\n      0x00\n        /* \"#utility.yul\":7018:7021   */\n      dup2\n        /* \"#utility.yul\":7010:7021   */\n      swap1\n      pop\n        /* \"#utility.yul\":7041:7044   */\n      dup2\n        /* \"#utility.yul\":7038:7039   */\n      0x00\n        /* \"#utility.yul\":7031:7045   */\n      mstore\n        /* \"#utility.yul\":7075:7079   */\n      0x20\n        /* \"#utility.yul\":7072:7073   */\n      0x00\n        /* \"#utility.yul\":7062:7080   */\n      keccak256\n        /* \"#utility.yul\":7054:7080   */\n      swap1\n      pop\n        /* \"#utility.yul\":6946:7087   */\n      swap2\n      swap1\n      pop\n      jump\t// out\n        /* \"#utility.yul\":7093:7186   */\n    tag_96:\n        /* \"#utility.yul\":7130:7136   */\n      0x00\n        /* \"#utility.yul\":7177:7179   */\n      0x20\n        /* \"#utility.yul\":7172:7174   */\n      0x1f\n        /* \"#utility.yul\":7165:7170   */\n      dup4\n        /* \"#utility.yul\":7161:7175   */\n      add\n        /* \"#utility.yul\":7157:7180   */\n      div\n        /* \"#utility.yul\":7147:7180   */\n      swap1\n      pop\n        /* \"#utility.yul\":7093:7186   */\n      swap2\n      swap1\n      pop\n      jump\t// out\n        /* \"#utility.yul\":7192:7299   */\n    tag_97:\n        /* \"#utility.yul\":7236:7244   */\n      0x00\n        /* \"#utility.yul\":7286:7291   */\n      dup3\n        /* \"#utility.yul\":7280:7284   */\n      dup3\n        /* \"#utility.yul\":7276:7292   */\n      shl\n        /* \"#utility.yul\":7255:7292   */\n      swap1\n      pop\n        /* \"#utility.yul\":7192:7299   */\n      swap3\n      swap2\n      pop\n      pop\n      jump\t// out\n        /* \"#utility.yul\":7305:7698   */\n    tag_98:\n        /* \"#utility.yul\":7374:7380   */\n      0x00\n        /* \"#utility.yul\":7424:7425   */\n      0x08\n        /* \"#utility.yul\":7412:7422   */\n      dup4\n        /* \"#utility.yul\":7408:7426   */\n      mul\n        /* \"#utility.yul\":7447:7544   */\n      tag_192\n        /* \"#utility.yul\":7477:7543   */\n      0xffffffffffffffffffffffffffffffffffffffffffffffffffffffffffffffff\n        /* \"#utility.yul\":7466:7475   */\n      dup3\n        /* \"#utility.yul\":7447:7544   */\n      tag_97\n      jump\t// in\n    tag_192:\n        /* \"#utility.yul\":7565:7604   */\n      tag_193\n        /* \"#utility.yul\":7595:7603   */\n      dup7\n        /* \"#utility.yul\":7584:7593   */\n      dup4\n        /* \"#utility.yul\":7565:7604   */\n      tag_97\n      jump\t// in\n    tag_193:\n        /* \"#utility.yul\":7553:7604   */\n      swap6\n      pop\n        /* \"#utility.yul\":7637:7641   */\n      dup1\n        /* \"#utility.yul\":7633:7642   */\n      not\n        /* \"#utility.yul\":7626:7631   */\n      dup5\n        /* \"#utility.yul\":7622:7643   */\n      and\n        /* \"#utility.yul\":7613:7643   */\n      swap4\n      pop\n        /* \"#utility.yul\":7686:7690   */\n      dup1\n        /* \"#utility.yul\":7676:7684   */\n      dup7\n        /* \"#utility.yul\":7672:7691   */\n      and\n        /* \"#utility.yul\":7665:7670   */\n      dup5\n        /* \"#utility.yul\":7662:7692   */\n      or\n        /* \"#utility.yul\":7652:7692   */\n      swap3\n      pop\n        /* \"#utility.yul\":7381:7698   */\n      pop\n      pop\n        /* \"#utility.yul\":7305:7698   */\n      swap4\n      swap3\n      pop\n      pop\n      pop\n      jump\t// out\n        /* \"#utility.yul\":7704:7764   */\n    tag_99:\n        /* \"#utility.yul\":7732:7735   */\n      0x00\n        /* \"#utility.yul\":7753:7758   */\n      dup2\n        /* \"#utility.yul\":7746:7758   */\n      swap1\n      pop\n        /* \"#utility.yul\":7704:7764   */\n      swap2\n      swap1\n      pop\n      jump\t// out\n        /* \"#utility.yul\":7770:7912   */\n    tag_100:\n        /* \"#utility.yul\":7820:7829   */\n      0x00\n        /* \"#utility.yul\":7853:7906   */\n      tag_196\n        /* \"#utility.yul\":7871:7905   */\n      tag_197\n        /* \"#utility.yul\":7880:7904   */\n      tag_198\n        /* \"#utility.yul\":7898:7903   */\n      dup5\n        /* \"#utility.yul\":7880:7904   */\n      tag_76\n      jump\t// in\n    tag_198:\n        /* \"#utility.yul\":7871:7905   */\n      tag_99\n      jump\t// in\n    tag_197:\n        /* \"#utility.yul\":7853:7906   */\n      tag_76\n      jump\t// in\n    tag_196:\n        /* \"#utility.yul\":7840:7906   */\n      swap1\n      pop\n        /* \"#utility.yul\":7770:7912   */\n      swap2\n      swap1\n      pop\n      jump\t// out\n        /* \"#utility.yul\":7918:7993   */\n    tag_101:\n        /* \"#utility.yul\":7961:7964   */\n      0x00\n        /* \"#utility.yul\":7982:7987   */\n      dup2\n        /* \"#utility.yul\":7975:7987   */\n      swap1\n      pop\n        /* \"#utility.yul\":7918:7993   */\n      swap2\n      swap1\n      pop\n      jump\t// out\n        /* \"#utility.yul\":7999:8268   */\n    tag_102:\n        /* \"#utility.yul\":8109:8148   */\n      tag_201\n        /* \"#utility.yul\":8140:8147   */\n      dup4\n        /* \"#utility.yul\":8109:8148   */\n      tag_100\n      jump\t// in\n    tag_201:\n        /* \"#utility.yul\":8170:8261   */\n      tag_202\n        /* \"#utility.yul\":8219:8260   */\n      tag_203\n        /* \"#utility.yul\":8243:8259   */\n      dup3\n        /* \"#utility.yul\":8219:8260   */\n      tag_101\n      jump\t// in\n    tag_203:\n        /* \"#utility.yul\":8211:8217   */\n      dup5\n        /* \"#utility.yul\":8204:8208   */\n      dup5\n        /* \"#utility.yul\":8198:8209   */\n      sload\n        /* \"#utility.yul\":8170:8261   */\n      tag_98\n      jump\t// in\n    tag_202:\n        /* \"#utility.yul\":8164:8168   */\n      dup3\n        /* \"#utility.yul\":8157:8262   */\n      sstore\n        /* \"#utility.yul\":8075:8268   */\n      pop\n        /* \"#utility.yul\":7999:8268   */\n      pop\n      pop\n      pop\n      jump\t// out\n        /* \"#utility.yul\":8274:8347   */\n    tag_103:\n        /* \"#utility.yul\":8319:8322   */\n      0x00\n        /* \"#utility.yul\":8274:8347   */\n      swap1\n      jump\t// out\n        /* \"#utility.yul\":8353:8542   */\n    tag_104:\n        /* \"#utility.yul\":8430:8462   */\n      tag_206\n      tag_103\n      jump\t// in\n    tag_206:\n        /* \"#utility.yul\":8471:8536   */\n      tag_207\n        /* \"#utility.yul\":8529:8535   */\n      dup2\n        /* \"#utility.yul\":8521:8527   */\n      dup5\n        /* \"#utility.yul\":8515:8519   */\n      dup5\n        /* \"#utility.yul\":8471:8536   */\n      tag_102\n      jump\t// in\n    tag_207:\n        /* \"#utility.yul\":8406:8542   */\n      pop\n        /* \"#utility.yul\":8353:8542   */\n      pop\n      pop\n      jump\t// out\n        /* \"#utility.yul\":8548:8734   */\n    tag_105:\n        /* \"#utility.yul\":8608:8728   */\n    tag_209:\n        /* \"#utility.yul\":8625:8628   */\n      dup2\n        /* \"#utility.yul\":8618:8623   */\n      dup2\n        /* \"#utility.yul\":8615:8629   */\n      lt\n        /* \"#utility.yul\":8608:8728   */\n      iszero\n      tag_211\n      jumpi\n        /* \"#utility.yul\":8679:8718   */\n      tag_212\n        /* \"#utility.yul\":8716:8717   */\n      0x00\n        /* \"#utility.yul\":8709:8714   */\n      dup3\n        /* \"#utility.yul\":8679:8718   */\n      tag_104\n      jump\t// in\n    tag_212:\n        /* \"#utility.yul\":8652:8653   */\n      0x01\n        /* \"#utility.yul\":8645:8650   */\n      dup2\n        /* \"#utility.yul\":8641:8654   */\n      add\n        /* \"#utility.yul\":8632:8654   */\n      swap1\n      pop\n        /* \"#utility.yul\":8608:8728   */\n      jump(tag_209)\n    tag_211:\n        /* \"#utility.yul\":8548:8734   */\n      pop\n      pop\n      jump\t// out\n        /* \"#utility.yul\":8740:9283   */\n    tag_106:\n        /* \"#utility.yul\":8841:8843   */\n      0x1f\n        /* \"#utility.yul\":8836:8839   */\n      dup3\n        /* \"#utility.yul\":8833:8844   */\n      gt\n        /* \"#utility.yul\":8830:9276   */\n      iszero\n      tag_214\n      jumpi\n        /* \"#utility.yul\":8875:8913   */\n      tag_215\n        /* \"#utility.yul\":8907:8912   */\n      dup2\n        /* \"#utility.yul\":8875:8913   */\n      tag_95\n      jump\t// in\n    tag_215:\n        /* \"#utility.yul\":8959:8988   */\n      tag_216\n        /* \"#utility.yul\":8977:8987   */\n      dup5\n        /* \"#utility.yul\":8959:8988   */\n      tag_96\n      jump\t// in\n    tag_216:\n        /* \"#utility.yul\":8949:8957   */\n      dup2\n        /* \"#utility.yul\":8945:8989   */\n      add\n        /* \"#utility.yul\":9142:9144   */\n      0x20\n        /* \"#utility.yul\":9130:9140   */\n      dup6\n        /* \"#utility.yul\":9127:9145   */\n      lt\n        /* \"#utility.yul\":9124:9173   */\n      iszero\n      tag_217\n      jumpi\n        /* \"#utility.yul\":9163:9171   */\n      dup2\n        /* \"#utility.yul\":9148:9171   */\n      swap1\n      pop\n        /* \"#utility.yul\":9124:9173   */\n    tag_217:\n        /* \"#utility.yul\":9186:9266   */\n      tag_218\n        /* \"#utility.yul\":9242:9264   */\n      tag_219\n        /* \"#utility.yul\":9260:9263   */\n      dup6\n        /* \"#utility.yul\":9242:9264   */\n      tag_96\n      jump\t// in\n    tag_219:\n        /* \"#utility.yul\":9232:9240   */\n      dup4\n        /* \"#utility.yul\":9228:9265   */\n      add\n        /* \"#utility.yul\":9215:9226   */\n      dup3\n        /* \"#utility.yul\":9186:9266   */\n      tag_105\n      jump\t// in\n    tag_218:\n        /* \"#utility.yul\":8845:9276   */\n      pop\n      pop\n        /* \"#utility.yul\":8830:9276   */\n    tag_214:\n        /* \"#utility.yul\":8740:9283   */\n      pop\n      pop\n      pop\n      jump\t// out\n        /* \"#utility.yul\":9289:9406   */\n    tag_107:\n        /* \"#utility.yul\":9343:9351   */\n      0x00\n        /* \"#utility.yul\":9393:9398   */\n      dup3\n        /* \"#utility.yul\":9387:9391   */\n      dup3\n        /* \"#utility.yul\":9383:9399   */\n      shr\n        /* \"#utility.yul\":9362:9399   */\n      swap1\n      pop\n        /* \"#utility.yul\":9289:9406   */\n      swap3\n      swap2\n      pop\n      pop\n      jump\t// out\n        /* \"#utility.yul\":9412:9581   */\n    tag_108:\n        /* \"#utility.yul\":9456:9462   */\n      0x00\n        /* \"#utility.yul\":9489:9540   */\n      tag_222\n        /* \"#utility.yul\":9537:9538   */\n      0x00\n        /* \"#utility.yul\":9533:9539   */\n      not\n        /* \"#utility.yul\":9525:9530   */\n      dup5\n        /* \"#utility.yul\":9522:9523   */\n      0x08\n        /* \"#utility.yul\":9518:9531   */\n      mul\n        /* \"#utility.yul\":9489:9540   */\n      tag_107\n      jump\t// in\n    tag_222:\n        /* \"#utility.yul\":9485:9541   */\n      not\n        /* \"#utility.yul\":9570:9574   */\n      dup1\n        /* \"#utility.yul\":9564:9568   */\n      dup4\n        /* \"#utility.yul\":9560:9575   */\n      and\n        /* \"#utility.yul\":9550:9575   */\n      swap2\n      pop\n        /* \"#utility.yul\":9463:9581   */\n      pop\n        /* \"#utility.yul\":9412:9581   */\n      swap3\n      swap2\n      pop\n      pop\n      jump\t// out\n        /* \"#utility.yul\":9586:9881   */\n    tag_109:\n        /* \"#utility.yul\":9662:9666   */\n      0x00\n        /* \"#utility.yul\":9808:9837   */\n      tag_224\n        /* \"#utility.yul\":9833:9836   */\n      dup4\n        /* \"#utility.yul\":9827:9831   */\n      dup4\n        /* \"#utility.yul\":9808:9837   */\n      tag_108\n      jump\t// in\n    tag_224:\n        /* \"#utility.yul\":9800:9837   */\n      swap2\n      pop\n        /* \"#utility.yul\":9870:9873   */\n      dup3\n        /* \"#utility.yul\":9867:9868   */\n      0x02\n        /* \"#utility.yul\":9863:9874   */\n      mul\n        /* \"#utility.yul\":9857:9861   */\n      dup3\n        /* \"#utility.yul\":9854:9875   */\n      or\n        /* \"#utility.yul\":9846:9875   */\n      swap1\n      pop\n        /* \"#utility.yul\":9586:9881   */\n      swap3\n      swap2\n      pop\n      pop\n      jump\t// out\n        /* \"#utility.yul\":9886:11281   */\n    tag_48:\n        /* \"#utility.yul\":10003:10040   */\n      tag_226\n        /* \"#utility.yul\":10036:10039   */\n      dup3\n        /* \"#utility.yul\":10003:10040   */\n      tag_89\n      jump\t// in\n    tag_226:\n        /* \"#utility.yul\":10105:10123   */\n      0xffffffffffffffff\n        /* \"#utility.yul\":10097:10103   */\n      dup2\n        /* \"#utility.yul\":10094:10124   */\n      gt\n        /* \"#utility.yul\":10091:10147   */\n      iszero\n      tag_227\n      jumpi\n        /* \"#utility.yul\":10127:10145   */\n      tag_228\n      tag_82\n      jump\t// in\n    tag_228:\n        /* \"#utility.yul\":10091:10147   */\n    tag_227:\n        /* \"#utility.yul\":10171:10209   */\n      tag_229\n        /* \"#utility.yul\":10203:10207   */\n      dup3\n        /* \"#utility.yul\":10197:10208   */\n      sload\n        /* \"#utility.yul\":10171:10209   */\n      tag_58\n      jump\t// in\n    tag_229:\n        /* \"#utility.yul\":10256:10323   */\n      tag_230\n        /* \"#utility.yul\":10316:10322   */\n      dup3\n        /* \"#utility.yul\":10308:10314   */\n      dup3\n        /* \"#utility.yul\":10302:10306   */\n      dup6\n        /* \"#utility.yul\":10256:10323   */\n      tag_106\n      jump\t// in\n    tag_230:\n        /* \"#utility.yul\":10350:10351   */\n      0x00\n        /* \"#utility.yul\":10374:10378   */\n      0x20\n        /* \"#utility.yul\":10361:10378   */\n      swap1\n      pop\n        /* \"#utility.yul\":10406:10408   */\n      0x1f\n        /* \"#utility.yul\":10398:10404   */\n      dup4\n        /* \"#utility.yul\":10395:10409   */\n      gt\n        /* \"#utility.yul\":10423:10424   */\n      0x01\n        /* \"#utility.yul\":10418:11036   */\n      dup2\n      eq\n      tag_232\n      jumpi\n        /* \"#utility.yul\":11080:11081   */\n      0x00\n        /* \"#utility.yul\":11097:11103   */\n      dup5\n        /* \"#utility.yul\":11094:11171   */\n      iszero\n      tag_233\n      jumpi\n        /* \"#utility.yul\":11146:11155   */\n      dup3\n        /* \"#utility.yul\":11141:11144   */\n      dup8\n        /* \"#utility.yul\":11137:11156   */\n      add\n        /* \"#utility.yul\":11131:11157   */\n      mload\n        /* \"#utility.yul\":11122:11157   */\n      swap1\n      pop\n        /* \"#utility.yul\":11094:11171   */\n    tag_233:\n        /* \"#utility.yul\":11197:11264   */\n      tag_234\n        /* \"#utility.yul\":11257:11263   */\n      dup6\n        /* \"#utility.yul\":11250:11255   */\n      dup3\n        /* \"#utility.yul\":11197:11264   */\n      tag_109\n      jump\t// in\n    tag_234:\n        /* \"#utility.yul\":11191:11195   */\n      dup7\n        /* \"#utility.yul\":11184:11265   */\n      sstore\n        /* \"#utility.yul\":11053:11275   */\n      pop\n        /* \"#utility.yul\":10388:11275   */\n      jump(tag_231)\n        /* \"#utility.yul\":10418:11036   */\n    tag_232:\n        /* \"#utility.yul\":10470:10474   */\n      0x1f\n        /* \"#utility.yul\":10466:10475   */\n      not\n        /* \"#utility.yul\":10458:10464   */\n      dup5\n        /* \"#utility.yul\":10454:10476   */\n      and\n        /* \"#utility.yul\":10504:10541   */\n      tag_235\n        /* \"#utility.yul\":10536:10540   */\n      dup7\n        /* \"#utility.yul\":10504:10541   */\n      tag_95\n      jump\t// in\n    tag_235:\n        /* \"#utility.yul\":10563:10564   */\n      0x00\n        /* \"#utility.yul\":10577:10785   */\n    tag_236:\n        /* \"#utility.yul\":10591:10598   */\n      dup3\n        /* \"#utility.yul\":10588:10589   */\n      dup2\n        /* \"#utility.yul\":10585:10599   */\n      lt\n        /* \"#utility.yul\":10577:10785   */\n      iszero\n      tag_238\n      jumpi\n        /* \"#utility.yul\":10670:10679   */\n      dup5\n        /* \"#utility.yul\":10665:10668   */\n      dup10\n        /* \"#utility.yul\":10661:10680   */\n      add\n        /* \"#utility.yul\":10655:10681   */\n      mload\n        /* \"#utility.yul\":10647:10653   */\n      dup3\n        /* \"#utility.yul\":10640:10682   */\n      sstore\n        /* \"#utility.yul\":10721:10722   */\n      0x01\n        /* \"#utility.yul\":10713:10719   */\n      dup3\n        /* \"#utility.yul\":10709:10723   */\n      add\n        /* \"#utility.yul\":10699:10723   */\n      swap2\n      pop\n        /* \"#utility.yul\":10768:10770   */\n      0x20\n        /* \"#utility.yul\":10757:10766   */\n      dup6\n        /* \"#utility.yul\":10753:10771   */\n      add\n        /* \"#utility.yul\":10740:10771   */\n      swap5\n      pop\n        /* \"#utility.yul\":10614:10618   */\n      0x20\n        /* \"#utility.yul\":10611:10612   */\n      dup2\n        /* \"#utility.yul\":10607:10619   */\n      add\n        /* \"#utility.yul\":10602:10619   */\n      swap1\n      pop\n        /* \"#utility.yul\":10577:10785   */\n      jump(tag_236)\n    tag_238:\n        /* \"#utility.yul\":10813:10819   */\n      dup7\n        /* \"#utility.yul\":10804:10811   */\n      dup4\n        /* \"#utility.yul\":10801:10820   */\n      lt\n        /* \"#utility.yul\":10798:10977   */\n      iszero\n      tag_239\n      jumpi\n        /* \"#utility.yul\":10871:10880   */\n      dup5\n        /* \"#utility.yul\":10866:10869   */\n      dup10\n        /* \"#utility.yul\":10862:10881   */\n      add\n        /* \"#utility.yul\":10856:10882   */\n      mload\n        /* \"#utility.yul\":10914:10962   */\n      tag_240\n        /* \"#utility.yul\":10956:10960   */\n      0x1f\n        /* \"#utility.yul\":10948:10954   */\n      dup10\n        /* \"#utility.yul\":10944:10961   */\n      and\n        /* \"#utility.yul\":10933:10942   */\n      dup3\n        /* \"#utility.yul\":10914:10962   */\n      tag_108\n      jump\t// in\n    tag_240:\n        /* \"#utility.yul\":10906:10912   */\n      dup4\n        /* \"#utility.yul\":10899:10963   */\n      sstore\n        /* \"#utility.yul\":10821:10977   */\n      pop\n        /* \"#utility.yul\":10798:10977   */\n    tag_239:\n        /* \"#utility.yul\":11023:11024   */\n      0x01\n        /* \"#utility.yul\":11019:11020   */\n      0x02\n        /* \"#utility.yul\":11011:11017   */\n      dup9\n        /* \"#utility.yul\":11007:11021   */\n      mul\n        /* \"#utility.yul\":11003:11025   */\n      add\n        /* \"#utility.yul\":10997:11001   */\n      dup9\n        /* \"#utility.yul\":10990:11026   */\n      sstore\n        /* \"#utility.yul\":10425:11036   */\n      pop\n      pop\n      pop\n        /* \"#utility.yul\":10388:11275   */\n    tag_231:\n      pop\n        /* \"#utility.yul\":9978:11281   */\n      pop\n      pop\n      pop\n        /* \"#utility.yul\":9886:11281   */\n      pop\n      pop\n      jump\t// out\n\n    auxdata: 0xa2646970667358221220b26144887de0717845c90e88455a9bec843b8994dc4b366dd3361d41403d433464736f6c63430008120033\n}\n",
				"bytecode": {
					"linkReferences": {},
					"object": "608060405234801561001057600080fd5b50610a3a806100206000396000f3fe608060405234801561001057600080fd5b506004361061009e5760003560e01c8063a1c5191511610066578063a1c51915146100e7578063b5e7bc6014610105578063d46300fd14610121578063ee919d501461013f578063f176a4b31461015b5761009e565b80630eefc91f146100a35780635e448e16146100bf57806371c59316146100c95780637a72b903146100d35780639b36f8da146100dd575b600080fd5b6100bd60048036038101906100b89190610559565b61017a565b005b6100c7610195565b005b6100d16101dc565b005b6100db610223565b005b6100e561022d565b005b6100ef610274565b6040516100fc9190610634565b60405180910390f35b61011f600480360381019061011a9190610656565b610306565b005b610129610319565b60405161013691906106ae565b60405180910390f35b610159600480360381019061015491906106c9565b610322565b005b61016361032c565b6040516101719291906106f6565b60405180910390f35b8160008190555080600190816101909190610932565b505050565b6040518060400160405280600181526020017f4300000000000000000000000000000000000000000000000000000000000000815250600190816101d99190610932565b50565b6040518060400160405280600381526020017f6162630000000000000000000000000000000000000000000000000000000000815250600190816102209190610932565b50565b6005600081905550565b6040518060400160405280600181526020017f6300000000000000000000000000000000000000000000000000000000000000815250600190816102719190610932565b50565b60606001805461028390610755565b80601f01602080910402602001604051908101604052809291908181526020018280546102af90610755565b80156102fc5780601f106102d1576101008083540402835291602001916102fc565b820191906000526020600020905b8154815290600101906020018083116102df57829003601f168201915b5050505050905090565b80600190816103159190610932565b5050565b60008054905090565b8060008190555050565b60006060600054600180805461034190610755565b80601f016020809104026020016040519081016040528092919081815260200182805461036d90610755565b80156103ba5780601f1061038f576101008083540402835291602001916103ba565b820191906000526020600020905b81548152906001019060200180831161039d57829003601f168201915b50505050509050915091509091565b6000604051905090565b600080fd5b600080fd5b6000819050919050565b6103f0816103dd565b81146103fb57600080fd5b50565b60008135905061040d816103e7565b92915050565b600080fd5b600080fd5b6000601f19601f8301169050919050565b7f4e487b7100000000000000000000000000000000000000000000000000000000600052604160045260246000fd5b6104668261041d565b810181811067ffffffffffffffff821117156104855761048461042e565b5b80604052505050565b60006104986103c9565b90506104a4828261045d565b919050565b600067ffffffffffffffff8211156104c4576104c361042e565b5b6104cd8261041d565b9050602081019050919050565b82818337600083830152505050565b60006104fc6104f7846104a9565b61048e565b90508281526020810184848401111561051857610517610418565b5b6105238482856104da565b509392505050565b600082601f8301126105405761053f610413565b5b81356105508482602086016104e9565b91505092915050565b600080604083850312156105705761056f6103d3565b5b600061057e858286016103fe565b925050602083013567ffffffffffffffff81111561059f5761059e6103d8565b5b6105ab8582860161052b565b9150509250929050565b600081519050919050565b600082825260208201905092915050565b60005b838110156105ef5780820151818401526020810190506105d4565b60008484015250505050565b6000610606826105b5565b61061081856105c0565b93506106208185602086016105d1565b6106298161041d565b840191505092915050565b6000602082019050818103600083015261064e81846105fb565b905092915050565b60006020828403121561066c5761066b6103d3565b5b600082013567ffffffffffffffff81111561068a576106896103d8565b5b6106968482850161052b565b91505092915050565b6106a8816103dd565b82525050565b60006020820190506106c3600083018461069f565b92915050565b6000602082840312156106df576106de6103d3565b5b60006106ed848285016103fe565b91505092915050565b600060408201905061070b600083018561069f565b818103602083015261071d81846105fb565b90509392505050565b7f4e487b7100000000000000000000000000000000000000000000000000000000600052602260045260246000fd5b6000600282049050600182168061076d57607f821691505b6020821081036107805761077f610726565b5b50919050565b60008190508160005260206000209050919050565b60006020601f8301049050919050565b600082821b905092915050565b6000600883026107e87fffffffffffffffffffffffffffffffffffffffffffffffffffffffffffffffff826107ab565b6107f286836107ab565b95508019841693508086168417925050509392505050565b6000819050919050565b600061082f61082a610825846103dd565b61080a565b6103dd565b9050919050565b6000819050919050565b61084983610814565b61085d61085582610836565b8484546107b8565b825550505050565b600090565b610872610865565b61087d818484610840565b505050565b5b818110156108a15761089660008261086a565b600181019050610883565b5050565b601f8211156108e6576108b781610786565b6108c08461079b565b810160208510156108cf578190505b6108e36108db8561079b565b830182610882565b50505b505050565b600082821c905092915050565b6000610909600019846008026108eb565b1980831691505092915050565b600061092283836108f8565b9150826002028217905092915050565b61093b826105b5565b67ffffffffffffffff8111156109545761095361042e565b5b61095e8254610755565b6109698282856108a5565b600060209050601f83116001811461099c576000841561098a578287015190505b6109948582610916565b8655506109fc565b601f1984166109aa86610786565b60005b828110156109d2578489015182556001820191506020850194506020810190506109ad565b868310156109ef57848901516109eb601f8916826108f8565b8355505b6001600288020188555050505b50505050505056fea2646970667358221220b26144887de0717845c90e88455a9bec843b8994dc4b366dd3361d41403d433464736f6c63430008120033",
					"opcodes": "PUSH1 0x80 PUSH1 0x40 MSTORE CALLVALUE DUP1 ISZERO PUSH2 0x10 JUMPI PUSH1 0x0 DUP1 REVERT JUMPDEST POP PUSH2 0xA3A DUP1 PUSH2 0x20 PUSH1 0x0 CODECOPY PUSH1 0x0 RETURN INVALID PUSH1 0x80 PUSH1 0x40 MSTORE CALLVALUE DUP1 ISZERO PUSH2 0x10 JUMPI PUSH1 0x0 DUP1 REVERT JUMPDEST POP PUSH1 0x4 CALLDATASIZE LT PUSH2 0x9E JUMPI PUSH1 0x0 CALLDATALOAD PUSH1 0xE0 SHR DUP1 PUSH4 0xA1C51915 GT PUSH2 0x66 JUMPI DUP1 PUSH4 0xA1C51915 EQ PUSH2 0xE7 JUMPI DUP1 PUSH4 0xB5E7BC60 EQ PUSH2 0x105 JUMPI DUP1 PUSH4 0xD46300FD EQ PUSH2 0x121 JUMPI DUP1 PUSH4 0xEE919D50 EQ PUSH2 0x13F JUMPI DUP1 PUSH4 0xF176A4B3 EQ PUSH2 0x15B JUMPI PUSH2 0x9E JUMP JUMPDEST DUP1 PUSH4 0xEEFC91F EQ PUSH2 0xA3 JUMPI DUP1 PUSH4 0x5E448E16 EQ PUSH2 0xBF JUMPI DUP1 PUSH4 0x71C59316 EQ PUSH2 0xC9 JUMPI DUP1 PUSH4 0x7A72B903 EQ PUSH2 0xD3 JUMPI DUP1 PUSH4 0x9B36F8DA EQ PUSH2 0xDD JUMPI JUMPDEST PUSH1 0x0 DUP1 REVERT JUMPDEST PUSH2 0xBD PUSH1 0x4 DUP1 CALLDATASIZE SUB DUP2 ADD SWAP1 PUSH2 0xB8 SWAP2 SWAP1 PUSH2 0x559 JUMP JUMPDEST PUSH2 0x17A JUMP JUMPDEST STOP JUMPDEST PUSH2 0xC7 PUSH2 0x195 JUMP JUMPDEST STOP JUMPDEST PUSH2 0xD1 PUSH2 0x1DC JUMP JUMPDEST STOP JUMPDEST PUSH2 0xDB PUSH2 0x223 JUMP JUMPDEST STOP JUMPDEST PUSH2 0xE5 PUSH2 0x22D JUMP JUMPDEST STOP JUMPDEST PUSH2 0xEF PUSH2 0x274 JUMP JUMPDEST PUSH1 0x40 MLOAD PUSH2 0xFC SWAP2 SWAP1 PUSH2 0x634 JUMP JUMPDEST PUSH1 0x40 MLOAD DUP1 SWAP2 SUB SWAP1 RETURN JUMPDEST PUSH2 0x11F PUSH1 0x4 DUP1 CALLDATASIZE SUB DUP2 ADD SWAP1 PUSH2 0x11A SWAP2 SWAP1 PUSH2 0x656 JUMP JUMPDEST PUSH2 0x306 JUMP JUMPDEST STOP JUMPDEST PUSH2 0x129 PUSH2 0x319 JUMP JUMPDEST PUSH1 0x40 MLOAD PUSH2 0x136 SWAP2 SWAP1 PUSH2 0x6AE JUMP JUMPDEST PUSH1 0x40 MLOAD DUP1 SWAP2 SUB SWAP1 RETURN JUMPDEST PUSH2 0x159 PUSH1 0x4 DUP1 CALLDATASIZE SUB DUP2 ADD SWAP1 PUSH2 0x154 SWAP2 SWAP1 PUSH2 0x6C9 JUMP JUMPDEST PUSH2 0x322 JUMP JUMPDEST STOP JUMPDEST PUSH2 0x163 PUSH2 0x32C JUMP JUMPDEST PUSH1 0x40 MLOAD PUSH2 0x171 SWAP3 SWAP2 SWAP1 PUSH2 0x6F6 JUMP JUMPDEST PUSH1 0x40 MLOAD DUP1 SWAP2 SUB SWAP1 RETURN JUMPDEST DUP2 PUSH1 0x0 DUP2 SWAP1 SSTORE POP DUP1 PUSH1 0x1 SWAP1 DUP2 PUSH2 0x190 SWAP2 SWAP1 PUSH2 0x932 JUMP JUMPDEST POP POP POP JUMP JUMPDEST PUSH1 0x40 MLOAD DUP1 PUSH1 0x40 ADD PUSH1 0x40 MSTORE DUP1 PUSH1 0x1 DUP2 MSTORE PUSH1 0x20 ADD PUSH32 0x4300000000000000000000000000000000000000000000000000000000000000 DUP2 MSTORE POP PUSH1 0x1 SWAP1 DUP2 PUSH2 0x1D9 SWAP2 SWAP1 PUSH2 0x932 JUMP JUMPDEST POP JUMP JUMPDEST PUSH1 0x40 MLOAD DUP1 PUSH1 0x40 ADD PUSH1 0x40 MSTORE DUP1 PUSH1 0x3 DUP2 MSTORE PUSH1 0x20 ADD PUSH32 0x6162630000000000000000000000000000000000000000000000000000000000 DUP2 MSTORE POP PUSH1 0x1 SWAP1 DUP2 PUSH2 0x220 SWAP2 SWAP1 PUSH2 0x932 JUMP JUMPDEST POP JUMP JUMPDEST PUSH1 0x5 PUSH1 0x0 DUP2 SWAP1 SSTORE POP JUMP JUMPDEST PUSH1 0x40 MLOAD DUP1 PUSH1 0x40 ADD PUSH1 0x40 MSTORE DUP1 PUSH1 0x1 DUP2 MSTORE PUSH1 0x20 ADD PUSH32 0x6300000000000000000000000000000000000000000000000000000000000000 DUP2 MSTORE POP PUSH1 0x1 SWAP1 DUP2 PUSH2 0x271 SWAP2 SWAP1 PUSH2 0x932 JUMP JUMPDEST POP JUMP JUMPDEST PUSH1 0x60 PUSH1 0x1 DUP1 SLOAD PUSH2 0x283 SWAP1 PUSH2 0x755 JUMP JUMPDEST DUP1 PUSH1 0x1F ADD PUSH1 0x20 DUP1 SWAP2 DIV MUL PUSH1 0x20 ADD PUSH1 0x40 MLOAD SWAP1 DUP2 ADD PUSH1 0x40 MSTORE DUP1 SWAP3 SWAP2 SWAP1 DUP2 DUP2 MSTORE PUSH1 0x20 ADD DUP3 DUP1 SLOAD PUSH2 0x2AF SWAP1 PUSH2 0x755 JUMP JUMPDEST DUP1 ISZERO PUSH2 0x2FC JUMPI DUP1 PUSH1 0x1F LT PUSH2 0x2D1 JUMPI PUSH2 0x100 DUP1 DUP4 SLOAD DIV MUL DUP4 MSTORE SWAP2 PUSH1 0x20 ADD SWAP2 PUSH2 0x2FC JUMP JUMPDEST DUP3 ADD SWAP2 SWAP1 PUSH1 0x0 MSTORE PUSH1 0x20 PUSH1 0x0 KECCAK256 SWAP1 JUMPDEST DUP2 SLOAD DUP2 MSTORE SWAP1 PUSH1 0x1 ADD SWAP1 PUSH1 0x20 ADD DUP1 DUP4 GT PUSH2 0x2DF JUMPI DUP3 SWAP1 SUB PUSH1 0x1F AND DUP3 ADD SWAP2 JUMPDEST POP POP POP POP POP SWAP1 POP SWAP1 JUMP JUMPDEST DUP1 PUSH1 0x1 SWAP1 DUP2 PUSH2 0x315 SWAP2 SWAP1 PUSH2 0x932 JUMP JUMPDEST POP POP JUMP JUMPDEST PUSH1 0x0 DUP1 SLOAD SWAP1 POP SWAP1 JUMP JUMPDEST DUP1 PUSH1 0x0 DUP2 SWAP1 SSTORE POP POP JUMP JUMPDEST PUSH1 0x0 PUSH1 0x60 PUSH1 0x0 SLOAD PUSH1 0x1 DUP1 DUP1 SLOAD PUSH2 0x341 SWAP1 PUSH2 0x755 JUMP JUMPDEST DUP1 PUSH1 0x1F ADD PUSH1 0x20 DUP1 SWAP2 DIV MUL PUSH1 0x20 ADD PUSH1 0x40 MLOAD SWAP1 DUP2 ADD PUSH1 0x40 MSTORE DUP1 SWAP3 SWAP2 SWAP1 DUP2 DUP2 MSTORE PUSH1 0x20 ADD DUP3 DUP1 SLOAD PUSH2 0x36D SWAP1 PUSH2 0x755 JUMP JUMPDEST DUP1 ISZERO PUSH2 0x3BA JUMPI DUP1 PUSH1 0x1F LT PUSH2 0x38F JUMPI PUSH2 0x100 DUP1 DUP4 SLOAD DIV MUL DUP4 MSTORE SWAP2 PUSH1 0x20 ADD SWAP2 PUSH2 0x3BA JUMP JUMPDEST DUP3 ADD SWAP2 SWAP1 PUSH1 0x0 MSTORE PUSH1 0x20 PUSH1 0x0 KECCAK256 SWAP1 JUMPDEST DUP2 SLOAD DUP2 MSTORE SWAP1 PUSH1 0x1 ADD SWAP1 PUSH1 0x20 ADD DUP1 DUP4 GT PUSH2 0x39D JUMPI DUP3 SWAP1 SUB PUSH1 0x1F AND DUP3 ADD SWAP2 JUMPDEST POP POP POP POP POP SWAP1 POP SWAP2 POP SWAP2 POP SWAP1 SWAP2 JUMP JUMPDEST PUSH1 0x0 PUSH1 0x40 MLOAD SWAP1 POP SWAP1 JUMP JUMPDEST PUSH1 0x0 DUP1 REVERT JUMPDEST PUSH1 0x0 DUP1 REVERT JUMPDEST PUSH1 0x0 DUP2 SWAP1 POP SWAP2 SWAP1 POP JUMP JUMPDEST PUSH2 0x3F0 DUP2 PUSH2 0x3DD JUMP JUMPDEST DUP2 EQ PUSH2 0x3FB JUMPI PUSH1 0x0 DUP1 REVERT JUMPDEST POP JUMP JUMPDEST PUSH1 0x0 DUP2 CALLDATALOAD SWAP1 POP PUSH2 0x40D DUP2 PUSH2 0x3E7 JUMP JUMPDEST SWAP3 SWAP2 POP POP JUMP JUMPDEST PUSH1 0x0 DUP1 REVERT JUMPDEST PUSH1 0x0 DUP1 REVERT JUMPDEST PUSH1 0x0 PUSH1 0x1F NOT PUSH1 0x1F DUP4 ADD AND SWAP1 POP SWAP2 SWAP1 POP JUMP JUMPDEST PUSH32 0x4E487B7100000000000000000000000000000000000000000000000000000000 PUSH1 0x0 MSTORE PUSH1 0x41 PUSH1 0x4 MSTORE PUSH1 0x24 PUSH1 0x0 REVERT JUMPDEST PUSH2 0x466 DUP3 PUSH2 0x41D JUMP JUMPDEST DUP2 ADD DUP2 DUP2 LT PUSH8 0xFFFFFFFFFFFFFFFF DUP3 GT OR ISZERO PUSH2 0x485 JUMPI PUSH2 0x484 PUSH2 0x42E JUMP JUMPDEST JUMPDEST DUP1 PUSH1 0x40 MSTORE POP POP POP JUMP JUMPDEST PUSH1 0x0 PUSH2 0x498 PUSH2 0x3C9 JUMP JUMPDEST SWAP1 POP PUSH2 0x4A4 DUP3 DUP3 PUSH2 0x45D JUMP JUMPDEST SWAP2 SWAP1 POP JUMP JUMPDEST PUSH1 0x0 PUSH8 0xFFFFFFFFFFFFFFFF DUP3 GT ISZERO PUSH2 0x4C4 JUMPI PUSH2 0x4C3 PUSH2 0x42E JUMP JUMPDEST JUMPDEST PUSH2 0x4CD DUP3 PUSH2 0x41D JUMP JUMPDEST SWAP1 POP PUSH1 0x20 DUP2 ADD SWAP1 POP SWAP2 SWAP1 POP JUMP JUMPDEST DUP3 DUP2 DUP4 CALLDATACOPY PUSH1 0x0 DUP4 DUP4 ADD MSTORE POP POP POP JUMP JUMPDEST PUSH1 0x0 PUSH2 0x4FC PUSH2 0x4F7 DUP5 PUSH2 0x4A9 JUMP JUMPDEST PUSH2 0x48E JUMP JUMPDEST SWAP1 POP DUP3 DUP2 MSTORE PUSH1 0x20 DUP2 ADD DUP5 DUP5 DUP5 ADD GT ISZERO PUSH2 0x518 JUMPI PUSH2 0x517 PUSH2 0x418 JUMP JUMPDEST JUMPDEST PUSH2 0x523 DUP5 DUP3 DUP6 PUSH2 0x4DA JUMP JUMPDEST POP SWAP4 SWAP3 POP POP POP JUMP JUMPDEST PUSH1 0x0 DUP3 PUSH1 0x1F DUP4 ADD SLT PUSH2 0x540 JUMPI PUSH2 0x53F PUSH2 0x413 JUMP JUMPDEST JUMPDEST DUP2 CALLDATALOAD PUSH2 0x550 DUP5 DUP3 PUSH1 0x20 DUP7 ADD PUSH2 0x4E9 JUMP JUMPDEST SWAP2 POP POP SWAP3 SWAP2 POP POP JUMP JUMPDEST PUSH1 0x0 DUP1 PUSH1 0x40 DUP4 DUP6 SUB SLT ISZERO PUSH2 0x570 JUMPI PUSH2 0x56F PUSH2 0x3D3 JUMP JUMPDEST JUMPDEST PUSH1 0x0 PUSH2 0x57E DUP6 DUP3 DUP7 ADD PUSH2 0x3FE JUMP JUMPDEST SWAP3 POP POP PUSH1 0x20 DUP4 ADD CALLDATALOAD PUSH8 0xFFFFFFFFFFFFFFFF DUP2 GT ISZERO PUSH2 0x59F JUMPI PUSH2 0x59E PUSH2 0x3D8 JUMP JUMPDEST JUMPDEST PUSH2 0x5AB DUP6 DUP3 DUP7 ADD PUSH2 0x52B JUMP JUMPDEST SWAP2 POP POP SWAP3 POP SWAP3 SWAP1 POP JUMP JUMPDEST PUSH1 0x0 DUP2 MLOAD SWAP1 POP SWAP2 SWAP1 POP JUMP JUMPDEST PUSH1 0x0 DUP3 DUP3 MSTORE PUSH1 0x20 DUP3 ADD SWAP1 POP SWAP3 SWAP2 POP POP JUMP JUMPDEST PUSH1 0x0 JUMPDEST DUP4 DUP2 LT ISZERO PUSH2 0x5EF JUMPI DUP1 DUP3 ADD MLOAD DUP2 DUP5 ADD MSTORE PUSH1 0x20 DUP2 ADD SWAP1 POP PUSH2 0x5D4 JUMP JUMPDEST PUSH1 0x0 DUP5 DUP5 ADD MSTORE POP POP POP POP JUMP JUMPDEST PUSH1 0x0 PUSH2 0x606 DUP3 PUSH2 0x5B5 JUMP JUMPDEST PUSH2 0x610 DUP2 DUP6 PUSH2 0x5C0 JUMP JUMPDEST SWAP4 POP PUSH2 0x620 DUP2 DUP6 PUSH1 0x20 DUP7 ADD PUSH2 0x5D1 JUMP JUMPDEST PUSH2 0x629 DUP2 PUSH2 0x41D JUMP JUMPDEST DUP5 ADD SWAP2 POP POP SWAP3 SWAP2 POP POP JUMP JUMPDEST PUSH1 0x0 PUSH1 0x20 DUP3 ADD SWAP1 POP DUP2 DUP2 SUB PUSH1 0x0 DUP4 ADD MSTORE PUSH2 0x64E DUP2 DUP5 PUSH2 0x5FB JUMP JUMPDEST SWAP1 POP SWAP3 SWAP2 POP POP JUMP JUMPDEST PUSH1 0x0 PUSH1 0x20 DUP3 DUP5 SUB SLT ISZERO PUSH2 0x66C JUMPI PUSH2 0x66B PUSH2 0x3D3 JUMP JUMPDEST JUMPDEST PUSH1 0x0 DUP3 ADD CALLDATALOAD PUSH8 0xFFFFFFFFFFFFFFFF DUP2 GT ISZERO PUSH2 0x68A JUMPI PUSH2 0x689 PUSH2 0x3D8 JUMP JUMPDEST JUMPDEST PUSH2 0x696 DUP5 DUP3 DUP6 ADD PUSH2 0x52B JUMP JUMPDEST SWAP2 POP POP SWAP3 SWAP2 POP POP JUMP JUMPDEST PUSH2 0x6A8 DUP2 PUSH2 0x3DD JUMP JUMPDEST DUP3 MSTORE POP POP JUMP JUMPDEST PUSH1 0x0 PUSH1 0x20 DUP3 ADD SWAP1 POP PUSH2 0x6C3 PUSH1 0x0 DUP4 ADD DUP5 PUSH2 0x69F JUMP JUMPDEST SWAP3 SWAP2 POP POP JUMP JUMPDEST PUSH1 0x0 PUSH1 0x20 DUP3 DUP5 SUB SLT ISZERO PUSH2 0x6DF JUMPI PUSH2 0x6DE PUSH2 0x3D3 JUMP JUMPDEST JUMPDEST PUSH1 0x0 PUSH2 0x6ED DUP5 DUP3 DUP6 ADD PUSH2 0x3FE JUMP JUMPDEST SWAP2 POP POP SWAP3 SWAP2 POP POP JUMP JUMPDEST PUSH1 0x0 PUSH1 0x40 DUP3 ADD SWAP1 POP PUSH2 0x70B PUSH1 0x0 DUP4 ADD DUP6 PUSH2 0x69F JUMP JUMPDEST DUP2 DUP2 SUB PUSH1 0x20 DUP4 ADD MSTORE PUSH2 0x71D DUP2 DUP5 PUSH2 0x5FB JUMP JUMPDEST SWAP1 POP SWAP4 SWAP3 POP POP POP JUMP JUMPDEST PUSH32 0x4E487B7100000000000000000000000000000000000000000000000000000000 PUSH1 0x0 MSTORE PUSH1 0x22 PUSH1 0x4 MSTORE PUSH1 0x24 PUSH1 0x0 REVERT JUMPDEST PUSH1 0x0 PUSH1 0x2 DUP3 DIV SWAP1 POP PUSH1 0x1 DUP3 AND DUP1 PUSH2 0x76D JUMPI PUSH1 0x7F DUP3 AND SWAP2 POP JUMPDEST PUSH1 0x20 DUP3 LT DUP2 SUB PUSH2 0x780 JUMPI PUSH2 0x77F PUSH2 0x726 JUMP JUMPDEST JUMPDEST POP SWAP2 SWAP1 POP JUMP JUMPDEST PUSH1 0x0 DUP2 SWAP1 POP DUP2 PUSH1 0x0 MSTORE PUSH1 0x20 PUSH1 0x0 KECCAK256 SWAP1 POP SWAP2 SWAP1 POP JUMP JUMPDEST PUSH1 0x0 PUSH1 0x20 PUSH1 0x1F DUP4 ADD DIV SWAP1 POP SWAP2 SWAP1 POP JUMP JUMPDEST PUSH1 0x0 DUP3 DUP3 SHL SWAP1 POP SWAP3 SWAP2 POP POP JUMP JUMPDEST PUSH1 0x0 PUSH1 0x8 DUP4 MUL PUSH2 0x7E8 PUSH32 0xFFFFFFFFFFFFFFFFFFFFFFFFFFFFFFFFFFFFFFFFFFFFFFFFFFFFFFFFFFFFFFFF DUP3 PUSH2 0x7AB JUMP JUMPDEST PUSH2 0x7F2 DUP7 DUP4 PUSH2 0x7AB JUMP JUMPDEST SWAP6 POP DUP1 NOT DUP5 AND SWAP4 POP DUP1 DUP7 AND DUP5 OR SWAP3 POP POP POP SWAP4 SWAP3 POP POP POP JUMP JUMPDEST PUSH1 0x0 DUP2 SWAP1 POP SWAP2 SWAP1 POP JUMP JUMPDEST PUSH1 0x0 PUSH2 0x82F PUSH2 0x82A PUSH2 0x825 DUP5 PUSH2 0x3DD JUMP JUMPDEST PUSH2 0x80A JUMP JUMPDEST PUSH2 0x3DD JUMP JUMPDEST SWAP1 POP SWAP2 SWAP1 POP JUMP JUMPDEST PUSH1 0x0 DUP2 SWAP1 POP SWAP2 SWAP1 POP JUMP JUMPDEST PUSH2 0x849 DUP4 PUSH2 0x814 JUMP JUMPDEST PUSH2 0x85D PUSH2 0x855 DUP3 PUSH2 0x836 JUMP JUMPDEST DUP5 DUP5 SLOAD PUSH2 0x7B8 JUMP JUMPDEST DUP3 SSTORE POP POP POP POP JUMP JUMPDEST PUSH1 0x0 SWAP1 JUMP JUMPDEST PUSH2 0x872 PUSH2 0x865 JUMP JUMPDEST PUSH2 0x87D DUP2 DUP5 DUP5 PUSH2 0x840 JUMP JUMPDEST POP POP POP JUMP JUMPDEST JUMPDEST DUP2 DUP2 LT ISZERO PUSH2 0x8A1 JUMPI PUSH2 0x896 PUSH1 0x0 DUP3 PUSH2 0x86A JUMP JUMPDEST PUSH1 0x1 DUP2 ADD SWAP1 POP PUSH2 0x883 JUMP JUMPDEST POP POP JUMP JUMPDEST PUSH1 0x1F DUP3 GT ISZERO PUSH2 0x8E6 JUMPI PUSH2 0x8B7 DUP2 PUSH2 0x786 JUMP JUMPDEST PUSH2 0x8C0 DUP5 PUSH2 0x79B JUMP JUMPDEST DUP2 ADD PUSH1 0x20 DUP6 LT ISZERO PUSH2 0x8CF JUMPI DUP2 SWAP1 POP JUMPDEST PUSH2 0x8E3 PUSH2 0x8DB DUP6 PUSH2 0x79B JUMP JUMPDEST DUP4 ADD DUP3 PUSH2 0x882 JUMP JUMPDEST POP POP JUMPDEST POP POP POP JUMP JUMPDEST PUSH1 0x0 DUP3 DUP3 SHR SWAP1 POP SWAP3 SWAP2 POP POP JUMP JUMPDEST PUSH1 0x0 PUSH2 0x909 PUSH1 0x0 NOT DUP5 PUSH1 0x8 MUL PUSH2 0x8EB JUMP JUMPDEST NOT DUP1 DUP4 AND SWAP2 POP POP SWAP3 SWAP2 POP POP JUMP JUMPDEST PUSH1 0x0 PUSH2 0x922 DUP4 DUP4 PUSH2 0x8F8 JUMP JUMPDEST SWAP2 POP DUP3 PUSH1 0x2 MUL DUP3 OR SWAP1 POP SWAP3 SWAP2 POP POP JUMP JUMPDEST PUSH2 0x93B DUP3 PUSH2 0x5B5 JUMP JUMPDEST PUSH8 0xFFFFFFFFFFFFFFFF DUP2 GT ISZERO PUSH2 0x954 JUMPI PUSH2 0x953 PUSH2 0x42E JUMP JUMPDEST JUMPDEST PUSH2 0x95E DUP3 SLOAD PUSH2 0x755 JUMP JUMPDEST PUSH2 0x969 DUP3 DUP3 DUP6 PUSH2 0x8A5 JUMP JUMPDEST PUSH1 0x0 PUSH1 0x20 SWAP1 POP PUSH1 0x1F DUP4 GT PUSH1 0x1 DUP2 EQ PUSH2 0x99C JUMPI PUSH1 0x0 DUP5 ISZERO PUSH2 0x98A JUMPI DUP3 DUP8 ADD MLOAD SWAP1 POP JUMPDEST PUSH2 0x994 DUP6 DUP3 PUSH2 0x916 JUMP JUMPDEST DUP7 SSTORE POP PUSH2 0x9FC JUMP JUMPDEST PUSH1 0x1F NOT DUP5 AND PUSH2 0x9AA DUP7 PUSH2 0x786 JUMP JUMPDEST PUSH1 0x0 JUMPDEST DUP3 DUP2 LT ISZERO PUSH2 0x9D2 JUMPI DUP5 DUP10 ADD MLOAD DUP3 SSTORE PUSH1 0x1 DUP3 ADD SWAP2 POP PUSH1 0x20 DUP6 ADD SWAP5 POP PUSH1 0x20 DUP2 ADD SWAP1 POP PUSH2 0x9AD JUMP JUMPDEST DUP7 DUP4 LT ISZERO PUSH2 0x9EF JUMPI DUP5 DUP10 ADD MLOAD PUSH2 0x9EB PUSH1 0x1F DUP10 AND DUP3 PUSH2 0x8F8 JUMP JUMPDEST DUP4 SSTORE POP JUMPDEST PUSH1 0x1 PUSH1 0x2 DUP9 MUL ADD DUP9 SSTORE POP POP POP JUMPDEST POP POP POP POP POP POP JUMP INVALID LOG2 PUSH5 0x6970667358 0x22 SLT KECCAK256 0xB2 PUSH2 0x4488 PUSH30 0xE0717845C90E88455A9BEC843B8994DC4B366DD3361D41403D433464736F PUSH13 0x63430008120033000000000000 "
				},
				"gasEstimates": {
					"creation": {
						"codeDepositCost": "523600",
						"executionCost": "556",
						"totalCost": "524156"
					},
					"external": {
						"getA()": "2481",
						"getAandB()": "infinite",
						"getB()": "infinite",
						"setA(uint256)": "22586",
						"setAandB(uint256,string)": "infinite",
						"setAasFive()": "22325",
						"setB(string)": "infinite",
						"setBasABC()": "infinite",
						"setBasC()": "infinite",
						"setBasC2()": "infinite"
					}
				},
				"methodIdentifiers": {
					"getA()": "d46300fd",
					"getAandB()": "f176a4b3",
					"getB()": "a1c51915",
					"setA(uint256)": "ee919d50",
					"setAandB(uint256,string)": "0eefc91f",
					"setAasFive()": "7a72b903",
					"setB(string)": "b5e7bc60",
					"setBasABC()": "71c59316",
					"setBasC()": "9b36f8da",
					"setBasC2()": "5e448e16"
				}
			},
			"storageLayout": {
				"storage": [
					{
						"astId": 3,
						"contract": "contracts/230503_1.sol:UintandString",
						"label": "a",
						"offset": 0,
						"slot": "0",
						"type": "t_uint256"
					},
					{
						"astId": 5,
						"contract": "contracts/230503_1.sol:UintandString",
						"label": "b",
						"offset": 0,
						"slot": "1",
						"type": "t_string_storage"
					}
				],
				"types": {
					"t_string_storage": {
						"encoding": "bytes",
						"label": "string",
						"numberOfBytes": "32"
					},
					"t_uint256": {
						"encoding": "inplace",
						"label": "uint256",
						"numberOfBytes": "32"
					}
				}
			},
			"userdoc": {
				"kind": "user",
				"methods": {},
				"version": 1
			}
		}
	}
}