{
	"contracts/230502_basic_1.sol": {
		"StoreandReturn": {
			"abi": [
				{
					"inputs": [
						{
							"internalType": "uint256",
							"name": "_aa",
							"type": "uint256"
						},
						{
							"internalType": "uint256",
							"name": "_bb",
							"type": "uint256"
						}
					],
					"name": "Add",
					"outputs": [
						{
							"internalType": "uint256",
							"name": "",
							"type": "uint256"
						}
					],
					"stateMutability": "pure",
					"type": "function"
				},
				{
					"inputs": [],
					"name": "Add2",
					"outputs": [
						{
							"internalType": "uint256",
							"name": "",
							"type": "uint256"
						}
					],
					"stateMutability": "view",
					"type": "function"
				},
				{
					"inputs": [],
					"name": "getA",
					"outputs": [
						{
							"internalType": "uint256",
							"name": "",
							"type": "uint256"
						}
					],
					"stateMutability": "view",
					"type": "function"
				},
				{
					"inputs": [],
					"name": "getAB",
					"outputs": [
						{
							"internalType": "uint256",
							"name": "",
							"type": "uint256"
						},
						{
							"internalType": "uint256",
							"name": "",
							"type": "uint256"
						}
					],
					"stateMutability": "view",
					"type": "function"
				},
				{
					"inputs": [],
					"name": "getABC",
					"outputs": [
						{
							"internalType": "uint256",
							"name": "",
							"type": "uint256"
						},
						{
							"internalType": "uint256",
							"name": "",
							"type": "uint256"
						},
						{
							"internalType": "uint256",
							"name": "",
							"type": "uint256"
						}
					],
					"stateMutability": "view",
					"type": "function"
				},
				{
					"inputs": [],
					"name": "getB",
					"outputs": [
						{
							"internalType": "uint256",
							"name": "",
							"type": "uint256"
						}
					],
					"stateMutability": "view",
					"type": "function"
				},
				{
					"inputs": [
						{
							"internalType": "uint256",
							"name": "_a",
							"type": "uint256"
						}
					],
					"name": "setA",
					"outputs": [],
					"stateMutability": "nonpayable",
					"type": "function"
				},
				{
					"inputs": [],
					"name": "setAasFive",
					"outputs": [],
					"stateMutability": "nonpayable",
					"type": "function"
				},
				{
					"inputs": [
						{
							"internalType": "uint256",
							"name": "_b",
							"type": "uint256"
						}
					],
					"name": "setB",
					"outputs": [],
					"stateMutability": "nonpayable",
					"type": "function"
				},
				{
					"inputs": [],
					"name": "setBasSeven",
					"outputs": [],
					"stateMutability": "nonpayable",
					"type": "function"
				}
			],
			"devdoc": {
				"kind": "dev",
				"methods": {},
				"version": 1
			},
			"evm": {
				"assembly": "    /* \"contracts/230502_basic_1.sol\":63:1626  contract StoreandReturn {... */\n  mstore(0x40, 0x80)\n    /* \"contracts/230502_basic_1.sol\":166:167  2 */\n  0x02\n    /* \"contracts/230502_basic_1.sol\":159:167  uint c=2 */\n  dup1\n  sstore\n    /* \"contracts/230502_basic_1.sol\":63:1626  contract StoreandReturn {... */\n  callvalue\n  dup1\n  iszero\n  tag_1\n  jumpi\n  0x00\n  dup1\n  revert\ntag_1:\n  pop\n  dataSize(sub_0)\n  dup1\n  dataOffset(sub_0)\n  0x00\n  codecopy\n  0x00\n  return\nstop\n\nsub_0: assembly {\n        /* \"contracts/230502_basic_1.sol\":63:1626  contract StoreandReturn {... */\n      mstore(0x40, 0x80)\n      callvalue\n      dup1\n      iszero\n      tag_1\n      jumpi\n      0x00\n      dup1\n      revert\n    tag_1:\n      pop\n      jumpi(tag_2, lt(calldatasize, 0x04))\n      shr(0xe0, calldataload(0x00))\n      dup1\n      0x7afbe4f1\n      gt\n      tag_13\n      jumpi\n      dup1\n      0x7afbe4f1\n      eq\n      tag_8\n      jumpi\n      dup1\n      0x87522f79\n      eq\n      tag_9\n      jumpi\n      dup1\n      0xa1c51915\n      eq\n      tag_10\n      jumpi\n      dup1\n      0xd46300fd\n      eq\n      tag_11\n      jumpi\n      dup1\n      0xee919d50\n      eq\n      tag_12\n      jumpi\n      jump(tag_2)\n    tag_13:\n      dup1\n      0x09cdcf9b\n      eq\n      tag_3\n      jumpi\n      dup1\n      0x2b06cb2d\n      eq\n      tag_4\n      jumpi\n      dup1\n      0x40c65ff1\n      eq\n      tag_5\n      jumpi\n      dup1\n      0x6187f692\n      eq\n      tag_6\n      jumpi\n      dup1\n      0x7a72b903\n      eq\n      tag_7\n      jumpi\n    tag_2:\n      0x00\n      dup1\n      revert\n        /* \"contracts/230502_basic_1.sol\":588:641  function setB(uint _b) public {... */\n    tag_3:\n      tag_14\n      0x04\n      dup1\n      calldatasize\n      sub\n      dup2\n      add\n      swap1\n      tag_15\n      swap2\n      swap1\n      tag_16\n      jump\t// in\n    tag_15:\n      tag_17\n      jump\t// in\n    tag_14:\n      stop\n        /* \"contracts/230502_basic_1.sol\":808:887  function getAB() public view returns(uint, uint) {... */\n    tag_4:\n      tag_18\n      tag_19\n      jump\t// in\n    tag_18:\n      mload(0x40)\n      tag_20\n      swap3\n      swap2\n      swap1\n      tag_21\n      jump\t// in\n    tag_20:\n      mload(0x40)\n      dup1\n      swap2\n      sub\n      swap1\n      return\n        /* \"contracts/230502_basic_1.sol\":647:697  function setBasSeven() public {... */\n    tag_5:\n      tag_22\n      tag_23\n      jump\t// in\n    tag_22:\n      stop\n        /* \"contracts/230502_basic_1.sol\":1502:1624  function Add2() public view/*상태변수를 갖고오기 때문에 view로로*/ returns(uint) {... */\n    tag_6:\n      tag_24\n      tag_25\n      jump\t// in\n    tag_24:\n      mload(0x40)\n      tag_26\n      swap2\n      swap1\n      tag_27\n      jump\t// in\n    tag_26:\n      mload(0x40)\n      dup1\n      swap2\n      sub\n      swap1\n      return\n        /* \"contracts/230502_basic_1.sol\":458:509  function setAasFive() public {... */\n    tag_7:\n      tag_28\n      tag_29\n      jump\t// in\n    tag_28:\n      stop\n        /* \"contracts/230502_basic_1.sol\":1232:1373  function Add(uint _aa, uint _bb) public pure/*상태변수는 하나도 필요없을 때 pure*/ returns(uint) {... */\n    tag_8:\n      tag_30\n      0x04\n      dup1\n      calldatasize\n      sub\n      dup2\n      add\n      swap1\n      tag_31\n      swap2\n      swap1\n      tag_32\n      jump\t// in\n    tag_31:\n      tag_33\n      jump\t// in\n    tag_30:\n      mload(0x40)\n      tag_34\n      swap2\n      swap1\n      tag_27\n      jump\t// in\n    tag_34:\n      mload(0x40)\n      dup1\n      swap2\n      sub\n      swap1\n      return\n        /* \"contracts/230502_basic_1.sol\":893:980  function getABC() public view returns(uint, uint, uint) {... */\n    tag_9:\n      tag_35\n      tag_36\n      jump\t// in\n    tag_35:\n      mload(0x40)\n      tag_37\n      swap4\n      swap3\n      swap2\n      swap1\n      tag_38\n      jump\t// in\n    tag_37:\n      mload(0x40)\n      dup1\n      swap2\n      sub\n      swap1\n      return\n        /* \"contracts/230502_basic_1.sol\":515:582  function getB() public view returns(uint) {... */\n    tag_10:\n      tag_39\n      tag_40\n      jump\t// in\n    tag_39:\n      mload(0x40)\n      tag_41\n      swap2\n      swap1\n      tag_27\n      jump\t// in\n    tag_41:\n      mload(0x40)\n      dup1\n      swap2\n      sub\n      swap1\n      return\n        /* \"contracts/230502_basic_1.sol\":326:393  function getA() public view returns(uint) {... */\n    tag_11:\n      tag_42\n      tag_43\n      jump\t// in\n    tag_42:\n      mload(0x40)\n      tag_44\n      swap2\n      swap1\n      tag_27\n      jump\t// in\n    tag_44:\n      mload(0x40)\n      dup1\n      swap2\n      sub\n      swap1\n      return\n        /* \"contracts/230502_basic_1.sol\":399:452  function setA(uint _a) public {... */\n    tag_12:\n      tag_45\n      0x04\n      dup1\n      calldatasize\n      sub\n      dup2\n      add\n      swap1\n      tag_46\n      swap2\n      swap1\n      tag_16\n      jump\t// in\n    tag_46:\n      tag_47\n      jump\t// in\n    tag_45:\n      stop\n        /* \"contracts/230502_basic_1.sol\":588:641  function setB(uint _b) public {... */\n    tag_17:\n        /* \"contracts/230502_basic_1.sol\":632:634  _b */\n      dup1\n        /* \"contracts/230502_basic_1.sol\":628:629  b */\n      0x01\n        /* \"contracts/230502_basic_1.sol\":628:634  b = _b */\n      dup2\n      swap1\n      sstore\n      pop\n        /* \"contracts/230502_basic_1.sol\":588:641  function setB(uint _b) public {... */\n      pop\n      jump\t// out\n        /* \"contracts/230502_basic_1.sol\":808:887  function getAB() public view returns(uint, uint) {... */\n    tag_19:\n        /* \"contracts/230502_basic_1.sol\":845:849  uint */\n      0x00\n        /* \"contracts/230502_basic_1.sol\":851:855  uint */\n      dup1\n        /* \"contracts/230502_basic_1.sol\":875:876  a */\n      sload(0x00)\n        /* \"contracts/230502_basic_1.sol\":878:879  b */\n      sload(0x01)\n        /* \"contracts/230502_basic_1.sol\":867:880  return (a, b) */\n      swap2\n      pop\n      swap2\n      pop\n        /* \"contracts/230502_basic_1.sol\":808:887  function getAB() public view returns(uint, uint) {... */\n      swap1\n      swap2\n      jump\t// out\n        /* \"contracts/230502_basic_1.sol\":647:697  function setBasSeven() public {... */\n    tag_23:\n        /* \"contracts/230502_basic_1.sol\":689:690  7 */\n      0x07\n        /* \"contracts/230502_basic_1.sol\":687:688  b */\n      0x01\n        /* \"contracts/230502_basic_1.sol\":687:690  b=7 */\n      dup2\n      swap1\n      sstore\n      pop\n        /* \"contracts/230502_basic_1.sol\":647:697  function setBasSeven() public {... */\n      jump\t// out\n        /* \"contracts/230502_basic_1.sol\":1502:1624  function Add2() public view/*상태변수를 갖고오기 때문에 view로로*/ returns(uint) {... */\n    tag_25:\n        /* \"contracts/230502_basic_1.sol\":1591:1595  uint */\n      0x00\n        /* \"contracts/230502_basic_1.sol\":1616:1617  b */\n      sload(0x01)\n        /* \"contracts/230502_basic_1.sol\":1614:1615  a */\n      sload(0x00)\n        /* \"contracts/230502_basic_1.sol\":1614:1617  a+b */\n      tag_52\n      swap2\n      swap1\n      tag_53\n      jump\t// in\n    tag_52:\n        /* \"contracts/230502_basic_1.sol\":1607:1617  return a+b */\n      swap1\n      pop\n        /* \"contracts/230502_basic_1.sol\":1502:1624  function Add2() public view/*상태변수를 갖고오기 때문에 view로로*/ returns(uint) {... */\n      swap1\n      jump\t// out\n        /* \"contracts/230502_basic_1.sol\":458:509  function setAasFive() public {... */\n    tag_29:\n        /* \"contracts/230502_basic_1.sol\":501:502  5 */\n      0x05\n        /* \"contracts/230502_basic_1.sol\":497:498  a */\n      0x00\n        /* \"contracts/230502_basic_1.sol\":497:502  a = 5 */\n      dup2\n      swap1\n      sstore\n      pop\n        /* \"contracts/230502_basic_1.sol\":458:509  function setAasFive() public {... */\n      jump\t// out\n        /* \"contracts/230502_basic_1.sol\":1232:1373  function Add(uint _aa, uint _bb) public pure/*상태변수는 하나도 필요없을 때 pure*/ returns(uint) {... */\n    tag_33:\n        /* \"contracts/230502_basic_1.sol\":1336:1340  uint */\n      0x00\n        /* \"contracts/230502_basic_1.sol\":1363:1366  _bb */\n      dup2\n        /* \"contracts/230502_basic_1.sol\":1359:1362  _aa */\n      dup4\n        /* \"contracts/230502_basic_1.sol\":1359:1366  _aa+_bb */\n      tag_56\n      swap2\n      swap1\n      tag_53\n      jump\t// in\n    tag_56:\n        /* \"contracts/230502_basic_1.sol\":1352:1366  return _aa+_bb */\n      swap1\n      pop\n        /* \"contracts/230502_basic_1.sol\":1232:1373  function Add(uint _aa, uint _bb) public pure/*상태변수는 하나도 필요없을 때 pure*/ returns(uint) {... */\n      swap3\n      swap2\n      pop\n      pop\n      jump\t// out\n        /* \"contracts/230502_basic_1.sol\":893:980  function getABC() public view returns(uint, uint, uint) {... */\n    tag_36:\n        /* \"contracts/230502_basic_1.sol\":931:935  uint */\n      0x00\n        /* \"contracts/230502_basic_1.sol\":937:941  uint */\n      dup1\n        /* \"contracts/230502_basic_1.sol\":943:947  uint */\n      0x00\n        /* \"contracts/230502_basic_1.sol\":967:968  a */\n      dup1\n      sload\n        /* \"contracts/230502_basic_1.sol\":969:970  b */\n      sload(0x01)\n        /* \"contracts/230502_basic_1.sol\":971:972  c */\n      sload(0x02)\n        /* \"contracts/230502_basic_1.sol\":959:973  return (a,b,c) */\n      swap3\n      pop\n      swap3\n      pop\n      swap3\n      pop\n        /* \"contracts/230502_basic_1.sol\":893:980  function getABC() public view returns(uint, uint, uint) {... */\n      swap1\n      swap2\n      swap3\n      jump\t// out\n        /* \"contracts/230502_basic_1.sol\":515:582  function getB() public view returns(uint) {... */\n    tag_40:\n        /* \"contracts/230502_basic_1.sol\":551:555  uint */\n      0x00\n        /* \"contracts/230502_basic_1.sol\":574:575  b */\n      sload(0x01)\n        /* \"contracts/230502_basic_1.sol\":567:575  return b */\n      swap1\n      pop\n        /* \"contracts/230502_basic_1.sol\":515:582  function getB() public view returns(uint) {... */\n      swap1\n      jump\t// out\n        /* \"contracts/230502_basic_1.sol\":326:393  function getA() public view returns(uint) {... */\n    tag_43:\n        /* \"contracts/230502_basic_1.sol\":362:366  uint */\n      0x00\n        /* \"contracts/230502_basic_1.sol\":385:386  a */\n      dup1\n      sload\n        /* \"contracts/230502_basic_1.sol\":378:386  return a */\n      swap1\n      pop\n        /* \"contracts/230502_basic_1.sol\":326:393  function getA() public view returns(uint) {... */\n      swap1\n      jump\t// out\n        /* \"contracts/230502_basic_1.sol\":399:452  function setA(uint _a) public {... */\n    tag_47:\n        /* \"contracts/230502_basic_1.sol\":443:445  _a */\n      dup1\n        /* \"contracts/230502_basic_1.sol\":439:440  a */\n      0x00\n        /* \"contracts/230502_basic_1.sol\":439:445  a = _a */\n      dup2\n      swap1\n      sstore\n      pop\n        /* \"contracts/230502_basic_1.sol\":399:452  function setA(uint _a) public {... */\n      pop\n      jump\t// out\n        /* \"#utility.yul\":88:205   */\n    tag_62:\n        /* \"#utility.yul\":197:198   */\n      0x00\n        /* \"#utility.yul\":194:195   */\n      dup1\n        /* \"#utility.yul\":187:199   */\n      revert\n        /* \"#utility.yul\":334:411   */\n    tag_64:\n        /* \"#utility.yul\":371:378   */\n      0x00\n        /* \"#utility.yul\":400:405   */\n      dup2\n        /* \"#utility.yul\":389:405   */\n      swap1\n      pop\n        /* \"#utility.yul\":334:411   */\n      swap2\n      swap1\n      pop\n      jump\t// out\n        /* \"#utility.yul\":417:539   */\n    tag_65:\n        /* \"#utility.yul\":490:514   */\n      tag_75\n        /* \"#utility.yul\":508:513   */\n      dup2\n        /* \"#utility.yul\":490:514   */\n      tag_64\n      jump\t// in\n    tag_75:\n        /* \"#utility.yul\":483:488   */\n      dup2\n        /* \"#utility.yul\":480:515   */\n      eq\n        /* \"#utility.yul\":470:533   */\n      tag_76\n      jumpi\n        /* \"#utility.yul\":529:530   */\n      0x00\n        /* \"#utility.yul\":526:527   */\n      dup1\n        /* \"#utility.yul\":519:531   */\n      revert\n        /* \"#utility.yul\":470:533   */\n    tag_76:\n        /* \"#utility.yul\":417:539   */\n      pop\n      jump\t// out\n        /* \"#utility.yul\":545:684   */\n    tag_66:\n        /* \"#utility.yul\":591:596   */\n      0x00\n        /* \"#utility.yul\":629:635   */\n      dup2\n        /* \"#utility.yul\":616:636   */\n      calldataload\n        /* \"#utility.yul\":607:636   */\n      swap1\n      pop\n        /* \"#utility.yul\":645:678   */\n      tag_78\n        /* \"#utility.yul\":672:677   */\n      dup2\n        /* \"#utility.yul\":645:678   */\n      tag_65\n      jump\t// in\n    tag_78:\n        /* \"#utility.yul\":545:684   */\n      swap3\n      swap2\n      pop\n      pop\n      jump\t// out\n        /* \"#utility.yul\":690:1019   */\n    tag_16:\n        /* \"#utility.yul\":749:755   */\n      0x00\n        /* \"#utility.yul\":798:800   */\n      0x20\n        /* \"#utility.yul\":786:795   */\n      dup3\n        /* \"#utility.yul\":777:784   */\n      dup5\n        /* \"#utility.yul\":773:796   */\n      sub\n        /* \"#utility.yul\":769:801   */\n      slt\n        /* \"#utility.yul\":766:885   */\n      iszero\n      tag_80\n      jumpi\n        /* \"#utility.yul\":804:883   */\n      tag_81\n      tag_62\n      jump\t// in\n    tag_81:\n        /* \"#utility.yul\":766:885   */\n    tag_80:\n        /* \"#utility.yul\":924:925   */\n      0x00\n        /* \"#utility.yul\":949:1002   */\n      tag_82\n        /* \"#utility.yul\":994:1001   */\n      dup5\n        /* \"#utility.yul\":985:991   */\n      dup3\n        /* \"#utility.yul\":974:983   */\n      dup6\n        /* \"#utility.yul\":970:992   */\n      add\n        /* \"#utility.yul\":949:1002   */\n      tag_66\n      jump\t// in\n    tag_82:\n        /* \"#utility.yul\":939:1002   */\n      swap2\n      pop\n        /* \"#utility.yul\":895:1012   */\n      pop\n        /* \"#utility.yul\":690:1019   */\n      swap3\n      swap2\n      pop\n      pop\n      jump\t// out\n        /* \"#utility.yul\":1025:1143   */\n    tag_67:\n        /* \"#utility.yul\":1112:1136   */\n      tag_84\n        /* \"#utility.yul\":1130:1135   */\n      dup2\n        /* \"#utility.yul\":1112:1136   */\n      tag_64\n      jump\t// in\n    tag_84:\n        /* \"#utility.yul\":1107:1110   */\n      dup3\n        /* \"#utility.yul\":1100:1137   */\n      mstore\n        /* \"#utility.yul\":1025:1143   */\n      pop\n      pop\n      jump\t// out\n        /* \"#utility.yul\":1149:1481   */\n    tag_21:\n        /* \"#utility.yul\":1270:1274   */\n      0x00\n        /* \"#utility.yul\":1308:1310   */\n      0x40\n        /* \"#utility.yul\":1297:1306   */\n      dup3\n        /* \"#utility.yul\":1293:1311   */\n      add\n        /* \"#utility.yul\":1285:1311   */\n      swap1\n      pop\n        /* \"#utility.yul\":1321:1392   */\n      tag_86\n        /* \"#utility.yul\":1389:1390   */\n      0x00\n        /* \"#utility.yul\":1378:1387   */\n      dup4\n        /* \"#utility.yul\":1374:1391   */\n      add\n        /* \"#utility.yul\":1365:1371   */\n      dup6\n        /* \"#utility.yul\":1321:1392   */\n      tag_67\n      jump\t// in\n    tag_86:\n        /* \"#utility.yul\":1402:1474   */\n      tag_87\n        /* \"#utility.yul\":1470:1472   */\n      0x20\n        /* \"#utility.yul\":1459:1468   */\n      dup4\n        /* \"#utility.yul\":1455:1473   */\n      add\n        /* \"#utility.yul\":1446:1452   */\n      dup5\n        /* \"#utility.yul\":1402:1474   */\n      tag_67\n      jump\t// in\n    tag_87:\n        /* \"#utility.yul\":1149:1481   */\n      swap4\n      swap3\n      pop\n      pop\n      pop\n      jump\t// out\n        /* \"#utility.yul\":1487:1709   */\n    tag_27:\n        /* \"#utility.yul\":1580:1584   */\n      0x00\n        /* \"#utility.yul\":1618:1620   */\n      0x20\n        /* \"#utility.yul\":1607:1616   */\n      dup3\n        /* \"#utility.yul\":1603:1621   */\n      add\n        /* \"#utility.yul\":1595:1621   */\n      swap1\n      pop\n        /* \"#utility.yul\":1631:1702   */\n      tag_89\n        /* \"#utility.yul\":1699:1700   */\n      0x00\n        /* \"#utility.yul\":1688:1697   */\n      dup4\n        /* \"#utility.yul\":1684:1701   */\n      add\n        /* \"#utility.yul\":1675:1681   */\n      dup5\n        /* \"#utility.yul\":1631:1702   */\n      tag_67\n      jump\t// in\n    tag_89:\n        /* \"#utility.yul\":1487:1709   */\n      swap3\n      swap2\n      pop\n      pop\n      jump\t// out\n        /* \"#utility.yul\":1715:2189   */\n    tag_32:\n        /* \"#utility.yul\":1783:1789   */\n      0x00\n        /* \"#utility.yul\":1791:1797   */\n      dup1\n        /* \"#utility.yul\":1840:1842   */\n      0x40\n        /* \"#utility.yul\":1828:1837   */\n      dup4\n        /* \"#utility.yul\":1819:1826   */\n      dup6\n        /* \"#utility.yul\":1815:1838   */\n      sub\n        /* \"#utility.yul\":1811:1843   */\n      slt\n        /* \"#utility.yul\":1808:1927   */\n      iszero\n      tag_91\n      jumpi\n        /* \"#utility.yul\":1846:1925   */\n      tag_92\n      tag_62\n      jump\t// in\n    tag_92:\n        /* \"#utility.yul\":1808:1927   */\n    tag_91:\n        /* \"#utility.yul\":1966:1967   */\n      0x00\n        /* \"#utility.yul\":1991:2044   */\n      tag_93\n        /* \"#utility.yul\":2036:2043   */\n      dup6\n        /* \"#utility.yul\":2027:2033   */\n      dup3\n        /* \"#utility.yul\":2016:2025   */\n      dup7\n        /* \"#utility.yul\":2012:2034   */\n      add\n        /* \"#utility.yul\":1991:2044   */\n      tag_66\n      jump\t// in\n    tag_93:\n        /* \"#utility.yul\":1981:2044   */\n      swap3\n      pop\n        /* \"#utility.yul\":1937:2054   */\n      pop\n        /* \"#utility.yul\":2093:2095   */\n      0x20\n        /* \"#utility.yul\":2119:2172   */\n      tag_94\n        /* \"#utility.yul\":2164:2171   */\n      dup6\n        /* \"#utility.yul\":2155:2161   */\n      dup3\n        /* \"#utility.yul\":2144:2153   */\n      dup7\n        /* \"#utility.yul\":2140:2162   */\n      add\n        /* \"#utility.yul\":2119:2172   */\n      tag_66\n      jump\t// in\n    tag_94:\n        /* \"#utility.yul\":2109:2172   */\n      swap2\n      pop\n        /* \"#utility.yul\":2064:2182   */\n      pop\n        /* \"#utility.yul\":1715:2189   */\n      swap3\n      pop\n      swap3\n      swap1\n      pop\n      jump\t// out\n        /* \"#utility.yul\":2195:2637   */\n    tag_38:\n        /* \"#utility.yul\":2344:2348   */\n      0x00\n        /* \"#utility.yul\":2382:2384   */\n      0x60\n        /* \"#utility.yul\":2371:2380   */\n      dup3\n        /* \"#utility.yul\":2367:2385   */\n      add\n        /* \"#utility.yul\":2359:2385   */\n      swap1\n      pop\n        /* \"#utility.yul\":2395:2466   */\n      tag_96\n        /* \"#utility.yul\":2463:2464   */\n      0x00\n        /* \"#utility.yul\":2452:2461   */\n      dup4\n        /* \"#utility.yul\":2448:2465   */\n      add\n        /* \"#utility.yul\":2439:2445   */\n      dup7\n        /* \"#utility.yul\":2395:2466   */\n      tag_67\n      jump\t// in\n    tag_96:\n        /* \"#utility.yul\":2476:2548   */\n      tag_97\n        /* \"#utility.yul\":2544:2546   */\n      0x20\n        /* \"#utility.yul\":2533:2542   */\n      dup4\n        /* \"#utility.yul\":2529:2547   */\n      add\n        /* \"#utility.yul\":2520:2526   */\n      dup6\n        /* \"#utility.yul\":2476:2548   */\n      tag_67\n      jump\t// in\n    tag_97:\n        /* \"#utility.yul\":2558:2630   */\n      tag_98\n        /* \"#utility.yul\":2626:2628   */\n      0x40\n        /* \"#utility.yul\":2615:2624   */\n      dup4\n        /* \"#utility.yul\":2611:2629   */\n      add\n        /* \"#utility.yul\":2602:2608   */\n      dup5\n        /* \"#utility.yul\":2558:2630   */\n      tag_67\n      jump\t// in\n    tag_98:\n        /* \"#utility.yul\":2195:2637   */\n      swap5\n      swap4\n      pop\n      pop\n      pop\n      pop\n      jump\t// out\n        /* \"#utility.yul\":2643:2823   */\n    tag_68:\n        /* \"#utility.yul\":2691:2768   */\n      0x4e487b7100000000000000000000000000000000000000000000000000000000\n        /* \"#utility.yul\":2688:2689   */\n      0x00\n        /* \"#utility.yul\":2681:2769   */\n      mstore\n        /* \"#utility.yul\":2788:2792   */\n      0x11\n        /* \"#utility.yul\":2785:2786   */\n      0x04\n        /* \"#utility.yul\":2778:2793   */\n      mstore\n        /* \"#utility.yul\":2812:2816   */\n      0x24\n        /* \"#utility.yul\":2809:2810   */\n      0x00\n        /* \"#utility.yul\":2802:2817   */\n      revert\n        /* \"#utility.yul\":2829:3020   */\n    tag_53:\n        /* \"#utility.yul\":2869:2872   */\n      0x00\n        /* \"#utility.yul\":2888:2908   */\n      tag_101\n        /* \"#utility.yul\":2906:2907   */\n      dup3\n        /* \"#utility.yul\":2888:2908   */\n      tag_64\n      jump\t// in\n    tag_101:\n        /* \"#utility.yul\":2883:2908   */\n      swap2\n      pop\n        /* \"#utility.yul\":2922:2942   */\n      tag_102\n        /* \"#utility.yul\":2940:2941   */\n      dup4\n        /* \"#utility.yul\":2922:2942   */\n      tag_64\n      jump\t// in\n    tag_102:\n        /* \"#utility.yul\":2917:2942   */\n      swap3\n      pop\n        /* \"#utility.yul\":2965:2966   */\n      dup3\n        /* \"#utility.yul\":2962:2963   */\n      dup3\n        /* \"#utility.yul\":2958:2967   */\n      add\n        /* \"#utility.yul\":2951:2967   */\n      swap1\n      pop\n        /* \"#utility.yul\":2986:2989   */\n      dup1\n        /* \"#utility.yul\":2983:2984   */\n      dup3\n        /* \"#utility.yul\":2980:2990   */\n      gt\n        /* \"#utility.yul\":2977:3013   */\n      iszero\n      tag_103\n      jumpi\n        /* \"#utility.yul\":2993:3011   */\n      tag_104\n      tag_68\n      jump\t// in\n    tag_104:\n        /* \"#utility.yul\":2977:3013   */\n    tag_103:\n        /* \"#utility.yul\":2829:3020   */\n      swap3\n      swap2\n      pop\n      pop\n      jump\t// out\n\n    auxdata: 0xa26469706673582212205323524d5339f5ac1879ee4875e11286a407b7f3a06e4c90da9bf4d9075c4f4a64736f6c63430008120033\n}\n",
				"bytecode": {
					"linkReferences": {},
					"object": "60806040526002805534801561001457600080fd5b50610414806100246000396000f3fe608060405234801561001057600080fd5b506004361061009e5760003560e01c80637afbe4f1116100665780637afbe4f11461011057806387522f7914610140578063a1c5191514610160578063d46300fd1461017e578063ee919d501461019c5761009e565b806309cdcf9b146100a35780632b06cb2d146100bf57806340c65ff1146100de5780636187f692146100e85780637a72b90314610106575b600080fd5b6100bd60048036038101906100b89190610284565b6101b8565b005b6100c76101c2565b6040516100d59291906102c0565b60405180910390f35b6100e66101d3565b005b6100f06101dd565b6040516100fd91906102e9565b60405180910390f35b61010e6101f4565b005b61012a60048036038101906101259190610304565b6101fe565b60405161013791906102e9565b60405180910390f35b610148610214565b60405161015793929190610344565b60405180910390f35b61016861022c565b60405161017591906102e9565b60405180910390f35b610186610236565b60405161019391906102e9565b60405180910390f35b6101b660048036038101906101b19190610284565b61023f565b005b8060018190555050565b600080600054600154915091509091565b6007600181905550565b60006001546000546101ef91906103aa565b905090565b6005600081905550565b6000818361020c91906103aa565b905092915050565b60008060008054600154600254925092509250909192565b6000600154905090565b60008054905090565b8060008190555050565b600080fd5b6000819050919050565b6102618161024e565b811461026c57600080fd5b50565b60008135905061027e81610258565b92915050565b60006020828403121561029a57610299610249565b5b60006102a88482850161026f565b91505092915050565b6102ba8161024e565b82525050565b60006040820190506102d560008301856102b1565b6102e260208301846102b1565b9392505050565b60006020820190506102fe60008301846102b1565b92915050565b6000806040838503121561031b5761031a610249565b5b60006103298582860161026f565b925050602061033a8582860161026f565b9150509250929050565b600060608201905061035960008301866102b1565b61036660208301856102b1565b61037360408301846102b1565b949350505050565b7f4e487b7100000000000000000000000000000000000000000000000000000000600052601160045260246000fd5b60006103b58261024e565b91506103c08361024e565b92508282019050808211156103d8576103d761037b565b5b9291505056fea26469706673582212205323524d5339f5ac1879ee4875e11286a407b7f3a06e4c90da9bf4d9075c4f4a64736f6c63430008120033",
					"opcodes": "PUSH1 0x80 PUSH1 0x40 MSTORE PUSH1 0x2 DUP1 SSTORE CALLVALUE DUP1 ISZERO PUSH2 0x14 JUMPI PUSH1 0x0 DUP1 REVERT JUMPDEST POP PUSH2 0x414 DUP1 PUSH2 0x24 PUSH1 0x0 CODECOPY PUSH1 0x0 RETURN INVALID PUSH1 0x80 PUSH1 0x40 MSTORE CALLVALUE DUP1 ISZERO PUSH2 0x10 JUMPI PUSH1 0x0 DUP1 REVERT JUMPDEST POP PUSH1 0x4 CALLDATASIZE LT PUSH2 0x9E JUMPI PUSH1 0x0 CALLDATALOAD PUSH1 0xE0 SHR DUP1 PUSH4 0x7AFBE4F1 GT PUSH2 0x66 JUMPI DUP1 PUSH4 0x7AFBE4F1 EQ PUSH2 0x110 JUMPI DUP1 PUSH4 0x87522F79 EQ PUSH2 0x140 JUMPI DUP1 PUSH4 0xA1C51915 EQ PUSH2 0x160 JUMPI DUP1 PUSH4 0xD46300FD EQ PUSH2 0x17E JUMPI DUP1 PUSH4 0xEE919D50 EQ PUSH2 0x19C JUMPI PUSH2 0x9E JUMP JUMPDEST DUP1 PUSH4 0x9CDCF9B EQ PUSH2 0xA3 JUMPI DUP1 PUSH4 0x2B06CB2D EQ PUSH2 0xBF JUMPI DUP1 PUSH4 0x40C65FF1 EQ PUSH2 0xDE JUMPI DUP1 PUSH4 0x6187F692 EQ PUSH2 0xE8 JUMPI DUP1 PUSH4 0x7A72B903 EQ PUSH2 0x106 JUMPI JUMPDEST PUSH1 0x0 DUP1 REVERT JUMPDEST PUSH2 0xBD PUSH1 0x4 DUP1 CALLDATASIZE SUB DUP2 ADD SWAP1 PUSH2 0xB8 SWAP2 SWAP1 PUSH2 0x284 JUMP JUMPDEST PUSH2 0x1B8 JUMP JUMPDEST STOP JUMPDEST PUSH2 0xC7 PUSH2 0x1C2 JUMP JUMPDEST PUSH1 0x40 MLOAD PUSH2 0xD5 SWAP3 SWAP2 SWAP1 PUSH2 0x2C0 JUMP JUMPDEST PUSH1 0x40 MLOAD DUP1 SWAP2 SUB SWAP1 RETURN JUMPDEST PUSH2 0xE6 PUSH2 0x1D3 JUMP JUMPDEST STOP JUMPDEST PUSH2 0xF0 PUSH2 0x1DD JUMP JUMPDEST PUSH1 0x40 MLOAD PUSH2 0xFD SWAP2 SWAP1 PUSH2 0x2E9 JUMP JUMPDEST PUSH1 0x40 MLOAD DUP1 SWAP2 SUB SWAP1 RETURN JUMPDEST PUSH2 0x10E PUSH2 0x1F4 JUMP JUMPDEST STOP JUMPDEST PUSH2 0x12A PUSH1 0x4 DUP1 CALLDATASIZE SUB DUP2 ADD SWAP1 PUSH2 0x125 SWAP2 SWAP1 PUSH2 0x304 JUMP JUMPDEST PUSH2 0x1FE JUMP JUMPDEST PUSH1 0x40 MLOAD PUSH2 0x137 SWAP2 SWAP1 PUSH2 0x2E9 JUMP JUMPDEST PUSH1 0x40 MLOAD DUP1 SWAP2 SUB SWAP1 RETURN JUMPDEST PUSH2 0x148 PUSH2 0x214 JUMP JUMPDEST PUSH1 0x40 MLOAD PUSH2 0x157 SWAP4 SWAP3 SWAP2 SWAP1 PUSH2 0x344 JUMP JUMPDEST PUSH1 0x40 MLOAD DUP1 SWAP2 SUB SWAP1 RETURN JUMPDEST PUSH2 0x168 PUSH2 0x22C JUMP JUMPDEST PUSH1 0x40 MLOAD PUSH2 0x175 SWAP2 SWAP1 PUSH2 0x2E9 JUMP JUMPDEST PUSH1 0x40 MLOAD DUP1 SWAP2 SUB SWAP1 RETURN JUMPDEST PUSH2 0x186 PUSH2 0x236 JUMP JUMPDEST PUSH1 0x40 MLOAD PUSH2 0x193 SWAP2 SWAP1 PUSH2 0x2E9 JUMP JUMPDEST PUSH1 0x40 MLOAD DUP1 SWAP2 SUB SWAP1 RETURN JUMPDEST PUSH2 0x1B6 PUSH1 0x4 DUP1 CALLDATASIZE SUB DUP2 ADD SWAP1 PUSH2 0x1B1 SWAP2 SWAP1 PUSH2 0x284 JUMP JUMPDEST PUSH2 0x23F JUMP JUMPDEST STOP JUMPDEST DUP1 PUSH1 0x1 DUP2 SWAP1 SSTORE POP POP JUMP JUMPDEST PUSH1 0x0 DUP1 PUSH1 0x0 SLOAD PUSH1 0x1 SLOAD SWAP2 POP SWAP2 POP SWAP1 SWAP2 JUMP JUMPDEST PUSH1 0x7 PUSH1 0x1 DUP2 SWAP1 SSTORE POP JUMP JUMPDEST PUSH1 0x0 PUSH1 0x1 SLOAD PUSH1 0x0 SLOAD PUSH2 0x1EF SWAP2 SWAP1 PUSH2 0x3AA JUMP JUMPDEST SWAP1 POP SWAP1 JUMP JUMPDEST PUSH1 0x5 PUSH1 0x0 DUP2 SWAP1 SSTORE POP JUMP JUMPDEST PUSH1 0x0 DUP2 DUP4 PUSH2 0x20C SWAP2 SWAP1 PUSH2 0x3AA JUMP JUMPDEST SWAP1 POP SWAP3 SWAP2 POP POP JUMP JUMPDEST PUSH1 0x0 DUP1 PUSH1 0x0 DUP1 SLOAD PUSH1 0x1 SLOAD PUSH1 0x2 SLOAD SWAP3 POP SWAP3 POP SWAP3 POP SWAP1 SWAP2 SWAP3 JUMP JUMPDEST PUSH1 0x0 PUSH1 0x1 SLOAD SWAP1 POP SWAP1 JUMP JUMPDEST PUSH1 0x0 DUP1 SLOAD SWAP1 POP SWAP1 JUMP JUMPDEST DUP1 PUSH1 0x0 DUP2 SWAP1 SSTORE POP POP JUMP JUMPDEST PUSH1 0x0 DUP1 REVERT JUMPDEST PUSH1 0x0 DUP2 SWAP1 POP SWAP2 SWAP1 POP JUMP JUMPDEST PUSH2 0x261 DUP2 PUSH2 0x24E JUMP JUMPDEST DUP2 EQ PUSH2 0x26C JUMPI PUSH1 0x0 DUP1 REVERT JUMPDEST POP JUMP JUMPDEST PUSH1 0x0 DUP2 CALLDATALOAD SWAP1 POP PUSH2 0x27E DUP2 PUSH2 0x258 JUMP JUMPDEST SWAP3 SWAP2 POP POP JUMP JUMPDEST PUSH1 0x0 PUSH1 0x20 DUP3 DUP5 SUB SLT ISZERO PUSH2 0x29A JUMPI PUSH2 0x299 PUSH2 0x249 JUMP JUMPDEST JUMPDEST PUSH1 0x0 PUSH2 0x2A8 DUP5 DUP3 DUP6 ADD PUSH2 0x26F JUMP JUMPDEST SWAP2 POP POP SWAP3 SWAP2 POP POP JUMP JUMPDEST PUSH2 0x2BA DUP2 PUSH2 0x24E JUMP JUMPDEST DUP3 MSTORE POP POP JUMP JUMPDEST PUSH1 0x0 PUSH1 0x40 DUP3 ADD SWAP1 POP PUSH2 0x2D5 PUSH1 0x0 DUP4 ADD DUP6 PUSH2 0x2B1 JUMP JUMPDEST PUSH2 0x2E2 PUSH1 0x20 DUP4 ADD DUP5 PUSH2 0x2B1 JUMP JUMPDEST SWAP4 SWAP3 POP POP POP JUMP JUMPDEST PUSH1 0x0 PUSH1 0x20 DUP3 ADD SWAP1 POP PUSH2 0x2FE PUSH1 0x0 DUP4 ADD DUP5 PUSH2 0x2B1 JUMP JUMPDEST SWAP3 SWAP2 POP POP JUMP JUMPDEST PUSH1 0x0 DUP1 PUSH1 0x40 DUP4 DUP6 SUB SLT ISZERO PUSH2 0x31B JUMPI PUSH2 0x31A PUSH2 0x249 JUMP JUMPDEST JUMPDEST PUSH1 0x0 PUSH2 0x329 DUP6 DUP3 DUP7 ADD PUSH2 0x26F JUMP JUMPDEST SWAP3 POP POP PUSH1 0x20 PUSH2 0x33A DUP6 DUP3 DUP7 ADD PUSH2 0x26F JUMP JUMPDEST SWAP2 POP POP SWAP3 POP SWAP3 SWAP1 POP JUMP JUMPDEST PUSH1 0x0 PUSH1 0x60 DUP3 ADD SWAP1 POP PUSH2 0x359 PUSH1 0x0 DUP4 ADD DUP7 PUSH2 0x2B1 JUMP JUMPDEST PUSH2 0x366 PUSH1 0x20 DUP4 ADD DUP6 PUSH2 0x2B1 JUMP JUMPDEST PUSH2 0x373 PUSH1 0x40 DUP4 ADD DUP5 PUSH2 0x2B1 JUMP JUMPDEST SWAP5 SWAP4 POP POP POP POP JUMP JUMPDEST PUSH32 0x4E487B7100000000000000000000000000000000000000000000000000000000 PUSH1 0x0 MSTORE PUSH1 0x11 PUSH1 0x4 MSTORE PUSH1 0x24 PUSH1 0x0 REVERT JUMPDEST PUSH1 0x0 PUSH2 0x3B5 DUP3 PUSH2 0x24E JUMP JUMPDEST SWAP2 POP PUSH2 0x3C0 DUP4 PUSH2 0x24E JUMP JUMPDEST SWAP3 POP DUP3 DUP3 ADD SWAP1 POP DUP1 DUP3 GT ISZERO PUSH2 0x3D8 JUMPI PUSH2 0x3D7 PUSH2 0x37B JUMP JUMPDEST JUMPDEST SWAP3 SWAP2 POP POP JUMP INVALID LOG2 PUSH5 0x6970667358 0x22 SLT KECCAK256 MSTORE8 0x23 MSTORE 0x4D MSTORE8 CODECOPY CREATE2 0xAC XOR PUSH26 0xEE4875E11286A407B7F3A06E4C90DA9BF4D9075C4F4A64736F6C PUSH4 0x43000812 STOP CALLER "
				},
				"gasEstimates": {
					"creation": {
						"codeDepositCost": "208800",
						"executionCost": "22357",
						"totalCost": "231157"
					},
					"external": {
						"Add(uint256,uint256)": "infinite",
						"Add2()": "infinite",
						"getA()": "2503",
						"getAB()": "infinite",
						"getABC()": "infinite",
						"getB()": "2481",
						"setA(uint256)": "22608",
						"setAasFive()": "22347",
						"setB(uint256)": "22521",
						"setBasSeven()": "22303"
					}
				},
				"methodIdentifiers": {
					"Add(uint256,uint256)": "7afbe4f1",
					"Add2()": "6187f692",
					"getA()": "d46300fd",
					"getAB()": "2b06cb2d",
					"getABC()": "87522f79",
					"getB()": "a1c51915",
					"setA(uint256)": "ee919d50",
					"setAasFive()": "7a72b903",
					"setB(uint256)": "09cdcf9b",
					"setBasSeven()": "40c65ff1"
				}
			},
			"storageLayout": {
				"storage": [
					{
						"astId": 3,
						"contract": "contracts/230502_basic_1.sol:StoreandReturn",
						"label": "a",
						"offset": 0,
						"slot": "0",
						"type": "t_uint256"
					},
					{
						"astId": 5,
						"contract": "contracts/230502_basic_1.sol:StoreandReturn",
						"label": "b",
						"offset": 0,
						"slot": "1",
						"type": "t_uint256"
					},
					{
						"astId": 8,
						"contract": "contracts/230502_basic_1.sol:StoreandReturn",
						"label": "c",
						"offset": 0,
						"slot": "2",
						"type": "t_uint256"
					}
				],
				"types": {
					"t_uint256": {
						"encoding": "inplace",
						"label": "uint256",
						"numberOfBytes": "32"
					}
				}
			},
			"userdoc": {
				"kind": "user",
				"methods": {},
				"version": 1
			}
		}
	}
}