{
	"contracts/test2.sol": {
		"test": {
			"abi": [
				{
					"inputs": [
						{
							"internalType": "string",
							"name": "_ID",
							"type": "string"
						},
						{
							"internalType": "string",
							"name": "_PW",
							"type": "string"
						}
					],
					"name": "login",
					"outputs": [
						{
							"internalType": "bool",
							"name": "",
							"type": "bool"
						}
					],
					"stateMutability": "view",
					"type": "function"
				},
				{
					"inputs": [
						{
							"internalType": "string",
							"name": "_ID",
							"type": "string"
						}
					],
					"name": "login2",
					"outputs": [
						{
							"internalType": "bytes32",
							"name": "",
							"type": "bytes32"
						}
					],
					"stateMutability": "view",
					"type": "function"
				},
				{
					"inputs": [
						{
							"internalType": "string",
							"name": "_ID",
							"type": "string"
						},
						{
							"internalType": "string",
							"name": "_PW",
							"type": "string"
						}
					],
					"name": "signIn",
					"outputs": [],
					"stateMutability": "nonpayable",
					"type": "function"
				}
			],
			"devdoc": {
				"kind": "dev",
				"methods": {},
				"version": 1
			},
			"evm": {
				"assembly": "    /* \"contracts/test2.sol\":1329:2189  contract test {... */\n  mstore(0x40, 0x80)\n  callvalue\n  dup1\n  iszero\n  tag_1\n  jumpi\n  0x00\n  dup1\n  revert\ntag_1:\n  pop\n  dataSize(sub_0)\n  dup1\n  dataOffset(sub_0)\n  0x00\n  codecopy\n  0x00\n  return\nstop\n\nsub_0: assembly {\n        /* \"contracts/test2.sol\":1329:2189  contract test {... */\n      mstore(0x40, 0x80)\n      callvalue\n      dup1\n      iszero\n      tag_1\n      jumpi\n      0x00\n      dup1\n      revert\n    tag_1:\n      pop\n      jumpi(tag_2, lt(calldatasize, 0x04))\n      shr(0xe0, calldataload(0x00))\n      dup1\n      0x2c162dbc\n      eq\n      tag_3\n      jumpi\n      dup1\n      0x58467dbc\n      eq\n      tag_4\n      jumpi\n      dup1\n      0x6ad30cd8\n      eq\n      tag_5\n      jumpi\n    tag_2:\n      0x00\n      dup1\n      revert\n        /* \"contracts/test2.sol\":1826:2181  function signIn(string memory _ID, string memory _PW) public{... */\n    tag_3:\n      tag_6\n      0x04\n      dup1\n      calldatasize\n      sub\n      dup2\n      add\n      swap1\n      tag_7\n      swap2\n      swap1\n      tag_8\n      jump\t// in\n    tag_7:\n      tag_9\n      jump\t// in\n    tag_6:\n      stop\n        /* \"contracts/test2.sol\":1482:1643  function login(string memory _ID, string memory _PW) public view returns(bool){... */\n    tag_4:\n      tag_10\n      0x04\n      dup1\n      calldatasize\n      sub\n      dup2\n      add\n      swap1\n      tag_11\n      swap2\n      swap1\n      tag_8\n      jump\t// in\n    tag_11:\n      tag_12\n      jump\t// in\n    tag_10:\n      mload(0x40)\n      tag_13\n      swap2\n      swap1\n      tag_14\n      jump\t// in\n    tag_13:\n      mload(0x40)\n      dup1\n      swap2\n      sub\n      swap1\n      return\n        /* \"contracts/test2.sol\":1649:1746  function login2(string memory _ID) public view returns(bytes32){... */\n    tag_5:\n      tag_15\n      0x04\n      dup1\n      calldatasize\n      sub\n      dup2\n      add\n      swap1\n      tag_16\n      swap2\n      swap1\n      tag_17\n      jump\t// in\n    tag_16:\n      tag_18\n      jump\t// in\n    tag_15:\n      mload(0x40)\n      tag_19\n      swap2\n      swap1\n      tag_20\n      jump\t// in\n    tag_19:\n      mload(0x40)\n      dup1\n      swap2\n      sub\n      swap1\n      return\n        /* \"contracts/test2.sol\":1826:2181  function signIn(string memory _ID, string memory _PW) public{... */\n    tag_9:\n        /* \"contracts/test2.sol\":2046:2078  0x000000000000000000000000000000 */\n      0x00\n        /* \"contracts/test2.sol\":2032:2078  ID_PW[_ID] == 0x000000000000000000000000000000 */\n      dup1\n      shl\n        /* \"contracts/test2.sol\":2032:2037  ID_PW */\n      0x00\n        /* \"contracts/test2.sol\":2038:2041  _ID */\n      dup4\n        /* \"contracts/test2.sol\":2032:2042  ID_PW[_ID] */\n      mload(0x40)\n      tag_22\n      swap2\n      swap1\n      tag_23\n      jump\t// in\n    tag_22:\n      swap1\n      dup2\n      mstore\n      0x20\n      add\n      mload(0x40)\n      dup1\n      swap2\n      sub\n      swap1\n      keccak256\n      sload\n        /* \"contracts/test2.sol\":2032:2078  ID_PW[_ID] == 0x000000000000000000000000000000 */\n      eq\n        /* \"contracts/test2.sol\":2024:2115  require(ID_PW[_ID] == 0x000000000000000000000000000000,\"provided IS is already being used\") */\n      tag_24\n      jumpi\n      mload(0x40)\n      0x08c379a000000000000000000000000000000000000000000000000000000000\n      dup2\n      mstore\n      0x04\n      add\n      tag_25\n      swap1\n      tag_26\n      jump\t// in\n    tag_25:\n      mload(0x40)\n      dup1\n      swap2\n      sub\n      swap1\n      revert\n    tag_24:\n        /* \"contracts/test2.sol\":2165:2168  _ID */\n      dup2\n        /* \"contracts/test2.sol\":2169:2172  _PW */\n      dup2\n        /* \"contracts/test2.sol\":2148:2173  abi.encodePacked(_ID,_PW) */\n      add(0x20, mload(0x40))\n      tag_27\n      swap3\n      swap2\n      swap1\n      tag_28\n      jump\t// in\n    tag_27:\n      mload(0x40)\n      0x20\n      dup2\n      dup4\n      sub\n      sub\n      dup2\n      mstore\n      swap1\n      0x40\n      mstore\n        /* \"contracts/test2.sol\":2138:2174  keccak256(abi.encodePacked(_ID,_PW)) */\n      dup1\n      mload\n      swap1\n      0x20\n      add\n      keccak256\n        /* \"contracts/test2.sol\":2125:2130  ID_PW */\n      0x00\n        /* \"contracts/test2.sol\":2131:2134  _ID */\n      dup4\n        /* \"contracts/test2.sol\":2125:2135  ID_PW[_ID] */\n      mload(0x40)\n      tag_29\n      swap2\n      swap1\n      tag_23\n      jump\t// in\n    tag_29:\n      swap1\n      dup2\n      mstore\n      0x20\n      add\n      mload(0x40)\n      dup1\n      swap2\n      sub\n      swap1\n      keccak256\n        /* \"contracts/test2.sol\":2125:2174  ID_PW[_ID] = keccak256(abi.encodePacked(_ID,_PW)) */\n      dup2\n      swap1\n      sstore\n      pop\n        /* \"contracts/test2.sol\":1826:2181  function signIn(string memory _ID, string memory _PW) public{... */\n      pop\n      pop\n      jump\t// out\n        /* \"contracts/test2.sol\":1482:1643  function login(string memory _ID, string memory _PW) public view returns(bool){... */\n    tag_12:\n        /* \"contracts/test2.sol\":1555:1559  bool */\n      0x00\n        /* \"contracts/test2.sol\":1618:1621  _ID */\n      dup3\n        /* \"contracts/test2.sol\":1622:1625  _PW */\n      dup3\n        /* \"contracts/test2.sol\":1601:1626  abi.encodePacked(_ID,_PW) */\n      add(0x20, mload(0x40))\n      tag_31\n      swap3\n      swap2\n      swap1\n      tag_28\n      jump\t// in\n    tag_31:\n      mload(0x40)\n      0x20\n      dup2\n      dup4\n      sub\n      sub\n      dup2\n      mstore\n      swap1\n      0x40\n      mstore\n        /* \"contracts/test2.sol\":1591:1627  keccak256(abi.encodePacked(_ID,_PW)) */\n      dup1\n      mload\n      swap1\n      0x20\n      add\n      keccak256\n        /* \"contracts/test2.sol\":1577:1582  ID_PW */\n      0x00\n        /* \"contracts/test2.sol\":1583:1586  _ID */\n      dup5\n        /* \"contracts/test2.sol\":1577:1587  ID_PW[_ID] */\n      mload(0x40)\n      tag_32\n      swap2\n      swap1\n      tag_23\n      jump\t// in\n    tag_32:\n      swap1\n      dup2\n      mstore\n      0x20\n      add\n      mload(0x40)\n      dup1\n      swap2\n      sub\n      swap1\n      keccak256\n      sload\n        /* \"contracts/test2.sol\":1577:1627  ID_PW[_ID] == keccak256(abi.encodePacked(_ID,_PW)) */\n      eq\n        /* \"contracts/test2.sol\":1570:1627  return ID_PW[_ID] == keccak256(abi.encodePacked(_ID,_PW)) */\n      swap1\n      pop\n        /* \"contracts/test2.sol\":1482:1643  function login(string memory _ID, string memory _PW) public view returns(bool){... */\n      swap3\n      swap2\n      pop\n      pop\n      jump\t// out\n        /* \"contracts/test2.sol\":1649:1746  function login2(string memory _ID) public view returns(bytes32){... */\n    tag_18:\n        /* \"contracts/test2.sol\":1704:1711  bytes32 */\n      0x00\n        /* \"contracts/test2.sol\":1729:1734  ID_PW */\n      dup1\n        /* \"contracts/test2.sol\":1735:1738  _ID */\n      dup3\n        /* \"contracts/test2.sol\":1729:1739  ID_PW[_ID] */\n      mload(0x40)\n      tag_34\n      swap2\n      swap1\n      tag_23\n      jump\t// in\n    tag_34:\n      swap1\n      dup2\n      mstore\n      0x20\n      add\n      mload(0x40)\n      dup1\n      swap2\n      sub\n      swap1\n      keccak256\n      sload\n        /* \"contracts/test2.sol\":1722:1739  return ID_PW[_ID] */\n      swap1\n      pop\n        /* \"contracts/test2.sol\":1649:1746  function login2(string memory _ID) public view returns(bytes32){... */\n      swap2\n      swap1\n      pop\n      jump\t// out\n        /* \"#utility.yul\":7:82   */\n    tag_35:\n        /* \"#utility.yul\":40:46   */\n      0x00\n        /* \"#utility.yul\":73:75   */\n      0x40\n        /* \"#utility.yul\":67:76   */\n      mload\n        /* \"#utility.yul\":57:76   */\n      swap1\n      pop\n        /* \"#utility.yul\":7:82   */\n      swap1\n      jump\t// out\n        /* \"#utility.yul\":88:205   */\n    tag_36:\n        /* \"#utility.yul\":197:198   */\n      0x00\n        /* \"#utility.yul\":194:195   */\n      dup1\n        /* \"#utility.yul\":187:199   */\n      revert\n        /* \"#utility.yul\":211:328   */\n    tag_37:\n        /* \"#utility.yul\":320:321   */\n      0x00\n        /* \"#utility.yul\":317:318   */\n      dup1\n        /* \"#utility.yul\":310:322   */\n      revert\n        /* \"#utility.yul\":334:451   */\n    tag_38:\n        /* \"#utility.yul\":443:444   */\n      0x00\n        /* \"#utility.yul\":440:441   */\n      dup1\n        /* \"#utility.yul\":433:445   */\n      revert\n        /* \"#utility.yul\":457:574   */\n    tag_39:\n        /* \"#utility.yul\":566:567   */\n      0x00\n        /* \"#utility.yul\":563:564   */\n      dup1\n        /* \"#utility.yul\":556:568   */\n      revert\n        /* \"#utility.yul\":580:682   */\n    tag_40:\n        /* \"#utility.yul\":621:627   */\n      0x00\n        /* \"#utility.yul\":672:674   */\n      0x1f\n        /* \"#utility.yul\":668:675   */\n      not\n        /* \"#utility.yul\":663:665   */\n      0x1f\n        /* \"#utility.yul\":656:661   */\n      dup4\n        /* \"#utility.yul\":652:666   */\n      add\n        /* \"#utility.yul\":648:676   */\n      and\n        /* \"#utility.yul\":638:676   */\n      swap1\n      pop\n        /* \"#utility.yul\":580:682   */\n      swap2\n      swap1\n      pop\n      jump\t// out\n        /* \"#utility.yul\":688:868   */\n    tag_41:\n        /* \"#utility.yul\":736:813   */\n      0x4e487b7100000000000000000000000000000000000000000000000000000000\n        /* \"#utility.yul\":733:734   */\n      0x00\n        /* \"#utility.yul\":726:814   */\n      mstore\n        /* \"#utility.yul\":833:837   */\n      0x41\n        /* \"#utility.yul\":830:831   */\n      0x04\n        /* \"#utility.yul\":823:838   */\n      mstore\n        /* \"#utility.yul\":857:861   */\n      0x24\n        /* \"#utility.yul\":854:855   */\n      0x00\n        /* \"#utility.yul\":847:862   */\n      revert\n        /* \"#utility.yul\":874:1155   */\n    tag_42:\n        /* \"#utility.yul\":957:984   */\n      tag_68\n        /* \"#utility.yul\":979:983   */\n      dup3\n        /* \"#utility.yul\":957:984   */\n      tag_40\n      jump\t// in\n    tag_68:\n        /* \"#utility.yul\":949:955   */\n      dup2\n        /* \"#utility.yul\":945:985   */\n      add\n        /* \"#utility.yul\":1087:1093   */\n      dup2\n        /* \"#utility.yul\":1075:1085   */\n      dup2\n        /* \"#utility.yul\":1072:1094   */\n      lt\n        /* \"#utility.yul\":1051:1069   */\n      0xffffffffffffffff\n        /* \"#utility.yul\":1039:1049   */\n      dup3\n        /* \"#utility.yul\":1036:1070   */\n      gt\n        /* \"#utility.yul\":1033:1095   */\n      or\n        /* \"#utility.yul\":1030:1118   */\n      iszero\n      tag_69\n      jumpi\n        /* \"#utility.yul\":1098:1116   */\n      tag_70\n      tag_41\n      jump\t// in\n    tag_70:\n        /* \"#utility.yul\":1030:1118   */\n    tag_69:\n        /* \"#utility.yul\":1138:1148   */\n      dup1\n        /* \"#utility.yul\":1134:1136   */\n      0x40\n        /* \"#utility.yul\":1127:1149   */\n      mstore\n        /* \"#utility.yul\":917:1155   */\n      pop\n        /* \"#utility.yul\":874:1155   */\n      pop\n      pop\n      jump\t// out\n        /* \"#utility.yul\":1161:1290   */\n    tag_43:\n        /* \"#utility.yul\":1195:1201   */\n      0x00\n        /* \"#utility.yul\":1222:1242   */\n      tag_72\n      tag_35\n      jump\t// in\n    tag_72:\n        /* \"#utility.yul\":1212:1242   */\n      swap1\n      pop\n        /* \"#utility.yul\":1251:1284   */\n      tag_73\n        /* \"#utility.yul\":1279:1283   */\n      dup3\n        /* \"#utility.yul\":1271:1277   */\n      dup3\n        /* \"#utility.yul\":1251:1284   */\n      tag_42\n      jump\t// in\n    tag_73:\n        /* \"#utility.yul\":1161:1290   */\n      swap2\n      swap1\n      pop\n      jump\t// out\n        /* \"#utility.yul\":1296:1604   */\n    tag_44:\n        /* \"#utility.yul\":1358:1362   */\n      0x00\n        /* \"#utility.yul\":1448:1466   */\n      0xffffffffffffffff\n        /* \"#utility.yul\":1440:1446   */\n      dup3\n        /* \"#utility.yul\":1437:1467   */\n      gt\n        /* \"#utility.yul\":1434:1490   */\n      iszero\n      tag_75\n      jumpi\n        /* \"#utility.yul\":1470:1488   */\n      tag_76\n      tag_41\n      jump\t// in\n    tag_76:\n        /* \"#utility.yul\":1434:1490   */\n    tag_75:\n        /* \"#utility.yul\":1508:1537   */\n      tag_77\n        /* \"#utility.yul\":1530:1536   */\n      dup3\n        /* \"#utility.yul\":1508:1537   */\n      tag_40\n      jump\t// in\n    tag_77:\n        /* \"#utility.yul\":1500:1537   */\n      swap1\n      pop\n        /* \"#utility.yul\":1592:1596   */\n      0x20\n        /* \"#utility.yul\":1586:1590   */\n      dup2\n        /* \"#utility.yul\":1582:1597   */\n      add\n        /* \"#utility.yul\":1574:1597   */\n      swap1\n      pop\n        /* \"#utility.yul\":1296:1604   */\n      swap2\n      swap1\n      pop\n      jump\t// out\n        /* \"#utility.yul\":1610:1756   */\n    tag_45:\n        /* \"#utility.yul\":1707:1713   */\n      dup3\n        /* \"#utility.yul\":1702:1705   */\n      dup2\n        /* \"#utility.yul\":1697:1700   */\n      dup4\n        /* \"#utility.yul\":1684:1714   */\n      calldatacopy\n        /* \"#utility.yul\":1748:1749   */\n      0x00\n        /* \"#utility.yul\":1739:1745   */\n      dup4\n        /* \"#utility.yul\":1734:1737   */\n      dup4\n        /* \"#utility.yul\":1730:1746   */\n      add\n        /* \"#utility.yul\":1723:1750   */\n      mstore\n        /* \"#utility.yul\":1610:1756   */\n      pop\n      pop\n      pop\n      jump\t// out\n        /* \"#utility.yul\":1762:2187   */\n    tag_46:\n        /* \"#utility.yul\":1840:1845   */\n      0x00\n        /* \"#utility.yul\":1865:1931   */\n      tag_80\n        /* \"#utility.yul\":1881:1930   */\n      tag_81\n        /* \"#utility.yul\":1923:1929   */\n      dup5\n        /* \"#utility.yul\":1881:1930   */\n      tag_44\n      jump\t// in\n    tag_81:\n        /* \"#utility.yul\":1865:1931   */\n      tag_43\n      jump\t// in\n    tag_80:\n        /* \"#utility.yul\":1856:1931   */\n      swap1\n      pop\n        /* \"#utility.yul\":1954:1960   */\n      dup3\n        /* \"#utility.yul\":1947:1952   */\n      dup2\n        /* \"#utility.yul\":1940:1961   */\n      mstore\n        /* \"#utility.yul\":1992:1996   */\n      0x20\n        /* \"#utility.yul\":1985:1990   */\n      dup2\n        /* \"#utility.yul\":1981:1997   */\n      add\n        /* \"#utility.yul\":2030:2033   */\n      dup5\n        /* \"#utility.yul\":2021:2027   */\n      dup5\n        /* \"#utility.yul\":2016:2019   */\n      dup5\n        /* \"#utility.yul\":2012:2028   */\n      add\n        /* \"#utility.yul\":2009:2034   */\n      gt\n        /* \"#utility.yul\":2006:2118   */\n      iszero\n      tag_82\n      jumpi\n        /* \"#utility.yul\":2037:2116   */\n      tag_83\n      tag_39\n      jump\t// in\n    tag_83:\n        /* \"#utility.yul\":2006:2118   */\n    tag_82:\n        /* \"#utility.yul\":2127:2181   */\n      tag_84\n        /* \"#utility.yul\":2174:2180   */\n      dup5\n        /* \"#utility.yul\":2169:2172   */\n      dup3\n        /* \"#utility.yul\":2164:2167   */\n      dup6\n        /* \"#utility.yul\":2127:2181   */\n      tag_45\n      jump\t// in\n    tag_84:\n        /* \"#utility.yul\":1846:2187   */\n      pop\n        /* \"#utility.yul\":1762:2187   */\n      swap4\n      swap3\n      pop\n      pop\n      pop\n      jump\t// out\n        /* \"#utility.yul\":2207:2547   */\n    tag_47:\n        /* \"#utility.yul\":2263:2268   */\n      0x00\n        /* \"#utility.yul\":2312:2315   */\n      dup3\n        /* \"#utility.yul\":2305:2309   */\n      0x1f\n        /* \"#utility.yul\":2297:2303   */\n      dup4\n        /* \"#utility.yul\":2293:2310   */\n      add\n        /* \"#utility.yul\":2289:2316   */\n      slt\n        /* \"#utility.yul\":2279:2401   */\n      tag_86\n      jumpi\n        /* \"#utility.yul\":2320:2399   */\n      tag_87\n      tag_38\n      jump\t// in\n    tag_87:\n        /* \"#utility.yul\":2279:2401   */\n    tag_86:\n        /* \"#utility.yul\":2437:2443   */\n      dup2\n        /* \"#utility.yul\":2424:2444   */\n      calldataload\n        /* \"#utility.yul\":2462:2541   */\n      tag_88\n        /* \"#utility.yul\":2537:2540   */\n      dup5\n        /* \"#utility.yul\":2529:2535   */\n      dup3\n        /* \"#utility.yul\":2522:2526   */\n      0x20\n        /* \"#utility.yul\":2514:2520   */\n      dup7\n        /* \"#utility.yul\":2510:2527   */\n      add\n        /* \"#utility.yul\":2462:2541   */\n      tag_46\n      jump\t// in\n    tag_88:\n        /* \"#utility.yul\":2453:2541   */\n      swap2\n      pop\n        /* \"#utility.yul\":2269:2547   */\n      pop\n        /* \"#utility.yul\":2207:2547   */\n      swap3\n      swap2\n      pop\n      pop\n      jump\t// out\n        /* \"#utility.yul\":2553:3387   */\n    tag_8:\n        /* \"#utility.yul\":2641:2647   */\n      0x00\n        /* \"#utility.yul\":2649:2655   */\n      dup1\n        /* \"#utility.yul\":2698:2700   */\n      0x40\n        /* \"#utility.yul\":2686:2695   */\n      dup4\n        /* \"#utility.yul\":2677:2684   */\n      dup6\n        /* \"#utility.yul\":2673:2696   */\n      sub\n        /* \"#utility.yul\":2669:2701   */\n      slt\n        /* \"#utility.yul\":2666:2785   */\n      iszero\n      tag_90\n      jumpi\n        /* \"#utility.yul\":2704:2783   */\n      tag_91\n      tag_36\n      jump\t// in\n    tag_91:\n        /* \"#utility.yul\":2666:2785   */\n    tag_90:\n        /* \"#utility.yul\":2852:2853   */\n      0x00\n        /* \"#utility.yul\":2841:2850   */\n      dup4\n        /* \"#utility.yul\":2837:2854   */\n      add\n        /* \"#utility.yul\":2824:2855   */\n      calldataload\n        /* \"#utility.yul\":2882:2900   */\n      0xffffffffffffffff\n        /* \"#utility.yul\":2874:2880   */\n      dup2\n        /* \"#utility.yul\":2871:2901   */\n      gt\n        /* \"#utility.yul\":2868:2985   */\n      iszero\n      tag_92\n      jumpi\n        /* \"#utility.yul\":2904:2983   */\n      tag_93\n      tag_37\n      jump\t// in\n    tag_93:\n        /* \"#utility.yul\":2868:2985   */\n    tag_92:\n        /* \"#utility.yul\":3009:3072   */\n      tag_94\n        /* \"#utility.yul\":3064:3071   */\n      dup6\n        /* \"#utility.yul\":3055:3061   */\n      dup3\n        /* \"#utility.yul\":3044:3053   */\n      dup7\n        /* \"#utility.yul\":3040:3062   */\n      add\n        /* \"#utility.yul\":3009:3072   */\n      tag_47\n      jump\t// in\n    tag_94:\n        /* \"#utility.yul\":2999:3072   */\n      swap3\n      pop\n        /* \"#utility.yul\":2795:3082   */\n      pop\n        /* \"#utility.yul\":3149:3151   */\n      0x20\n        /* \"#utility.yul\":3138:3147   */\n      dup4\n        /* \"#utility.yul\":3134:3152   */\n      add\n        /* \"#utility.yul\":3121:3153   */\n      calldataload\n        /* \"#utility.yul\":3180:3198   */\n      0xffffffffffffffff\n        /* \"#utility.yul\":3172:3178   */\n      dup2\n        /* \"#utility.yul\":3169:3199   */\n      gt\n        /* \"#utility.yul\":3166:3283   */\n      iszero\n      tag_95\n      jumpi\n        /* \"#utility.yul\":3202:3281   */\n      tag_96\n      tag_37\n      jump\t// in\n    tag_96:\n        /* \"#utility.yul\":3166:3283   */\n    tag_95:\n        /* \"#utility.yul\":3307:3370   */\n      tag_97\n        /* \"#utility.yul\":3362:3369   */\n      dup6\n        /* \"#utility.yul\":3353:3359   */\n      dup3\n        /* \"#utility.yul\":3342:3351   */\n      dup7\n        /* \"#utility.yul\":3338:3360   */\n      add\n        /* \"#utility.yul\":3307:3370   */\n      tag_47\n      jump\t// in\n    tag_97:\n        /* \"#utility.yul\":3297:3370   */\n      swap2\n      pop\n        /* \"#utility.yul\":3092:3380   */\n      pop\n        /* \"#utility.yul\":2553:3387   */\n      swap3\n      pop\n      swap3\n      swap1\n      pop\n      jump\t// out\n        /* \"#utility.yul\":3393:3483   */\n    tag_48:\n        /* \"#utility.yul\":3427:3434   */\n      0x00\n        /* \"#utility.yul\":3470:3475   */\n      dup2\n        /* \"#utility.yul\":3463:3476   */\n      iszero\n        /* \"#utility.yul\":3456:3477   */\n      iszero\n        /* \"#utility.yul\":3445:3477   */\n      swap1\n      pop\n        /* \"#utility.yul\":3393:3483   */\n      swap2\n      swap1\n      pop\n      jump\t// out\n        /* \"#utility.yul\":3489:3598   */\n    tag_49:\n        /* \"#utility.yul\":3570:3591   */\n      tag_100\n        /* \"#utility.yul\":3585:3590   */\n      dup2\n        /* \"#utility.yul\":3570:3591   */\n      tag_48\n      jump\t// in\n    tag_100:\n        /* \"#utility.yul\":3565:3568   */\n      dup3\n        /* \"#utility.yul\":3558:3592   */\n      mstore\n        /* \"#utility.yul\":3489:3598   */\n      pop\n      pop\n      jump\t// out\n        /* \"#utility.yul\":3604:3814   */\n    tag_14:\n        /* \"#utility.yul\":3691:3695   */\n      0x00\n        /* \"#utility.yul\":3729:3731   */\n      0x20\n        /* \"#utility.yul\":3718:3727   */\n      dup3\n        /* \"#utility.yul\":3714:3732   */\n      add\n        /* \"#utility.yul\":3706:3732   */\n      swap1\n      pop\n        /* \"#utility.yul\":3742:3807   */\n      tag_102\n        /* \"#utility.yul\":3804:3805   */\n      0x00\n        /* \"#utility.yul\":3793:3802   */\n      dup4\n        /* \"#utility.yul\":3789:3806   */\n      add\n        /* \"#utility.yul\":3780:3786   */\n      dup5\n        /* \"#utility.yul\":3742:3807   */\n      tag_49\n      jump\t// in\n    tag_102:\n        /* \"#utility.yul\":3604:3814   */\n      swap3\n      swap2\n      pop\n      pop\n      jump\t// out\n        /* \"#utility.yul\":3820:4329   */\n    tag_17:\n        /* \"#utility.yul\":3889:3895   */\n      0x00\n        /* \"#utility.yul\":3938:3940   */\n      0x20\n        /* \"#utility.yul\":3926:3935   */\n      dup3\n        /* \"#utility.yul\":3917:3924   */\n      dup5\n        /* \"#utility.yul\":3913:3936   */\n      sub\n        /* \"#utility.yul\":3909:3941   */\n      slt\n        /* \"#utility.yul\":3906:4025   */\n      iszero\n      tag_104\n      jumpi\n        /* \"#utility.yul\":3944:4023   */\n      tag_105\n      tag_36\n      jump\t// in\n    tag_105:\n        /* \"#utility.yul\":3906:4025   */\n    tag_104:\n        /* \"#utility.yul\":4092:4093   */\n      0x00\n        /* \"#utility.yul\":4081:4090   */\n      dup3\n        /* \"#utility.yul\":4077:4094   */\n      add\n        /* \"#utility.yul\":4064:4095   */\n      calldataload\n        /* \"#utility.yul\":4122:4140   */\n      0xffffffffffffffff\n        /* \"#utility.yul\":4114:4120   */\n      dup2\n        /* \"#utility.yul\":4111:4141   */\n      gt\n        /* \"#utility.yul\":4108:4225   */\n      iszero\n      tag_106\n      jumpi\n        /* \"#utility.yul\":4144:4223   */\n      tag_107\n      tag_37\n      jump\t// in\n    tag_107:\n        /* \"#utility.yul\":4108:4225   */\n    tag_106:\n        /* \"#utility.yul\":4249:4312   */\n      tag_108\n        /* \"#utility.yul\":4304:4311   */\n      dup5\n        /* \"#utility.yul\":4295:4301   */\n      dup3\n        /* \"#utility.yul\":4284:4293   */\n      dup6\n        /* \"#utility.yul\":4280:4302   */\n      add\n        /* \"#utility.yul\":4249:4312   */\n      tag_47\n      jump\t// in\n    tag_108:\n        /* \"#utility.yul\":4239:4312   */\n      swap2\n      pop\n        /* \"#utility.yul\":4035:4322   */\n      pop\n        /* \"#utility.yul\":3820:4329   */\n      swap3\n      swap2\n      pop\n      pop\n      jump\t// out\n        /* \"#utility.yul\":4335:4412   */\n    tag_50:\n        /* \"#utility.yul\":4372:4379   */\n      0x00\n        /* \"#utility.yul\":4401:4406   */\n      dup2\n        /* \"#utility.yul\":4390:4406   */\n      swap1\n      pop\n        /* \"#utility.yul\":4335:4412   */\n      swap2\n      swap1\n      pop\n      jump\t// out\n        /* \"#utility.yul\":4418:4536   */\n    tag_51:\n        /* \"#utility.yul\":4505:4529   */\n      tag_111\n        /* \"#utility.yul\":4523:4528   */\n      dup2\n        /* \"#utility.yul\":4505:4529   */\n      tag_50\n      jump\t// in\n    tag_111:\n        /* \"#utility.yul\":4500:4503   */\n      dup3\n        /* \"#utility.yul\":4493:4530   */\n      mstore\n        /* \"#utility.yul\":4418:4536   */\n      pop\n      pop\n      jump\t// out\n        /* \"#utility.yul\":4542:4764   */\n    tag_20:\n        /* \"#utility.yul\":4635:4639   */\n      0x00\n        /* \"#utility.yul\":4673:4675   */\n      0x20\n        /* \"#utility.yul\":4662:4671   */\n      dup3\n        /* \"#utility.yul\":4658:4676   */\n      add\n        /* \"#utility.yul\":4650:4676   */\n      swap1\n      pop\n        /* \"#utility.yul\":4686:4757   */\n      tag_113\n        /* \"#utility.yul\":4754:4755   */\n      0x00\n        /* \"#utility.yul\":4743:4752   */\n      dup4\n        /* \"#utility.yul\":4739:4756   */\n      add\n        /* \"#utility.yul\":4730:4736   */\n      dup5\n        /* \"#utility.yul\":4686:4757   */\n      tag_51\n      jump\t// in\n    tag_113:\n        /* \"#utility.yul\":4542:4764   */\n      swap3\n      swap2\n      pop\n      pop\n      jump\t// out\n        /* \"#utility.yul\":4770:4869   */\n    tag_52:\n        /* \"#utility.yul\":4822:4828   */\n      0x00\n        /* \"#utility.yul\":4856:4861   */\n      dup2\n        /* \"#utility.yul\":4850:4862   */\n      mload\n        /* \"#utility.yul\":4840:4862   */\n      swap1\n      pop\n        /* \"#utility.yul\":4770:4869   */\n      swap2\n      swap1\n      pop\n      jump\t// out\n        /* \"#utility.yul\":4875:5023   */\n    tag_53:\n        /* \"#utility.yul\":4977:4988   */\n      0x00\n        /* \"#utility.yul\":5014:5017   */\n      dup2\n        /* \"#utility.yul\":4999:5017   */\n      swap1\n      pop\n        /* \"#utility.yul\":4875:5023   */\n      swap3\n      swap2\n      pop\n      pop\n      jump\t// out\n        /* \"#utility.yul\":5029:5275   */\n    tag_54:\n        /* \"#utility.yul\":5110:5111   */\n      0x00\n        /* \"#utility.yul\":5120:5233   */\n    tag_117:\n        /* \"#utility.yul\":5134:5140   */\n      dup4\n        /* \"#utility.yul\":5131:5132   */\n      dup2\n        /* \"#utility.yul\":5128:5141   */\n      lt\n        /* \"#utility.yul\":5120:5233   */\n      iszero\n      tag_119\n      jumpi\n        /* \"#utility.yul\":5219:5220   */\n      dup1\n        /* \"#utility.yul\":5214:5217   */\n      dup3\n        /* \"#utility.yul\":5210:5221   */\n      add\n        /* \"#utility.yul\":5204:5222   */\n      mload\n        /* \"#utility.yul\":5200:5201   */\n      dup2\n        /* \"#utility.yul\":5195:5198   */\n      dup5\n        /* \"#utility.yul\":5191:5202   */\n      add\n        /* \"#utility.yul\":5184:5223   */\n      mstore\n        /* \"#utility.yul\":5156:5158   */\n      0x20\n        /* \"#utility.yul\":5153:5154   */\n      dup2\n        /* \"#utility.yul\":5149:5159   */\n      add\n        /* \"#utility.yul\":5144:5159   */\n      swap1\n      pop\n        /* \"#utility.yul\":5120:5233   */\n      jump(tag_117)\n    tag_119:\n        /* \"#utility.yul\":5267:5268   */\n      0x00\n        /* \"#utility.yul\":5258:5264   */\n      dup5\n        /* \"#utility.yul\":5253:5256   */\n      dup5\n        /* \"#utility.yul\":5249:5265   */\n      add\n        /* \"#utility.yul\":5242:5269   */\n      mstore\n        /* \"#utility.yul\":5091:5275   */\n      pop\n        /* \"#utility.yul\":5029:5275   */\n      pop\n      pop\n      pop\n      jump\t// out\n        /* \"#utility.yul\":5281:5671   */\n    tag_55:\n        /* \"#utility.yul\":5387:5390   */\n      0x00\n        /* \"#utility.yul\":5415:5454   */\n      tag_121\n        /* \"#utility.yul\":5448:5453   */\n      dup3\n        /* \"#utility.yul\":5415:5454   */\n      tag_52\n      jump\t// in\n    tag_121:\n        /* \"#utility.yul\":5470:5559   */\n      tag_122\n        /* \"#utility.yul\":5552:5558   */\n      dup2\n        /* \"#utility.yul\":5547:5550   */\n      dup6\n        /* \"#utility.yul\":5470:5559   */\n      tag_53\n      jump\t// in\n    tag_122:\n        /* \"#utility.yul\":5463:5559   */\n      swap4\n      pop\n        /* \"#utility.yul\":5568:5633   */\n      tag_123\n        /* \"#utility.yul\":5626:5632   */\n      dup2\n        /* \"#utility.yul\":5621:5624   */\n      dup6\n        /* \"#utility.yul\":5614:5618   */\n      0x20\n        /* \"#utility.yul\":5607:5612   */\n      dup7\n        /* \"#utility.yul\":5603:5619   */\n      add\n        /* \"#utility.yul\":5568:5633   */\n      tag_54\n      jump\t// in\n    tag_123:\n        /* \"#utility.yul\":5658:5664   */\n      dup1\n        /* \"#utility.yul\":5653:5656   */\n      dup5\n        /* \"#utility.yul\":5649:5665   */\n      add\n        /* \"#utility.yul\":5642:5665   */\n      swap2\n      pop\n        /* \"#utility.yul\":5391:5671   */\n      pop\n        /* \"#utility.yul\":5281:5671   */\n      swap3\n      swap2\n      pop\n      pop\n      jump\t// out\n        /* \"#utility.yul\":5677:5952   */\n    tag_23:\n        /* \"#utility.yul\":5809:5812   */\n      0x00\n        /* \"#utility.yul\":5831:5926   */\n      tag_125\n        /* \"#utility.yul\":5922:5925   */\n      dup3\n        /* \"#utility.yul\":5913:5919   */\n      dup5\n        /* \"#utility.yul\":5831:5926   */\n      tag_55\n      jump\t// in\n    tag_125:\n        /* \"#utility.yul\":5824:5926   */\n      swap2\n      pop\n        /* \"#utility.yul\":5943:5946   */\n      dup2\n        /* \"#utility.yul\":5936:5946   */\n      swap1\n      pop\n        /* \"#utility.yul\":5677:5952   */\n      swap3\n      swap2\n      pop\n      pop\n      jump\t// out\n        /* \"#utility.yul\":5958:6127   */\n    tag_56:\n        /* \"#utility.yul\":6042:6053   */\n      0x00\n        /* \"#utility.yul\":6076:6082   */\n      dup3\n        /* \"#utility.yul\":6071:6074   */\n      dup3\n        /* \"#utility.yul\":6064:6083   */\n      mstore\n        /* \"#utility.yul\":6116:6120   */\n      0x20\n        /* \"#utility.yul\":6111:6114   */\n      dup3\n        /* \"#utility.yul\":6107:6121   */\n      add\n        /* \"#utility.yul\":6092:6121   */\n      swap1\n      pop\n        /* \"#utility.yul\":5958:6127   */\n      swap3\n      swap2\n      pop\n      pop\n      jump\t// out\n        /* \"#utility.yul\":6133:6353   */\n    tag_57:\n        /* \"#utility.yul\":6273:6307   */\n      0x70726f766964656420495320697320616c7265616479206265696e6720757365\n        /* \"#utility.yul\":6269:6270   */\n      0x00\n        /* \"#utility.yul\":6261:6267   */\n      dup3\n        /* \"#utility.yul\":6257:6271   */\n      add\n        /* \"#utility.yul\":6250:6308   */\n      mstore\n        /* \"#utility.yul\":6342:6345   */\n      0x6400000000000000000000000000000000000000000000000000000000000000\n        /* \"#utility.yul\":6337:6339   */\n      0x20\n        /* \"#utility.yul\":6329:6335   */\n      dup3\n        /* \"#utility.yul\":6325:6340   */\n      add\n        /* \"#utility.yul\":6318:6346   */\n      mstore\n        /* \"#utility.yul\":6133:6353   */\n      pop\n      jump\t// out\n        /* \"#utility.yul\":6359:6725   */\n    tag_58:\n        /* \"#utility.yul\":6501:6504   */\n      0x00\n        /* \"#utility.yul\":6522:6589   */\n      tag_129\n        /* \"#utility.yul\":6586:6588   */\n      0x21\n        /* \"#utility.yul\":6581:6584   */\n      dup4\n        /* \"#utility.yul\":6522:6589   */\n      tag_56\n      jump\t// in\n    tag_129:\n        /* \"#utility.yul\":6515:6589   */\n      swap2\n      pop\n        /* \"#utility.yul\":6598:6691   */\n      tag_130\n        /* \"#utility.yul\":6687:6690   */\n      dup3\n        /* \"#utility.yul\":6598:6691   */\n      tag_57\n      jump\t// in\n    tag_130:\n        /* \"#utility.yul\":6716:6718   */\n      0x40\n        /* \"#utility.yul\":6711:6714   */\n      dup3\n        /* \"#utility.yul\":6707:6719   */\n      add\n        /* \"#utility.yul\":6700:6719   */\n      swap1\n      pop\n        /* \"#utility.yul\":6359:6725   */\n      swap2\n      swap1\n      pop\n      jump\t// out\n        /* \"#utility.yul\":6731:7150   */\n    tag_26:\n        /* \"#utility.yul\":6897:6901   */\n      0x00\n        /* \"#utility.yul\":6935:6937   */\n      0x20\n        /* \"#utility.yul\":6924:6933   */\n      dup3\n        /* \"#utility.yul\":6920:6938   */\n      add\n        /* \"#utility.yul\":6912:6938   */\n      swap1\n      pop\n        /* \"#utility.yul\":6984:6993   */\n      dup2\n        /* \"#utility.yul\":6978:6982   */\n      dup2\n        /* \"#utility.yul\":6974:6994   */\n      sub\n        /* \"#utility.yul\":6970:6971   */\n      0x00\n        /* \"#utility.yul\":6959:6968   */\n      dup4\n        /* \"#utility.yul\":6955:6972   */\n      add\n        /* \"#utility.yul\":6948:6995   */\n      mstore\n        /* \"#utility.yul\":7012:7143   */\n      tag_132\n        /* \"#utility.yul\":7138:7142   */\n      dup2\n        /* \"#utility.yul\":7012:7143   */\n      tag_58\n      jump\t// in\n    tag_132:\n        /* \"#utility.yul\":7004:7143   */\n      swap1\n      pop\n        /* \"#utility.yul\":6731:7150   */\n      swap2\n      swap1\n      pop\n      jump\t// out\n        /* \"#utility.yul\":7156:7591   */\n    tag_28:\n        /* \"#utility.yul\":7336:7339   */\n      0x00\n        /* \"#utility.yul\":7358:7453   */\n      tag_134\n        /* \"#utility.yul\":7449:7452   */\n      dup3\n        /* \"#utility.yul\":7440:7446   */\n      dup6\n        /* \"#utility.yul\":7358:7453   */\n      tag_55\n      jump\t// in\n    tag_134:\n        /* \"#utility.yul\":7351:7453   */\n      swap2\n      pop\n        /* \"#utility.yul\":7470:7565   */\n      tag_135\n        /* \"#utility.yul\":7561:7564   */\n      dup3\n        /* \"#utility.yul\":7552:7558   */\n      dup5\n        /* \"#utility.yul\":7470:7565   */\n      tag_55\n      jump\t// in\n    tag_135:\n        /* \"#utility.yul\":7463:7565   */\n      swap2\n      pop\n        /* \"#utility.yul\":7582:7585   */\n      dup2\n        /* \"#utility.yul\":7575:7585   */\n      swap1\n      pop\n        /* \"#utility.yul\":7156:7591   */\n      swap4\n      swap3\n      pop\n      pop\n      pop\n      jump\t// out\n\n    auxdata: 0xa264697066735822122015d66da7973e468d31eae7b18891be0e33305c2029b359c058b3d269e80b053964736f6c63430008120033\n}\n",
				"bytecode": {
					"linkReferences": {},
					"object": "608060405234801561001057600080fd5b506105f8806100206000396000f3fe608060405234801561001057600080fd5b50600436106100415760003560e01c80632c162dbc1461004657806358467dbc146100625780636ad30cd814610092575b600080fd5b610060600480360381019061005b9190610348565b6100c2565b005b61007c60048036038101906100779190610348565b610174565b60405161008991906103db565b60405180910390f35b6100ac60048036038101906100a791906103f6565b6101c7565b6040516100b99190610458565b60405180910390f35b6000801b6000836040516100d691906104e4565b90815260200160405180910390205414610125576040517f08c379a000000000000000000000000000000000000000000000000000000000815260040161011c9061057e565b60405180910390fd5b818160405160200161013892919061059e565b6040516020818303038152906040528051906020012060008360405161015e91906104e4565b9081526020016040518091039020819055505050565b6000828260405160200161018992919061059e565b604051602081830303815290604052805190602001206000846040516101af91906104e4565b90815260200160405180910390205414905092915050565b600080826040516101d891906104e4565b9081526020016040518091039020549050919050565b6000604051905090565b600080fd5b600080fd5b600080fd5b600080fd5b6000601f19601f8301169050919050565b7f4e487b7100000000000000000000000000000000000000000000000000000000600052604160045260246000fd5b6102558261020c565b810181811067ffffffffffffffff821117156102745761027361021d565b5b80604052505050565b60006102876101ee565b9050610293828261024c565b919050565b600067ffffffffffffffff8211156102b3576102b261021d565b5b6102bc8261020c565b9050602081019050919050565b82818337600083830152505050565b60006102eb6102e684610298565b61027d565b90508281526020810184848401111561030757610306610207565b5b6103128482856102c9565b509392505050565b600082601f83011261032f5761032e610202565b5b813561033f8482602086016102d8565b91505092915050565b6000806040838503121561035f5761035e6101f8565b5b600083013567ffffffffffffffff81111561037d5761037c6101fd565b5b6103898582860161031a565b925050602083013567ffffffffffffffff8111156103aa576103a96101fd565b5b6103b68582860161031a565b9150509250929050565b60008115159050919050565b6103d5816103c0565b82525050565b60006020820190506103f060008301846103cc565b92915050565b60006020828403121561040c5761040b6101f8565b5b600082013567ffffffffffffffff81111561042a576104296101fd565b5b6104368482850161031a565b91505092915050565b6000819050919050565b6104528161043f565b82525050565b600060208201905061046d6000830184610449565b92915050565b600081519050919050565b600081905092915050565b60005b838110156104a757808201518184015260208101905061048c565b60008484015250505050565b60006104be82610473565b6104c8818561047e565b93506104d8818560208601610489565b80840191505092915050565b60006104f082846104b3565b915081905092915050565b600082825260208201905092915050565b7f70726f766964656420495320697320616c7265616479206265696e672075736560008201527f6400000000000000000000000000000000000000000000000000000000000000602082015250565b60006105686021836104fb565b91506105738261050c565b604082019050919050565b600060208201905081810360008301526105978161055b565b9050919050565b60006105aa82856104b3565b91506105b682846104b3565b9150819050939250505056fea264697066735822122015d66da7973e468d31eae7b18891be0e33305c2029b359c058b3d269e80b053964736f6c63430008120033",
					"opcodes": "PUSH1 0x80 PUSH1 0x40 MSTORE CALLVALUE DUP1 ISZERO PUSH2 0x10 JUMPI PUSH1 0x0 DUP1 REVERT JUMPDEST POP PUSH2 0x5F8 DUP1 PUSH2 0x20 PUSH1 0x0 CODECOPY PUSH1 0x0 RETURN INVALID PUSH1 0x80 PUSH1 0x40 MSTORE CALLVALUE DUP1 ISZERO PUSH2 0x10 JUMPI PUSH1 0x0 DUP1 REVERT JUMPDEST POP PUSH1 0x4 CALLDATASIZE LT PUSH2 0x41 JUMPI PUSH1 0x0 CALLDATALOAD PUSH1 0xE0 SHR DUP1 PUSH4 0x2C162DBC EQ PUSH2 0x46 JUMPI DUP1 PUSH4 0x58467DBC EQ PUSH2 0x62 JUMPI DUP1 PUSH4 0x6AD30CD8 EQ PUSH2 0x92 JUMPI JUMPDEST PUSH1 0x0 DUP1 REVERT JUMPDEST PUSH2 0x60 PUSH1 0x4 DUP1 CALLDATASIZE SUB DUP2 ADD SWAP1 PUSH2 0x5B SWAP2 SWAP1 PUSH2 0x348 JUMP JUMPDEST PUSH2 0xC2 JUMP JUMPDEST STOP JUMPDEST PUSH2 0x7C PUSH1 0x4 DUP1 CALLDATASIZE SUB DUP2 ADD SWAP1 PUSH2 0x77 SWAP2 SWAP1 PUSH2 0x348 JUMP JUMPDEST PUSH2 0x174 JUMP JUMPDEST PUSH1 0x40 MLOAD PUSH2 0x89 SWAP2 SWAP1 PUSH2 0x3DB JUMP JUMPDEST PUSH1 0x40 MLOAD DUP1 SWAP2 SUB SWAP1 RETURN JUMPDEST PUSH2 0xAC PUSH1 0x4 DUP1 CALLDATASIZE SUB DUP2 ADD SWAP1 PUSH2 0xA7 SWAP2 SWAP1 PUSH2 0x3F6 JUMP JUMPDEST PUSH2 0x1C7 JUMP JUMPDEST PUSH1 0x40 MLOAD PUSH2 0xB9 SWAP2 SWAP1 PUSH2 0x458 JUMP JUMPDEST PUSH1 0x40 MLOAD DUP1 SWAP2 SUB SWAP1 RETURN JUMPDEST PUSH1 0x0 DUP1 SHL PUSH1 0x0 DUP4 PUSH1 0x40 MLOAD PUSH2 0xD6 SWAP2 SWAP1 PUSH2 0x4E4 JUMP JUMPDEST SWAP1 DUP2 MSTORE PUSH1 0x20 ADD PUSH1 0x40 MLOAD DUP1 SWAP2 SUB SWAP1 KECCAK256 SLOAD EQ PUSH2 0x125 JUMPI PUSH1 0x40 MLOAD PUSH32 0x8C379A000000000000000000000000000000000000000000000000000000000 DUP2 MSTORE PUSH1 0x4 ADD PUSH2 0x11C SWAP1 PUSH2 0x57E JUMP JUMPDEST PUSH1 0x40 MLOAD DUP1 SWAP2 SUB SWAP1 REVERT JUMPDEST DUP2 DUP2 PUSH1 0x40 MLOAD PUSH1 0x20 ADD PUSH2 0x138 SWAP3 SWAP2 SWAP1 PUSH2 0x59E JUMP JUMPDEST PUSH1 0x40 MLOAD PUSH1 0x20 DUP2 DUP4 SUB SUB DUP2 MSTORE SWAP1 PUSH1 0x40 MSTORE DUP1 MLOAD SWAP1 PUSH1 0x20 ADD KECCAK256 PUSH1 0x0 DUP4 PUSH1 0x40 MLOAD PUSH2 0x15E SWAP2 SWAP1 PUSH2 0x4E4 JUMP JUMPDEST SWAP1 DUP2 MSTORE PUSH1 0x20 ADD PUSH1 0x40 MLOAD DUP1 SWAP2 SUB SWAP1 KECCAK256 DUP2 SWAP1 SSTORE POP POP POP JUMP JUMPDEST PUSH1 0x0 DUP3 DUP3 PUSH1 0x40 MLOAD PUSH1 0x20 ADD PUSH2 0x189 SWAP3 SWAP2 SWAP1 PUSH2 0x59E JUMP JUMPDEST PUSH1 0x40 MLOAD PUSH1 0x20 DUP2 DUP4 SUB SUB DUP2 MSTORE SWAP1 PUSH1 0x40 MSTORE DUP1 MLOAD SWAP1 PUSH1 0x20 ADD KECCAK256 PUSH1 0x0 DUP5 PUSH1 0x40 MLOAD PUSH2 0x1AF SWAP2 SWAP1 PUSH2 0x4E4 JUMP JUMPDEST SWAP1 DUP2 MSTORE PUSH1 0x20 ADD PUSH1 0x40 MLOAD DUP1 SWAP2 SUB SWAP1 KECCAK256 SLOAD EQ SWAP1 POP SWAP3 SWAP2 POP POP JUMP JUMPDEST PUSH1 0x0 DUP1 DUP3 PUSH1 0x40 MLOAD PUSH2 0x1D8 SWAP2 SWAP1 PUSH2 0x4E4 JUMP JUMPDEST SWAP1 DUP2 MSTORE PUSH1 0x20 ADD PUSH1 0x40 MLOAD DUP1 SWAP2 SUB SWAP1 KECCAK256 SLOAD SWAP1 POP SWAP2 SWAP1 POP JUMP JUMPDEST PUSH1 0x0 PUSH1 0x40 MLOAD SWAP1 POP SWAP1 JUMP JUMPDEST PUSH1 0x0 DUP1 REVERT JUMPDEST PUSH1 0x0 DUP1 REVERT JUMPDEST PUSH1 0x0 DUP1 REVERT JUMPDEST PUSH1 0x0 DUP1 REVERT JUMPDEST PUSH1 0x0 PUSH1 0x1F NOT PUSH1 0x1F DUP4 ADD AND SWAP1 POP SWAP2 SWAP1 POP JUMP JUMPDEST PUSH32 0x4E487B7100000000000000000000000000000000000000000000000000000000 PUSH1 0x0 MSTORE PUSH1 0x41 PUSH1 0x4 MSTORE PUSH1 0x24 PUSH1 0x0 REVERT JUMPDEST PUSH2 0x255 DUP3 PUSH2 0x20C JUMP JUMPDEST DUP2 ADD DUP2 DUP2 LT PUSH8 0xFFFFFFFFFFFFFFFF DUP3 GT OR ISZERO PUSH2 0x274 JUMPI PUSH2 0x273 PUSH2 0x21D JUMP JUMPDEST JUMPDEST DUP1 PUSH1 0x40 MSTORE POP POP POP JUMP JUMPDEST PUSH1 0x0 PUSH2 0x287 PUSH2 0x1EE JUMP JUMPDEST SWAP1 POP PUSH2 0x293 DUP3 DUP3 PUSH2 0x24C JUMP JUMPDEST SWAP2 SWAP1 POP JUMP JUMPDEST PUSH1 0x0 PUSH8 0xFFFFFFFFFFFFFFFF DUP3 GT ISZERO PUSH2 0x2B3 JUMPI PUSH2 0x2B2 PUSH2 0x21D JUMP JUMPDEST JUMPDEST PUSH2 0x2BC DUP3 PUSH2 0x20C JUMP JUMPDEST SWAP1 POP PUSH1 0x20 DUP2 ADD SWAP1 POP SWAP2 SWAP1 POP JUMP JUMPDEST DUP3 DUP2 DUP4 CALLDATACOPY PUSH1 0x0 DUP4 DUP4 ADD MSTORE POP POP POP JUMP JUMPDEST PUSH1 0x0 PUSH2 0x2EB PUSH2 0x2E6 DUP5 PUSH2 0x298 JUMP JUMPDEST PUSH2 0x27D JUMP JUMPDEST SWAP1 POP DUP3 DUP2 MSTORE PUSH1 0x20 DUP2 ADD DUP5 DUP5 DUP5 ADD GT ISZERO PUSH2 0x307 JUMPI PUSH2 0x306 PUSH2 0x207 JUMP JUMPDEST JUMPDEST PUSH2 0x312 DUP5 DUP3 DUP6 PUSH2 0x2C9 JUMP JUMPDEST POP SWAP4 SWAP3 POP POP POP JUMP JUMPDEST PUSH1 0x0 DUP3 PUSH1 0x1F DUP4 ADD SLT PUSH2 0x32F JUMPI PUSH2 0x32E PUSH2 0x202 JUMP JUMPDEST JUMPDEST DUP2 CALLDATALOAD PUSH2 0x33F DUP5 DUP3 PUSH1 0x20 DUP7 ADD PUSH2 0x2D8 JUMP JUMPDEST SWAP2 POP POP SWAP3 SWAP2 POP POP JUMP JUMPDEST PUSH1 0x0 DUP1 PUSH1 0x40 DUP4 DUP6 SUB SLT ISZERO PUSH2 0x35F JUMPI PUSH2 0x35E PUSH2 0x1F8 JUMP JUMPDEST JUMPDEST PUSH1 0x0 DUP4 ADD CALLDATALOAD PUSH8 0xFFFFFFFFFFFFFFFF DUP2 GT ISZERO PUSH2 0x37D JUMPI PUSH2 0x37C PUSH2 0x1FD JUMP JUMPDEST JUMPDEST PUSH2 0x389 DUP6 DUP3 DUP7 ADD PUSH2 0x31A JUMP JUMPDEST SWAP3 POP POP PUSH1 0x20 DUP4 ADD CALLDATALOAD PUSH8 0xFFFFFFFFFFFFFFFF DUP2 GT ISZERO PUSH2 0x3AA JUMPI PUSH2 0x3A9 PUSH2 0x1FD JUMP JUMPDEST JUMPDEST PUSH2 0x3B6 DUP6 DUP3 DUP7 ADD PUSH2 0x31A JUMP JUMPDEST SWAP2 POP POP SWAP3 POP SWAP3 SWAP1 POP JUMP JUMPDEST PUSH1 0x0 DUP2 ISZERO ISZERO SWAP1 POP SWAP2 SWAP1 POP JUMP JUMPDEST PUSH2 0x3D5 DUP2 PUSH2 0x3C0 JUMP JUMPDEST DUP3 MSTORE POP POP JUMP JUMPDEST PUSH1 0x0 PUSH1 0x20 DUP3 ADD SWAP1 POP PUSH2 0x3F0 PUSH1 0x0 DUP4 ADD DUP5 PUSH2 0x3CC JUMP JUMPDEST SWAP3 SWAP2 POP POP JUMP JUMPDEST PUSH1 0x0 PUSH1 0x20 DUP3 DUP5 SUB SLT ISZERO PUSH2 0x40C JUMPI PUSH2 0x40B PUSH2 0x1F8 JUMP JUMPDEST JUMPDEST PUSH1 0x0 DUP3 ADD CALLDATALOAD PUSH8 0xFFFFFFFFFFFFFFFF DUP2 GT ISZERO PUSH2 0x42A JUMPI PUSH2 0x429 PUSH2 0x1FD JUMP JUMPDEST JUMPDEST PUSH2 0x436 DUP5 DUP3 DUP6 ADD PUSH2 0x31A JUMP JUMPDEST SWAP2 POP POP SWAP3 SWAP2 POP POP JUMP JUMPDEST PUSH1 0x0 DUP2 SWAP1 POP SWAP2 SWAP1 POP JUMP JUMPDEST PUSH2 0x452 DUP2 PUSH2 0x43F JUMP JUMPDEST DUP3 MSTORE POP POP JUMP JUMPDEST PUSH1 0x0 PUSH1 0x20 DUP3 ADD SWAP1 POP PUSH2 0x46D PUSH1 0x0 DUP4 ADD DUP5 PUSH2 0x449 JUMP JUMPDEST SWAP3 SWAP2 POP POP JUMP JUMPDEST PUSH1 0x0 DUP2 MLOAD SWAP1 POP SWAP2 SWAP1 POP JUMP JUMPDEST PUSH1 0x0 DUP2 SWAP1 POP SWAP3 SWAP2 POP POP JUMP JUMPDEST PUSH1 0x0 JUMPDEST DUP4 DUP2 LT ISZERO PUSH2 0x4A7 JUMPI DUP1 DUP3 ADD MLOAD DUP2 DUP5 ADD MSTORE PUSH1 0x20 DUP2 ADD SWAP1 POP PUSH2 0x48C JUMP JUMPDEST PUSH1 0x0 DUP5 DUP5 ADD MSTORE POP POP POP POP JUMP JUMPDEST PUSH1 0x0 PUSH2 0x4BE DUP3 PUSH2 0x473 JUMP JUMPDEST PUSH2 0x4C8 DUP2 DUP6 PUSH2 0x47E JUMP JUMPDEST SWAP4 POP PUSH2 0x4D8 DUP2 DUP6 PUSH1 0x20 DUP7 ADD PUSH2 0x489 JUMP JUMPDEST DUP1 DUP5 ADD SWAP2 POP POP SWAP3 SWAP2 POP POP JUMP JUMPDEST PUSH1 0x0 PUSH2 0x4F0 DUP3 DUP5 PUSH2 0x4B3 JUMP JUMPDEST SWAP2 POP DUP2 SWAP1 POP SWAP3 SWAP2 POP POP JUMP JUMPDEST PUSH1 0x0 DUP3 DUP3 MSTORE PUSH1 0x20 DUP3 ADD SWAP1 POP SWAP3 SWAP2 POP POP JUMP JUMPDEST PUSH32 0x70726F766964656420495320697320616C7265616479206265696E6720757365 PUSH1 0x0 DUP3 ADD MSTORE PUSH32 0x6400000000000000000000000000000000000000000000000000000000000000 PUSH1 0x20 DUP3 ADD MSTORE POP JUMP JUMPDEST PUSH1 0x0 PUSH2 0x568 PUSH1 0x21 DUP4 PUSH2 0x4FB JUMP JUMPDEST SWAP2 POP PUSH2 0x573 DUP3 PUSH2 0x50C JUMP JUMPDEST PUSH1 0x40 DUP3 ADD SWAP1 POP SWAP2 SWAP1 POP JUMP JUMPDEST PUSH1 0x0 PUSH1 0x20 DUP3 ADD SWAP1 POP DUP2 DUP2 SUB PUSH1 0x0 DUP4 ADD MSTORE PUSH2 0x597 DUP2 PUSH2 0x55B JUMP JUMPDEST SWAP1 POP SWAP2 SWAP1 POP JUMP JUMPDEST PUSH1 0x0 PUSH2 0x5AA DUP3 DUP6 PUSH2 0x4B3 JUMP JUMPDEST SWAP2 POP PUSH2 0x5B6 DUP3 DUP5 PUSH2 0x4B3 JUMP JUMPDEST SWAP2 POP DUP2 SWAP1 POP SWAP4 SWAP3 POP POP POP JUMP INVALID LOG2 PUSH5 0x6970667358 0x22 SLT KECCAK256 ISZERO 0xD6 PUSH14 0xA7973E468D31EAE7B18891BE0E33 ADDRESS 0x5C KECCAK256 0x29 0xB3 MSIZE 0xC0 PC 0xB3 0xD2 PUSH10 0xE80B053964736F6C6343 STOP ADDMOD SLT STOP CALLER "
				},
				"gasEstimates": {
					"creation": {
						"codeDepositCost": "305600",
						"executionCost": "343",
						"totalCost": "305943"
					},
					"external": {
						"login(string,string)": "infinite",
						"login2(string)": "infinite",
						"signIn(string,string)": "infinite"
					}
				},
				"methodIdentifiers": {
					"login(string,string)": "58467dbc",
					"login2(string)": "6ad30cd8",
					"signIn(string,string)": "2c162dbc"
				}
			},
			"storageLayout": {
				"storage": [
					{
						"astId": 5,
						"contract": "contracts/test2.sol:test",
						"label": "ID_PW",
						"offset": 0,
						"slot": "0",
						"type": "t_mapping(t_string_memory_ptr,t_bytes32)"
					}
				],
				"types": {
					"t_bytes32": {
						"encoding": "inplace",
						"label": "bytes32",
						"numberOfBytes": "32"
					},
					"t_mapping(t_string_memory_ptr,t_bytes32)": {
						"encoding": "mapping",
						"key": "t_string_memory_ptr",
						"label": "mapping(string => bytes32)",
						"numberOfBytes": "32",
						"value": "t_bytes32"
					},
					"t_string_memory_ptr": {
						"encoding": "bytes",
						"label": "string",
						"numberOfBytes": "32"
					}
				}
			},
			"userdoc": {
				"kind": "user",
				"methods": {},
				"version": 1
			}
		}
	}
}