{
	"contracts/practice_2.sol": {
		"practice_2": {
			"abi": [
				{
					"inputs": [
						{
							"internalType": "uint256",
							"name": "a",
							"type": "uint256"
						},
						{
							"internalType": "uint256",
							"name": "b",
							"type": "uint256"
						}
					],
					"name": "Add",
					"outputs": [
						{
							"internalType": "uint256",
							"name": "",
							"type": "uint256"
						}
					],
					"stateMutability": "pure",
					"type": "function"
				},
				{
					"inputs": [
						{
							"internalType": "uint256",
							"name": "a",
							"type": "uint256"
						},
						{
							"internalType": "uint256",
							"name": "b",
							"type": "uint256"
						}
					],
					"name": "Div",
					"outputs": [
						{
							"internalType": "uint256",
							"name": "",
							"type": "uint256"
						}
					],
					"stateMutability": "pure",
					"type": "function"
				},
				{
					"inputs": [
						{
							"internalType": "uint256",
							"name": "a",
							"type": "uint256"
						},
						{
							"internalType": "uint256",
							"name": "b",
							"type": "uint256"
						}
					],
					"name": "Mul",
					"outputs": [
						{
							"internalType": "uint256",
							"name": "",
							"type": "uint256"
						}
					],
					"stateMutability": "pure",
					"type": "function"
				},
				{
					"inputs": [
						{
							"internalType": "uint256",
							"name": "a",
							"type": "uint256"
						},
						{
							"internalType": "uint256",
							"name": "b",
							"type": "uint256"
						}
					],
					"name": "Sub",
					"outputs": [
						{
							"internalType": "uint256",
							"name": "",
							"type": "uint256"
						}
					],
					"stateMutability": "pure",
					"type": "function"
				}
			],
			"devdoc": {
				"kind": "dev",
				"methods": {},
				"version": 1
			},
			"evm": {
				"assembly": "    /* \"contracts/practice_2.sol\":334:837  contract practice_2 {... */\n  mstore(0x40, 0x80)\n  callvalue\n  dup1\n  iszero\n  tag_1\n  jumpi\n  0x00\n  dup1\n  revert\ntag_1:\n  pop\n  dataSize(sub_0)\n  dup1\n  dataOffset(sub_0)\n  0x00\n  codecopy\n  0x00\n  return\nstop\n\nsub_0: assembly {\n        /* \"contracts/practice_2.sol\":334:837  contract practice_2 {... */\n      mstore(0x40, 0x80)\n      callvalue\n      dup1\n      iszero\n      tag_1\n      jumpi\n      0x00\n      dup1\n      revert\n    tag_1:\n      pop\n      jumpi(tag_2, lt(calldatasize, 0x04))\n      shr(0xe0, calldataload(0x00))\n      dup1\n      0x1ec9c2c0\n      eq\n      tag_3\n      jumpi\n      dup1\n      0x60953744\n      eq\n      tag_4\n      jumpi\n      dup1\n      0x7afbe4f1\n      eq\n      tag_5\n      jumpi\n      dup1\n      0x9a03fe1d\n      eq\n      tag_6\n      jumpi\n    tag_2:\n      0x00\n      dup1\n      revert\n        /* \"contracts/practice_2.sol\":483:584  function Sub(uint a, uint b) public  pure returns (uint){... */\n    tag_3:\n      tag_7\n      0x04\n      dup1\n      calldatasize\n      sub\n      dup2\n      add\n      swap1\n      tag_8\n      swap2\n      swap1\n      tag_9\n      jump\t// in\n    tag_8:\n      tag_10\n      jump\t// in\n    tag_7:\n      mload(0x40)\n      tag_11\n      swap2\n      swap1\n      tag_12\n      jump\t// in\n    tag_11:\n      mload(0x40)\n      dup1\n      swap2\n      sub\n      swap1\n      return\n        /* \"contracts/practice_2.sol\":598:699  function Mul(uint a, uint b) public  pure returns(uint) {... */\n    tag_4:\n      tag_13\n      0x04\n      dup1\n      calldatasize\n      sub\n      dup2\n      add\n      swap1\n      tag_14\n      swap2\n      swap1\n      tag_9\n      jump\t// in\n    tag_14:\n      tag_15\n      jump\t// in\n    tag_13:\n      mload(0x40)\n      tag_16\n      swap2\n      swap1\n      tag_12\n      jump\t// in\n    tag_16:\n      mload(0x40)\n      dup1\n      swap2\n      sub\n      swap1\n      return\n        /* \"contracts/practice_2.sol\":370:469  function Add(uint a, uint b) public pure returns(uint){... */\n    tag_5:\n      tag_17\n      0x04\n      dup1\n      calldatasize\n      sub\n      dup2\n      add\n      swap1\n      tag_18\n      swap2\n      swap1\n      tag_9\n      jump\t// in\n    tag_18:\n      tag_19\n      jump\t// in\n    tag_17:\n      mload(0x40)\n      tag_20\n      swap2\n      swap1\n      tag_12\n      jump\t// in\n    tag_20:\n      mload(0x40)\n      dup1\n      swap2\n      sub\n      swap1\n      return\n        /* \"contracts/practice_2.sol\":725:826  function Div(uint a, uint b) public  pure returns(uint) {... */\n    tag_6:\n      tag_21\n      0x04\n      dup1\n      calldatasize\n      sub\n      dup2\n      add\n      swap1\n      tag_22\n      swap2\n      swap1\n      tag_9\n      jump\t// in\n    tag_22:\n      tag_23\n      jump\t// in\n    tag_21:\n      mload(0x40)\n      tag_24\n      swap2\n      swap1\n      tag_12\n      jump\t// in\n    tag_24:\n      mload(0x40)\n      dup1\n      swap2\n      sub\n      swap1\n      return\n        /* \"contracts/practice_2.sol\":483:584  function Sub(uint a, uint b) public  pure returns (uint){... */\n    tag_10:\n        /* \"contracts/practice_2.sol\":534:538  uint */\n      0x00\n        /* \"contracts/practice_2.sol\":568:569  b */\n      dup2\n        /* \"contracts/practice_2.sol\":564:565  a */\n      dup4\n        /* \"contracts/practice_2.sol\":564:569  a - b */\n      tag_26\n      swap2\n      swap1\n      tag_27\n      jump\t// in\n    tag_26:\n        /* \"contracts/practice_2.sol\":557:569  return a - b */\n      swap1\n      pop\n        /* \"contracts/practice_2.sol\":483:584  function Sub(uint a, uint b) public  pure returns (uint){... */\n      swap3\n      swap2\n      pop\n      pop\n      jump\t// out\n        /* \"contracts/practice_2.sol\":598:699  function Mul(uint a, uint b) public  pure returns(uint) {... */\n    tag_15:\n        /* \"contracts/practice_2.sol\":648:652  uint */\n      0x00\n        /* \"contracts/practice_2.sol\":683:684  b */\n      dup2\n        /* \"contracts/practice_2.sol\":679:680  a */\n      dup4\n        /* \"contracts/practice_2.sol\":679:684  a * b */\n      tag_29\n      swap2\n      swap1\n      tag_30\n      jump\t// in\n    tag_29:\n        /* \"contracts/practice_2.sol\":672:684  return a * b */\n      swap1\n      pop\n        /* \"contracts/practice_2.sol\":598:699  function Mul(uint a, uint b) public  pure returns(uint) {... */\n      swap3\n      swap2\n      pop\n      pop\n      jump\t// out\n        /* \"contracts/practice_2.sol\":370:469  function Add(uint a, uint b) public pure returns(uint){... */\n    tag_19:\n        /* \"contracts/practice_2.sol\":419:423  uint */\n      0x00\n        /* \"contracts/practice_2.sol\":453:454  b */\n      dup2\n        /* \"contracts/practice_2.sol\":449:450  a */\n      dup4\n        /* \"contracts/practice_2.sol\":449:454  a + b */\n      tag_32\n      swap2\n      swap1\n      tag_33\n      jump\t// in\n    tag_32:\n        /* \"contracts/practice_2.sol\":442:454  return a + b */\n      swap1\n      pop\n        /* \"contracts/practice_2.sol\":370:469  function Add(uint a, uint b) public pure returns(uint){... */\n      swap3\n      swap2\n      pop\n      pop\n      jump\t// out\n        /* \"contracts/practice_2.sol\":725:826  function Div(uint a, uint b) public  pure returns(uint) {... */\n    tag_23:\n        /* \"contracts/practice_2.sol\":775:779  uint */\n      0x00\n        /* \"contracts/practice_2.sol\":809:810  b */\n      dup2\n        /* \"contracts/practice_2.sol\":807:808  a */\n      dup4\n        /* \"contracts/practice_2.sol\":807:810  a/b */\n      tag_35\n      swap2\n      swap1\n      tag_36\n      jump\t// in\n    tag_35:\n        /* \"contracts/practice_2.sol\":799:810  return  a/b */\n      swap1\n      pop\n        /* \"contracts/practice_2.sol\":725:826  function Div(uint a, uint b) public  pure returns(uint) {... */\n      swap3\n      swap2\n      pop\n      pop\n      jump\t// out\n        /* \"#utility.yul\":88:205   */\n    tag_38:\n        /* \"#utility.yul\":197:198   */\n      0x00\n        /* \"#utility.yul\":194:195   */\n      dup1\n        /* \"#utility.yul\":187:199   */\n      revert\n        /* \"#utility.yul\":334:411   */\n    tag_40:\n        /* \"#utility.yul\":371:378   */\n      0x00\n        /* \"#utility.yul\":400:405   */\n      dup2\n        /* \"#utility.yul\":389:405   */\n      swap1\n      pop\n        /* \"#utility.yul\":334:411   */\n      swap2\n      swap1\n      pop\n      jump\t// out\n        /* \"#utility.yul\":417:539   */\n    tag_41:\n        /* \"#utility.yul\":490:514   */\n      tag_52\n        /* \"#utility.yul\":508:513   */\n      dup2\n        /* \"#utility.yul\":490:514   */\n      tag_40\n      jump\t// in\n    tag_52:\n        /* \"#utility.yul\":483:488   */\n      dup2\n        /* \"#utility.yul\":480:515   */\n      eq\n        /* \"#utility.yul\":470:533   */\n      tag_53\n      jumpi\n        /* \"#utility.yul\":529:530   */\n      0x00\n        /* \"#utility.yul\":526:527   */\n      dup1\n        /* \"#utility.yul\":519:531   */\n      revert\n        /* \"#utility.yul\":470:533   */\n    tag_53:\n        /* \"#utility.yul\":417:539   */\n      pop\n      jump\t// out\n        /* \"#utility.yul\":545:684   */\n    tag_42:\n        /* \"#utility.yul\":591:596   */\n      0x00\n        /* \"#utility.yul\":629:635   */\n      dup2\n        /* \"#utility.yul\":616:636   */\n      calldataload\n        /* \"#utility.yul\":607:636   */\n      swap1\n      pop\n        /* \"#utility.yul\":645:678   */\n      tag_55\n        /* \"#utility.yul\":672:677   */\n      dup2\n        /* \"#utility.yul\":645:678   */\n      tag_41\n      jump\t// in\n    tag_55:\n        /* \"#utility.yul\":545:684   */\n      swap3\n      swap2\n      pop\n      pop\n      jump\t// out\n        /* \"#utility.yul\":690:1164   */\n    tag_9:\n        /* \"#utility.yul\":758:764   */\n      0x00\n        /* \"#utility.yul\":766:772   */\n      dup1\n        /* \"#utility.yul\":815:817   */\n      0x40\n        /* \"#utility.yul\":803:812   */\n      dup4\n        /* \"#utility.yul\":794:801   */\n      dup6\n        /* \"#utility.yul\":790:813   */\n      sub\n        /* \"#utility.yul\":786:818   */\n      slt\n        /* \"#utility.yul\":783:902   */\n      iszero\n      tag_57\n      jumpi\n        /* \"#utility.yul\":821:900   */\n      tag_58\n      tag_38\n      jump\t// in\n    tag_58:\n        /* \"#utility.yul\":783:902   */\n    tag_57:\n        /* \"#utility.yul\":941:942   */\n      0x00\n        /* \"#utility.yul\":966:1019   */\n      tag_59\n        /* \"#utility.yul\":1011:1018   */\n      dup6\n        /* \"#utility.yul\":1002:1008   */\n      dup3\n        /* \"#utility.yul\":991:1000   */\n      dup7\n        /* \"#utility.yul\":987:1009   */\n      add\n        /* \"#utility.yul\":966:1019   */\n      tag_42\n      jump\t// in\n    tag_59:\n        /* \"#utility.yul\":956:1019   */\n      swap3\n      pop\n        /* \"#utility.yul\":912:1029   */\n      pop\n        /* \"#utility.yul\":1068:1070   */\n      0x20\n        /* \"#utility.yul\":1094:1147   */\n      tag_60\n        /* \"#utility.yul\":1139:1146   */\n      dup6\n        /* \"#utility.yul\":1130:1136   */\n      dup3\n        /* \"#utility.yul\":1119:1128   */\n      dup7\n        /* \"#utility.yul\":1115:1137   */\n      add\n        /* \"#utility.yul\":1094:1147   */\n      tag_42\n      jump\t// in\n    tag_60:\n        /* \"#utility.yul\":1084:1147   */\n      swap2\n      pop\n        /* \"#utility.yul\":1039:1157   */\n      pop\n        /* \"#utility.yul\":690:1164   */\n      swap3\n      pop\n      swap3\n      swap1\n      pop\n      jump\t// out\n        /* \"#utility.yul\":1170:1288   */\n    tag_43:\n        /* \"#utility.yul\":1257:1281   */\n      tag_62\n        /* \"#utility.yul\":1275:1280   */\n      dup2\n        /* \"#utility.yul\":1257:1281   */\n      tag_40\n      jump\t// in\n    tag_62:\n        /* \"#utility.yul\":1252:1255   */\n      dup3\n        /* \"#utility.yul\":1245:1282   */\n      mstore\n        /* \"#utility.yul\":1170:1288   */\n      pop\n      pop\n      jump\t// out\n        /* \"#utility.yul\":1294:1516   */\n    tag_12:\n        /* \"#utility.yul\":1387:1391   */\n      0x00\n        /* \"#utility.yul\":1425:1427   */\n      0x20\n        /* \"#utility.yul\":1414:1423   */\n      dup3\n        /* \"#utility.yul\":1410:1428   */\n      add\n        /* \"#utility.yul\":1402:1428   */\n      swap1\n      pop\n        /* \"#utility.yul\":1438:1509   */\n      tag_64\n        /* \"#utility.yul\":1506:1507   */\n      0x00\n        /* \"#utility.yul\":1495:1504   */\n      dup4\n        /* \"#utility.yul\":1491:1508   */\n      add\n        /* \"#utility.yul\":1482:1488   */\n      dup5\n        /* \"#utility.yul\":1438:1509   */\n      tag_43\n      jump\t// in\n    tag_64:\n        /* \"#utility.yul\":1294:1516   */\n      swap3\n      swap2\n      pop\n      pop\n      jump\t// out\n        /* \"#utility.yul\":1522:1702   */\n    tag_44:\n        /* \"#utility.yul\":1570:1647   */\n      0x4e487b7100000000000000000000000000000000000000000000000000000000\n        /* \"#utility.yul\":1567:1568   */\n      0x00\n        /* \"#utility.yul\":1560:1648   */\n      mstore\n        /* \"#utility.yul\":1667:1671   */\n      0x11\n        /* \"#utility.yul\":1664:1665   */\n      0x04\n        /* \"#utility.yul\":1657:1672   */\n      mstore\n        /* \"#utility.yul\":1691:1695   */\n      0x24\n        /* \"#utility.yul\":1688:1689   */\n      0x00\n        /* \"#utility.yul\":1681:1696   */\n      revert\n        /* \"#utility.yul\":1708:1902   */\n    tag_27:\n        /* \"#utility.yul\":1748:1752   */\n      0x00\n        /* \"#utility.yul\":1768:1788   */\n      tag_67\n        /* \"#utility.yul\":1786:1787   */\n      dup3\n        /* \"#utility.yul\":1768:1788   */\n      tag_40\n      jump\t// in\n    tag_67:\n        /* \"#utility.yul\":1763:1788   */\n      swap2\n      pop\n        /* \"#utility.yul\":1802:1822   */\n      tag_68\n        /* \"#utility.yul\":1820:1821   */\n      dup4\n        /* \"#utility.yul\":1802:1822   */\n      tag_40\n      jump\t// in\n    tag_68:\n        /* \"#utility.yul\":1797:1822   */\n      swap3\n      pop\n        /* \"#utility.yul\":1846:1847   */\n      dup3\n        /* \"#utility.yul\":1843:1844   */\n      dup3\n        /* \"#utility.yul\":1839:1848   */\n      sub\n        /* \"#utility.yul\":1831:1848   */\n      swap1\n      pop\n        /* \"#utility.yul\":1870:1871   */\n      dup2\n        /* \"#utility.yul\":1864:1868   */\n      dup2\n        /* \"#utility.yul\":1861:1872   */\n      gt\n        /* \"#utility.yul\":1858:1895   */\n      iszero\n      tag_69\n      jumpi\n        /* \"#utility.yul\":1875:1893   */\n      tag_70\n      tag_44\n      jump\t// in\n    tag_70:\n        /* \"#utility.yul\":1858:1895   */\n    tag_69:\n        /* \"#utility.yul\":1708:1902   */\n      swap3\n      swap2\n      pop\n      pop\n      jump\t// out\n        /* \"#utility.yul\":1908:2318   */\n    tag_30:\n        /* \"#utility.yul\":1948:1955   */\n      0x00\n        /* \"#utility.yul\":1971:1991   */\n      tag_72\n        /* \"#utility.yul\":1989:1990   */\n      dup3\n        /* \"#utility.yul\":1971:1991   */\n      tag_40\n      jump\t// in\n    tag_72:\n        /* \"#utility.yul\":1966:1991   */\n      swap2\n      pop\n        /* \"#utility.yul\":2005:2025   */\n      tag_73\n        /* \"#utility.yul\":2023:2024   */\n      dup4\n        /* \"#utility.yul\":2005:2025   */\n      tag_40\n      jump\t// in\n    tag_73:\n        /* \"#utility.yul\":2000:2025   */\n      swap3\n      pop\n        /* \"#utility.yul\":2060:2061   */\n      dup3\n        /* \"#utility.yul\":2057:2058   */\n      dup3\n        /* \"#utility.yul\":2053:2062   */\n      mul\n        /* \"#utility.yul\":2082:2112   */\n      tag_74\n        /* \"#utility.yul\":2100:2111   */\n      dup2\n        /* \"#utility.yul\":2082:2112   */\n      tag_40\n      jump\t// in\n    tag_74:\n        /* \"#utility.yul\":2071:2112   */\n      swap2\n      pop\n        /* \"#utility.yul\":2261:2262   */\n      dup3\n        /* \"#utility.yul\":2252:2259   */\n      dup3\n        /* \"#utility.yul\":2248:2263   */\n      div\n        /* \"#utility.yul\":2245:2246   */\n      dup5\n        /* \"#utility.yul\":2242:2264   */\n      eq\n        /* \"#utility.yul\":2222:2223   */\n      dup4\n        /* \"#utility.yul\":2215:2224   */\n      iszero\n        /* \"#utility.yul\":2195:2278   */\n      or\n        /* \"#utility.yul\":2172:2311   */\n      tag_75\n      jumpi\n        /* \"#utility.yul\":2291:2309   */\n      tag_76\n      tag_44\n      jump\t// in\n    tag_76:\n        /* \"#utility.yul\":2172:2311   */\n    tag_75:\n        /* \"#utility.yul\":1956:2318   */\n      pop\n        /* \"#utility.yul\":1908:2318   */\n      swap3\n      swap2\n      pop\n      pop\n      jump\t// out\n        /* \"#utility.yul\":2324:2515   */\n    tag_33:\n        /* \"#utility.yul\":2364:2367   */\n      0x00\n        /* \"#utility.yul\":2383:2403   */\n      tag_78\n        /* \"#utility.yul\":2401:2402   */\n      dup3\n        /* \"#utility.yul\":2383:2403   */\n      tag_40\n      jump\t// in\n    tag_78:\n        /* \"#utility.yul\":2378:2403   */\n      swap2\n      pop\n        /* \"#utility.yul\":2417:2437   */\n      tag_79\n        /* \"#utility.yul\":2435:2436   */\n      dup4\n        /* \"#utility.yul\":2417:2437   */\n      tag_40\n      jump\t// in\n    tag_79:\n        /* \"#utility.yul\":2412:2437   */\n      swap3\n      pop\n        /* \"#utility.yul\":2460:2461   */\n      dup3\n        /* \"#utility.yul\":2457:2458   */\n      dup3\n        /* \"#utility.yul\":2453:2462   */\n      add\n        /* \"#utility.yul\":2446:2462   */\n      swap1\n      pop\n        /* \"#utility.yul\":2481:2484   */\n      dup1\n        /* \"#utility.yul\":2478:2479   */\n      dup3\n        /* \"#utility.yul\":2475:2485   */\n      gt\n        /* \"#utility.yul\":2472:2508   */\n      iszero\n      tag_80\n      jumpi\n        /* \"#utility.yul\":2488:2506   */\n      tag_81\n      tag_44\n      jump\t// in\n    tag_81:\n        /* \"#utility.yul\":2472:2508   */\n    tag_80:\n        /* \"#utility.yul\":2324:2515   */\n      swap3\n      swap2\n      pop\n      pop\n      jump\t// out\n        /* \"#utility.yul\":2521:2701   */\n    tag_45:\n        /* \"#utility.yul\":2569:2646   */\n      0x4e487b7100000000000000000000000000000000000000000000000000000000\n        /* \"#utility.yul\":2566:2567   */\n      0x00\n        /* \"#utility.yul\":2559:2647   */\n      mstore\n        /* \"#utility.yul\":2666:2670   */\n      0x12\n        /* \"#utility.yul\":2663:2664   */\n      0x04\n        /* \"#utility.yul\":2656:2671   */\n      mstore\n        /* \"#utility.yul\":2690:2694   */\n      0x24\n        /* \"#utility.yul\":2687:2688   */\n      0x00\n        /* \"#utility.yul\":2680:2695   */\n      revert\n        /* \"#utility.yul\":2707:2892   */\n    tag_36:\n        /* \"#utility.yul\":2747:2748   */\n      0x00\n        /* \"#utility.yul\":2764:2784   */\n      tag_84\n        /* \"#utility.yul\":2782:2783   */\n      dup3\n        /* \"#utility.yul\":2764:2784   */\n      tag_40\n      jump\t// in\n    tag_84:\n        /* \"#utility.yul\":2759:2784   */\n      swap2\n      pop\n        /* \"#utility.yul\":2798:2818   */\n      tag_85\n        /* \"#utility.yul\":2816:2817   */\n      dup4\n        /* \"#utility.yul\":2798:2818   */\n      tag_40\n      jump\t// in\n    tag_85:\n        /* \"#utility.yul\":2793:2818   */\n      swap3\n      pop\n        /* \"#utility.yul\":2837:2838   */\n      dup3\n        /* \"#utility.yul\":2827:2862   */\n      tag_86\n      jumpi\n        /* \"#utility.yul\":2842:2860   */\n      tag_87\n      tag_45\n      jump\t// in\n    tag_87:\n        /* \"#utility.yul\":2827:2862   */\n    tag_86:\n        /* \"#utility.yul\":2884:2885   */\n      dup3\n        /* \"#utility.yul\":2881:2882   */\n      dup3\n        /* \"#utility.yul\":2877:2886   */\n      div\n        /* \"#utility.yul\":2872:2886   */\n      swap1\n      pop\n        /* \"#utility.yul\":2707:2892   */\n      swap3\n      swap2\n      pop\n      pop\n      jump\t// out\n\n    auxdata: 0xa26469706673582212206ce68cce2e5a190aca25009c0b1951666b4e632103bcad53eaa1ba0f5e41379b64736f6c63430008120033\n}\n",
				"bytecode": {
					"linkReferences": {},
					"object": "608060405234801561001057600080fd5b5061037d806100206000396000f3fe608060405234801561001057600080fd5b506004361061004c5760003560e01c80631ec9c2c01461005157806360953744146100815780637afbe4f1146100b15780639a03fe1d146100e1575b600080fd5b61006b600480360381019061006691906101a4565b610111565b60405161007891906101f3565b60405180910390f35b61009b600480360381019061009691906101a4565b610127565b6040516100a891906101f3565b60405180910390f35b6100cb60048036038101906100c691906101a4565b61013d565b6040516100d891906101f3565b60405180910390f35b6100fb60048036038101906100f691906101a4565b610153565b60405161010891906101f3565b60405180910390f35b6000818361011f919061023d565b905092915050565b600081836101359190610271565b905092915050565b6000818361014b91906102b3565b905092915050565b600081836101619190610316565b905092915050565b600080fd5b6000819050919050565b6101818161016e565b811461018c57600080fd5b50565b60008135905061019e81610178565b92915050565b600080604083850312156101bb576101ba610169565b5b60006101c98582860161018f565b92505060206101da8582860161018f565b9150509250929050565b6101ed8161016e565b82525050565b600060208201905061020860008301846101e4565b92915050565b7f4e487b7100000000000000000000000000000000000000000000000000000000600052601160045260246000fd5b60006102488261016e565b91506102538361016e565b925082820390508181111561026b5761026a61020e565b5b92915050565b600061027c8261016e565b91506102878361016e565b92508282026102958161016e565b915082820484148315176102ac576102ab61020e565b5b5092915050565b60006102be8261016e565b91506102c98361016e565b92508282019050808211156102e1576102e061020e565b5b92915050565b7f4e487b7100000000000000000000000000000000000000000000000000000000600052601260045260246000fd5b60006103218261016e565b915061032c8361016e565b92508261033c5761033b6102e7565b5b82820490509291505056fea26469706673582212206ce68cce2e5a190aca25009c0b1951666b4e632103bcad53eaa1ba0f5e41379b64736f6c63430008120033",
					"opcodes": "PUSH1 0x80 PUSH1 0x40 MSTORE CALLVALUE DUP1 ISZERO PUSH2 0x10 JUMPI PUSH1 0x0 DUP1 REVERT JUMPDEST POP PUSH2 0x37D DUP1 PUSH2 0x20 PUSH1 0x0 CODECOPY PUSH1 0x0 RETURN INVALID PUSH1 0x80 PUSH1 0x40 MSTORE CALLVALUE DUP1 ISZERO PUSH2 0x10 JUMPI PUSH1 0x0 DUP1 REVERT JUMPDEST POP PUSH1 0x4 CALLDATASIZE LT PUSH2 0x4C JUMPI PUSH1 0x0 CALLDATALOAD PUSH1 0xE0 SHR DUP1 PUSH4 0x1EC9C2C0 EQ PUSH2 0x51 JUMPI DUP1 PUSH4 0x60953744 EQ PUSH2 0x81 JUMPI DUP1 PUSH4 0x7AFBE4F1 EQ PUSH2 0xB1 JUMPI DUP1 PUSH4 0x9A03FE1D EQ PUSH2 0xE1 JUMPI JUMPDEST PUSH1 0x0 DUP1 REVERT JUMPDEST PUSH2 0x6B PUSH1 0x4 DUP1 CALLDATASIZE SUB DUP2 ADD SWAP1 PUSH2 0x66 SWAP2 SWAP1 PUSH2 0x1A4 JUMP JUMPDEST PUSH2 0x111 JUMP JUMPDEST PUSH1 0x40 MLOAD PUSH2 0x78 SWAP2 SWAP1 PUSH2 0x1F3 JUMP JUMPDEST PUSH1 0x40 MLOAD DUP1 SWAP2 SUB SWAP1 RETURN JUMPDEST PUSH2 0x9B PUSH1 0x4 DUP1 CALLDATASIZE SUB DUP2 ADD SWAP1 PUSH2 0x96 SWAP2 SWAP1 PUSH2 0x1A4 JUMP JUMPDEST PUSH2 0x127 JUMP JUMPDEST PUSH1 0x40 MLOAD PUSH2 0xA8 SWAP2 SWAP1 PUSH2 0x1F3 JUMP JUMPDEST PUSH1 0x40 MLOAD DUP1 SWAP2 SUB SWAP1 RETURN JUMPDEST PUSH2 0xCB PUSH1 0x4 DUP1 CALLDATASIZE SUB DUP2 ADD SWAP1 PUSH2 0xC6 SWAP2 SWAP1 PUSH2 0x1A4 JUMP JUMPDEST PUSH2 0x13D JUMP JUMPDEST PUSH1 0x40 MLOAD PUSH2 0xD8 SWAP2 SWAP1 PUSH2 0x1F3 JUMP JUMPDEST PUSH1 0x40 MLOAD DUP1 SWAP2 SUB SWAP1 RETURN JUMPDEST PUSH2 0xFB PUSH1 0x4 DUP1 CALLDATASIZE SUB DUP2 ADD SWAP1 PUSH2 0xF6 SWAP2 SWAP1 PUSH2 0x1A4 JUMP JUMPDEST PUSH2 0x153 JUMP JUMPDEST PUSH1 0x40 MLOAD PUSH2 0x108 SWAP2 SWAP1 PUSH2 0x1F3 JUMP JUMPDEST PUSH1 0x40 MLOAD DUP1 SWAP2 SUB SWAP1 RETURN JUMPDEST PUSH1 0x0 DUP2 DUP4 PUSH2 0x11F SWAP2 SWAP1 PUSH2 0x23D JUMP JUMPDEST SWAP1 POP SWAP3 SWAP2 POP POP JUMP JUMPDEST PUSH1 0x0 DUP2 DUP4 PUSH2 0x135 SWAP2 SWAP1 PUSH2 0x271 JUMP JUMPDEST SWAP1 POP SWAP3 SWAP2 POP POP JUMP JUMPDEST PUSH1 0x0 DUP2 DUP4 PUSH2 0x14B SWAP2 SWAP1 PUSH2 0x2B3 JUMP JUMPDEST SWAP1 POP SWAP3 SWAP2 POP POP JUMP JUMPDEST PUSH1 0x0 DUP2 DUP4 PUSH2 0x161 SWAP2 SWAP1 PUSH2 0x316 JUMP JUMPDEST SWAP1 POP SWAP3 SWAP2 POP POP JUMP JUMPDEST PUSH1 0x0 DUP1 REVERT JUMPDEST PUSH1 0x0 DUP2 SWAP1 POP SWAP2 SWAP1 POP JUMP JUMPDEST PUSH2 0x181 DUP2 PUSH2 0x16E JUMP JUMPDEST DUP2 EQ PUSH2 0x18C JUMPI PUSH1 0x0 DUP1 REVERT JUMPDEST POP JUMP JUMPDEST PUSH1 0x0 DUP2 CALLDATALOAD SWAP1 POP PUSH2 0x19E DUP2 PUSH2 0x178 JUMP JUMPDEST SWAP3 SWAP2 POP POP JUMP JUMPDEST PUSH1 0x0 DUP1 PUSH1 0x40 DUP4 DUP6 SUB SLT ISZERO PUSH2 0x1BB JUMPI PUSH2 0x1BA PUSH2 0x169 JUMP JUMPDEST JUMPDEST PUSH1 0x0 PUSH2 0x1C9 DUP6 DUP3 DUP7 ADD PUSH2 0x18F JUMP JUMPDEST SWAP3 POP POP PUSH1 0x20 PUSH2 0x1DA DUP6 DUP3 DUP7 ADD PUSH2 0x18F JUMP JUMPDEST SWAP2 POP POP SWAP3 POP SWAP3 SWAP1 POP JUMP JUMPDEST PUSH2 0x1ED DUP2 PUSH2 0x16E JUMP JUMPDEST DUP3 MSTORE POP POP JUMP JUMPDEST PUSH1 0x0 PUSH1 0x20 DUP3 ADD SWAP1 POP PUSH2 0x208 PUSH1 0x0 DUP4 ADD DUP5 PUSH2 0x1E4 JUMP JUMPDEST SWAP3 SWAP2 POP POP JUMP JUMPDEST PUSH32 0x4E487B7100000000000000000000000000000000000000000000000000000000 PUSH1 0x0 MSTORE PUSH1 0x11 PUSH1 0x4 MSTORE PUSH1 0x24 PUSH1 0x0 REVERT JUMPDEST PUSH1 0x0 PUSH2 0x248 DUP3 PUSH2 0x16E JUMP JUMPDEST SWAP2 POP PUSH2 0x253 DUP4 PUSH2 0x16E JUMP JUMPDEST SWAP3 POP DUP3 DUP3 SUB SWAP1 POP DUP2 DUP2 GT ISZERO PUSH2 0x26B JUMPI PUSH2 0x26A PUSH2 0x20E JUMP JUMPDEST JUMPDEST SWAP3 SWAP2 POP POP JUMP JUMPDEST PUSH1 0x0 PUSH2 0x27C DUP3 PUSH2 0x16E JUMP JUMPDEST SWAP2 POP PUSH2 0x287 DUP4 PUSH2 0x16E JUMP JUMPDEST SWAP3 POP DUP3 DUP3 MUL PUSH2 0x295 DUP2 PUSH2 0x16E JUMP JUMPDEST SWAP2 POP DUP3 DUP3 DIV DUP5 EQ DUP4 ISZERO OR PUSH2 0x2AC JUMPI PUSH2 0x2AB PUSH2 0x20E JUMP JUMPDEST JUMPDEST POP SWAP3 SWAP2 POP POP JUMP JUMPDEST PUSH1 0x0 PUSH2 0x2BE DUP3 PUSH2 0x16E JUMP JUMPDEST SWAP2 POP PUSH2 0x2C9 DUP4 PUSH2 0x16E JUMP JUMPDEST SWAP3 POP DUP3 DUP3 ADD SWAP1 POP DUP1 DUP3 GT ISZERO PUSH2 0x2E1 JUMPI PUSH2 0x2E0 PUSH2 0x20E JUMP JUMPDEST JUMPDEST SWAP3 SWAP2 POP POP JUMP JUMPDEST PUSH32 0x4E487B7100000000000000000000000000000000000000000000000000000000 PUSH1 0x0 MSTORE PUSH1 0x12 PUSH1 0x4 MSTORE PUSH1 0x24 PUSH1 0x0 REVERT JUMPDEST PUSH1 0x0 PUSH2 0x321 DUP3 PUSH2 0x16E JUMP JUMPDEST SWAP2 POP PUSH2 0x32C DUP4 PUSH2 0x16E JUMP JUMPDEST SWAP3 POP DUP3 PUSH2 0x33C JUMPI PUSH2 0x33B PUSH2 0x2E7 JUMP JUMPDEST JUMPDEST DUP3 DUP3 DIV SWAP1 POP SWAP3 SWAP2 POP POP JUMP INVALID LOG2 PUSH5 0x6970667358 0x22 SLT KECCAK256 PUSH13 0xE68CCE2E5A190ACA25009C0B19 MLOAD PUSH7 0x6B4E632103BCAD MSTORE8 0xEA LOG1 0xBA 0xF 0x5E COINBASE CALLDATACOPY SWAP12 PUSH5 0x736F6C6343 STOP ADDMOD SLT STOP CALLER "
				},
				"gasEstimates": {
					"creation": {
						"codeDepositCost": "178600",
						"executionCost": "220",
						"totalCost": "178820"
					},
					"external": {
						"Add(uint256,uint256)": "infinite",
						"Div(uint256,uint256)": "infinite",
						"Mul(uint256,uint256)": "infinite",
						"Sub(uint256,uint256)": "infinite"
					}
				},
				"methodIdentifiers": {
					"Add(uint256,uint256)": "7afbe4f1",
					"Div(uint256,uint256)": "9a03fe1d",
					"Mul(uint256,uint256)": "60953744",
					"Sub(uint256,uint256)": "1ec9c2c0"
				}
			},
			"storageLayout": {
				"storage": [],
				"types": null
			},
			"userdoc": {
				"kind": "user",
				"methods": {},
				"version": 1
			}
		}
	}
}