{
	"contracts/test.sol": {
		"test": {
			"abi": [
				{
					"inputs": [
						{
							"internalType": "string",
							"name": "_name",
							"type": "string"
						},
						{
							"internalType": "uint256",
							"name": "_num",
							"type": "uint256"
						},
						{
							"internalType": "string",
							"name": "_class",
							"type": "string"
						},
						{
							"internalType": "uint256",
							"name": "_score",
							"type": "uint256"
						},
						{
							"internalType": "uint256",
							"name": "_grade",
							"type": "uint256"
						}
					],
					"name": "setStudent",
					"outputs": [],
					"stateMutability": "nonpayable",
					"type": "function"
				}
			],
			"devdoc": {
				"kind": "dev",
				"methods": {},
				"version": 1
			},
			"evm": {
				"assembly": "    /* \"contracts/test.sol\":63:2329  contract test {... */\n  mstore(0x40, 0x80)\n  callvalue\n  dup1\n  iszero\n  tag_1\n  jumpi\n  0x00\n  dup1\n  revert\ntag_1:\n  pop\n  dataSize(sub_0)\n  dup1\n  dataOffset(sub_0)\n  0x00\n  codecopy\n  0x00\n  return\nstop\n\nsub_0: assembly {\n        /* \"contracts/test.sol\":63:2329  contract test {... */\n      mstore(0x40, 0x80)\n      callvalue\n      dup1\n      iszero\n      tag_1\n      jumpi\n      0x00\n      dup1\n      revert\n    tag_1:\n      pop\n      jumpi(tag_2, lt(calldatasize, 0x04))\n      shr(0xe0, calldataload(0x00))\n      dup1\n      0xb930227c\n      eq\n      tag_3\n      jumpi\n    tag_2:\n      0x00\n      dup1\n      revert\n        /* \"contracts/test.sol\":2141:2327  function setStudent(string memory _name,uint _num, string memory _class, uint _score,uint _grade) public {... */\n    tag_3:\n      tag_4\n      0x04\n      dup1\n      calldatasize\n      sub\n      dup2\n      add\n      swap1\n      tag_5\n      swap2\n      swap1\n      tag_6\n      jump\t// in\n    tag_5:\n      tag_7\n      jump\t// in\n    tag_4:\n      stop\n    tag_7:\n        /* \"contracts/test.sol\":2265:2273  Students */\n      0x00\n        /* \"contracts/test.sol\":2279:2319  Student(_name,_num,_class,_score,_grade) */\n      mload(0x40)\n      dup1\n      0xa0\n      add\n      0x40\n      mstore\n      dup1\n        /* \"contracts/test.sol\":2287:2292  _name */\n      dup8\n        /* \"contracts/test.sol\":2279:2319  Student(_name,_num,_class,_score,_grade) */\n      dup2\n      mstore\n      0x20\n      add\n        /* \"contracts/test.sol\":2293:2297  _num */\n      dup7\n        /* \"contracts/test.sol\":2279:2319  Student(_name,_num,_class,_score,_grade) */\n      dup2\n      mstore\n      0x20\n      add\n        /* \"contracts/test.sol\":2298:2304  _class */\n      dup6\n        /* \"contracts/test.sol\":2279:2319  Student(_name,_num,_class,_score,_grade) */\n      dup2\n      mstore\n      0x20\n      add\n        /* \"contracts/test.sol\":2305:2311  _score */\n      dup5\n        /* \"contracts/test.sol\":2279:2319  Student(_name,_num,_class,_score,_grade) */\n      dup2\n      mstore\n      0x20\n      add\n        /* \"contracts/test.sol\":2312:2318  _grade */\n      dup4\n        /* \"contracts/test.sol\":2279:2319  Student(_name,_num,_class,_score,_grade) */\n      dup2\n      mstore\n      pop\n        /* \"contracts/test.sol\":2265:2320  Students.push(Student(_name,_num,_class,_score,_grade)) */\n      swap1\n      dup1\n      0x01\n      dup2\n      sload\n      add\n      dup1\n      dup3\n      sstore\n      dup1\n      swap2\n      pop\n      pop\n      0x01\n      swap1\n      sub\n      swap1\n      0x00\n      mstore\n      keccak256(0x00, 0x20)\n      swap1\n      0x05\n      mul\n      add\n      0x00\n      swap1\n      swap2\n      swap1\n      swap2\n      swap1\n      swap2\n      pop\n      0x00\n      dup3\n      add\n      mload\n      dup2\n      0x00\n      add\n      swap1\n      dup2\n      tag_10\n      swap2\n      swap1\n      tag_11\n      jump\t// in\n    tag_10:\n      pop\n      0x20\n      dup3\n      add\n      mload\n      dup2\n      0x01\n      add\n      sstore\n      0x40\n      dup3\n      add\n      mload\n      dup2\n      0x02\n      add\n      swap1\n      dup2\n      tag_12\n      swap2\n      swap1\n      tag_11\n      jump\t// in\n    tag_12:\n      pop\n      0x60\n      dup3\n      add\n      mload\n      dup2\n      0x03\n      add\n      sstore\n      0x80\n      dup3\n      add\n      mload\n      dup2\n      0x04\n      add\n      sstore\n      pop\n      pop\n        /* \"contracts/test.sol\":2141:2327  function setStudent(string memory _name,uint _num, string memory _class, uint _score,uint _grade) public {... */\n      pop\n      pop\n      pop\n      pop\n      pop\n      jump\t// out\n        /* \"#utility.yul\":7:82   */\n    tag_13:\n        /* \"#utility.yul\":40:46   */\n      0x00\n        /* \"#utility.yul\":73:75   */\n      0x40\n        /* \"#utility.yul\":67:76   */\n      mload\n        /* \"#utility.yul\":57:76   */\n      swap1\n      pop\n        /* \"#utility.yul\":7:82   */\n      swap1\n      jump\t// out\n        /* \"#utility.yul\":88:205   */\n    tag_14:\n        /* \"#utility.yul\":197:198   */\n      0x00\n        /* \"#utility.yul\":194:195   */\n      dup1\n        /* \"#utility.yul\":187:199   */\n      revert\n        /* \"#utility.yul\":211:328   */\n    tag_15:\n        /* \"#utility.yul\":320:321   */\n      0x00\n        /* \"#utility.yul\":317:318   */\n      dup1\n        /* \"#utility.yul\":310:322   */\n      revert\n        /* \"#utility.yul\":334:451   */\n    tag_16:\n        /* \"#utility.yul\":443:444   */\n      0x00\n        /* \"#utility.yul\":440:441   */\n      dup1\n        /* \"#utility.yul\":433:445   */\n      revert\n        /* \"#utility.yul\":457:574   */\n    tag_17:\n        /* \"#utility.yul\":566:567   */\n      0x00\n        /* \"#utility.yul\":563:564   */\n      dup1\n        /* \"#utility.yul\":556:568   */\n      revert\n        /* \"#utility.yul\":580:682   */\n    tag_18:\n        /* \"#utility.yul\":621:627   */\n      0x00\n        /* \"#utility.yul\":672:674   */\n      0x1f\n        /* \"#utility.yul\":668:675   */\n      not\n        /* \"#utility.yul\":663:665   */\n      0x1f\n        /* \"#utility.yul\":656:661   */\n      dup4\n        /* \"#utility.yul\":652:666   */\n      add\n        /* \"#utility.yul\":648:676   */\n      and\n        /* \"#utility.yul\":638:676   */\n      swap1\n      pop\n        /* \"#utility.yul\":580:682   */\n      swap2\n      swap1\n      pop\n      jump\t// out\n        /* \"#utility.yul\":688:868   */\n    tag_19:\n        /* \"#utility.yul\":736:813   */\n      0x4e487b7100000000000000000000000000000000000000000000000000000000\n        /* \"#utility.yul\":733:734   */\n      0x00\n        /* \"#utility.yul\":726:814   */\n      mstore\n        /* \"#utility.yul\":833:837   */\n      0x41\n        /* \"#utility.yul\":830:831   */\n      0x04\n        /* \"#utility.yul\":823:838   */\n      mstore\n        /* \"#utility.yul\":857:861   */\n      0x24\n        /* \"#utility.yul\":854:855   */\n      0x00\n        /* \"#utility.yul\":847:862   */\n      revert\n        /* \"#utility.yul\":874:1155   */\n    tag_20:\n        /* \"#utility.yul\":957:984   */\n      tag_56\n        /* \"#utility.yul\":979:983   */\n      dup3\n        /* \"#utility.yul\":957:984   */\n      tag_18\n      jump\t// in\n    tag_56:\n        /* \"#utility.yul\":949:955   */\n      dup2\n        /* \"#utility.yul\":945:985   */\n      add\n        /* \"#utility.yul\":1087:1093   */\n      dup2\n        /* \"#utility.yul\":1075:1085   */\n      dup2\n        /* \"#utility.yul\":1072:1094   */\n      lt\n        /* \"#utility.yul\":1051:1069   */\n      0xffffffffffffffff\n        /* \"#utility.yul\":1039:1049   */\n      dup3\n        /* \"#utility.yul\":1036:1070   */\n      gt\n        /* \"#utility.yul\":1033:1095   */\n      or\n        /* \"#utility.yul\":1030:1118   */\n      iszero\n      tag_57\n      jumpi\n        /* \"#utility.yul\":1098:1116   */\n      tag_58\n      tag_19\n      jump\t// in\n    tag_58:\n        /* \"#utility.yul\":1030:1118   */\n    tag_57:\n        /* \"#utility.yul\":1138:1148   */\n      dup1\n        /* \"#utility.yul\":1134:1136   */\n      0x40\n        /* \"#utility.yul\":1127:1149   */\n      mstore\n        /* \"#utility.yul\":917:1155   */\n      pop\n        /* \"#utility.yul\":874:1155   */\n      pop\n      pop\n      jump\t// out\n        /* \"#utility.yul\":1161:1290   */\n    tag_21:\n        /* \"#utility.yul\":1195:1201   */\n      0x00\n        /* \"#utility.yul\":1222:1242   */\n      tag_60\n      tag_13\n      jump\t// in\n    tag_60:\n        /* \"#utility.yul\":1212:1242   */\n      swap1\n      pop\n        /* \"#utility.yul\":1251:1284   */\n      tag_61\n        /* \"#utility.yul\":1279:1283   */\n      dup3\n        /* \"#utility.yul\":1271:1277   */\n      dup3\n        /* \"#utility.yul\":1251:1284   */\n      tag_20\n      jump\t// in\n    tag_61:\n        /* \"#utility.yul\":1161:1290   */\n      swap2\n      swap1\n      pop\n      jump\t// out\n        /* \"#utility.yul\":1296:1604   */\n    tag_22:\n        /* \"#utility.yul\":1358:1362   */\n      0x00\n        /* \"#utility.yul\":1448:1466   */\n      0xffffffffffffffff\n        /* \"#utility.yul\":1440:1446   */\n      dup3\n        /* \"#utility.yul\":1437:1467   */\n      gt\n        /* \"#utility.yul\":1434:1490   */\n      iszero\n      tag_63\n      jumpi\n        /* \"#utility.yul\":1470:1488   */\n      tag_64\n      tag_19\n      jump\t// in\n    tag_64:\n        /* \"#utility.yul\":1434:1490   */\n    tag_63:\n        /* \"#utility.yul\":1508:1537   */\n      tag_65\n        /* \"#utility.yul\":1530:1536   */\n      dup3\n        /* \"#utility.yul\":1508:1537   */\n      tag_18\n      jump\t// in\n    tag_65:\n        /* \"#utility.yul\":1500:1537   */\n      swap1\n      pop\n        /* \"#utility.yul\":1592:1596   */\n      0x20\n        /* \"#utility.yul\":1586:1590   */\n      dup2\n        /* \"#utility.yul\":1582:1597   */\n      add\n        /* \"#utility.yul\":1574:1597   */\n      swap1\n      pop\n        /* \"#utility.yul\":1296:1604   */\n      swap2\n      swap1\n      pop\n      jump\t// out\n        /* \"#utility.yul\":1610:1756   */\n    tag_23:\n        /* \"#utility.yul\":1707:1713   */\n      dup3\n        /* \"#utility.yul\":1702:1705   */\n      dup2\n        /* \"#utility.yul\":1697:1700   */\n      dup4\n        /* \"#utility.yul\":1684:1714   */\n      calldatacopy\n        /* \"#utility.yul\":1748:1749   */\n      0x00\n        /* \"#utility.yul\":1739:1745   */\n      dup4\n        /* \"#utility.yul\":1734:1737   */\n      dup4\n        /* \"#utility.yul\":1730:1746   */\n      add\n        /* \"#utility.yul\":1723:1750   */\n      mstore\n        /* \"#utility.yul\":1610:1756   */\n      pop\n      pop\n      pop\n      jump\t// out\n        /* \"#utility.yul\":1762:2187   */\n    tag_24:\n        /* \"#utility.yul\":1840:1845   */\n      0x00\n        /* \"#utility.yul\":1865:1931   */\n      tag_68\n        /* \"#utility.yul\":1881:1930   */\n      tag_69\n        /* \"#utility.yul\":1923:1929   */\n      dup5\n        /* \"#utility.yul\":1881:1930   */\n      tag_22\n      jump\t// in\n    tag_69:\n        /* \"#utility.yul\":1865:1931   */\n      tag_21\n      jump\t// in\n    tag_68:\n        /* \"#utility.yul\":1856:1931   */\n      swap1\n      pop\n        /* \"#utility.yul\":1954:1960   */\n      dup3\n        /* \"#utility.yul\":1947:1952   */\n      dup2\n        /* \"#utility.yul\":1940:1961   */\n      mstore\n        /* \"#utility.yul\":1992:1996   */\n      0x20\n        /* \"#utility.yul\":1985:1990   */\n      dup2\n        /* \"#utility.yul\":1981:1997   */\n      add\n        /* \"#utility.yul\":2030:2033   */\n      dup5\n        /* \"#utility.yul\":2021:2027   */\n      dup5\n        /* \"#utility.yul\":2016:2019   */\n      dup5\n        /* \"#utility.yul\":2012:2028   */\n      add\n        /* \"#utility.yul\":2009:2034   */\n      gt\n        /* \"#utility.yul\":2006:2118   */\n      iszero\n      tag_70\n      jumpi\n        /* \"#utility.yul\":2037:2116   */\n      tag_71\n      tag_17\n      jump\t// in\n    tag_71:\n        /* \"#utility.yul\":2006:2118   */\n    tag_70:\n        /* \"#utility.yul\":2127:2181   */\n      tag_72\n        /* \"#utility.yul\":2174:2180   */\n      dup5\n        /* \"#utility.yul\":2169:2172   */\n      dup3\n        /* \"#utility.yul\":2164:2167   */\n      dup6\n        /* \"#utility.yul\":2127:2181   */\n      tag_23\n      jump\t// in\n    tag_72:\n        /* \"#utility.yul\":1846:2187   */\n      pop\n        /* \"#utility.yul\":1762:2187   */\n      swap4\n      swap3\n      pop\n      pop\n      pop\n      jump\t// out\n        /* \"#utility.yul\":2207:2547   */\n    tag_25:\n        /* \"#utility.yul\":2263:2268   */\n      0x00\n        /* \"#utility.yul\":2312:2315   */\n      dup3\n        /* \"#utility.yul\":2305:2309   */\n      0x1f\n        /* \"#utility.yul\":2297:2303   */\n      dup4\n        /* \"#utility.yul\":2293:2310   */\n      add\n        /* \"#utility.yul\":2289:2316   */\n      slt\n        /* \"#utility.yul\":2279:2401   */\n      tag_74\n      jumpi\n        /* \"#utility.yul\":2320:2399   */\n      tag_75\n      tag_16\n      jump\t// in\n    tag_75:\n        /* \"#utility.yul\":2279:2401   */\n    tag_74:\n        /* \"#utility.yul\":2437:2443   */\n      dup2\n        /* \"#utility.yul\":2424:2444   */\n      calldataload\n        /* \"#utility.yul\":2462:2541   */\n      tag_76\n        /* \"#utility.yul\":2537:2540   */\n      dup5\n        /* \"#utility.yul\":2529:2535   */\n      dup3\n        /* \"#utility.yul\":2522:2526   */\n      0x20\n        /* \"#utility.yul\":2514:2520   */\n      dup7\n        /* \"#utility.yul\":2510:2527   */\n      add\n        /* \"#utility.yul\":2462:2541   */\n      tag_24\n      jump\t// in\n    tag_76:\n        /* \"#utility.yul\":2453:2541   */\n      swap2\n      pop\n        /* \"#utility.yul\":2269:2547   */\n      pop\n        /* \"#utility.yul\":2207:2547   */\n      swap3\n      swap2\n      pop\n      pop\n      jump\t// out\n        /* \"#utility.yul\":2553:2630   */\n    tag_26:\n        /* \"#utility.yul\":2590:2597   */\n      0x00\n        /* \"#utility.yul\":2619:2624   */\n      dup2\n        /* \"#utility.yul\":2608:2624   */\n      swap1\n      pop\n        /* \"#utility.yul\":2553:2630   */\n      swap2\n      swap1\n      pop\n      jump\t// out\n        /* \"#utility.yul\":2636:2758   */\n    tag_27:\n        /* \"#utility.yul\":2709:2733   */\n      tag_79\n        /* \"#utility.yul\":2727:2732   */\n      dup2\n        /* \"#utility.yul\":2709:2733   */\n      tag_26\n      jump\t// in\n    tag_79:\n        /* \"#utility.yul\":2702:2707   */\n      dup2\n        /* \"#utility.yul\":2699:2734   */\n      eq\n        /* \"#utility.yul\":2689:2752   */\n      tag_80\n      jumpi\n        /* \"#utility.yul\":2748:2749   */\n      0x00\n        /* \"#utility.yul\":2745:2746   */\n      dup1\n        /* \"#utility.yul\":2738:2750   */\n      revert\n        /* \"#utility.yul\":2689:2752   */\n    tag_80:\n        /* \"#utility.yul\":2636:2758   */\n      pop\n      jump\t// out\n        /* \"#utility.yul\":2764:2903   */\n    tag_28:\n        /* \"#utility.yul\":2810:2815   */\n      0x00\n        /* \"#utility.yul\":2848:2854   */\n      dup2\n        /* \"#utility.yul\":2835:2855   */\n      calldataload\n        /* \"#utility.yul\":2826:2855   */\n      swap1\n      pop\n        /* \"#utility.yul\":2864:2897   */\n      tag_82\n        /* \"#utility.yul\":2891:2896   */\n      dup2\n        /* \"#utility.yul\":2864:2897   */\n      tag_27\n      jump\t// in\n    tag_82:\n        /* \"#utility.yul\":2764:2903   */\n      swap3\n      swap2\n      pop\n      pop\n      jump\t// out\n        /* \"#utility.yul\":2909:4180   */\n    tag_6:\n        /* \"#utility.yul\":3024:3030   */\n      0x00\n        /* \"#utility.yul\":3032:3038   */\n      dup1\n        /* \"#utility.yul\":3040:3046   */\n      0x00\n        /* \"#utility.yul\":3048:3054   */\n      dup1\n        /* \"#utility.yul\":3056:3062   */\n      0x00\n        /* \"#utility.yul\":3105:3108   */\n      0xa0\n        /* \"#utility.yul\":3093:3102   */\n      dup7\n        /* \"#utility.yul\":3084:3091   */\n      dup9\n        /* \"#utility.yul\":3080:3103   */\n      sub\n        /* \"#utility.yul\":3076:3109   */\n      slt\n        /* \"#utility.yul\":3073:3193   */\n      iszero\n      tag_84\n      jumpi\n        /* \"#utility.yul\":3112:3191   */\n      tag_85\n      tag_14\n      jump\t// in\n    tag_85:\n        /* \"#utility.yul\":3073:3193   */\n    tag_84:\n        /* \"#utility.yul\":3260:3261   */\n      0x00\n        /* \"#utility.yul\":3249:3258   */\n      dup7\n        /* \"#utility.yul\":3245:3262   */\n      add\n        /* \"#utility.yul\":3232:3263   */\n      calldataload\n        /* \"#utility.yul\":3290:3308   */\n      0xffffffffffffffff\n        /* \"#utility.yul\":3282:3288   */\n      dup2\n        /* \"#utility.yul\":3279:3309   */\n      gt\n        /* \"#utility.yul\":3276:3393   */\n      iszero\n      tag_86\n      jumpi\n        /* \"#utility.yul\":3312:3391   */\n      tag_87\n      tag_15\n      jump\t// in\n    tag_87:\n        /* \"#utility.yul\":3276:3393   */\n    tag_86:\n        /* \"#utility.yul\":3417:3480   */\n      tag_88\n        /* \"#utility.yul\":3472:3479   */\n      dup9\n        /* \"#utility.yul\":3463:3469   */\n      dup3\n        /* \"#utility.yul\":3452:3461   */\n      dup10\n        /* \"#utility.yul\":3448:3470   */\n      add\n        /* \"#utility.yul\":3417:3480   */\n      tag_25\n      jump\t// in\n    tag_88:\n        /* \"#utility.yul\":3407:3480   */\n      swap6\n      pop\n        /* \"#utility.yul\":3203:3490   */\n      pop\n        /* \"#utility.yul\":3529:3531   */\n      0x20\n        /* \"#utility.yul\":3555:3608   */\n      tag_89\n        /* \"#utility.yul\":3600:3607   */\n      dup9\n        /* \"#utility.yul\":3591:3597   */\n      dup3\n        /* \"#utility.yul\":3580:3589   */\n      dup10\n        /* \"#utility.yul\":3576:3598   */\n      add\n        /* \"#utility.yul\":3555:3608   */\n      tag_28\n      jump\t// in\n    tag_89:\n        /* \"#utility.yul\":3545:3608   */\n      swap5\n      pop\n        /* \"#utility.yul\":3500:3618   */\n      pop\n        /* \"#utility.yul\":3685:3687   */\n      0x40\n        /* \"#utility.yul\":3674:3683   */\n      dup7\n        /* \"#utility.yul\":3670:3688   */\n      add\n        /* \"#utility.yul\":3657:3689   */\n      calldataload\n        /* \"#utility.yul\":3716:3734   */\n      0xffffffffffffffff\n        /* \"#utility.yul\":3708:3714   */\n      dup2\n        /* \"#utility.yul\":3705:3735   */\n      gt\n        /* \"#utility.yul\":3702:3819   */\n      iszero\n      tag_90\n      jumpi\n        /* \"#utility.yul\":3738:3817   */\n      tag_91\n      tag_15\n      jump\t// in\n    tag_91:\n        /* \"#utility.yul\":3702:3819   */\n    tag_90:\n        /* \"#utility.yul\":3843:3906   */\n      tag_92\n        /* \"#utility.yul\":3898:3905   */\n      dup9\n        /* \"#utility.yul\":3889:3895   */\n      dup3\n        /* \"#utility.yul\":3878:3887   */\n      dup10\n        /* \"#utility.yul\":3874:3896   */\n      add\n        /* \"#utility.yul\":3843:3906   */\n      tag_25\n      jump\t// in\n    tag_92:\n        /* \"#utility.yul\":3833:3906   */\n      swap4\n      pop\n        /* \"#utility.yul\":3628:3916   */\n      pop\n        /* \"#utility.yul\":3955:3957   */\n      0x60\n        /* \"#utility.yul\":3981:4034   */\n      tag_93\n        /* \"#utility.yul\":4026:4033   */\n      dup9\n        /* \"#utility.yul\":4017:4023   */\n      dup3\n        /* \"#utility.yul\":4006:4015   */\n      dup10\n        /* \"#utility.yul\":4002:4024   */\n      add\n        /* \"#utility.yul\":3981:4034   */\n      tag_28\n      jump\t// in\n    tag_93:\n        /* \"#utility.yul\":3971:4034   */\n      swap3\n      pop\n        /* \"#utility.yul\":3926:4044   */\n      pop\n        /* \"#utility.yul\":4083:4086   */\n      0x80\n        /* \"#utility.yul\":4110:4163   */\n      tag_94\n        /* \"#utility.yul\":4155:4162   */\n      dup9\n        /* \"#utility.yul\":4146:4152   */\n      dup3\n        /* \"#utility.yul\":4135:4144   */\n      dup10\n        /* \"#utility.yul\":4131:4153   */\n      add\n        /* \"#utility.yul\":4110:4163   */\n      tag_28\n      jump\t// in\n    tag_94:\n        /* \"#utility.yul\":4100:4163   */\n      swap2\n      pop\n        /* \"#utility.yul\":4054:4173   */\n      pop\n        /* \"#utility.yul\":2909:4180   */\n      swap3\n      swap6\n      pop\n      swap3\n      swap6\n      swap1\n      swap4\n      pop\n      jump\t// out\n        /* \"#utility.yul\":4186:4285   */\n    tag_29:\n        /* \"#utility.yul\":4238:4244   */\n      0x00\n        /* \"#utility.yul\":4272:4277   */\n      dup2\n        /* \"#utility.yul\":4266:4278   */\n      mload\n        /* \"#utility.yul\":4256:4278   */\n      swap1\n      pop\n        /* \"#utility.yul\":4186:4285   */\n      swap2\n      swap1\n      pop\n      jump\t// out\n        /* \"#utility.yul\":4291:4471   */\n    tag_30:\n        /* \"#utility.yul\":4339:4416   */\n      0x4e487b7100000000000000000000000000000000000000000000000000000000\n        /* \"#utility.yul\":4336:4337   */\n      0x00\n        /* \"#utility.yul\":4329:4417   */\n      mstore\n        /* \"#utility.yul\":4436:4440   */\n      0x22\n        /* \"#utility.yul\":4433:4434   */\n      0x04\n        /* \"#utility.yul\":4426:4441   */\n      mstore\n        /* \"#utility.yul\":4460:4464   */\n      0x24\n        /* \"#utility.yul\":4457:4458   */\n      0x00\n        /* \"#utility.yul\":4450:4465   */\n      revert\n        /* \"#utility.yul\":4477:4797   */\n    tag_31:\n        /* \"#utility.yul\":4521:4527   */\n      0x00\n        /* \"#utility.yul\":4558:4559   */\n      0x02\n        /* \"#utility.yul\":4552:4556   */\n      dup3\n        /* \"#utility.yul\":4548:4560   */\n      div\n        /* \"#utility.yul\":4538:4560   */\n      swap1\n      pop\n        /* \"#utility.yul\":4605:4606   */\n      0x01\n        /* \"#utility.yul\":4599:4603   */\n      dup3\n        /* \"#utility.yul\":4595:4607   */\n      and\n        /* \"#utility.yul\":4626:4644   */\n      dup1\n        /* \"#utility.yul\":4616:4697   */\n      tag_98\n      jumpi\n        /* \"#utility.yul\":4682:4686   */\n      0x7f\n        /* \"#utility.yul\":4674:4680   */\n      dup3\n        /* \"#utility.yul\":4670:4687   */\n      and\n        /* \"#utility.yul\":4660:4687   */\n      swap2\n      pop\n        /* \"#utility.yul\":4616:4697   */\n    tag_98:\n        /* \"#utility.yul\":4744:4746   */\n      0x20\n        /* \"#utility.yul\":4736:4742   */\n      dup3\n        /* \"#utility.yul\":4733:4747   */\n      lt\n        /* \"#utility.yul\":4713:4731   */\n      dup2\n        /* \"#utility.yul\":4710:4748   */\n      sub\n        /* \"#utility.yul\":4707:4791   */\n      tag_99\n      jumpi\n        /* \"#utility.yul\":4763:4781   */\n      tag_100\n      tag_30\n      jump\t// in\n    tag_100:\n        /* \"#utility.yul\":4707:4791   */\n    tag_99:\n        /* \"#utility.yul\":4528:4797   */\n      pop\n        /* \"#utility.yul\":4477:4797   */\n      swap2\n      swap1\n      pop\n      jump\t// out\n        /* \"#utility.yul\":4803:4944   */\n    tag_32:\n        /* \"#utility.yul\":4852:4856   */\n      0x00\n        /* \"#utility.yul\":4875:4878   */\n      dup2\n        /* \"#utility.yul\":4867:4878   */\n      swap1\n      pop\n        /* \"#utility.yul\":4898:4901   */\n      dup2\n        /* \"#utility.yul\":4895:4896   */\n      0x00\n        /* \"#utility.yul\":4888:4902   */\n      mstore\n        /* \"#utility.yul\":4932:4936   */\n      0x20\n        /* \"#utility.yul\":4929:4930   */\n      0x00\n        /* \"#utility.yul\":4919:4937   */\n      keccak256\n        /* \"#utility.yul\":4911:4937   */\n      swap1\n      pop\n        /* \"#utility.yul\":4803:4944   */\n      swap2\n      swap1\n      pop\n      jump\t// out\n        /* \"#utility.yul\":4950:5043   */\n    tag_33:\n        /* \"#utility.yul\":4987:4993   */\n      0x00\n        /* \"#utility.yul\":5034:5036   */\n      0x20\n        /* \"#utility.yul\":5029:5031   */\n      0x1f\n        /* \"#utility.yul\":5022:5027   */\n      dup4\n        /* \"#utility.yul\":5018:5032   */\n      add\n        /* \"#utility.yul\":5014:5037   */\n      div\n        /* \"#utility.yul\":5004:5037   */\n      swap1\n      pop\n        /* \"#utility.yul\":4950:5043   */\n      swap2\n      swap1\n      pop\n      jump\t// out\n        /* \"#utility.yul\":5049:5156   */\n    tag_34:\n        /* \"#utility.yul\":5093:5101   */\n      0x00\n        /* \"#utility.yul\":5143:5148   */\n      dup3\n        /* \"#utility.yul\":5137:5141   */\n      dup3\n        /* \"#utility.yul\":5133:5149   */\n      shl\n        /* \"#utility.yul\":5112:5149   */\n      swap1\n      pop\n        /* \"#utility.yul\":5049:5156   */\n      swap3\n      swap2\n      pop\n      pop\n      jump\t// out\n        /* \"#utility.yul\":5162:5555   */\n    tag_35:\n        /* \"#utility.yul\":5231:5237   */\n      0x00\n        /* \"#utility.yul\":5281:5282   */\n      0x08\n        /* \"#utility.yul\":5269:5279   */\n      dup4\n        /* \"#utility.yul\":5265:5283   */\n      mul\n        /* \"#utility.yul\":5304:5401   */\n      tag_105\n        /* \"#utility.yul\":5334:5400   */\n      0xffffffffffffffffffffffffffffffffffffffffffffffffffffffffffffffff\n        /* \"#utility.yul\":5323:5332   */\n      dup3\n        /* \"#utility.yul\":5304:5401   */\n      tag_34\n      jump\t// in\n    tag_105:\n        /* \"#utility.yul\":5422:5461   */\n      tag_106\n        /* \"#utility.yul\":5452:5460   */\n      dup7\n        /* \"#utility.yul\":5441:5450   */\n      dup4\n        /* \"#utility.yul\":5422:5461   */\n      tag_34\n      jump\t// in\n    tag_106:\n        /* \"#utility.yul\":5410:5461   */\n      swap6\n      pop\n        /* \"#utility.yul\":5494:5498   */\n      dup1\n        /* \"#utility.yul\":5490:5499   */\n      not\n        /* \"#utility.yul\":5483:5488   */\n      dup5\n        /* \"#utility.yul\":5479:5500   */\n      and\n        /* \"#utility.yul\":5470:5500   */\n      swap4\n      pop\n        /* \"#utility.yul\":5543:5547   */\n      dup1\n        /* \"#utility.yul\":5533:5541   */\n      dup7\n        /* \"#utility.yul\":5529:5548   */\n      and\n        /* \"#utility.yul\":5522:5527   */\n      dup5\n        /* \"#utility.yul\":5519:5549   */\n      or\n        /* \"#utility.yul\":5509:5549   */\n      swap3\n      pop\n        /* \"#utility.yul\":5238:5555   */\n      pop\n      pop\n        /* \"#utility.yul\":5162:5555   */\n      swap4\n      swap3\n      pop\n      pop\n      pop\n      jump\t// out\n        /* \"#utility.yul\":5561:5621   */\n    tag_36:\n        /* \"#utility.yul\":5589:5592   */\n      0x00\n        /* \"#utility.yul\":5610:5615   */\n      dup2\n        /* \"#utility.yul\":5603:5615   */\n      swap1\n      pop\n        /* \"#utility.yul\":5561:5621   */\n      swap2\n      swap1\n      pop\n      jump\t// out\n        /* \"#utility.yul\":5627:5769   */\n    tag_37:\n        /* \"#utility.yul\":5677:5686   */\n      0x00\n        /* \"#utility.yul\":5710:5763   */\n      tag_109\n        /* \"#utility.yul\":5728:5762   */\n      tag_110\n        /* \"#utility.yul\":5737:5761   */\n      tag_111\n        /* \"#utility.yul\":5755:5760   */\n      dup5\n        /* \"#utility.yul\":5737:5761   */\n      tag_26\n      jump\t// in\n    tag_111:\n        /* \"#utility.yul\":5728:5762   */\n      tag_36\n      jump\t// in\n    tag_110:\n        /* \"#utility.yul\":5710:5763   */\n      tag_26\n      jump\t// in\n    tag_109:\n        /* \"#utility.yul\":5697:5763   */\n      swap1\n      pop\n        /* \"#utility.yul\":5627:5769   */\n      swap2\n      swap1\n      pop\n      jump\t// out\n        /* \"#utility.yul\":5775:5850   */\n    tag_38:\n        /* \"#utility.yul\":5818:5821   */\n      0x00\n        /* \"#utility.yul\":5839:5844   */\n      dup2\n        /* \"#utility.yul\":5832:5844   */\n      swap1\n      pop\n        /* \"#utility.yul\":5775:5850   */\n      swap2\n      swap1\n      pop\n      jump\t// out\n        /* \"#utility.yul\":5856:6125   */\n    tag_39:\n        /* \"#utility.yul\":5966:6005   */\n      tag_114\n        /* \"#utility.yul\":5997:6004   */\n      dup4\n        /* \"#utility.yul\":5966:6005   */\n      tag_37\n      jump\t// in\n    tag_114:\n        /* \"#utility.yul\":6027:6118   */\n      tag_115\n        /* \"#utility.yul\":6076:6117   */\n      tag_116\n        /* \"#utility.yul\":6100:6116   */\n      dup3\n        /* \"#utility.yul\":6076:6117   */\n      tag_38\n      jump\t// in\n    tag_116:\n        /* \"#utility.yul\":6068:6074   */\n      dup5\n        /* \"#utility.yul\":6061:6065   */\n      dup5\n        /* \"#utility.yul\":6055:6066   */\n      sload\n        /* \"#utility.yul\":6027:6118   */\n      tag_35\n      jump\t// in\n    tag_115:\n        /* \"#utility.yul\":6021:6025   */\n      dup3\n        /* \"#utility.yul\":6014:6119   */\n      sstore\n        /* \"#utility.yul\":5932:6125   */\n      pop\n        /* \"#utility.yul\":5856:6125   */\n      pop\n      pop\n      pop\n      jump\t// out\n        /* \"#utility.yul\":6131:6204   */\n    tag_40:\n        /* \"#utility.yul\":6176:6179   */\n      0x00\n        /* \"#utility.yul\":6131:6204   */\n      swap1\n      jump\t// out\n        /* \"#utility.yul\":6210:6399   */\n    tag_41:\n        /* \"#utility.yul\":6287:6319   */\n      tag_119\n      tag_40\n      jump\t// in\n    tag_119:\n        /* \"#utility.yul\":6328:6393   */\n      tag_120\n        /* \"#utility.yul\":6386:6392   */\n      dup2\n        /* \"#utility.yul\":6378:6384   */\n      dup5\n        /* \"#utility.yul\":6372:6376   */\n      dup5\n        /* \"#utility.yul\":6328:6393   */\n      tag_39\n      jump\t// in\n    tag_120:\n        /* \"#utility.yul\":6263:6399   */\n      pop\n        /* \"#utility.yul\":6210:6399   */\n      pop\n      pop\n      jump\t// out\n        /* \"#utility.yul\":6405:6591   */\n    tag_42:\n        /* \"#utility.yul\":6465:6585   */\n    tag_122:\n        /* \"#utility.yul\":6482:6485   */\n      dup2\n        /* \"#utility.yul\":6475:6480   */\n      dup2\n        /* \"#utility.yul\":6472:6486   */\n      lt\n        /* \"#utility.yul\":6465:6585   */\n      iszero\n      tag_124\n      jumpi\n        /* \"#utility.yul\":6536:6575   */\n      tag_125\n        /* \"#utility.yul\":6573:6574   */\n      0x00\n        /* \"#utility.yul\":6566:6571   */\n      dup3\n        /* \"#utility.yul\":6536:6575   */\n      tag_41\n      jump\t// in\n    tag_125:\n        /* \"#utility.yul\":6509:6510   */\n      0x01\n        /* \"#utility.yul\":6502:6507   */\n      dup2\n        /* \"#utility.yul\":6498:6511   */\n      add\n        /* \"#utility.yul\":6489:6511   */\n      swap1\n      pop\n        /* \"#utility.yul\":6465:6585   */\n      jump(tag_122)\n    tag_124:\n        /* \"#utility.yul\":6405:6591   */\n      pop\n      pop\n      jump\t// out\n        /* \"#utility.yul\":6597:7140   */\n    tag_43:\n        /* \"#utility.yul\":6698:6700   */\n      0x1f\n        /* \"#utility.yul\":6693:6696   */\n      dup3\n        /* \"#utility.yul\":6690:6701   */\n      gt\n        /* \"#utility.yul\":6687:7133   */\n      iszero\n      tag_127\n      jumpi\n        /* \"#utility.yul\":6732:6770   */\n      tag_128\n        /* \"#utility.yul\":6764:6769   */\n      dup2\n        /* \"#utility.yul\":6732:6770   */\n      tag_32\n      jump\t// in\n    tag_128:\n        /* \"#utility.yul\":6816:6845   */\n      tag_129\n        /* \"#utility.yul\":6834:6844   */\n      dup5\n        /* \"#utility.yul\":6816:6845   */\n      tag_33\n      jump\t// in\n    tag_129:\n        /* \"#utility.yul\":6806:6814   */\n      dup2\n        /* \"#utility.yul\":6802:6846   */\n      add\n        /* \"#utility.yul\":6999:7001   */\n      0x20\n        /* \"#utility.yul\":6987:6997   */\n      dup6\n        /* \"#utility.yul\":6984:7002   */\n      lt\n        /* \"#utility.yul\":6981:7030   */\n      iszero\n      tag_130\n      jumpi\n        /* \"#utility.yul\":7020:7028   */\n      dup2\n        /* \"#utility.yul\":7005:7028   */\n      swap1\n      pop\n        /* \"#utility.yul\":6981:7030   */\n    tag_130:\n        /* \"#utility.yul\":7043:7123   */\n      tag_131\n        /* \"#utility.yul\":7099:7121   */\n      tag_132\n        /* \"#utility.yul\":7117:7120   */\n      dup6\n        /* \"#utility.yul\":7099:7121   */\n      tag_33\n      jump\t// in\n    tag_132:\n        /* \"#utility.yul\":7089:7097   */\n      dup4\n        /* \"#utility.yul\":7085:7122   */\n      add\n        /* \"#utility.yul\":7072:7083   */\n      dup3\n        /* \"#utility.yul\":7043:7123   */\n      tag_42\n      jump\t// in\n    tag_131:\n        /* \"#utility.yul\":6702:7133   */\n      pop\n      pop\n        /* \"#utility.yul\":6687:7133   */\n    tag_127:\n        /* \"#utility.yul\":6597:7140   */\n      pop\n      pop\n      pop\n      jump\t// out\n        /* \"#utility.yul\":7146:7263   */\n    tag_44:\n        /* \"#utility.yul\":7200:7208   */\n      0x00\n        /* \"#utility.yul\":7250:7255   */\n      dup3\n        /* \"#utility.yul\":7244:7248   */\n      dup3\n        /* \"#utility.yul\":7240:7256   */\n      shr\n        /* \"#utility.yul\":7219:7256   */\n      swap1\n      pop\n        /* \"#utility.yul\":7146:7263   */\n      swap3\n      swap2\n      pop\n      pop\n      jump\t// out\n        /* \"#utility.yul\":7269:7438   */\n    tag_45:\n        /* \"#utility.yul\":7313:7319   */\n      0x00\n        /* \"#utility.yul\":7346:7397   */\n      tag_135\n        /* \"#utility.yul\":7394:7395   */\n      0x00\n        /* \"#utility.yul\":7390:7396   */\n      not\n        /* \"#utility.yul\":7382:7387   */\n      dup5\n        /* \"#utility.yul\":7379:7380   */\n      0x08\n        /* \"#utility.yul\":7375:7388   */\n      mul\n        /* \"#utility.yul\":7346:7397   */\n      tag_44\n      jump\t// in\n    tag_135:\n        /* \"#utility.yul\":7342:7398   */\n      not\n        /* \"#utility.yul\":7427:7431   */\n      dup1\n        /* \"#utility.yul\":7421:7425   */\n      dup4\n        /* \"#utility.yul\":7417:7432   */\n      and\n        /* \"#utility.yul\":7407:7432   */\n      swap2\n      pop\n        /* \"#utility.yul\":7320:7438   */\n      pop\n        /* \"#utility.yul\":7269:7438   */\n      swap3\n      swap2\n      pop\n      pop\n      jump\t// out\n        /* \"#utility.yul\":7443:7738   */\n    tag_46:\n        /* \"#utility.yul\":7519:7523   */\n      0x00\n        /* \"#utility.yul\":7665:7694   */\n      tag_137\n        /* \"#utility.yul\":7690:7693   */\n      dup4\n        /* \"#utility.yul\":7684:7688   */\n      dup4\n        /* \"#utility.yul\":7665:7694   */\n      tag_45\n      jump\t// in\n    tag_137:\n        /* \"#utility.yul\":7657:7694   */\n      swap2\n      pop\n        /* \"#utility.yul\":7727:7730   */\n      dup3\n        /* \"#utility.yul\":7724:7725   */\n      0x02\n        /* \"#utility.yul\":7720:7731   */\n      mul\n        /* \"#utility.yul\":7714:7718   */\n      dup3\n        /* \"#utility.yul\":7711:7732   */\n      or\n        /* \"#utility.yul\":7703:7732   */\n      swap1\n      pop\n        /* \"#utility.yul\":7443:7738   */\n      swap3\n      swap2\n      pop\n      pop\n      jump\t// out\n        /* \"#utility.yul\":7743:9138   */\n    tag_11:\n        /* \"#utility.yul\":7860:7897   */\n      tag_139\n        /* \"#utility.yul\":7893:7896   */\n      dup3\n        /* \"#utility.yul\":7860:7897   */\n      tag_29\n      jump\t// in\n    tag_139:\n        /* \"#utility.yul\":7962:7980   */\n      0xffffffffffffffff\n        /* \"#utility.yul\":7954:7960   */\n      dup2\n        /* \"#utility.yul\":7951:7981   */\n      gt\n        /* \"#utility.yul\":7948:8004   */\n      iszero\n      tag_140\n      jumpi\n        /* \"#utility.yul\":7984:8002   */\n      tag_141\n      tag_19\n      jump\t// in\n    tag_141:\n        /* \"#utility.yul\":7948:8004   */\n    tag_140:\n        /* \"#utility.yul\":8028:8066   */\n      tag_142\n        /* \"#utility.yul\":8060:8064   */\n      dup3\n        /* \"#utility.yul\":8054:8065   */\n      sload\n        /* \"#utility.yul\":8028:8066   */\n      tag_31\n      jump\t// in\n    tag_142:\n        /* \"#utility.yul\":8113:8180   */\n      tag_143\n        /* \"#utility.yul\":8173:8179   */\n      dup3\n        /* \"#utility.yul\":8165:8171   */\n      dup3\n        /* \"#utility.yul\":8159:8163   */\n      dup6\n        /* \"#utility.yul\":8113:8180   */\n      tag_43\n      jump\t// in\n    tag_143:\n        /* \"#utility.yul\":8207:8208   */\n      0x00\n        /* \"#utility.yul\":8231:8235   */\n      0x20\n        /* \"#utility.yul\":8218:8235   */\n      swap1\n      pop\n        /* \"#utility.yul\":8263:8265   */\n      0x1f\n        /* \"#utility.yul\":8255:8261   */\n      dup4\n        /* \"#utility.yul\":8252:8266   */\n      gt\n        /* \"#utility.yul\":8280:8281   */\n      0x01\n        /* \"#utility.yul\":8275:8893   */\n      dup2\n      eq\n      tag_145\n      jumpi\n        /* \"#utility.yul\":8937:8938   */\n      0x00\n        /* \"#utility.yul\":8954:8960   */\n      dup5\n        /* \"#utility.yul\":8951:9028   */\n      iszero\n      tag_146\n      jumpi\n        /* \"#utility.yul\":9003:9012   */\n      dup3\n        /* \"#utility.yul\":8998:9001   */\n      dup8\n        /* \"#utility.yul\":8994:9013   */\n      add\n        /* \"#utility.yul\":8988:9014   */\n      mload\n        /* \"#utility.yul\":8979:9014   */\n      swap1\n      pop\n        /* \"#utility.yul\":8951:9028   */\n    tag_146:\n        /* \"#utility.yul\":9054:9121   */\n      tag_147\n        /* \"#utility.yul\":9114:9120   */\n      dup6\n        /* \"#utility.yul\":9107:9112   */\n      dup3\n        /* \"#utility.yul\":9054:9121   */\n      tag_46\n      jump\t// in\n    tag_147:\n        /* \"#utility.yul\":9048:9052   */\n      dup7\n        /* \"#utility.yul\":9041:9122   */\n      sstore\n        /* \"#utility.yul\":8910:9132   */\n      pop\n        /* \"#utility.yul\":8245:9132   */\n      jump(tag_144)\n        /* \"#utility.yul\":8275:8893   */\n    tag_145:\n        /* \"#utility.yul\":8327:8331   */\n      0x1f\n        /* \"#utility.yul\":8323:8332   */\n      not\n        /* \"#utility.yul\":8315:8321   */\n      dup5\n        /* \"#utility.yul\":8311:8333   */\n      and\n        /* \"#utility.yul\":8361:8398   */\n      tag_148\n        /* \"#utility.yul\":8393:8397   */\n      dup7\n        /* \"#utility.yul\":8361:8398   */\n      tag_32\n      jump\t// in\n    tag_148:\n        /* \"#utility.yul\":8420:8421   */\n      0x00\n        /* \"#utility.yul\":8434:8642   */\n    tag_149:\n        /* \"#utility.yul\":8448:8455   */\n      dup3\n        /* \"#utility.yul\":8445:8446   */\n      dup2\n        /* \"#utility.yul\":8442:8456   */\n      lt\n        /* \"#utility.yul\":8434:8642   */\n      iszero\n      tag_151\n      jumpi\n        /* \"#utility.yul\":8527:8536   */\n      dup5\n        /* \"#utility.yul\":8522:8525   */\n      dup10\n        /* \"#utility.yul\":8518:8537   */\n      add\n        /* \"#utility.yul\":8512:8538   */\n      mload\n        /* \"#utility.yul\":8504:8510   */\n      dup3\n        /* \"#utility.yul\":8497:8539   */\n      sstore\n        /* \"#utility.yul\":8578:8579   */\n      0x01\n        /* \"#utility.yul\":8570:8576   */\n      dup3\n        /* \"#utility.yul\":8566:8580   */\n      add\n        /* \"#utility.yul\":8556:8580   */\n      swap2\n      pop\n        /* \"#utility.yul\":8625:8627   */\n      0x20\n        /* \"#utility.yul\":8614:8623   */\n      dup6\n        /* \"#utility.yul\":8610:8628   */\n      add\n        /* \"#utility.yul\":8597:8628   */\n      swap5\n      pop\n        /* \"#utility.yul\":8471:8475   */\n      0x20\n        /* \"#utility.yul\":8468:8469   */\n      dup2\n        /* \"#utility.yul\":8464:8476   */\n      add\n        /* \"#utility.yul\":8459:8476   */\n      swap1\n      pop\n        /* \"#utility.yul\":8434:8642   */\n      jump(tag_149)\n    tag_151:\n        /* \"#utility.yul\":8670:8676   */\n      dup7\n        /* \"#utility.yul\":8661:8668   */\n      dup4\n        /* \"#utility.yul\":8658:8677   */\n      lt\n        /* \"#utility.yul\":8655:8834   */\n      iszero\n      tag_152\n      jumpi\n        /* \"#utility.yul\":8728:8737   */\n      dup5\n        /* \"#utility.yul\":8723:8726   */\n      dup10\n        /* \"#utility.yul\":8719:8738   */\n      add\n        /* \"#utility.yul\":8713:8739   */\n      mload\n        /* \"#utility.yul\":8771:8819   */\n      tag_153\n        /* \"#utility.yul\":8813:8817   */\n      0x1f\n        /* \"#utility.yul\":8805:8811   */\n      dup10\n        /* \"#utility.yul\":8801:8818   */\n      and\n        /* \"#utility.yul\":8790:8799   */\n      dup3\n        /* \"#utility.yul\":8771:8819   */\n      tag_45\n      jump\t// in\n    tag_153:\n        /* \"#utility.yul\":8763:8769   */\n      dup4\n        /* \"#utility.yul\":8756:8820   */\n      sstore\n        /* \"#utility.yul\":8678:8834   */\n      pop\n        /* \"#utility.yul\":8655:8834   */\n    tag_152:\n        /* \"#utility.yul\":8880:8881   */\n      0x01\n        /* \"#utility.yul\":8876:8877   */\n      0x02\n        /* \"#utility.yul\":8868:8874   */\n      dup9\n        /* \"#utility.yul\":8864:8878   */\n      mul\n        /* \"#utility.yul\":8860:8882   */\n      add\n        /* \"#utility.yul\":8854:8858   */\n      dup9\n        /* \"#utility.yul\":8847:8883   */\n      sstore\n        /* \"#utility.yul\":8282:8893   */\n      pop\n      pop\n      pop\n        /* \"#utility.yul\":8245:9132   */\n    tag_144:\n      pop\n        /* \"#utility.yul\":7835:9138   */\n      pop\n      pop\n      pop\n        /* \"#utility.yul\":7743:9138   */\n      pop\n      pop\n      jump\t// out\n\n    auxdata: 0xa264697066735822122012df2a8f31376175e7efecd76267346f62332f92cbef8376db2dc564ce867f9664736f6c63430008120033\n}\n",
				"bytecode": {
					"linkReferences": {},
					"object": "608060405234801561001057600080fd5b50610653806100206000396000f3fe608060405234801561001057600080fd5b506004361061002b5760003560e01c8063b930227c14610030575b600080fd5b61004a60048036038101906100459190610281565b61004c565b005b60006040518060a0016040528087815260200186815260200185815260200184815260200183815250908060018154018082558091505060019003906000526020600020906005020160009091909190915060008201518160000190816100b3919061054b565b506020820151816001015560408201518160020190816100d3919061054b565b50606082015181600301556080820151816004015550505050505050565b6000604051905090565b600080fd5b600080fd5b600080fd5b600080fd5b6000601f19601f8301169050919050565b7f4e487b7100000000000000000000000000000000000000000000000000000000600052604160045260246000fd5b6101588261010f565b810181811067ffffffffffffffff8211171561017757610176610120565b5b80604052505050565b600061018a6100f1565b9050610196828261014f565b919050565b600067ffffffffffffffff8211156101b6576101b5610120565b5b6101bf8261010f565b9050602081019050919050565b82818337600083830152505050565b60006101ee6101e98461019b565b610180565b90508281526020810184848401111561020a5761020961010a565b5b6102158482856101cc565b509392505050565b600082601f83011261023257610231610105565b5b81356102428482602086016101db565b91505092915050565b6000819050919050565b61025e8161024b565b811461026957600080fd5b50565b60008135905061027b81610255565b92915050565b600080600080600060a0868803121561029d5761029c6100fb565b5b600086013567ffffffffffffffff8111156102bb576102ba610100565b5b6102c78882890161021d565b95505060206102d88882890161026c565b945050604086013567ffffffffffffffff8111156102f9576102f8610100565b5b6103058882890161021d565b93505060606103168882890161026c565b92505060806103278882890161026c565b9150509295509295909350565b600081519050919050565b7f4e487b7100000000000000000000000000000000000000000000000000000000600052602260045260246000fd5b6000600282049050600182168061038657607f821691505b6020821081036103995761039861033f565b5b50919050565b60008190508160005260206000209050919050565b60006020601f8301049050919050565b600082821b905092915050565b6000600883026104017fffffffffffffffffffffffffffffffffffffffffffffffffffffffffffffffff826103c4565b61040b86836103c4565b95508019841693508086168417925050509392505050565b6000819050919050565b600061044861044361043e8461024b565b610423565b61024b565b9050919050565b6000819050919050565b6104628361042d565b61047661046e8261044f565b8484546103d1565b825550505050565b600090565b61048b61047e565b610496818484610459565b505050565b5b818110156104ba576104af600082610483565b60018101905061049c565b5050565b601f8211156104ff576104d08161039f565b6104d9846103b4565b810160208510156104e8578190505b6104fc6104f4856103b4565b83018261049b565b50505b505050565b600082821c905092915050565b600061052260001984600802610504565b1980831691505092915050565b600061053b8383610511565b9150826002028217905092915050565b61055482610334565b67ffffffffffffffff81111561056d5761056c610120565b5b610577825461036e565b6105828282856104be565b600060209050601f8311600181146105b557600084156105a3578287015190505b6105ad858261052f565b865550610615565b601f1984166105c38661039f565b60005b828110156105eb578489015182556001820191506020850194506020810190506105c6565b868310156106085784890151610604601f891682610511565b8355505b6001600288020188555050505b50505050505056fea264697066735822122012df2a8f31376175e7efecd76267346f62332f92cbef8376db2dc564ce867f9664736f6c63430008120033",
					"opcodes": "PUSH1 0x80 PUSH1 0x40 MSTORE CALLVALUE DUP1 ISZERO PUSH2 0x10 JUMPI PUSH1 0x0 DUP1 REVERT JUMPDEST POP PUSH2 0x653 DUP1 PUSH2 0x20 PUSH1 0x0 CODECOPY PUSH1 0x0 RETURN INVALID PUSH1 0x80 PUSH1 0x40 MSTORE CALLVALUE DUP1 ISZERO PUSH2 0x10 JUMPI PUSH1 0x0 DUP1 REVERT JUMPDEST POP PUSH1 0x4 CALLDATASIZE LT PUSH2 0x2B JUMPI PUSH1 0x0 CALLDATALOAD PUSH1 0xE0 SHR DUP1 PUSH4 0xB930227C EQ PUSH2 0x30 JUMPI JUMPDEST PUSH1 0x0 DUP1 REVERT JUMPDEST PUSH2 0x4A PUSH1 0x4 DUP1 CALLDATASIZE SUB DUP2 ADD SWAP1 PUSH2 0x45 SWAP2 SWAP1 PUSH2 0x281 JUMP JUMPDEST PUSH2 0x4C JUMP JUMPDEST STOP JUMPDEST PUSH1 0x0 PUSH1 0x40 MLOAD DUP1 PUSH1 0xA0 ADD PUSH1 0x40 MSTORE DUP1 DUP8 DUP2 MSTORE PUSH1 0x20 ADD DUP7 DUP2 MSTORE PUSH1 0x20 ADD DUP6 DUP2 MSTORE PUSH1 0x20 ADD DUP5 DUP2 MSTORE PUSH1 0x20 ADD DUP4 DUP2 MSTORE POP SWAP1 DUP1 PUSH1 0x1 DUP2 SLOAD ADD DUP1 DUP3 SSTORE DUP1 SWAP2 POP POP PUSH1 0x1 SWAP1 SUB SWAP1 PUSH1 0x0 MSTORE PUSH1 0x20 PUSH1 0x0 KECCAK256 SWAP1 PUSH1 0x5 MUL ADD PUSH1 0x0 SWAP1 SWAP2 SWAP1 SWAP2 SWAP1 SWAP2 POP PUSH1 0x0 DUP3 ADD MLOAD DUP2 PUSH1 0x0 ADD SWAP1 DUP2 PUSH2 0xB3 SWAP2 SWAP1 PUSH2 0x54B JUMP JUMPDEST POP PUSH1 0x20 DUP3 ADD MLOAD DUP2 PUSH1 0x1 ADD SSTORE PUSH1 0x40 DUP3 ADD MLOAD DUP2 PUSH1 0x2 ADD SWAP1 DUP2 PUSH2 0xD3 SWAP2 SWAP1 PUSH2 0x54B JUMP JUMPDEST POP PUSH1 0x60 DUP3 ADD MLOAD DUP2 PUSH1 0x3 ADD SSTORE PUSH1 0x80 DUP3 ADD MLOAD DUP2 PUSH1 0x4 ADD SSTORE POP POP POP POP POP POP POP JUMP JUMPDEST PUSH1 0x0 PUSH1 0x40 MLOAD SWAP1 POP SWAP1 JUMP JUMPDEST PUSH1 0x0 DUP1 REVERT JUMPDEST PUSH1 0x0 DUP1 REVERT JUMPDEST PUSH1 0x0 DUP1 REVERT JUMPDEST PUSH1 0x0 DUP1 REVERT JUMPDEST PUSH1 0x0 PUSH1 0x1F NOT PUSH1 0x1F DUP4 ADD AND SWAP1 POP SWAP2 SWAP1 POP JUMP JUMPDEST PUSH32 0x4E487B7100000000000000000000000000000000000000000000000000000000 PUSH1 0x0 MSTORE PUSH1 0x41 PUSH1 0x4 MSTORE PUSH1 0x24 PUSH1 0x0 REVERT JUMPDEST PUSH2 0x158 DUP3 PUSH2 0x10F JUMP JUMPDEST DUP2 ADD DUP2 DUP2 LT PUSH8 0xFFFFFFFFFFFFFFFF DUP3 GT OR ISZERO PUSH2 0x177 JUMPI PUSH2 0x176 PUSH2 0x120 JUMP JUMPDEST JUMPDEST DUP1 PUSH1 0x40 MSTORE POP POP POP JUMP JUMPDEST PUSH1 0x0 PUSH2 0x18A PUSH2 0xF1 JUMP JUMPDEST SWAP1 POP PUSH2 0x196 DUP3 DUP3 PUSH2 0x14F JUMP JUMPDEST SWAP2 SWAP1 POP JUMP JUMPDEST PUSH1 0x0 PUSH8 0xFFFFFFFFFFFFFFFF DUP3 GT ISZERO PUSH2 0x1B6 JUMPI PUSH2 0x1B5 PUSH2 0x120 JUMP JUMPDEST JUMPDEST PUSH2 0x1BF DUP3 PUSH2 0x10F JUMP JUMPDEST SWAP1 POP PUSH1 0x20 DUP2 ADD SWAP1 POP SWAP2 SWAP1 POP JUMP JUMPDEST DUP3 DUP2 DUP4 CALLDATACOPY PUSH1 0x0 DUP4 DUP4 ADD MSTORE POP POP POP JUMP JUMPDEST PUSH1 0x0 PUSH2 0x1EE PUSH2 0x1E9 DUP5 PUSH2 0x19B JUMP JUMPDEST PUSH2 0x180 JUMP JUMPDEST SWAP1 POP DUP3 DUP2 MSTORE PUSH1 0x20 DUP2 ADD DUP5 DUP5 DUP5 ADD GT ISZERO PUSH2 0x20A JUMPI PUSH2 0x209 PUSH2 0x10A JUMP JUMPDEST JUMPDEST PUSH2 0x215 DUP5 DUP3 DUP6 PUSH2 0x1CC JUMP JUMPDEST POP SWAP4 SWAP3 POP POP POP JUMP JUMPDEST PUSH1 0x0 DUP3 PUSH1 0x1F DUP4 ADD SLT PUSH2 0x232 JUMPI PUSH2 0x231 PUSH2 0x105 JUMP JUMPDEST JUMPDEST DUP2 CALLDATALOAD PUSH2 0x242 DUP5 DUP3 PUSH1 0x20 DUP7 ADD PUSH2 0x1DB JUMP JUMPDEST SWAP2 POP POP SWAP3 SWAP2 POP POP JUMP JUMPDEST PUSH1 0x0 DUP2 SWAP1 POP SWAP2 SWAP1 POP JUMP JUMPDEST PUSH2 0x25E DUP2 PUSH2 0x24B JUMP JUMPDEST DUP2 EQ PUSH2 0x269 JUMPI PUSH1 0x0 DUP1 REVERT JUMPDEST POP JUMP JUMPDEST PUSH1 0x0 DUP2 CALLDATALOAD SWAP1 POP PUSH2 0x27B DUP2 PUSH2 0x255 JUMP JUMPDEST SWAP3 SWAP2 POP POP JUMP JUMPDEST PUSH1 0x0 DUP1 PUSH1 0x0 DUP1 PUSH1 0x0 PUSH1 0xA0 DUP7 DUP9 SUB SLT ISZERO PUSH2 0x29D JUMPI PUSH2 0x29C PUSH2 0xFB JUMP JUMPDEST JUMPDEST PUSH1 0x0 DUP7 ADD CALLDATALOAD PUSH8 0xFFFFFFFFFFFFFFFF DUP2 GT ISZERO PUSH2 0x2BB JUMPI PUSH2 0x2BA PUSH2 0x100 JUMP JUMPDEST JUMPDEST PUSH2 0x2C7 DUP9 DUP3 DUP10 ADD PUSH2 0x21D JUMP JUMPDEST SWAP6 POP POP PUSH1 0x20 PUSH2 0x2D8 DUP9 DUP3 DUP10 ADD PUSH2 0x26C JUMP JUMPDEST SWAP5 POP POP PUSH1 0x40 DUP7 ADD CALLDATALOAD PUSH8 0xFFFFFFFFFFFFFFFF DUP2 GT ISZERO PUSH2 0x2F9 JUMPI PUSH2 0x2F8 PUSH2 0x100 JUMP JUMPDEST JUMPDEST PUSH2 0x305 DUP9 DUP3 DUP10 ADD PUSH2 0x21D JUMP JUMPDEST SWAP4 POP POP PUSH1 0x60 PUSH2 0x316 DUP9 DUP3 DUP10 ADD PUSH2 0x26C JUMP JUMPDEST SWAP3 POP POP PUSH1 0x80 PUSH2 0x327 DUP9 DUP3 DUP10 ADD PUSH2 0x26C JUMP JUMPDEST SWAP2 POP POP SWAP3 SWAP6 POP SWAP3 SWAP6 SWAP1 SWAP4 POP JUMP JUMPDEST PUSH1 0x0 DUP2 MLOAD SWAP1 POP SWAP2 SWAP1 POP JUMP JUMPDEST PUSH32 0x4E487B7100000000000000000000000000000000000000000000000000000000 PUSH1 0x0 MSTORE PUSH1 0x22 PUSH1 0x4 MSTORE PUSH1 0x24 PUSH1 0x0 REVERT JUMPDEST PUSH1 0x0 PUSH1 0x2 DUP3 DIV SWAP1 POP PUSH1 0x1 DUP3 AND DUP1 PUSH2 0x386 JUMPI PUSH1 0x7F DUP3 AND SWAP2 POP JUMPDEST PUSH1 0x20 DUP3 LT DUP2 SUB PUSH2 0x399 JUMPI PUSH2 0x398 PUSH2 0x33F JUMP JUMPDEST JUMPDEST POP SWAP2 SWAP1 POP JUMP JUMPDEST PUSH1 0x0 DUP2 SWAP1 POP DUP2 PUSH1 0x0 MSTORE PUSH1 0x20 PUSH1 0x0 KECCAK256 SWAP1 POP SWAP2 SWAP1 POP JUMP JUMPDEST PUSH1 0x0 PUSH1 0x20 PUSH1 0x1F DUP4 ADD DIV SWAP1 POP SWAP2 SWAP1 POP JUMP JUMPDEST PUSH1 0x0 DUP3 DUP3 SHL SWAP1 POP SWAP3 SWAP2 POP POP JUMP JUMPDEST PUSH1 0x0 PUSH1 0x8 DUP4 MUL PUSH2 0x401 PUSH32 0xFFFFFFFFFFFFFFFFFFFFFFFFFFFFFFFFFFFFFFFFFFFFFFFFFFFFFFFFFFFFFFFF DUP3 PUSH2 0x3C4 JUMP JUMPDEST PUSH2 0x40B DUP7 DUP4 PUSH2 0x3C4 JUMP JUMPDEST SWAP6 POP DUP1 NOT DUP5 AND SWAP4 POP DUP1 DUP7 AND DUP5 OR SWAP3 POP POP POP SWAP4 SWAP3 POP POP POP JUMP JUMPDEST PUSH1 0x0 DUP2 SWAP1 POP SWAP2 SWAP1 POP JUMP JUMPDEST PUSH1 0x0 PUSH2 0x448 PUSH2 0x443 PUSH2 0x43E DUP5 PUSH2 0x24B JUMP JUMPDEST PUSH2 0x423 JUMP JUMPDEST PUSH2 0x24B JUMP JUMPDEST SWAP1 POP SWAP2 SWAP1 POP JUMP JUMPDEST PUSH1 0x0 DUP2 SWAP1 POP SWAP2 SWAP1 POP JUMP JUMPDEST PUSH2 0x462 DUP4 PUSH2 0x42D JUMP JUMPDEST PUSH2 0x476 PUSH2 0x46E DUP3 PUSH2 0x44F JUMP JUMPDEST DUP5 DUP5 SLOAD PUSH2 0x3D1 JUMP JUMPDEST DUP3 SSTORE POP POP POP POP JUMP JUMPDEST PUSH1 0x0 SWAP1 JUMP JUMPDEST PUSH2 0x48B PUSH2 0x47E JUMP JUMPDEST PUSH2 0x496 DUP2 DUP5 DUP5 PUSH2 0x459 JUMP JUMPDEST POP POP POP JUMP JUMPDEST JUMPDEST DUP2 DUP2 LT ISZERO PUSH2 0x4BA JUMPI PUSH2 0x4AF PUSH1 0x0 DUP3 PUSH2 0x483 JUMP JUMPDEST PUSH1 0x1 DUP2 ADD SWAP1 POP PUSH2 0x49C JUMP JUMPDEST POP POP JUMP JUMPDEST PUSH1 0x1F DUP3 GT ISZERO PUSH2 0x4FF JUMPI PUSH2 0x4D0 DUP2 PUSH2 0x39F JUMP JUMPDEST PUSH2 0x4D9 DUP5 PUSH2 0x3B4 JUMP JUMPDEST DUP2 ADD PUSH1 0x20 DUP6 LT ISZERO PUSH2 0x4E8 JUMPI DUP2 SWAP1 POP JUMPDEST PUSH2 0x4FC PUSH2 0x4F4 DUP6 PUSH2 0x3B4 JUMP JUMPDEST DUP4 ADD DUP3 PUSH2 0x49B JUMP JUMPDEST POP POP JUMPDEST POP POP POP JUMP JUMPDEST PUSH1 0x0 DUP3 DUP3 SHR SWAP1 POP SWAP3 SWAP2 POP POP JUMP JUMPDEST PUSH1 0x0 PUSH2 0x522 PUSH1 0x0 NOT DUP5 PUSH1 0x8 MUL PUSH2 0x504 JUMP JUMPDEST NOT DUP1 DUP4 AND SWAP2 POP POP SWAP3 SWAP2 POP POP JUMP JUMPDEST PUSH1 0x0 PUSH2 0x53B DUP4 DUP4 PUSH2 0x511 JUMP JUMPDEST SWAP2 POP DUP3 PUSH1 0x2 MUL DUP3 OR SWAP1 POP SWAP3 SWAP2 POP POP JUMP JUMPDEST PUSH2 0x554 DUP3 PUSH2 0x334 JUMP JUMPDEST PUSH8 0xFFFFFFFFFFFFFFFF DUP2 GT ISZERO PUSH2 0x56D JUMPI PUSH2 0x56C PUSH2 0x120 JUMP JUMPDEST JUMPDEST PUSH2 0x577 DUP3 SLOAD PUSH2 0x36E JUMP JUMPDEST PUSH2 0x582 DUP3 DUP3 DUP6 PUSH2 0x4BE JUMP JUMPDEST PUSH1 0x0 PUSH1 0x20 SWAP1 POP PUSH1 0x1F DUP4 GT PUSH1 0x1 DUP2 EQ PUSH2 0x5B5 JUMPI PUSH1 0x0 DUP5 ISZERO PUSH2 0x5A3 JUMPI DUP3 DUP8 ADD MLOAD SWAP1 POP JUMPDEST PUSH2 0x5AD DUP6 DUP3 PUSH2 0x52F JUMP JUMPDEST DUP7 SSTORE POP PUSH2 0x615 JUMP JUMPDEST PUSH1 0x1F NOT DUP5 AND PUSH2 0x5C3 DUP7 PUSH2 0x39F JUMP JUMPDEST PUSH1 0x0 JUMPDEST DUP3 DUP2 LT ISZERO PUSH2 0x5EB JUMPI DUP5 DUP10 ADD MLOAD DUP3 SSTORE PUSH1 0x1 DUP3 ADD SWAP2 POP PUSH1 0x20 DUP6 ADD SWAP5 POP PUSH1 0x20 DUP2 ADD SWAP1 POP PUSH2 0x5C6 JUMP JUMPDEST DUP7 DUP4 LT ISZERO PUSH2 0x608 JUMPI DUP5 DUP10 ADD MLOAD PUSH2 0x604 PUSH1 0x1F DUP10 AND DUP3 PUSH2 0x511 JUMP JUMPDEST DUP4 SSTORE POP JUMPDEST PUSH1 0x1 PUSH1 0x2 DUP9 MUL ADD DUP9 SSTORE POP POP POP JUMPDEST POP POP POP POP POP POP JUMP INVALID LOG2 PUSH5 0x6970667358 0x22 SLT KECCAK256 SLT 0xDF 0x2A DUP16 BALANCE CALLDATACOPY PUSH2 0x75E7 0xEF 0xEC 0xD7 PUSH3 0x67346F PUSH3 0x332F92 0xCB 0xEF DUP4 PUSH23 0xDB2DC564CE867F9664736F6C6343000812003300000000 "
				},
				"gasEstimates": {
					"creation": {
						"codeDepositCost": "323800",
						"executionCost": "362",
						"totalCost": "324162"
					},
					"external": {
						"setStudent(string,uint256,string,uint256,uint256)": "infinite"
					}
				},
				"methodIdentifiers": {
					"setStudent(string,uint256,string,uint256,uint256)": "b930227c"
				}
			},
			"storageLayout": {
				"storage": [
					{
						"astId": 16,
						"contract": "contracts/test.sol:test",
						"label": "Students",
						"offset": 0,
						"slot": "0",
						"type": "t_array(t_struct(Student)12_storage)dyn_storage"
					}
				],
				"types": {
					"t_array(t_struct(Student)12_storage)dyn_storage": {
						"base": "t_struct(Student)12_storage",
						"encoding": "dynamic_array",
						"label": "struct test.Student[]",
						"numberOfBytes": "32"
					},
					"t_string_storage": {
						"encoding": "bytes",
						"label": "string",
						"numberOfBytes": "32"
					},
					"t_struct(Student)12_storage": {
						"encoding": "inplace",
						"label": "struct test.Student",
						"members": [
							{
								"astId": 3,
								"contract": "contracts/test.sol:test",
								"label": "name",
								"offset": 0,
								"slot": "0",
								"type": "t_string_storage"
							},
							{
								"astId": 5,
								"contract": "contracts/test.sol:test",
								"label": "num",
								"offset": 0,
								"slot": "1",
								"type": "t_uint256"
							},
							{
								"astId": 7,
								"contract": "contracts/test.sol:test",
								"label": "class",
								"offset": 0,
								"slot": "2",
								"type": "t_string_storage"
							},
							{
								"astId": 9,
								"contract": "contracts/test.sol:test",
								"label": "score",
								"offset": 0,
								"slot": "3",
								"type": "t_uint256"
							},
							{
								"astId": 11,
								"contract": "contracts/test.sol:test",
								"label": "grade",
								"offset": 0,
								"slot": "4",
								"type": "t_uint256"
							}
						],
						"numberOfBytes": "160"
					},
					"t_uint256": {
						"encoding": "inplace",
						"label": "uint256",
						"numberOfBytes": "32"
					}
				}
			},
			"userdoc": {
				"kind": "user",
				"methods": {},
				"version": 1
			}
		}
	}
}