{
	"contracts/230504_3.sol": {
		"Array": {
			"abi": [
				{
					"inputs": [
						{
							"internalType": "uint256",
							"name": "_k",
							"type": "uint256"
						},
						{
							"internalType": "uint256",
							"name": "_z",
							"type": "uint256"
						}
					],
					"name": "changeNum",
					"outputs": [],
					"stateMutability": "nonpayable",
					"type": "function"
				},
				{
					"inputs": [
						{
							"internalType": "uint256",
							"name": "_n",
							"type": "uint256"
						}
					],
					"name": "deleteNum",
					"outputs": [],
					"stateMutability": "nonpayable",
					"type": "function"
				},
				{
					"inputs": [],
					"name": "getLength",
					"outputs": [
						{
							"internalType": "uint256",
							"name": "",
							"type": "uint256"
						}
					],
					"stateMutability": "view",
					"type": "function"
				},
				{
					"inputs": [
						{
							"internalType": "uint256",
							"name": "_n",
							"type": "uint256"
						}
					],
					"name": "getNumber",
					"outputs": [
						{
							"internalType": "uint256",
							"name": "",
							"type": "uint256"
						}
					],
					"stateMutability": "view",
					"type": "function"
				},
				{
					"inputs": [],
					"name": "pop",
					"outputs": [],
					"stateMutability": "nonpayable",
					"type": "function"
				},
				{
					"inputs": [
						{
							"internalType": "uint256",
							"name": "_a",
							"type": "uint256"
						}
					],
					"name": "push",
					"outputs": [],
					"stateMutability": "nonpayable",
					"type": "function"
				},
				{
					"inputs": [],
					"name": "returnArray",
					"outputs": [
						{
							"internalType": "uint256[]",
							"name": "",
							"type": "uint256[]"
						}
					],
					"stateMutability": "view",
					"type": "function"
				}
			],
			"devdoc": {
				"kind": "dev",
				"methods": {},
				"version": 1
			},
			"evm": {
				"assembly": "    /* \"contracts/230504_3.sol\":496:1578  contract Array {... */\n  mstore(0x40, 0x80)\n  callvalue\n  dup1\n  iszero\n  tag_1\n  jumpi\n  0x00\n  dup1\n  revert\ntag_1:\n  pop\n  dataSize(sub_0)\n  dup1\n  dataOffset(sub_0)\n  0x00\n  codecopy\n  0x00\n  return\nstop\n\nsub_0: assembly {\n        /* \"contracts/230504_3.sol\":496:1578  contract Array {... */\n      mstore(0x40, 0x80)\n      callvalue\n      dup1\n      iszero\n      tag_1\n      jumpi\n      0x00\n      dup1\n      revert\n    tag_1:\n      pop\n      jumpi(tag_2, lt(calldatasize, 0x04))\n      shr(0xe0, calldataload(0x00))\n      dup1\n      0x959ac484\n      gt\n      tag_10\n      jumpi\n      dup1\n      0x959ac484\n      eq\n      tag_6\n      jumpi\n      dup1\n      0xa4ece52c\n      eq\n      tag_7\n      jumpi\n      dup1\n      0xbe1c766b\n      eq\n      tag_8\n      jumpi\n      dup1\n      0xfc563658\n      eq\n      tag_9\n      jumpi\n      jump(tag_2)\n    tag_10:\n      dup1\n      0x3be22a6e\n      eq\n      tag_3\n      jumpi\n      dup1\n      0x3cac14c8\n      eq\n      tag_4\n      jumpi\n      dup1\n      0x49b34170\n      eq\n      tag_5\n      jumpi\n    tag_2:\n      0x00\n      dup1\n      revert\n        /* \"contracts/230504_3.sol\":1316:1452  function deleteNum(uint _n) public {... */\n    tag_3:\n      tag_11\n      0x04\n      dup1\n      calldatasize\n      sub\n      dup2\n      add\n      swap1\n      tag_12\n      swap2\n      swap1\n      tag_13\n      jump\t// in\n    tag_12:\n      tag_14\n      jump\t// in\n    tag_11:\n      stop\n        /* \"contracts/230504_3.sol\":1487:1576  function returnArray() public view returns(uint[] memory) {... */\n    tag_4:\n      tag_15\n      tag_16\n      jump\t// in\n    tag_15:\n      mload(0x40)\n      tag_17\n      swap2\n      swap1\n      tag_18\n      jump\t// in\n    tag_17:\n      mload(0x40)\n      dup1\n      swap2\n      sub\n      swap1\n      return\n        /* \"contracts/230504_3.sol\":1155:1292  function changeNum(uint _k, uint _z) public {... */\n    tag_5:\n      tag_19\n      0x04\n      dup1\n      calldatasize\n      sub\n      dup2\n      add\n      swap1\n      tag_20\n      swap2\n      swap1\n      tag_21\n      jump\t// in\n    tag_20:\n      tag_22\n      jump\t// in\n    tag_19:\n      stop\n        /* \"contracts/230504_3.sol\":642:734  function push(uint _a) public {... */\n    tag_6:\n      tag_23\n      0x04\n      dup1\n      calldatasize\n      sub\n      dup2\n      add\n      swap1\n      tag_24\n      swap2\n      swap1\n      tag_13\n      jump\t// in\n    tag_24:\n      tag_25\n      jump\t// in\n    tag_23:\n      stop\n        /* \"contracts/230504_3.sol\":757:859  function pop() public {... */\n    tag_7:\n      tag_26\n      tag_27\n      jump\t// in\n    tag_26:\n      stop\n        /* \"contracts/230504_3.sol\":1022:1129  function getLength() public view returns(uint) {... */\n    tag_8:\n      tag_28\n      tag_29\n      jump\t// in\n    tag_28:\n      mload(0x40)\n      tag_30\n      swap2\n      swap1\n      tag_31\n      jump\t// in\n    tag_30:\n      mload(0x40)\n      dup1\n      swap2\n      sub\n      swap1\n      return\n        /* \"contracts/230504_3.sol\":882:999  function getNumber(uint _n) public view returns(uint) {... */\n    tag_9:\n      tag_32\n      0x04\n      dup1\n      calldatasize\n      sub\n      dup2\n      add\n      swap1\n      tag_33\n      swap2\n      swap1\n      tag_13\n      jump\t// in\n    tag_33:\n      tag_34\n      jump\t// in\n    tag_32:\n      mload(0x40)\n      tag_35\n      swap2\n      swap1\n      tag_31\n      jump\t// in\n    tag_35:\n      mload(0x40)\n      dup1\n      swap2\n      sub\n      swap1\n      return\n        /* \"contracts/230504_3.sol\":1316:1452  function deleteNum(uint _n) public {... */\n    tag_14:\n        /* \"contracts/230504_3.sol\":1368:1375  numbers */\n      0x00\n        /* \"contracts/230504_3.sol\":1379:1380  1 */\n      0x01\n        /* \"contracts/230504_3.sol\":1376:1378  _n */\n      dup3\n        /* \"contracts/230504_3.sol\":1376:1380  _n-1 */\n      tag_37\n      swap2\n      swap1\n      tag_38\n      jump\t// in\n    tag_37:\n        /* \"contracts/230504_3.sol\":1368:1381  numbers[_n-1] */\n      dup2\n      sload\n      dup2\n      lt\n      tag_39\n      jumpi\n      tag_40\n      tag_41\n      jump\t// in\n    tag_40:\n    tag_39:\n      swap1\n      0x00\n      mstore\n      keccak256(0x00, 0x20)\n      add\n        /* \"contracts/230504_3.sol\":1361:1381  delete numbers[_n-1] */\n      0x00\n      swap1\n      sstore\n        /* \"contracts/230504_3.sol\":1316:1452  function deleteNum(uint _n) public {... */\n      pop\n      jump\t// out\n        /* \"contracts/230504_3.sol\":1487:1576  function returnArray() public view returns(uint[] memory) {... */\n    tag_16:\n        /* \"contracts/230504_3.sol\":1530:1543  uint[] memory */\n      0x60\n        /* \"contracts/230504_3.sol\":1562:1569  numbers */\n      0x00\n        /* \"contracts/230504_3.sol\":1555:1569  return numbers */\n      dup1\n      sload\n      dup1\n      0x20\n      mul\n      0x20\n      add\n      mload(0x40)\n      swap1\n      dup2\n      add\n      0x40\n      mstore\n      dup1\n      swap3\n      swap2\n      swap1\n      dup2\n      dup2\n      mstore\n      0x20\n      add\n      dup3\n      dup1\n      sload\n      dup1\n      iszero\n      tag_44\n      jumpi\n      0x20\n      mul\n      dup3\n      add\n      swap2\n      swap1\n      0x00\n      mstore\n      keccak256(0x00, 0x20)\n      swap1\n    tag_45:\n      dup2\n      sload\n      dup2\n      mstore\n      0x20\n      add\n      swap1\n      0x01\n      add\n      swap1\n      dup1\n      dup4\n      gt\n      tag_45\n      jumpi\n    tag_44:\n      pop\n      pop\n      pop\n      pop\n      pop\n      swap1\n      pop\n        /* \"contracts/230504_3.sol\":1487:1576  function returnArray() public view returns(uint[] memory) {... */\n      swap1\n      jump\t// out\n        /* \"contracts/230504_3.sol\":1155:1292  function changeNum(uint _k, uint _z) public {... */\n    tag_22:\n        /* \"contracts/230504_3.sol\":1225:1227  _z */\n      dup1\n        /* \"contracts/230504_3.sol\":1209:1216  numbers */\n      0x00\n        /* \"contracts/230504_3.sol\":1220:1221  1 */\n      0x01\n        /* \"contracts/230504_3.sol\":1217:1219  _k */\n      dup5\n        /* \"contracts/230504_3.sol\":1217:1221  _k-1 */\n      tag_47\n      swap2\n      swap1\n      tag_38\n      jump\t// in\n    tag_47:\n        /* \"contracts/230504_3.sol\":1209:1222  numbers[_k-1] */\n      dup2\n      sload\n      dup2\n      lt\n      tag_48\n      jumpi\n      tag_49\n      tag_41\n      jump\t// in\n    tag_49:\n    tag_48:\n      swap1\n      0x00\n      mstore\n      keccak256(0x00, 0x20)\n      add\n        /* \"contracts/230504_3.sol\":1209:1227  numbers[_k-1] = _z */\n      dup2\n      swap1\n      sstore\n      pop\n        /* \"contracts/230504_3.sol\":1155:1292  function changeNum(uint _k, uint _z) public {... */\n      pop\n      pop\n      jump\t// out\n        /* \"contracts/230504_3.sol\":642:734  function push(uint _a) public {... */\n    tag_25:\n        /* \"contracts/230504_3.sol\":682:689  numbers */\n      0x00\n        /* \"contracts/230504_3.sol\":695:697  _a */\n      dup2\n        /* \"contracts/230504_3.sol\":682:698  numbers.push(_a) */\n      swap1\n      dup1\n      0x01\n      dup2\n      sload\n      add\n      dup1\n      dup3\n      sstore\n      dup1\n      swap2\n      pop\n      pop\n      0x01\n      swap1\n      sub\n      swap1\n      0x00\n      mstore\n      keccak256(0x00, 0x20)\n      add\n      0x00\n      swap1\n      swap2\n      swap1\n      swap2\n      swap1\n      swap2\n      pop\n      sstore\n        /* \"contracts/230504_3.sol\":642:734  function push(uint _a) public {... */\n      pop\n      jump\t// out\n        /* \"contracts/230504_3.sol\":757:859  function pop() public {... */\n    tag_27:\n        /* \"contracts/230504_3.sol\":789:796  numbers */\n      0x00\n        /* \"contracts/230504_3.sol\":789:802  numbers.pop() */\n      dup1\n      sload\n      dup1\n      tag_54\n      jumpi\n      tag_55\n      tag_56\n      jump\t// in\n    tag_55:\n    tag_54:\n      0x01\n      swap1\n      sub\n      dup2\n      dup2\n      swap1\n      0x00\n      mstore\n      keccak256(0x00, 0x20)\n      add\n      0x00\n      swap1\n      sstore\n      swap1\n      sstore\n        /* \"contracts/230504_3.sol\":757:859  function pop() public {... */\n      jump\t// out\n        /* \"contracts/230504_3.sol\":1022:1129  function getLength() public view returns(uint) {... */\n    tag_29:\n        /* \"contracts/230504_3.sol\":1063:1067  uint */\n      0x00\n        /* \"contracts/230504_3.sol\":1086:1093  numbers */\n      dup1\n        /* \"contracts/230504_3.sol\":1086:1100  numbers.length */\n      dup1\n      sload\n      swap1\n      pop\n        /* \"contracts/230504_3.sol\":1079:1100  return numbers.length */\n      swap1\n      pop\n        /* \"contracts/230504_3.sol\":1022:1129  function getLength() public view returns(uint) {... */\n      swap1\n      jump\t// out\n        /* \"contracts/230504_3.sol\":882:999  function getNumber(uint _n) public view returns(uint) {... */\n    tag_34:\n        /* \"contracts/230504_3.sol\":930:934  uint */\n      0x00\n        /* \"contracts/230504_3.sol\":953:960  numbers */\n      dup1\n        /* \"contracts/230504_3.sol\":964:965  1 */\n      0x01\n        /* \"contracts/230504_3.sol\":961:963  _n */\n      dup4\n        /* \"contracts/230504_3.sol\":961:965  _n-1 */\n      tag_60\n      swap2\n      swap1\n      tag_38\n      jump\t// in\n    tag_60:\n        /* \"contracts/230504_3.sol\":953:966  numbers[_n-1] */\n      dup2\n      sload\n      dup2\n      lt\n      tag_61\n      jumpi\n      tag_62\n      tag_41\n      jump\t// in\n    tag_62:\n    tag_61:\n      swap1\n      0x00\n      mstore\n      keccak256(0x00, 0x20)\n      add\n      sload\n        /* \"contracts/230504_3.sol\":946:966  return numbers[_n-1] */\n      swap1\n      pop\n        /* \"contracts/230504_3.sol\":882:999  function getNumber(uint _n) public view returns(uint) {... */\n      swap2\n      swap1\n      pop\n      jump\t// out\n        /* \"#utility.yul\":88:205   */\n    tag_65:\n        /* \"#utility.yul\":197:198   */\n      0x00\n        /* \"#utility.yul\":194:195   */\n      dup1\n        /* \"#utility.yul\":187:199   */\n      revert\n        /* \"#utility.yul\":334:411   */\n    tag_67:\n        /* \"#utility.yul\":371:378   */\n      0x00\n        /* \"#utility.yul\":400:405   */\n      dup2\n        /* \"#utility.yul\":389:405   */\n      swap1\n      pop\n        /* \"#utility.yul\":334:411   */\n      swap2\n      swap1\n      pop\n      jump\t// out\n        /* \"#utility.yul\":417:539   */\n    tag_68:\n        /* \"#utility.yul\":490:514   */\n      tag_85\n        /* \"#utility.yul\":508:513   */\n      dup2\n        /* \"#utility.yul\":490:514   */\n      tag_67\n      jump\t// in\n    tag_85:\n        /* \"#utility.yul\":483:488   */\n      dup2\n        /* \"#utility.yul\":480:515   */\n      eq\n        /* \"#utility.yul\":470:533   */\n      tag_86\n      jumpi\n        /* \"#utility.yul\":529:530   */\n      0x00\n        /* \"#utility.yul\":526:527   */\n      dup1\n        /* \"#utility.yul\":519:531   */\n      revert\n        /* \"#utility.yul\":470:533   */\n    tag_86:\n        /* \"#utility.yul\":417:539   */\n      pop\n      jump\t// out\n        /* \"#utility.yul\":545:684   */\n    tag_69:\n        /* \"#utility.yul\":591:596   */\n      0x00\n        /* \"#utility.yul\":629:635   */\n      dup2\n        /* \"#utility.yul\":616:636   */\n      calldataload\n        /* \"#utility.yul\":607:636   */\n      swap1\n      pop\n        /* \"#utility.yul\":645:678   */\n      tag_88\n        /* \"#utility.yul\":672:677   */\n      dup2\n        /* \"#utility.yul\":645:678   */\n      tag_68\n      jump\t// in\n    tag_88:\n        /* \"#utility.yul\":545:684   */\n      swap3\n      swap2\n      pop\n      pop\n      jump\t// out\n        /* \"#utility.yul\":690:1019   */\n    tag_13:\n        /* \"#utility.yul\":749:755   */\n      0x00\n        /* \"#utility.yul\":798:800   */\n      0x20\n        /* \"#utility.yul\":786:795   */\n      dup3\n        /* \"#utility.yul\":777:784   */\n      dup5\n        /* \"#utility.yul\":773:796   */\n      sub\n        /* \"#utility.yul\":769:801   */\n      slt\n        /* \"#utility.yul\":766:885   */\n      iszero\n      tag_90\n      jumpi\n        /* \"#utility.yul\":804:883   */\n      tag_91\n      tag_65\n      jump\t// in\n    tag_91:\n        /* \"#utility.yul\":766:885   */\n    tag_90:\n        /* \"#utility.yul\":924:925   */\n      0x00\n        /* \"#utility.yul\":949:1002   */\n      tag_92\n        /* \"#utility.yul\":994:1001   */\n      dup5\n        /* \"#utility.yul\":985:991   */\n      dup3\n        /* \"#utility.yul\":974:983   */\n      dup6\n        /* \"#utility.yul\":970:992   */\n      add\n        /* \"#utility.yul\":949:1002   */\n      tag_69\n      jump\t// in\n    tag_92:\n        /* \"#utility.yul\":939:1002   */\n      swap2\n      pop\n        /* \"#utility.yul\":895:1012   */\n      pop\n        /* \"#utility.yul\":690:1019   */\n      swap3\n      swap2\n      pop\n      pop\n      jump\t// out\n        /* \"#utility.yul\":1025:1139   */\n    tag_70:\n        /* \"#utility.yul\":1092:1098   */\n      0x00\n        /* \"#utility.yul\":1126:1131   */\n      dup2\n        /* \"#utility.yul\":1120:1132   */\n      mload\n        /* \"#utility.yul\":1110:1132   */\n      swap1\n      pop\n        /* \"#utility.yul\":1025:1139   */\n      swap2\n      swap1\n      pop\n      jump\t// out\n        /* \"#utility.yul\":1145:1329   */\n    tag_71:\n        /* \"#utility.yul\":1244:1255   */\n      0x00\n        /* \"#utility.yul\":1278:1284   */\n      dup3\n        /* \"#utility.yul\":1273:1276   */\n      dup3\n        /* \"#utility.yul\":1266:1285   */\n      mstore\n        /* \"#utility.yul\":1318:1322   */\n      0x20\n        /* \"#utility.yul\":1313:1316   */\n      dup3\n        /* \"#utility.yul\":1309:1323   */\n      add\n        /* \"#utility.yul\":1294:1323   */\n      swap1\n      pop\n        /* \"#utility.yul\":1145:1329   */\n      swap3\n      swap2\n      pop\n      pop\n      jump\t// out\n        /* \"#utility.yul\":1335:1467   */\n    tag_72:\n        /* \"#utility.yul\":1402:1406   */\n      0x00\n        /* \"#utility.yul\":1425:1428   */\n      dup2\n        /* \"#utility.yul\":1417:1428   */\n      swap1\n      pop\n        /* \"#utility.yul\":1455:1459   */\n      0x20\n        /* \"#utility.yul\":1450:1453   */\n      dup3\n        /* \"#utility.yul\":1446:1460   */\n      add\n        /* \"#utility.yul\":1438:1460   */\n      swap1\n      pop\n        /* \"#utility.yul\":1335:1467   */\n      swap2\n      swap1\n      pop\n      jump\t// out\n        /* \"#utility.yul\":1473:1581   */\n    tag_73:\n        /* \"#utility.yul\":1550:1574   */\n      tag_97\n        /* \"#utility.yul\":1568:1573   */\n      dup2\n        /* \"#utility.yul\":1550:1574   */\n      tag_67\n      jump\t// in\n    tag_97:\n        /* \"#utility.yul\":1545:1548   */\n      dup3\n        /* \"#utility.yul\":1538:1575   */\n      mstore\n        /* \"#utility.yul\":1473:1581   */\n      pop\n      pop\n      jump\t// out\n        /* \"#utility.yul\":1587:1766   */\n    tag_74:\n        /* \"#utility.yul\":1656:1666   */\n      0x00\n        /* \"#utility.yul\":1677:1723   */\n      tag_99\n        /* \"#utility.yul\":1719:1722   */\n      dup4\n        /* \"#utility.yul\":1711:1717   */\n      dup4\n        /* \"#utility.yul\":1677:1723   */\n      tag_73\n      jump\t// in\n    tag_99:\n        /* \"#utility.yul\":1755:1759   */\n      0x20\n        /* \"#utility.yul\":1750:1753   */\n      dup4\n        /* \"#utility.yul\":1746:1760   */\n      add\n        /* \"#utility.yul\":1732:1760   */\n      swap1\n      pop\n        /* \"#utility.yul\":1587:1766   */\n      swap3\n      swap2\n      pop\n      pop\n      jump\t// out\n        /* \"#utility.yul\":1772:1885   */\n    tag_75:\n        /* \"#utility.yul\":1842:1846   */\n      0x00\n        /* \"#utility.yul\":1874:1878   */\n      0x20\n        /* \"#utility.yul\":1869:1872   */\n      dup3\n        /* \"#utility.yul\":1865:1879   */\n      add\n        /* \"#utility.yul\":1857:1879   */\n      swap1\n      pop\n        /* \"#utility.yul\":1772:1885   */\n      swap2\n      swap1\n      pop\n      jump\t// out\n        /* \"#utility.yul\":1921:2653   */\n    tag_76:\n        /* \"#utility.yul\":2040:2043   */\n      0x00\n        /* \"#utility.yul\":2069:2123   */\n      tag_102\n        /* \"#utility.yul\":2117:2122   */\n      dup3\n        /* \"#utility.yul\":2069:2123   */\n      tag_70\n      jump\t// in\n    tag_102:\n        /* \"#utility.yul\":2139:2225   */\n      tag_103\n        /* \"#utility.yul\":2218:2224   */\n      dup2\n        /* \"#utility.yul\":2213:2216   */\n      dup6\n        /* \"#utility.yul\":2139:2225   */\n      tag_71\n      jump\t// in\n    tag_103:\n        /* \"#utility.yul\":2132:2225   */\n      swap4\n      pop\n        /* \"#utility.yul\":2249:2305   */\n      tag_104\n        /* \"#utility.yul\":2299:2304   */\n      dup4\n        /* \"#utility.yul\":2249:2305   */\n      tag_72\n      jump\t// in\n    tag_104:\n        /* \"#utility.yul\":2328:2335   */\n      dup1\n        /* \"#utility.yul\":2359:2360   */\n      0x00\n        /* \"#utility.yul\":2344:2628   */\n    tag_105:\n        /* \"#utility.yul\":2369:2375   */\n      dup4\n        /* \"#utility.yul\":2366:2367   */\n      dup2\n        /* \"#utility.yul\":2363:2376   */\n      lt\n        /* \"#utility.yul\":2344:2628   */\n      iszero\n      tag_107\n      jumpi\n        /* \"#utility.yul\":2445:2451   */\n      dup2\n        /* \"#utility.yul\":2439:2452   */\n      mload\n        /* \"#utility.yul\":2472:2535   */\n      tag_108\n        /* \"#utility.yul\":2531:2534   */\n      dup9\n        /* \"#utility.yul\":2516:2529   */\n      dup3\n        /* \"#utility.yul\":2472:2535   */\n      tag_74\n      jump\t// in\n    tag_108:\n        /* \"#utility.yul\":2465:2535   */\n      swap8\n      pop\n        /* \"#utility.yul\":2558:2618   */\n      tag_109\n        /* \"#utility.yul\":2611:2617   */\n      dup4\n        /* \"#utility.yul\":2558:2618   */\n      tag_75\n      jump\t// in\n    tag_109:\n        /* \"#utility.yul\":2548:2618   */\n      swap3\n      pop\n        /* \"#utility.yul\":2404:2628   */\n      pop\n        /* \"#utility.yul\":2391:2392   */\n      0x01\n        /* \"#utility.yul\":2388:2389   */\n      dup2\n        /* \"#utility.yul\":2384:2393   */\n      add\n        /* \"#utility.yul\":2379:2393   */\n      swap1\n      pop\n        /* \"#utility.yul\":2344:2628   */\n      jump(tag_105)\n    tag_107:\n        /* \"#utility.yul\":2348:2362   */\n      pop\n        /* \"#utility.yul\":2644:2647   */\n      dup6\n        /* \"#utility.yul\":2637:2647   */\n      swap4\n      pop\n        /* \"#utility.yul\":2045:2653   */\n      pop\n      pop\n      pop\n        /* \"#utility.yul\":1921:2653   */\n      swap3\n      swap2\n      pop\n      pop\n      jump\t// out\n        /* \"#utility.yul\":2659:3032   */\n    tag_18:\n        /* \"#utility.yul\":2802:2806   */\n      0x00\n        /* \"#utility.yul\":2840:2842   */\n      0x20\n        /* \"#utility.yul\":2829:2838   */\n      dup3\n        /* \"#utility.yul\":2825:2843   */\n      add\n        /* \"#utility.yul\":2817:2843   */\n      swap1\n      pop\n        /* \"#utility.yul\":2889:2898   */\n      dup2\n        /* \"#utility.yul\":2883:2887   */\n      dup2\n        /* \"#utility.yul\":2879:2899   */\n      sub\n        /* \"#utility.yul\":2875:2876   */\n      0x00\n        /* \"#utility.yul\":2864:2873   */\n      dup4\n        /* \"#utility.yul\":2860:2877   */\n      add\n        /* \"#utility.yul\":2853:2900   */\n      mstore\n        /* \"#utility.yul\":2917:3025   */\n      tag_111\n        /* \"#utility.yul\":3020:3024   */\n      dup2\n        /* \"#utility.yul\":3011:3017   */\n      dup5\n        /* \"#utility.yul\":2917:3025   */\n      tag_76\n      jump\t// in\n    tag_111:\n        /* \"#utility.yul\":2909:3025   */\n      swap1\n      pop\n        /* \"#utility.yul\":2659:3032   */\n      swap3\n      swap2\n      pop\n      pop\n      jump\t// out\n        /* \"#utility.yul\":3038:3512   */\n    tag_21:\n        /* \"#utility.yul\":3106:3112   */\n      0x00\n        /* \"#utility.yul\":3114:3120   */\n      dup1\n        /* \"#utility.yul\":3163:3165   */\n      0x40\n        /* \"#utility.yul\":3151:3160   */\n      dup4\n        /* \"#utility.yul\":3142:3149   */\n      dup6\n        /* \"#utility.yul\":3138:3161   */\n      sub\n        /* \"#utility.yul\":3134:3166   */\n      slt\n        /* \"#utility.yul\":3131:3250   */\n      iszero\n      tag_113\n      jumpi\n        /* \"#utility.yul\":3169:3248   */\n      tag_114\n      tag_65\n      jump\t// in\n    tag_114:\n        /* \"#utility.yul\":3131:3250   */\n    tag_113:\n        /* \"#utility.yul\":3289:3290   */\n      0x00\n        /* \"#utility.yul\":3314:3367   */\n      tag_115\n        /* \"#utility.yul\":3359:3366   */\n      dup6\n        /* \"#utility.yul\":3350:3356   */\n      dup3\n        /* \"#utility.yul\":3339:3348   */\n      dup7\n        /* \"#utility.yul\":3335:3357   */\n      add\n        /* \"#utility.yul\":3314:3367   */\n      tag_69\n      jump\t// in\n    tag_115:\n        /* \"#utility.yul\":3304:3367   */\n      swap3\n      pop\n        /* \"#utility.yul\":3260:3377   */\n      pop\n        /* \"#utility.yul\":3416:3418   */\n      0x20\n        /* \"#utility.yul\":3442:3495   */\n      tag_116\n        /* \"#utility.yul\":3487:3494   */\n      dup6\n        /* \"#utility.yul\":3478:3484   */\n      dup3\n        /* \"#utility.yul\":3467:3476   */\n      dup7\n        /* \"#utility.yul\":3463:3485   */\n      add\n        /* \"#utility.yul\":3442:3495   */\n      tag_69\n      jump\t// in\n    tag_116:\n        /* \"#utility.yul\":3432:3495   */\n      swap2\n      pop\n        /* \"#utility.yul\":3387:3505   */\n      pop\n        /* \"#utility.yul\":3038:3512   */\n      swap3\n      pop\n      swap3\n      swap1\n      pop\n      jump\t// out\n        /* \"#utility.yul\":3518:3636   */\n    tag_77:\n        /* \"#utility.yul\":3605:3629   */\n      tag_118\n        /* \"#utility.yul\":3623:3628   */\n      dup2\n        /* \"#utility.yul\":3605:3629   */\n      tag_67\n      jump\t// in\n    tag_118:\n        /* \"#utility.yul\":3600:3603   */\n      dup3\n        /* \"#utility.yul\":3593:3630   */\n      mstore\n        /* \"#utility.yul\":3518:3636   */\n      pop\n      pop\n      jump\t// out\n        /* \"#utility.yul\":3642:3864   */\n    tag_31:\n        /* \"#utility.yul\":3735:3739   */\n      0x00\n        /* \"#utility.yul\":3773:3775   */\n      0x20\n        /* \"#utility.yul\":3762:3771   */\n      dup3\n        /* \"#utility.yul\":3758:3776   */\n      add\n        /* \"#utility.yul\":3750:3776   */\n      swap1\n      pop\n        /* \"#utility.yul\":3786:3857   */\n      tag_120\n        /* \"#utility.yul\":3854:3855   */\n      0x00\n        /* \"#utility.yul\":3843:3852   */\n      dup4\n        /* \"#utility.yul\":3839:3856   */\n      add\n        /* \"#utility.yul\":3830:3836   */\n      dup5\n        /* \"#utility.yul\":3786:3857   */\n      tag_77\n      jump\t// in\n    tag_120:\n        /* \"#utility.yul\":3642:3864   */\n      swap3\n      swap2\n      pop\n      pop\n      jump\t// out\n        /* \"#utility.yul\":3870:4050   */\n    tag_78:\n        /* \"#utility.yul\":3918:3995   */\n      0x4e487b7100000000000000000000000000000000000000000000000000000000\n        /* \"#utility.yul\":3915:3916   */\n      0x00\n        /* \"#utility.yul\":3908:3996   */\n      mstore\n        /* \"#utility.yul\":4015:4019   */\n      0x11\n        /* \"#utility.yul\":4012:4013   */\n      0x04\n        /* \"#utility.yul\":4005:4020   */\n      mstore\n        /* \"#utility.yul\":4039:4043   */\n      0x24\n        /* \"#utility.yul\":4036:4037   */\n      0x00\n        /* \"#utility.yul\":4029:4044   */\n      revert\n        /* \"#utility.yul\":4056:4250   */\n    tag_38:\n        /* \"#utility.yul\":4096:4100   */\n      0x00\n        /* \"#utility.yul\":4116:4136   */\n      tag_123\n        /* \"#utility.yul\":4134:4135   */\n      dup3\n        /* \"#utility.yul\":4116:4136   */\n      tag_67\n      jump\t// in\n    tag_123:\n        /* \"#utility.yul\":4111:4136   */\n      swap2\n      pop\n        /* \"#utility.yul\":4150:4170   */\n      tag_124\n        /* \"#utility.yul\":4168:4169   */\n      dup4\n        /* \"#utility.yul\":4150:4170   */\n      tag_67\n      jump\t// in\n    tag_124:\n        /* \"#utility.yul\":4145:4170   */\n      swap3\n      pop\n        /* \"#utility.yul\":4194:4195   */\n      dup3\n        /* \"#utility.yul\":4191:4192   */\n      dup3\n        /* \"#utility.yul\":4187:4196   */\n      sub\n        /* \"#utility.yul\":4179:4196   */\n      swap1\n      pop\n        /* \"#utility.yul\":4218:4219   */\n      dup2\n        /* \"#utility.yul\":4212:4216   */\n      dup2\n        /* \"#utility.yul\":4209:4220   */\n      gt\n        /* \"#utility.yul\":4206:4243   */\n      iszero\n      tag_125\n      jumpi\n        /* \"#utility.yul\":4223:4241   */\n      tag_126\n      tag_78\n      jump\t// in\n    tag_126:\n        /* \"#utility.yul\":4206:4243   */\n    tag_125:\n        /* \"#utility.yul\":4056:4250   */\n      swap3\n      swap2\n      pop\n      pop\n      jump\t// out\n        /* \"#utility.yul\":4256:4436   */\n    tag_41:\n        /* \"#utility.yul\":4304:4381   */\n      0x4e487b7100000000000000000000000000000000000000000000000000000000\n        /* \"#utility.yul\":4301:4302   */\n      0x00\n        /* \"#utility.yul\":4294:4382   */\n      mstore\n        /* \"#utility.yul\":4401:4405   */\n      0x32\n        /* \"#utility.yul\":4398:4399   */\n      0x04\n        /* \"#utility.yul\":4391:4406   */\n      mstore\n        /* \"#utility.yul\":4425:4429   */\n      0x24\n        /* \"#utility.yul\":4422:4423   */\n      0x00\n        /* \"#utility.yul\":4415:4430   */\n      revert\n        /* \"#utility.yul\":4442:4622   */\n    tag_56:\n        /* \"#utility.yul\":4490:4567   */\n      0x4e487b7100000000000000000000000000000000000000000000000000000000\n        /* \"#utility.yul\":4487:4488   */\n      0x00\n        /* \"#utility.yul\":4480:4568   */\n      mstore\n        /* \"#utility.yul\":4587:4591   */\n      0x31\n        /* \"#utility.yul\":4584:4585   */\n      0x04\n        /* \"#utility.yul\":4577:4592   */\n      mstore\n        /* \"#utility.yul\":4611:4615   */\n      0x24\n        /* \"#utility.yul\":4608:4609   */\n      0x00\n        /* \"#utility.yul\":4601:4616   */\n      revert\n\n    auxdata: 0xa2646970667358221220ee4350a356013851223f61b9198e8d94c360497f1856eca702943bdfa3b0e0db64736f6c63430008120033\n}\n",
				"bytecode": {
					"linkReferences": {},
					"object": "608060405234801561001057600080fd5b50610546806100206000396000f3fe608060405234801561001057600080fd5b506004361061007d5760003560e01c8063959ac4841161005b578063959ac484146100d8578063a4ece52c146100f4578063be1c766b146100fe578063fc5636581461011c5761007d565b80633be22a6e146100825780633cac14c81461009e57806349b34170146100bc575b600080fd5b61009c600480360381019061009791906102d8565b61014c565b005b6100a661017d565b6040516100b391906103c3565b60405180910390f35b6100d660048036038101906100d191906103e5565b6101d5565b005b6100f260048036038101906100ed91906102d8565b610208565b005b6100fc610234565b005b61010661025e565b6040516101139190610434565b60405180910390f35b610136600480360381019061013191906102d8565b61026a565b6040516101439190610434565b60405180910390f35b600060018261015b919061047e565b8154811061016c5761016b6104b2565b5b906000526020600020016000905550565b606060008054806020026020016040519081016040528092919081815260200182805480156101cb57602002820191906000526020600020905b8154815260200190600101908083116101b7575b5050505050905090565b8060006001846101e5919061047e565b815481106101f6576101f56104b2565b5b90600052602060002001819055505050565b600081908060018154018082558091505060019003906000526020600020016000909190919091505550565b6000805480610246576102456104e1565b5b60019003818190600052602060002001600090559055565b60008080549050905090565b60008060018361027a919061047e565b8154811061028b5761028a6104b2565b5b90600052602060002001549050919050565b600080fd5b6000819050919050565b6102b5816102a2565b81146102c057600080fd5b50565b6000813590506102d2816102ac565b92915050565b6000602082840312156102ee576102ed61029d565b5b60006102fc848285016102c3565b91505092915050565b600081519050919050565b600082825260208201905092915050565b6000819050602082019050919050565b61033a816102a2565b82525050565b600061034c8383610331565b60208301905092915050565b6000602082019050919050565b600061037082610305565b61037a8185610310565b935061038583610321565b8060005b838110156103b657815161039d8882610340565b97506103a883610358565b925050600181019050610389565b5085935050505092915050565b600060208201905081810360008301526103dd8184610365565b905092915050565b600080604083850312156103fc576103fb61029d565b5b600061040a858286016102c3565b925050602061041b858286016102c3565b9150509250929050565b61042e816102a2565b82525050565b60006020820190506104496000830184610425565b92915050565b7f4e487b7100000000000000000000000000000000000000000000000000000000600052601160045260246000fd5b6000610489826102a2565b9150610494836102a2565b92508282039050818111156104ac576104ab61044f565b5b92915050565b7f4e487b7100000000000000000000000000000000000000000000000000000000600052603260045260246000fd5b7f4e487b7100000000000000000000000000000000000000000000000000000000600052603160045260246000fdfea2646970667358221220ee4350a356013851223f61b9198e8d94c360497f1856eca702943bdfa3b0e0db64736f6c63430008120033",
					"opcodes": "PUSH1 0x80 PUSH1 0x40 MSTORE CALLVALUE DUP1 ISZERO PUSH2 0x10 JUMPI PUSH1 0x0 DUP1 REVERT JUMPDEST POP PUSH2 0x546 DUP1 PUSH2 0x20 PUSH1 0x0 CODECOPY PUSH1 0x0 RETURN INVALID PUSH1 0x80 PUSH1 0x40 MSTORE CALLVALUE DUP1 ISZERO PUSH2 0x10 JUMPI PUSH1 0x0 DUP1 REVERT JUMPDEST POP PUSH1 0x4 CALLDATASIZE LT PUSH2 0x7D JUMPI PUSH1 0x0 CALLDATALOAD PUSH1 0xE0 SHR DUP1 PUSH4 0x959AC484 GT PUSH2 0x5B JUMPI DUP1 PUSH4 0x959AC484 EQ PUSH2 0xD8 JUMPI DUP1 PUSH4 0xA4ECE52C EQ PUSH2 0xF4 JUMPI DUP1 PUSH4 0xBE1C766B EQ PUSH2 0xFE JUMPI DUP1 PUSH4 0xFC563658 EQ PUSH2 0x11C JUMPI PUSH2 0x7D JUMP JUMPDEST DUP1 PUSH4 0x3BE22A6E EQ PUSH2 0x82 JUMPI DUP1 PUSH4 0x3CAC14C8 EQ PUSH2 0x9E JUMPI DUP1 PUSH4 0x49B34170 EQ PUSH2 0xBC JUMPI JUMPDEST PUSH1 0x0 DUP1 REVERT JUMPDEST PUSH2 0x9C PUSH1 0x4 DUP1 CALLDATASIZE SUB DUP2 ADD SWAP1 PUSH2 0x97 SWAP2 SWAP1 PUSH2 0x2D8 JUMP JUMPDEST PUSH2 0x14C JUMP JUMPDEST STOP JUMPDEST PUSH2 0xA6 PUSH2 0x17D JUMP JUMPDEST PUSH1 0x40 MLOAD PUSH2 0xB3 SWAP2 SWAP1 PUSH2 0x3C3 JUMP JUMPDEST PUSH1 0x40 MLOAD DUP1 SWAP2 SUB SWAP1 RETURN JUMPDEST PUSH2 0xD6 PUSH1 0x4 DUP1 CALLDATASIZE SUB DUP2 ADD SWAP1 PUSH2 0xD1 SWAP2 SWAP1 PUSH2 0x3E5 JUMP JUMPDEST PUSH2 0x1D5 JUMP JUMPDEST STOP JUMPDEST PUSH2 0xF2 PUSH1 0x4 DUP1 CALLDATASIZE SUB DUP2 ADD SWAP1 PUSH2 0xED SWAP2 SWAP1 PUSH2 0x2D8 JUMP JUMPDEST PUSH2 0x208 JUMP JUMPDEST STOP JUMPDEST PUSH2 0xFC PUSH2 0x234 JUMP JUMPDEST STOP JUMPDEST PUSH2 0x106 PUSH2 0x25E JUMP JUMPDEST PUSH1 0x40 MLOAD PUSH2 0x113 SWAP2 SWAP1 PUSH2 0x434 JUMP JUMPDEST PUSH1 0x40 MLOAD DUP1 SWAP2 SUB SWAP1 RETURN JUMPDEST PUSH2 0x136 PUSH1 0x4 DUP1 CALLDATASIZE SUB DUP2 ADD SWAP1 PUSH2 0x131 SWAP2 SWAP1 PUSH2 0x2D8 JUMP JUMPDEST PUSH2 0x26A JUMP JUMPDEST PUSH1 0x40 MLOAD PUSH2 0x143 SWAP2 SWAP1 PUSH2 0x434 JUMP JUMPDEST PUSH1 0x40 MLOAD DUP1 SWAP2 SUB SWAP1 RETURN JUMPDEST PUSH1 0x0 PUSH1 0x1 DUP3 PUSH2 0x15B SWAP2 SWAP1 PUSH2 0x47E JUMP JUMPDEST DUP2 SLOAD DUP2 LT PUSH2 0x16C JUMPI PUSH2 0x16B PUSH2 0x4B2 JUMP JUMPDEST JUMPDEST SWAP1 PUSH1 0x0 MSTORE PUSH1 0x20 PUSH1 0x0 KECCAK256 ADD PUSH1 0x0 SWAP1 SSTORE POP JUMP JUMPDEST PUSH1 0x60 PUSH1 0x0 DUP1 SLOAD DUP1 PUSH1 0x20 MUL PUSH1 0x20 ADD PUSH1 0x40 MLOAD SWAP1 DUP2 ADD PUSH1 0x40 MSTORE DUP1 SWAP3 SWAP2 SWAP1 DUP2 DUP2 MSTORE PUSH1 0x20 ADD DUP3 DUP1 SLOAD DUP1 ISZERO PUSH2 0x1CB JUMPI PUSH1 0x20 MUL DUP3 ADD SWAP2 SWAP1 PUSH1 0x0 MSTORE PUSH1 0x20 PUSH1 0x0 KECCAK256 SWAP1 JUMPDEST DUP2 SLOAD DUP2 MSTORE PUSH1 0x20 ADD SWAP1 PUSH1 0x1 ADD SWAP1 DUP1 DUP4 GT PUSH2 0x1B7 JUMPI JUMPDEST POP POP POP POP POP SWAP1 POP SWAP1 JUMP JUMPDEST DUP1 PUSH1 0x0 PUSH1 0x1 DUP5 PUSH2 0x1E5 SWAP2 SWAP1 PUSH2 0x47E JUMP JUMPDEST DUP2 SLOAD DUP2 LT PUSH2 0x1F6 JUMPI PUSH2 0x1F5 PUSH2 0x4B2 JUMP JUMPDEST JUMPDEST SWAP1 PUSH1 0x0 MSTORE PUSH1 0x20 PUSH1 0x0 KECCAK256 ADD DUP2 SWAP1 SSTORE POP POP POP JUMP JUMPDEST PUSH1 0x0 DUP2 SWAP1 DUP1 PUSH1 0x1 DUP2 SLOAD ADD DUP1 DUP3 SSTORE DUP1 SWAP2 POP POP PUSH1 0x1 SWAP1 SUB SWAP1 PUSH1 0x0 MSTORE PUSH1 0x20 PUSH1 0x0 KECCAK256 ADD PUSH1 0x0 SWAP1 SWAP2 SWAP1 SWAP2 SWAP1 SWAP2 POP SSTORE POP JUMP JUMPDEST PUSH1 0x0 DUP1 SLOAD DUP1 PUSH2 0x246 JUMPI PUSH2 0x245 PUSH2 0x4E1 JUMP JUMPDEST JUMPDEST PUSH1 0x1 SWAP1 SUB DUP2 DUP2 SWAP1 PUSH1 0x0 MSTORE PUSH1 0x20 PUSH1 0x0 KECCAK256 ADD PUSH1 0x0 SWAP1 SSTORE SWAP1 SSTORE JUMP JUMPDEST PUSH1 0x0 DUP1 DUP1 SLOAD SWAP1 POP SWAP1 POP SWAP1 JUMP JUMPDEST PUSH1 0x0 DUP1 PUSH1 0x1 DUP4 PUSH2 0x27A SWAP2 SWAP1 PUSH2 0x47E JUMP JUMPDEST DUP2 SLOAD DUP2 LT PUSH2 0x28B JUMPI PUSH2 0x28A PUSH2 0x4B2 JUMP JUMPDEST JUMPDEST SWAP1 PUSH1 0x0 MSTORE PUSH1 0x20 PUSH1 0x0 KECCAK256 ADD SLOAD SWAP1 POP SWAP2 SWAP1 POP JUMP JUMPDEST PUSH1 0x0 DUP1 REVERT JUMPDEST PUSH1 0x0 DUP2 SWAP1 POP SWAP2 SWAP1 POP JUMP JUMPDEST PUSH2 0x2B5 DUP2 PUSH2 0x2A2 JUMP JUMPDEST DUP2 EQ PUSH2 0x2C0 JUMPI PUSH1 0x0 DUP1 REVERT JUMPDEST POP JUMP JUMPDEST PUSH1 0x0 DUP2 CALLDATALOAD SWAP1 POP PUSH2 0x2D2 DUP2 PUSH2 0x2AC JUMP JUMPDEST SWAP3 SWAP2 POP POP JUMP JUMPDEST PUSH1 0x0 PUSH1 0x20 DUP3 DUP5 SUB SLT ISZERO PUSH2 0x2EE JUMPI PUSH2 0x2ED PUSH2 0x29D JUMP JUMPDEST JUMPDEST PUSH1 0x0 PUSH2 0x2FC DUP5 DUP3 DUP6 ADD PUSH2 0x2C3 JUMP JUMPDEST SWAP2 POP POP SWAP3 SWAP2 POP POP JUMP JUMPDEST PUSH1 0x0 DUP2 MLOAD SWAP1 POP SWAP2 SWAP1 POP JUMP JUMPDEST PUSH1 0x0 DUP3 DUP3 MSTORE PUSH1 0x20 DUP3 ADD SWAP1 POP SWAP3 SWAP2 POP POP JUMP JUMPDEST PUSH1 0x0 DUP2 SWAP1 POP PUSH1 0x20 DUP3 ADD SWAP1 POP SWAP2 SWAP1 POP JUMP JUMPDEST PUSH2 0x33A DUP2 PUSH2 0x2A2 JUMP JUMPDEST DUP3 MSTORE POP POP JUMP JUMPDEST PUSH1 0x0 PUSH2 0x34C DUP4 DUP4 PUSH2 0x331 JUMP JUMPDEST PUSH1 0x20 DUP4 ADD SWAP1 POP SWAP3 SWAP2 POP POP JUMP JUMPDEST PUSH1 0x0 PUSH1 0x20 DUP3 ADD SWAP1 POP SWAP2 SWAP1 POP JUMP JUMPDEST PUSH1 0x0 PUSH2 0x370 DUP3 PUSH2 0x305 JUMP JUMPDEST PUSH2 0x37A DUP2 DUP6 PUSH2 0x310 JUMP JUMPDEST SWAP4 POP PUSH2 0x385 DUP4 PUSH2 0x321 JUMP JUMPDEST DUP1 PUSH1 0x0 JUMPDEST DUP4 DUP2 LT ISZERO PUSH2 0x3B6 JUMPI DUP2 MLOAD PUSH2 0x39D DUP9 DUP3 PUSH2 0x340 JUMP JUMPDEST SWAP8 POP PUSH2 0x3A8 DUP4 PUSH2 0x358 JUMP JUMPDEST SWAP3 POP POP PUSH1 0x1 DUP2 ADD SWAP1 POP PUSH2 0x389 JUMP JUMPDEST POP DUP6 SWAP4 POP POP POP POP SWAP3 SWAP2 POP POP JUMP JUMPDEST PUSH1 0x0 PUSH1 0x20 DUP3 ADD SWAP1 POP DUP2 DUP2 SUB PUSH1 0x0 DUP4 ADD MSTORE PUSH2 0x3DD DUP2 DUP5 PUSH2 0x365 JUMP JUMPDEST SWAP1 POP SWAP3 SWAP2 POP POP JUMP JUMPDEST PUSH1 0x0 DUP1 PUSH1 0x40 DUP4 DUP6 SUB SLT ISZERO PUSH2 0x3FC JUMPI PUSH2 0x3FB PUSH2 0x29D JUMP JUMPDEST JUMPDEST PUSH1 0x0 PUSH2 0x40A DUP6 DUP3 DUP7 ADD PUSH2 0x2C3 JUMP JUMPDEST SWAP3 POP POP PUSH1 0x20 PUSH2 0x41B DUP6 DUP3 DUP7 ADD PUSH2 0x2C3 JUMP JUMPDEST SWAP2 POP POP SWAP3 POP SWAP3 SWAP1 POP JUMP JUMPDEST PUSH2 0x42E DUP2 PUSH2 0x2A2 JUMP JUMPDEST DUP3 MSTORE POP POP JUMP JUMPDEST PUSH1 0x0 PUSH1 0x20 DUP3 ADD SWAP1 POP PUSH2 0x449 PUSH1 0x0 DUP4 ADD DUP5 PUSH2 0x425 JUMP JUMPDEST SWAP3 SWAP2 POP POP JUMP JUMPDEST PUSH32 0x4E487B7100000000000000000000000000000000000000000000000000000000 PUSH1 0x0 MSTORE PUSH1 0x11 PUSH1 0x4 MSTORE PUSH1 0x24 PUSH1 0x0 REVERT JUMPDEST PUSH1 0x0 PUSH2 0x489 DUP3 PUSH2 0x2A2 JUMP JUMPDEST SWAP2 POP PUSH2 0x494 DUP4 PUSH2 0x2A2 JUMP JUMPDEST SWAP3 POP DUP3 DUP3 SUB SWAP1 POP DUP2 DUP2 GT ISZERO PUSH2 0x4AC JUMPI PUSH2 0x4AB PUSH2 0x44F JUMP JUMPDEST JUMPDEST SWAP3 SWAP2 POP POP JUMP JUMPDEST PUSH32 0x4E487B7100000000000000000000000000000000000000000000000000000000 PUSH1 0x0 MSTORE PUSH1 0x32 PUSH1 0x4 MSTORE PUSH1 0x24 PUSH1 0x0 REVERT JUMPDEST PUSH32 0x4E487B7100000000000000000000000000000000000000000000000000000000 PUSH1 0x0 MSTORE PUSH1 0x31 PUSH1 0x4 MSTORE PUSH1 0x24 PUSH1 0x0 REVERT INVALID LOG2 PUSH5 0x6970667358 0x22 SLT KECCAK256 0xEE NUMBER POP LOG3 JUMP ADD CODESIZE MLOAD 0x22 EXTCODEHASH PUSH2 0xB919 DUP15 DUP14 SWAP5 0xC3 PUSH1 0x49 PUSH32 0x1856ECA702943BDFA3B0E0DB64736F6C63430008120033000000000000000000 "
				},
				"gasEstimates": {
					"creation": {
						"codeDepositCost": "270000",
						"executionCost": "312",
						"totalCost": "270312"
					},
					"external": {
						"changeNum(uint256,uint256)": "infinite",
						"deleteNum(uint256)": "infinite",
						"getLength()": "2489",
						"getNumber(uint256)": "infinite",
						"pop()": "29467",
						"push(uint256)": "46829",
						"returnArray()": "infinite"
					}
				},
				"methodIdentifiers": {
					"changeNum(uint256,uint256)": "49b34170",
					"deleteNum(uint256)": "3be22a6e",
					"getLength()": "be1c766b",
					"getNumber(uint256)": "fc563658",
					"pop()": "a4ece52c",
					"push(uint256)": "959ac484",
					"returnArray()": "3cac14c8"
				}
			},
			"storageLayout": {
				"storage": [
					{
						"astId": 4,
						"contract": "contracts/230504_3.sol:Array",
						"label": "numbers",
						"offset": 0,
						"slot": "0",
						"type": "t_array(t_uint256)dyn_storage"
					}
				],
				"types": {
					"t_array(t_uint256)dyn_storage": {
						"base": "t_uint256",
						"encoding": "dynamic_array",
						"label": "uint256[]",
						"numberOfBytes": "32"
					},
					"t_uint256": {
						"encoding": "inplace",
						"label": "uint256",
						"numberOfBytes": "32"
					}
				}
			},
			"userdoc": {
				"kind": "user",
				"methods": {},
				"version": 1
			}
		}
	}
}