{
	"contracts/230504_3.sol": {
		"Array_s": {
			"abi": [
				{
					"inputs": [
						{
							"internalType": "uint256",
							"name": "_k",
							"type": "uint256"
						},
						{
							"internalType": "string",
							"name": "_z",
							"type": "string"
						}
					],
					"name": "changeLet",
					"outputs": [],
					"stateMutability": "nonpayable",
					"type": "function"
				},
				{
					"inputs": [
						{
							"internalType": "uint256",
							"name": "_n",
							"type": "uint256"
						}
					],
					"name": "deleteLet",
					"outputs": [],
					"stateMutability": "nonpayable",
					"type": "function"
				},
				{
					"inputs": [],
					"name": "getLength",
					"outputs": [
						{
							"internalType": "uint256",
							"name": "",
							"type": "uint256"
						}
					],
					"stateMutability": "view",
					"type": "function"
				},
				{
					"inputs": [
						{
							"internalType": "uint256",
							"name": "_n",
							"type": "uint256"
						}
					],
					"name": "getLetter",
					"outputs": [
						{
							"internalType": "string",
							"name": "",
							"type": "string"
						}
					],
					"stateMutability": "view",
					"type": "function"
				},
				{
					"inputs": [],
					"name": "pop",
					"outputs": [],
					"stateMutability": "nonpayable",
					"type": "function"
				},
				{
					"inputs": [
						{
							"internalType": "string",
							"name": "_a",
							"type": "string"
						}
					],
					"name": "push",
					"outputs": [],
					"stateMutability": "nonpayable",
					"type": "function"
				},
				{
					"inputs": [],
					"name": "returnArray",
					"outputs": [
						{
							"internalType": "string[]",
							"name": "",
							"type": "string[]"
						}
					],
					"stateMutability": "view",
					"type": "function"
				}
			],
			"devdoc": {
				"kind": "dev",
				"methods": {},
				"version": 1
			},
			"evm": {
				"assembly": "    /* \"contracts/230504_3.sol\":1580:2695  contract Array_s {... */\n  mstore(0x40, 0x80)\n  callvalue\n  dup1\n  iszero\n  tag_1\n  jumpi\n  0x00\n  dup1\n  revert\ntag_1:\n  pop\n  dataSize(sub_0)\n  dup1\n  dataOffset(sub_0)\n  0x00\n  codecopy\n  0x00\n  return\nstop\n\nsub_0: assembly {\n        /* \"contracts/230504_3.sol\":1580:2695  contract Array_s {... */\n      mstore(0x40, 0x80)\n      callvalue\n      dup1\n      iszero\n      tag_1\n      jumpi\n      0x00\n      dup1\n      revert\n    tag_1:\n      pop\n      jumpi(tag_2, lt(calldatasize, 0x04))\n      shr(0xe0, calldataload(0x00))\n      dup1\n      0x96e583a9\n      gt\n      tag_10\n      jumpi\n      dup1\n      0x96e583a9\n      eq\n      tag_6\n      jumpi\n      dup1\n      0xa4da2ffb\n      eq\n      tag_7\n      jumpi\n      dup1\n      0xa4ece52c\n      eq\n      tag_8\n      jumpi\n      dup1\n      0xbe1c766b\n      eq\n      tag_9\n      jumpi\n      jump(tag_2)\n    tag_10:\n      dup1\n      0x3cac14c8\n      eq\n      tag_3\n      jumpi\n      dup1\n      0x4765c137\n      eq\n      tag_4\n      jumpi\n      dup1\n      0x4f3d057a\n      eq\n      tag_5\n      jumpi\n    tag_2:\n      0x00\n      dup1\n      revert\n        /* \"contracts/230504_3.sol\":2602:2693  function returnArray() public view returns(string[] memory) {... */\n    tag_3:\n      tag_11\n      tag_12\n      jump\t// in\n    tag_11:\n      mload(0x40)\n      tag_13\n      swap2\n      swap1\n      tag_14\n      jump\t// in\n    tag_13:\n      mload(0x40)\n      dup1\n      swap2\n      sub\n      swap1\n      return\n        /* \"contracts/230504_3.sol\":2261:2407  function changeLet(uint _k, string memory _z) public {... */\n    tag_4:\n      tag_15\n      0x04\n      dup1\n      calldatasize\n      sub\n      dup2\n      add\n      swap1\n      tag_16\n      swap2\n      swap1\n      tag_17\n      jump\t// in\n    tag_16:\n      tag_18\n      jump\t// in\n    tag_15:\n      stop\n        /* \"contracts/230504_3.sol\":1730:1831  function push(string memory _a) public {... */\n    tag_5:\n      tag_19\n      0x04\n      dup1\n      calldatasize\n      sub\n      dup2\n      add\n      swap1\n      tag_20\n      swap2\n      swap1\n      tag_21\n      jump\t// in\n    tag_20:\n      tag_22\n      jump\t// in\n    tag_19:\n      stop\n        /* \"contracts/230504_3.sol\":1979:2105  function getLetter(uint _n) public view returns(string memory) {... */\n    tag_6:\n      tag_23\n      0x04\n      dup1\n      calldatasize\n      sub\n      dup2\n      add\n      swap1\n      tag_24\n      swap2\n      swap1\n      tag_25\n      jump\t// in\n    tag_24:\n      tag_26\n      jump\t// in\n    tag_23:\n      mload(0x40)\n      tag_27\n      swap2\n      swap1\n      tag_28\n      jump\t// in\n    tag_27:\n      mload(0x40)\n      dup1\n      swap2\n      sub\n      swap1\n      return\n        /* \"contracts/230504_3.sol\":2431:2567  function deleteLet(uint _n) public {... */\n    tag_7:\n      tag_29\n      0x04\n      dup1\n      calldatasize\n      sub\n      dup2\n      add\n      swap1\n      tag_30\n      swap2\n      swap1\n      tag_25\n      jump\t// in\n    tag_30:\n      tag_31\n      jump\t// in\n    tag_29:\n      stop\n        /* \"contracts/230504_3.sol\":1854:1956  function pop() public {... */\n    tag_8:\n      tag_32\n      tag_33\n      jump\t// in\n    tag_32:\n      stop\n        /* \"contracts/230504_3.sol\":2128:2235  function getLength() public view returns(uint) {... */\n    tag_9:\n      tag_34\n      tag_35\n      jump\t// in\n    tag_34:\n      mload(0x40)\n      tag_36\n      swap2\n      swap1\n      tag_37\n      jump\t// in\n    tag_36:\n      mload(0x40)\n      dup1\n      swap2\n      sub\n      swap1\n      return\n        /* \"contracts/230504_3.sol\":2602:2693  function returnArray() public view returns(string[] memory) {... */\n    tag_12:\n        /* \"contracts/230504_3.sol\":2645:2660  string[] memory */\n      0x60\n        /* \"contracts/230504_3.sol\":2679:2686  letters */\n      0x00\n        /* \"contracts/230504_3.sol\":2672:2686  return letters */\n      dup1\n      sload\n      dup1\n      0x20\n      mul\n      0x20\n      add\n      mload(0x40)\n      swap1\n      dup2\n      add\n      0x40\n      mstore\n      dup1\n      swap3\n      swap2\n      swap1\n      dup2\n      dup2\n      mstore\n      0x20\n      add\n      0x00\n      swap1\n    tag_39:\n      dup3\n      dup3\n      lt\n      iszero\n      tag_40\n      jumpi\n      dup4\n      dup3\n      swap1\n      0x00\n      mstore\n      keccak256(0x00, 0x20)\n      add\n      dup1\n      sload\n      tag_42\n      swap1\n      tag_43\n      jump\t// in\n    tag_42:\n      dup1\n      0x1f\n      add\n      0x20\n      dup1\n      swap2\n      div\n      mul\n      0x20\n      add\n      mload(0x40)\n      swap1\n      dup2\n      add\n      0x40\n      mstore\n      dup1\n      swap3\n      swap2\n      swap1\n      dup2\n      dup2\n      mstore\n      0x20\n      add\n      dup3\n      dup1\n      sload\n      tag_44\n      swap1\n      tag_43\n      jump\t// in\n    tag_44:\n      dup1\n      iszero\n      tag_45\n      jumpi\n      dup1\n      0x1f\n      lt\n      tag_46\n      jumpi\n      0x0100\n      dup1\n      dup4\n      sload\n      div\n      mul\n      dup4\n      mstore\n      swap2\n      0x20\n      add\n      swap2\n      jump(tag_45)\n    tag_46:\n      dup3\n      add\n      swap2\n      swap1\n      0x00\n      mstore\n      keccak256(0x00, 0x20)\n      swap1\n    tag_47:\n      dup2\n      sload\n      dup2\n      mstore\n      swap1\n      0x01\n      add\n      swap1\n      0x20\n      add\n      dup1\n      dup4\n      gt\n      tag_47\n      jumpi\n      dup3\n      swap1\n      sub\n      0x1f\n      and\n      dup3\n      add\n      swap2\n    tag_45:\n      pop\n      pop\n      pop\n      pop\n      pop\n      dup2\n      mstore\n      0x20\n      add\n      swap1\n      0x01\n      add\n      swap1\n      jump(tag_39)\n    tag_40:\n      pop\n      pop\n      pop\n      pop\n      swap1\n      pop\n        /* \"contracts/230504_3.sol\":2602:2693  function returnArray() public view returns(string[] memory) {... */\n      swap1\n      jump\t// out\n        /* \"contracts/230504_3.sol\":2261:2407  function changeLet(uint _k, string memory _z) public {... */\n    tag_18:\n        /* \"contracts/230504_3.sol\":2340:2342  _z */\n      dup1\n        /* \"contracts/230504_3.sol\":2324:2331  letters */\n      0x00\n        /* \"contracts/230504_3.sol\":2335:2336  1 */\n      0x01\n        /* \"contracts/230504_3.sol\":2332:2334  _k */\n      dup5\n        /* \"contracts/230504_3.sol\":2332:2336  _k-1 */\n      tag_49\n      swap2\n      swap1\n      tag_50\n      jump\t// in\n    tag_49:\n        /* \"contracts/230504_3.sol\":2324:2337  letters[_k-1] */\n      dup2\n      sload\n      dup2\n      lt\n      tag_51\n      jumpi\n      tag_52\n      tag_53\n      jump\t// in\n    tag_52:\n    tag_51:\n      swap1\n      0x00\n      mstore\n      keccak256(0x00, 0x20)\n      add\n        /* \"contracts/230504_3.sol\":2324:2342  letters[_k-1] = _z */\n      swap1\n      dup2\n      tag_55\n      swap2\n      swap1\n      tag_56\n      jump\t// in\n    tag_55:\n      pop\n        /* \"contracts/230504_3.sol\":2261:2407  function changeLet(uint _k, string memory _z) public {... */\n      pop\n      pop\n      jump\t// out\n        /* \"contracts/230504_3.sol\":1730:1831  function push(string memory _a) public {... */\n    tag_22:\n        /* \"contracts/230504_3.sol\":1779:1786  letters */\n      0x00\n        /* \"contracts/230504_3.sol\":1792:1794  _a */\n      dup2\n        /* \"contracts/230504_3.sol\":1779:1795  letters.push(_a) */\n      swap1\n      dup1\n      0x01\n      dup2\n      sload\n      add\n      dup1\n      dup3\n      sstore\n      dup1\n      swap2\n      pop\n      pop\n      0x01\n      swap1\n      sub\n      swap1\n      0x00\n      mstore\n      keccak256(0x00, 0x20)\n      add\n      0x00\n      swap1\n      swap2\n      swap1\n      swap2\n      swap1\n      swap2\n      pop\n      swap1\n      dup2\n      tag_59\n      swap2\n      swap1\n      tag_56\n      jump\t// in\n    tag_59:\n      pop\n        /* \"contracts/230504_3.sol\":1730:1831  function push(string memory _a) public {... */\n      pop\n      jump\t// out\n        /* \"contracts/230504_3.sol\":1979:2105  function getLetter(uint _n) public view returns(string memory) {... */\n    tag_26:\n        /* \"contracts/230504_3.sol\":2027:2040  string memory */\n      0x60\n        /* \"contracts/230504_3.sol\":2059:2066  letters */\n      0x00\n        /* \"contracts/230504_3.sol\":2070:2071  1 */\n      0x01\n        /* \"contracts/230504_3.sol\":2067:2069  _n */\n      dup4\n        /* \"contracts/230504_3.sol\":2067:2071  _n-1 */\n      tag_61\n      swap2\n      swap1\n      tag_50\n      jump\t// in\n    tag_61:\n        /* \"contracts/230504_3.sol\":2059:2072  letters[_n-1] */\n      dup2\n      sload\n      dup2\n      lt\n      tag_62\n      jumpi\n      tag_63\n      tag_53\n      jump\t// in\n    tag_63:\n    tag_62:\n      swap1\n      0x00\n      mstore\n      keccak256(0x00, 0x20)\n      add\n        /* \"contracts/230504_3.sol\":2052:2072  return letters[_n-1] */\n      dup1\n      sload\n      tag_65\n      swap1\n      tag_43\n      jump\t// in\n    tag_65:\n      dup1\n      0x1f\n      add\n      0x20\n      dup1\n      swap2\n      div\n      mul\n      0x20\n      add\n      mload(0x40)\n      swap1\n      dup2\n      add\n      0x40\n      mstore\n      dup1\n      swap3\n      swap2\n      swap1\n      dup2\n      dup2\n      mstore\n      0x20\n      add\n      dup3\n      dup1\n      sload\n      tag_66\n      swap1\n      tag_43\n      jump\t// in\n    tag_66:\n      dup1\n      iszero\n      tag_67\n      jumpi\n      dup1\n      0x1f\n      lt\n      tag_68\n      jumpi\n      0x0100\n      dup1\n      dup4\n      sload\n      div\n      mul\n      dup4\n      mstore\n      swap2\n      0x20\n      add\n      swap2\n      jump(tag_67)\n    tag_68:\n      dup3\n      add\n      swap2\n      swap1\n      0x00\n      mstore\n      keccak256(0x00, 0x20)\n      swap1\n    tag_69:\n      dup2\n      sload\n      dup2\n      mstore\n      swap1\n      0x01\n      add\n      swap1\n      0x20\n      add\n      dup1\n      dup4\n      gt\n      tag_69\n      jumpi\n      dup3\n      swap1\n      sub\n      0x1f\n      and\n      dup3\n      add\n      swap2\n    tag_67:\n      pop\n      pop\n      pop\n      pop\n      pop\n      swap1\n      pop\n        /* \"contracts/230504_3.sol\":1979:2105  function getLetter(uint _n) public view returns(string memory) {... */\n      swap2\n      swap1\n      pop\n      jump\t// out\n        /* \"contracts/230504_3.sol\":2431:2567  function deleteLet(uint _n) public {... */\n    tag_31:\n        /* \"contracts/230504_3.sol\":2483:2490  letters */\n      0x00\n        /* \"contracts/230504_3.sol\":2494:2495  1 */\n      0x01\n        /* \"contracts/230504_3.sol\":2491:2493  _n */\n      dup3\n        /* \"contracts/230504_3.sol\":2491:2495  _n-1 */\n      tag_71\n      swap2\n      swap1\n      tag_50\n      jump\t// in\n    tag_71:\n        /* \"contracts/230504_3.sol\":2483:2496  letters[_n-1] */\n      dup2\n      sload\n      dup2\n      lt\n      tag_72\n      jumpi\n      tag_73\n      tag_53\n      jump\t// in\n    tag_73:\n    tag_72:\n      swap1\n      0x00\n      mstore\n      keccak256(0x00, 0x20)\n      add\n      0x00\n        /* \"contracts/230504_3.sol\":2476:2496  delete letters[_n-1] */\n      tag_75\n      swap2\n      swap1\n      tag_76\n      jump\t// in\n    tag_75:\n        /* \"contracts/230504_3.sol\":2431:2567  function deleteLet(uint _n) public {... */\n      pop\n      jump\t// out\n        /* \"contracts/230504_3.sol\":1854:1956  function pop() public {... */\n    tag_33:\n        /* \"contracts/230504_3.sol\":1886:1893  letters */\n      0x00\n        /* \"contracts/230504_3.sol\":1886:1899  letters.pop() */\n      dup1\n      sload\n      dup1\n      tag_78\n      jumpi\n      tag_79\n      tag_80\n      jump\t// in\n    tag_79:\n    tag_78:\n      0x01\n      swap1\n      sub\n      dup2\n      dup2\n      swap1\n      0x00\n      mstore\n      keccak256(0x00, 0x20)\n      add\n      0x00\n      tag_82\n      swap2\n      swap1\n      tag_76\n      jump\t// in\n    tag_82:\n      swap1\n      sstore\n        /* \"contracts/230504_3.sol\":1854:1956  function pop() public {... */\n      jump\t// out\n        /* \"contracts/230504_3.sol\":2128:2235  function getLength() public view returns(uint) {... */\n    tag_35:\n        /* \"contracts/230504_3.sol\":2169:2173  uint */\n      0x00\n        /* \"contracts/230504_3.sol\":2192:2199  letters */\n      dup1\n        /* \"contracts/230504_3.sol\":2192:2206  letters.length */\n      dup1\n      sload\n      swap1\n      pop\n        /* \"contracts/230504_3.sol\":2185:2206  return letters.length */\n      swap1\n      pop\n        /* \"contracts/230504_3.sol\":2128:2235  function getLength() public view returns(uint) {... */\n      swap1\n      jump\t// out\n    tag_76:\n      pop\n      dup1\n      sload\n      tag_84\n      swap1\n      tag_43\n      jump\t// in\n    tag_84:\n      0x00\n      dup3\n      sstore\n      dup1\n      0x1f\n      lt\n      tag_86\n      jumpi\n      pop\n      jump(tag_85)\n    tag_86:\n      0x1f\n      add\n      0x20\n      swap1\n      div\n      swap1\n      0x00\n      mstore\n      keccak256(0x00, 0x20)\n      swap1\n      dup2\n      add\n      swap1\n      tag_87\n      swap2\n      swap1\n      tag_88\n      jump\t// in\n    tag_87:\n    tag_85:\n      pop\n      jump\t// out\n    tag_88:\n    tag_89:\n      dup1\n      dup3\n      gt\n      iszero\n      tag_90\n      jumpi\n      0x00\n      dup2\n      0x00\n      swap1\n      sstore\n      pop\n      0x01\n      add\n      jump(tag_89)\n    tag_90:\n      pop\n      swap1\n      jump\t// out\n        /* \"#utility.yul\":7:131   */\n    tag_91:\n        /* \"#utility.yul\":84:90   */\n      0x00\n        /* \"#utility.yul\":118:123   */\n      dup2\n        /* \"#utility.yul\":112:124   */\n      mload\n        /* \"#utility.yul\":102:124   */\n      swap1\n      pop\n        /* \"#utility.yul\":7:131   */\n      swap2\n      swap1\n      pop\n      jump\t// out\n        /* \"#utility.yul\":137:331   */\n    tag_92:\n        /* \"#utility.yul\":246:257   */\n      0x00\n        /* \"#utility.yul\":280:286   */\n      dup3\n        /* \"#utility.yul\":275:278   */\n      dup3\n        /* \"#utility.yul\":268:287   */\n      mstore\n        /* \"#utility.yul\":320:324   */\n      0x20\n        /* \"#utility.yul\":315:318   */\n      dup3\n        /* \"#utility.yul\":311:325   */\n      add\n        /* \"#utility.yul\":296:325   */\n      swap1\n      pop\n        /* \"#utility.yul\":137:331   */\n      swap3\n      swap2\n      pop\n      pop\n      jump\t// out\n        /* \"#utility.yul\":337:479   */\n    tag_93:\n        /* \"#utility.yul\":414:418   */\n      0x00\n        /* \"#utility.yul\":437:440   */\n      dup2\n        /* \"#utility.yul\":429:440   */\n      swap1\n      pop\n        /* \"#utility.yul\":467:471   */\n      0x20\n        /* \"#utility.yul\":462:465   */\n      dup3\n        /* \"#utility.yul\":458:472   */\n      add\n        /* \"#utility.yul\":450:472   */\n      swap1\n      pop\n        /* \"#utility.yul\":337:479   */\n      swap2\n      swap1\n      pop\n      jump\t// out\n        /* \"#utility.yul\":485:584   */\n    tag_94:\n        /* \"#utility.yul\":537:543   */\n      0x00\n        /* \"#utility.yul\":571:576   */\n      dup2\n        /* \"#utility.yul\":565:577   */\n      mload\n        /* \"#utility.yul\":555:577   */\n      swap1\n      pop\n        /* \"#utility.yul\":485:584   */\n      swap2\n      swap1\n      pop\n      jump\t// out\n        /* \"#utility.yul\":590:749   */\n    tag_95:\n        /* \"#utility.yul\":664:675   */\n      0x00\n        /* \"#utility.yul\":698:704   */\n      dup3\n        /* \"#utility.yul\":693:696   */\n      dup3\n        /* \"#utility.yul\":686:705   */\n      mstore\n        /* \"#utility.yul\":738:742   */\n      0x20\n        /* \"#utility.yul\":733:736   */\n      dup3\n        /* \"#utility.yul\":729:743   */\n      add\n        /* \"#utility.yul\":714:743   */\n      swap1\n      pop\n        /* \"#utility.yul\":590:749   */\n      swap3\n      swap2\n      pop\n      pop\n      jump\t// out\n        /* \"#utility.yul\":755:1001   */\n    tag_96:\n        /* \"#utility.yul\":836:837   */\n      0x00\n        /* \"#utility.yul\":846:959   */\n    tag_144:\n        /* \"#utility.yul\":860:866   */\n      dup4\n        /* \"#utility.yul\":857:858   */\n      dup2\n        /* \"#utility.yul\":854:867   */\n      lt\n        /* \"#utility.yul\":846:959   */\n      iszero\n      tag_146\n      jumpi\n        /* \"#utility.yul\":945:946   */\n      dup1\n        /* \"#utility.yul\":940:943   */\n      dup3\n        /* \"#utility.yul\":936:947   */\n      add\n        /* \"#utility.yul\":930:948   */\n      mload\n        /* \"#utility.yul\":926:927   */\n      dup2\n        /* \"#utility.yul\":921:924   */\n      dup5\n        /* \"#utility.yul\":917:928   */\n      add\n        /* \"#utility.yul\":910:949   */\n      mstore\n        /* \"#utility.yul\":882:884   */\n      0x20\n        /* \"#utility.yul\":879:880   */\n      dup2\n        /* \"#utility.yul\":875:885   */\n      add\n        /* \"#utility.yul\":870:885   */\n      swap1\n      pop\n        /* \"#utility.yul\":846:959   */\n      jump(tag_144)\n    tag_146:\n        /* \"#utility.yul\":993:994   */\n      0x00\n        /* \"#utility.yul\":984:990   */\n      dup5\n        /* \"#utility.yul\":979:982   */\n      dup5\n        /* \"#utility.yul\":975:991   */\n      add\n        /* \"#utility.yul\":968:995   */\n      mstore\n        /* \"#utility.yul\":817:1001   */\n      pop\n        /* \"#utility.yul\":755:1001   */\n      pop\n      pop\n      pop\n      jump\t// out\n        /* \"#utility.yul\":1007:1109   */\n    tag_97:\n        /* \"#utility.yul\":1048:1054   */\n      0x00\n        /* \"#utility.yul\":1099:1101   */\n      0x1f\n        /* \"#utility.yul\":1095:1102   */\n      not\n        /* \"#utility.yul\":1090:1092   */\n      0x1f\n        /* \"#utility.yul\":1083:1088   */\n      dup4\n        /* \"#utility.yul\":1079:1093   */\n      add\n        /* \"#utility.yul\":1075:1103   */\n      and\n        /* \"#utility.yul\":1065:1103   */\n      swap1\n      pop\n        /* \"#utility.yul\":1007:1109   */\n      swap2\n      swap1\n      pop\n      jump\t// out\n        /* \"#utility.yul\":1115:1472   */\n    tag_98:\n        /* \"#utility.yul\":1193:1196   */\n      0x00\n        /* \"#utility.yul\":1221:1260   */\n      tag_149\n        /* \"#utility.yul\":1254:1259   */\n      dup3\n        /* \"#utility.yul\":1221:1260   */\n      tag_94\n      jump\t// in\n    tag_149:\n        /* \"#utility.yul\":1276:1337   */\n      tag_150\n        /* \"#utility.yul\":1330:1336   */\n      dup2\n        /* \"#utility.yul\":1325:1328   */\n      dup6\n        /* \"#utility.yul\":1276:1337   */\n      tag_95\n      jump\t// in\n    tag_150:\n        /* \"#utility.yul\":1269:1337   */\n      swap4\n      pop\n        /* \"#utility.yul\":1346:1411   */\n      tag_151\n        /* \"#utility.yul\":1404:1410   */\n      dup2\n        /* \"#utility.yul\":1399:1402   */\n      dup6\n        /* \"#utility.yul\":1392:1396   */\n      0x20\n        /* \"#utility.yul\":1385:1390   */\n      dup7\n        /* \"#utility.yul\":1381:1397   */\n      add\n        /* \"#utility.yul\":1346:1411   */\n      tag_96\n      jump\t// in\n    tag_151:\n        /* \"#utility.yul\":1436:1465   */\n      tag_152\n        /* \"#utility.yul\":1458:1464   */\n      dup2\n        /* \"#utility.yul\":1436:1465   */\n      tag_97\n      jump\t// in\n    tag_152:\n        /* \"#utility.yul\":1431:1434   */\n      dup5\n        /* \"#utility.yul\":1427:1466   */\n      add\n        /* \"#utility.yul\":1420:1466   */\n      swap2\n      pop\n        /* \"#utility.yul\":1197:1472   */\n      pop\n        /* \"#utility.yul\":1115:1472   */\n      swap3\n      swap2\n      pop\n      pop\n      jump\t// out\n        /* \"#utility.yul\":1478:1674   */\n    tag_99:\n        /* \"#utility.yul\":1567:1577   */\n      0x00\n        /* \"#utility.yul\":1602:1668   */\n      tag_154\n        /* \"#utility.yul\":1664:1667   */\n      dup4\n        /* \"#utility.yul\":1656:1662   */\n      dup4\n        /* \"#utility.yul\":1602:1668   */\n      tag_98\n      jump\t// in\n    tag_154:\n        /* \"#utility.yul\":1588:1668   */\n      swap1\n      pop\n        /* \"#utility.yul\":1478:1674   */\n      swap3\n      swap2\n      pop\n      pop\n      jump\t// out\n        /* \"#utility.yul\":1680:1803   */\n    tag_100:\n        /* \"#utility.yul\":1760:1764   */\n      0x00\n        /* \"#utility.yul\":1792:1796   */\n      0x20\n        /* \"#utility.yul\":1787:1790   */\n      dup3\n        /* \"#utility.yul\":1783:1797   */\n      add\n        /* \"#utility.yul\":1775:1797   */\n      swap1\n      pop\n        /* \"#utility.yul\":1680:1803   */\n      swap2\n      swap1\n      pop\n      jump\t// out\n        /* \"#utility.yul\":1837:2828   */\n    tag_101:\n        /* \"#utility.yul\":1976:1979   */\n      0x00\n        /* \"#utility.yul\":2005:2069   */\n      tag_157\n        /* \"#utility.yul\":2063:2068   */\n      dup3\n        /* \"#utility.yul\":2005:2069   */\n      tag_91\n      jump\t// in\n    tag_157:\n        /* \"#utility.yul\":2085:2181   */\n      tag_158\n        /* \"#utility.yul\":2174:2180   */\n      dup2\n        /* \"#utility.yul\":2169:2172   */\n      dup6\n        /* \"#utility.yul\":2085:2181   */\n      tag_92\n      jump\t// in\n    tag_158:\n        /* \"#utility.yul\":2078:2181   */\n      swap4\n      pop\n        /* \"#utility.yul\":2207:2210   */\n      dup4\n        /* \"#utility.yul\":2252:2256   */\n      0x20\n        /* \"#utility.yul\":2244:2250   */\n      dup3\n        /* \"#utility.yul\":2240:2257   */\n      mul\n        /* \"#utility.yul\":2235:2238   */\n      dup6\n        /* \"#utility.yul\":2231:2258   */\n      add\n        /* \"#utility.yul\":2282:2348   */\n      tag_159\n        /* \"#utility.yul\":2342:2347   */\n      dup6\n        /* \"#utility.yul\":2282:2348   */\n      tag_93\n      jump\t// in\n    tag_159:\n        /* \"#utility.yul\":2371:2378   */\n      dup1\n        /* \"#utility.yul\":2402:2403   */\n      0x00\n        /* \"#utility.yul\":2387:2783   */\n    tag_160:\n        /* \"#utility.yul\":2412:2418   */\n      dup6\n        /* \"#utility.yul\":2409:2410   */\n      dup2\n        /* \"#utility.yul\":2406:2419   */\n      lt\n        /* \"#utility.yul\":2387:2783   */\n      iszero\n      tag_162\n      jumpi\n        /* \"#utility.yul\":2483:2492   */\n      dup5\n        /* \"#utility.yul\":2477:2481   */\n      dup5\n        /* \"#utility.yul\":2473:2493   */\n      sub\n        /* \"#utility.yul\":2468:2471   */\n      dup10\n        /* \"#utility.yul\":2461:2494   */\n      mstore\n        /* \"#utility.yul\":2534:2540   */\n      dup2\n        /* \"#utility.yul\":2528:2541   */\n      mload\n        /* \"#utility.yul\":2562:2646   */\n      tag_163\n        /* \"#utility.yul\":2641:2645   */\n      dup6\n        /* \"#utility.yul\":2626:2639   */\n      dup3\n        /* \"#utility.yul\":2562:2646   */\n      tag_99\n      jump\t// in\n    tag_163:\n        /* \"#utility.yul\":2554:2646   */\n      swap5\n      pop\n        /* \"#utility.yul\":2669:2739   */\n      tag_164\n        /* \"#utility.yul\":2732:2738   */\n      dup4\n        /* \"#utility.yul\":2669:2739   */\n      tag_100\n      jump\t// in\n    tag_164:\n        /* \"#utility.yul\":2659:2739   */\n      swap3\n      pop\n        /* \"#utility.yul\":2768:2772   */\n      0x20\n        /* \"#utility.yul\":2763:2766   */\n      dup11\n        /* \"#utility.yul\":2759:2773   */\n      add\n        /* \"#utility.yul\":2752:2773   */\n      swap10\n      pop\n        /* \"#utility.yul\":2447:2783   */\n      pop\n        /* \"#utility.yul\":2434:2435   */\n      0x01\n        /* \"#utility.yul\":2431:2432   */\n      dup2\n        /* \"#utility.yul\":2427:2436   */\n      add\n        /* \"#utility.yul\":2422:2436   */\n      swap1\n      pop\n        /* \"#utility.yul\":2387:2783   */\n      jump(tag_160)\n    tag_162:\n        /* \"#utility.yul\":2391:2405   */\n      pop\n        /* \"#utility.yul\":2799:2803   */\n      dup3\n        /* \"#utility.yul\":2792:2803   */\n      swap8\n      pop\n        /* \"#utility.yul\":2819:2822   */\n      dup8\n        /* \"#utility.yul\":2812:2822   */\n      swap6\n      pop\n        /* \"#utility.yul\":1981:2828   */\n      pop\n      pop\n      pop\n      pop\n      pop\n        /* \"#utility.yul\":1837:2828   */\n      swap3\n      swap2\n      pop\n      pop\n      jump\t// out\n        /* \"#utility.yul\":2834:3247   */\n    tag_14:\n        /* \"#utility.yul\":2997:3001   */\n      0x00\n        /* \"#utility.yul\":3035:3037   */\n      0x20\n        /* \"#utility.yul\":3024:3033   */\n      dup3\n        /* \"#utility.yul\":3020:3038   */\n      add\n        /* \"#utility.yul\":3012:3038   */\n      swap1\n      pop\n        /* \"#utility.yul\":3084:3093   */\n      dup2\n        /* \"#utility.yul\":3078:3082   */\n      dup2\n        /* \"#utility.yul\":3074:3094   */\n      sub\n        /* \"#utility.yul\":3070:3071   */\n      0x00\n        /* \"#utility.yul\":3059:3068   */\n      dup4\n        /* \"#utility.yul\":3055:3072   */\n      add\n        /* \"#utility.yul\":3048:3095   */\n      mstore\n        /* \"#utility.yul\":3112:3240   */\n      tag_166\n        /* \"#utility.yul\":3235:3239   */\n      dup2\n        /* \"#utility.yul\":3226:3232   */\n      dup5\n        /* \"#utility.yul\":3112:3240   */\n      tag_101\n      jump\t// in\n    tag_166:\n        /* \"#utility.yul\":3104:3240   */\n      swap1\n      pop\n        /* \"#utility.yul\":2834:3247   */\n      swap3\n      swap2\n      pop\n      pop\n      jump\t// out\n        /* \"#utility.yul\":3253:3328   */\n    tag_102:\n        /* \"#utility.yul\":3286:3292   */\n      0x00\n        /* \"#utility.yul\":3319:3321   */\n      0x40\n        /* \"#utility.yul\":3313:3322   */\n      mload\n        /* \"#utility.yul\":3303:3322   */\n      swap1\n      pop\n        /* \"#utility.yul\":3253:3328   */\n      swap1\n      jump\t// out\n        /* \"#utility.yul\":3334:3451   */\n    tag_103:\n        /* \"#utility.yul\":3443:3444   */\n      0x00\n        /* \"#utility.yul\":3440:3441   */\n      dup1\n        /* \"#utility.yul\":3433:3445   */\n      revert\n        /* \"#utility.yul\":3457:3574   */\n    tag_104:\n        /* \"#utility.yul\":3566:3567   */\n      0x00\n        /* \"#utility.yul\":3563:3564   */\n      dup1\n        /* \"#utility.yul\":3556:3568   */\n      revert\n        /* \"#utility.yul\":3580:3657   */\n    tag_105:\n        /* \"#utility.yul\":3617:3624   */\n      0x00\n        /* \"#utility.yul\":3646:3651   */\n      dup2\n        /* \"#utility.yul\":3635:3651   */\n      swap1\n      pop\n        /* \"#utility.yul\":3580:3657   */\n      swap2\n      swap1\n      pop\n      jump\t// out\n        /* \"#utility.yul\":3663:3785   */\n    tag_106:\n        /* \"#utility.yul\":3736:3760   */\n      tag_172\n        /* \"#utility.yul\":3754:3759   */\n      dup2\n        /* \"#utility.yul\":3736:3760   */\n      tag_105\n      jump\t// in\n    tag_172:\n        /* \"#utility.yul\":3729:3734   */\n      dup2\n        /* \"#utility.yul\":3726:3761   */\n      eq\n        /* \"#utility.yul\":3716:3779   */\n      tag_173\n      jumpi\n        /* \"#utility.yul\":3775:3776   */\n      0x00\n        /* \"#utility.yul\":3772:3773   */\n      dup1\n        /* \"#utility.yul\":3765:3777   */\n      revert\n        /* \"#utility.yul\":3716:3779   */\n    tag_173:\n        /* \"#utility.yul\":3663:3785   */\n      pop\n      jump\t// out\n        /* \"#utility.yul\":3791:3930   */\n    tag_107:\n        /* \"#utility.yul\":3837:3842   */\n      0x00\n        /* \"#utility.yul\":3875:3881   */\n      dup2\n        /* \"#utility.yul\":3862:3882   */\n      calldataload\n        /* \"#utility.yul\":3853:3882   */\n      swap1\n      pop\n        /* \"#utility.yul\":3891:3924   */\n      tag_175\n        /* \"#utility.yul\":3918:3923   */\n      dup2\n        /* \"#utility.yul\":3891:3924   */\n      tag_106\n      jump\t// in\n    tag_175:\n        /* \"#utility.yul\":3791:3930   */\n      swap3\n      swap2\n      pop\n      pop\n      jump\t// out\n        /* \"#utility.yul\":3936:4053   */\n    tag_108:\n        /* \"#utility.yul\":4045:4046   */\n      0x00\n        /* \"#utility.yul\":4042:4043   */\n      dup1\n        /* \"#utility.yul\":4035:4047   */\n      revert\n        /* \"#utility.yul\":4059:4176   */\n    tag_109:\n        /* \"#utility.yul\":4168:4169   */\n      0x00\n        /* \"#utility.yul\":4165:4166   */\n      dup1\n        /* \"#utility.yul\":4158:4170   */\n      revert\n        /* \"#utility.yul\":4182:4362   */\n    tag_110:\n        /* \"#utility.yul\":4230:4307   */\n      0x4e487b7100000000000000000000000000000000000000000000000000000000\n        /* \"#utility.yul\":4227:4228   */\n      0x00\n        /* \"#utility.yul\":4220:4308   */\n      mstore\n        /* \"#utility.yul\":4327:4331   */\n      0x41\n        /* \"#utility.yul\":4324:4325   */\n      0x04\n        /* \"#utility.yul\":4317:4332   */\n      mstore\n        /* \"#utility.yul\":4351:4355   */\n      0x24\n        /* \"#utility.yul\":4348:4349   */\n      0x00\n        /* \"#utility.yul\":4341:4356   */\n      revert\n        /* \"#utility.yul\":4368:4649   */\n    tag_111:\n        /* \"#utility.yul\":4451:4478   */\n      tag_180\n        /* \"#utility.yul\":4473:4477   */\n      dup3\n        /* \"#utility.yul\":4451:4478   */\n      tag_97\n      jump\t// in\n    tag_180:\n        /* \"#utility.yul\":4443:4449   */\n      dup2\n        /* \"#utility.yul\":4439:4479   */\n      add\n        /* \"#utility.yul\":4581:4587   */\n      dup2\n        /* \"#utility.yul\":4569:4579   */\n      dup2\n        /* \"#utility.yul\":4566:4588   */\n      lt\n        /* \"#utility.yul\":4545:4563   */\n      0xffffffffffffffff\n        /* \"#utility.yul\":4533:4543   */\n      dup3\n        /* \"#utility.yul\":4530:4564   */\n      gt\n        /* \"#utility.yul\":4527:4589   */\n      or\n        /* \"#utility.yul\":4524:4612   */\n      iszero\n      tag_181\n      jumpi\n        /* \"#utility.yul\":4592:4610   */\n      tag_182\n      tag_110\n      jump\t// in\n    tag_182:\n        /* \"#utility.yul\":4524:4612   */\n    tag_181:\n        /* \"#utility.yul\":4632:4642   */\n      dup1\n        /* \"#utility.yul\":4628:4630   */\n      0x40\n        /* \"#utility.yul\":4621:4643   */\n      mstore\n        /* \"#utility.yul\":4411:4649   */\n      pop\n        /* \"#utility.yul\":4368:4649   */\n      pop\n      pop\n      jump\t// out\n        /* \"#utility.yul\":4655:4784   */\n    tag_112:\n        /* \"#utility.yul\":4689:4695   */\n      0x00\n        /* \"#utility.yul\":4716:4736   */\n      tag_184\n      tag_102\n      jump\t// in\n    tag_184:\n        /* \"#utility.yul\":4706:4736   */\n      swap1\n      pop\n        /* \"#utility.yul\":4745:4778   */\n      tag_185\n        /* \"#utility.yul\":4773:4777   */\n      dup3\n        /* \"#utility.yul\":4765:4771   */\n      dup3\n        /* \"#utility.yul\":4745:4778   */\n      tag_111\n      jump\t// in\n    tag_185:\n        /* \"#utility.yul\":4655:4784   */\n      swap2\n      swap1\n      pop\n      jump\t// out\n        /* \"#utility.yul\":4790:5098   */\n    tag_113:\n        /* \"#utility.yul\":4852:4856   */\n      0x00\n        /* \"#utility.yul\":4942:4960   */\n      0xffffffffffffffff\n        /* \"#utility.yul\":4934:4940   */\n      dup3\n        /* \"#utility.yul\":4931:4961   */\n      gt\n        /* \"#utility.yul\":4928:4984   */\n      iszero\n      tag_187\n      jumpi\n        /* \"#utility.yul\":4964:4982   */\n      tag_188\n      tag_110\n      jump\t// in\n    tag_188:\n        /* \"#utility.yul\":4928:4984   */\n    tag_187:\n        /* \"#utility.yul\":5002:5031   */\n      tag_189\n        /* \"#utility.yul\":5024:5030   */\n      dup3\n        /* \"#utility.yul\":5002:5031   */\n      tag_97\n      jump\t// in\n    tag_189:\n        /* \"#utility.yul\":4994:5031   */\n      swap1\n      pop\n        /* \"#utility.yul\":5086:5090   */\n      0x20\n        /* \"#utility.yul\":5080:5084   */\n      dup2\n        /* \"#utility.yul\":5076:5091   */\n      add\n        /* \"#utility.yul\":5068:5091   */\n      swap1\n      pop\n        /* \"#utility.yul\":4790:5098   */\n      swap2\n      swap1\n      pop\n      jump\t// out\n        /* \"#utility.yul\":5104:5250   */\n    tag_114:\n        /* \"#utility.yul\":5201:5207   */\n      dup3\n        /* \"#utility.yul\":5196:5199   */\n      dup2\n        /* \"#utility.yul\":5191:5194   */\n      dup4\n        /* \"#utility.yul\":5178:5208   */\n      calldatacopy\n        /* \"#utility.yul\":5242:5243   */\n      0x00\n        /* \"#utility.yul\":5233:5239   */\n      dup4\n        /* \"#utility.yul\":5228:5231   */\n      dup4\n        /* \"#utility.yul\":5224:5240   */\n      add\n        /* \"#utility.yul\":5217:5244   */\n      mstore\n        /* \"#utility.yul\":5104:5250   */\n      pop\n      pop\n      pop\n      jump\t// out\n        /* \"#utility.yul\":5256:5681   */\n    tag_115:\n        /* \"#utility.yul\":5334:5339   */\n      0x00\n        /* \"#utility.yul\":5359:5425   */\n      tag_192\n        /* \"#utility.yul\":5375:5424   */\n      tag_193\n        /* \"#utility.yul\":5417:5423   */\n      dup5\n        /* \"#utility.yul\":5375:5424   */\n      tag_113\n      jump\t// in\n    tag_193:\n        /* \"#utility.yul\":5359:5425   */\n      tag_112\n      jump\t// in\n    tag_192:\n        /* \"#utility.yul\":5350:5425   */\n      swap1\n      pop\n        /* \"#utility.yul\":5448:5454   */\n      dup3\n        /* \"#utility.yul\":5441:5446   */\n      dup2\n        /* \"#utility.yul\":5434:5455   */\n      mstore\n        /* \"#utility.yul\":5486:5490   */\n      0x20\n        /* \"#utility.yul\":5479:5484   */\n      dup2\n        /* \"#utility.yul\":5475:5491   */\n      add\n        /* \"#utility.yul\":5524:5527   */\n      dup5\n        /* \"#utility.yul\":5515:5521   */\n      dup5\n        /* \"#utility.yul\":5510:5513   */\n      dup5\n        /* \"#utility.yul\":5506:5522   */\n      add\n        /* \"#utility.yul\":5503:5528   */\n      gt\n        /* \"#utility.yul\":5500:5612   */\n      iszero\n      tag_194\n      jumpi\n        /* \"#utility.yul\":5531:5610   */\n      tag_195\n      tag_109\n      jump\t// in\n    tag_195:\n        /* \"#utility.yul\":5500:5612   */\n    tag_194:\n        /* \"#utility.yul\":5621:5675   */\n      tag_196\n        /* \"#utility.yul\":5668:5674   */\n      dup5\n        /* \"#utility.yul\":5663:5666   */\n      dup3\n        /* \"#utility.yul\":5658:5661   */\n      dup6\n        /* \"#utility.yul\":5621:5675   */\n      tag_114\n      jump\t// in\n    tag_196:\n        /* \"#utility.yul\":5340:5681   */\n      pop\n        /* \"#utility.yul\":5256:5681   */\n      swap4\n      swap3\n      pop\n      pop\n      pop\n      jump\t// out\n        /* \"#utility.yul\":5701:6041   */\n    tag_116:\n        /* \"#utility.yul\":5757:5762   */\n      0x00\n        /* \"#utility.yul\":5806:5809   */\n      dup3\n        /* \"#utility.yul\":5799:5803   */\n      0x1f\n        /* \"#utility.yul\":5791:5797   */\n      dup4\n        /* \"#utility.yul\":5787:5804   */\n      add\n        /* \"#utility.yul\":5783:5810   */\n      slt\n        /* \"#utility.yul\":5773:5895   */\n      tag_198\n      jumpi\n        /* \"#utility.yul\":5814:5893   */\n      tag_199\n      tag_108\n      jump\t// in\n    tag_199:\n        /* \"#utility.yul\":5773:5895   */\n    tag_198:\n        /* \"#utility.yul\":5931:5937   */\n      dup2\n        /* \"#utility.yul\":5918:5938   */\n      calldataload\n        /* \"#utility.yul\":5956:6035   */\n      tag_200\n        /* \"#utility.yul\":6031:6034   */\n      dup5\n        /* \"#utility.yul\":6023:6029   */\n      dup3\n        /* \"#utility.yul\":6016:6020   */\n      0x20\n        /* \"#utility.yul\":6008:6014   */\n      dup7\n        /* \"#utility.yul\":6004:6021   */\n      add\n        /* \"#utility.yul\":5956:6035   */\n      tag_115\n      jump\t// in\n    tag_200:\n        /* \"#utility.yul\":5947:6035   */\n      swap2\n      pop\n        /* \"#utility.yul\":5763:6041   */\n      pop\n        /* \"#utility.yul\":5701:6041   */\n      swap3\n      swap2\n      pop\n      pop\n      jump\t// out\n        /* \"#utility.yul\":6047:6701   */\n    tag_17:\n        /* \"#utility.yul\":6125:6131   */\n      0x00\n        /* \"#utility.yul\":6133:6139   */\n      dup1\n        /* \"#utility.yul\":6182:6184   */\n      0x40\n        /* \"#utility.yul\":6170:6179   */\n      dup4\n        /* \"#utility.yul\":6161:6168   */\n      dup6\n        /* \"#utility.yul\":6157:6180   */\n      sub\n        /* \"#utility.yul\":6153:6185   */\n      slt\n        /* \"#utility.yul\":6150:6269   */\n      iszero\n      tag_202\n      jumpi\n        /* \"#utility.yul\":6188:6267   */\n      tag_203\n      tag_103\n      jump\t// in\n    tag_203:\n        /* \"#utility.yul\":6150:6269   */\n    tag_202:\n        /* \"#utility.yul\":6308:6309   */\n      0x00\n        /* \"#utility.yul\":6333:6386   */\n      tag_204\n        /* \"#utility.yul\":6378:6385   */\n      dup6\n        /* \"#utility.yul\":6369:6375   */\n      dup3\n        /* \"#utility.yul\":6358:6367   */\n      dup7\n        /* \"#utility.yul\":6354:6376   */\n      add\n        /* \"#utility.yul\":6333:6386   */\n      tag_107\n      jump\t// in\n    tag_204:\n        /* \"#utility.yul\":6323:6386   */\n      swap3\n      pop\n        /* \"#utility.yul\":6279:6396   */\n      pop\n        /* \"#utility.yul\":6463:6465   */\n      0x20\n        /* \"#utility.yul\":6452:6461   */\n      dup4\n        /* \"#utility.yul\":6448:6466   */\n      add\n        /* \"#utility.yul\":6435:6467   */\n      calldataload\n        /* \"#utility.yul\":6494:6512   */\n      0xffffffffffffffff\n        /* \"#utility.yul\":6486:6492   */\n      dup2\n        /* \"#utility.yul\":6483:6513   */\n      gt\n        /* \"#utility.yul\":6480:6597   */\n      iszero\n      tag_205\n      jumpi\n        /* \"#utility.yul\":6516:6595   */\n      tag_206\n      tag_104\n      jump\t// in\n    tag_206:\n        /* \"#utility.yul\":6480:6597   */\n    tag_205:\n        /* \"#utility.yul\":6621:6684   */\n      tag_207\n        /* \"#utility.yul\":6676:6683   */\n      dup6\n        /* \"#utility.yul\":6667:6673   */\n      dup3\n        /* \"#utility.yul\":6656:6665   */\n      dup7\n        /* \"#utility.yul\":6652:6674   */\n      add\n        /* \"#utility.yul\":6621:6684   */\n      tag_116\n      jump\t// in\n    tag_207:\n        /* \"#utility.yul\":6611:6684   */\n      swap2\n      pop\n        /* \"#utility.yul\":6406:6694   */\n      pop\n        /* \"#utility.yul\":6047:6701   */\n      swap3\n      pop\n      swap3\n      swap1\n      pop\n      jump\t// out\n        /* \"#utility.yul\":6707:7216   */\n    tag_21:\n        /* \"#utility.yul\":6776:6782   */\n      0x00\n        /* \"#utility.yul\":6825:6827   */\n      0x20\n        /* \"#utility.yul\":6813:6822   */\n      dup3\n        /* \"#utility.yul\":6804:6811   */\n      dup5\n        /* \"#utility.yul\":6800:6823   */\n      sub\n        /* \"#utility.yul\":6796:6828   */\n      slt\n        /* \"#utility.yul\":6793:6912   */\n      iszero\n      tag_209\n      jumpi\n        /* \"#utility.yul\":6831:6910   */\n      tag_210\n      tag_103\n      jump\t// in\n    tag_210:\n        /* \"#utility.yul\":6793:6912   */\n    tag_209:\n        /* \"#utility.yul\":6979:6980   */\n      0x00\n        /* \"#utility.yul\":6968:6977   */\n      dup3\n        /* \"#utility.yul\":6964:6981   */\n      add\n        /* \"#utility.yul\":6951:6982   */\n      calldataload\n        /* \"#utility.yul\":7009:7027   */\n      0xffffffffffffffff\n        /* \"#utility.yul\":7001:7007   */\n      dup2\n        /* \"#utility.yul\":6998:7028   */\n      gt\n        /* \"#utility.yul\":6995:7112   */\n      iszero\n      tag_211\n      jumpi\n        /* \"#utility.yul\":7031:7110   */\n      tag_212\n      tag_104\n      jump\t// in\n    tag_212:\n        /* \"#utility.yul\":6995:7112   */\n    tag_211:\n        /* \"#utility.yul\":7136:7199   */\n      tag_213\n        /* \"#utility.yul\":7191:7198   */\n      dup5\n        /* \"#utility.yul\":7182:7188   */\n      dup3\n        /* \"#utility.yul\":7171:7180   */\n      dup6\n        /* \"#utility.yul\":7167:7189   */\n      add\n        /* \"#utility.yul\":7136:7199   */\n      tag_116\n      jump\t// in\n    tag_213:\n        /* \"#utility.yul\":7126:7199   */\n      swap2\n      pop\n        /* \"#utility.yul\":6922:7209   */\n      pop\n        /* \"#utility.yul\":6707:7216   */\n      swap3\n      swap2\n      pop\n      pop\n      jump\t// out\n        /* \"#utility.yul\":7222:7551   */\n    tag_25:\n        /* \"#utility.yul\":7281:7287   */\n      0x00\n        /* \"#utility.yul\":7330:7332   */\n      0x20\n        /* \"#utility.yul\":7318:7327   */\n      dup3\n        /* \"#utility.yul\":7309:7316   */\n      dup5\n        /* \"#utility.yul\":7305:7328   */\n      sub\n        /* \"#utility.yul\":7301:7333   */\n      slt\n        /* \"#utility.yul\":7298:7417   */\n      iszero\n      tag_215\n      jumpi\n        /* \"#utility.yul\":7336:7415   */\n      tag_216\n      tag_103\n      jump\t// in\n    tag_216:\n        /* \"#utility.yul\":7298:7417   */\n    tag_215:\n        /* \"#utility.yul\":7456:7457   */\n      0x00\n        /* \"#utility.yul\":7481:7534   */\n      tag_217\n        /* \"#utility.yul\":7526:7533   */\n      dup5\n        /* \"#utility.yul\":7517:7523   */\n      dup3\n        /* \"#utility.yul\":7506:7515   */\n      dup6\n        /* \"#utility.yul\":7502:7524   */\n      add\n        /* \"#utility.yul\":7481:7534   */\n      tag_107\n      jump\t// in\n    tag_217:\n        /* \"#utility.yul\":7471:7534   */\n      swap2\n      pop\n        /* \"#utility.yul\":7427:7544   */\n      pop\n        /* \"#utility.yul\":7222:7551   */\n      swap3\n      swap2\n      pop\n      pop\n      jump\t// out\n        /* \"#utility.yul\":7557:7726   */\n    tag_117:\n        /* \"#utility.yul\":7641:7652   */\n      0x00\n        /* \"#utility.yul\":7675:7681   */\n      dup3\n        /* \"#utility.yul\":7670:7673   */\n      dup3\n        /* \"#utility.yul\":7663:7682   */\n      mstore\n        /* \"#utility.yul\":7715:7719   */\n      0x20\n        /* \"#utility.yul\":7710:7713   */\n      dup3\n        /* \"#utility.yul\":7706:7720   */\n      add\n        /* \"#utility.yul\":7691:7720   */\n      swap1\n      pop\n        /* \"#utility.yul\":7557:7726   */\n      swap3\n      swap2\n      pop\n      pop\n      jump\t// out\n        /* \"#utility.yul\":7732:8109   */\n    tag_118:\n        /* \"#utility.yul\":7820:7823   */\n      0x00\n        /* \"#utility.yul\":7848:7887   */\n      tag_220\n        /* \"#utility.yul\":7881:7886   */\n      dup3\n        /* \"#utility.yul\":7848:7887   */\n      tag_94\n      jump\t// in\n    tag_220:\n        /* \"#utility.yul\":7903:7974   */\n      tag_221\n        /* \"#utility.yul\":7967:7973   */\n      dup2\n        /* \"#utility.yul\":7962:7965   */\n      dup6\n        /* \"#utility.yul\":7903:7974   */\n      tag_117\n      jump\t// in\n    tag_221:\n        /* \"#utility.yul\":7896:7974   */\n      swap4\n      pop\n        /* \"#utility.yul\":7983:8048   */\n      tag_222\n        /* \"#utility.yul\":8041:8047   */\n      dup2\n        /* \"#utility.yul\":8036:8039   */\n      dup6\n        /* \"#utility.yul\":8029:8033   */\n      0x20\n        /* \"#utility.yul\":8022:8027   */\n      dup7\n        /* \"#utility.yul\":8018:8034   */\n      add\n        /* \"#utility.yul\":7983:8048   */\n      tag_96\n      jump\t// in\n    tag_222:\n        /* \"#utility.yul\":8073:8102   */\n      tag_223\n        /* \"#utility.yul\":8095:8101   */\n      dup2\n        /* \"#utility.yul\":8073:8102   */\n      tag_97\n      jump\t// in\n    tag_223:\n        /* \"#utility.yul\":8068:8071   */\n      dup5\n        /* \"#utility.yul\":8064:8103   */\n      add\n        /* \"#utility.yul\":8057:8103   */\n      swap2\n      pop\n        /* \"#utility.yul\":7824:8109   */\n      pop\n        /* \"#utility.yul\":7732:8109   */\n      swap3\n      swap2\n      pop\n      pop\n      jump\t// out\n        /* \"#utility.yul\":8115:8428   */\n    tag_28:\n        /* \"#utility.yul\":8228:8232   */\n      0x00\n        /* \"#utility.yul\":8266:8268   */\n      0x20\n        /* \"#utility.yul\":8255:8264   */\n      dup3\n        /* \"#utility.yul\":8251:8269   */\n      add\n        /* \"#utility.yul\":8243:8269   */\n      swap1\n      pop\n        /* \"#utility.yul\":8315:8324   */\n      dup2\n        /* \"#utility.yul\":8309:8313   */\n      dup2\n        /* \"#utility.yul\":8305:8325   */\n      sub\n        /* \"#utility.yul\":8301:8302   */\n      0x00\n        /* \"#utility.yul\":8290:8299   */\n      dup4\n        /* \"#utility.yul\":8286:8303   */\n      add\n        /* \"#utility.yul\":8279:8326   */\n      mstore\n        /* \"#utility.yul\":8343:8421   */\n      tag_225\n        /* \"#utility.yul\":8416:8420   */\n      dup2\n        /* \"#utility.yul\":8407:8413   */\n      dup5\n        /* \"#utility.yul\":8343:8421   */\n      tag_118\n      jump\t// in\n    tag_225:\n        /* \"#utility.yul\":8335:8421   */\n      swap1\n      pop\n        /* \"#utility.yul\":8115:8428   */\n      swap3\n      swap2\n      pop\n      pop\n      jump\t// out\n        /* \"#utility.yul\":8434:8552   */\n    tag_119:\n        /* \"#utility.yul\":8521:8545   */\n      tag_227\n        /* \"#utility.yul\":8539:8544   */\n      dup2\n        /* \"#utility.yul\":8521:8545   */\n      tag_105\n      jump\t// in\n    tag_227:\n        /* \"#utility.yul\":8516:8519   */\n      dup3\n        /* \"#utility.yul\":8509:8546   */\n      mstore\n        /* \"#utility.yul\":8434:8552   */\n      pop\n      pop\n      jump\t// out\n        /* \"#utility.yul\":8558:8780   */\n    tag_37:\n        /* \"#utility.yul\":8651:8655   */\n      0x00\n        /* \"#utility.yul\":8689:8691   */\n      0x20\n        /* \"#utility.yul\":8678:8687   */\n      dup3\n        /* \"#utility.yul\":8674:8692   */\n      add\n        /* \"#utility.yul\":8666:8692   */\n      swap1\n      pop\n        /* \"#utility.yul\":8702:8773   */\n      tag_229\n        /* \"#utility.yul\":8770:8771   */\n      0x00\n        /* \"#utility.yul\":8759:8768   */\n      dup4\n        /* \"#utility.yul\":8755:8772   */\n      add\n        /* \"#utility.yul\":8746:8752   */\n      dup5\n        /* \"#utility.yul\":8702:8773   */\n      tag_119\n      jump\t// in\n    tag_229:\n        /* \"#utility.yul\":8558:8780   */\n      swap3\n      swap2\n      pop\n      pop\n      jump\t// out\n        /* \"#utility.yul\":8786:8966   */\n    tag_120:\n        /* \"#utility.yul\":8834:8911   */\n      0x4e487b7100000000000000000000000000000000000000000000000000000000\n        /* \"#utility.yul\":8831:8832   */\n      0x00\n        /* \"#utility.yul\":8824:8912   */\n      mstore\n        /* \"#utility.yul\":8931:8935   */\n      0x22\n        /* \"#utility.yul\":8928:8929   */\n      0x04\n        /* \"#utility.yul\":8921:8936   */\n      mstore\n        /* \"#utility.yul\":8955:8959   */\n      0x24\n        /* \"#utility.yul\":8952:8953   */\n      0x00\n        /* \"#utility.yul\":8945:8960   */\n      revert\n        /* \"#utility.yul\":8972:9292   */\n    tag_43:\n        /* \"#utility.yul\":9016:9022   */\n      0x00\n        /* \"#utility.yul\":9053:9054   */\n      0x02\n        /* \"#utility.yul\":9047:9051   */\n      dup3\n        /* \"#utility.yul\":9043:9055   */\n      div\n        /* \"#utility.yul\":9033:9055   */\n      swap1\n      pop\n        /* \"#utility.yul\":9100:9101   */\n      0x01\n        /* \"#utility.yul\":9094:9098   */\n      dup3\n        /* \"#utility.yul\":9090:9102   */\n      and\n        /* \"#utility.yul\":9121:9139   */\n      dup1\n        /* \"#utility.yul\":9111:9192   */\n      tag_232\n      jumpi\n        /* \"#utility.yul\":9177:9181   */\n      0x7f\n        /* \"#utility.yul\":9169:9175   */\n      dup3\n        /* \"#utility.yul\":9165:9182   */\n      and\n        /* \"#utility.yul\":9155:9182   */\n      swap2\n      pop\n        /* \"#utility.yul\":9111:9192   */\n    tag_232:\n        /* \"#utility.yul\":9239:9241   */\n      0x20\n        /* \"#utility.yul\":9231:9237   */\n      dup3\n        /* \"#utility.yul\":9228:9242   */\n      lt\n        /* \"#utility.yul\":9208:9226   */\n      dup2\n        /* \"#utility.yul\":9205:9243   */\n      sub\n        /* \"#utility.yul\":9202:9286   */\n      tag_233\n      jumpi\n        /* \"#utility.yul\":9258:9276   */\n      tag_234\n      tag_120\n      jump\t// in\n    tag_234:\n        /* \"#utility.yul\":9202:9286   */\n    tag_233:\n        /* \"#utility.yul\":9023:9292   */\n      pop\n        /* \"#utility.yul\":8972:9292   */\n      swap2\n      swap1\n      pop\n      jump\t// out\n        /* \"#utility.yul\":9298:9478   */\n    tag_121:\n        /* \"#utility.yul\":9346:9423   */\n      0x4e487b7100000000000000000000000000000000000000000000000000000000\n        /* \"#utility.yul\":9343:9344   */\n      0x00\n        /* \"#utility.yul\":9336:9424   */\n      mstore\n        /* \"#utility.yul\":9443:9447   */\n      0x11\n        /* \"#utility.yul\":9440:9441   */\n      0x04\n        /* \"#utility.yul\":9433:9448   */\n      mstore\n        /* \"#utility.yul\":9467:9471   */\n      0x24\n        /* \"#utility.yul\":9464:9465   */\n      0x00\n        /* \"#utility.yul\":9457:9472   */\n      revert\n        /* \"#utility.yul\":9484:9678   */\n    tag_50:\n        /* \"#utility.yul\":9524:9528   */\n      0x00\n        /* \"#utility.yul\":9544:9564   */\n      tag_237\n        /* \"#utility.yul\":9562:9563   */\n      dup3\n        /* \"#utility.yul\":9544:9564   */\n      tag_105\n      jump\t// in\n    tag_237:\n        /* \"#utility.yul\":9539:9564   */\n      swap2\n      pop\n        /* \"#utility.yul\":9578:9598   */\n      tag_238\n        /* \"#utility.yul\":9596:9597   */\n      dup4\n        /* \"#utility.yul\":9578:9598   */\n      tag_105\n      jump\t// in\n    tag_238:\n        /* \"#utility.yul\":9573:9598   */\n      swap3\n      pop\n        /* \"#utility.yul\":9622:9623   */\n      dup3\n        /* \"#utility.yul\":9619:9620   */\n      dup3\n        /* \"#utility.yul\":9615:9624   */\n      sub\n        /* \"#utility.yul\":9607:9624   */\n      swap1\n      pop\n        /* \"#utility.yul\":9646:9647   */\n      dup2\n        /* \"#utility.yul\":9640:9644   */\n      dup2\n        /* \"#utility.yul\":9637:9648   */\n      gt\n        /* \"#utility.yul\":9634:9671   */\n      iszero\n      tag_239\n      jumpi\n        /* \"#utility.yul\":9651:9669   */\n      tag_240\n      tag_121\n      jump\t// in\n    tag_240:\n        /* \"#utility.yul\":9634:9671   */\n    tag_239:\n        /* \"#utility.yul\":9484:9678   */\n      swap3\n      swap2\n      pop\n      pop\n      jump\t// out\n        /* \"#utility.yul\":9684:9864   */\n    tag_53:\n        /* \"#utility.yul\":9732:9809   */\n      0x4e487b7100000000000000000000000000000000000000000000000000000000\n        /* \"#utility.yul\":9729:9730   */\n      0x00\n        /* \"#utility.yul\":9722:9810   */\n      mstore\n        /* \"#utility.yul\":9829:9833   */\n      0x32\n        /* \"#utility.yul\":9826:9827   */\n      0x04\n        /* \"#utility.yul\":9819:9834   */\n      mstore\n        /* \"#utility.yul\":9853:9857   */\n      0x24\n        /* \"#utility.yul\":9850:9851   */\n      0x00\n        /* \"#utility.yul\":9843:9858   */\n      revert\n        /* \"#utility.yul\":9870:10011   */\n    tag_122:\n        /* \"#utility.yul\":9919:9923   */\n      0x00\n        /* \"#utility.yul\":9942:9945   */\n      dup2\n        /* \"#utility.yul\":9934:9945   */\n      swap1\n      pop\n        /* \"#utility.yul\":9965:9968   */\n      dup2\n        /* \"#utility.yul\":9962:9963   */\n      0x00\n        /* \"#utility.yul\":9955:9969   */\n      mstore\n        /* \"#utility.yul\":9999:10003   */\n      0x20\n        /* \"#utility.yul\":9996:9997   */\n      0x00\n        /* \"#utility.yul\":9986:10004   */\n      keccak256\n        /* \"#utility.yul\":9978:10004   */\n      swap1\n      pop\n        /* \"#utility.yul\":9870:10011   */\n      swap2\n      swap1\n      pop\n      jump\t// out\n        /* \"#utility.yul\":10017:10110   */\n    tag_123:\n        /* \"#utility.yul\":10054:10060   */\n      0x00\n        /* \"#utility.yul\":10101:10103   */\n      0x20\n        /* \"#utility.yul\":10096:10098   */\n      0x1f\n        /* \"#utility.yul\":10089:10094   */\n      dup4\n        /* \"#utility.yul\":10085:10099   */\n      add\n        /* \"#utility.yul\":10081:10104   */\n      div\n        /* \"#utility.yul\":10071:10104   */\n      swap1\n      pop\n        /* \"#utility.yul\":10017:10110   */\n      swap2\n      swap1\n      pop\n      jump\t// out\n        /* \"#utility.yul\":10116:10223   */\n    tag_124:\n        /* \"#utility.yul\":10160:10168   */\n      0x00\n        /* \"#utility.yul\":10210:10215   */\n      dup3\n        /* \"#utility.yul\":10204:10208   */\n      dup3\n        /* \"#utility.yul\":10200:10216   */\n      shl\n        /* \"#utility.yul\":10179:10216   */\n      swap1\n      pop\n        /* \"#utility.yul\":10116:10223   */\n      swap3\n      swap2\n      pop\n      pop\n      jump\t// out\n        /* \"#utility.yul\":10229:10622   */\n    tag_125:\n        /* \"#utility.yul\":10298:10304   */\n      0x00\n        /* \"#utility.yul\":10348:10349   */\n      0x08\n        /* \"#utility.yul\":10336:10346   */\n      dup4\n        /* \"#utility.yul\":10332:10350   */\n      mul\n        /* \"#utility.yul\":10371:10468   */\n      tag_246\n        /* \"#utility.yul\":10401:10467   */\n      0xffffffffffffffffffffffffffffffffffffffffffffffffffffffffffffffff\n        /* \"#utility.yul\":10390:10399   */\n      dup3\n        /* \"#utility.yul\":10371:10468   */\n      tag_124\n      jump\t// in\n    tag_246:\n        /* \"#utility.yul\":10489:10528   */\n      tag_247\n        /* \"#utility.yul\":10519:10527   */\n      dup7\n        /* \"#utility.yul\":10508:10517   */\n      dup4\n        /* \"#utility.yul\":10489:10528   */\n      tag_124\n      jump\t// in\n    tag_247:\n        /* \"#utility.yul\":10477:10528   */\n      swap6\n      pop\n        /* \"#utility.yul\":10561:10565   */\n      dup1\n        /* \"#utility.yul\":10557:10566   */\n      not\n        /* \"#utility.yul\":10550:10555   */\n      dup5\n        /* \"#utility.yul\":10546:10567   */\n      and\n        /* \"#utility.yul\":10537:10567   */\n      swap4\n      pop\n        /* \"#utility.yul\":10610:10614   */\n      dup1\n        /* \"#utility.yul\":10600:10608   */\n      dup7\n        /* \"#utility.yul\":10596:10615   */\n      and\n        /* \"#utility.yul\":10589:10594   */\n      dup5\n        /* \"#utility.yul\":10586:10616   */\n      or\n        /* \"#utility.yul\":10576:10616   */\n      swap3\n      pop\n        /* \"#utility.yul\":10305:10622   */\n      pop\n      pop\n        /* \"#utility.yul\":10229:10622   */\n      swap4\n      swap3\n      pop\n      pop\n      pop\n      jump\t// out\n        /* \"#utility.yul\":10628:10688   */\n    tag_126:\n        /* \"#utility.yul\":10656:10659   */\n      0x00\n        /* \"#utility.yul\":10677:10682   */\n      dup2\n        /* \"#utility.yul\":10670:10682   */\n      swap1\n      pop\n        /* \"#utility.yul\":10628:10688   */\n      swap2\n      swap1\n      pop\n      jump\t// out\n        /* \"#utility.yul\":10694:10836   */\n    tag_127:\n        /* \"#utility.yul\":10744:10753   */\n      0x00\n        /* \"#utility.yul\":10777:10830   */\n      tag_250\n        /* \"#utility.yul\":10795:10829   */\n      tag_251\n        /* \"#utility.yul\":10804:10828   */\n      tag_252\n        /* \"#utility.yul\":10822:10827   */\n      dup5\n        /* \"#utility.yul\":10804:10828   */\n      tag_105\n      jump\t// in\n    tag_252:\n        /* \"#utility.yul\":10795:10829   */\n      tag_126\n      jump\t// in\n    tag_251:\n        /* \"#utility.yul\":10777:10830   */\n      tag_105\n      jump\t// in\n    tag_250:\n        /* \"#utility.yul\":10764:10830   */\n      swap1\n      pop\n        /* \"#utility.yul\":10694:10836   */\n      swap2\n      swap1\n      pop\n      jump\t// out\n        /* \"#utility.yul\":10842:10917   */\n    tag_128:\n        /* \"#utility.yul\":10885:10888   */\n      0x00\n        /* \"#utility.yul\":10906:10911   */\n      dup2\n        /* \"#utility.yul\":10899:10911   */\n      swap1\n      pop\n        /* \"#utility.yul\":10842:10917   */\n      swap2\n      swap1\n      pop\n      jump\t// out\n        /* \"#utility.yul\":10923:11192   */\n    tag_129:\n        /* \"#utility.yul\":11033:11072   */\n      tag_255\n        /* \"#utility.yul\":11064:11071   */\n      dup4\n        /* \"#utility.yul\":11033:11072   */\n      tag_127\n      jump\t// in\n    tag_255:\n        /* \"#utility.yul\":11094:11185   */\n      tag_256\n        /* \"#utility.yul\":11143:11184   */\n      tag_257\n        /* \"#utility.yul\":11167:11183   */\n      dup3\n        /* \"#utility.yul\":11143:11184   */\n      tag_128\n      jump\t// in\n    tag_257:\n        /* \"#utility.yul\":11135:11141   */\n      dup5\n        /* \"#utility.yul\":11128:11132   */\n      dup5\n        /* \"#utility.yul\":11122:11133   */\n      sload\n        /* \"#utility.yul\":11094:11185   */\n      tag_125\n      jump\t// in\n    tag_256:\n        /* \"#utility.yul\":11088:11092   */\n      dup3\n        /* \"#utility.yul\":11081:11186   */\n      sstore\n        /* \"#utility.yul\":10999:11192   */\n      pop\n        /* \"#utility.yul\":10923:11192   */\n      pop\n      pop\n      pop\n      jump\t// out\n        /* \"#utility.yul\":11198:11271   */\n    tag_130:\n        /* \"#utility.yul\":11243:11246   */\n      0x00\n        /* \"#utility.yul\":11198:11271   */\n      swap1\n      jump\t// out\n        /* \"#utility.yul\":11277:11466   */\n    tag_131:\n        /* \"#utility.yul\":11354:11386   */\n      tag_260\n      tag_130\n      jump\t// in\n    tag_260:\n        /* \"#utility.yul\":11395:11460   */\n      tag_261\n        /* \"#utility.yul\":11453:11459   */\n      dup2\n        /* \"#utility.yul\":11445:11451   */\n      dup5\n        /* \"#utility.yul\":11439:11443   */\n      dup5\n        /* \"#utility.yul\":11395:11460   */\n      tag_129\n      jump\t// in\n    tag_261:\n        /* \"#utility.yul\":11330:11466   */\n      pop\n        /* \"#utility.yul\":11277:11466   */\n      pop\n      pop\n      jump\t// out\n        /* \"#utility.yul\":11472:11658   */\n    tag_132:\n        /* \"#utility.yul\":11532:11652   */\n    tag_263:\n        /* \"#utility.yul\":11549:11552   */\n      dup2\n        /* \"#utility.yul\":11542:11547   */\n      dup2\n        /* \"#utility.yul\":11539:11553   */\n      lt\n        /* \"#utility.yul\":11532:11652   */\n      iszero\n      tag_265\n      jumpi\n        /* \"#utility.yul\":11603:11642   */\n      tag_266\n        /* \"#utility.yul\":11640:11641   */\n      0x00\n        /* \"#utility.yul\":11633:11638   */\n      dup3\n        /* \"#utility.yul\":11603:11642   */\n      tag_131\n      jump\t// in\n    tag_266:\n        /* \"#utility.yul\":11576:11577   */\n      0x01\n        /* \"#utility.yul\":11569:11574   */\n      dup2\n        /* \"#utility.yul\":11565:11578   */\n      add\n        /* \"#utility.yul\":11556:11578   */\n      swap1\n      pop\n        /* \"#utility.yul\":11532:11652   */\n      jump(tag_263)\n    tag_265:\n        /* \"#utility.yul\":11472:11658   */\n      pop\n      pop\n      jump\t// out\n        /* \"#utility.yul\":11664:12207   */\n    tag_133:\n        /* \"#utility.yul\":11765:11767   */\n      0x1f\n        /* \"#utility.yul\":11760:11763   */\n      dup3\n        /* \"#utility.yul\":11757:11768   */\n      gt\n        /* \"#utility.yul\":11754:12200   */\n      iszero\n      tag_268\n      jumpi\n        /* \"#utility.yul\":11799:11837   */\n      tag_269\n        /* \"#utility.yul\":11831:11836   */\n      dup2\n        /* \"#utility.yul\":11799:11837   */\n      tag_122\n      jump\t// in\n    tag_269:\n        /* \"#utility.yul\":11883:11912   */\n      tag_270\n        /* \"#utility.yul\":11901:11911   */\n      dup5\n        /* \"#utility.yul\":11883:11912   */\n      tag_123\n      jump\t// in\n    tag_270:\n        /* \"#utility.yul\":11873:11881   */\n      dup2\n        /* \"#utility.yul\":11869:11913   */\n      add\n        /* \"#utility.yul\":12066:12068   */\n      0x20\n        /* \"#utility.yul\":12054:12064   */\n      dup6\n        /* \"#utility.yul\":12051:12069   */\n      lt\n        /* \"#utility.yul\":12048:12097   */\n      iszero\n      tag_271\n      jumpi\n        /* \"#utility.yul\":12087:12095   */\n      dup2\n        /* \"#utility.yul\":12072:12095   */\n      swap1\n      pop\n        /* \"#utility.yul\":12048:12097   */\n    tag_271:\n        /* \"#utility.yul\":12110:12190   */\n      tag_272\n        /* \"#utility.yul\":12166:12188   */\n      tag_273\n        /* \"#utility.yul\":12184:12187   */\n      dup6\n        /* \"#utility.yul\":12166:12188   */\n      tag_123\n      jump\t// in\n    tag_273:\n        /* \"#utility.yul\":12156:12164   */\n      dup4\n        /* \"#utility.yul\":12152:12189   */\n      add\n        /* \"#utility.yul\":12139:12150   */\n      dup3\n        /* \"#utility.yul\":12110:12190   */\n      tag_132\n      jump\t// in\n    tag_272:\n        /* \"#utility.yul\":11769:12200   */\n      pop\n      pop\n        /* \"#utility.yul\":11754:12200   */\n    tag_268:\n        /* \"#utility.yul\":11664:12207   */\n      pop\n      pop\n      pop\n      jump\t// out\n        /* \"#utility.yul\":12213:12330   */\n    tag_134:\n        /* \"#utility.yul\":12267:12275   */\n      0x00\n        /* \"#utility.yul\":12317:12322   */\n      dup3\n        /* \"#utility.yul\":12311:12315   */\n      dup3\n        /* \"#utility.yul\":12307:12323   */\n      shr\n        /* \"#utility.yul\":12286:12323   */\n      swap1\n      pop\n        /* \"#utility.yul\":12213:12330   */\n      swap3\n      swap2\n      pop\n      pop\n      jump\t// out\n        /* \"#utility.yul\":12336:12505   */\n    tag_135:\n        /* \"#utility.yul\":12380:12386   */\n      0x00\n        /* \"#utility.yul\":12413:12464   */\n      tag_276\n        /* \"#utility.yul\":12461:12462   */\n      0x00\n        /* \"#utility.yul\":12457:12463   */\n      not\n        /* \"#utility.yul\":12449:12454   */\n      dup5\n        /* \"#utility.yul\":12446:12447   */\n      0x08\n        /* \"#utility.yul\":12442:12455   */\n      mul\n        /* \"#utility.yul\":12413:12464   */\n      tag_134\n      jump\t// in\n    tag_276:\n        /* \"#utility.yul\":12409:12465   */\n      not\n        /* \"#utility.yul\":12494:12498   */\n      dup1\n        /* \"#utility.yul\":12488:12492   */\n      dup4\n        /* \"#utility.yul\":12484:12499   */\n      and\n        /* \"#utility.yul\":12474:12499   */\n      swap2\n      pop\n        /* \"#utility.yul\":12387:12505   */\n      pop\n        /* \"#utility.yul\":12336:12505   */\n      swap3\n      swap2\n      pop\n      pop\n      jump\t// out\n        /* \"#utility.yul\":12510:12805   */\n    tag_136:\n        /* \"#utility.yul\":12586:12590   */\n      0x00\n        /* \"#utility.yul\":12732:12761   */\n      tag_278\n        /* \"#utility.yul\":12757:12760   */\n      dup4\n        /* \"#utility.yul\":12751:12755   */\n      dup4\n        /* \"#utility.yul\":12732:12761   */\n      tag_135\n      jump\t// in\n    tag_278:\n        /* \"#utility.yul\":12724:12761   */\n      swap2\n      pop\n        /* \"#utility.yul\":12794:12797   */\n      dup3\n        /* \"#utility.yul\":12791:12792   */\n      0x02\n        /* \"#utility.yul\":12787:12798   */\n      mul\n        /* \"#utility.yul\":12781:12785   */\n      dup3\n        /* \"#utility.yul\":12778:12799   */\n      or\n        /* \"#utility.yul\":12770:12799   */\n      swap1\n      pop\n        /* \"#utility.yul\":12510:12805   */\n      swap3\n      swap2\n      pop\n      pop\n      jump\t// out\n        /* \"#utility.yul\":12810:14205   */\n    tag_56:\n        /* \"#utility.yul\":12927:12964   */\n      tag_280\n        /* \"#utility.yul\":12960:12963   */\n      dup3\n        /* \"#utility.yul\":12927:12964   */\n      tag_94\n      jump\t// in\n    tag_280:\n        /* \"#utility.yul\":13029:13047   */\n      0xffffffffffffffff\n        /* \"#utility.yul\":13021:13027   */\n      dup2\n        /* \"#utility.yul\":13018:13048   */\n      gt\n        /* \"#utility.yul\":13015:13071   */\n      iszero\n      tag_281\n      jumpi\n        /* \"#utility.yul\":13051:13069   */\n      tag_282\n      tag_110\n      jump\t// in\n    tag_282:\n        /* \"#utility.yul\":13015:13071   */\n    tag_281:\n        /* \"#utility.yul\":13095:13133   */\n      tag_283\n        /* \"#utility.yul\":13127:13131   */\n      dup3\n        /* \"#utility.yul\":13121:13132   */\n      sload\n        /* \"#utility.yul\":13095:13133   */\n      tag_43\n      jump\t// in\n    tag_283:\n        /* \"#utility.yul\":13180:13247   */\n      tag_284\n        /* \"#utility.yul\":13240:13246   */\n      dup3\n        /* \"#utility.yul\":13232:13238   */\n      dup3\n        /* \"#utility.yul\":13226:13230   */\n      dup6\n        /* \"#utility.yul\":13180:13247   */\n      tag_133\n      jump\t// in\n    tag_284:\n        /* \"#utility.yul\":13274:13275   */\n      0x00\n        /* \"#utility.yul\":13298:13302   */\n      0x20\n        /* \"#utility.yul\":13285:13302   */\n      swap1\n      pop\n        /* \"#utility.yul\":13330:13332   */\n      0x1f\n        /* \"#utility.yul\":13322:13328   */\n      dup4\n        /* \"#utility.yul\":13319:13333   */\n      gt\n        /* \"#utility.yul\":13347:13348   */\n      0x01\n        /* \"#utility.yul\":13342:13960   */\n      dup2\n      eq\n      tag_286\n      jumpi\n        /* \"#utility.yul\":14004:14005   */\n      0x00\n        /* \"#utility.yul\":14021:14027   */\n      dup5\n        /* \"#utility.yul\":14018:14095   */\n      iszero\n      tag_287\n      jumpi\n        /* \"#utility.yul\":14070:14079   */\n      dup3\n        /* \"#utility.yul\":14065:14068   */\n      dup8\n        /* \"#utility.yul\":14061:14080   */\n      add\n        /* \"#utility.yul\":14055:14081   */\n      mload\n        /* \"#utility.yul\":14046:14081   */\n      swap1\n      pop\n        /* \"#utility.yul\":14018:14095   */\n    tag_287:\n        /* \"#utility.yul\":14121:14188   */\n      tag_288\n        /* \"#utility.yul\":14181:14187   */\n      dup6\n        /* \"#utility.yul\":14174:14179   */\n      dup3\n        /* \"#utility.yul\":14121:14188   */\n      tag_136\n      jump\t// in\n    tag_288:\n        /* \"#utility.yul\":14115:14119   */\n      dup7\n        /* \"#utility.yul\":14108:14189   */\n      sstore\n        /* \"#utility.yul\":13977:14199   */\n      pop\n        /* \"#utility.yul\":13312:14199   */\n      jump(tag_285)\n        /* \"#utility.yul\":13342:13960   */\n    tag_286:\n        /* \"#utility.yul\":13394:13398   */\n      0x1f\n        /* \"#utility.yul\":13390:13399   */\n      not\n        /* \"#utility.yul\":13382:13388   */\n      dup5\n        /* \"#utility.yul\":13378:13400   */\n      and\n        /* \"#utility.yul\":13428:13465   */\n      tag_289\n        /* \"#utility.yul\":13460:13464   */\n      dup7\n        /* \"#utility.yul\":13428:13465   */\n      tag_122\n      jump\t// in\n    tag_289:\n        /* \"#utility.yul\":13487:13488   */\n      0x00\n        /* \"#utility.yul\":13501:13709   */\n    tag_290:\n        /* \"#utility.yul\":13515:13522   */\n      dup3\n        /* \"#utility.yul\":13512:13513   */\n      dup2\n        /* \"#utility.yul\":13509:13523   */\n      lt\n        /* \"#utility.yul\":13501:13709   */\n      iszero\n      tag_292\n      jumpi\n        /* \"#utility.yul\":13594:13603   */\n      dup5\n        /* \"#utility.yul\":13589:13592   */\n      dup10\n        /* \"#utility.yul\":13585:13604   */\n      add\n        /* \"#utility.yul\":13579:13605   */\n      mload\n        /* \"#utility.yul\":13571:13577   */\n      dup3\n        /* \"#utility.yul\":13564:13606   */\n      sstore\n        /* \"#utility.yul\":13645:13646   */\n      0x01\n        /* \"#utility.yul\":13637:13643   */\n      dup3\n        /* \"#utility.yul\":13633:13647   */\n      add\n        /* \"#utility.yul\":13623:13647   */\n      swap2\n      pop\n        /* \"#utility.yul\":13692:13694   */\n      0x20\n        /* \"#utility.yul\":13681:13690   */\n      dup6\n        /* \"#utility.yul\":13677:13695   */\n      add\n        /* \"#utility.yul\":13664:13695   */\n      swap5\n      pop\n        /* \"#utility.yul\":13538:13542   */\n      0x20\n        /* \"#utility.yul\":13535:13536   */\n      dup2\n        /* \"#utility.yul\":13531:13543   */\n      add\n        /* \"#utility.yul\":13526:13543   */\n      swap1\n      pop\n        /* \"#utility.yul\":13501:13709   */\n      jump(tag_290)\n    tag_292:\n        /* \"#utility.yul\":13737:13743   */\n      dup7\n        /* \"#utility.yul\":13728:13735   */\n      dup4\n        /* \"#utility.yul\":13725:13744   */\n      lt\n        /* \"#utility.yul\":13722:13901   */\n      iszero\n      tag_293\n      jumpi\n        /* \"#utility.yul\":13795:13804   */\n      dup5\n        /* \"#utility.yul\":13790:13793   */\n      dup10\n        /* \"#utility.yul\":13786:13805   */\n      add\n        /* \"#utility.yul\":13780:13806   */\n      mload\n        /* \"#utility.yul\":13838:13886   */\n      tag_294\n        /* \"#utility.yul\":13880:13884   */\n      0x1f\n        /* \"#utility.yul\":13872:13878   */\n      dup10\n        /* \"#utility.yul\":13868:13885   */\n      and\n        /* \"#utility.yul\":13857:13866   */\n      dup3\n        /* \"#utility.yul\":13838:13886   */\n      tag_135\n      jump\t// in\n    tag_294:\n        /* \"#utility.yul\":13830:13836   */\n      dup4\n        /* \"#utility.yul\":13823:13887   */\n      sstore\n        /* \"#utility.yul\":13745:13901   */\n      pop\n        /* \"#utility.yul\":13722:13901   */\n    tag_293:\n        /* \"#utility.yul\":13947:13948   */\n      0x01\n        /* \"#utility.yul\":13943:13944   */\n      0x02\n        /* \"#utility.yul\":13935:13941   */\n      dup9\n        /* \"#utility.yul\":13931:13945   */\n      mul\n        /* \"#utility.yul\":13927:13949   */\n      add\n        /* \"#utility.yul\":13921:13925   */\n      dup9\n        /* \"#utility.yul\":13914:13950   */\n      sstore\n        /* \"#utility.yul\":13349:13960   */\n      pop\n      pop\n      pop\n        /* \"#utility.yul\":13312:14199   */\n    tag_285:\n      pop\n        /* \"#utility.yul\":12902:14205   */\n      pop\n      pop\n      pop\n        /* \"#utility.yul\":12810:14205   */\n      pop\n      pop\n      jump\t// out\n        /* \"#utility.yul\":14211:14391   */\n    tag_80:\n        /* \"#utility.yul\":14259:14336   */\n      0x4e487b7100000000000000000000000000000000000000000000000000000000\n        /* \"#utility.yul\":14256:14257   */\n      0x00\n        /* \"#utility.yul\":14249:14337   */\n      mstore\n        /* \"#utility.yul\":14356:14360   */\n      0x31\n        /* \"#utility.yul\":14353:14354   */\n      0x04\n        /* \"#utility.yul\":14346:14361   */\n      mstore\n        /* \"#utility.yul\":14380:14384   */\n      0x24\n        /* \"#utility.yul\":14377:14378   */\n      0x00\n        /* \"#utility.yul\":14370:14385   */\n      revert\n\n    auxdata: 0xa2646970667358221220b836543467c2ccefa3e78f9325eadbc8e6089ba0823d4ae5f475a9cd8beb8fb064736f6c63430008120033\n}\n",
				"bytecode": {
					"linkReferences": {},
					"object": "608060405234801561001057600080fd5b50610c59806100206000396000f3fe608060405234801561001057600080fd5b506004361061007d5760003560e01c806396e583a91161005b57806396e583a9146100d8578063a4da2ffb14610108578063a4ece52c14610124578063be1c766b1461012e5761007d565b80633cac14c8146100825780634765c137146100a05780634f3d057a146100bc575b600080fd5b61008a61014c565b604051610097919061057b565b60405180910390f35b6100ba60048036038101906100b5919061071c565b610225565b005b6100d660048036038101906100d19190610778565b610261565b005b6100f260048036038101906100ed91906107c1565b610299565b6040516100ff9190610838565b60405180910390f35b610122600480360381019061011d91906107c1565b610355565b005b61012c61038e565b005b6101366103c0565b6040516101439190610869565b60405180910390f35b60606000805480602002602001604051908101604052809291908181526020016000905b8282101561021c57838290600052602060002001805461018f906108b3565b80601f01602080910402602001604051908101604052809291908181526020018280546101bb906108b3565b80156102085780601f106101dd57610100808354040283529160200191610208565b820191906000526020600020905b8154815290600101906020018083116101eb57829003601f168201915b505050505081526020019060010190610170565b50505050905090565b8060006001846102359190610913565b8154811061024657610245610947565b5b90600052602060002001908161025c9190610b22565b505050565b6000819080600181540180825580915050600190039060005260206000200160009091909190915090816102959190610b22565b5050565b606060006001836102aa9190610913565b815481106102bb576102ba610947565b5b9060005260206000200180546102d0906108b3565b80601f01602080910402602001604051908101604052809291908181526020018280546102fc906108b3565b80156103495780601f1061031e57610100808354040283529160200191610349565b820191906000526020600020905b81548152906001019060200180831161032c57829003601f168201915b50505050509050919050565b60006001826103649190610913565b8154811061037557610374610947565b5b90600052602060002001600061038b91906103cc565b50565b60008054806103a05761039f610bf4565b5b6001900381819060005260206000200160006103bc91906103cc565b9055565b60008080549050905090565b5080546103d8906108b3565b6000825580601f106103ea5750610409565b601f016020900490600052602060002090810190610408919061040c565b5b50565b5b8082111561042557600081600090555060010161040d565b5090565b600081519050919050565b600082825260208201905092915050565b6000819050602082019050919050565b600081519050919050565b600082825260208201905092915050565b60005b8381101561048f578082015181840152602081019050610474565b60008484015250505050565b6000601f19601f8301169050919050565b60006104b782610455565b6104c18185610460565b93506104d1818560208601610471565b6104da8161049b565b840191505092915050565b60006104f183836104ac565b905092915050565b6000602082019050919050565b600061051182610429565b61051b8185610434565b93508360208202850161052d85610445565b8060005b85811015610569578484038952815161054a85826104e5565b9450610555836104f9565b925060208a01995050600181019050610531565b50829750879550505050505092915050565b600060208201905081810360008301526105958184610506565b905092915050565b6000604051905090565b600080fd5b600080fd5b6000819050919050565b6105c4816105b1565b81146105cf57600080fd5b50565b6000813590506105e1816105bb565b92915050565b600080fd5b600080fd5b7f4e487b7100000000000000000000000000000000000000000000000000000000600052604160045260246000fd5b6106298261049b565b810181811067ffffffffffffffff82111715610648576106476105f1565b5b80604052505050565b600061065b61059d565b90506106678282610620565b919050565b600067ffffffffffffffff821115610687576106866105f1565b5b6106908261049b565b9050602081019050919050565b82818337600083830152505050565b60006106bf6106ba8461066c565b610651565b9050828152602081018484840111156106db576106da6105ec565b5b6106e684828561069d565b509392505050565b600082601f830112610703576107026105e7565b5b81356107138482602086016106ac565b91505092915050565b60008060408385031215610733576107326105a7565b5b6000610741858286016105d2565b925050602083013567ffffffffffffffff811115610762576107616105ac565b5b61076e858286016106ee565b9150509250929050565b60006020828403121561078e5761078d6105a7565b5b600082013567ffffffffffffffff8111156107ac576107ab6105ac565b5b6107b8848285016106ee565b91505092915050565b6000602082840312156107d7576107d66105a7565b5b60006107e5848285016105d2565b91505092915050565b600082825260208201905092915050565b600061080a82610455565b61081481856107ee565b9350610824818560208601610471565b61082d8161049b565b840191505092915050565b6000602082019050818103600083015261085281846107ff565b905092915050565b610863816105b1565b82525050565b600060208201905061087e600083018461085a565b92915050565b7f4e487b7100000000000000000000000000000000000000000000000000000000600052602260045260246000fd5b600060028204905060018216806108cb57607f821691505b6020821081036108de576108dd610884565b5b50919050565b7f4e487b7100000000000000000000000000000000000000000000000000000000600052601160045260246000fd5b600061091e826105b1565b9150610929836105b1565b9250828203905081811115610941576109406108e4565b5b92915050565b7f4e487b7100000000000000000000000000000000000000000000000000000000600052603260045260246000fd5b60008190508160005260206000209050919050565b60006020601f8301049050919050565b600082821b905092915050565b6000600883026109d87fffffffffffffffffffffffffffffffffffffffffffffffffffffffffffffffff8261099b565b6109e2868361099b565b95508019841693508086168417925050509392505050565b6000819050919050565b6000610a1f610a1a610a15846105b1565b6109fa565b6105b1565b9050919050565b6000819050919050565b610a3983610a04565b610a4d610a4582610a26565b8484546109a8565b825550505050565b600090565b610a62610a55565b610a6d818484610a30565b505050565b5b81811015610a9157610a86600082610a5a565b600181019050610a73565b5050565b601f821115610ad657610aa781610976565b610ab08461098b565b81016020851015610abf578190505b610ad3610acb8561098b565b830182610a72565b50505b505050565b600082821c905092915050565b6000610af960001984600802610adb565b1980831691505092915050565b6000610b128383610ae8565b9150826002028217905092915050565b610b2b82610455565b67ffffffffffffffff811115610b4457610b436105f1565b5b610b4e82546108b3565b610b59828285610a95565b600060209050601f831160018114610b8c5760008415610b7a578287015190505b610b848582610b06565b865550610bec565b601f198416610b9a86610976565b60005b82811015610bc257848901518255600182019150602085019450602081019050610b9d565b86831015610bdf5784890151610bdb601f891682610ae8565b8355505b6001600288020188555050505b505050505050565b7f4e487b7100000000000000000000000000000000000000000000000000000000600052603160045260246000fdfea2646970667358221220b836543467c2ccefa3e78f9325eadbc8e6089ba0823d4ae5f475a9cd8beb8fb064736f6c63430008120033",
					"opcodes": "PUSH1 0x80 PUSH1 0x40 MSTORE CALLVALUE DUP1 ISZERO PUSH2 0x10 JUMPI PUSH1 0x0 DUP1 REVERT JUMPDEST POP PUSH2 0xC59 DUP1 PUSH2 0x20 PUSH1 0x0 CODECOPY PUSH1 0x0 RETURN INVALID PUSH1 0x80 PUSH1 0x40 MSTORE CALLVALUE DUP1 ISZERO PUSH2 0x10 JUMPI PUSH1 0x0 DUP1 REVERT JUMPDEST POP PUSH1 0x4 CALLDATASIZE LT PUSH2 0x7D JUMPI PUSH1 0x0 CALLDATALOAD PUSH1 0xE0 SHR DUP1 PUSH4 0x96E583A9 GT PUSH2 0x5B JUMPI DUP1 PUSH4 0x96E583A9 EQ PUSH2 0xD8 JUMPI DUP1 PUSH4 0xA4DA2FFB EQ PUSH2 0x108 JUMPI DUP1 PUSH4 0xA4ECE52C EQ PUSH2 0x124 JUMPI DUP1 PUSH4 0xBE1C766B EQ PUSH2 0x12E JUMPI PUSH2 0x7D JUMP JUMPDEST DUP1 PUSH4 0x3CAC14C8 EQ PUSH2 0x82 JUMPI DUP1 PUSH4 0x4765C137 EQ PUSH2 0xA0 JUMPI DUP1 PUSH4 0x4F3D057A EQ PUSH2 0xBC JUMPI JUMPDEST PUSH1 0x0 DUP1 REVERT JUMPDEST PUSH2 0x8A PUSH2 0x14C JUMP JUMPDEST PUSH1 0x40 MLOAD PUSH2 0x97 SWAP2 SWAP1 PUSH2 0x57B JUMP JUMPDEST PUSH1 0x40 MLOAD DUP1 SWAP2 SUB SWAP1 RETURN JUMPDEST PUSH2 0xBA PUSH1 0x4 DUP1 CALLDATASIZE SUB DUP2 ADD SWAP1 PUSH2 0xB5 SWAP2 SWAP1 PUSH2 0x71C JUMP JUMPDEST PUSH2 0x225 JUMP JUMPDEST STOP JUMPDEST PUSH2 0xD6 PUSH1 0x4 DUP1 CALLDATASIZE SUB DUP2 ADD SWAP1 PUSH2 0xD1 SWAP2 SWAP1 PUSH2 0x778 JUMP JUMPDEST PUSH2 0x261 JUMP JUMPDEST STOP JUMPDEST PUSH2 0xF2 PUSH1 0x4 DUP1 CALLDATASIZE SUB DUP2 ADD SWAP1 PUSH2 0xED SWAP2 SWAP1 PUSH2 0x7C1 JUMP JUMPDEST PUSH2 0x299 JUMP JUMPDEST PUSH1 0x40 MLOAD PUSH2 0xFF SWAP2 SWAP1 PUSH2 0x838 JUMP JUMPDEST PUSH1 0x40 MLOAD DUP1 SWAP2 SUB SWAP1 RETURN JUMPDEST PUSH2 0x122 PUSH1 0x4 DUP1 CALLDATASIZE SUB DUP2 ADD SWAP1 PUSH2 0x11D SWAP2 SWAP1 PUSH2 0x7C1 JUMP JUMPDEST PUSH2 0x355 JUMP JUMPDEST STOP JUMPDEST PUSH2 0x12C PUSH2 0x38E JUMP JUMPDEST STOP JUMPDEST PUSH2 0x136 PUSH2 0x3C0 JUMP JUMPDEST PUSH1 0x40 MLOAD PUSH2 0x143 SWAP2 SWAP1 PUSH2 0x869 JUMP JUMPDEST PUSH1 0x40 MLOAD DUP1 SWAP2 SUB SWAP1 RETURN JUMPDEST PUSH1 0x60 PUSH1 0x0 DUP1 SLOAD DUP1 PUSH1 0x20 MUL PUSH1 0x20 ADD PUSH1 0x40 MLOAD SWAP1 DUP2 ADD PUSH1 0x40 MSTORE DUP1 SWAP3 SWAP2 SWAP1 DUP2 DUP2 MSTORE PUSH1 0x20 ADD PUSH1 0x0 SWAP1 JUMPDEST DUP3 DUP3 LT ISZERO PUSH2 0x21C JUMPI DUP4 DUP3 SWAP1 PUSH1 0x0 MSTORE PUSH1 0x20 PUSH1 0x0 KECCAK256 ADD DUP1 SLOAD PUSH2 0x18F SWAP1 PUSH2 0x8B3 JUMP JUMPDEST DUP1 PUSH1 0x1F ADD PUSH1 0x20 DUP1 SWAP2 DIV MUL PUSH1 0x20 ADD PUSH1 0x40 MLOAD SWAP1 DUP2 ADD PUSH1 0x40 MSTORE DUP1 SWAP3 SWAP2 SWAP1 DUP2 DUP2 MSTORE PUSH1 0x20 ADD DUP3 DUP1 SLOAD PUSH2 0x1BB SWAP1 PUSH2 0x8B3 JUMP JUMPDEST DUP1 ISZERO PUSH2 0x208 JUMPI DUP1 PUSH1 0x1F LT PUSH2 0x1DD JUMPI PUSH2 0x100 DUP1 DUP4 SLOAD DIV MUL DUP4 MSTORE SWAP2 PUSH1 0x20 ADD SWAP2 PUSH2 0x208 JUMP JUMPDEST DUP3 ADD SWAP2 SWAP1 PUSH1 0x0 MSTORE PUSH1 0x20 PUSH1 0x0 KECCAK256 SWAP1 JUMPDEST DUP2 SLOAD DUP2 MSTORE SWAP1 PUSH1 0x1 ADD SWAP1 PUSH1 0x20 ADD DUP1 DUP4 GT PUSH2 0x1EB JUMPI DUP3 SWAP1 SUB PUSH1 0x1F AND DUP3 ADD SWAP2 JUMPDEST POP POP POP POP POP DUP2 MSTORE PUSH1 0x20 ADD SWAP1 PUSH1 0x1 ADD SWAP1 PUSH2 0x170 JUMP JUMPDEST POP POP POP POP SWAP1 POP SWAP1 JUMP JUMPDEST DUP1 PUSH1 0x0 PUSH1 0x1 DUP5 PUSH2 0x235 SWAP2 SWAP1 PUSH2 0x913 JUMP JUMPDEST DUP2 SLOAD DUP2 LT PUSH2 0x246 JUMPI PUSH2 0x245 PUSH2 0x947 JUMP JUMPDEST JUMPDEST SWAP1 PUSH1 0x0 MSTORE PUSH1 0x20 PUSH1 0x0 KECCAK256 ADD SWAP1 DUP2 PUSH2 0x25C SWAP2 SWAP1 PUSH2 0xB22 JUMP JUMPDEST POP POP POP JUMP JUMPDEST PUSH1 0x0 DUP2 SWAP1 DUP1 PUSH1 0x1 DUP2 SLOAD ADD DUP1 DUP3 SSTORE DUP1 SWAP2 POP POP PUSH1 0x1 SWAP1 SUB SWAP1 PUSH1 0x0 MSTORE PUSH1 0x20 PUSH1 0x0 KECCAK256 ADD PUSH1 0x0 SWAP1 SWAP2 SWAP1 SWAP2 SWAP1 SWAP2 POP SWAP1 DUP2 PUSH2 0x295 SWAP2 SWAP1 PUSH2 0xB22 JUMP JUMPDEST POP POP JUMP JUMPDEST PUSH1 0x60 PUSH1 0x0 PUSH1 0x1 DUP4 PUSH2 0x2AA SWAP2 SWAP1 PUSH2 0x913 JUMP JUMPDEST DUP2 SLOAD DUP2 LT PUSH2 0x2BB JUMPI PUSH2 0x2BA PUSH2 0x947 JUMP JUMPDEST JUMPDEST SWAP1 PUSH1 0x0 MSTORE PUSH1 0x20 PUSH1 0x0 KECCAK256 ADD DUP1 SLOAD PUSH2 0x2D0 SWAP1 PUSH2 0x8B3 JUMP JUMPDEST DUP1 PUSH1 0x1F ADD PUSH1 0x20 DUP1 SWAP2 DIV MUL PUSH1 0x20 ADD PUSH1 0x40 MLOAD SWAP1 DUP2 ADD PUSH1 0x40 MSTORE DUP1 SWAP3 SWAP2 SWAP1 DUP2 DUP2 MSTORE PUSH1 0x20 ADD DUP3 DUP1 SLOAD PUSH2 0x2FC SWAP1 PUSH2 0x8B3 JUMP JUMPDEST DUP1 ISZERO PUSH2 0x349 JUMPI DUP1 PUSH1 0x1F LT PUSH2 0x31E JUMPI PUSH2 0x100 DUP1 DUP4 SLOAD DIV MUL DUP4 MSTORE SWAP2 PUSH1 0x20 ADD SWAP2 PUSH2 0x349 JUMP JUMPDEST DUP3 ADD SWAP2 SWAP1 PUSH1 0x0 MSTORE PUSH1 0x20 PUSH1 0x0 KECCAK256 SWAP1 JUMPDEST DUP2 SLOAD DUP2 MSTORE SWAP1 PUSH1 0x1 ADD SWAP1 PUSH1 0x20 ADD DUP1 DUP4 GT PUSH2 0x32C JUMPI DUP3 SWAP1 SUB PUSH1 0x1F AND DUP3 ADD SWAP2 JUMPDEST POP POP POP POP POP SWAP1 POP SWAP2 SWAP1 POP JUMP JUMPDEST PUSH1 0x0 PUSH1 0x1 DUP3 PUSH2 0x364 SWAP2 SWAP1 PUSH2 0x913 JUMP JUMPDEST DUP2 SLOAD DUP2 LT PUSH2 0x375 JUMPI PUSH2 0x374 PUSH2 0x947 JUMP JUMPDEST JUMPDEST SWAP1 PUSH1 0x0 MSTORE PUSH1 0x20 PUSH1 0x0 KECCAK256 ADD PUSH1 0x0 PUSH2 0x38B SWAP2 SWAP1 PUSH2 0x3CC JUMP JUMPDEST POP JUMP JUMPDEST PUSH1 0x0 DUP1 SLOAD DUP1 PUSH2 0x3A0 JUMPI PUSH2 0x39F PUSH2 0xBF4 JUMP JUMPDEST JUMPDEST PUSH1 0x1 SWAP1 SUB DUP2 DUP2 SWAP1 PUSH1 0x0 MSTORE PUSH1 0x20 PUSH1 0x0 KECCAK256 ADD PUSH1 0x0 PUSH2 0x3BC SWAP2 SWAP1 PUSH2 0x3CC JUMP JUMPDEST SWAP1 SSTORE JUMP JUMPDEST PUSH1 0x0 DUP1 DUP1 SLOAD SWAP1 POP SWAP1 POP SWAP1 JUMP JUMPDEST POP DUP1 SLOAD PUSH2 0x3D8 SWAP1 PUSH2 0x8B3 JUMP JUMPDEST PUSH1 0x0 DUP3 SSTORE DUP1 PUSH1 0x1F LT PUSH2 0x3EA JUMPI POP PUSH2 0x409 JUMP JUMPDEST PUSH1 0x1F ADD PUSH1 0x20 SWAP1 DIV SWAP1 PUSH1 0x0 MSTORE PUSH1 0x20 PUSH1 0x0 KECCAK256 SWAP1 DUP2 ADD SWAP1 PUSH2 0x408 SWAP2 SWAP1 PUSH2 0x40C JUMP JUMPDEST JUMPDEST POP JUMP JUMPDEST JUMPDEST DUP1 DUP3 GT ISZERO PUSH2 0x425 JUMPI PUSH1 0x0 DUP2 PUSH1 0x0 SWAP1 SSTORE POP PUSH1 0x1 ADD PUSH2 0x40D JUMP JUMPDEST POP SWAP1 JUMP JUMPDEST PUSH1 0x0 DUP2 MLOAD SWAP1 POP SWAP2 SWAP1 POP JUMP JUMPDEST PUSH1 0x0 DUP3 DUP3 MSTORE PUSH1 0x20 DUP3 ADD SWAP1 POP SWAP3 SWAP2 POP POP JUMP JUMPDEST PUSH1 0x0 DUP2 SWAP1 POP PUSH1 0x20 DUP3 ADD SWAP1 POP SWAP2 SWAP1 POP JUMP JUMPDEST PUSH1 0x0 DUP2 MLOAD SWAP1 POP SWAP2 SWAP1 POP JUMP JUMPDEST PUSH1 0x0 DUP3 DUP3 MSTORE PUSH1 0x20 DUP3 ADD SWAP1 POP SWAP3 SWAP2 POP POP JUMP JUMPDEST PUSH1 0x0 JUMPDEST DUP4 DUP2 LT ISZERO PUSH2 0x48F JUMPI DUP1 DUP3 ADD MLOAD DUP2 DUP5 ADD MSTORE PUSH1 0x20 DUP2 ADD SWAP1 POP PUSH2 0x474 JUMP JUMPDEST PUSH1 0x0 DUP5 DUP5 ADD MSTORE POP POP POP POP JUMP JUMPDEST PUSH1 0x0 PUSH1 0x1F NOT PUSH1 0x1F DUP4 ADD AND SWAP1 POP SWAP2 SWAP1 POP JUMP JUMPDEST PUSH1 0x0 PUSH2 0x4B7 DUP3 PUSH2 0x455 JUMP JUMPDEST PUSH2 0x4C1 DUP2 DUP6 PUSH2 0x460 JUMP JUMPDEST SWAP4 POP PUSH2 0x4D1 DUP2 DUP6 PUSH1 0x20 DUP7 ADD PUSH2 0x471 JUMP JUMPDEST PUSH2 0x4DA DUP2 PUSH2 0x49B JUMP JUMPDEST DUP5 ADD SWAP2 POP POP SWAP3 SWAP2 POP POP JUMP JUMPDEST PUSH1 0x0 PUSH2 0x4F1 DUP4 DUP4 PUSH2 0x4AC JUMP JUMPDEST SWAP1 POP SWAP3 SWAP2 POP POP JUMP JUMPDEST PUSH1 0x0 PUSH1 0x20 DUP3 ADD SWAP1 POP SWAP2 SWAP1 POP JUMP JUMPDEST PUSH1 0x0 PUSH2 0x511 DUP3 PUSH2 0x429 JUMP JUMPDEST PUSH2 0x51B DUP2 DUP6 PUSH2 0x434 JUMP JUMPDEST SWAP4 POP DUP4 PUSH1 0x20 DUP3 MUL DUP6 ADD PUSH2 0x52D DUP6 PUSH2 0x445 JUMP JUMPDEST DUP1 PUSH1 0x0 JUMPDEST DUP6 DUP2 LT ISZERO PUSH2 0x569 JUMPI DUP5 DUP5 SUB DUP10 MSTORE DUP2 MLOAD PUSH2 0x54A DUP6 DUP3 PUSH2 0x4E5 JUMP JUMPDEST SWAP5 POP PUSH2 0x555 DUP4 PUSH2 0x4F9 JUMP JUMPDEST SWAP3 POP PUSH1 0x20 DUP11 ADD SWAP10 POP POP PUSH1 0x1 DUP2 ADD SWAP1 POP PUSH2 0x531 JUMP JUMPDEST POP DUP3 SWAP8 POP DUP8 SWAP6 POP POP POP POP POP POP SWAP3 SWAP2 POP POP JUMP JUMPDEST PUSH1 0x0 PUSH1 0x20 DUP3 ADD SWAP1 POP DUP2 DUP2 SUB PUSH1 0x0 DUP4 ADD MSTORE PUSH2 0x595 DUP2 DUP5 PUSH2 0x506 JUMP JUMPDEST SWAP1 POP SWAP3 SWAP2 POP POP JUMP JUMPDEST PUSH1 0x0 PUSH1 0x40 MLOAD SWAP1 POP SWAP1 JUMP JUMPDEST PUSH1 0x0 DUP1 REVERT JUMPDEST PUSH1 0x0 DUP1 REVERT JUMPDEST PUSH1 0x0 DUP2 SWAP1 POP SWAP2 SWAP1 POP JUMP JUMPDEST PUSH2 0x5C4 DUP2 PUSH2 0x5B1 JUMP JUMPDEST DUP2 EQ PUSH2 0x5CF JUMPI PUSH1 0x0 DUP1 REVERT JUMPDEST POP JUMP JUMPDEST PUSH1 0x0 DUP2 CALLDATALOAD SWAP1 POP PUSH2 0x5E1 DUP2 PUSH2 0x5BB JUMP JUMPDEST SWAP3 SWAP2 POP POP JUMP JUMPDEST PUSH1 0x0 DUP1 REVERT JUMPDEST PUSH1 0x0 DUP1 REVERT JUMPDEST PUSH32 0x4E487B7100000000000000000000000000000000000000000000000000000000 PUSH1 0x0 MSTORE PUSH1 0x41 PUSH1 0x4 MSTORE PUSH1 0x24 PUSH1 0x0 REVERT JUMPDEST PUSH2 0x629 DUP3 PUSH2 0x49B JUMP JUMPDEST DUP2 ADD DUP2 DUP2 LT PUSH8 0xFFFFFFFFFFFFFFFF DUP3 GT OR ISZERO PUSH2 0x648 JUMPI PUSH2 0x647 PUSH2 0x5F1 JUMP JUMPDEST JUMPDEST DUP1 PUSH1 0x40 MSTORE POP POP POP JUMP JUMPDEST PUSH1 0x0 PUSH2 0x65B PUSH2 0x59D JUMP JUMPDEST SWAP1 POP PUSH2 0x667 DUP3 DUP3 PUSH2 0x620 JUMP JUMPDEST SWAP2 SWAP1 POP JUMP JUMPDEST PUSH1 0x0 PUSH8 0xFFFFFFFFFFFFFFFF DUP3 GT ISZERO PUSH2 0x687 JUMPI PUSH2 0x686 PUSH2 0x5F1 JUMP JUMPDEST JUMPDEST PUSH2 0x690 DUP3 PUSH2 0x49B JUMP JUMPDEST SWAP1 POP PUSH1 0x20 DUP2 ADD SWAP1 POP SWAP2 SWAP1 POP JUMP JUMPDEST DUP3 DUP2 DUP4 CALLDATACOPY PUSH1 0x0 DUP4 DUP4 ADD MSTORE POP POP POP JUMP JUMPDEST PUSH1 0x0 PUSH2 0x6BF PUSH2 0x6BA DUP5 PUSH2 0x66C JUMP JUMPDEST PUSH2 0x651 JUMP JUMPDEST SWAP1 POP DUP3 DUP2 MSTORE PUSH1 0x20 DUP2 ADD DUP5 DUP5 DUP5 ADD GT ISZERO PUSH2 0x6DB JUMPI PUSH2 0x6DA PUSH2 0x5EC JUMP JUMPDEST JUMPDEST PUSH2 0x6E6 DUP5 DUP3 DUP6 PUSH2 0x69D JUMP JUMPDEST POP SWAP4 SWAP3 POP POP POP JUMP JUMPDEST PUSH1 0x0 DUP3 PUSH1 0x1F DUP4 ADD SLT PUSH2 0x703 JUMPI PUSH2 0x702 PUSH2 0x5E7 JUMP JUMPDEST JUMPDEST DUP2 CALLDATALOAD PUSH2 0x713 DUP5 DUP3 PUSH1 0x20 DUP7 ADD PUSH2 0x6AC JUMP JUMPDEST SWAP2 POP POP SWAP3 SWAP2 POP POP JUMP JUMPDEST PUSH1 0x0 DUP1 PUSH1 0x40 DUP4 DUP6 SUB SLT ISZERO PUSH2 0x733 JUMPI PUSH2 0x732 PUSH2 0x5A7 JUMP JUMPDEST JUMPDEST PUSH1 0x0 PUSH2 0x741 DUP6 DUP3 DUP7 ADD PUSH2 0x5D2 JUMP JUMPDEST SWAP3 POP POP PUSH1 0x20 DUP4 ADD CALLDATALOAD PUSH8 0xFFFFFFFFFFFFFFFF DUP2 GT ISZERO PUSH2 0x762 JUMPI PUSH2 0x761 PUSH2 0x5AC JUMP JUMPDEST JUMPDEST PUSH2 0x76E DUP6 DUP3 DUP7 ADD PUSH2 0x6EE JUMP JUMPDEST SWAP2 POP POP SWAP3 POP SWAP3 SWAP1 POP JUMP JUMPDEST PUSH1 0x0 PUSH1 0x20 DUP3 DUP5 SUB SLT ISZERO PUSH2 0x78E JUMPI PUSH2 0x78D PUSH2 0x5A7 JUMP JUMPDEST JUMPDEST PUSH1 0x0 DUP3 ADD CALLDATALOAD PUSH8 0xFFFFFFFFFFFFFFFF DUP2 GT ISZERO PUSH2 0x7AC JUMPI PUSH2 0x7AB PUSH2 0x5AC JUMP JUMPDEST JUMPDEST PUSH2 0x7B8 DUP5 DUP3 DUP6 ADD PUSH2 0x6EE JUMP JUMPDEST SWAP2 POP POP SWAP3 SWAP2 POP POP JUMP JUMPDEST PUSH1 0x0 PUSH1 0x20 DUP3 DUP5 SUB SLT ISZERO PUSH2 0x7D7 JUMPI PUSH2 0x7D6 PUSH2 0x5A7 JUMP JUMPDEST JUMPDEST PUSH1 0x0 PUSH2 0x7E5 DUP5 DUP3 DUP6 ADD PUSH2 0x5D2 JUMP JUMPDEST SWAP2 POP POP SWAP3 SWAP2 POP POP JUMP JUMPDEST PUSH1 0x0 DUP3 DUP3 MSTORE PUSH1 0x20 DUP3 ADD SWAP1 POP SWAP3 SWAP2 POP POP JUMP JUMPDEST PUSH1 0x0 PUSH2 0x80A DUP3 PUSH2 0x455 JUMP JUMPDEST PUSH2 0x814 DUP2 DUP6 PUSH2 0x7EE JUMP JUMPDEST SWAP4 POP PUSH2 0x824 DUP2 DUP6 PUSH1 0x20 DUP7 ADD PUSH2 0x471 JUMP JUMPDEST PUSH2 0x82D DUP2 PUSH2 0x49B JUMP JUMPDEST DUP5 ADD SWAP2 POP POP SWAP3 SWAP2 POP POP JUMP JUMPDEST PUSH1 0x0 PUSH1 0x20 DUP3 ADD SWAP1 POP DUP2 DUP2 SUB PUSH1 0x0 DUP4 ADD MSTORE PUSH2 0x852 DUP2 DUP5 PUSH2 0x7FF JUMP JUMPDEST SWAP1 POP SWAP3 SWAP2 POP POP JUMP JUMPDEST PUSH2 0x863 DUP2 PUSH2 0x5B1 JUMP JUMPDEST DUP3 MSTORE POP POP JUMP JUMPDEST PUSH1 0x0 PUSH1 0x20 DUP3 ADD SWAP1 POP PUSH2 0x87E PUSH1 0x0 DUP4 ADD DUP5 PUSH2 0x85A JUMP JUMPDEST SWAP3 SWAP2 POP POP JUMP JUMPDEST PUSH32 0x4E487B7100000000000000000000000000000000000000000000000000000000 PUSH1 0x0 MSTORE PUSH1 0x22 PUSH1 0x4 MSTORE PUSH1 0x24 PUSH1 0x0 REVERT JUMPDEST PUSH1 0x0 PUSH1 0x2 DUP3 DIV SWAP1 POP PUSH1 0x1 DUP3 AND DUP1 PUSH2 0x8CB JUMPI PUSH1 0x7F DUP3 AND SWAP2 POP JUMPDEST PUSH1 0x20 DUP3 LT DUP2 SUB PUSH2 0x8DE JUMPI PUSH2 0x8DD PUSH2 0x884 JUMP JUMPDEST JUMPDEST POP SWAP2 SWAP1 POP JUMP JUMPDEST PUSH32 0x4E487B7100000000000000000000000000000000000000000000000000000000 PUSH1 0x0 MSTORE PUSH1 0x11 PUSH1 0x4 MSTORE PUSH1 0x24 PUSH1 0x0 REVERT JUMPDEST PUSH1 0x0 PUSH2 0x91E DUP3 PUSH2 0x5B1 JUMP JUMPDEST SWAP2 POP PUSH2 0x929 DUP4 PUSH2 0x5B1 JUMP JUMPDEST SWAP3 POP DUP3 DUP3 SUB SWAP1 POP DUP2 DUP2 GT ISZERO PUSH2 0x941 JUMPI PUSH2 0x940 PUSH2 0x8E4 JUMP JUMPDEST JUMPDEST SWAP3 SWAP2 POP POP JUMP JUMPDEST PUSH32 0x4E487B7100000000000000000000000000000000000000000000000000000000 PUSH1 0x0 MSTORE PUSH1 0x32 PUSH1 0x4 MSTORE PUSH1 0x24 PUSH1 0x0 REVERT JUMPDEST PUSH1 0x0 DUP2 SWAP1 POP DUP2 PUSH1 0x0 MSTORE PUSH1 0x20 PUSH1 0x0 KECCAK256 SWAP1 POP SWAP2 SWAP1 POP JUMP JUMPDEST PUSH1 0x0 PUSH1 0x20 PUSH1 0x1F DUP4 ADD DIV SWAP1 POP SWAP2 SWAP1 POP JUMP JUMPDEST PUSH1 0x0 DUP3 DUP3 SHL SWAP1 POP SWAP3 SWAP2 POP POP JUMP JUMPDEST PUSH1 0x0 PUSH1 0x8 DUP4 MUL PUSH2 0x9D8 PUSH32 0xFFFFFFFFFFFFFFFFFFFFFFFFFFFFFFFFFFFFFFFFFFFFFFFFFFFFFFFFFFFFFFFF DUP3 PUSH2 0x99B JUMP JUMPDEST PUSH2 0x9E2 DUP7 DUP4 PUSH2 0x99B JUMP JUMPDEST SWAP6 POP DUP1 NOT DUP5 AND SWAP4 POP DUP1 DUP7 AND DUP5 OR SWAP3 POP POP POP SWAP4 SWAP3 POP POP POP JUMP JUMPDEST PUSH1 0x0 DUP2 SWAP1 POP SWAP2 SWAP1 POP JUMP JUMPDEST PUSH1 0x0 PUSH2 0xA1F PUSH2 0xA1A PUSH2 0xA15 DUP5 PUSH2 0x5B1 JUMP JUMPDEST PUSH2 0x9FA JUMP JUMPDEST PUSH2 0x5B1 JUMP JUMPDEST SWAP1 POP SWAP2 SWAP1 POP JUMP JUMPDEST PUSH1 0x0 DUP2 SWAP1 POP SWAP2 SWAP1 POP JUMP JUMPDEST PUSH2 0xA39 DUP4 PUSH2 0xA04 JUMP JUMPDEST PUSH2 0xA4D PUSH2 0xA45 DUP3 PUSH2 0xA26 JUMP JUMPDEST DUP5 DUP5 SLOAD PUSH2 0x9A8 JUMP JUMPDEST DUP3 SSTORE POP POP POP POP JUMP JUMPDEST PUSH1 0x0 SWAP1 JUMP JUMPDEST PUSH2 0xA62 PUSH2 0xA55 JUMP JUMPDEST PUSH2 0xA6D DUP2 DUP5 DUP5 PUSH2 0xA30 JUMP JUMPDEST POP POP POP JUMP JUMPDEST JUMPDEST DUP2 DUP2 LT ISZERO PUSH2 0xA91 JUMPI PUSH2 0xA86 PUSH1 0x0 DUP3 PUSH2 0xA5A JUMP JUMPDEST PUSH1 0x1 DUP2 ADD SWAP1 POP PUSH2 0xA73 JUMP JUMPDEST POP POP JUMP JUMPDEST PUSH1 0x1F DUP3 GT ISZERO PUSH2 0xAD6 JUMPI PUSH2 0xAA7 DUP2 PUSH2 0x976 JUMP JUMPDEST PUSH2 0xAB0 DUP5 PUSH2 0x98B JUMP JUMPDEST DUP2 ADD PUSH1 0x20 DUP6 LT ISZERO PUSH2 0xABF JUMPI DUP2 SWAP1 POP JUMPDEST PUSH2 0xAD3 PUSH2 0xACB DUP6 PUSH2 0x98B JUMP JUMPDEST DUP4 ADD DUP3 PUSH2 0xA72 JUMP JUMPDEST POP POP JUMPDEST POP POP POP JUMP JUMPDEST PUSH1 0x0 DUP3 DUP3 SHR SWAP1 POP SWAP3 SWAP2 POP POP JUMP JUMPDEST PUSH1 0x0 PUSH2 0xAF9 PUSH1 0x0 NOT DUP5 PUSH1 0x8 MUL PUSH2 0xADB JUMP JUMPDEST NOT DUP1 DUP4 AND SWAP2 POP POP SWAP3 SWAP2 POP POP JUMP JUMPDEST PUSH1 0x0 PUSH2 0xB12 DUP4 DUP4 PUSH2 0xAE8 JUMP JUMPDEST SWAP2 POP DUP3 PUSH1 0x2 MUL DUP3 OR SWAP1 POP SWAP3 SWAP2 POP POP JUMP JUMPDEST PUSH2 0xB2B DUP3 PUSH2 0x455 JUMP JUMPDEST PUSH8 0xFFFFFFFFFFFFFFFF DUP2 GT ISZERO PUSH2 0xB44 JUMPI PUSH2 0xB43 PUSH2 0x5F1 JUMP JUMPDEST JUMPDEST PUSH2 0xB4E DUP3 SLOAD PUSH2 0x8B3 JUMP JUMPDEST PUSH2 0xB59 DUP3 DUP3 DUP6 PUSH2 0xA95 JUMP JUMPDEST PUSH1 0x0 PUSH1 0x20 SWAP1 POP PUSH1 0x1F DUP4 GT PUSH1 0x1 DUP2 EQ PUSH2 0xB8C JUMPI PUSH1 0x0 DUP5 ISZERO PUSH2 0xB7A JUMPI DUP3 DUP8 ADD MLOAD SWAP1 POP JUMPDEST PUSH2 0xB84 DUP6 DUP3 PUSH2 0xB06 JUMP JUMPDEST DUP7 SSTORE POP PUSH2 0xBEC JUMP JUMPDEST PUSH1 0x1F NOT DUP5 AND PUSH2 0xB9A DUP7 PUSH2 0x976 JUMP JUMPDEST PUSH1 0x0 JUMPDEST DUP3 DUP2 LT ISZERO PUSH2 0xBC2 JUMPI DUP5 DUP10 ADD MLOAD DUP3 SSTORE PUSH1 0x1 DUP3 ADD SWAP2 POP PUSH1 0x20 DUP6 ADD SWAP5 POP PUSH1 0x20 DUP2 ADD SWAP1 POP PUSH2 0xB9D JUMP JUMPDEST DUP7 DUP4 LT ISZERO PUSH2 0xBDF JUMPI DUP5 DUP10 ADD MLOAD PUSH2 0xBDB PUSH1 0x1F DUP10 AND DUP3 PUSH2 0xAE8 JUMP JUMPDEST DUP4 SSTORE POP JUMPDEST PUSH1 0x1 PUSH1 0x2 DUP9 MUL ADD DUP9 SSTORE POP POP POP JUMPDEST POP POP POP POP POP POP JUMP JUMPDEST PUSH32 0x4E487B7100000000000000000000000000000000000000000000000000000000 PUSH1 0x0 MSTORE PUSH1 0x31 PUSH1 0x4 MSTORE PUSH1 0x24 PUSH1 0x0 REVERT INVALID LOG2 PUSH5 0x6970667358 0x22 SLT KECCAK256 0xB8 CALLDATASIZE SLOAD CALLVALUE PUSH8 0xC2CCEFA3E78F9325 0xEA 0xDB 0xC8 0xE6 ADDMOD SWAP12 LOG0 DUP3 RETURNDATASIZE 0x4A 0xE5 DELEGATECALL PUSH22 0xA9CD8BEB8FB064736F6C634300081200330000000000 "
				},
				"gasEstimates": {
					"creation": {
						"codeDepositCost": "632200",
						"executionCost": "664",
						"totalCost": "632864"
					},
					"external": {
						"changeLet(uint256,string)": "infinite",
						"deleteLet(uint256)": "infinite",
						"getLength()": "2511",
						"getLetter(uint256)": "infinite",
						"pop()": "infinite",
						"push(string)": "infinite",
						"returnArray()": "infinite"
					}
				},
				"methodIdentifiers": {
					"changeLet(uint256,string)": "4765c137",
					"deleteLet(uint256)": "a4da2ffb",
					"getLength()": "be1c766b",
					"getLetter(uint256)": "96e583a9",
					"pop()": "a4ece52c",
					"push(string)": "4f3d057a",
					"returnArray()": "3cac14c8"
				}
			},
			"storageLayout": {
				"storage": [
					{
						"astId": 90,
						"contract": "contracts/230504_3.sol:Array_s",
						"label": "letters",
						"offset": 0,
						"slot": "0",
						"type": "t_array(t_string_storage)dyn_storage"
					}
				],
				"types": {
					"t_array(t_string_storage)dyn_storage": {
						"base": "t_string_storage",
						"encoding": "dynamic_array",
						"label": "string[]",
						"numberOfBytes": "32"
					},
					"t_string_storage": {
						"encoding": "bytes",
						"label": "string",
						"numberOfBytes": "32"
					}
				}
			},
			"userdoc": {
				"kind": "user",
				"methods": {},
				"version": 1
			}
		}
	}
}