{
	"contracts/230511_1.sol": {
		"Array": {
			"abi": [
				{
					"inputs": [
						{
							"internalType": "uint256",
							"name": "_num",
							"type": "uint256"
						}
					],
					"name": "AutoSetTen",
					"outputs": [],
					"stateMutability": "nonpayable",
					"type": "function"
				},
				{
					"inputs": [],
					"name": "addTen",
					"outputs": [
						{
							"internalType": "uint256",
							"name": "",
							"type": "uint256"
						}
					],
					"stateMutability": "view",
					"type": "function"
				},
				{
					"inputs": [
						{
							"internalType": "uint256",
							"name": "_num",
							"type": "uint256"
						}
					],
					"name": "setInfinty",
					"outputs": [],
					"stateMutability": "nonpayable",
					"type": "function"
				},
				{
					"inputs": [
						{
							"internalType": "uint256",
							"name": "_index",
							"type": "uint256"
						},
						{
							"internalType": "uint256",
							"name": "_num",
							"type": "uint256"
						}
					],
					"name": "setInfinty2",
					"outputs": [],
					"stateMutability": "nonpayable",
					"type": "function"
				},
				{
					"inputs": [
						{
							"internalType": "uint256",
							"name": "_num",
							"type": "uint256"
						},
						{
							"internalType": "uint256",
							"name": "_setNum",
							"type": "uint256"
						}
					],
					"name": "setTen",
					"outputs": [],
					"stateMutability": "nonpayable",
					"type": "function"
				}
			],
			"devdoc": {
				"kind": "dev",
				"methods": {},
				"version": 1
			},
			"evm": {
				"assembly": "    /* \"contracts/230511_1.sol\":966:1883  contract Array {... */\n  mstore(0x40, 0x80)\n  callvalue\n  dup1\n  iszero\n  tag_1\n  jumpi\n  0x00\n  dup1\n  revert\ntag_1:\n  pop\n  dataSize(sub_0)\n  dup1\n  dataOffset(sub_0)\n  0x00\n  codecopy\n  0x00\n  return\nstop\n\nsub_0: assembly {\n        /* \"contracts/230511_1.sol\":966:1883  contract Array {... */\n      mstore(0x40, 0x80)\n      callvalue\n      dup1\n      iszero\n      tag_1\n      jumpi\n      0x00\n      dup1\n      revert\n    tag_1:\n      pop\n      jumpi(tag_2, lt(calldatasize, 0x04))\n      shr(0xe0, calldataload(0x00))\n      dup1\n      0x1b0fd9ab\n      eq\n      tag_3\n      jumpi\n      dup1\n      0x33aaf284\n      eq\n      tag_4\n      jumpi\n      dup1\n      0x39e9d719\n      eq\n      tag_5\n      jumpi\n      dup1\n      0x8119b3df\n      eq\n      tag_6\n      jumpi\n      dup1\n      0x9fd39618\n      eq\n      tag_7\n      jumpi\n    tag_2:\n      0x00\n      dup1\n      revert\n        /* \"contracts/230511_1.sol\":1206:1291  function setTen(uint _num, uint _setNum)public {... */\n    tag_3:\n      tag_8\n      0x04\n      dup1\n      calldatasize\n      sub\n      dup2\n      add\n      swap1\n      tag_9\n      swap2\n      swap1\n      tag_10\n      jump\t// in\n    tag_9:\n      tag_11\n      jump\t// in\n    tag_8:\n      stop\n        /* \"contracts/230511_1.sol\":1700:1880  function addTen()public view returns(uint) {... */\n    tag_4:\n      tag_12\n      tag_13\n      jump\t// in\n    tag_12:\n      mload(0x40)\n      tag_14\n      swap2\n      swap1\n      tag_15\n      jump\t// in\n    tag_14:\n      mload(0x40)\n      dup1\n      swap2\n      sub\n      swap1\n      return\n        /* \"contracts/230511_1.sol\":1312:1386  function AutoSetTen(uint _num) public {... */\n    tag_5:\n      tag_16\n      0x04\n      dup1\n      calldatasize\n      sub\n      dup2\n      add\n      swap1\n      tag_17\n      swap2\n      swap1\n      tag_18\n      jump\t// in\n    tag_17:\n      tag_19\n      jump\t// in\n    tag_16:\n      stop\n        /* \"contracts/230511_1.sol\":1391:1465  function setInfinty(uint _num) public {... */\n    tag_6:\n      tag_20\n      0x04\n      dup1\n      calldatasize\n      sub\n      dup2\n      add\n      swap1\n      tag_21\n      swap2\n      swap1\n      tag_18\n      jump\t// in\n    tag_21:\n      tag_22\n      jump\t// in\n    tag_20:\n      stop\n        /* \"contracts/230511_1.sol\":1534:1626  function setInfinty2(uint _index,uint _num) public {... */\n    tag_7:\n      tag_23\n      0x04\n      dup1\n      calldatasize\n      sub\n      dup2\n      add\n      swap1\n      tag_24\n      swap2\n      swap1\n      tag_10\n      jump\t// in\n    tag_24:\n      tag_25\n      jump\t// in\n    tag_23:\n      stop\n        /* \"contracts/230511_1.sol\":1206:1291  function setTen(uint _num, uint _setNum)public {... */\n    tag_11:\n        /* \"contracts/230511_1.sol\":1277:1284  _setNum */\n      dup1\n        /* \"contracts/230511_1.sol\":1263:1266  ten */\n      0x00\n        /* \"contracts/230511_1.sol\":1272:1273  1 */\n      0x01\n        /* \"contracts/230511_1.sol\":1267:1271  _num */\n      dup5\n        /* \"contracts/230511_1.sol\":1267:1273  _num-1 */\n      tag_27\n      swap2\n      swap1\n      tag_28\n      jump\t// in\n    tag_27:\n        /* \"contracts/230511_1.sol\":1263:1274  ten[_num-1] */\n      0x0a\n      dup2\n      lt\n      tag_29\n      jumpi\n      tag_30\n      tag_31\n      jump\t// in\n    tag_30:\n    tag_29:\n      add\n        /* \"contracts/230511_1.sol\":1263:1284  ten[_num-1] = _setNum */\n      dup2\n      swap1\n      sstore\n      pop\n        /* \"contracts/230511_1.sol\":1206:1291  function setTen(uint _num, uint _setNum)public {... */\n      pop\n      pop\n      jump\t// out\n        /* \"contracts/230511_1.sol\":1700:1880  function addTen()public view returns(uint) {... */\n    tag_13:\n        /* \"contracts/230511_1.sol\":1737:1741  uint */\n      0x00\n        /* \"contracts/230511_1.sol\":1753:1765  uint outcome */\n      dup1\n        /* \"contracts/230511_1.sol\":1780:1786  uint i */\n      0x00\n        /* \"contracts/230511_1.sol\":1775:1850  for (uint i=0; i<9; i++){... */\n    tag_34:\n        /* \"contracts/230511_1.sol\":1792:1793  9 */\n      0x09\n        /* \"contracts/230511_1.sol\":1790:1791  i */\n      dup2\n        /* \"contracts/230511_1.sol\":1790:1793  i<9 */\n      lt\n        /* \"contracts/230511_1.sol\":1775:1850  for (uint i=0; i<9; i++){... */\n      iszero\n      tag_35\n      jumpi\n        /* \"contracts/230511_1.sol\":1833:1836  ten */\n      0x00\n        /* \"contracts/230511_1.sol\":1837:1838  i */\n      dup2\n        /* \"contracts/230511_1.sol\":1833:1839  ten[i] */\n      0x0a\n      dup2\n      lt\n      tag_37\n      jumpi\n      tag_38\n      tag_31\n      jump\t// in\n    tag_38:\n    tag_37:\n      add\n      sload\n        /* \"contracts/230511_1.sol\":1823:1830  outcome */\n      dup3\n        /* \"contracts/230511_1.sol\":1823:1839  outcome + ten[i] */\n      tag_40\n      swap2\n      swap1\n      tag_41\n      jump\t// in\n    tag_40:\n        /* \"contracts/230511_1.sol\":1813:1839  outcome = outcome + ten[i] */\n      swap2\n      pop\n        /* \"contracts/230511_1.sol\":1795:1798  i++ */\n      dup1\n      dup1\n      tag_42\n      swap1\n      tag_43\n      jump\t// in\n    tag_42:\n      swap2\n      pop\n      pop\n        /* \"contracts/230511_1.sol\":1775:1850  for (uint i=0; i<9; i++){... */\n      jump(tag_34)\n    tag_35:\n      pop\n        /* \"contracts/230511_1.sol\":1866:1873  outcome */\n      dup1\n        /* \"contracts/230511_1.sol\":1859:1873  return outcome */\n      swap2\n      pop\n      pop\n        /* \"contracts/230511_1.sol\":1700:1880  function addTen()public view returns(uint) {... */\n      swap1\n      jump\t// out\n        /* \"contracts/230511_1.sol\":1312:1386  function AutoSetTen(uint _num) public {... */\n    tag_19:\n        /* \"contracts/230511_1.sol\":1375:1379  _num */\n      dup1\n        /* \"contracts/230511_1.sol\":1360:1363  ten */\n      0x00\n        /* \"contracts/230511_1.sol\":1364:1369  count */\n      0x0b\n      0x00\n        /* \"contracts/230511_1.sol\":1364:1371  count++ */\n      dup2\n      sload\n      dup1\n      swap3\n      swap2\n      swap1\n      tag_45\n      swap1\n      tag_43\n      jump\t// in\n    tag_45:\n      swap2\n      swap1\n      pop\n      sstore\n        /* \"contracts/230511_1.sol\":1360:1372  ten[count++] */\n      0x0a\n      dup2\n      lt\n      tag_46\n      jumpi\n      tag_47\n      tag_31\n      jump\t// in\n    tag_47:\n    tag_46:\n      add\n        /* \"contracts/230511_1.sol\":1360:1379  ten[count++] = _num */\n      dup2\n      swap1\n      sstore\n      pop\n        /* \"contracts/230511_1.sol\":1312:1386  function AutoSetTen(uint _num) public {... */\n      pop\n      jump\t// out\n        /* \"contracts/230511_1.sol\":1391:1465  function setInfinty(uint _num) public {... */\n    tag_22:\n        /* \"contracts/230511_1.sol\":1439:1447  infinity */\n      0x0a\n        /* \"contracts/230511_1.sol\":1453:1457  _num */\n      dup2\n        /* \"contracts/230511_1.sol\":1439:1458  infinity.push(_num) */\n      swap1\n      dup1\n      0x01\n      dup2\n      sload\n      add\n      dup1\n      dup3\n      sstore\n      dup1\n      swap2\n      pop\n      pop\n      0x01\n      swap1\n      sub\n      swap1\n      0x00\n      mstore\n      keccak256(0x00, 0x20)\n      add\n      0x00\n      swap1\n      swap2\n      swap1\n      swap2\n      swap1\n      swap2\n      pop\n      sstore\n        /* \"contracts/230511_1.sol\":1391:1465  function setInfinty(uint _num) public {... */\n      pop\n      jump\t// out\n        /* \"contracts/230511_1.sol\":1534:1626  function setInfinty2(uint _index,uint _num) public {... */\n    tag_25:\n        /* \"contracts/230511_1.sol\":1615:1619  _num */\n      dup1\n        /* \"contracts/230511_1.sol\":1595:1603  infinity */\n      0x0a\n        /* \"contracts/230511_1.sol\":1611:1612  1 */\n      0x01\n        /* \"contracts/230511_1.sol\":1604:1610  _index */\n      dup5\n        /* \"contracts/230511_1.sol\":1604:1612  _index-1 */\n      tag_52\n      swap2\n      swap1\n      tag_28\n      jump\t// in\n    tag_52:\n        /* \"contracts/230511_1.sol\":1595:1613  infinity[_index-1] */\n      dup2\n      sload\n      dup2\n      lt\n      tag_53\n      jumpi\n      tag_54\n      tag_31\n      jump\t// in\n    tag_54:\n    tag_53:\n      swap1\n      0x00\n      mstore\n      keccak256(0x00, 0x20)\n      add\n        /* \"contracts/230511_1.sol\":1595:1619  infinity[_index-1]= _num */\n      dup2\n      swap1\n      sstore\n      pop\n        /* \"contracts/230511_1.sol\":1534:1626  function setInfinty2(uint _index,uint _num) public {... */\n      pop\n      pop\n      jump\t// out\n        /* \"#utility.yul\":88:205   */\n    tag_57:\n        /* \"#utility.yul\":197:198   */\n      0x00\n        /* \"#utility.yul\":194:195   */\n      dup1\n        /* \"#utility.yul\":187:199   */\n      revert\n        /* \"#utility.yul\":334:411   */\n    tag_59:\n        /* \"#utility.yul\":371:378   */\n      0x00\n        /* \"#utility.yul\":400:405   */\n      dup2\n        /* \"#utility.yul\":389:405   */\n      swap1\n      pop\n        /* \"#utility.yul\":334:411   */\n      swap2\n      swap1\n      pop\n      jump\t// out\n        /* \"#utility.yul\":417:539   */\n    tag_60:\n        /* \"#utility.yul\":490:514   */\n      tag_70\n        /* \"#utility.yul\":508:513   */\n      dup2\n        /* \"#utility.yul\":490:514   */\n      tag_59\n      jump\t// in\n    tag_70:\n        /* \"#utility.yul\":483:488   */\n      dup2\n        /* \"#utility.yul\":480:515   */\n      eq\n        /* \"#utility.yul\":470:533   */\n      tag_71\n      jumpi\n        /* \"#utility.yul\":529:530   */\n      0x00\n        /* \"#utility.yul\":526:527   */\n      dup1\n        /* \"#utility.yul\":519:531   */\n      revert\n        /* \"#utility.yul\":470:533   */\n    tag_71:\n        /* \"#utility.yul\":417:539   */\n      pop\n      jump\t// out\n        /* \"#utility.yul\":545:684   */\n    tag_61:\n        /* \"#utility.yul\":591:596   */\n      0x00\n        /* \"#utility.yul\":629:635   */\n      dup2\n        /* \"#utility.yul\":616:636   */\n      calldataload\n        /* \"#utility.yul\":607:636   */\n      swap1\n      pop\n        /* \"#utility.yul\":645:678   */\n      tag_73\n        /* \"#utility.yul\":672:677   */\n      dup2\n        /* \"#utility.yul\":645:678   */\n      tag_60\n      jump\t// in\n    tag_73:\n        /* \"#utility.yul\":545:684   */\n      swap3\n      swap2\n      pop\n      pop\n      jump\t// out\n        /* \"#utility.yul\":690:1164   */\n    tag_10:\n        /* \"#utility.yul\":758:764   */\n      0x00\n        /* \"#utility.yul\":766:772   */\n      dup1\n        /* \"#utility.yul\":815:817   */\n      0x40\n        /* \"#utility.yul\":803:812   */\n      dup4\n        /* \"#utility.yul\":794:801   */\n      dup6\n        /* \"#utility.yul\":790:813   */\n      sub\n        /* \"#utility.yul\":786:818   */\n      slt\n        /* \"#utility.yul\":783:902   */\n      iszero\n      tag_75\n      jumpi\n        /* \"#utility.yul\":821:900   */\n      tag_76\n      tag_57\n      jump\t// in\n    tag_76:\n        /* \"#utility.yul\":783:902   */\n    tag_75:\n        /* \"#utility.yul\":941:942   */\n      0x00\n        /* \"#utility.yul\":966:1019   */\n      tag_77\n        /* \"#utility.yul\":1011:1018   */\n      dup6\n        /* \"#utility.yul\":1002:1008   */\n      dup3\n        /* \"#utility.yul\":991:1000   */\n      dup7\n        /* \"#utility.yul\":987:1009   */\n      add\n        /* \"#utility.yul\":966:1019   */\n      tag_61\n      jump\t// in\n    tag_77:\n        /* \"#utility.yul\":956:1019   */\n      swap3\n      pop\n        /* \"#utility.yul\":912:1029   */\n      pop\n        /* \"#utility.yul\":1068:1070   */\n      0x20\n        /* \"#utility.yul\":1094:1147   */\n      tag_78\n        /* \"#utility.yul\":1139:1146   */\n      dup6\n        /* \"#utility.yul\":1130:1136   */\n      dup3\n        /* \"#utility.yul\":1119:1128   */\n      dup7\n        /* \"#utility.yul\":1115:1137   */\n      add\n        /* \"#utility.yul\":1094:1147   */\n      tag_61\n      jump\t// in\n    tag_78:\n        /* \"#utility.yul\":1084:1147   */\n      swap2\n      pop\n        /* \"#utility.yul\":1039:1157   */\n      pop\n        /* \"#utility.yul\":690:1164   */\n      swap3\n      pop\n      swap3\n      swap1\n      pop\n      jump\t// out\n        /* \"#utility.yul\":1170:1288   */\n    tag_62:\n        /* \"#utility.yul\":1257:1281   */\n      tag_80\n        /* \"#utility.yul\":1275:1280   */\n      dup2\n        /* \"#utility.yul\":1257:1281   */\n      tag_59\n      jump\t// in\n    tag_80:\n        /* \"#utility.yul\":1252:1255   */\n      dup3\n        /* \"#utility.yul\":1245:1282   */\n      mstore\n        /* \"#utility.yul\":1170:1288   */\n      pop\n      pop\n      jump\t// out\n        /* \"#utility.yul\":1294:1516   */\n    tag_15:\n        /* \"#utility.yul\":1387:1391   */\n      0x00\n        /* \"#utility.yul\":1425:1427   */\n      0x20\n        /* \"#utility.yul\":1414:1423   */\n      dup3\n        /* \"#utility.yul\":1410:1428   */\n      add\n        /* \"#utility.yul\":1402:1428   */\n      swap1\n      pop\n        /* \"#utility.yul\":1438:1509   */\n      tag_82\n        /* \"#utility.yul\":1506:1507   */\n      0x00\n        /* \"#utility.yul\":1495:1504   */\n      dup4\n        /* \"#utility.yul\":1491:1508   */\n      add\n        /* \"#utility.yul\":1482:1488   */\n      dup5\n        /* \"#utility.yul\":1438:1509   */\n      tag_62\n      jump\t// in\n    tag_82:\n        /* \"#utility.yul\":1294:1516   */\n      swap3\n      swap2\n      pop\n      pop\n      jump\t// out\n        /* \"#utility.yul\":1522:1851   */\n    tag_18:\n        /* \"#utility.yul\":1581:1587   */\n      0x00\n        /* \"#utility.yul\":1630:1632   */\n      0x20\n        /* \"#utility.yul\":1618:1627   */\n      dup3\n        /* \"#utility.yul\":1609:1616   */\n      dup5\n        /* \"#utility.yul\":1605:1628   */\n      sub\n        /* \"#utility.yul\":1601:1633   */\n      slt\n        /* \"#utility.yul\":1598:1717   */\n      iszero\n      tag_84\n      jumpi\n        /* \"#utility.yul\":1636:1715   */\n      tag_85\n      tag_57\n      jump\t// in\n    tag_85:\n        /* \"#utility.yul\":1598:1717   */\n    tag_84:\n        /* \"#utility.yul\":1756:1757   */\n      0x00\n        /* \"#utility.yul\":1781:1834   */\n      tag_86\n        /* \"#utility.yul\":1826:1833   */\n      dup5\n        /* \"#utility.yul\":1817:1823   */\n      dup3\n        /* \"#utility.yul\":1806:1815   */\n      dup6\n        /* \"#utility.yul\":1802:1824   */\n      add\n        /* \"#utility.yul\":1781:1834   */\n      tag_61\n      jump\t// in\n    tag_86:\n        /* \"#utility.yul\":1771:1834   */\n      swap2\n      pop\n        /* \"#utility.yul\":1727:1844   */\n      pop\n        /* \"#utility.yul\":1522:1851   */\n      swap3\n      swap2\n      pop\n      pop\n      jump\t// out\n        /* \"#utility.yul\":1857:2037   */\n    tag_63:\n        /* \"#utility.yul\":1905:1982   */\n      0x4e487b7100000000000000000000000000000000000000000000000000000000\n        /* \"#utility.yul\":1902:1903   */\n      0x00\n        /* \"#utility.yul\":1895:1983   */\n      mstore\n        /* \"#utility.yul\":2002:2006   */\n      0x11\n        /* \"#utility.yul\":1999:2000   */\n      0x04\n        /* \"#utility.yul\":1992:2007   */\n      mstore\n        /* \"#utility.yul\":2026:2030   */\n      0x24\n        /* \"#utility.yul\":2023:2024   */\n      0x00\n        /* \"#utility.yul\":2016:2031   */\n      revert\n        /* \"#utility.yul\":2043:2237   */\n    tag_28:\n        /* \"#utility.yul\":2083:2087   */\n      0x00\n        /* \"#utility.yul\":2103:2123   */\n      tag_89\n        /* \"#utility.yul\":2121:2122   */\n      dup3\n        /* \"#utility.yul\":2103:2123   */\n      tag_59\n      jump\t// in\n    tag_89:\n        /* \"#utility.yul\":2098:2123   */\n      swap2\n      pop\n        /* \"#utility.yul\":2137:2157   */\n      tag_90\n        /* \"#utility.yul\":2155:2156   */\n      dup4\n        /* \"#utility.yul\":2137:2157   */\n      tag_59\n      jump\t// in\n    tag_90:\n        /* \"#utility.yul\":2132:2157   */\n      swap3\n      pop\n        /* \"#utility.yul\":2181:2182   */\n      dup3\n        /* \"#utility.yul\":2178:2179   */\n      dup3\n        /* \"#utility.yul\":2174:2183   */\n      sub\n        /* \"#utility.yul\":2166:2183   */\n      swap1\n      pop\n        /* \"#utility.yul\":2205:2206   */\n      dup2\n        /* \"#utility.yul\":2199:2203   */\n      dup2\n        /* \"#utility.yul\":2196:2207   */\n      gt\n        /* \"#utility.yul\":2193:2230   */\n      iszero\n      tag_91\n      jumpi\n        /* \"#utility.yul\":2210:2228   */\n      tag_92\n      tag_63\n      jump\t// in\n    tag_92:\n        /* \"#utility.yul\":2193:2230   */\n    tag_91:\n        /* \"#utility.yul\":2043:2237   */\n      swap3\n      swap2\n      pop\n      pop\n      jump\t// out\n        /* \"#utility.yul\":2243:2423   */\n    tag_31:\n        /* \"#utility.yul\":2291:2368   */\n      0x4e487b7100000000000000000000000000000000000000000000000000000000\n        /* \"#utility.yul\":2288:2289   */\n      0x00\n        /* \"#utility.yul\":2281:2369   */\n      mstore\n        /* \"#utility.yul\":2388:2392   */\n      0x32\n        /* \"#utility.yul\":2385:2386   */\n      0x04\n        /* \"#utility.yul\":2378:2393   */\n      mstore\n        /* \"#utility.yul\":2412:2416   */\n      0x24\n        /* \"#utility.yul\":2409:2410   */\n      0x00\n        /* \"#utility.yul\":2402:2417   */\n      revert\n        /* \"#utility.yul\":2429:2620   */\n    tag_41:\n        /* \"#utility.yul\":2469:2472   */\n      0x00\n        /* \"#utility.yul\":2488:2508   */\n      tag_95\n        /* \"#utility.yul\":2506:2507   */\n      dup3\n        /* \"#utility.yul\":2488:2508   */\n      tag_59\n      jump\t// in\n    tag_95:\n        /* \"#utility.yul\":2483:2508   */\n      swap2\n      pop\n        /* \"#utility.yul\":2522:2542   */\n      tag_96\n        /* \"#utility.yul\":2540:2541   */\n      dup4\n        /* \"#utility.yul\":2522:2542   */\n      tag_59\n      jump\t// in\n    tag_96:\n        /* \"#utility.yul\":2517:2542   */\n      swap3\n      pop\n        /* \"#utility.yul\":2565:2566   */\n      dup3\n        /* \"#utility.yul\":2562:2563   */\n      dup3\n        /* \"#utility.yul\":2558:2567   */\n      add\n        /* \"#utility.yul\":2551:2567   */\n      swap1\n      pop\n        /* \"#utility.yul\":2586:2589   */\n      dup1\n        /* \"#utility.yul\":2583:2584   */\n      dup3\n        /* \"#utility.yul\":2580:2590   */\n      gt\n        /* \"#utility.yul\":2577:2613   */\n      iszero\n      tag_97\n      jumpi\n        /* \"#utility.yul\":2593:2611   */\n      tag_98\n      tag_63\n      jump\t// in\n    tag_98:\n        /* \"#utility.yul\":2577:2613   */\n    tag_97:\n        /* \"#utility.yul\":2429:2620   */\n      swap3\n      swap2\n      pop\n      pop\n      jump\t// out\n        /* \"#utility.yul\":2626:2859   */\n    tag_43:\n        /* \"#utility.yul\":2665:2668   */\n      0x00\n        /* \"#utility.yul\":2688:2712   */\n      tag_100\n        /* \"#utility.yul\":2706:2711   */\n      dup3\n        /* \"#utility.yul\":2688:2712   */\n      tag_59\n      jump\t// in\n    tag_100:\n        /* \"#utility.yul\":2679:2712   */\n      swap2\n      pop\n        /* \"#utility.yul\":2734:2800   */\n      0xffffffffffffffffffffffffffffffffffffffffffffffffffffffffffffffff\n        /* \"#utility.yul\":2727:2732   */\n      dup3\n        /* \"#utility.yul\":2724:2801   */\n      sub\n        /* \"#utility.yul\":2721:2824   */\n      tag_101\n      jumpi\n        /* \"#utility.yul\":2804:2822   */\n      tag_102\n      tag_63\n      jump\t// in\n    tag_102:\n        /* \"#utility.yul\":2721:2824   */\n    tag_101:\n        /* \"#utility.yul\":2851:2852   */\n      0x01\n        /* \"#utility.yul\":2844:2849   */\n      dup3\n        /* \"#utility.yul\":2840:2853   */\n      add\n        /* \"#utility.yul\":2833:2853   */\n      swap1\n      pop\n        /* \"#utility.yul\":2626:2859   */\n      swap2\n      swap1\n      pop\n      jump\t// out\n\n    auxdata: 0xa264697066735822122086f43925bfe90528639adc9fa1671ddae6b198276504e241bc4c847fc672a3ac64736f6c63430008120033\n}\n",
				"bytecode": {
					"linkReferences": {},
					"object": "608060405234801561001057600080fd5b50610409806100206000396000f3fe608060405234801561001057600080fd5b50600436106100575760003560e01c80631b0fd9ab1461005c57806333aaf2841461007857806339e9d719146100965780638119b3df146100b25780639fd39618146100ce575b600080fd5b6100766004803603810190610071919061022e565b6100ea565b005b610080610114565b60405161008d919061027d565b60405180910390f35b6100b060048036038101906100ab9190610298565b610161565b005b6100cc60048036038101906100c79190610298565b610194565b005b6100e860048036038101906100e3919061022e565b6101c0565b005b8060006001846100fa91906102f4565b600a811061010b5761010a610328565b5b01819055505050565b60008060005b600981101561015957600081600a811061013757610136610328565b5b0154826101449190610357565b915080806101519061038b565b91505061011a565b508091505090565b806000600b60008154809291906101779061038b565b91905055600a811061018c5761018b610328565b5b018190555050565b600a81908060018154018082558091505060019003906000526020600020016000909190919091505550565b80600a6001846101d091906102f4565b815481106101e1576101e0610328565b5b90600052602060002001819055505050565b600080fd5b6000819050919050565b61020b816101f8565b811461021657600080fd5b50565b60008135905061022881610202565b92915050565b60008060408385031215610245576102446101f3565b5b600061025385828601610219565b925050602061026485828601610219565b9150509250929050565b610277816101f8565b82525050565b6000602082019050610292600083018461026e565b92915050565b6000602082840312156102ae576102ad6101f3565b5b60006102bc84828501610219565b91505092915050565b7f4e487b7100000000000000000000000000000000000000000000000000000000600052601160045260246000fd5b60006102ff826101f8565b915061030a836101f8565b9250828203905081811115610322576103216102c5565b5b92915050565b7f4e487b7100000000000000000000000000000000000000000000000000000000600052603260045260246000fd5b6000610362826101f8565b915061036d836101f8565b9250828201905080821115610385576103846102c5565b5b92915050565b6000610396826101f8565b91507fffffffffffffffffffffffffffffffffffffffffffffffffffffffffffffffff82036103c8576103c76102c5565b5b60018201905091905056fea264697066735822122086f43925bfe90528639adc9fa1671ddae6b198276504e241bc4c847fc672a3ac64736f6c63430008120033",
					"opcodes": "PUSH1 0x80 PUSH1 0x40 MSTORE CALLVALUE DUP1 ISZERO PUSH2 0x10 JUMPI PUSH1 0x0 DUP1 REVERT JUMPDEST POP PUSH2 0x409 DUP1 PUSH2 0x20 PUSH1 0x0 CODECOPY PUSH1 0x0 RETURN INVALID PUSH1 0x80 PUSH1 0x40 MSTORE CALLVALUE DUP1 ISZERO PUSH2 0x10 JUMPI PUSH1 0x0 DUP1 REVERT JUMPDEST POP PUSH1 0x4 CALLDATASIZE LT PUSH2 0x57 JUMPI PUSH1 0x0 CALLDATALOAD PUSH1 0xE0 SHR DUP1 PUSH4 0x1B0FD9AB EQ PUSH2 0x5C JUMPI DUP1 PUSH4 0x33AAF284 EQ PUSH2 0x78 JUMPI DUP1 PUSH4 0x39E9D719 EQ PUSH2 0x96 JUMPI DUP1 PUSH4 0x8119B3DF EQ PUSH2 0xB2 JUMPI DUP1 PUSH4 0x9FD39618 EQ PUSH2 0xCE JUMPI JUMPDEST PUSH1 0x0 DUP1 REVERT JUMPDEST PUSH2 0x76 PUSH1 0x4 DUP1 CALLDATASIZE SUB DUP2 ADD SWAP1 PUSH2 0x71 SWAP2 SWAP1 PUSH2 0x22E JUMP JUMPDEST PUSH2 0xEA JUMP JUMPDEST STOP JUMPDEST PUSH2 0x80 PUSH2 0x114 JUMP JUMPDEST PUSH1 0x40 MLOAD PUSH2 0x8D SWAP2 SWAP1 PUSH2 0x27D JUMP JUMPDEST PUSH1 0x40 MLOAD DUP1 SWAP2 SUB SWAP1 RETURN JUMPDEST PUSH2 0xB0 PUSH1 0x4 DUP1 CALLDATASIZE SUB DUP2 ADD SWAP1 PUSH2 0xAB SWAP2 SWAP1 PUSH2 0x298 JUMP JUMPDEST PUSH2 0x161 JUMP JUMPDEST STOP JUMPDEST PUSH2 0xCC PUSH1 0x4 DUP1 CALLDATASIZE SUB DUP2 ADD SWAP1 PUSH2 0xC7 SWAP2 SWAP1 PUSH2 0x298 JUMP JUMPDEST PUSH2 0x194 JUMP JUMPDEST STOP JUMPDEST PUSH2 0xE8 PUSH1 0x4 DUP1 CALLDATASIZE SUB DUP2 ADD SWAP1 PUSH2 0xE3 SWAP2 SWAP1 PUSH2 0x22E JUMP JUMPDEST PUSH2 0x1C0 JUMP JUMPDEST STOP JUMPDEST DUP1 PUSH1 0x0 PUSH1 0x1 DUP5 PUSH2 0xFA SWAP2 SWAP1 PUSH2 0x2F4 JUMP JUMPDEST PUSH1 0xA DUP2 LT PUSH2 0x10B JUMPI PUSH2 0x10A PUSH2 0x328 JUMP JUMPDEST JUMPDEST ADD DUP2 SWAP1 SSTORE POP POP POP JUMP JUMPDEST PUSH1 0x0 DUP1 PUSH1 0x0 JUMPDEST PUSH1 0x9 DUP2 LT ISZERO PUSH2 0x159 JUMPI PUSH1 0x0 DUP2 PUSH1 0xA DUP2 LT PUSH2 0x137 JUMPI PUSH2 0x136 PUSH2 0x328 JUMP JUMPDEST JUMPDEST ADD SLOAD DUP3 PUSH2 0x144 SWAP2 SWAP1 PUSH2 0x357 JUMP JUMPDEST SWAP2 POP DUP1 DUP1 PUSH2 0x151 SWAP1 PUSH2 0x38B JUMP JUMPDEST SWAP2 POP POP PUSH2 0x11A JUMP JUMPDEST POP DUP1 SWAP2 POP POP SWAP1 JUMP JUMPDEST DUP1 PUSH1 0x0 PUSH1 0xB PUSH1 0x0 DUP2 SLOAD DUP1 SWAP3 SWAP2 SWAP1 PUSH2 0x177 SWAP1 PUSH2 0x38B JUMP JUMPDEST SWAP2 SWAP1 POP SSTORE PUSH1 0xA DUP2 LT PUSH2 0x18C JUMPI PUSH2 0x18B PUSH2 0x328 JUMP JUMPDEST JUMPDEST ADD DUP2 SWAP1 SSTORE POP POP JUMP JUMPDEST PUSH1 0xA DUP2 SWAP1 DUP1 PUSH1 0x1 DUP2 SLOAD ADD DUP1 DUP3 SSTORE DUP1 SWAP2 POP POP PUSH1 0x1 SWAP1 SUB SWAP1 PUSH1 0x0 MSTORE PUSH1 0x20 PUSH1 0x0 KECCAK256 ADD PUSH1 0x0 SWAP1 SWAP2 SWAP1 SWAP2 SWAP1 SWAP2 POP SSTORE POP JUMP JUMPDEST DUP1 PUSH1 0xA PUSH1 0x1 DUP5 PUSH2 0x1D0 SWAP2 SWAP1 PUSH2 0x2F4 JUMP JUMPDEST DUP2 SLOAD DUP2 LT PUSH2 0x1E1 JUMPI PUSH2 0x1E0 PUSH2 0x328 JUMP JUMPDEST JUMPDEST SWAP1 PUSH1 0x0 MSTORE PUSH1 0x20 PUSH1 0x0 KECCAK256 ADD DUP2 SWAP1 SSTORE POP POP POP JUMP JUMPDEST PUSH1 0x0 DUP1 REVERT JUMPDEST PUSH1 0x0 DUP2 SWAP1 POP SWAP2 SWAP1 POP JUMP JUMPDEST PUSH2 0x20B DUP2 PUSH2 0x1F8 JUMP JUMPDEST DUP2 EQ PUSH2 0x216 JUMPI PUSH1 0x0 DUP1 REVERT JUMPDEST POP JUMP JUMPDEST PUSH1 0x0 DUP2 CALLDATALOAD SWAP1 POP PUSH2 0x228 DUP2 PUSH2 0x202 JUMP JUMPDEST SWAP3 SWAP2 POP POP JUMP JUMPDEST PUSH1 0x0 DUP1 PUSH1 0x40 DUP4 DUP6 SUB SLT ISZERO PUSH2 0x245 JUMPI PUSH2 0x244 PUSH2 0x1F3 JUMP JUMPDEST JUMPDEST PUSH1 0x0 PUSH2 0x253 DUP6 DUP3 DUP7 ADD PUSH2 0x219 JUMP JUMPDEST SWAP3 POP POP PUSH1 0x20 PUSH2 0x264 DUP6 DUP3 DUP7 ADD PUSH2 0x219 JUMP JUMPDEST SWAP2 POP POP SWAP3 POP SWAP3 SWAP1 POP JUMP JUMPDEST PUSH2 0x277 DUP2 PUSH2 0x1F8 JUMP JUMPDEST DUP3 MSTORE POP POP JUMP JUMPDEST PUSH1 0x0 PUSH1 0x20 DUP3 ADD SWAP1 POP PUSH2 0x292 PUSH1 0x0 DUP4 ADD DUP5 PUSH2 0x26E JUMP JUMPDEST SWAP3 SWAP2 POP POP JUMP JUMPDEST PUSH1 0x0 PUSH1 0x20 DUP3 DUP5 SUB SLT ISZERO PUSH2 0x2AE JUMPI PUSH2 0x2AD PUSH2 0x1F3 JUMP JUMPDEST JUMPDEST PUSH1 0x0 PUSH2 0x2BC DUP5 DUP3 DUP6 ADD PUSH2 0x219 JUMP JUMPDEST SWAP2 POP POP SWAP3 SWAP2 POP POP JUMP JUMPDEST PUSH32 0x4E487B7100000000000000000000000000000000000000000000000000000000 PUSH1 0x0 MSTORE PUSH1 0x11 PUSH1 0x4 MSTORE PUSH1 0x24 PUSH1 0x0 REVERT JUMPDEST PUSH1 0x0 PUSH2 0x2FF DUP3 PUSH2 0x1F8 JUMP JUMPDEST SWAP2 POP PUSH2 0x30A DUP4 PUSH2 0x1F8 JUMP JUMPDEST SWAP3 POP DUP3 DUP3 SUB SWAP1 POP DUP2 DUP2 GT ISZERO PUSH2 0x322 JUMPI PUSH2 0x321 PUSH2 0x2C5 JUMP JUMPDEST JUMPDEST SWAP3 SWAP2 POP POP JUMP JUMPDEST PUSH32 0x4E487B7100000000000000000000000000000000000000000000000000000000 PUSH1 0x0 MSTORE PUSH1 0x32 PUSH1 0x4 MSTORE PUSH1 0x24 PUSH1 0x0 REVERT JUMPDEST PUSH1 0x0 PUSH2 0x362 DUP3 PUSH2 0x1F8 JUMP JUMPDEST SWAP2 POP PUSH2 0x36D DUP4 PUSH2 0x1F8 JUMP JUMPDEST SWAP3 POP DUP3 DUP3 ADD SWAP1 POP DUP1 DUP3 GT ISZERO PUSH2 0x385 JUMPI PUSH2 0x384 PUSH2 0x2C5 JUMP JUMPDEST JUMPDEST SWAP3 SWAP2 POP POP JUMP JUMPDEST PUSH1 0x0 PUSH2 0x396 DUP3 PUSH2 0x1F8 JUMP JUMPDEST SWAP2 POP PUSH32 0xFFFFFFFFFFFFFFFFFFFFFFFFFFFFFFFFFFFFFFFFFFFFFFFFFFFFFFFFFFFFFFFF DUP3 SUB PUSH2 0x3C8 JUMPI PUSH2 0x3C7 PUSH2 0x2C5 JUMP JUMPDEST JUMPDEST PUSH1 0x1 DUP3 ADD SWAP1 POP SWAP2 SWAP1 POP JUMP INVALID LOG2 PUSH5 0x6970667358 0x22 SLT KECCAK256 DUP7 DELEGATECALL CODECOPY 0x25 0xBF 0xE9 SDIV 0x28 PUSH4 0x9ADC9FA1 PUSH8 0x1DDAE6B198276504 0xE2 COINBASE 0xBC 0x4C DUP5 PUSH32 0xC672A3AC64736F6C634300081200330000000000000000000000000000000000 "
				},
				"gasEstimates": {
					"creation": {
						"codeDepositCost": "206600",
						"executionCost": "251",
						"totalCost": "206851"
					},
					"external": {
						"AutoSetTen(uint256)": "infinite",
						"addTen()": "infinite",
						"setInfinty(uint256)": "46873",
						"setInfinty2(uint256,uint256)": "infinite",
						"setTen(uint256,uint256)": "infinite"
					}
				},
				"methodIdentifiers": {
					"AutoSetTen(uint256)": "39e9d719",
					"addTen()": "33aaf284",
					"setInfinty(uint256)": "8119b3df",
					"setInfinty2(uint256,uint256)": "9fd39618",
					"setTen(uint256,uint256)": "1b0fd9ab"
				}
			},
			"storageLayout": {
				"storage": [
					{
						"astId": 90,
						"contract": "contracts/230511_1.sol:Array",
						"label": "ten",
						"offset": 0,
						"slot": "0",
						"type": "t_array(t_uint256)10_storage"
					},
					{
						"astId": 93,
						"contract": "contracts/230511_1.sol:Array",
						"label": "infinity",
						"offset": 0,
						"slot": "10",
						"type": "t_array(t_uint256)dyn_storage"
					},
					{
						"astId": 111,
						"contract": "contracts/230511_1.sol:Array",
						"label": "count",
						"offset": 0,
						"slot": "11",
						"type": "t_uint256"
					}
				],
				"types": {
					"t_array(t_uint256)10_storage": {
						"base": "t_uint256",
						"encoding": "inplace",
						"label": "uint256[10]",
						"numberOfBytes": "320"
					},
					"t_array(t_uint256)dyn_storage": {
						"base": "t_uint256",
						"encoding": "dynamic_array",
						"label": "uint256[]",
						"numberOfBytes": "32"
					},
					"t_uint256": {
						"encoding": "inplace",
						"label": "uint256",
						"numberOfBytes": "32"
					}
				}
			},
			"userdoc": {
				"kind": "user",
				"methods": {},
				"version": 1
			}
		}
	}
}