{
	"contracts/230509_1.sol": {
		"MAPPING": {
			"abi": [
				{
					"inputs": [
						{
							"internalType": "string",
							"name": "_key",
							"type": "string"
						}
					],
					"name": "getB",
					"outputs": [
						{
							"internalType": "uint256",
							"name": "",
							"type": "uint256"
						}
					],
					"stateMutability": "view",
					"type": "function"
				},
				{
					"inputs": [
						{
							"internalType": "bytes",
							"name": "_key",
							"type": "bytes"
						}
					],
					"name": "getC",
					"outputs": [
						{
							"internalType": "uint256",
							"name": "",
							"type": "uint256"
						}
					],
					"stateMutability": "view",
					"type": "function"
				},
				{
					"inputs": [
						{
							"internalType": "string",
							"name": "_Teacher",
							"type": "string"
						}
					],
					"name": "getTeacher_Student",
					"outputs": [
						{
							"components": [
								{
									"internalType": "uint256",
									"name": "number",
									"type": "uint256"
								},
								{
									"internalType": "string",
									"name": "name",
									"type": "string"
								},
								{
									"internalType": "string[]",
									"name": "classes",
									"type": "string[]"
								}
							],
							"internalType": "struct MAPPING.Student",
							"name": "",
							"type": "tuple"
						}
					],
					"stateMutability": "view",
					"type": "function"
				},
				{
					"inputs": [
						{
							"internalType": "string",
							"name": "_key",
							"type": "string"
						},
						{
							"internalType": "uint256",
							"name": "_value",
							"type": "uint256"
						}
					],
					"name": "setB",
					"outputs": [],
					"stateMutability": "nonpayable",
					"type": "function"
				},
				{
					"inputs": [
						{
							"internalType": "bytes",
							"name": "_key",
							"type": "bytes"
						},
						{
							"internalType": "uint256",
							"name": "_value",
							"type": "uint256"
						}
					],
					"name": "setC",
					"outputs": [],
					"stateMutability": "nonpayable",
					"type": "function"
				},
				{
					"inputs": [
						{
							"internalType": "string",
							"name": "_Teacher",
							"type": "string"
						},
						{
							"internalType": "uint256",
							"name": "_number",
							"type": "uint256"
						},
						{
							"internalType": "string",
							"name": "_name",
							"type": "string"
						},
						{
							"internalType": "string[]",
							"name": "_classes",
							"type": "string[]"
						}
					],
					"name": "setTeacher_Student",
					"outputs": [],
					"stateMutability": "nonpayable",
					"type": "function"
				}
			],
			"devdoc": {
				"kind": "dev",
				"methods": {},
				"version": 1
			},
			"evm": {
				"assembly": "    /* \"contracts/230509_1.sol\":3969:5162  contract MAPPING {... */\n  mstore(0x40, 0x80)\n  callvalue\n  dup1\n  iszero\n  tag_1\n  jumpi\n  0x00\n  dup1\n  revert\ntag_1:\n  pop\n  dataSize(sub_0)\n  dup1\n  dataOffset(sub_0)\n  0x00\n  codecopy\n  0x00\n  return\nstop\n\nsub_0: assembly {\n        /* \"contracts/230509_1.sol\":3969:5162  contract MAPPING {... */\n      mstore(0x40, 0x80)\n      callvalue\n      dup1\n      iszero\n      tag_1\n      jumpi\n      0x00\n      dup1\n      revert\n    tag_1:\n      pop\n      jumpi(tag_2, lt(calldatasize, 0x04))\n      shr(0xe0, calldataload(0x00))\n      dup1\n      0xad33ed\n      eq\n      tag_3\n      jumpi\n      dup1\n      0x13465f12\n      eq\n      tag_4\n      jumpi\n      dup1\n      0x9aa937ca\n      eq\n      tag_5\n      jumpi\n      dup1\n      0xa82ad90e\n      eq\n      tag_6\n      jumpi\n      dup1\n      0xabe7405e\n      eq\n      tag_7\n      jumpi\n      dup1\n      0xc013118f\n      eq\n      tag_8\n      jumpi\n    tag_2:\n      0x00\n      dup1\n      revert\n        /* \"contracts/230509_1.sol\":4339:4480  function getB(string memory _key) public view returns(uint) {... */\n    tag_3:\n      tag_9\n      0x04\n      dup1\n      calldatasize\n      sub\n      dup2\n      add\n      swap1\n      tag_10\n      swap2\n      swap1\n      tag_11\n      jump\t// in\n    tag_10:\n      tag_12\n      jump\t// in\n    tag_9:\n      mload(0x40)\n      tag_13\n      swap2\n      swap1\n      tag_14\n      jump\t// in\n    tag_13:\n      mload(0x40)\n      dup1\n      swap2\n      sub\n      swap1\n      return\n        /* \"contracts/230509_1.sol\":4209:4333  function setB(string memory _key, uint _value) public {... */\n    tag_4:\n      tag_15\n      0x04\n      dup1\n      calldatasize\n      sub\n      dup2\n      add\n      swap1\n      tag_16\n      swap2\n      swap1\n      tag_17\n      jump\t// in\n    tag_16:\n      tag_18\n      jump\t// in\n    tag_15:\n      stop\n        /* \"contracts/230509_1.sol\":4486:4572  function setC(bytes memory _key, uint _value) public {... */\n    tag_5:\n      tag_19\n      0x04\n      dup1\n      calldatasize\n      sub\n      dup2\n      add\n      swap1\n      tag_20\n      swap2\n      swap1\n      tag_21\n      jump\t// in\n    tag_20:\n      tag_22\n      jump\t// in\n    tag_19:\n      stop\n        /* \"contracts/230509_1.sol\":4578:4668  function getC(bytes memory _key) public view returns(uint) {... */\n    tag_6:\n      tag_23\n      0x04\n      dup1\n      calldatasize\n      sub\n      dup2\n      add\n      swap1\n      tag_24\n      swap2\n      swap1\n      tag_25\n      jump\t// in\n    tag_24:\n      tag_26\n      jump\t// in\n    tag_23:\n      mload(0x40)\n      tag_27\n      swap2\n      swap1\n      tag_14\n      jump\t// in\n    tag_27:\n      mload(0x40)\n      dup1\n      swap2\n      sub\n      swap1\n      return\n        /* \"contracts/230509_1.sol\":4819:5017  function setTeacher_Student(string memory _Teacher, uint _number, string memory _name, string[] memory _classes) public {... */\n    tag_7:\n      tag_28\n      0x04\n      dup1\n      calldatasize\n      sub\n      dup2\n      add\n      swap1\n      tag_29\n      swap2\n      swap1\n      tag_30\n      jump\t// in\n    tag_29:\n      tag_31\n      jump\t// in\n    tag_28:\n      stop\n        /* \"contracts/230509_1.sol\":5023:5160  function getTeacher_Student(string memory _Teacher) public view returns(Student memory) {... */\n    tag_8:\n      tag_32\n      0x04\n      dup1\n      calldatasize\n      sub\n      dup2\n      add\n      swap1\n      tag_33\n      swap2\n      swap1\n      tag_11\n      jump\t// in\n    tag_33:\n      tag_34\n      jump\t// in\n    tag_32:\n      mload(0x40)\n      tag_35\n      swap2\n      swap1\n      tag_36\n      jump\t// in\n    tag_35:\n      mload(0x40)\n      dup1\n      swap2\n      sub\n      swap1\n      return\n        /* \"contracts/230509_1.sol\":4339:4480  function getB(string memory _key) public view returns(uint) {... */\n    tag_12:\n        /* \"contracts/230509_1.sol\":4393:4397  uint */\n      0x00\n        /* \"contracts/230509_1.sol\":4416:4417  b */\n      0x01\n        /* \"contracts/230509_1.sol\":4418:4422  _key */\n      dup3\n        /* \"contracts/230509_1.sol\":4416:4423  b[_key] */\n      mload(0x40)\n      tag_38\n      swap2\n      swap1\n      tag_39\n      jump\t// in\n    tag_38:\n      swap1\n      dup2\n      mstore\n      0x20\n      add\n      mload(0x40)\n      dup1\n      swap2\n      sub\n      swap1\n      keccak256\n      sload\n        /* \"contracts/230509_1.sol\":4409:4423  return b[_key] */\n      swap1\n      pop\n        /* \"contracts/230509_1.sol\":4339:4480  function getB(string memory _key) public view returns(uint) {... */\n      swap2\n      swap1\n      pop\n      jump\t// out\n        /* \"contracts/230509_1.sol\":4209:4333  function setB(string memory _key, uint _value) public {... */\n    tag_18:\n        /* \"contracts/230509_1.sol\":4283:4289  _value */\n      dup1\n        /* \"contracts/230509_1.sol\":4273:4274  b */\n      0x01\n        /* \"contracts/230509_1.sol\":4275:4279  _key */\n      dup4\n        /* \"contracts/230509_1.sol\":4273:4280  b[_key] */\n      mload(0x40)\n      tag_41\n      swap2\n      swap1\n      tag_39\n      jump\t// in\n    tag_41:\n      swap1\n      dup2\n      mstore\n      0x20\n      add\n      mload(0x40)\n      dup1\n      swap2\n      sub\n      swap1\n      keccak256\n        /* \"contracts/230509_1.sol\":4273:4289  b[_key] = _value */\n      dup2\n      swap1\n      sstore\n      pop\n        /* \"contracts/230509_1.sol\":4209:4333  function setB(string memory _key, uint _value) public {... */\n      pop\n      pop\n      jump\t// out\n        /* \"contracts/230509_1.sol\":4486:4572  function setC(bytes memory _key, uint _value) public {... */\n    tag_22:\n        /* \"contracts/230509_1.sol\":4559:4565  _value */\n      dup1\n        /* \"contracts/230509_1.sol\":4549:4550  c */\n      0x02\n        /* \"contracts/230509_1.sol\":4551:4555  _key */\n      dup4\n        /* \"contracts/230509_1.sol\":4549:4556  c[_key] */\n      mload(0x40)\n      tag_43\n      swap2\n      swap1\n      tag_44\n      jump\t// in\n    tag_43:\n      swap1\n      dup2\n      mstore\n      0x20\n      add\n      mload(0x40)\n      dup1\n      swap2\n      sub\n      swap1\n      keccak256\n        /* \"contracts/230509_1.sol\":4549:4565  c[_key] = _value */\n      dup2\n      swap1\n      sstore\n      pop\n        /* \"contracts/230509_1.sol\":4486:4572  function setC(bytes memory _key, uint _value) public {... */\n      pop\n      pop\n      jump\t// out\n        /* \"contracts/230509_1.sol\":4578:4668  function getC(bytes memory _key) public view returns(uint) {... */\n    tag_26:\n        /* \"contracts/230509_1.sol\":4631:4635  uint */\n      0x00\n        /* \"contracts/230509_1.sol\":4654:4655  c */\n      0x02\n        /* \"contracts/230509_1.sol\":4656:4660  _key */\n      dup3\n        /* \"contracts/230509_1.sol\":4654:4661  c[_key] */\n      mload(0x40)\n      tag_46\n      swap2\n      swap1\n      tag_44\n      jump\t// in\n    tag_46:\n      swap1\n      dup2\n      mstore\n      0x20\n      add\n      mload(0x40)\n      dup1\n      swap2\n      sub\n      swap1\n      keccak256\n      sload\n        /* \"contracts/230509_1.sol\":4647:4661  return c[_key] */\n      swap1\n      pop\n        /* \"contracts/230509_1.sol\":4578:4668  function getC(bytes memory _key) public view returns(uint) {... */\n      swap2\n      swap1\n      pop\n      jump\t// out\n        /* \"contracts/230509_1.sol\":4819:5017  function setTeacher_Student(string memory _Teacher, uint _number, string memory _name, string[] memory _classes) public {... */\n    tag_31:\n        /* \"contracts/230509_1.sol\":4977:5010  Student(_number, _name, _classes) */\n      mload(0x40)\n      dup1\n      0x60\n      add\n      0x40\n      mstore\n      dup1\n        /* \"contracts/230509_1.sol\":4985:4992  _number */\n      dup5\n        /* \"contracts/230509_1.sol\":4977:5010  Student(_number, _name, _classes) */\n      dup2\n      mstore\n      0x20\n      add\n        /* \"contracts/230509_1.sol\":4994:4999  _name */\n      dup4\n        /* \"contracts/230509_1.sol\":4977:5010  Student(_number, _name, _classes) */\n      dup2\n      mstore\n      0x20\n      add\n        /* \"contracts/230509_1.sol\":5001:5009  _classes */\n      dup3\n        /* \"contracts/230509_1.sol\":4977:5010  Student(_number, _name, _classes) */\n      dup2\n      mstore\n      pop\n        /* \"contracts/230509_1.sol\":4949:4964  Teacher_Student */\n      0x03\n        /* \"contracts/230509_1.sol\":4965:4973  _Teacher */\n      dup6\n        /* \"contracts/230509_1.sol\":4949:4974  Teacher_Student[_Teacher] */\n      mload(0x40)\n      tag_48\n      swap2\n      swap1\n      tag_39\n      jump\t// in\n    tag_48:\n      swap1\n      dup2\n      mstore\n      0x20\n      add\n      mload(0x40)\n      dup1\n      swap2\n      sub\n      swap1\n      keccak256\n        /* \"contracts/230509_1.sol\":4949:5010  Teacher_Student[_Teacher] = Student(_number, _name, _classes) */\n      0x00\n      dup3\n      add\n      mload\n      dup2\n      0x00\n      add\n      sstore\n      0x20\n      dup3\n      add\n      mload\n      dup2\n      0x01\n      add\n      swap1\n      dup2\n      tag_49\n      swap2\n      swap1\n      tag_50\n      jump\t// in\n    tag_49:\n      pop\n      0x40\n      dup3\n      add\n      mload\n      dup2\n      0x02\n      add\n      swap1\n      dup1\n      mload\n      swap1\n      0x20\n      add\n      swap1\n      tag_51\n      swap3\n      swap2\n      swap1\n      tag_52\n      jump\t// in\n    tag_51:\n      pop\n      swap1\n      pop\n      pop\n        /* \"contracts/230509_1.sol\":4819:5017  function setTeacher_Student(string memory _Teacher, uint _number, string memory _name, string[] memory _classes) public {... */\n      pop\n      pop\n      pop\n      pop\n      jump\t// out\n        /* \"contracts/230509_1.sol\":5023:5160  function getTeacher_Student(string memory _Teacher) public view returns(Student memory) {... */\n    tag_34:\n        /* \"contracts/230509_1.sol\":5095:5109  Student memory */\n      tag_53\n      tag_54\n      jump\t// in\n    tag_53:\n        /* \"contracts/230509_1.sol\":5128:5143  Teacher_Student */\n      0x03\n        /* \"contracts/230509_1.sol\":5144:5152  _Teacher */\n      dup3\n        /* \"contracts/230509_1.sol\":5128:5153  Teacher_Student[_Teacher] */\n      mload(0x40)\n      tag_56\n      swap2\n      swap1\n      tag_39\n      jump\t// in\n    tag_56:\n      swap1\n      dup2\n      mstore\n      0x20\n      add\n      mload(0x40)\n      dup1\n      swap2\n      sub\n      swap1\n      keccak256\n        /* \"contracts/230509_1.sol\":5121:5153  return Teacher_Student[_Teacher] */\n      mload(0x40)\n      dup1\n      0x60\n      add\n      0x40\n      mstore\n      swap1\n      dup2\n      0x00\n      dup3\n      add\n      sload\n      dup2\n      mstore\n      0x20\n      add\n      0x01\n      dup3\n      add\n      dup1\n      sload\n      tag_57\n      swap1\n      tag_58\n      jump\t// in\n    tag_57:\n      dup1\n      0x1f\n      add\n      0x20\n      dup1\n      swap2\n      div\n      mul\n      0x20\n      add\n      mload(0x40)\n      swap1\n      dup2\n      add\n      0x40\n      mstore\n      dup1\n      swap3\n      swap2\n      swap1\n      dup2\n      dup2\n      mstore\n      0x20\n      add\n      dup3\n      dup1\n      sload\n      tag_59\n      swap1\n      tag_58\n      jump\t// in\n    tag_59:\n      dup1\n      iszero\n      tag_60\n      jumpi\n      dup1\n      0x1f\n      lt\n      tag_61\n      jumpi\n      0x0100\n      dup1\n      dup4\n      sload\n      div\n      mul\n      dup4\n      mstore\n      swap2\n      0x20\n      add\n      swap2\n      jump(tag_60)\n    tag_61:\n      dup3\n      add\n      swap2\n      swap1\n      0x00\n      mstore\n      keccak256(0x00, 0x20)\n      swap1\n    tag_62:\n      dup2\n      sload\n      dup2\n      mstore\n      swap1\n      0x01\n      add\n      swap1\n      0x20\n      add\n      dup1\n      dup4\n      gt\n      tag_62\n      jumpi\n      dup3\n      swap1\n      sub\n      0x1f\n      and\n      dup3\n      add\n      swap2\n    tag_60:\n      pop\n      pop\n      pop\n      pop\n      pop\n      dup2\n      mstore\n      0x20\n      add\n      0x02\n      dup3\n      add\n      dup1\n      sload\n      dup1\n      0x20\n      mul\n      0x20\n      add\n      mload(0x40)\n      swap1\n      dup2\n      add\n      0x40\n      mstore\n      dup1\n      swap3\n      swap2\n      swap1\n      dup2\n      dup2\n      mstore\n      0x20\n      add\n      0x00\n      swap1\n    tag_63:\n      dup3\n      dup3\n      lt\n      iszero\n      tag_64\n      jumpi\n      dup4\n      dup3\n      swap1\n      0x00\n      mstore\n      keccak256(0x00, 0x20)\n      add\n      dup1\n      sload\n      tag_66\n      swap1\n      tag_58\n      jump\t// in\n    tag_66:\n      dup1\n      0x1f\n      add\n      0x20\n      dup1\n      swap2\n      div\n      mul\n      0x20\n      add\n      mload(0x40)\n      swap1\n      dup2\n      add\n      0x40\n      mstore\n      dup1\n      swap3\n      swap2\n      swap1\n      dup2\n      dup2\n      mstore\n      0x20\n      add\n      dup3\n      dup1\n      sload\n      tag_67\n      swap1\n      tag_58\n      jump\t// in\n    tag_67:\n      dup1\n      iszero\n      tag_68\n      jumpi\n      dup1\n      0x1f\n      lt\n      tag_69\n      jumpi\n      0x0100\n      dup1\n      dup4\n      sload\n      div\n      mul\n      dup4\n      mstore\n      swap2\n      0x20\n      add\n      swap2\n      jump(tag_68)\n    tag_69:\n      dup3\n      add\n      swap2\n      swap1\n      0x00\n      mstore\n      keccak256(0x00, 0x20)\n      swap1\n    tag_70:\n      dup2\n      sload\n      dup2\n      mstore\n      swap1\n      0x01\n      add\n      swap1\n      0x20\n      add\n      dup1\n      dup4\n      gt\n      tag_70\n      jumpi\n      dup3\n      swap1\n      sub\n      0x1f\n      and\n      dup3\n      add\n      swap2\n    tag_68:\n      pop\n      pop\n      pop\n      pop\n      pop\n      dup2\n      mstore\n      0x20\n      add\n      swap1\n      0x01\n      add\n      swap1\n      jump(tag_63)\n    tag_64:\n      pop\n      pop\n      pop\n      pop\n      dup2\n      mstore\n      pop\n      pop\n      swap1\n      pop\n        /* \"contracts/230509_1.sol\":5023:5160  function getTeacher_Student(string memory _Teacher) public view returns(Student memory) {... */\n      swap2\n      swap1\n      pop\n      jump\t// out\n    tag_52:\n      dup3\n      dup1\n      sload\n      dup3\n      dup3\n      sstore\n      swap1\n      0x00\n      mstore\n      keccak256(0x00, 0x20)\n      swap1\n      dup2\n      add\n      swap3\n      dup3\n      iszero\n      tag_71\n      jumpi\n      swap2\n      0x20\n      mul\n      dup3\n      add\n    tag_72:\n      dup3\n      dup2\n      gt\n      iszero\n      tag_73\n      jumpi\n      dup3\n      mload\n      dup3\n      swap1\n      dup2\n      tag_74\n      swap2\n      swap1\n      tag_50\n      jump\t// in\n    tag_74:\n      pop\n      swap2\n      0x20\n      add\n      swap2\n      swap1\n      0x01\n      add\n      swap1\n      jump(tag_72)\n    tag_73:\n    tag_71:\n      pop\n      swap1\n      pop\n      tag_75\n      swap2\n      swap1\n      tag_76\n      jump\t// in\n    tag_75:\n      pop\n      swap1\n      jump\t// out\n    tag_54:\n      mload(0x40)\n      dup1\n      0x60\n      add\n      0x40\n      mstore\n      dup1\n      0x00\n      dup2\n      mstore\n      0x20\n      add\n      0x60\n      dup2\n      mstore\n      0x20\n      add\n      0x60\n      dup2\n      mstore\n      pop\n      swap1\n      jump\t// out\n    tag_76:\n    tag_77:\n      dup1\n      dup3\n      gt\n      iszero\n      tag_78\n      jumpi\n      0x00\n      dup2\n      dup2\n      tag_79\n      swap2\n      swap1\n      tag_80\n      jump\t// in\n    tag_79:\n      pop\n      0x01\n      add\n      jump(tag_77)\n    tag_78:\n      pop\n      swap1\n      jump\t// out\n    tag_80:\n      pop\n      dup1\n      sload\n      tag_81\n      swap1\n      tag_58\n      jump\t// in\n    tag_81:\n      0x00\n      dup3\n      sstore\n      dup1\n      0x1f\n      lt\n      tag_83\n      jumpi\n      pop\n      jump(tag_82)\n    tag_83:\n      0x1f\n      add\n      0x20\n      swap1\n      div\n      swap1\n      0x00\n      mstore\n      keccak256(0x00, 0x20)\n      swap1\n      dup2\n      add\n      swap1\n      tag_84\n      swap2\n      swap1\n      tag_85\n      jump\t// in\n    tag_84:\n    tag_82:\n      pop\n      jump\t// out\n    tag_85:\n    tag_86:\n      dup1\n      dup3\n      gt\n      iszero\n      tag_87\n      jumpi\n      0x00\n      dup2\n      0x00\n      swap1\n      sstore\n      pop\n      0x01\n      add\n      jump(tag_86)\n    tag_87:\n      pop\n      swap1\n      jump\t// out\n        /* \"#utility.yul\":7:82   */\n    tag_88:\n        /* \"#utility.yul\":40:46   */\n      0x00\n        /* \"#utility.yul\":73:75   */\n      0x40\n        /* \"#utility.yul\":67:76   */\n      mload\n        /* \"#utility.yul\":57:76   */\n      swap1\n      pop\n        /* \"#utility.yul\":7:82   */\n      swap1\n      jump\t// out\n        /* \"#utility.yul\":88:205   */\n    tag_89:\n        /* \"#utility.yul\":197:198   */\n      0x00\n        /* \"#utility.yul\":194:195   */\n      dup1\n        /* \"#utility.yul\":187:199   */\n      revert\n        /* \"#utility.yul\":211:328   */\n    tag_90:\n        /* \"#utility.yul\":320:321   */\n      0x00\n        /* \"#utility.yul\":317:318   */\n      dup1\n        /* \"#utility.yul\":310:322   */\n      revert\n        /* \"#utility.yul\":334:451   */\n    tag_91:\n        /* \"#utility.yul\":443:444   */\n      0x00\n        /* \"#utility.yul\":440:441   */\n      dup1\n        /* \"#utility.yul\":433:445   */\n      revert\n        /* \"#utility.yul\":457:574   */\n    tag_92:\n        /* \"#utility.yul\":566:567   */\n      0x00\n        /* \"#utility.yul\":563:564   */\n      dup1\n        /* \"#utility.yul\":556:568   */\n      revert\n        /* \"#utility.yul\":580:682   */\n    tag_93:\n        /* \"#utility.yul\":621:627   */\n      0x00\n        /* \"#utility.yul\":672:674   */\n      0x1f\n        /* \"#utility.yul\":668:675   */\n      not\n        /* \"#utility.yul\":663:665   */\n      0x1f\n        /* \"#utility.yul\":656:661   */\n      dup4\n        /* \"#utility.yul\":652:666   */\n      add\n        /* \"#utility.yul\":648:676   */\n      and\n        /* \"#utility.yul\":638:676   */\n      swap1\n      pop\n        /* \"#utility.yul\":580:682   */\n      swap2\n      swap1\n      pop\n      jump\t// out\n        /* \"#utility.yul\":688:868   */\n    tag_94:\n        /* \"#utility.yul\":736:813   */\n      0x4e487b7100000000000000000000000000000000000000000000000000000000\n        /* \"#utility.yul\":733:734   */\n      0x00\n        /* \"#utility.yul\":726:814   */\n      mstore\n        /* \"#utility.yul\":833:837   */\n      0x41\n        /* \"#utility.yul\":830:831   */\n      0x04\n        /* \"#utility.yul\":823:838   */\n      mstore\n        /* \"#utility.yul\":857:861   */\n      0x24\n        /* \"#utility.yul\":854:855   */\n      0x00\n        /* \"#utility.yul\":847:862   */\n      revert\n        /* \"#utility.yul\":874:1155   */\n    tag_95:\n        /* \"#utility.yul\":957:984   */\n      tag_154\n        /* \"#utility.yul\":979:983   */\n      dup3\n        /* \"#utility.yul\":957:984   */\n      tag_93\n      jump\t// in\n    tag_154:\n        /* \"#utility.yul\":949:955   */\n      dup2\n        /* \"#utility.yul\":945:985   */\n      add\n        /* \"#utility.yul\":1087:1093   */\n      dup2\n        /* \"#utility.yul\":1075:1085   */\n      dup2\n        /* \"#utility.yul\":1072:1094   */\n      lt\n        /* \"#utility.yul\":1051:1069   */\n      0xffffffffffffffff\n        /* \"#utility.yul\":1039:1049   */\n      dup3\n        /* \"#utility.yul\":1036:1070   */\n      gt\n        /* \"#utility.yul\":1033:1095   */\n      or\n        /* \"#utility.yul\":1030:1118   */\n      iszero\n      tag_155\n      jumpi\n        /* \"#utility.yul\":1098:1116   */\n      tag_156\n      tag_94\n      jump\t// in\n    tag_156:\n        /* \"#utility.yul\":1030:1118   */\n    tag_155:\n        /* \"#utility.yul\":1138:1148   */\n      dup1\n        /* \"#utility.yul\":1134:1136   */\n      0x40\n        /* \"#utility.yul\":1127:1149   */\n      mstore\n        /* \"#utility.yul\":917:1155   */\n      pop\n        /* \"#utility.yul\":874:1155   */\n      pop\n      pop\n      jump\t// out\n        /* \"#utility.yul\":1161:1290   */\n    tag_96:\n        /* \"#utility.yul\":1195:1201   */\n      0x00\n        /* \"#utility.yul\":1222:1242   */\n      tag_158\n      tag_88\n      jump\t// in\n    tag_158:\n        /* \"#utility.yul\":1212:1242   */\n      swap1\n      pop\n        /* \"#utility.yul\":1251:1284   */\n      tag_159\n        /* \"#utility.yul\":1279:1283   */\n      dup3\n        /* \"#utility.yul\":1271:1277   */\n      dup3\n        /* \"#utility.yul\":1251:1284   */\n      tag_95\n      jump\t// in\n    tag_159:\n        /* \"#utility.yul\":1161:1290   */\n      swap2\n      swap1\n      pop\n      jump\t// out\n        /* \"#utility.yul\":1296:1604   */\n    tag_97:\n        /* \"#utility.yul\":1358:1362   */\n      0x00\n        /* \"#utility.yul\":1448:1466   */\n      0xffffffffffffffff\n        /* \"#utility.yul\":1440:1446   */\n      dup3\n        /* \"#utility.yul\":1437:1467   */\n      gt\n        /* \"#utility.yul\":1434:1490   */\n      iszero\n      tag_161\n      jumpi\n        /* \"#utility.yul\":1470:1488   */\n      tag_162\n      tag_94\n      jump\t// in\n    tag_162:\n        /* \"#utility.yul\":1434:1490   */\n    tag_161:\n        /* \"#utility.yul\":1508:1537   */\n      tag_163\n        /* \"#utility.yul\":1530:1536   */\n      dup3\n        /* \"#utility.yul\":1508:1537   */\n      tag_93\n      jump\t// in\n    tag_163:\n        /* \"#utility.yul\":1500:1537   */\n      swap1\n      pop\n        /* \"#utility.yul\":1592:1596   */\n      0x20\n        /* \"#utility.yul\":1586:1590   */\n      dup2\n        /* \"#utility.yul\":1582:1597   */\n      add\n        /* \"#utility.yul\":1574:1597   */\n      swap1\n      pop\n        /* \"#utility.yul\":1296:1604   */\n      swap2\n      swap1\n      pop\n      jump\t// out\n        /* \"#utility.yul\":1610:1756   */\n    tag_98:\n        /* \"#utility.yul\":1707:1713   */\n      dup3\n        /* \"#utility.yul\":1702:1705   */\n      dup2\n        /* \"#utility.yul\":1697:1700   */\n      dup4\n        /* \"#utility.yul\":1684:1714   */\n      calldatacopy\n        /* \"#utility.yul\":1748:1749   */\n      0x00\n        /* \"#utility.yul\":1739:1745   */\n      dup4\n        /* \"#utility.yul\":1734:1737   */\n      dup4\n        /* \"#utility.yul\":1730:1746   */\n      add\n        /* \"#utility.yul\":1723:1750   */\n      mstore\n        /* \"#utility.yul\":1610:1756   */\n      pop\n      pop\n      pop\n      jump\t// out\n        /* \"#utility.yul\":1762:2187   */\n    tag_99:\n        /* \"#utility.yul\":1840:1845   */\n      0x00\n        /* \"#utility.yul\":1865:1931   */\n      tag_166\n        /* \"#utility.yul\":1881:1930   */\n      tag_167\n        /* \"#utility.yul\":1923:1929   */\n      dup5\n        /* \"#utility.yul\":1881:1930   */\n      tag_97\n      jump\t// in\n    tag_167:\n        /* \"#utility.yul\":1865:1931   */\n      tag_96\n      jump\t// in\n    tag_166:\n        /* \"#utility.yul\":1856:1931   */\n      swap1\n      pop\n        /* \"#utility.yul\":1954:1960   */\n      dup3\n        /* \"#utility.yul\":1947:1952   */\n      dup2\n        /* \"#utility.yul\":1940:1961   */\n      mstore\n        /* \"#utility.yul\":1992:1996   */\n      0x20\n        /* \"#utility.yul\":1985:1990   */\n      dup2\n        /* \"#utility.yul\":1981:1997   */\n      add\n        /* \"#utility.yul\":2030:2033   */\n      dup5\n        /* \"#utility.yul\":2021:2027   */\n      dup5\n        /* \"#utility.yul\":2016:2019   */\n      dup5\n        /* \"#utility.yul\":2012:2028   */\n      add\n        /* \"#utility.yul\":2009:2034   */\n      gt\n        /* \"#utility.yul\":2006:2118   */\n      iszero\n      tag_168\n      jumpi\n        /* \"#utility.yul\":2037:2116   */\n      tag_169\n      tag_92\n      jump\t// in\n    tag_169:\n        /* \"#utility.yul\":2006:2118   */\n    tag_168:\n        /* \"#utility.yul\":2127:2181   */\n      tag_170\n        /* \"#utility.yul\":2174:2180   */\n      dup5\n        /* \"#utility.yul\":2169:2172   */\n      dup3\n        /* \"#utility.yul\":2164:2167   */\n      dup6\n        /* \"#utility.yul\":2127:2181   */\n      tag_98\n      jump\t// in\n    tag_170:\n        /* \"#utility.yul\":1846:2187   */\n      pop\n        /* \"#utility.yul\":1762:2187   */\n      swap4\n      swap3\n      pop\n      pop\n      pop\n      jump\t// out\n        /* \"#utility.yul\":2207:2547   */\n    tag_100:\n        /* \"#utility.yul\":2263:2268   */\n      0x00\n        /* \"#utility.yul\":2312:2315   */\n      dup3\n        /* \"#utility.yul\":2305:2309   */\n      0x1f\n        /* \"#utility.yul\":2297:2303   */\n      dup4\n        /* \"#utility.yul\":2293:2310   */\n      add\n        /* \"#utility.yul\":2289:2316   */\n      slt\n        /* \"#utility.yul\":2279:2401   */\n      tag_172\n      jumpi\n        /* \"#utility.yul\":2320:2399   */\n      tag_173\n      tag_91\n      jump\t// in\n    tag_173:\n        /* \"#utility.yul\":2279:2401   */\n    tag_172:\n        /* \"#utility.yul\":2437:2443   */\n      dup2\n        /* \"#utility.yul\":2424:2444   */\n      calldataload\n        /* \"#utility.yul\":2462:2541   */\n      tag_174\n        /* \"#utility.yul\":2537:2540   */\n      dup5\n        /* \"#utility.yul\":2529:2535   */\n      dup3\n        /* \"#utility.yul\":2522:2526   */\n      0x20\n        /* \"#utility.yul\":2514:2520   */\n      dup7\n        /* \"#utility.yul\":2510:2527   */\n      add\n        /* \"#utility.yul\":2462:2541   */\n      tag_99\n      jump\t// in\n    tag_174:\n        /* \"#utility.yul\":2453:2541   */\n      swap2\n      pop\n        /* \"#utility.yul\":2269:2547   */\n      pop\n        /* \"#utility.yul\":2207:2547   */\n      swap3\n      swap2\n      pop\n      pop\n      jump\t// out\n        /* \"#utility.yul\":2553:3062   */\n    tag_11:\n        /* \"#utility.yul\":2622:2628   */\n      0x00\n        /* \"#utility.yul\":2671:2673   */\n      0x20\n        /* \"#utility.yul\":2659:2668   */\n      dup3\n        /* \"#utility.yul\":2650:2657   */\n      dup5\n        /* \"#utility.yul\":2646:2669   */\n      sub\n        /* \"#utility.yul\":2642:2674   */\n      slt\n        /* \"#utility.yul\":2639:2758   */\n      iszero\n      tag_176\n      jumpi\n        /* \"#utility.yul\":2677:2756   */\n      tag_177\n      tag_89\n      jump\t// in\n    tag_177:\n        /* \"#utility.yul\":2639:2758   */\n    tag_176:\n        /* \"#utility.yul\":2825:2826   */\n      0x00\n        /* \"#utility.yul\":2814:2823   */\n      dup3\n        /* \"#utility.yul\":2810:2827   */\n      add\n        /* \"#utility.yul\":2797:2828   */\n      calldataload\n        /* \"#utility.yul\":2855:2873   */\n      0xffffffffffffffff\n        /* \"#utility.yul\":2847:2853   */\n      dup2\n        /* \"#utility.yul\":2844:2874   */\n      gt\n        /* \"#utility.yul\":2841:2958   */\n      iszero\n      tag_178\n      jumpi\n        /* \"#utility.yul\":2877:2956   */\n      tag_179\n      tag_90\n      jump\t// in\n    tag_179:\n        /* \"#utility.yul\":2841:2958   */\n    tag_178:\n        /* \"#utility.yul\":2982:3045   */\n      tag_180\n        /* \"#utility.yul\":3037:3044   */\n      dup5\n        /* \"#utility.yul\":3028:3034   */\n      dup3\n        /* \"#utility.yul\":3017:3026   */\n      dup6\n        /* \"#utility.yul\":3013:3035   */\n      add\n        /* \"#utility.yul\":2982:3045   */\n      tag_100\n      jump\t// in\n    tag_180:\n        /* \"#utility.yul\":2972:3045   */\n      swap2\n      pop\n        /* \"#utility.yul\":2768:3055   */\n      pop\n        /* \"#utility.yul\":2553:3062   */\n      swap3\n      swap2\n      pop\n      pop\n      jump\t// out\n        /* \"#utility.yul\":3068:3145   */\n    tag_101:\n        /* \"#utility.yul\":3105:3112   */\n      0x00\n        /* \"#utility.yul\":3134:3139   */\n      dup2\n        /* \"#utility.yul\":3123:3139   */\n      swap1\n      pop\n        /* \"#utility.yul\":3068:3145   */\n      swap2\n      swap1\n      pop\n      jump\t// out\n        /* \"#utility.yul\":3151:3269   */\n    tag_102:\n        /* \"#utility.yul\":3238:3262   */\n      tag_183\n        /* \"#utility.yul\":3256:3261   */\n      dup2\n        /* \"#utility.yul\":3238:3262   */\n      tag_101\n      jump\t// in\n    tag_183:\n        /* \"#utility.yul\":3233:3236   */\n      dup3\n        /* \"#utility.yul\":3226:3263   */\n      mstore\n        /* \"#utility.yul\":3151:3269   */\n      pop\n      pop\n      jump\t// out\n        /* \"#utility.yul\":3275:3497   */\n    tag_14:\n        /* \"#utility.yul\":3368:3372   */\n      0x00\n        /* \"#utility.yul\":3406:3408   */\n      0x20\n        /* \"#utility.yul\":3395:3404   */\n      dup3\n        /* \"#utility.yul\":3391:3409   */\n      add\n        /* \"#utility.yul\":3383:3409   */\n      swap1\n      pop\n        /* \"#utility.yul\":3419:3490   */\n      tag_185\n        /* \"#utility.yul\":3487:3488   */\n      0x00\n        /* \"#utility.yul\":3476:3485   */\n      dup4\n        /* \"#utility.yul\":3472:3489   */\n      add\n        /* \"#utility.yul\":3463:3469   */\n      dup5\n        /* \"#utility.yul\":3419:3490   */\n      tag_102\n      jump\t// in\n    tag_185:\n        /* \"#utility.yul\":3275:3497   */\n      swap3\n      swap2\n      pop\n      pop\n      jump\t// out\n        /* \"#utility.yul\":3503:3625   */\n    tag_103:\n        /* \"#utility.yul\":3576:3600   */\n      tag_187\n        /* \"#utility.yul\":3594:3599   */\n      dup2\n        /* \"#utility.yul\":3576:3600   */\n      tag_101\n      jump\t// in\n    tag_187:\n        /* \"#utility.yul\":3569:3574   */\n      dup2\n        /* \"#utility.yul\":3566:3601   */\n      eq\n        /* \"#utility.yul\":3556:3619   */\n      tag_188\n      jumpi\n        /* \"#utility.yul\":3615:3616   */\n      0x00\n        /* \"#utility.yul\":3612:3613   */\n      dup1\n        /* \"#utility.yul\":3605:3617   */\n      revert\n        /* \"#utility.yul\":3556:3619   */\n    tag_188:\n        /* \"#utility.yul\":3503:3625   */\n      pop\n      jump\t// out\n        /* \"#utility.yul\":3631:3770   */\n    tag_104:\n        /* \"#utility.yul\":3677:3682   */\n      0x00\n        /* \"#utility.yul\":3715:3721   */\n      dup2\n        /* \"#utility.yul\":3702:3722   */\n      calldataload\n        /* \"#utility.yul\":3693:3722   */\n      swap1\n      pop\n        /* \"#utility.yul\":3731:3764   */\n      tag_190\n        /* \"#utility.yul\":3758:3763   */\n      dup2\n        /* \"#utility.yul\":3731:3764   */\n      tag_103\n      jump\t// in\n    tag_190:\n        /* \"#utility.yul\":3631:3770   */\n      swap3\n      swap2\n      pop\n      pop\n      jump\t// out\n        /* \"#utility.yul\":3776:4430   */\n    tag_17:\n        /* \"#utility.yul\":3854:3860   */\n      0x00\n        /* \"#utility.yul\":3862:3868   */\n      dup1\n        /* \"#utility.yul\":3911:3913   */\n      0x40\n        /* \"#utility.yul\":3899:3908   */\n      dup4\n        /* \"#utility.yul\":3890:3897   */\n      dup6\n        /* \"#utility.yul\":3886:3909   */\n      sub\n        /* \"#utility.yul\":3882:3914   */\n      slt\n        /* \"#utility.yul\":3879:3998   */\n      iszero\n      tag_192\n      jumpi\n        /* \"#utility.yul\":3917:3996   */\n      tag_193\n      tag_89\n      jump\t// in\n    tag_193:\n        /* \"#utility.yul\":3879:3998   */\n    tag_192:\n        /* \"#utility.yul\":4065:4066   */\n      0x00\n        /* \"#utility.yul\":4054:4063   */\n      dup4\n        /* \"#utility.yul\":4050:4067   */\n      add\n        /* \"#utility.yul\":4037:4068   */\n      calldataload\n        /* \"#utility.yul\":4095:4113   */\n      0xffffffffffffffff\n        /* \"#utility.yul\":4087:4093   */\n      dup2\n        /* \"#utility.yul\":4084:4114   */\n      gt\n        /* \"#utility.yul\":4081:4198   */\n      iszero\n      tag_194\n      jumpi\n        /* \"#utility.yul\":4117:4196   */\n      tag_195\n      tag_90\n      jump\t// in\n    tag_195:\n        /* \"#utility.yul\":4081:4198   */\n    tag_194:\n        /* \"#utility.yul\":4222:4285   */\n      tag_196\n        /* \"#utility.yul\":4277:4284   */\n      dup6\n        /* \"#utility.yul\":4268:4274   */\n      dup3\n        /* \"#utility.yul\":4257:4266   */\n      dup7\n        /* \"#utility.yul\":4253:4275   */\n      add\n        /* \"#utility.yul\":4222:4285   */\n      tag_100\n      jump\t// in\n    tag_196:\n        /* \"#utility.yul\":4212:4285   */\n      swap3\n      pop\n        /* \"#utility.yul\":4008:4295   */\n      pop\n        /* \"#utility.yul\":4334:4336   */\n      0x20\n        /* \"#utility.yul\":4360:4413   */\n      tag_197\n        /* \"#utility.yul\":4405:4412   */\n      dup6\n        /* \"#utility.yul\":4396:4402   */\n      dup3\n        /* \"#utility.yul\":4385:4394   */\n      dup7\n        /* \"#utility.yul\":4381:4403   */\n      add\n        /* \"#utility.yul\":4360:4413   */\n      tag_104\n      jump\t// in\n    tag_197:\n        /* \"#utility.yul\":4350:4413   */\n      swap2\n      pop\n        /* \"#utility.yul\":4305:4423   */\n      pop\n        /* \"#utility.yul\":3776:4430   */\n      swap3\n      pop\n      swap3\n      swap1\n      pop\n      jump\t// out\n        /* \"#utility.yul\":4436:4743   */\n    tag_105:\n        /* \"#utility.yul\":4497:4501   */\n      0x00\n        /* \"#utility.yul\":4587:4605   */\n      0xffffffffffffffff\n        /* \"#utility.yul\":4579:4585   */\n      dup3\n        /* \"#utility.yul\":4576:4606   */\n      gt\n        /* \"#utility.yul\":4573:4629   */\n      iszero\n      tag_199\n      jumpi\n        /* \"#utility.yul\":4609:4627   */\n      tag_200\n      tag_94\n      jump\t// in\n    tag_200:\n        /* \"#utility.yul\":4573:4629   */\n    tag_199:\n        /* \"#utility.yul\":4647:4676   */\n      tag_201\n        /* \"#utility.yul\":4669:4675   */\n      dup3\n        /* \"#utility.yul\":4647:4676   */\n      tag_93\n      jump\t// in\n    tag_201:\n        /* \"#utility.yul\":4639:4676   */\n      swap1\n      pop\n        /* \"#utility.yul\":4731:4735   */\n      0x20\n        /* \"#utility.yul\":4725:4729   */\n      dup2\n        /* \"#utility.yul\":4721:4736   */\n      add\n        /* \"#utility.yul\":4713:4736   */\n      swap1\n      pop\n        /* \"#utility.yul\":4436:4743   */\n      swap2\n      swap1\n      pop\n      jump\t// out\n        /* \"#utility.yul\":4749:5172   */\n    tag_106:\n        /* \"#utility.yul\":4826:4831   */\n      0x00\n        /* \"#utility.yul\":4851:4916   */\n      tag_203\n        /* \"#utility.yul\":4867:4915   */\n      tag_204\n        /* \"#utility.yul\":4908:4914   */\n      dup5\n        /* \"#utility.yul\":4867:4915   */\n      tag_105\n      jump\t// in\n    tag_204:\n        /* \"#utility.yul\":4851:4916   */\n      tag_96\n      jump\t// in\n    tag_203:\n        /* \"#utility.yul\":4842:4916   */\n      swap1\n      pop\n        /* \"#utility.yul\":4939:4945   */\n      dup3\n        /* \"#utility.yul\":4932:4937   */\n      dup2\n        /* \"#utility.yul\":4925:4946   */\n      mstore\n        /* \"#utility.yul\":4977:4981   */\n      0x20\n        /* \"#utility.yul\":4970:4975   */\n      dup2\n        /* \"#utility.yul\":4966:4982   */\n      add\n        /* \"#utility.yul\":5015:5018   */\n      dup5\n        /* \"#utility.yul\":5006:5012   */\n      dup5\n        /* \"#utility.yul\":5001:5004   */\n      dup5\n        /* \"#utility.yul\":4997:5013   */\n      add\n        /* \"#utility.yul\":4994:5019   */\n      gt\n        /* \"#utility.yul\":4991:5103   */\n      iszero\n      tag_205\n      jumpi\n        /* \"#utility.yul\":5022:5101   */\n      tag_206\n      tag_92\n      jump\t// in\n    tag_206:\n        /* \"#utility.yul\":4991:5103   */\n    tag_205:\n        /* \"#utility.yul\":5112:5166   */\n      tag_207\n        /* \"#utility.yul\":5159:5165   */\n      dup5\n        /* \"#utility.yul\":5154:5157   */\n      dup3\n        /* \"#utility.yul\":5149:5152   */\n      dup6\n        /* \"#utility.yul\":5112:5166   */\n      tag_98\n      jump\t// in\n    tag_207:\n        /* \"#utility.yul\":4832:5172   */\n      pop\n        /* \"#utility.yul\":4749:5172   */\n      swap4\n      swap3\n      pop\n      pop\n      pop\n      jump\t// out\n        /* \"#utility.yul\":5191:5529   */\n    tag_107:\n        /* \"#utility.yul\":5246:5251   */\n      0x00\n        /* \"#utility.yul\":5295:5298   */\n      dup3\n        /* \"#utility.yul\":5288:5292   */\n      0x1f\n        /* \"#utility.yul\":5280:5286   */\n      dup4\n        /* \"#utility.yul\":5276:5293   */\n      add\n        /* \"#utility.yul\":5272:5299   */\n      slt\n        /* \"#utility.yul\":5262:5384   */\n      tag_209\n      jumpi\n        /* \"#utility.yul\":5303:5382   */\n      tag_210\n      tag_91\n      jump\t// in\n    tag_210:\n        /* \"#utility.yul\":5262:5384   */\n    tag_209:\n        /* \"#utility.yul\":5420:5426   */\n      dup2\n        /* \"#utility.yul\":5407:5427   */\n      calldataload\n        /* \"#utility.yul\":5445:5523   */\n      tag_211\n        /* \"#utility.yul\":5519:5522   */\n      dup5\n        /* \"#utility.yul\":5511:5517   */\n      dup3\n        /* \"#utility.yul\":5504:5508   */\n      0x20\n        /* \"#utility.yul\":5496:5502   */\n      dup7\n        /* \"#utility.yul\":5492:5509   */\n      add\n        /* \"#utility.yul\":5445:5523   */\n      tag_106\n      jump\t// in\n    tag_211:\n        /* \"#utility.yul\":5436:5523   */\n      swap2\n      pop\n        /* \"#utility.yul\":5252:5529   */\n      pop\n        /* \"#utility.yul\":5191:5529   */\n      swap3\n      swap2\n      pop\n      pop\n      jump\t// out\n        /* \"#utility.yul\":5535:6187   */\n    tag_21:\n        /* \"#utility.yul\":5612:5618   */\n      0x00\n        /* \"#utility.yul\":5620:5626   */\n      dup1\n        /* \"#utility.yul\":5669:5671   */\n      0x40\n        /* \"#utility.yul\":5657:5666   */\n      dup4\n        /* \"#utility.yul\":5648:5655   */\n      dup6\n        /* \"#utility.yul\":5644:5667   */\n      sub\n        /* \"#utility.yul\":5640:5672   */\n      slt\n        /* \"#utility.yul\":5637:5756   */\n      iszero\n      tag_213\n      jumpi\n        /* \"#utility.yul\":5675:5754   */\n      tag_214\n      tag_89\n      jump\t// in\n    tag_214:\n        /* \"#utility.yul\":5637:5756   */\n    tag_213:\n        /* \"#utility.yul\":5823:5824   */\n      0x00\n        /* \"#utility.yul\":5812:5821   */\n      dup4\n        /* \"#utility.yul\":5808:5825   */\n      add\n        /* \"#utility.yul\":5795:5826   */\n      calldataload\n        /* \"#utility.yul\":5853:5871   */\n      0xffffffffffffffff\n        /* \"#utility.yul\":5845:5851   */\n      dup2\n        /* \"#utility.yul\":5842:5872   */\n      gt\n        /* \"#utility.yul\":5839:5956   */\n      iszero\n      tag_215\n      jumpi\n        /* \"#utility.yul\":5875:5954   */\n      tag_216\n      tag_90\n      jump\t// in\n    tag_216:\n        /* \"#utility.yul\":5839:5956   */\n    tag_215:\n        /* \"#utility.yul\":5980:6042   */\n      tag_217\n        /* \"#utility.yul\":6034:6041   */\n      dup6\n        /* \"#utility.yul\":6025:6031   */\n      dup3\n        /* \"#utility.yul\":6014:6023   */\n      dup7\n        /* \"#utility.yul\":6010:6032   */\n      add\n        /* \"#utility.yul\":5980:6042   */\n      tag_107\n      jump\t// in\n    tag_217:\n        /* \"#utility.yul\":5970:6042   */\n      swap3\n      pop\n        /* \"#utility.yul\":5766:6052   */\n      pop\n        /* \"#utility.yul\":6091:6093   */\n      0x20\n        /* \"#utility.yul\":6117:6170   */\n      tag_218\n        /* \"#utility.yul\":6162:6169   */\n      dup6\n        /* \"#utility.yul\":6153:6159   */\n      dup3\n        /* \"#utility.yul\":6142:6151   */\n      dup7\n        /* \"#utility.yul\":6138:6160   */\n      add\n        /* \"#utility.yul\":6117:6170   */\n      tag_104\n      jump\t// in\n    tag_218:\n        /* \"#utility.yul\":6107:6170   */\n      swap2\n      pop\n        /* \"#utility.yul\":6062:6180   */\n      pop\n        /* \"#utility.yul\":5535:6187   */\n      swap3\n      pop\n      swap3\n      swap1\n      pop\n      jump\t// out\n        /* \"#utility.yul\":6193:6700   */\n    tag_25:\n        /* \"#utility.yul\":6261:6267   */\n      0x00\n        /* \"#utility.yul\":6310:6312   */\n      0x20\n        /* \"#utility.yul\":6298:6307   */\n      dup3\n        /* \"#utility.yul\":6289:6296   */\n      dup5\n        /* \"#utility.yul\":6285:6308   */\n      sub\n        /* \"#utility.yul\":6281:6313   */\n      slt\n        /* \"#utility.yul\":6278:6397   */\n      iszero\n      tag_220\n      jumpi\n        /* \"#utility.yul\":6316:6395   */\n      tag_221\n      tag_89\n      jump\t// in\n    tag_221:\n        /* \"#utility.yul\":6278:6397   */\n    tag_220:\n        /* \"#utility.yul\":6464:6465   */\n      0x00\n        /* \"#utility.yul\":6453:6462   */\n      dup3\n        /* \"#utility.yul\":6449:6466   */\n      add\n        /* \"#utility.yul\":6436:6467   */\n      calldataload\n        /* \"#utility.yul\":6494:6512   */\n      0xffffffffffffffff\n        /* \"#utility.yul\":6486:6492   */\n      dup2\n        /* \"#utility.yul\":6483:6513   */\n      gt\n        /* \"#utility.yul\":6480:6597   */\n      iszero\n      tag_222\n      jumpi\n        /* \"#utility.yul\":6516:6595   */\n      tag_223\n      tag_90\n      jump\t// in\n    tag_223:\n        /* \"#utility.yul\":6480:6597   */\n    tag_222:\n        /* \"#utility.yul\":6621:6683   */\n      tag_224\n        /* \"#utility.yul\":6675:6682   */\n      dup5\n        /* \"#utility.yul\":6666:6672   */\n      dup3\n        /* \"#utility.yul\":6655:6664   */\n      dup6\n        /* \"#utility.yul\":6651:6673   */\n      add\n        /* \"#utility.yul\":6621:6683   */\n      tag_107\n      jump\t// in\n    tag_224:\n        /* \"#utility.yul\":6611:6683   */\n      swap2\n      pop\n        /* \"#utility.yul\":6407:6693   */\n      pop\n        /* \"#utility.yul\":6193:6700   */\n      swap3\n      swap2\n      pop\n      pop\n      jump\t// out\n        /* \"#utility.yul\":6706:7027   */\n    tag_108:\n        /* \"#utility.yul\":6793:6797   */\n      0x00\n        /* \"#utility.yul\":6883:6901   */\n      0xffffffffffffffff\n        /* \"#utility.yul\":6875:6881   */\n      dup3\n        /* \"#utility.yul\":6872:6902   */\n      gt\n        /* \"#utility.yul\":6869:6925   */\n      iszero\n      tag_226\n      jumpi\n        /* \"#utility.yul\":6905:6923   */\n      tag_227\n      tag_94\n      jump\t// in\n    tag_227:\n        /* \"#utility.yul\":6869:6925   */\n    tag_226:\n        /* \"#utility.yul\":6955:6959   */\n      0x20\n        /* \"#utility.yul\":6947:6953   */\n      dup3\n        /* \"#utility.yul\":6943:6960   */\n      mul\n        /* \"#utility.yul\":6935:6960   */\n      swap1\n      pop\n        /* \"#utility.yul\":7015:7019   */\n      0x20\n        /* \"#utility.yul\":7009:7013   */\n      dup2\n        /* \"#utility.yul\":7005:7020   */\n      add\n        /* \"#utility.yul\":6997:7020   */\n      swap1\n      pop\n        /* \"#utility.yul\":6706:7027   */\n      swap2\n      swap1\n      pop\n      jump\t// out\n        /* \"#utility.yul\":7033:7150   */\n    tag_109:\n        /* \"#utility.yul\":7142:7143   */\n      0x00\n        /* \"#utility.yul\":7139:7140   */\n      dup1\n        /* \"#utility.yul\":7132:7144   */\n      revert\n        /* \"#utility.yul\":7172:8117   */\n    tag_110:\n        /* \"#utility.yul\":7278:7283   */\n      0x00\n        /* \"#utility.yul\":7303:7394   */\n      tag_230\n        /* \"#utility.yul\":7319:7393   */\n      tag_231\n        /* \"#utility.yul\":7386:7392   */\n      dup5\n        /* \"#utility.yul\":7319:7393   */\n      tag_108\n      jump\t// in\n    tag_231:\n        /* \"#utility.yul\":7303:7394   */\n      tag_96\n      jump\t// in\n    tag_230:\n        /* \"#utility.yul\":7294:7394   */\n      swap1\n      pop\n        /* \"#utility.yul\":7414:7419   */\n      dup1\n        /* \"#utility.yul\":7443:7449   */\n      dup4\n        /* \"#utility.yul\":7436:7441   */\n      dup3\n        /* \"#utility.yul\":7429:7450   */\n      mstore\n        /* \"#utility.yul\":7477:7481   */\n      0x20\n        /* \"#utility.yul\":7470:7475   */\n      dup3\n        /* \"#utility.yul\":7466:7482   */\n      add\n        /* \"#utility.yul\":7459:7482   */\n      swap1\n      pop\n        /* \"#utility.yul\":7530:7534   */\n      0x20\n        /* \"#utility.yul\":7522:7528   */\n      dup5\n        /* \"#utility.yul\":7518:7535   */\n      mul\n        /* \"#utility.yul\":7510:7516   */\n      dup4\n        /* \"#utility.yul\":7506:7536   */\n      add\n        /* \"#utility.yul\":7559:7562   */\n      dup6\n        /* \"#utility.yul\":7551:7557   */\n      dup2\n        /* \"#utility.yul\":7548:7563   */\n      gt\n        /* \"#utility.yul\":7545:7667   */\n      iszero\n      tag_232\n      jumpi\n        /* \"#utility.yul\":7578:7657   */\n      tag_233\n      tag_109\n      jump\t// in\n    tag_233:\n        /* \"#utility.yul\":7545:7667   */\n    tag_232:\n        /* \"#utility.yul\":7693:7699   */\n      dup4\n        /* \"#utility.yul\":7676:8111   */\n    tag_234:\n        /* \"#utility.yul\":7710:7716   */\n      dup2\n        /* \"#utility.yul\":7705:7708   */\n      dup2\n        /* \"#utility.yul\":7702:7717   */\n      lt\n        /* \"#utility.yul\":7676:8111   */\n      iszero\n      tag_236\n      jumpi\n        /* \"#utility.yul\":7799:7802   */\n      dup1\n        /* \"#utility.yul\":7786:7803   */\n      calldataload\n        /* \"#utility.yul\":7835:7853   */\n      0xffffffffffffffff\n        /* \"#utility.yul\":7822:7833   */\n      dup2\n        /* \"#utility.yul\":7819:7854   */\n      gt\n        /* \"#utility.yul\":7816:7938   */\n      iszero\n      tag_237\n      jumpi\n        /* \"#utility.yul\":7857:7936   */\n      tag_238\n      tag_91\n      jump\t// in\n    tag_238:\n        /* \"#utility.yul\":7816:7938   */\n    tag_237:\n        /* \"#utility.yul\":7981:7992   */\n      dup1\n        /* \"#utility.yul\":7973:7979   */\n      dup7\n        /* \"#utility.yul\":7969:7993   */\n      add\n        /* \"#utility.yul\":8019:8066   */\n      tag_239\n        /* \"#utility.yul\":8062:8065   */\n      dup10\n        /* \"#utility.yul\":8050:8060   */\n      dup3\n        /* \"#utility.yul\":8019:8066   */\n      tag_100\n      jump\t// in\n    tag_239:\n        /* \"#utility.yul\":8014:8017   */\n      dup6\n        /* \"#utility.yul\":8007:8067   */\n      mstore\n        /* \"#utility.yul\":8096:8100   */\n      0x20\n        /* \"#utility.yul\":8091:8094   */\n      dup6\n        /* \"#utility.yul\":8087:8101   */\n      add\n        /* \"#utility.yul\":8080:8101   */\n      swap5\n      pop\n        /* \"#utility.yul\":7752:8111   */\n      pop\n      pop\n        /* \"#utility.yul\":7736:7740   */\n      0x20\n        /* \"#utility.yul\":7731:7734   */\n      dup2\n        /* \"#utility.yul\":7727:7741   */\n      add\n        /* \"#utility.yul\":7720:7741   */\n      swap1\n      pop\n        /* \"#utility.yul\":7676:8111   */\n      jump(tag_234)\n    tag_236:\n        /* \"#utility.yul\":7680:7701   */\n      pop\n        /* \"#utility.yul\":7284:8117   */\n      pop\n      pop\n        /* \"#utility.yul\":7172:8117   */\n      swap4\n      swap3\n      pop\n      pop\n      pop\n      jump\t// out\n        /* \"#utility.yul\":8139:8529   */\n    tag_111:\n        /* \"#utility.yul\":8220:8225   */\n      0x00\n        /* \"#utility.yul\":8269:8272   */\n      dup3\n        /* \"#utility.yul\":8262:8266   */\n      0x1f\n        /* \"#utility.yul\":8254:8260   */\n      dup4\n        /* \"#utility.yul\":8250:8267   */\n      add\n        /* \"#utility.yul\":8246:8273   */\n      slt\n        /* \"#utility.yul\":8236:8358   */\n      tag_241\n      jumpi\n        /* \"#utility.yul\":8277:8356   */\n      tag_242\n      tag_91\n      jump\t// in\n    tag_242:\n        /* \"#utility.yul\":8236:8358   */\n    tag_241:\n        /* \"#utility.yul\":8394:8400   */\n      dup2\n        /* \"#utility.yul\":8381:8401   */\n      calldataload\n        /* \"#utility.yul\":8419:8523   */\n      tag_243\n        /* \"#utility.yul\":8519:8522   */\n      dup5\n        /* \"#utility.yul\":8511:8517   */\n      dup3\n        /* \"#utility.yul\":8504:8508   */\n      0x20\n        /* \"#utility.yul\":8496:8502   */\n      dup7\n        /* \"#utility.yul\":8492:8509   */\n      add\n        /* \"#utility.yul\":8419:8523   */\n      tag_110\n      jump\t// in\n    tag_243:\n        /* \"#utility.yul\":8410:8523   */\n      swap2\n      pop\n        /* \"#utility.yul\":8226:8529   */\n      pop\n        /* \"#utility.yul\":8139:8529   */\n      swap3\n      swap2\n      pop\n      pop\n      jump\t// out\n        /* \"#utility.yul\":8535:9890   */\n    tag_30:\n        /* \"#utility.yul\":8676:8682   */\n      0x00\n        /* \"#utility.yul\":8684:8690   */\n      dup1\n        /* \"#utility.yul\":8692:8698   */\n      0x00\n        /* \"#utility.yul\":8700:8706   */\n      dup1\n        /* \"#utility.yul\":8749:8752   */\n      0x80\n        /* \"#utility.yul\":8737:8746   */\n      dup6\n        /* \"#utility.yul\":8728:8735   */\n      dup8\n        /* \"#utility.yul\":8724:8747   */\n      sub\n        /* \"#utility.yul\":8720:8753   */\n      slt\n        /* \"#utility.yul\":8717:8837   */\n      iszero\n      tag_245\n      jumpi\n        /* \"#utility.yul\":8756:8835   */\n      tag_246\n      tag_89\n      jump\t// in\n    tag_246:\n        /* \"#utility.yul\":8717:8837   */\n    tag_245:\n        /* \"#utility.yul\":8904:8905   */\n      0x00\n        /* \"#utility.yul\":8893:8902   */\n      dup6\n        /* \"#utility.yul\":8889:8906   */\n      add\n        /* \"#utility.yul\":8876:8907   */\n      calldataload\n        /* \"#utility.yul\":8934:8952   */\n      0xffffffffffffffff\n        /* \"#utility.yul\":8926:8932   */\n      dup2\n        /* \"#utility.yul\":8923:8953   */\n      gt\n        /* \"#utility.yul\":8920:9037   */\n      iszero\n      tag_247\n      jumpi\n        /* \"#utility.yul\":8956:9035   */\n      tag_248\n      tag_90\n      jump\t// in\n    tag_248:\n        /* \"#utility.yul\":8920:9037   */\n    tag_247:\n        /* \"#utility.yul\":9061:9124   */\n      tag_249\n        /* \"#utility.yul\":9116:9123   */\n      dup8\n        /* \"#utility.yul\":9107:9113   */\n      dup3\n        /* \"#utility.yul\":9096:9105   */\n      dup9\n        /* \"#utility.yul\":9092:9114   */\n      add\n        /* \"#utility.yul\":9061:9124   */\n      tag_100\n      jump\t// in\n    tag_249:\n        /* \"#utility.yul\":9051:9124   */\n      swap5\n      pop\n        /* \"#utility.yul\":8847:9134   */\n      pop\n        /* \"#utility.yul\":9173:9175   */\n      0x20\n        /* \"#utility.yul\":9199:9252   */\n      tag_250\n        /* \"#utility.yul\":9244:9251   */\n      dup8\n        /* \"#utility.yul\":9235:9241   */\n      dup3\n        /* \"#utility.yul\":9224:9233   */\n      dup9\n        /* \"#utility.yul\":9220:9242   */\n      add\n        /* \"#utility.yul\":9199:9252   */\n      tag_104\n      jump\t// in\n    tag_250:\n        /* \"#utility.yul\":9189:9252   */\n      swap4\n      pop\n        /* \"#utility.yul\":9144:9262   */\n      pop\n        /* \"#utility.yul\":9329:9331   */\n      0x40\n        /* \"#utility.yul\":9318:9327   */\n      dup6\n        /* \"#utility.yul\":9314:9332   */\n      add\n        /* \"#utility.yul\":9301:9333   */\n      calldataload\n        /* \"#utility.yul\":9360:9378   */\n      0xffffffffffffffff\n        /* \"#utility.yul\":9352:9358   */\n      dup2\n        /* \"#utility.yul\":9349:9379   */\n      gt\n        /* \"#utility.yul\":9346:9463   */\n      iszero\n      tag_251\n      jumpi\n        /* \"#utility.yul\":9382:9461   */\n      tag_252\n      tag_90\n      jump\t// in\n    tag_252:\n        /* \"#utility.yul\":9346:9463   */\n    tag_251:\n        /* \"#utility.yul\":9487:9550   */\n      tag_253\n        /* \"#utility.yul\":9542:9549   */\n      dup8\n        /* \"#utility.yul\":9533:9539   */\n      dup3\n        /* \"#utility.yul\":9522:9531   */\n      dup9\n        /* \"#utility.yul\":9518:9540   */\n      add\n        /* \"#utility.yul\":9487:9550   */\n      tag_100\n      jump\t// in\n    tag_253:\n        /* \"#utility.yul\":9477:9550   */\n      swap3\n      pop\n        /* \"#utility.yul\":9272:9560   */\n      pop\n        /* \"#utility.yul\":9627:9629   */\n      0x60\n        /* \"#utility.yul\":9616:9625   */\n      dup6\n        /* \"#utility.yul\":9612:9630   */\n      add\n        /* \"#utility.yul\":9599:9631   */\n      calldataload\n        /* \"#utility.yul\":9658:9676   */\n      0xffffffffffffffff\n        /* \"#utility.yul\":9650:9656   */\n      dup2\n        /* \"#utility.yul\":9647:9677   */\n      gt\n        /* \"#utility.yul\":9644:9761   */\n      iszero\n      tag_254\n      jumpi\n        /* \"#utility.yul\":9680:9759   */\n      tag_255\n      tag_90\n      jump\t// in\n    tag_255:\n        /* \"#utility.yul\":9644:9761   */\n    tag_254:\n        /* \"#utility.yul\":9785:9873   */\n      tag_256\n        /* \"#utility.yul\":9865:9872   */\n      dup8\n        /* \"#utility.yul\":9856:9862   */\n      dup3\n        /* \"#utility.yul\":9845:9854   */\n      dup9\n        /* \"#utility.yul\":9841:9863   */\n      add\n        /* \"#utility.yul\":9785:9873   */\n      tag_111\n      jump\t// in\n    tag_256:\n        /* \"#utility.yul\":9775:9873   */\n      swap2\n      pop\n        /* \"#utility.yul\":9570:9883   */\n      pop\n        /* \"#utility.yul\":8535:9890   */\n      swap3\n      swap6\n      swap2\n      swap5\n      pop\n      swap3\n      pop\n      jump\t// out\n        /* \"#utility.yul\":9896:10004   */\n    tag_112:\n        /* \"#utility.yul\":9973:9997   */\n      tag_258\n        /* \"#utility.yul\":9991:9996   */\n      dup2\n        /* \"#utility.yul\":9973:9997   */\n      tag_101\n      jump\t// in\n    tag_258:\n        /* \"#utility.yul\":9968:9971   */\n      dup3\n        /* \"#utility.yul\":9961:9998   */\n      mstore\n        /* \"#utility.yul\":9896:10004   */\n      pop\n      pop\n      jump\t// out\n        /* \"#utility.yul\":10010:10109   */\n    tag_113:\n        /* \"#utility.yul\":10062:10068   */\n      0x00\n        /* \"#utility.yul\":10096:10101   */\n      dup2\n        /* \"#utility.yul\":10090:10102   */\n      mload\n        /* \"#utility.yul\":10080:10102   */\n      swap1\n      pop\n        /* \"#utility.yul\":10010:10109   */\n      swap2\n      swap1\n      pop\n      jump\t// out\n        /* \"#utility.yul\":10115:10274   */\n    tag_114:\n        /* \"#utility.yul\":10189:10200   */\n      0x00\n        /* \"#utility.yul\":10223:10229   */\n      dup3\n        /* \"#utility.yul\":10218:10221   */\n      dup3\n        /* \"#utility.yul\":10211:10230   */\n      mstore\n        /* \"#utility.yul\":10263:10267   */\n      0x20\n        /* \"#utility.yul\":10258:10261   */\n      dup3\n        /* \"#utility.yul\":10254:10268   */\n      add\n        /* \"#utility.yul\":10239:10268   */\n      swap1\n      pop\n        /* \"#utility.yul\":10115:10274   */\n      swap3\n      swap2\n      pop\n      pop\n      jump\t// out\n        /* \"#utility.yul\":10280:10526   */\n    tag_115:\n        /* \"#utility.yul\":10361:10362   */\n      0x00\n        /* \"#utility.yul\":10371:10484   */\n    tag_262:\n        /* \"#utility.yul\":10385:10391   */\n      dup4\n        /* \"#utility.yul\":10382:10383   */\n      dup2\n        /* \"#utility.yul\":10379:10392   */\n      lt\n        /* \"#utility.yul\":10371:10484   */\n      iszero\n      tag_264\n      jumpi\n        /* \"#utility.yul\":10470:10471   */\n      dup1\n        /* \"#utility.yul\":10465:10468   */\n      dup3\n        /* \"#utility.yul\":10461:10472   */\n      add\n        /* \"#utility.yul\":10455:10473   */\n      mload\n        /* \"#utility.yul\":10451:10452   */\n      dup2\n        /* \"#utility.yul\":10446:10449   */\n      dup5\n        /* \"#utility.yul\":10442:10453   */\n      add\n        /* \"#utility.yul\":10435:10474   */\n      mstore\n        /* \"#utility.yul\":10407:10409   */\n      0x20\n        /* \"#utility.yul\":10404:10405   */\n      dup2\n        /* \"#utility.yul\":10400:10410   */\n      add\n        /* \"#utility.yul\":10395:10410   */\n      swap1\n      pop\n        /* \"#utility.yul\":10371:10484   */\n      jump(tag_262)\n    tag_264:\n        /* \"#utility.yul\":10518:10519   */\n      0x00\n        /* \"#utility.yul\":10509:10515   */\n      dup5\n        /* \"#utility.yul\":10504:10507   */\n      dup5\n        /* \"#utility.yul\":10500:10516   */\n      add\n        /* \"#utility.yul\":10493:10520   */\n      mstore\n        /* \"#utility.yul\":10342:10526   */\n      pop\n        /* \"#utility.yul\":10280:10526   */\n      pop\n      pop\n      pop\n      jump\t// out\n        /* \"#utility.yul\":10532:10889   */\n    tag_116:\n        /* \"#utility.yul\":10610:10613   */\n      0x00\n        /* \"#utility.yul\":10638:10677   */\n      tag_266\n        /* \"#utility.yul\":10671:10676   */\n      dup3\n        /* \"#utility.yul\":10638:10677   */\n      tag_113\n      jump\t// in\n    tag_266:\n        /* \"#utility.yul\":10693:10754   */\n      tag_267\n        /* \"#utility.yul\":10747:10753   */\n      dup2\n        /* \"#utility.yul\":10742:10745   */\n      dup6\n        /* \"#utility.yul\":10693:10754   */\n      tag_114\n      jump\t// in\n    tag_267:\n        /* \"#utility.yul\":10686:10754   */\n      swap4\n      pop\n        /* \"#utility.yul\":10763:10828   */\n      tag_268\n        /* \"#utility.yul\":10821:10827   */\n      dup2\n        /* \"#utility.yul\":10816:10819   */\n      dup6\n        /* \"#utility.yul\":10809:10813   */\n      0x20\n        /* \"#utility.yul\":10802:10807   */\n      dup7\n        /* \"#utility.yul\":10798:10814   */\n      add\n        /* \"#utility.yul\":10763:10828   */\n      tag_115\n      jump\t// in\n    tag_268:\n        /* \"#utility.yul\":10853:10882   */\n      tag_269\n        /* \"#utility.yul\":10875:10881   */\n      dup2\n        /* \"#utility.yul\":10853:10882   */\n      tag_93\n      jump\t// in\n    tag_269:\n        /* \"#utility.yul\":10848:10851   */\n      dup5\n        /* \"#utility.yul\":10844:10883   */\n      add\n        /* \"#utility.yul\":10837:10883   */\n      swap2\n      pop\n        /* \"#utility.yul\":10614:10889   */\n      pop\n        /* \"#utility.yul\":10532:10889   */\n      swap3\n      swap2\n      pop\n      pop\n      jump\t// out\n        /* \"#utility.yul\":10895:11019   */\n    tag_117:\n        /* \"#utility.yul\":10972:10978   */\n      0x00\n        /* \"#utility.yul\":11006:11011   */\n      dup2\n        /* \"#utility.yul\":11000:11012   */\n      mload\n        /* \"#utility.yul\":10990:11012   */\n      swap1\n      pop\n        /* \"#utility.yul\":10895:11019   */\n      swap2\n      swap1\n      pop\n      jump\t// out\n        /* \"#utility.yul\":11025:11209   */\n    tag_118:\n        /* \"#utility.yul\":11124:11135   */\n      0x00\n        /* \"#utility.yul\":11158:11164   */\n      dup3\n        /* \"#utility.yul\":11153:11156   */\n      dup3\n        /* \"#utility.yul\":11146:11165   */\n      mstore\n        /* \"#utility.yul\":11198:11202   */\n      0x20\n        /* \"#utility.yul\":11193:11196   */\n      dup3\n        /* \"#utility.yul\":11189:11203   */\n      add\n        /* \"#utility.yul\":11174:11203   */\n      swap1\n      pop\n        /* \"#utility.yul\":11025:11209   */\n      swap3\n      swap2\n      pop\n      pop\n      jump\t// out\n        /* \"#utility.yul\":11215:11357   */\n    tag_119:\n        /* \"#utility.yul\":11292:11296   */\n      0x00\n        /* \"#utility.yul\":11315:11318   */\n      dup2\n        /* \"#utility.yul\":11307:11318   */\n      swap1\n      pop\n        /* \"#utility.yul\":11345:11349   */\n      0x20\n        /* \"#utility.yul\":11340:11343   */\n      dup3\n        /* \"#utility.yul\":11336:11350   */\n      add\n        /* \"#utility.yul\":11328:11350   */\n      swap1\n      pop\n        /* \"#utility.yul\":11215:11357   */\n      swap2\n      swap1\n      pop\n      jump\t// out\n        /* \"#utility.yul\":11363:11559   */\n    tag_120:\n        /* \"#utility.yul\":11452:11462   */\n      0x00\n        /* \"#utility.yul\":11487:11553   */\n      tag_274\n        /* \"#utility.yul\":11549:11552   */\n      dup4\n        /* \"#utility.yul\":11541:11547   */\n      dup4\n        /* \"#utility.yul\":11487:11553   */\n      tag_116\n      jump\t// in\n    tag_274:\n        /* \"#utility.yul\":11473:11553   */\n      swap1\n      pop\n        /* \"#utility.yul\":11363:11559   */\n      swap3\n      swap2\n      pop\n      pop\n      jump\t// out\n        /* \"#utility.yul\":11565:11688   */\n    tag_121:\n        /* \"#utility.yul\":11645:11649   */\n      0x00\n        /* \"#utility.yul\":11677:11681   */\n      0x20\n        /* \"#utility.yul\":11672:11675   */\n      dup3\n        /* \"#utility.yul\":11668:11682   */\n      add\n        /* \"#utility.yul\":11660:11682   */\n      swap1\n      pop\n        /* \"#utility.yul\":11565:11688   */\n      swap2\n      swap1\n      pop\n      jump\t// out\n        /* \"#utility.yul\":11722:12693   */\n    tag_122:\n        /* \"#utility.yul\":11851:11854   */\n      0x00\n        /* \"#utility.yul\":11880:11944   */\n      tag_277\n        /* \"#utility.yul\":11938:11943   */\n      dup3\n        /* \"#utility.yul\":11880:11944   */\n      tag_117\n      jump\t// in\n    tag_277:\n        /* \"#utility.yul\":11960:12046   */\n      tag_278\n        /* \"#utility.yul\":12039:12045   */\n      dup2\n        /* \"#utility.yul\":12034:12037   */\n      dup6\n        /* \"#utility.yul\":11960:12046   */\n      tag_118\n      jump\t// in\n    tag_278:\n        /* \"#utility.yul\":11953:12046   */\n      swap4\n      pop\n        /* \"#utility.yul\":12072:12075   */\n      dup4\n        /* \"#utility.yul\":12117:12121   */\n      0x20\n        /* \"#utility.yul\":12109:12115   */\n      dup3\n        /* \"#utility.yul\":12105:12122   */\n      mul\n        /* \"#utility.yul\":12100:12103   */\n      dup6\n        /* \"#utility.yul\":12096:12123   */\n      add\n        /* \"#utility.yul\":12147:12213   */\n      tag_279\n        /* \"#utility.yul\":12207:12212   */\n      dup6\n        /* \"#utility.yul\":12147:12213   */\n      tag_119\n      jump\t// in\n    tag_279:\n        /* \"#utility.yul\":12236:12243   */\n      dup1\n        /* \"#utility.yul\":12267:12268   */\n      0x00\n        /* \"#utility.yul\":12252:12648   */\n    tag_280:\n        /* \"#utility.yul\":12277:12283   */\n      dup6\n        /* \"#utility.yul\":12274:12275   */\n      dup2\n        /* \"#utility.yul\":12271:12284   */\n      lt\n        /* \"#utility.yul\":12252:12648   */\n      iszero\n      tag_282\n      jumpi\n        /* \"#utility.yul\":12348:12357   */\n      dup5\n        /* \"#utility.yul\":12342:12346   */\n      dup5\n        /* \"#utility.yul\":12338:12358   */\n      sub\n        /* \"#utility.yul\":12333:12336   */\n      dup10\n        /* \"#utility.yul\":12326:12359   */\n      mstore\n        /* \"#utility.yul\":12399:12405   */\n      dup2\n        /* \"#utility.yul\":12393:12406   */\n      mload\n        /* \"#utility.yul\":12427:12511   */\n      tag_283\n        /* \"#utility.yul\":12506:12510   */\n      dup6\n        /* \"#utility.yul\":12491:12504   */\n      dup3\n        /* \"#utility.yul\":12427:12511   */\n      tag_120\n      jump\t// in\n    tag_283:\n        /* \"#utility.yul\":12419:12511   */\n      swap5\n      pop\n        /* \"#utility.yul\":12534:12604   */\n      tag_284\n        /* \"#utility.yul\":12597:12603   */\n      dup4\n        /* \"#utility.yul\":12534:12604   */\n      tag_121\n      jump\t// in\n    tag_284:\n        /* \"#utility.yul\":12524:12604   */\n      swap3\n      pop\n        /* \"#utility.yul\":12633:12637   */\n      0x20\n        /* \"#utility.yul\":12628:12631   */\n      dup11\n        /* \"#utility.yul\":12624:12638   */\n      add\n        /* \"#utility.yul\":12617:12638   */\n      swap10\n      pop\n        /* \"#utility.yul\":12312:12648   */\n      pop\n        /* \"#utility.yul\":12299:12300   */\n      0x01\n        /* \"#utility.yul\":12296:12297   */\n      dup2\n        /* \"#utility.yul\":12292:12301   */\n      add\n        /* \"#utility.yul\":12287:12301   */\n      swap1\n      pop\n        /* \"#utility.yul\":12252:12648   */\n      jump(tag_280)\n    tag_282:\n        /* \"#utility.yul\":12256:12270   */\n      pop\n        /* \"#utility.yul\":12664:12668   */\n      dup3\n        /* \"#utility.yul\":12657:12668   */\n      swap8\n      pop\n        /* \"#utility.yul\":12684:12687   */\n      dup8\n        /* \"#utility.yul\":12677:12687   */\n      swap6\n      pop\n        /* \"#utility.yul\":11856:12693   */\n      pop\n      pop\n      pop\n      pop\n      pop\n        /* \"#utility.yul\":11722:12693   */\n      swap3\n      swap2\n      pop\n      pop\n      jump\t// out\n        /* \"#utility.yul\":12755:13657   */\n    tag_123:\n        /* \"#utility.yul\":12870:12873   */\n      0x00\n        /* \"#utility.yul\":12906:12910   */\n      0x60\n        /* \"#utility.yul\":12901:12904   */\n      dup4\n        /* \"#utility.yul\":12897:12911   */\n      add\n        /* \"#utility.yul\":12995:12999   */\n      0x00\n        /* \"#utility.yul\":12988:12993   */\n      dup4\n        /* \"#utility.yul\":12984:13000   */\n      add\n        /* \"#utility.yul\":12978:13001   */\n      mload\n        /* \"#utility.yul\":13014:13077   */\n      tag_286\n        /* \"#utility.yul\":13071:13075   */\n      0x00\n        /* \"#utility.yul\":13066:13069   */\n      dup7\n        /* \"#utility.yul\":13062:13076   */\n      add\n        /* \"#utility.yul\":13048:13060   */\n      dup3\n        /* \"#utility.yul\":13014:13077   */\n      tag_112\n      jump\t// in\n    tag_286:\n        /* \"#utility.yul\":12921:13087   */\n      pop\n        /* \"#utility.yul\":13169:13173   */\n      0x20\n        /* \"#utility.yul\":13162:13167   */\n      dup4\n        /* \"#utility.yul\":13158:13174   */\n      add\n        /* \"#utility.yul\":13152:13175   */\n      mload\n        /* \"#utility.yul\":13222:13225   */\n      dup5\n        /* \"#utility.yul\":13216:13220   */\n      dup3\n        /* \"#utility.yul\":13212:13226   */\n      sub\n        /* \"#utility.yul\":13205:13209   */\n      0x20\n        /* \"#utility.yul\":13200:13203   */\n      dup7\n        /* \"#utility.yul\":13196:13210   */\n      add\n        /* \"#utility.yul\":13189:13227   */\n      mstore\n        /* \"#utility.yul\":13248:13321   */\n      tag_287\n        /* \"#utility.yul\":13316:13320   */\n      dup3\n        /* \"#utility.yul\":13302:13314   */\n      dup3\n        /* \"#utility.yul\":13248:13321   */\n      tag_116\n      jump\t// in\n    tag_287:\n        /* \"#utility.yul\":13240:13321   */\n      swap2\n      pop\n        /* \"#utility.yul\":13097:13332   */\n      pop\n        /* \"#utility.yul\":13417:13421   */\n      0x40\n        /* \"#utility.yul\":13410:13415   */\n      dup4\n        /* \"#utility.yul\":13406:13422   */\n      add\n        /* \"#utility.yul\":13400:13423   */\n      mload\n        /* \"#utility.yul\":13470:13473   */\n      dup5\n        /* \"#utility.yul\":13464:13468   */\n      dup3\n        /* \"#utility.yul\":13460:13474   */\n      sub\n        /* \"#utility.yul\":13453:13457   */\n      0x40\n        /* \"#utility.yul\":13448:13451   */\n      dup7\n        /* \"#utility.yul\":13444:13458   */\n      add\n        /* \"#utility.yul\":13437:13475   */\n      mstore\n        /* \"#utility.yul\":13496:13619   */\n      tag_288\n        /* \"#utility.yul\":13614:13618   */\n      dup3\n        /* \"#utility.yul\":13600:13612   */\n      dup3\n        /* \"#utility.yul\":13496:13619   */\n      tag_122\n      jump\t// in\n    tag_288:\n        /* \"#utility.yul\":13488:13619   */\n      swap2\n      pop\n        /* \"#utility.yul\":13342:13630   */\n      pop\n        /* \"#utility.yul\":13647:13651   */\n      dup1\n        /* \"#utility.yul\":13640:13651   */\n      swap2\n      pop\n        /* \"#utility.yul\":12875:13657   */\n      pop\n        /* \"#utility.yul\":12755:13657   */\n      swap3\n      swap2\n      pop\n      pop\n      jump\t// out\n        /* \"#utility.yul\":13663:14028   */\n    tag_36:\n        /* \"#utility.yul\":13802:13806   */\n      0x00\n        /* \"#utility.yul\":13840:13842   */\n      0x20\n        /* \"#utility.yul\":13829:13838   */\n      dup3\n        /* \"#utility.yul\":13825:13843   */\n      add\n        /* \"#utility.yul\":13817:13843   */\n      swap1\n      pop\n        /* \"#utility.yul\":13889:13898   */\n      dup2\n        /* \"#utility.yul\":13883:13887   */\n      dup2\n        /* \"#utility.yul\":13879:13899   */\n      sub\n        /* \"#utility.yul\":13875:13876   */\n      0x00\n        /* \"#utility.yul\":13864:13873   */\n      dup4\n        /* \"#utility.yul\":13860:13877   */\n      add\n        /* \"#utility.yul\":13853:13900   */\n      mstore\n        /* \"#utility.yul\":13917:14021   */\n      tag_290\n        /* \"#utility.yul\":14016:14020   */\n      dup2\n        /* \"#utility.yul\":14007:14013   */\n      dup5\n        /* \"#utility.yul\":13917:14021   */\n      tag_123\n      jump\t// in\n    tag_290:\n        /* \"#utility.yul\":13909:14021   */\n      swap1\n      pop\n        /* \"#utility.yul\":13663:14028   */\n      swap3\n      swap2\n      pop\n      pop\n      jump\t// out\n        /* \"#utility.yul\":14034:14182   */\n    tag_124:\n        /* \"#utility.yul\":14136:14147   */\n      0x00\n        /* \"#utility.yul\":14173:14176   */\n      dup2\n        /* \"#utility.yul\":14158:14176   */\n      swap1\n      pop\n        /* \"#utility.yul\":14034:14182   */\n      swap3\n      swap2\n      pop\n      pop\n      jump\t// out\n        /* \"#utility.yul\":14188:14578   */\n    tag_125:\n        /* \"#utility.yul\":14294:14297   */\n      0x00\n        /* \"#utility.yul\":14322:14361   */\n      tag_293\n        /* \"#utility.yul\":14355:14360   */\n      dup3\n        /* \"#utility.yul\":14322:14361   */\n      tag_113\n      jump\t// in\n    tag_293:\n        /* \"#utility.yul\":14377:14466   */\n      tag_294\n        /* \"#utility.yul\":14459:14465   */\n      dup2\n        /* \"#utility.yul\":14454:14457   */\n      dup6\n        /* \"#utility.yul\":14377:14466   */\n      tag_124\n      jump\t// in\n    tag_294:\n        /* \"#utility.yul\":14370:14466   */\n      swap4\n      pop\n        /* \"#utility.yul\":14475:14540   */\n      tag_295\n        /* \"#utility.yul\":14533:14539   */\n      dup2\n        /* \"#utility.yul\":14528:14531   */\n      dup6\n        /* \"#utility.yul\":14521:14525   */\n      0x20\n        /* \"#utility.yul\":14514:14519   */\n      dup7\n        /* \"#utility.yul\":14510:14526   */\n      add\n        /* \"#utility.yul\":14475:14540   */\n      tag_115\n      jump\t// in\n    tag_295:\n        /* \"#utility.yul\":14565:14571   */\n      dup1\n        /* \"#utility.yul\":14560:14563   */\n      dup5\n        /* \"#utility.yul\":14556:14572   */\n      add\n        /* \"#utility.yul\":14549:14572   */\n      swap2\n      pop\n        /* \"#utility.yul\":14298:14578   */\n      pop\n        /* \"#utility.yul\":14188:14578   */\n      swap3\n      swap2\n      pop\n      pop\n      jump\t// out\n        /* \"#utility.yul\":14584:14859   */\n    tag_39:\n        /* \"#utility.yul\":14716:14719   */\n      0x00\n        /* \"#utility.yul\":14738:14833   */\n      tag_297\n        /* \"#utility.yul\":14829:14832   */\n      dup3\n        /* \"#utility.yul\":14820:14826   */\n      dup5\n        /* \"#utility.yul\":14738:14833   */\n      tag_125\n      jump\t// in\n    tag_297:\n        /* \"#utility.yul\":14731:14833   */\n      swap2\n      pop\n        /* \"#utility.yul\":14850:14853   */\n      dup2\n        /* \"#utility.yul\":14843:14853   */\n      swap1\n      pop\n        /* \"#utility.yul\":14584:14859   */\n      swap3\n      swap2\n      pop\n      pop\n      jump\t// out\n        /* \"#utility.yul\":14865:14963   */\n    tag_126:\n        /* \"#utility.yul\":14916:14922   */\n      0x00\n        /* \"#utility.yul\":14950:14955   */\n      dup2\n        /* \"#utility.yul\":14944:14956   */\n      mload\n        /* \"#utility.yul\":14934:14956   */\n      swap1\n      pop\n        /* \"#utility.yul\":14865:14963   */\n      swap2\n      swap1\n      pop\n      jump\t// out\n        /* \"#utility.yul\":14969:15116   */\n    tag_127:\n        /* \"#utility.yul\":15070:15081   */\n      0x00\n        /* \"#utility.yul\":15107:15110   */\n      dup2\n        /* \"#utility.yul\":15092:15110   */\n      swap1\n      pop\n        /* \"#utility.yul\":14969:15116   */\n      swap3\n      swap2\n      pop\n      pop\n      jump\t// out\n        /* \"#utility.yul\":15122:15508   */\n    tag_128:\n        /* \"#utility.yul\":15226:15229   */\n      0x00\n        /* \"#utility.yul\":15254:15292   */\n      tag_301\n        /* \"#utility.yul\":15286:15291   */\n      dup3\n        /* \"#utility.yul\":15254:15292   */\n      tag_126\n      jump\t// in\n    tag_301:\n        /* \"#utility.yul\":15308:15396   */\n      tag_302\n        /* \"#utility.yul\":15389:15395   */\n      dup2\n        /* \"#utility.yul\":15384:15387   */\n      dup6\n        /* \"#utility.yul\":15308:15396   */\n      tag_127\n      jump\t// in\n    tag_302:\n        /* \"#utility.yul\":15301:15396   */\n      swap4\n      pop\n        /* \"#utility.yul\":15405:15470   */\n      tag_303\n        /* \"#utility.yul\":15463:15469   */\n      dup2\n        /* \"#utility.yul\":15458:15461   */\n      dup6\n        /* \"#utility.yul\":15451:15455   */\n      0x20\n        /* \"#utility.yul\":15444:15449   */\n      dup7\n        /* \"#utility.yul\":15440:15456   */\n      add\n        /* \"#utility.yul\":15405:15470   */\n      tag_115\n      jump\t// in\n    tag_303:\n        /* \"#utility.yul\":15495:15501   */\n      dup1\n        /* \"#utility.yul\":15490:15493   */\n      dup5\n        /* \"#utility.yul\":15486:15502   */\n      add\n        /* \"#utility.yul\":15479:15502   */\n      swap2\n      pop\n        /* \"#utility.yul\":15230:15508   */\n      pop\n        /* \"#utility.yul\":15122:15508   */\n      swap3\n      swap2\n      pop\n      pop\n      jump\t// out\n        /* \"#utility.yul\":15514:15785   */\n    tag_44:\n        /* \"#utility.yul\":15644:15647   */\n      0x00\n        /* \"#utility.yul\":15666:15759   */\n      tag_305\n        /* \"#utility.yul\":15755:15758   */\n      dup3\n        /* \"#utility.yul\":15746:15752   */\n      dup5\n        /* \"#utility.yul\":15666:15759   */\n      tag_128\n      jump\t// in\n    tag_305:\n        /* \"#utility.yul\":15659:15759   */\n      swap2\n      pop\n        /* \"#utility.yul\":15776:15779   */\n      dup2\n        /* \"#utility.yul\":15769:15779   */\n      swap1\n      pop\n        /* \"#utility.yul\":15514:15785   */\n      swap3\n      swap2\n      pop\n      pop\n      jump\t// out\n        /* \"#utility.yul\":15791:15971   */\n    tag_129:\n        /* \"#utility.yul\":15839:15916   */\n      0x4e487b7100000000000000000000000000000000000000000000000000000000\n        /* \"#utility.yul\":15836:15837   */\n      0x00\n        /* \"#utility.yul\":15829:15917   */\n      mstore\n        /* \"#utility.yul\":15936:15940   */\n      0x22\n        /* \"#utility.yul\":15933:15934   */\n      0x04\n        /* \"#utility.yul\":15926:15941   */\n      mstore\n        /* \"#utility.yul\":15960:15964   */\n      0x24\n        /* \"#utility.yul\":15957:15958   */\n      0x00\n        /* \"#utility.yul\":15950:15965   */\n      revert\n        /* \"#utility.yul\":15977:16297   */\n    tag_58:\n        /* \"#utility.yul\":16021:16027   */\n      0x00\n        /* \"#utility.yul\":16058:16059   */\n      0x02\n        /* \"#utility.yul\":16052:16056   */\n      dup3\n        /* \"#utility.yul\":16048:16060   */\n      div\n        /* \"#utility.yul\":16038:16060   */\n      swap1\n      pop\n        /* \"#utility.yul\":16105:16106   */\n      0x01\n        /* \"#utility.yul\":16099:16103   */\n      dup3\n        /* \"#utility.yul\":16095:16107   */\n      and\n        /* \"#utility.yul\":16126:16144   */\n      dup1\n        /* \"#utility.yul\":16116:16197   */\n      tag_308\n      jumpi\n        /* \"#utility.yul\":16182:16186   */\n      0x7f\n        /* \"#utility.yul\":16174:16180   */\n      dup3\n        /* \"#utility.yul\":16170:16187   */\n      and\n        /* \"#utility.yul\":16160:16187   */\n      swap2\n      pop\n        /* \"#utility.yul\":16116:16197   */\n    tag_308:\n        /* \"#utility.yul\":16244:16246   */\n      0x20\n        /* \"#utility.yul\":16236:16242   */\n      dup3\n        /* \"#utility.yul\":16233:16247   */\n      lt\n        /* \"#utility.yul\":16213:16231   */\n      dup2\n        /* \"#utility.yul\":16210:16248   */\n      sub\n        /* \"#utility.yul\":16207:16291   */\n      tag_309\n      jumpi\n        /* \"#utility.yul\":16263:16281   */\n      tag_310\n      tag_129\n      jump\t// in\n    tag_310:\n        /* \"#utility.yul\":16207:16291   */\n    tag_309:\n        /* \"#utility.yul\":16028:16297   */\n      pop\n        /* \"#utility.yul\":15977:16297   */\n      swap2\n      swap1\n      pop\n      jump\t// out\n        /* \"#utility.yul\":16303:16444   */\n    tag_130:\n        /* \"#utility.yul\":16352:16356   */\n      0x00\n        /* \"#utility.yul\":16375:16378   */\n      dup2\n        /* \"#utility.yul\":16367:16378   */\n      swap1\n      pop\n        /* \"#utility.yul\":16398:16401   */\n      dup2\n        /* \"#utility.yul\":16395:16396   */\n      0x00\n        /* \"#utility.yul\":16388:16402   */\n      mstore\n        /* \"#utility.yul\":16432:16436   */\n      0x20\n        /* \"#utility.yul\":16429:16430   */\n      0x00\n        /* \"#utility.yul\":16419:16437   */\n      keccak256\n        /* \"#utility.yul\":16411:16437   */\n      swap1\n      pop\n        /* \"#utility.yul\":16303:16444   */\n      swap2\n      swap1\n      pop\n      jump\t// out\n        /* \"#utility.yul\":16450:16543   */\n    tag_131:\n        /* \"#utility.yul\":16487:16493   */\n      0x00\n        /* \"#utility.yul\":16534:16536   */\n      0x20\n        /* \"#utility.yul\":16529:16531   */\n      0x1f\n        /* \"#utility.yul\":16522:16527   */\n      dup4\n        /* \"#utility.yul\":16518:16532   */\n      add\n        /* \"#utility.yul\":16514:16537   */\n      div\n        /* \"#utility.yul\":16504:16537   */\n      swap1\n      pop\n        /* \"#utility.yul\":16450:16543   */\n      swap2\n      swap1\n      pop\n      jump\t// out\n        /* \"#utility.yul\":16549:16656   */\n    tag_132:\n        /* \"#utility.yul\":16593:16601   */\n      0x00\n        /* \"#utility.yul\":16643:16648   */\n      dup3\n        /* \"#utility.yul\":16637:16641   */\n      dup3\n        /* \"#utility.yul\":16633:16649   */\n      shl\n        /* \"#utility.yul\":16612:16649   */\n      swap1\n      pop\n        /* \"#utility.yul\":16549:16656   */\n      swap3\n      swap2\n      pop\n      pop\n      jump\t// out\n        /* \"#utility.yul\":16662:17055   */\n    tag_133:\n        /* \"#utility.yul\":16731:16737   */\n      0x00\n        /* \"#utility.yul\":16781:16782   */\n      0x08\n        /* \"#utility.yul\":16769:16779   */\n      dup4\n        /* \"#utility.yul\":16765:16783   */\n      mul\n        /* \"#utility.yul\":16804:16901   */\n      tag_315\n        /* \"#utility.yul\":16834:16900   */\n      0xffffffffffffffffffffffffffffffffffffffffffffffffffffffffffffffff\n        /* \"#utility.yul\":16823:16832   */\n      dup3\n        /* \"#utility.yul\":16804:16901   */\n      tag_132\n      jump\t// in\n    tag_315:\n        /* \"#utility.yul\":16922:16961   */\n      tag_316\n        /* \"#utility.yul\":16952:16960   */\n      dup7\n        /* \"#utility.yul\":16941:16950   */\n      dup4\n        /* \"#utility.yul\":16922:16961   */\n      tag_132\n      jump\t// in\n    tag_316:\n        /* \"#utility.yul\":16910:16961   */\n      swap6\n      pop\n        /* \"#utility.yul\":16994:16998   */\n      dup1\n        /* \"#utility.yul\":16990:16999   */\n      not\n        /* \"#utility.yul\":16983:16988   */\n      dup5\n        /* \"#utility.yul\":16979:17000   */\n      and\n        /* \"#utility.yul\":16970:17000   */\n      swap4\n      pop\n        /* \"#utility.yul\":17043:17047   */\n      dup1\n        /* \"#utility.yul\":17033:17041   */\n      dup7\n        /* \"#utility.yul\":17029:17048   */\n      and\n        /* \"#utility.yul\":17022:17027   */\n      dup5\n        /* \"#utility.yul\":17019:17049   */\n      or\n        /* \"#utility.yul\":17009:17049   */\n      swap3\n      pop\n        /* \"#utility.yul\":16738:17055   */\n      pop\n      pop\n        /* \"#utility.yul\":16662:17055   */\n      swap4\n      swap3\n      pop\n      pop\n      pop\n      jump\t// out\n        /* \"#utility.yul\":17061:17121   */\n    tag_134:\n        /* \"#utility.yul\":17089:17092   */\n      0x00\n        /* \"#utility.yul\":17110:17115   */\n      dup2\n        /* \"#utility.yul\":17103:17115   */\n      swap1\n      pop\n        /* \"#utility.yul\":17061:17121   */\n      swap2\n      swap1\n      pop\n      jump\t// out\n        /* \"#utility.yul\":17127:17269   */\n    tag_135:\n        /* \"#utility.yul\":17177:17186   */\n      0x00\n        /* \"#utility.yul\":17210:17263   */\n      tag_319\n        /* \"#utility.yul\":17228:17262   */\n      tag_320\n        /* \"#utility.yul\":17237:17261   */\n      tag_321\n        /* \"#utility.yul\":17255:17260   */\n      dup5\n        /* \"#utility.yul\":17237:17261   */\n      tag_101\n      jump\t// in\n    tag_321:\n        /* \"#utility.yul\":17228:17262   */\n      tag_134\n      jump\t// in\n    tag_320:\n        /* \"#utility.yul\":17210:17263   */\n      tag_101\n      jump\t// in\n    tag_319:\n        /* \"#utility.yul\":17197:17263   */\n      swap1\n      pop\n        /* \"#utility.yul\":17127:17269   */\n      swap2\n      swap1\n      pop\n      jump\t// out\n        /* \"#utility.yul\":17275:17350   */\n    tag_136:\n        /* \"#utility.yul\":17318:17321   */\n      0x00\n        /* \"#utility.yul\":17339:17344   */\n      dup2\n        /* \"#utility.yul\":17332:17344   */\n      swap1\n      pop\n        /* \"#utility.yul\":17275:17350   */\n      swap2\n      swap1\n      pop\n      jump\t// out\n        /* \"#utility.yul\":17356:17625   */\n    tag_137:\n        /* \"#utility.yul\":17466:17505   */\n      tag_324\n        /* \"#utility.yul\":17497:17504   */\n      dup4\n        /* \"#utility.yul\":17466:17505   */\n      tag_135\n      jump\t// in\n    tag_324:\n        /* \"#utility.yul\":17527:17618   */\n      tag_325\n        /* \"#utility.yul\":17576:17617   */\n      tag_326\n        /* \"#utility.yul\":17600:17616   */\n      dup3\n        /* \"#utility.yul\":17576:17617   */\n      tag_136\n      jump\t// in\n    tag_326:\n        /* \"#utility.yul\":17568:17574   */\n      dup5\n        /* \"#utility.yul\":17561:17565   */\n      dup5\n        /* \"#utility.yul\":17555:17566   */\n      sload\n        /* \"#utility.yul\":17527:17618   */\n      tag_133\n      jump\t// in\n    tag_325:\n        /* \"#utility.yul\":17521:17525   */\n      dup3\n        /* \"#utility.yul\":17514:17619   */\n      sstore\n        /* \"#utility.yul\":17432:17625   */\n      pop\n        /* \"#utility.yul\":17356:17625   */\n      pop\n      pop\n      pop\n      jump\t// out\n        /* \"#utility.yul\":17631:17704   */\n    tag_138:\n        /* \"#utility.yul\":17676:17679   */\n      0x00\n        /* \"#utility.yul\":17631:17704   */\n      swap1\n      jump\t// out\n        /* \"#utility.yul\":17710:17899   */\n    tag_139:\n        /* \"#utility.yul\":17787:17819   */\n      tag_329\n      tag_138\n      jump\t// in\n    tag_329:\n        /* \"#utility.yul\":17828:17893   */\n      tag_330\n        /* \"#utility.yul\":17886:17892   */\n      dup2\n        /* \"#utility.yul\":17878:17884   */\n      dup5\n        /* \"#utility.yul\":17872:17876   */\n      dup5\n        /* \"#utility.yul\":17828:17893   */\n      tag_137\n      jump\t// in\n    tag_330:\n        /* \"#utility.yul\":17763:17899   */\n      pop\n        /* \"#utility.yul\":17710:17899   */\n      pop\n      pop\n      jump\t// out\n        /* \"#utility.yul\":17905:18091   */\n    tag_140:\n        /* \"#utility.yul\":17965:18085   */\n    tag_332:\n        /* \"#utility.yul\":17982:17985   */\n      dup2\n        /* \"#utility.yul\":17975:17980   */\n      dup2\n        /* \"#utility.yul\":17972:17986   */\n      lt\n        /* \"#utility.yul\":17965:18085   */\n      iszero\n      tag_334\n      jumpi\n        /* \"#utility.yul\":18036:18075   */\n      tag_335\n        /* \"#utility.yul\":18073:18074   */\n      0x00\n        /* \"#utility.yul\":18066:18071   */\n      dup3\n        /* \"#utility.yul\":18036:18075   */\n      tag_139\n      jump\t// in\n    tag_335:\n        /* \"#utility.yul\":18009:18010   */\n      0x01\n        /* \"#utility.yul\":18002:18007   */\n      dup2\n        /* \"#utility.yul\":17998:18011   */\n      add\n        /* \"#utility.yul\":17989:18011   */\n      swap1\n      pop\n        /* \"#utility.yul\":17965:18085   */\n      jump(tag_332)\n    tag_334:\n        /* \"#utility.yul\":17905:18091   */\n      pop\n      pop\n      jump\t// out\n        /* \"#utility.yul\":18097:18640   */\n    tag_141:\n        /* \"#utility.yul\":18198:18200   */\n      0x1f\n        /* \"#utility.yul\":18193:18196   */\n      dup3\n        /* \"#utility.yul\":18190:18201   */\n      gt\n        /* \"#utility.yul\":18187:18633   */\n      iszero\n      tag_337\n      jumpi\n        /* \"#utility.yul\":18232:18270   */\n      tag_338\n        /* \"#utility.yul\":18264:18269   */\n      dup2\n        /* \"#utility.yul\":18232:18270   */\n      tag_130\n      jump\t// in\n    tag_338:\n        /* \"#utility.yul\":18316:18345   */\n      tag_339\n        /* \"#utility.yul\":18334:18344   */\n      dup5\n        /* \"#utility.yul\":18316:18345   */\n      tag_131\n      jump\t// in\n    tag_339:\n        /* \"#utility.yul\":18306:18314   */\n      dup2\n        /* \"#utility.yul\":18302:18346   */\n      add\n        /* \"#utility.yul\":18499:18501   */\n      0x20\n        /* \"#utility.yul\":18487:18497   */\n      dup6\n        /* \"#utility.yul\":18484:18502   */\n      lt\n        /* \"#utility.yul\":18481:18530   */\n      iszero\n      tag_340\n      jumpi\n        /* \"#utility.yul\":18520:18528   */\n      dup2\n        /* \"#utility.yul\":18505:18528   */\n      swap1\n      pop\n        /* \"#utility.yul\":18481:18530   */\n    tag_340:\n        /* \"#utility.yul\":18543:18623   */\n      tag_341\n        /* \"#utility.yul\":18599:18621   */\n      tag_342\n        /* \"#utility.yul\":18617:18620   */\n      dup6\n        /* \"#utility.yul\":18599:18621   */\n      tag_131\n      jump\t// in\n    tag_342:\n        /* \"#utility.yul\":18589:18597   */\n      dup4\n        /* \"#utility.yul\":18585:18622   */\n      add\n        /* \"#utility.yul\":18572:18583   */\n      dup3\n        /* \"#utility.yul\":18543:18623   */\n      tag_140\n      jump\t// in\n    tag_341:\n        /* \"#utility.yul\":18202:18633   */\n      pop\n      pop\n        /* \"#utility.yul\":18187:18633   */\n    tag_337:\n        /* \"#utility.yul\":18097:18640   */\n      pop\n      pop\n      pop\n      jump\t// out\n        /* \"#utility.yul\":18646:18763   */\n    tag_142:\n        /* \"#utility.yul\":18700:18708   */\n      0x00\n        /* \"#utility.yul\":18750:18755   */\n      dup3\n        /* \"#utility.yul\":18744:18748   */\n      dup3\n        /* \"#utility.yul\":18740:18756   */\n      shr\n        /* \"#utility.yul\":18719:18756   */\n      swap1\n      pop\n        /* \"#utility.yul\":18646:18763   */\n      swap3\n      swap2\n      pop\n      pop\n      jump\t// out\n        /* \"#utility.yul\":18769:18938   */\n    tag_143:\n        /* \"#utility.yul\":18813:18819   */\n      0x00\n        /* \"#utility.yul\":18846:18897   */\n      tag_345\n        /* \"#utility.yul\":18894:18895   */\n      0x00\n        /* \"#utility.yul\":18890:18896   */\n      not\n        /* \"#utility.yul\":18882:18887   */\n      dup5\n        /* \"#utility.yul\":18879:18880   */\n      0x08\n        /* \"#utility.yul\":18875:18888   */\n      mul\n        /* \"#utility.yul\":18846:18897   */\n      tag_142\n      jump\t// in\n    tag_345:\n        /* \"#utility.yul\":18842:18898   */\n      not\n        /* \"#utility.yul\":18927:18931   */\n      dup1\n        /* \"#utility.yul\":18921:18925   */\n      dup4\n        /* \"#utility.yul\":18917:18932   */\n      and\n        /* \"#utility.yul\":18907:18932   */\n      swap2\n      pop\n        /* \"#utility.yul\":18820:18938   */\n      pop\n        /* \"#utility.yul\":18769:18938   */\n      swap3\n      swap2\n      pop\n      pop\n      jump\t// out\n        /* \"#utility.yul\":18943:19238   */\n    tag_144:\n        /* \"#utility.yul\":19019:19023   */\n      0x00\n        /* \"#utility.yul\":19165:19194   */\n      tag_347\n        /* \"#utility.yul\":19190:19193   */\n      dup4\n        /* \"#utility.yul\":19184:19188   */\n      dup4\n        /* \"#utility.yul\":19165:19194   */\n      tag_143\n      jump\t// in\n    tag_347:\n        /* \"#utility.yul\":19157:19194   */\n      swap2\n      pop\n        /* \"#utility.yul\":19227:19230   */\n      dup3\n        /* \"#utility.yul\":19224:19225   */\n      0x02\n        /* \"#utility.yul\":19220:19231   */\n      mul\n        /* \"#utility.yul\":19214:19218   */\n      dup3\n        /* \"#utility.yul\":19211:19232   */\n      or\n        /* \"#utility.yul\":19203:19232   */\n      swap1\n      pop\n        /* \"#utility.yul\":18943:19238   */\n      swap3\n      swap2\n      pop\n      pop\n      jump\t// out\n        /* \"#utility.yul\":19243:20638   */\n    tag_50:\n        /* \"#utility.yul\":19360:19397   */\n      tag_349\n        /* \"#utility.yul\":19393:19396   */\n      dup3\n        /* \"#utility.yul\":19360:19397   */\n      tag_113\n      jump\t// in\n    tag_349:\n        /* \"#utility.yul\":19462:19480   */\n      0xffffffffffffffff\n        /* \"#utility.yul\":19454:19460   */\n      dup2\n        /* \"#utility.yul\":19451:19481   */\n      gt\n        /* \"#utility.yul\":19448:19504   */\n      iszero\n      tag_350\n      jumpi\n        /* \"#utility.yul\":19484:19502   */\n      tag_351\n      tag_94\n      jump\t// in\n    tag_351:\n        /* \"#utility.yul\":19448:19504   */\n    tag_350:\n        /* \"#utility.yul\":19528:19566   */\n      tag_352\n        /* \"#utility.yul\":19560:19564   */\n      dup3\n        /* \"#utility.yul\":19554:19565   */\n      sload\n        /* \"#utility.yul\":19528:19566   */\n      tag_58\n      jump\t// in\n    tag_352:\n        /* \"#utility.yul\":19613:19680   */\n      tag_353\n        /* \"#utility.yul\":19673:19679   */\n      dup3\n        /* \"#utility.yul\":19665:19671   */\n      dup3\n        /* \"#utility.yul\":19659:19663   */\n      dup6\n        /* \"#utility.yul\":19613:19680   */\n      tag_141\n      jump\t// in\n    tag_353:\n        /* \"#utility.yul\":19707:19708   */\n      0x00\n        /* \"#utility.yul\":19731:19735   */\n      0x20\n        /* \"#utility.yul\":19718:19735   */\n      swap1\n      pop\n        /* \"#utility.yul\":19763:19765   */\n      0x1f\n        /* \"#utility.yul\":19755:19761   */\n      dup4\n        /* \"#utility.yul\":19752:19766   */\n      gt\n        /* \"#utility.yul\":19780:19781   */\n      0x01\n        /* \"#utility.yul\":19775:20393   */\n      dup2\n      eq\n      tag_355\n      jumpi\n        /* \"#utility.yul\":20437:20438   */\n      0x00\n        /* \"#utility.yul\":20454:20460   */\n      dup5\n        /* \"#utility.yul\":20451:20528   */\n      iszero\n      tag_356\n      jumpi\n        /* \"#utility.yul\":20503:20512   */\n      dup3\n        /* \"#utility.yul\":20498:20501   */\n      dup8\n        /* \"#utility.yul\":20494:20513   */\n      add\n        /* \"#utility.yul\":20488:20514   */\n      mload\n        /* \"#utility.yul\":20479:20514   */\n      swap1\n      pop\n        /* \"#utility.yul\":20451:20528   */\n    tag_356:\n        /* \"#utility.yul\":20554:20621   */\n      tag_357\n        /* \"#utility.yul\":20614:20620   */\n      dup6\n        /* \"#utility.yul\":20607:20612   */\n      dup3\n        /* \"#utility.yul\":20554:20621   */\n      tag_144\n      jump\t// in\n    tag_357:\n        /* \"#utility.yul\":20548:20552   */\n      dup7\n        /* \"#utility.yul\":20541:20622   */\n      sstore\n        /* \"#utility.yul\":20410:20632   */\n      pop\n        /* \"#utility.yul\":19745:20632   */\n      jump(tag_354)\n        /* \"#utility.yul\":19775:20393   */\n    tag_355:\n        /* \"#utility.yul\":19827:19831   */\n      0x1f\n        /* \"#utility.yul\":19823:19832   */\n      not\n        /* \"#utility.yul\":19815:19821   */\n      dup5\n        /* \"#utility.yul\":19811:19833   */\n      and\n        /* \"#utility.yul\":19861:19898   */\n      tag_358\n        /* \"#utility.yul\":19893:19897   */\n      dup7\n        /* \"#utility.yul\":19861:19898   */\n      tag_130\n      jump\t// in\n    tag_358:\n        /* \"#utility.yul\":19920:19921   */\n      0x00\n        /* \"#utility.yul\":19934:20142   */\n    tag_359:\n        /* \"#utility.yul\":19948:19955   */\n      dup3\n        /* \"#utility.yul\":19945:19946   */\n      dup2\n        /* \"#utility.yul\":19942:19956   */\n      lt\n        /* \"#utility.yul\":19934:20142   */\n      iszero\n      tag_361\n      jumpi\n        /* \"#utility.yul\":20027:20036   */\n      dup5\n        /* \"#utility.yul\":20022:20025   */\n      dup10\n        /* \"#utility.yul\":20018:20037   */\n      add\n        /* \"#utility.yul\":20012:20038   */\n      mload\n        /* \"#utility.yul\":20004:20010   */\n      dup3\n        /* \"#utility.yul\":19997:20039   */\n      sstore\n        /* \"#utility.yul\":20078:20079   */\n      0x01\n        /* \"#utility.yul\":20070:20076   */\n      dup3\n        /* \"#utility.yul\":20066:20080   */\n      add\n        /* \"#utility.yul\":20056:20080   */\n      swap2\n      pop\n        /* \"#utility.yul\":20125:20127   */\n      0x20\n        /* \"#utility.yul\":20114:20123   */\n      dup6\n        /* \"#utility.yul\":20110:20128   */\n      add\n        /* \"#utility.yul\":20097:20128   */\n      swap5\n      pop\n        /* \"#utility.yul\":19971:19975   */\n      0x20\n        /* \"#utility.yul\":19968:19969   */\n      dup2\n        /* \"#utility.yul\":19964:19976   */\n      add\n        /* \"#utility.yul\":19959:19976   */\n      swap1\n      pop\n        /* \"#utility.yul\":19934:20142   */\n      jump(tag_359)\n    tag_361:\n        /* \"#utility.yul\":20170:20176   */\n      dup7\n        /* \"#utility.yul\":20161:20168   */\n      dup4\n        /* \"#utility.yul\":20158:20177   */\n      lt\n        /* \"#utility.yul\":20155:20334   */\n      iszero\n      tag_362\n      jumpi\n        /* \"#utility.yul\":20228:20237   */\n      dup5\n        /* \"#utility.yul\":20223:20226   */\n      dup10\n        /* \"#utility.yul\":20219:20238   */\n      add\n        /* \"#utility.yul\":20213:20239   */\n      mload\n        /* \"#utility.yul\":20271:20319   */\n      tag_363\n        /* \"#utility.yul\":20313:20317   */\n      0x1f\n        /* \"#utility.yul\":20305:20311   */\n      dup10\n        /* \"#utility.yul\":20301:20318   */\n      and\n        /* \"#utility.yul\":20290:20299   */\n      dup3\n        /* \"#utility.yul\":20271:20319   */\n      tag_143\n      jump\t// in\n    tag_363:\n        /* \"#utility.yul\":20263:20269   */\n      dup4\n        /* \"#utility.yul\":20256:20320   */\n      sstore\n        /* \"#utility.yul\":20178:20334   */\n      pop\n        /* \"#utility.yul\":20155:20334   */\n    tag_362:\n        /* \"#utility.yul\":20380:20381   */\n      0x01\n        /* \"#utility.yul\":20376:20377   */\n      0x02\n        /* \"#utility.yul\":20368:20374   */\n      dup9\n        /* \"#utility.yul\":20364:20378   */\n      mul\n        /* \"#utility.yul\":20360:20382   */\n      add\n        /* \"#utility.yul\":20354:20358   */\n      dup9\n        /* \"#utility.yul\":20347:20383   */\n      sstore\n        /* \"#utility.yul\":19782:20393   */\n      pop\n      pop\n      pop\n        /* \"#utility.yul\":19745:20632   */\n    tag_354:\n      pop\n        /* \"#utility.yul\":19335:20638   */\n      pop\n      pop\n      pop\n        /* \"#utility.yul\":19243:20638   */\n      pop\n      pop\n      jump\t// out\n\n    auxdata: 0xa2646970667358221220345d4816d5b63921ba9b2758227f15d7882c59835b860fab30f45e13a05e2fde64736f6c63430008120033\n}\n",
				"bytecode": {
					"linkReferences": {},
					"object": "608060405234801561001057600080fd5b50610fe3806100206000396000f3fe608060405234801561001057600080fd5b50600436106100615760003560e01c8062ad33ed1461006657806313465f12146100965780639aa937ca146100b2578063a82ad90e146100ce578063abe7405e146100fe578063c013118f1461011a575b600080fd5b610080600480360381019061007b9190610669565b61014a565b60405161008d91906106cb565b60405180910390f35b6100b060048036038101906100ab9190610712565b610172565b005b6100cc60048036038101906100c7919061080f565b610199565b005b6100e860048036038101906100e3919061086b565b6101c0565b6040516100f591906106cb565b60405180910390f35b6101186004803603810190610113919061099a565b6101e8565b005b610134600480360381019061012f9190610669565b610267565b6040516101419190610bfc565b60405180910390f35b600060018260405161015c9190610c5a565b9081526020016040518091039020549050919050565b806001836040516101839190610c5a565b9081526020016040518091039020819055505050565b806002836040516101aa9190610cb8565b9081526020016040518091039020819055505050565b60006002826040516101d29190610cb8565b9081526020016040518091039020549050919050565b6040518060600160405280848152602001838152602001828152506003856040516102139190610c5a565b90815260200160405180910390206000820151816000015560208201518160010190816102409190610edb565b50604082015181600201908051906020019061025d929190610414565b5090505050505050565b61026f61046d565b60038260405161027f9190610c5a565b9081526020016040518091039020604051806060016040529081600082015481526020016001820180546102b290610cfe565b80601f01602080910402602001604051908101604052809291908181526020018280546102de90610cfe565b801561032b5780601f106103005761010080835404028352916020019161032b565b820191906000526020600020905b81548152906001019060200180831161030e57829003601f168201915b5050505050815260200160028201805480602002602001604051908101604052809291908181526020016000905b8282101561040557838290600052602060002001805461037890610cfe565b80601f01602080910402602001604051908101604052809291908181526020018280546103a490610cfe565b80156103f15780601f106103c6576101008083540402835291602001916103f1565b820191906000526020600020905b8154815290600101906020018083116103d457829003601f168201915b505050505081526020019060010190610359565b50505050815250509050919050565b82805482825590600052602060002090810192821561045c579160200282015b8281111561045b57825182908161044b9190610edb565b5091602001919060010190610434565b5b509050610469919061048e565b5090565b60405180606001604052806000815260200160608152602001606081525090565b5b808211156104ae57600081816104a591906104b2565b5060010161048f565b5090565b5080546104be90610cfe565b6000825580601f106104d057506104ef565b601f0160209004906000526020600020908101906104ee91906104f2565b5b50565b5b8082111561050b5760008160009055506001016104f3565b5090565b6000604051905090565b600080fd5b600080fd5b600080fd5b600080fd5b6000601f19601f8301169050919050565b7f4e487b7100000000000000000000000000000000000000000000000000000000600052604160045260246000fd5b6105768261052d565b810181811067ffffffffffffffff821117156105955761059461053e565b5b80604052505050565b60006105a861050f565b90506105b4828261056d565b919050565b600067ffffffffffffffff8211156105d4576105d361053e565b5b6105dd8261052d565b9050602081019050919050565b82818337600083830152505050565b600061060c610607846105b9565b61059e565b90508281526020810184848401111561062857610627610528565b5b6106338482856105ea565b509392505050565b600082601f8301126106505761064f610523565b5b81356106608482602086016105f9565b91505092915050565b60006020828403121561067f5761067e610519565b5b600082013567ffffffffffffffff81111561069d5761069c61051e565b5b6106a98482850161063b565b91505092915050565b6000819050919050565b6106c5816106b2565b82525050565b60006020820190506106e060008301846106bc565b92915050565b6106ef816106b2565b81146106fa57600080fd5b50565b60008135905061070c816106e6565b92915050565b6000806040838503121561072957610728610519565b5b600083013567ffffffffffffffff8111156107475761074661051e565b5b6107538582860161063b565b9250506020610764858286016106fd565b9150509250929050565b600067ffffffffffffffff8211156107895761078861053e565b5b6107928261052d565b9050602081019050919050565b60006107b26107ad8461076e565b61059e565b9050828152602081018484840111156107ce576107cd610528565b5b6107d98482856105ea565b509392505050565b600082601f8301126107f6576107f5610523565b5b813561080684826020860161079f565b91505092915050565b6000806040838503121561082657610825610519565b5b600083013567ffffffffffffffff8111156108445761084361051e565b5b610850858286016107e1565b9250506020610861858286016106fd565b9150509250929050565b60006020828403121561088157610880610519565b5b600082013567ffffffffffffffff81111561089f5761089e61051e565b5b6108ab848285016107e1565b91505092915050565b600067ffffffffffffffff8211156108cf576108ce61053e565b5b602082029050602081019050919050565b600080fd5b60006108f86108f3846108b4565b61059e565b9050808382526020820190506020840283018581111561091b5761091a6108e0565b5b835b8181101561096257803567ffffffffffffffff8111156109405761093f610523565b5b80860161094d898261063b565b8552602085019450505060208101905061091d565b5050509392505050565b600082601f83011261098157610980610523565b5b81356109918482602086016108e5565b91505092915050565b600080600080608085870312156109b4576109b3610519565b5b600085013567ffffffffffffffff8111156109d2576109d161051e565b5b6109de8782880161063b565b94505060206109ef878288016106fd565b935050604085013567ffffffffffffffff811115610a1057610a0f61051e565b5b610a1c8782880161063b565b925050606085013567ffffffffffffffff811115610a3d57610a3c61051e565b5b610a498782880161096c565b91505092959194509250565b610a5e816106b2565b82525050565b600081519050919050565b600082825260208201905092915050565b60005b83811015610a9e578082015181840152602081019050610a83565b60008484015250505050565b6000610ab582610a64565b610abf8185610a6f565b9350610acf818560208601610a80565b610ad88161052d565b840191505092915050565b600081519050919050565b600082825260208201905092915050565b6000819050602082019050919050565b6000610b1b8383610aaa565b905092915050565b6000602082019050919050565b6000610b3b82610ae3565b610b458185610aee565b935083602082028501610b5785610aff565b8060005b85811015610b935784840389528151610b748582610b0f565b9450610b7f83610b23565b925060208a01995050600181019050610b5b565b50829750879550505050505092915050565b6000606083016000830151610bbd6000860182610a55565b5060208301518482036020860152610bd58282610aaa565b91505060408301518482036040860152610bef8282610b30565b9150508091505092915050565b60006020820190508181036000830152610c168184610ba5565b905092915050565b600081905092915050565b6000610c3482610a64565b610c3e8185610c1e565b9350610c4e818560208601610a80565b80840191505092915050565b6000610c668284610c29565b915081905092915050565b600081519050919050565b600081905092915050565b6000610c9282610c71565b610c9c8185610c7c565b9350610cac818560208601610a80565b80840191505092915050565b6000610cc48284610c87565b915081905092915050565b7f4e487b7100000000000000000000000000000000000000000000000000000000600052602260045260246000fd5b60006002820490506001821680610d1657607f821691505b602082108103610d2957610d28610ccf565b5b50919050565b60008190508160005260206000209050919050565b60006020601f8301049050919050565b600082821b905092915050565b600060088302610d917fffffffffffffffffffffffffffffffffffffffffffffffffffffffffffffffff82610d54565b610d9b8683610d54565b95508019841693508086168417925050509392505050565b6000819050919050565b6000610dd8610dd3610dce846106b2565b610db3565b6106b2565b9050919050565b6000819050919050565b610df283610dbd565b610e06610dfe82610ddf565b848454610d61565b825550505050565b600090565b610e1b610e0e565b610e26818484610de9565b505050565b5b81811015610e4a57610e3f600082610e13565b600181019050610e2c565b5050565b601f821115610e8f57610e6081610d2f565b610e6984610d44565b81016020851015610e78578190505b610e8c610e8485610d44565b830182610e2b565b50505b505050565b600082821c905092915050565b6000610eb260001984600802610e94565b1980831691505092915050565b6000610ecb8383610ea1565b9150826002028217905092915050565b610ee482610a64565b67ffffffffffffffff811115610efd57610efc61053e565b5b610f078254610cfe565b610f12828285610e4e565b600060209050601f831160018114610f455760008415610f33578287015190505b610f3d8582610ebf565b865550610fa5565b601f198416610f5386610d2f565b60005b82811015610f7b57848901518255600182019150602085019450602081019050610f56565b86831015610f985784890151610f94601f891682610ea1565b8355505b6001600288020188555050505b50505050505056fea2646970667358221220345d4816d5b63921ba9b2758227f15d7882c59835b860fab30f45e13a05e2fde64736f6c63430008120033",
					"opcodes": "PUSH1 0x80 PUSH1 0x40 MSTORE CALLVALUE DUP1 ISZERO PUSH2 0x10 JUMPI PUSH1 0x0 DUP1 REVERT JUMPDEST POP PUSH2 0xFE3 DUP1 PUSH2 0x20 PUSH1 0x0 CODECOPY PUSH1 0x0 RETURN INVALID PUSH1 0x80 PUSH1 0x40 MSTORE CALLVALUE DUP1 ISZERO PUSH2 0x10 JUMPI PUSH1 0x0 DUP1 REVERT JUMPDEST POP PUSH1 0x4 CALLDATASIZE LT PUSH2 0x61 JUMPI PUSH1 0x0 CALLDATALOAD PUSH1 0xE0 SHR DUP1 PUSH3 0xAD33ED EQ PUSH2 0x66 JUMPI DUP1 PUSH4 0x13465F12 EQ PUSH2 0x96 JUMPI DUP1 PUSH4 0x9AA937CA EQ PUSH2 0xB2 JUMPI DUP1 PUSH4 0xA82AD90E EQ PUSH2 0xCE JUMPI DUP1 PUSH4 0xABE7405E EQ PUSH2 0xFE JUMPI DUP1 PUSH4 0xC013118F EQ PUSH2 0x11A JUMPI JUMPDEST PUSH1 0x0 DUP1 REVERT JUMPDEST PUSH2 0x80 PUSH1 0x4 DUP1 CALLDATASIZE SUB DUP2 ADD SWAP1 PUSH2 0x7B SWAP2 SWAP1 PUSH2 0x669 JUMP JUMPDEST PUSH2 0x14A JUMP JUMPDEST PUSH1 0x40 MLOAD PUSH2 0x8D SWAP2 SWAP1 PUSH2 0x6CB JUMP JUMPDEST PUSH1 0x40 MLOAD DUP1 SWAP2 SUB SWAP1 RETURN JUMPDEST PUSH2 0xB0 PUSH1 0x4 DUP1 CALLDATASIZE SUB DUP2 ADD SWAP1 PUSH2 0xAB SWAP2 SWAP1 PUSH2 0x712 JUMP JUMPDEST PUSH2 0x172 JUMP JUMPDEST STOP JUMPDEST PUSH2 0xCC PUSH1 0x4 DUP1 CALLDATASIZE SUB DUP2 ADD SWAP1 PUSH2 0xC7 SWAP2 SWAP1 PUSH2 0x80F JUMP JUMPDEST PUSH2 0x199 JUMP JUMPDEST STOP JUMPDEST PUSH2 0xE8 PUSH1 0x4 DUP1 CALLDATASIZE SUB DUP2 ADD SWAP1 PUSH2 0xE3 SWAP2 SWAP1 PUSH2 0x86B JUMP JUMPDEST PUSH2 0x1C0 JUMP JUMPDEST PUSH1 0x40 MLOAD PUSH2 0xF5 SWAP2 SWAP1 PUSH2 0x6CB JUMP JUMPDEST PUSH1 0x40 MLOAD DUP1 SWAP2 SUB SWAP1 RETURN JUMPDEST PUSH2 0x118 PUSH1 0x4 DUP1 CALLDATASIZE SUB DUP2 ADD SWAP1 PUSH2 0x113 SWAP2 SWAP1 PUSH2 0x99A JUMP JUMPDEST PUSH2 0x1E8 JUMP JUMPDEST STOP JUMPDEST PUSH2 0x134 PUSH1 0x4 DUP1 CALLDATASIZE SUB DUP2 ADD SWAP1 PUSH2 0x12F SWAP2 SWAP1 PUSH2 0x669 JUMP JUMPDEST PUSH2 0x267 JUMP JUMPDEST PUSH1 0x40 MLOAD PUSH2 0x141 SWAP2 SWAP1 PUSH2 0xBFC JUMP JUMPDEST PUSH1 0x40 MLOAD DUP1 SWAP2 SUB SWAP1 RETURN JUMPDEST PUSH1 0x0 PUSH1 0x1 DUP3 PUSH1 0x40 MLOAD PUSH2 0x15C SWAP2 SWAP1 PUSH2 0xC5A JUMP JUMPDEST SWAP1 DUP2 MSTORE PUSH1 0x20 ADD PUSH1 0x40 MLOAD DUP1 SWAP2 SUB SWAP1 KECCAK256 SLOAD SWAP1 POP SWAP2 SWAP1 POP JUMP JUMPDEST DUP1 PUSH1 0x1 DUP4 PUSH1 0x40 MLOAD PUSH2 0x183 SWAP2 SWAP1 PUSH2 0xC5A JUMP JUMPDEST SWAP1 DUP2 MSTORE PUSH1 0x20 ADD PUSH1 0x40 MLOAD DUP1 SWAP2 SUB SWAP1 KECCAK256 DUP2 SWAP1 SSTORE POP POP POP JUMP JUMPDEST DUP1 PUSH1 0x2 DUP4 PUSH1 0x40 MLOAD PUSH2 0x1AA SWAP2 SWAP1 PUSH2 0xCB8 JUMP JUMPDEST SWAP1 DUP2 MSTORE PUSH1 0x20 ADD PUSH1 0x40 MLOAD DUP1 SWAP2 SUB SWAP1 KECCAK256 DUP2 SWAP1 SSTORE POP POP POP JUMP JUMPDEST PUSH1 0x0 PUSH1 0x2 DUP3 PUSH1 0x40 MLOAD PUSH2 0x1D2 SWAP2 SWAP1 PUSH2 0xCB8 JUMP JUMPDEST SWAP1 DUP2 MSTORE PUSH1 0x20 ADD PUSH1 0x40 MLOAD DUP1 SWAP2 SUB SWAP1 KECCAK256 SLOAD SWAP1 POP SWAP2 SWAP1 POP JUMP JUMPDEST PUSH1 0x40 MLOAD DUP1 PUSH1 0x60 ADD PUSH1 0x40 MSTORE DUP1 DUP5 DUP2 MSTORE PUSH1 0x20 ADD DUP4 DUP2 MSTORE PUSH1 0x20 ADD DUP3 DUP2 MSTORE POP PUSH1 0x3 DUP6 PUSH1 0x40 MLOAD PUSH2 0x213 SWAP2 SWAP1 PUSH2 0xC5A JUMP JUMPDEST SWAP1 DUP2 MSTORE PUSH1 0x20 ADD PUSH1 0x40 MLOAD DUP1 SWAP2 SUB SWAP1 KECCAK256 PUSH1 0x0 DUP3 ADD MLOAD DUP2 PUSH1 0x0 ADD SSTORE PUSH1 0x20 DUP3 ADD MLOAD DUP2 PUSH1 0x1 ADD SWAP1 DUP2 PUSH2 0x240 SWAP2 SWAP1 PUSH2 0xEDB JUMP JUMPDEST POP PUSH1 0x40 DUP3 ADD MLOAD DUP2 PUSH1 0x2 ADD SWAP1 DUP1 MLOAD SWAP1 PUSH1 0x20 ADD SWAP1 PUSH2 0x25D SWAP3 SWAP2 SWAP1 PUSH2 0x414 JUMP JUMPDEST POP SWAP1 POP POP POP POP POP POP JUMP JUMPDEST PUSH2 0x26F PUSH2 0x46D JUMP JUMPDEST PUSH1 0x3 DUP3 PUSH1 0x40 MLOAD PUSH2 0x27F SWAP2 SWAP1 PUSH2 0xC5A JUMP JUMPDEST SWAP1 DUP2 MSTORE PUSH1 0x20 ADD PUSH1 0x40 MLOAD DUP1 SWAP2 SUB SWAP1 KECCAK256 PUSH1 0x40 MLOAD DUP1 PUSH1 0x60 ADD PUSH1 0x40 MSTORE SWAP1 DUP2 PUSH1 0x0 DUP3 ADD SLOAD DUP2 MSTORE PUSH1 0x20 ADD PUSH1 0x1 DUP3 ADD DUP1 SLOAD PUSH2 0x2B2 SWAP1 PUSH2 0xCFE JUMP JUMPDEST DUP1 PUSH1 0x1F ADD PUSH1 0x20 DUP1 SWAP2 DIV MUL PUSH1 0x20 ADD PUSH1 0x40 MLOAD SWAP1 DUP2 ADD PUSH1 0x40 MSTORE DUP1 SWAP3 SWAP2 SWAP1 DUP2 DUP2 MSTORE PUSH1 0x20 ADD DUP3 DUP1 SLOAD PUSH2 0x2DE SWAP1 PUSH2 0xCFE JUMP JUMPDEST DUP1 ISZERO PUSH2 0x32B JUMPI DUP1 PUSH1 0x1F LT PUSH2 0x300 JUMPI PUSH2 0x100 DUP1 DUP4 SLOAD DIV MUL DUP4 MSTORE SWAP2 PUSH1 0x20 ADD SWAP2 PUSH2 0x32B JUMP JUMPDEST DUP3 ADD SWAP2 SWAP1 PUSH1 0x0 MSTORE PUSH1 0x20 PUSH1 0x0 KECCAK256 SWAP1 JUMPDEST DUP2 SLOAD DUP2 MSTORE SWAP1 PUSH1 0x1 ADD SWAP1 PUSH1 0x20 ADD DUP1 DUP4 GT PUSH2 0x30E JUMPI DUP3 SWAP1 SUB PUSH1 0x1F AND DUP3 ADD SWAP2 JUMPDEST POP POP POP POP POP DUP2 MSTORE PUSH1 0x20 ADD PUSH1 0x2 DUP3 ADD DUP1 SLOAD DUP1 PUSH1 0x20 MUL PUSH1 0x20 ADD PUSH1 0x40 MLOAD SWAP1 DUP2 ADD PUSH1 0x40 MSTORE DUP1 SWAP3 SWAP2 SWAP1 DUP2 DUP2 MSTORE PUSH1 0x20 ADD PUSH1 0x0 SWAP1 JUMPDEST DUP3 DUP3 LT ISZERO PUSH2 0x405 JUMPI DUP4 DUP3 SWAP1 PUSH1 0x0 MSTORE PUSH1 0x20 PUSH1 0x0 KECCAK256 ADD DUP1 SLOAD PUSH2 0x378 SWAP1 PUSH2 0xCFE JUMP JUMPDEST DUP1 PUSH1 0x1F ADD PUSH1 0x20 DUP1 SWAP2 DIV MUL PUSH1 0x20 ADD PUSH1 0x40 MLOAD SWAP1 DUP2 ADD PUSH1 0x40 MSTORE DUP1 SWAP3 SWAP2 SWAP1 DUP2 DUP2 MSTORE PUSH1 0x20 ADD DUP3 DUP1 SLOAD PUSH2 0x3A4 SWAP1 PUSH2 0xCFE JUMP JUMPDEST DUP1 ISZERO PUSH2 0x3F1 JUMPI DUP1 PUSH1 0x1F LT PUSH2 0x3C6 JUMPI PUSH2 0x100 DUP1 DUP4 SLOAD DIV MUL DUP4 MSTORE SWAP2 PUSH1 0x20 ADD SWAP2 PUSH2 0x3F1 JUMP JUMPDEST DUP3 ADD SWAP2 SWAP1 PUSH1 0x0 MSTORE PUSH1 0x20 PUSH1 0x0 KECCAK256 SWAP1 JUMPDEST DUP2 SLOAD DUP2 MSTORE SWAP1 PUSH1 0x1 ADD SWAP1 PUSH1 0x20 ADD DUP1 DUP4 GT PUSH2 0x3D4 JUMPI DUP3 SWAP1 SUB PUSH1 0x1F AND DUP3 ADD SWAP2 JUMPDEST POP POP POP POP POP DUP2 MSTORE PUSH1 0x20 ADD SWAP1 PUSH1 0x1 ADD SWAP1 PUSH2 0x359 JUMP JUMPDEST POP POP POP POP DUP2 MSTORE POP POP SWAP1 POP SWAP2 SWAP1 POP JUMP JUMPDEST DUP3 DUP1 SLOAD DUP3 DUP3 SSTORE SWAP1 PUSH1 0x0 MSTORE PUSH1 0x20 PUSH1 0x0 KECCAK256 SWAP1 DUP2 ADD SWAP3 DUP3 ISZERO PUSH2 0x45C JUMPI SWAP2 PUSH1 0x20 MUL DUP3 ADD JUMPDEST DUP3 DUP2 GT ISZERO PUSH2 0x45B JUMPI DUP3 MLOAD DUP3 SWAP1 DUP2 PUSH2 0x44B SWAP2 SWAP1 PUSH2 0xEDB JUMP JUMPDEST POP SWAP2 PUSH1 0x20 ADD SWAP2 SWAP1 PUSH1 0x1 ADD SWAP1 PUSH2 0x434 JUMP JUMPDEST JUMPDEST POP SWAP1 POP PUSH2 0x469 SWAP2 SWAP1 PUSH2 0x48E JUMP JUMPDEST POP SWAP1 JUMP JUMPDEST PUSH1 0x40 MLOAD DUP1 PUSH1 0x60 ADD PUSH1 0x40 MSTORE DUP1 PUSH1 0x0 DUP2 MSTORE PUSH1 0x20 ADD PUSH1 0x60 DUP2 MSTORE PUSH1 0x20 ADD PUSH1 0x60 DUP2 MSTORE POP SWAP1 JUMP JUMPDEST JUMPDEST DUP1 DUP3 GT ISZERO PUSH2 0x4AE JUMPI PUSH1 0x0 DUP2 DUP2 PUSH2 0x4A5 SWAP2 SWAP1 PUSH2 0x4B2 JUMP JUMPDEST POP PUSH1 0x1 ADD PUSH2 0x48F JUMP JUMPDEST POP SWAP1 JUMP JUMPDEST POP DUP1 SLOAD PUSH2 0x4BE SWAP1 PUSH2 0xCFE JUMP JUMPDEST PUSH1 0x0 DUP3 SSTORE DUP1 PUSH1 0x1F LT PUSH2 0x4D0 JUMPI POP PUSH2 0x4EF JUMP JUMPDEST PUSH1 0x1F ADD PUSH1 0x20 SWAP1 DIV SWAP1 PUSH1 0x0 MSTORE PUSH1 0x20 PUSH1 0x0 KECCAK256 SWAP1 DUP2 ADD SWAP1 PUSH2 0x4EE SWAP2 SWAP1 PUSH2 0x4F2 JUMP JUMPDEST JUMPDEST POP JUMP JUMPDEST JUMPDEST DUP1 DUP3 GT ISZERO PUSH2 0x50B JUMPI PUSH1 0x0 DUP2 PUSH1 0x0 SWAP1 SSTORE POP PUSH1 0x1 ADD PUSH2 0x4F3 JUMP JUMPDEST POP SWAP1 JUMP JUMPDEST PUSH1 0x0 PUSH1 0x40 MLOAD SWAP1 POP SWAP1 JUMP JUMPDEST PUSH1 0x0 DUP1 REVERT JUMPDEST PUSH1 0x0 DUP1 REVERT JUMPDEST PUSH1 0x0 DUP1 REVERT JUMPDEST PUSH1 0x0 DUP1 REVERT JUMPDEST PUSH1 0x0 PUSH1 0x1F NOT PUSH1 0x1F DUP4 ADD AND SWAP1 POP SWAP2 SWAP1 POP JUMP JUMPDEST PUSH32 0x4E487B7100000000000000000000000000000000000000000000000000000000 PUSH1 0x0 MSTORE PUSH1 0x41 PUSH1 0x4 MSTORE PUSH1 0x24 PUSH1 0x0 REVERT JUMPDEST PUSH2 0x576 DUP3 PUSH2 0x52D JUMP JUMPDEST DUP2 ADD DUP2 DUP2 LT PUSH8 0xFFFFFFFFFFFFFFFF DUP3 GT OR ISZERO PUSH2 0x595 JUMPI PUSH2 0x594 PUSH2 0x53E JUMP JUMPDEST JUMPDEST DUP1 PUSH1 0x40 MSTORE POP POP POP JUMP JUMPDEST PUSH1 0x0 PUSH2 0x5A8 PUSH2 0x50F JUMP JUMPDEST SWAP1 POP PUSH2 0x5B4 DUP3 DUP3 PUSH2 0x56D JUMP JUMPDEST SWAP2 SWAP1 POP JUMP JUMPDEST PUSH1 0x0 PUSH8 0xFFFFFFFFFFFFFFFF DUP3 GT ISZERO PUSH2 0x5D4 JUMPI PUSH2 0x5D3 PUSH2 0x53E JUMP JUMPDEST JUMPDEST PUSH2 0x5DD DUP3 PUSH2 0x52D JUMP JUMPDEST SWAP1 POP PUSH1 0x20 DUP2 ADD SWAP1 POP SWAP2 SWAP1 POP JUMP JUMPDEST DUP3 DUP2 DUP4 CALLDATACOPY PUSH1 0x0 DUP4 DUP4 ADD MSTORE POP POP POP JUMP JUMPDEST PUSH1 0x0 PUSH2 0x60C PUSH2 0x607 DUP5 PUSH2 0x5B9 JUMP JUMPDEST PUSH2 0x59E JUMP JUMPDEST SWAP1 POP DUP3 DUP2 MSTORE PUSH1 0x20 DUP2 ADD DUP5 DUP5 DUP5 ADD GT ISZERO PUSH2 0x628 JUMPI PUSH2 0x627 PUSH2 0x528 JUMP JUMPDEST JUMPDEST PUSH2 0x633 DUP5 DUP3 DUP6 PUSH2 0x5EA JUMP JUMPDEST POP SWAP4 SWAP3 POP POP POP JUMP JUMPDEST PUSH1 0x0 DUP3 PUSH1 0x1F DUP4 ADD SLT PUSH2 0x650 JUMPI PUSH2 0x64F PUSH2 0x523 JUMP JUMPDEST JUMPDEST DUP2 CALLDATALOAD PUSH2 0x660 DUP5 DUP3 PUSH1 0x20 DUP7 ADD PUSH2 0x5F9 JUMP JUMPDEST SWAP2 POP POP SWAP3 SWAP2 POP POP JUMP JUMPDEST PUSH1 0x0 PUSH1 0x20 DUP3 DUP5 SUB SLT ISZERO PUSH2 0x67F JUMPI PUSH2 0x67E PUSH2 0x519 JUMP JUMPDEST JUMPDEST PUSH1 0x0 DUP3 ADD CALLDATALOAD PUSH8 0xFFFFFFFFFFFFFFFF DUP2 GT ISZERO PUSH2 0x69D JUMPI PUSH2 0x69C PUSH2 0x51E JUMP JUMPDEST JUMPDEST PUSH2 0x6A9 DUP5 DUP3 DUP6 ADD PUSH2 0x63B JUMP JUMPDEST SWAP2 POP POP SWAP3 SWAP2 POP POP JUMP JUMPDEST PUSH1 0x0 DUP2 SWAP1 POP SWAP2 SWAP1 POP JUMP JUMPDEST PUSH2 0x6C5 DUP2 PUSH2 0x6B2 JUMP JUMPDEST DUP3 MSTORE POP POP JUMP JUMPDEST PUSH1 0x0 PUSH1 0x20 DUP3 ADD SWAP1 POP PUSH2 0x6E0 PUSH1 0x0 DUP4 ADD DUP5 PUSH2 0x6BC JUMP JUMPDEST SWAP3 SWAP2 POP POP JUMP JUMPDEST PUSH2 0x6EF DUP2 PUSH2 0x6B2 JUMP JUMPDEST DUP2 EQ PUSH2 0x6FA JUMPI PUSH1 0x0 DUP1 REVERT JUMPDEST POP JUMP JUMPDEST PUSH1 0x0 DUP2 CALLDATALOAD SWAP1 POP PUSH2 0x70C DUP2 PUSH2 0x6E6 JUMP JUMPDEST SWAP3 SWAP2 POP POP JUMP JUMPDEST PUSH1 0x0 DUP1 PUSH1 0x40 DUP4 DUP6 SUB SLT ISZERO PUSH2 0x729 JUMPI PUSH2 0x728 PUSH2 0x519 JUMP JUMPDEST JUMPDEST PUSH1 0x0 DUP4 ADD CALLDATALOAD PUSH8 0xFFFFFFFFFFFFFFFF DUP2 GT ISZERO PUSH2 0x747 JUMPI PUSH2 0x746 PUSH2 0x51E JUMP JUMPDEST JUMPDEST PUSH2 0x753 DUP6 DUP3 DUP7 ADD PUSH2 0x63B JUMP JUMPDEST SWAP3 POP POP PUSH1 0x20 PUSH2 0x764 DUP6 DUP3 DUP7 ADD PUSH2 0x6FD JUMP JUMPDEST SWAP2 POP POP SWAP3 POP SWAP3 SWAP1 POP JUMP JUMPDEST PUSH1 0x0 PUSH8 0xFFFFFFFFFFFFFFFF DUP3 GT ISZERO PUSH2 0x789 JUMPI PUSH2 0x788 PUSH2 0x53E JUMP JUMPDEST JUMPDEST PUSH2 0x792 DUP3 PUSH2 0x52D JUMP JUMPDEST SWAP1 POP PUSH1 0x20 DUP2 ADD SWAP1 POP SWAP2 SWAP1 POP JUMP JUMPDEST PUSH1 0x0 PUSH2 0x7B2 PUSH2 0x7AD DUP5 PUSH2 0x76E JUMP JUMPDEST PUSH2 0x59E JUMP JUMPDEST SWAP1 POP DUP3 DUP2 MSTORE PUSH1 0x20 DUP2 ADD DUP5 DUP5 DUP5 ADD GT ISZERO PUSH2 0x7CE JUMPI PUSH2 0x7CD PUSH2 0x528 JUMP JUMPDEST JUMPDEST PUSH2 0x7D9 DUP5 DUP3 DUP6 PUSH2 0x5EA JUMP JUMPDEST POP SWAP4 SWAP3 POP POP POP JUMP JUMPDEST PUSH1 0x0 DUP3 PUSH1 0x1F DUP4 ADD SLT PUSH2 0x7F6 JUMPI PUSH2 0x7F5 PUSH2 0x523 JUMP JUMPDEST JUMPDEST DUP2 CALLDATALOAD PUSH2 0x806 DUP5 DUP3 PUSH1 0x20 DUP7 ADD PUSH2 0x79F JUMP JUMPDEST SWAP2 POP POP SWAP3 SWAP2 POP POP JUMP JUMPDEST PUSH1 0x0 DUP1 PUSH1 0x40 DUP4 DUP6 SUB SLT ISZERO PUSH2 0x826 JUMPI PUSH2 0x825 PUSH2 0x519 JUMP JUMPDEST JUMPDEST PUSH1 0x0 DUP4 ADD CALLDATALOAD PUSH8 0xFFFFFFFFFFFFFFFF DUP2 GT ISZERO PUSH2 0x844 JUMPI PUSH2 0x843 PUSH2 0x51E JUMP JUMPDEST JUMPDEST PUSH2 0x850 DUP6 DUP3 DUP7 ADD PUSH2 0x7E1 JUMP JUMPDEST SWAP3 POP POP PUSH1 0x20 PUSH2 0x861 DUP6 DUP3 DUP7 ADD PUSH2 0x6FD JUMP JUMPDEST SWAP2 POP POP SWAP3 POP SWAP3 SWAP1 POP JUMP JUMPDEST PUSH1 0x0 PUSH1 0x20 DUP3 DUP5 SUB SLT ISZERO PUSH2 0x881 JUMPI PUSH2 0x880 PUSH2 0x519 JUMP JUMPDEST JUMPDEST PUSH1 0x0 DUP3 ADD CALLDATALOAD PUSH8 0xFFFFFFFFFFFFFFFF DUP2 GT ISZERO PUSH2 0x89F JUMPI PUSH2 0x89E PUSH2 0x51E JUMP JUMPDEST JUMPDEST PUSH2 0x8AB DUP5 DUP3 DUP6 ADD PUSH2 0x7E1 JUMP JUMPDEST SWAP2 POP POP SWAP3 SWAP2 POP POP JUMP JUMPDEST PUSH1 0x0 PUSH8 0xFFFFFFFFFFFFFFFF DUP3 GT ISZERO PUSH2 0x8CF JUMPI PUSH2 0x8CE PUSH2 0x53E JUMP JUMPDEST JUMPDEST PUSH1 0x20 DUP3 MUL SWAP1 POP PUSH1 0x20 DUP2 ADD SWAP1 POP SWAP2 SWAP1 POP JUMP JUMPDEST PUSH1 0x0 DUP1 REVERT JUMPDEST PUSH1 0x0 PUSH2 0x8F8 PUSH2 0x8F3 DUP5 PUSH2 0x8B4 JUMP JUMPDEST PUSH2 0x59E JUMP JUMPDEST SWAP1 POP DUP1 DUP4 DUP3 MSTORE PUSH1 0x20 DUP3 ADD SWAP1 POP PUSH1 0x20 DUP5 MUL DUP4 ADD DUP6 DUP2 GT ISZERO PUSH2 0x91B JUMPI PUSH2 0x91A PUSH2 0x8E0 JUMP JUMPDEST JUMPDEST DUP4 JUMPDEST DUP2 DUP2 LT ISZERO PUSH2 0x962 JUMPI DUP1 CALLDATALOAD PUSH8 0xFFFFFFFFFFFFFFFF DUP2 GT ISZERO PUSH2 0x940 JUMPI PUSH2 0x93F PUSH2 0x523 JUMP JUMPDEST JUMPDEST DUP1 DUP7 ADD PUSH2 0x94D DUP10 DUP3 PUSH2 0x63B JUMP JUMPDEST DUP6 MSTORE PUSH1 0x20 DUP6 ADD SWAP5 POP POP POP PUSH1 0x20 DUP2 ADD SWAP1 POP PUSH2 0x91D JUMP JUMPDEST POP POP POP SWAP4 SWAP3 POP POP POP JUMP JUMPDEST PUSH1 0x0 DUP3 PUSH1 0x1F DUP4 ADD SLT PUSH2 0x981 JUMPI PUSH2 0x980 PUSH2 0x523 JUMP JUMPDEST JUMPDEST DUP2 CALLDATALOAD PUSH2 0x991 DUP5 DUP3 PUSH1 0x20 DUP7 ADD PUSH2 0x8E5 JUMP JUMPDEST SWAP2 POP POP SWAP3 SWAP2 POP POP JUMP JUMPDEST PUSH1 0x0 DUP1 PUSH1 0x0 DUP1 PUSH1 0x80 DUP6 DUP8 SUB SLT ISZERO PUSH2 0x9B4 JUMPI PUSH2 0x9B3 PUSH2 0x519 JUMP JUMPDEST JUMPDEST PUSH1 0x0 DUP6 ADD CALLDATALOAD PUSH8 0xFFFFFFFFFFFFFFFF DUP2 GT ISZERO PUSH2 0x9D2 JUMPI PUSH2 0x9D1 PUSH2 0x51E JUMP JUMPDEST JUMPDEST PUSH2 0x9DE DUP8 DUP3 DUP9 ADD PUSH2 0x63B JUMP JUMPDEST SWAP5 POP POP PUSH1 0x20 PUSH2 0x9EF DUP8 DUP3 DUP9 ADD PUSH2 0x6FD JUMP JUMPDEST SWAP4 POP POP PUSH1 0x40 DUP6 ADD CALLDATALOAD PUSH8 0xFFFFFFFFFFFFFFFF DUP2 GT ISZERO PUSH2 0xA10 JUMPI PUSH2 0xA0F PUSH2 0x51E JUMP JUMPDEST JUMPDEST PUSH2 0xA1C DUP8 DUP3 DUP9 ADD PUSH2 0x63B JUMP JUMPDEST SWAP3 POP POP PUSH1 0x60 DUP6 ADD CALLDATALOAD PUSH8 0xFFFFFFFFFFFFFFFF DUP2 GT ISZERO PUSH2 0xA3D JUMPI PUSH2 0xA3C PUSH2 0x51E JUMP JUMPDEST JUMPDEST PUSH2 0xA49 DUP8 DUP3 DUP9 ADD PUSH2 0x96C JUMP JUMPDEST SWAP2 POP POP SWAP3 SWAP6 SWAP2 SWAP5 POP SWAP3 POP JUMP JUMPDEST PUSH2 0xA5E DUP2 PUSH2 0x6B2 JUMP JUMPDEST DUP3 MSTORE POP POP JUMP JUMPDEST PUSH1 0x0 DUP2 MLOAD SWAP1 POP SWAP2 SWAP1 POP JUMP JUMPDEST PUSH1 0x0 DUP3 DUP3 MSTORE PUSH1 0x20 DUP3 ADD SWAP1 POP SWAP3 SWAP2 POP POP JUMP JUMPDEST PUSH1 0x0 JUMPDEST DUP4 DUP2 LT ISZERO PUSH2 0xA9E JUMPI DUP1 DUP3 ADD MLOAD DUP2 DUP5 ADD MSTORE PUSH1 0x20 DUP2 ADD SWAP1 POP PUSH2 0xA83 JUMP JUMPDEST PUSH1 0x0 DUP5 DUP5 ADD MSTORE POP POP POP POP JUMP JUMPDEST PUSH1 0x0 PUSH2 0xAB5 DUP3 PUSH2 0xA64 JUMP JUMPDEST PUSH2 0xABF DUP2 DUP6 PUSH2 0xA6F JUMP JUMPDEST SWAP4 POP PUSH2 0xACF DUP2 DUP6 PUSH1 0x20 DUP7 ADD PUSH2 0xA80 JUMP JUMPDEST PUSH2 0xAD8 DUP2 PUSH2 0x52D JUMP JUMPDEST DUP5 ADD SWAP2 POP POP SWAP3 SWAP2 POP POP JUMP JUMPDEST PUSH1 0x0 DUP2 MLOAD SWAP1 POP SWAP2 SWAP1 POP JUMP JUMPDEST PUSH1 0x0 DUP3 DUP3 MSTORE PUSH1 0x20 DUP3 ADD SWAP1 POP SWAP3 SWAP2 POP POP JUMP JUMPDEST PUSH1 0x0 DUP2 SWAP1 POP PUSH1 0x20 DUP3 ADD SWAP1 POP SWAP2 SWAP1 POP JUMP JUMPDEST PUSH1 0x0 PUSH2 0xB1B DUP4 DUP4 PUSH2 0xAAA JUMP JUMPDEST SWAP1 POP SWAP3 SWAP2 POP POP JUMP JUMPDEST PUSH1 0x0 PUSH1 0x20 DUP3 ADD SWAP1 POP SWAP2 SWAP1 POP JUMP JUMPDEST PUSH1 0x0 PUSH2 0xB3B DUP3 PUSH2 0xAE3 JUMP JUMPDEST PUSH2 0xB45 DUP2 DUP6 PUSH2 0xAEE JUMP JUMPDEST SWAP4 POP DUP4 PUSH1 0x20 DUP3 MUL DUP6 ADD PUSH2 0xB57 DUP6 PUSH2 0xAFF JUMP JUMPDEST DUP1 PUSH1 0x0 JUMPDEST DUP6 DUP2 LT ISZERO PUSH2 0xB93 JUMPI DUP5 DUP5 SUB DUP10 MSTORE DUP2 MLOAD PUSH2 0xB74 DUP6 DUP3 PUSH2 0xB0F JUMP JUMPDEST SWAP5 POP PUSH2 0xB7F DUP4 PUSH2 0xB23 JUMP JUMPDEST SWAP3 POP PUSH1 0x20 DUP11 ADD SWAP10 POP POP PUSH1 0x1 DUP2 ADD SWAP1 POP PUSH2 0xB5B JUMP JUMPDEST POP DUP3 SWAP8 POP DUP8 SWAP6 POP POP POP POP POP POP SWAP3 SWAP2 POP POP JUMP JUMPDEST PUSH1 0x0 PUSH1 0x60 DUP4 ADD PUSH1 0x0 DUP4 ADD MLOAD PUSH2 0xBBD PUSH1 0x0 DUP7 ADD DUP3 PUSH2 0xA55 JUMP JUMPDEST POP PUSH1 0x20 DUP4 ADD MLOAD DUP5 DUP3 SUB PUSH1 0x20 DUP7 ADD MSTORE PUSH2 0xBD5 DUP3 DUP3 PUSH2 0xAAA JUMP JUMPDEST SWAP2 POP POP PUSH1 0x40 DUP4 ADD MLOAD DUP5 DUP3 SUB PUSH1 0x40 DUP7 ADD MSTORE PUSH2 0xBEF DUP3 DUP3 PUSH2 0xB30 JUMP JUMPDEST SWAP2 POP POP DUP1 SWAP2 POP POP SWAP3 SWAP2 POP POP JUMP JUMPDEST PUSH1 0x0 PUSH1 0x20 DUP3 ADD SWAP1 POP DUP2 DUP2 SUB PUSH1 0x0 DUP4 ADD MSTORE PUSH2 0xC16 DUP2 DUP5 PUSH2 0xBA5 JUMP JUMPDEST SWAP1 POP SWAP3 SWAP2 POP POP JUMP JUMPDEST PUSH1 0x0 DUP2 SWAP1 POP SWAP3 SWAP2 POP POP JUMP JUMPDEST PUSH1 0x0 PUSH2 0xC34 DUP3 PUSH2 0xA64 JUMP JUMPDEST PUSH2 0xC3E DUP2 DUP6 PUSH2 0xC1E JUMP JUMPDEST SWAP4 POP PUSH2 0xC4E DUP2 DUP6 PUSH1 0x20 DUP7 ADD PUSH2 0xA80 JUMP JUMPDEST DUP1 DUP5 ADD SWAP2 POP POP SWAP3 SWAP2 POP POP JUMP JUMPDEST PUSH1 0x0 PUSH2 0xC66 DUP3 DUP5 PUSH2 0xC29 JUMP JUMPDEST SWAP2 POP DUP2 SWAP1 POP SWAP3 SWAP2 POP POP JUMP JUMPDEST PUSH1 0x0 DUP2 MLOAD SWAP1 POP SWAP2 SWAP1 POP JUMP JUMPDEST PUSH1 0x0 DUP2 SWAP1 POP SWAP3 SWAP2 POP POP JUMP JUMPDEST PUSH1 0x0 PUSH2 0xC92 DUP3 PUSH2 0xC71 JUMP JUMPDEST PUSH2 0xC9C DUP2 DUP6 PUSH2 0xC7C JUMP JUMPDEST SWAP4 POP PUSH2 0xCAC DUP2 DUP6 PUSH1 0x20 DUP7 ADD PUSH2 0xA80 JUMP JUMPDEST DUP1 DUP5 ADD SWAP2 POP POP SWAP3 SWAP2 POP POP JUMP JUMPDEST PUSH1 0x0 PUSH2 0xCC4 DUP3 DUP5 PUSH2 0xC87 JUMP JUMPDEST SWAP2 POP DUP2 SWAP1 POP SWAP3 SWAP2 POP POP JUMP JUMPDEST PUSH32 0x4E487B7100000000000000000000000000000000000000000000000000000000 PUSH1 0x0 MSTORE PUSH1 0x22 PUSH1 0x4 MSTORE PUSH1 0x24 PUSH1 0x0 REVERT JUMPDEST PUSH1 0x0 PUSH1 0x2 DUP3 DIV SWAP1 POP PUSH1 0x1 DUP3 AND DUP1 PUSH2 0xD16 JUMPI PUSH1 0x7F DUP3 AND SWAP2 POP JUMPDEST PUSH1 0x20 DUP3 LT DUP2 SUB PUSH2 0xD29 JUMPI PUSH2 0xD28 PUSH2 0xCCF JUMP JUMPDEST JUMPDEST POP SWAP2 SWAP1 POP JUMP JUMPDEST PUSH1 0x0 DUP2 SWAP1 POP DUP2 PUSH1 0x0 MSTORE PUSH1 0x20 PUSH1 0x0 KECCAK256 SWAP1 POP SWAP2 SWAP1 POP JUMP JUMPDEST PUSH1 0x0 PUSH1 0x20 PUSH1 0x1F DUP4 ADD DIV SWAP1 POP SWAP2 SWAP1 POP JUMP JUMPDEST PUSH1 0x0 DUP3 DUP3 SHL SWAP1 POP SWAP3 SWAP2 POP POP JUMP JUMPDEST PUSH1 0x0 PUSH1 0x8 DUP4 MUL PUSH2 0xD91 PUSH32 0xFFFFFFFFFFFFFFFFFFFFFFFFFFFFFFFFFFFFFFFFFFFFFFFFFFFFFFFFFFFFFFFF DUP3 PUSH2 0xD54 JUMP JUMPDEST PUSH2 0xD9B DUP7 DUP4 PUSH2 0xD54 JUMP JUMPDEST SWAP6 POP DUP1 NOT DUP5 AND SWAP4 POP DUP1 DUP7 AND DUP5 OR SWAP3 POP POP POP SWAP4 SWAP3 POP POP POP JUMP JUMPDEST PUSH1 0x0 DUP2 SWAP1 POP SWAP2 SWAP1 POP JUMP JUMPDEST PUSH1 0x0 PUSH2 0xDD8 PUSH2 0xDD3 PUSH2 0xDCE DUP5 PUSH2 0x6B2 JUMP JUMPDEST PUSH2 0xDB3 JUMP JUMPDEST PUSH2 0x6B2 JUMP JUMPDEST SWAP1 POP SWAP2 SWAP1 POP JUMP JUMPDEST PUSH1 0x0 DUP2 SWAP1 POP SWAP2 SWAP1 POP JUMP JUMPDEST PUSH2 0xDF2 DUP4 PUSH2 0xDBD JUMP JUMPDEST PUSH2 0xE06 PUSH2 0xDFE DUP3 PUSH2 0xDDF JUMP JUMPDEST DUP5 DUP5 SLOAD PUSH2 0xD61 JUMP JUMPDEST DUP3 SSTORE POP POP POP POP JUMP JUMPDEST PUSH1 0x0 SWAP1 JUMP JUMPDEST PUSH2 0xE1B PUSH2 0xE0E JUMP JUMPDEST PUSH2 0xE26 DUP2 DUP5 DUP5 PUSH2 0xDE9 JUMP JUMPDEST POP POP POP JUMP JUMPDEST JUMPDEST DUP2 DUP2 LT ISZERO PUSH2 0xE4A JUMPI PUSH2 0xE3F PUSH1 0x0 DUP3 PUSH2 0xE13 JUMP JUMPDEST PUSH1 0x1 DUP2 ADD SWAP1 POP PUSH2 0xE2C JUMP JUMPDEST POP POP JUMP JUMPDEST PUSH1 0x1F DUP3 GT ISZERO PUSH2 0xE8F JUMPI PUSH2 0xE60 DUP2 PUSH2 0xD2F JUMP JUMPDEST PUSH2 0xE69 DUP5 PUSH2 0xD44 JUMP JUMPDEST DUP2 ADD PUSH1 0x20 DUP6 LT ISZERO PUSH2 0xE78 JUMPI DUP2 SWAP1 POP JUMPDEST PUSH2 0xE8C PUSH2 0xE84 DUP6 PUSH2 0xD44 JUMP JUMPDEST DUP4 ADD DUP3 PUSH2 0xE2B JUMP JUMPDEST POP POP JUMPDEST POP POP POP JUMP JUMPDEST PUSH1 0x0 DUP3 DUP3 SHR SWAP1 POP SWAP3 SWAP2 POP POP JUMP JUMPDEST PUSH1 0x0 PUSH2 0xEB2 PUSH1 0x0 NOT DUP5 PUSH1 0x8 MUL PUSH2 0xE94 JUMP JUMPDEST NOT DUP1 DUP4 AND SWAP2 POP POP SWAP3 SWAP2 POP POP JUMP JUMPDEST PUSH1 0x0 PUSH2 0xECB DUP4 DUP4 PUSH2 0xEA1 JUMP JUMPDEST SWAP2 POP DUP3 PUSH1 0x2 MUL DUP3 OR SWAP1 POP SWAP3 SWAP2 POP POP JUMP JUMPDEST PUSH2 0xEE4 DUP3 PUSH2 0xA64 JUMP JUMPDEST PUSH8 0xFFFFFFFFFFFFFFFF DUP2 GT ISZERO PUSH2 0xEFD JUMPI PUSH2 0xEFC PUSH2 0x53E JUMP JUMPDEST JUMPDEST PUSH2 0xF07 DUP3 SLOAD PUSH2 0xCFE JUMP JUMPDEST PUSH2 0xF12 DUP3 DUP3 DUP6 PUSH2 0xE4E JUMP JUMPDEST PUSH1 0x0 PUSH1 0x20 SWAP1 POP PUSH1 0x1F DUP4 GT PUSH1 0x1 DUP2 EQ PUSH2 0xF45 JUMPI PUSH1 0x0 DUP5 ISZERO PUSH2 0xF33 JUMPI DUP3 DUP8 ADD MLOAD SWAP1 POP JUMPDEST PUSH2 0xF3D DUP6 DUP3 PUSH2 0xEBF JUMP JUMPDEST DUP7 SSTORE POP PUSH2 0xFA5 JUMP JUMPDEST PUSH1 0x1F NOT DUP5 AND PUSH2 0xF53 DUP7 PUSH2 0xD2F JUMP JUMPDEST PUSH1 0x0 JUMPDEST DUP3 DUP2 LT ISZERO PUSH2 0xF7B JUMPI DUP5 DUP10 ADD MLOAD DUP3 SSTORE PUSH1 0x1 DUP3 ADD SWAP2 POP PUSH1 0x20 DUP6 ADD SWAP5 POP PUSH1 0x20 DUP2 ADD SWAP1 POP PUSH2 0xF56 JUMP JUMPDEST DUP7 DUP4 LT ISZERO PUSH2 0xF98 JUMPI DUP5 DUP10 ADD MLOAD PUSH2 0xF94 PUSH1 0x1F DUP10 AND DUP3 PUSH2 0xEA1 JUMP JUMPDEST DUP4 SSTORE POP JUMPDEST PUSH1 0x1 PUSH1 0x2 DUP9 MUL ADD DUP9 SSTORE POP POP POP JUMPDEST POP POP POP POP POP POP JUMP INVALID LOG2 PUSH5 0x6970667358 0x22 SLT KECCAK256 CALLVALUE 0x5D BASEFEE AND 0xD5 0xB6 CODECOPY 0x21 0xBA SWAP12 0x27 PC 0x22 PUSH32 0x15D7882C59835B860FAB30F45E13A05E2FDE64736F6C63430008120033000000 "
				},
				"gasEstimates": {
					"creation": {
						"codeDepositCost": "813400",
						"executionCost": "851",
						"totalCost": "814251"
					},
					"external": {
						"getB(string)": "infinite",
						"getC(bytes)": "infinite",
						"getTeacher_Student(string)": "infinite",
						"setB(string,uint256)": "infinite",
						"setC(bytes,uint256)": "infinite",
						"setTeacher_Student(string,uint256,string,string[])": "infinite"
					}
				},
				"methodIdentifiers": {
					"getB(string)": "00ad33ed",
					"getC(bytes)": "a82ad90e",
					"getTeacher_Student(string)": "c013118f",
					"setB(string,uint256)": "13465f12",
					"setC(bytes,uint256)": "9aa937ca",
					"setTeacher_Student(string,uint256,string,string[])": "abe7405e"
				}
			},
			"storageLayout": {
				"storage": [
					{
						"astId": 5,
						"contract": "contracts/230509_1.sol:MAPPING",
						"label": "a",
						"offset": 0,
						"slot": "0",
						"type": "t_mapping(t_uint256,t_uint256)"
					},
					{
						"astId": 9,
						"contract": "contracts/230509_1.sol:MAPPING",
						"label": "b",
						"offset": 0,
						"slot": "1",
						"type": "t_mapping(t_string_memory_ptr,t_uint256)"
					},
					{
						"astId": 13,
						"contract": "contracts/230509_1.sol:MAPPING",
						"label": "c",
						"offset": 0,
						"slot": "2",
						"type": "t_mapping(t_bytes_memory_ptr,t_uint256)"
					},
					{
						"astId": 78,
						"contract": "contracts/230509_1.sol:MAPPING",
						"label": "Teacher_Student",
						"offset": 0,
						"slot": "3",
						"type": "t_mapping(t_string_memory_ptr,t_struct(Student)73_storage)"
					}
				],
				"types": {
					"t_array(t_string_storage)dyn_storage": {
						"base": "t_string_storage",
						"encoding": "dynamic_array",
						"label": "string[]",
						"numberOfBytes": "32"
					},
					"t_bytes_memory_ptr": {
						"encoding": "bytes",
						"label": "bytes",
						"numberOfBytes": "32"
					},
					"t_mapping(t_bytes_memory_ptr,t_uint256)": {
						"encoding": "mapping",
						"key": "t_bytes_memory_ptr",
						"label": "mapping(bytes => uint256)",
						"numberOfBytes": "32",
						"value": "t_uint256"
					},
					"t_mapping(t_string_memory_ptr,t_struct(Student)73_storage)": {
						"encoding": "mapping",
						"key": "t_string_memory_ptr",
						"label": "mapping(string => struct MAPPING.Student)",
						"numberOfBytes": "32",
						"value": "t_struct(Student)73_storage"
					},
					"t_mapping(t_string_memory_ptr,t_uint256)": {
						"encoding": "mapping",
						"key": "t_string_memory_ptr",
						"label": "mapping(string => uint256)",
						"numberOfBytes": "32",
						"value": "t_uint256"
					},
					"t_mapping(t_uint256,t_uint256)": {
						"encoding": "mapping",
						"key": "t_uint256",
						"label": "mapping(uint256 => uint256)",
						"numberOfBytes": "32",
						"value": "t_uint256"
					},
					"t_string_memory_ptr": {
						"encoding": "bytes",
						"label": "string",
						"numberOfBytes": "32"
					},
					"t_string_storage": {
						"encoding": "bytes",
						"label": "string",
						"numberOfBytes": "32"
					},
					"t_struct(Student)73_storage": {
						"encoding": "inplace",
						"label": "struct MAPPING.Student",
						"members": [
							{
								"astId": 67,
								"contract": "contracts/230509_1.sol:MAPPING",
								"label": "number",
								"offset": 0,
								"slot": "0",
								"type": "t_uint256"
							},
							{
								"astId": 69,
								"contract": "contracts/230509_1.sol:MAPPING",
								"label": "name",
								"offset": 0,
								"slot": "1",
								"type": "t_string_storage"
							},
							{
								"astId": 72,
								"contract": "contracts/230509_1.sol:MAPPING",
								"label": "classes",
								"offset": 0,
								"slot": "2",
								"type": "t_array(t_string_storage)dyn_storage"
							}
						],
						"numberOfBytes": "96"
					},
					"t_uint256": {
						"encoding": "inplace",
						"label": "uint256",
						"numberOfBytes": "32"
					}
				}
			},
			"userdoc": {
				"kind": "user",
				"methods": {},
				"version": 1
			}
		}
	}
}