{
	"data": {
		"bytecode": {
			"linkReferences": {},
			"object": "608060405234801561001057600080fd5b506106a1806100206000396000f3fe608060405234801561001057600080fd5b506004361061002b5760003560e01c8063473e991414610030575b600080fd5b61004a60048036038101906100459190610280565b61004c565b005b600092505b60068310156100eb57600060405180606001604052808581526020018481526020018381525090806001815401808255809150506001900390600052602060002090600302016000909190919091506000820151816000015560208201518160010190816100bf9190610522565b5060408201518160020190816100d59190610522565b50505082806100e390610623565b935050610051565b505050565b6000604051905090565b600080fd5b600080fd5b6000819050919050565b61011781610104565b811461012257600080fd5b50565b6000813590506101348161010e565b92915050565b600080fd5b600080fd5b6000601f19601f8301169050919050565b7f4e487b7100000000000000000000000000000000000000000000000000000000600052604160045260246000fd5b61018d82610144565b810181811067ffffffffffffffff821117156101ac576101ab610155565b5b80604052505050565b60006101bf6100f0565b90506101cb8282610184565b919050565b600067ffffffffffffffff8211156101eb576101ea610155565b5b6101f482610144565b9050602081019050919050565b82818337600083830152505050565b600061022361021e846101d0565b6101b5565b90508281526020810184848401111561023f5761023e61013f565b5b61024a848285610201565b509392505050565b600082601f8301126102675761026661013a565b5b8135610277848260208601610210565b91505092915050565b600080600060608486031215610299576102986100fa565b5b60006102a786828701610125565b935050602084013567ffffffffffffffff8111156102c8576102c76100ff565b5b6102d486828701610252565b925050604084013567ffffffffffffffff8111156102f5576102f46100ff565b5b61030186828701610252565b9150509250925092565b600081519050919050565b7f4e487b7100000000000000000000000000000000000000000000000000000000600052602260045260246000fd5b6000600282049050600182168061035d57607f821691505b6020821081036103705761036f610316565b5b50919050565b60008190508160005260206000209050919050565b60006020601f8301049050919050565b600082821b905092915050565b6000600883026103d87fffffffffffffffffffffffffffffffffffffffffffffffffffffffffffffffff8261039b565b6103e2868361039b565b95508019841693508086168417925050509392505050565b6000819050919050565b600061041f61041a61041584610104565b6103fa565b610104565b9050919050565b6000819050919050565b61043983610404565b61044d61044582610426565b8484546103a8565b825550505050565b600090565b610462610455565b61046d818484610430565b505050565b5b818110156104915761048660008261045a565b600181019050610473565b5050565b601f8211156104d6576104a781610376565b6104b08461038b565b810160208510156104bf578190505b6104d36104cb8561038b565b830182610472565b50505b505050565b600082821c905092915050565b60006104f9600019846008026104db565b1980831691505092915050565b600061051283836104e8565b9150826002028217905092915050565b61052b8261030b565b67ffffffffffffffff81111561054457610543610155565b5b61054e8254610345565b610559828285610495565b600060209050601f83116001811461058c576000841561057a578287015190505b6105848582610506565b8655506105ec565b601f19841661059a86610376565b60005b828110156105c25784890151825560018201915060208501945060208101905061059d565b868310156105df57848901516105db601f8916826104e8565b8355505b6001600288020188555050505b505050505050565b7f4e487b7100000000000000000000000000000000000000000000000000000000600052601160045260246000fd5b600061062e82610104565b91507fffffffffffffffffffffffffffffffffffffffffffffffffffffffffffffffff82036106605761065f6105f4565b5b60018201905091905056fea2646970667358221220debd071e029d2317dec94ddaa2cef6d2c6d76230a9f6e7b2f9482ab4c7cc12d164736f6c63430008120033",
			"opcodes": "PUSH1 0x80 PUSH1 0x40 MSTORE CALLVALUE DUP1 ISZERO PUSH2 0x10 JUMPI PUSH1 0x0 DUP1 REVERT JUMPDEST POP PUSH2 0x6A1 DUP1 PUSH2 0x20 PUSH1 0x0 CODECOPY PUSH1 0x0 RETURN INVALID PUSH1 0x80 PUSH1 0x40 MSTORE CALLVALUE DUP1 ISZERO PUSH2 0x10 JUMPI PUSH1 0x0 DUP1 REVERT JUMPDEST POP PUSH1 0x4 CALLDATASIZE LT PUSH2 0x2B JUMPI PUSH1 0x0 CALLDATALOAD PUSH1 0xE0 SHR DUP1 PUSH4 0x473E9914 EQ PUSH2 0x30 JUMPI JUMPDEST PUSH1 0x0 DUP1 REVERT JUMPDEST PUSH2 0x4A PUSH1 0x4 DUP1 CALLDATASIZE SUB DUP2 ADD SWAP1 PUSH2 0x45 SWAP2 SWAP1 PUSH2 0x280 JUMP JUMPDEST PUSH2 0x4C JUMP JUMPDEST STOP JUMPDEST PUSH1 0x0 SWAP3 POP JUMPDEST PUSH1 0x6 DUP4 LT ISZERO PUSH2 0xEB JUMPI PUSH1 0x0 PUSH1 0x40 MLOAD DUP1 PUSH1 0x60 ADD PUSH1 0x40 MSTORE DUP1 DUP6 DUP2 MSTORE PUSH1 0x20 ADD DUP5 DUP2 MSTORE PUSH1 0x20 ADD DUP4 DUP2 MSTORE POP SWAP1 DUP1 PUSH1 0x1 DUP2 SLOAD ADD DUP1 DUP3 SSTORE DUP1 SWAP2 POP POP PUSH1 0x1 SWAP1 SUB SWAP1 PUSH1 0x0 MSTORE PUSH1 0x20 PUSH1 0x0 KECCAK256 SWAP1 PUSH1 0x3 MUL ADD PUSH1 0x0 SWAP1 SWAP2 SWAP1 SWAP2 SWAP1 SWAP2 POP PUSH1 0x0 DUP3 ADD MLOAD DUP2 PUSH1 0x0 ADD SSTORE PUSH1 0x20 DUP3 ADD MLOAD DUP2 PUSH1 0x1 ADD SWAP1 DUP2 PUSH2 0xBF SWAP2 SWAP1 PUSH2 0x522 JUMP JUMPDEST POP PUSH1 0x40 DUP3 ADD MLOAD DUP2 PUSH1 0x2 ADD SWAP1 DUP2 PUSH2 0xD5 SWAP2 SWAP1 PUSH2 0x522 JUMP JUMPDEST POP POP POP DUP3 DUP1 PUSH2 0xE3 SWAP1 PUSH2 0x623 JUMP JUMPDEST SWAP4 POP POP PUSH2 0x51 JUMP JUMPDEST POP POP POP JUMP JUMPDEST PUSH1 0x0 PUSH1 0x40 MLOAD SWAP1 POP SWAP1 JUMP JUMPDEST PUSH1 0x0 DUP1 REVERT JUMPDEST PUSH1 0x0 DUP1 REVERT JUMPDEST PUSH1 0x0 DUP2 SWAP1 POP SWAP2 SWAP1 POP JUMP JUMPDEST PUSH2 0x117 DUP2 PUSH2 0x104 JUMP JUMPDEST DUP2 EQ PUSH2 0x122 JUMPI PUSH1 0x0 DUP1 REVERT JUMPDEST POP JUMP JUMPDEST PUSH1 0x0 DUP2 CALLDATALOAD SWAP1 POP PUSH2 0x134 DUP2 PUSH2 0x10E JUMP JUMPDEST SWAP3 SWAP2 POP POP JUMP JUMPDEST PUSH1 0x0 DUP1 REVERT JUMPDEST PUSH1 0x0 DUP1 REVERT JUMPDEST PUSH1 0x0 PUSH1 0x1F NOT PUSH1 0x1F DUP4 ADD AND SWAP1 POP SWAP2 SWAP1 POP JUMP JUMPDEST PUSH32 0x4E487B7100000000000000000000000000000000000000000000000000000000 PUSH1 0x0 MSTORE PUSH1 0x41 PUSH1 0x4 MSTORE PUSH1 0x24 PUSH1 0x0 REVERT JUMPDEST PUSH2 0x18D DUP3 PUSH2 0x144 JUMP JUMPDEST DUP2 ADD DUP2 DUP2 LT PUSH8 0xFFFFFFFFFFFFFFFF DUP3 GT OR ISZERO PUSH2 0x1AC JUMPI PUSH2 0x1AB PUSH2 0x155 JUMP JUMPDEST JUMPDEST DUP1 PUSH1 0x40 MSTORE POP POP POP JUMP JUMPDEST PUSH1 0x0 PUSH2 0x1BF PUSH2 0xF0 JUMP JUMPDEST SWAP1 POP PUSH2 0x1CB DUP3 DUP3 PUSH2 0x184 JUMP JUMPDEST SWAP2 SWAP1 POP JUMP JUMPDEST PUSH1 0x0 PUSH8 0xFFFFFFFFFFFFFFFF DUP3 GT ISZERO PUSH2 0x1EB JUMPI PUSH2 0x1EA PUSH2 0x155 JUMP JUMPDEST JUMPDEST PUSH2 0x1F4 DUP3 PUSH2 0x144 JUMP JUMPDEST SWAP1 POP PUSH1 0x20 DUP2 ADD SWAP1 POP SWAP2 SWAP1 POP JUMP JUMPDEST DUP3 DUP2 DUP4 CALLDATACOPY PUSH1 0x0 DUP4 DUP4 ADD MSTORE POP POP POP JUMP JUMPDEST PUSH1 0x0 PUSH2 0x223 PUSH2 0x21E DUP5 PUSH2 0x1D0 JUMP JUMPDEST PUSH2 0x1B5 JUMP JUMPDEST SWAP1 POP DUP3 DUP2 MSTORE PUSH1 0x20 DUP2 ADD DUP5 DUP5 DUP5 ADD GT ISZERO PUSH2 0x23F JUMPI PUSH2 0x23E PUSH2 0x13F JUMP JUMPDEST JUMPDEST PUSH2 0x24A DUP5 DUP3 DUP6 PUSH2 0x201 JUMP JUMPDEST POP SWAP4 SWAP3 POP POP POP JUMP JUMPDEST PUSH1 0x0 DUP3 PUSH1 0x1F DUP4 ADD SLT PUSH2 0x267 JUMPI PUSH2 0x266 PUSH2 0x13A JUMP JUMPDEST JUMPDEST DUP2 CALLDATALOAD PUSH2 0x277 DUP5 DUP3 PUSH1 0x20 DUP7 ADD PUSH2 0x210 JUMP JUMPDEST SWAP2 POP POP SWAP3 SWAP2 POP POP JUMP JUMPDEST PUSH1 0x0 DUP1 PUSH1 0x0 PUSH1 0x60 DUP5 DUP7 SUB SLT ISZERO PUSH2 0x299 JUMPI PUSH2 0x298 PUSH2 0xFA JUMP JUMPDEST JUMPDEST PUSH1 0x0 PUSH2 0x2A7 DUP7 DUP3 DUP8 ADD PUSH2 0x125 JUMP JUMPDEST SWAP4 POP POP PUSH1 0x20 DUP5 ADD CALLDATALOAD PUSH8 0xFFFFFFFFFFFFFFFF DUP2 GT ISZERO PUSH2 0x2C8 JUMPI PUSH2 0x2C7 PUSH2 0xFF JUMP JUMPDEST JUMPDEST PUSH2 0x2D4 DUP7 DUP3 DUP8 ADD PUSH2 0x252 JUMP JUMPDEST SWAP3 POP POP PUSH1 0x40 DUP5 ADD CALLDATALOAD PUSH8 0xFFFFFFFFFFFFFFFF DUP2 GT ISZERO PUSH2 0x2F5 JUMPI PUSH2 0x2F4 PUSH2 0xFF JUMP JUMPDEST JUMPDEST PUSH2 0x301 DUP7 DUP3 DUP8 ADD PUSH2 0x252 JUMP JUMPDEST SWAP2 POP POP SWAP3 POP SWAP3 POP SWAP3 JUMP JUMPDEST PUSH1 0x0 DUP2 MLOAD SWAP1 POP SWAP2 SWAP1 POP JUMP JUMPDEST PUSH32 0x4E487B7100000000000000000000000000000000000000000000000000000000 PUSH1 0x0 MSTORE PUSH1 0x22 PUSH1 0x4 MSTORE PUSH1 0x24 PUSH1 0x0 REVERT JUMPDEST PUSH1 0x0 PUSH1 0x2 DUP3 DIV SWAP1 POP PUSH1 0x1 DUP3 AND DUP1 PUSH2 0x35D JUMPI PUSH1 0x7F DUP3 AND SWAP2 POP JUMPDEST PUSH1 0x20 DUP3 LT DUP2 SUB PUSH2 0x370 JUMPI PUSH2 0x36F PUSH2 0x316 JUMP JUMPDEST JUMPDEST POP SWAP2 SWAP1 POP JUMP JUMPDEST PUSH1 0x0 DUP2 SWAP1 POP DUP2 PUSH1 0x0 MSTORE PUSH1 0x20 PUSH1 0x0 KECCAK256 SWAP1 POP SWAP2 SWAP1 POP JUMP JUMPDEST PUSH1 0x0 PUSH1 0x20 PUSH1 0x1F DUP4 ADD DIV SWAP1 POP SWAP2 SWAP1 POP JUMP JUMPDEST PUSH1 0x0 DUP3 DUP3 SHL SWAP1 POP SWAP3 SWAP2 POP POP JUMP JUMPDEST PUSH1 0x0 PUSH1 0x8 DUP4 MUL PUSH2 0x3D8 PUSH32 0xFFFFFFFFFFFFFFFFFFFFFFFFFFFFFFFFFFFFFFFFFFFFFFFFFFFFFFFFFFFFFFFF DUP3 PUSH2 0x39B JUMP JUMPDEST PUSH2 0x3E2 DUP7 DUP4 PUSH2 0x39B JUMP JUMPDEST SWAP6 POP DUP1 NOT DUP5 AND SWAP4 POP DUP1 DUP7 AND DUP5 OR SWAP3 POP POP POP SWAP4 SWAP3 POP POP POP JUMP JUMPDEST PUSH1 0x0 DUP2 SWAP1 POP SWAP2 SWAP1 POP JUMP JUMPDEST PUSH1 0x0 PUSH2 0x41F PUSH2 0x41A PUSH2 0x415 DUP5 PUSH2 0x104 JUMP JUMPDEST PUSH2 0x3FA JUMP JUMPDEST PUSH2 0x104 JUMP JUMPDEST SWAP1 POP SWAP2 SWAP1 POP JUMP JUMPDEST PUSH1 0x0 DUP2 SWAP1 POP SWAP2 SWAP1 POP JUMP JUMPDEST PUSH2 0x439 DUP4 PUSH2 0x404 JUMP JUMPDEST PUSH2 0x44D PUSH2 0x445 DUP3 PUSH2 0x426 JUMP JUMPDEST DUP5 DUP5 SLOAD PUSH2 0x3A8 JUMP JUMPDEST DUP3 SSTORE POP POP POP POP JUMP JUMPDEST PUSH1 0x0 SWAP1 JUMP JUMPDEST PUSH2 0x462 PUSH2 0x455 JUMP JUMPDEST PUSH2 0x46D DUP2 DUP5 DUP5 PUSH2 0x430 JUMP JUMPDEST POP POP POP JUMP JUMPDEST JUMPDEST DUP2 DUP2 LT ISZERO PUSH2 0x491 JUMPI PUSH2 0x486 PUSH1 0x0 DUP3 PUSH2 0x45A JUMP JUMPDEST PUSH1 0x1 DUP2 ADD SWAP1 POP PUSH2 0x473 JUMP JUMPDEST POP POP JUMP JUMPDEST PUSH1 0x1F DUP3 GT ISZERO PUSH2 0x4D6 JUMPI PUSH2 0x4A7 DUP2 PUSH2 0x376 JUMP JUMPDEST PUSH2 0x4B0 DUP5 PUSH2 0x38B JUMP JUMPDEST DUP2 ADD PUSH1 0x20 DUP6 LT ISZERO PUSH2 0x4BF JUMPI DUP2 SWAP1 POP JUMPDEST PUSH2 0x4D3 PUSH2 0x4CB DUP6 PUSH2 0x38B JUMP JUMPDEST DUP4 ADD DUP3 PUSH2 0x472 JUMP JUMPDEST POP POP JUMPDEST POP POP POP JUMP JUMPDEST PUSH1 0x0 DUP3 DUP3 SHR SWAP1 POP SWAP3 SWAP2 POP POP JUMP JUMPDEST PUSH1 0x0 PUSH2 0x4F9 PUSH1 0x0 NOT DUP5 PUSH1 0x8 MUL PUSH2 0x4DB JUMP JUMPDEST NOT DUP1 DUP4 AND SWAP2 POP POP SWAP3 SWAP2 POP POP JUMP JUMPDEST PUSH1 0x0 PUSH2 0x512 DUP4 DUP4 PUSH2 0x4E8 JUMP JUMPDEST SWAP2 POP DUP3 PUSH1 0x2 MUL DUP3 OR SWAP1 POP SWAP3 SWAP2 POP POP JUMP JUMPDEST PUSH2 0x52B DUP3 PUSH2 0x30B JUMP JUMPDEST PUSH8 0xFFFFFFFFFFFFFFFF DUP2 GT ISZERO PUSH2 0x544 JUMPI PUSH2 0x543 PUSH2 0x155 JUMP JUMPDEST JUMPDEST PUSH2 0x54E DUP3 SLOAD PUSH2 0x345 JUMP JUMPDEST PUSH2 0x559 DUP3 DUP3 DUP6 PUSH2 0x495 JUMP JUMPDEST PUSH1 0x0 PUSH1 0x20 SWAP1 POP PUSH1 0x1F DUP4 GT PUSH1 0x1 DUP2 EQ PUSH2 0x58C JUMPI PUSH1 0x0 DUP5 ISZERO PUSH2 0x57A JUMPI DUP3 DUP8 ADD MLOAD SWAP1 POP JUMPDEST PUSH2 0x584 DUP6 DUP3 PUSH2 0x506 JUMP JUMPDEST DUP7 SSTORE POP PUSH2 0x5EC JUMP JUMPDEST PUSH1 0x1F NOT DUP5 AND PUSH2 0x59A DUP7 PUSH2 0x376 JUMP JUMPDEST PUSH1 0x0 JUMPDEST DUP3 DUP2 LT ISZERO PUSH2 0x5C2 JUMPI DUP5 DUP10 ADD MLOAD DUP3 SSTORE PUSH1 0x1 DUP3 ADD SWAP2 POP PUSH1 0x20 DUP6 ADD SWAP5 POP PUSH1 0x20 DUP2 ADD SWAP1 POP PUSH2 0x59D JUMP JUMPDEST DUP7 DUP4 LT ISZERO PUSH2 0x5DF JUMPI DUP5 DUP10 ADD MLOAD PUSH2 0x5DB PUSH1 0x1F DUP10 AND DUP3 PUSH2 0x4E8 JUMP JUMPDEST DUP4 SSTORE POP JUMPDEST PUSH1 0x1 PUSH1 0x2 DUP9 MUL ADD DUP9 SSTORE POP POP POP JUMPDEST POP POP POP POP POP POP JUMP JUMPDEST PUSH32 0x4E487B7100000000000000000000000000000000000000000000000000000000 PUSH1 0x0 MSTORE PUSH1 0x11 PUSH1 0x4 MSTORE PUSH1 0x24 PUSH1 0x0 REVERT JUMPDEST PUSH1 0x0 PUSH2 0x62E DUP3 PUSH2 0x104 JUMP JUMPDEST SWAP2 POP PUSH32 0xFFFFFFFFFFFFFFFFFFFFFFFFFFFFFFFFFFFFFFFFFFFFFFFFFFFFFFFFFFFFFFFF DUP3 SUB PUSH2 0x660 JUMPI PUSH2 0x65F PUSH2 0x5F4 JUMP JUMPDEST JUMPDEST PUSH1 0x1 DUP3 ADD SWAP1 POP SWAP2 SWAP1 POP JUMP INVALID LOG2 PUSH5 0x6970667358 0x22 SLT KECCAK256 0xDE 0xBD SMOD 0x1E MUL SWAP14 0x23 OR 0xDE 0xC9 0x4D 0xDA LOG2 0xCE 0xF6 0xD2 0xC6 0xD7 PUSH3 0x30A9F6 0xE7 0xB2 0xF9 BASEFEE 0x2A 0xB4 0xC7 0xCC SLT 0xD1 PUSH5 0x736F6C6343 STOP ADDMOD SLT STOP CALLER "
		},
		"gasEstimates": {
			"creation": {
				"codeDepositCost": "339400",
				"executionCost": "380",
				"totalCost": "339780"
			},
			"external": {
				"addStudent(uint256,string,string)": "infinite"
			}
		},
		"methodIdentifiers": {
			"addStudent(uint256,string,string)": "473e9914"
		}
	},
	"abi": [
		{
			"inputs": [
				{
					"internalType": "uint256",
					"name": "_num",
					"type": "uint256"
				},
				{
					"internalType": "string",
					"name": "_name",
					"type": "string"
				},
				{
					"internalType": "string",
					"name": "_class",
					"type": "string"
				}
			],
			"name": "addStudent",
			"outputs": [],
			"stateMutability": "nonpayable",
			"type": "function"
		}
	]
}