{
	"data": {
		"bytecode": {
			"linkReferences": {},
			"object": "608060405234801561001057600080fd5b506103b4806100206000396000f3fe608060405234801561001057600080fd5b50600436106100575760003560e01c806340993a3c1461005c5780636e9b0ac014610066578063af80bf2914610070578063d46300fd1461007a578063e720d8ec14610098575b600080fd5b6100646100a2565b005b61006e610111565b005b61007861012a565b005b610082610143565b60405161008f91906101d0565b60405180910390f35b6100a061014c565b005b6005600054106100e7576040517f08c379a00000000000000000000000000000000000000000000000000000000081526004016100de90610248565b60405180910390fd5b6005600054106100f657600080fd5b600a6000808282546101089190610297565b92505081905550565b600080815480929190610123906102cb565b9190505550565b60008081548092919061013c906102f4565b9190505550565b60008054905090565b600560005410610191576040517f08c379a000000000000000000000000000000000000000000000000000000000815260040161018890610248565b60405180910390fd5b6005600054106101a057600080fd5b60026000546101af919061033c565b600081905550565b6000819050919050565b6101ca816101b7565b82525050565b60006020820190506101e560008301846101c1565b92915050565b600082825260208201905092915050565b7f73686f756c64206265206c657373207468616e20666976652000000000000000600082015250565b60006102326019836101eb565b915061023d826101fc565b602082019050919050565b6000602082019050818103600083015261026181610225565b9050919050565b7f4e487b7100000000000000000000000000000000000000000000000000000000600052601160045260246000fd5b60006102a2826101b7565b91506102ad836101b7565b92508282019050808211156102c5576102c4610268565b5b92915050565b60006102d6826101b7565b9150600082036102e9576102e8610268565b5b600182039050919050565b60006102ff826101b7565b91507fffffffffffffffffffffffffffffffffffffffffffffffffffffffffffffffff820361033157610330610268565b5b600182019050919050565b6000610347826101b7565b9150610352836101b7565b9250828202610360816101b7565b9150828204841483151761037757610376610268565b5b509291505056fea26469706673582212203d8d5cc6ca3f9ae347bf43a3f0c51478a7b8ed1d53d820eef25aff1f2a5c467f64736f6c63430008120033",
			"opcodes": "PUSH1 0x80 PUSH1 0x40 MSTORE CALLVALUE DUP1 ISZERO PUSH2 0x10 JUMPI PUSH1 0x0 DUP1 REVERT JUMPDEST POP PUSH2 0x3B4 DUP1 PUSH2 0x20 PUSH1 0x0 CODECOPY PUSH1 0x0 RETURN INVALID PUSH1 0x80 PUSH1 0x40 MSTORE CALLVALUE DUP1 ISZERO PUSH2 0x10 JUMPI PUSH1 0x0 DUP1 REVERT JUMPDEST POP PUSH1 0x4 CALLDATASIZE LT PUSH2 0x57 JUMPI PUSH1 0x0 CALLDATALOAD PUSH1 0xE0 SHR DUP1 PUSH4 0x40993A3C EQ PUSH2 0x5C JUMPI DUP1 PUSH4 0x6E9B0AC0 EQ PUSH2 0x66 JUMPI DUP1 PUSH4 0xAF80BF29 EQ PUSH2 0x70 JUMPI DUP1 PUSH4 0xD46300FD EQ PUSH2 0x7A JUMPI DUP1 PUSH4 0xE720D8EC EQ PUSH2 0x98 JUMPI JUMPDEST PUSH1 0x0 DUP1 REVERT JUMPDEST PUSH2 0x64 PUSH2 0xA2 JUMP JUMPDEST STOP JUMPDEST PUSH2 0x6E PUSH2 0x111 JUMP JUMPDEST STOP JUMPDEST PUSH2 0x78 PUSH2 0x12A JUMP JUMPDEST STOP JUMPDEST PUSH2 0x82 PUSH2 0x143 JUMP JUMPDEST PUSH1 0x40 MLOAD PUSH2 0x8F SWAP2 SWAP1 PUSH2 0x1D0 JUMP JUMPDEST PUSH1 0x40 MLOAD DUP1 SWAP2 SUB SWAP1 RETURN JUMPDEST PUSH2 0xA0 PUSH2 0x14C JUMP JUMPDEST STOP JUMPDEST PUSH1 0x5 PUSH1 0x0 SLOAD LT PUSH2 0xE7 JUMPI PUSH1 0x40 MLOAD PUSH32 0x8C379A000000000000000000000000000000000000000000000000000000000 DUP2 MSTORE PUSH1 0x4 ADD PUSH2 0xDE SWAP1 PUSH2 0x248 JUMP JUMPDEST PUSH1 0x40 MLOAD DUP1 SWAP2 SUB SWAP1 REVERT JUMPDEST PUSH1 0x5 PUSH1 0x0 SLOAD LT PUSH2 0xF6 JUMPI PUSH1 0x0 DUP1 REVERT JUMPDEST PUSH1 0xA PUSH1 0x0 DUP1 DUP3 DUP3 SLOAD PUSH2 0x108 SWAP2 SWAP1 PUSH2 0x297 JUMP JUMPDEST SWAP3 POP POP DUP2 SWAP1 SSTORE POP JUMP JUMPDEST PUSH1 0x0 DUP1 DUP2 SLOAD DUP1 SWAP3 SWAP2 SWAP1 PUSH2 0x123 SWAP1 PUSH2 0x2CB JUMP JUMPDEST SWAP2 SWAP1 POP SSTORE POP JUMP JUMPDEST PUSH1 0x0 DUP1 DUP2 SLOAD DUP1 SWAP3 SWAP2 SWAP1 PUSH2 0x13C SWAP1 PUSH2 0x2F4 JUMP JUMPDEST SWAP2 SWAP1 POP SSTORE POP JUMP JUMPDEST PUSH1 0x0 DUP1 SLOAD SWAP1 POP SWAP1 JUMP JUMPDEST PUSH1 0x5 PUSH1 0x0 SLOAD LT PUSH2 0x191 JUMPI PUSH1 0x40 MLOAD PUSH32 0x8C379A000000000000000000000000000000000000000000000000000000000 DUP2 MSTORE PUSH1 0x4 ADD PUSH2 0x188 SWAP1 PUSH2 0x248 JUMP JUMPDEST PUSH1 0x40 MLOAD DUP1 SWAP2 SUB SWAP1 REVERT JUMPDEST PUSH1 0x5 PUSH1 0x0 SLOAD LT PUSH2 0x1A0 JUMPI PUSH1 0x0 DUP1 REVERT JUMPDEST PUSH1 0x2 PUSH1 0x0 SLOAD PUSH2 0x1AF SWAP2 SWAP1 PUSH2 0x33C JUMP JUMPDEST PUSH1 0x0 DUP2 SWAP1 SSTORE POP JUMP JUMPDEST PUSH1 0x0 DUP2 SWAP1 POP SWAP2 SWAP1 POP JUMP JUMPDEST PUSH2 0x1CA DUP2 PUSH2 0x1B7 JUMP JUMPDEST DUP3 MSTORE POP POP JUMP JUMPDEST PUSH1 0x0 PUSH1 0x20 DUP3 ADD SWAP1 POP PUSH2 0x1E5 PUSH1 0x0 DUP4 ADD DUP5 PUSH2 0x1C1 JUMP JUMPDEST SWAP3 SWAP2 POP POP JUMP JUMPDEST PUSH1 0x0 DUP3 DUP3 MSTORE PUSH1 0x20 DUP3 ADD SWAP1 POP SWAP3 SWAP2 POP POP JUMP JUMPDEST PUSH32 0x73686F756C64206265206C657373207468616E20666976652000000000000000 PUSH1 0x0 DUP3 ADD MSTORE POP JUMP JUMPDEST PUSH1 0x0 PUSH2 0x232 PUSH1 0x19 DUP4 PUSH2 0x1EB JUMP JUMPDEST SWAP2 POP PUSH2 0x23D DUP3 PUSH2 0x1FC JUMP JUMPDEST PUSH1 0x20 DUP3 ADD SWAP1 POP SWAP2 SWAP1 POP JUMP JUMPDEST PUSH1 0x0 PUSH1 0x20 DUP3 ADD SWAP1 POP DUP2 DUP2 SUB PUSH1 0x0 DUP4 ADD MSTORE PUSH2 0x261 DUP2 PUSH2 0x225 JUMP JUMPDEST SWAP1 POP SWAP2 SWAP1 POP JUMP JUMPDEST PUSH32 0x4E487B7100000000000000000000000000000000000000000000000000000000 PUSH1 0x0 MSTORE PUSH1 0x11 PUSH1 0x4 MSTORE PUSH1 0x24 PUSH1 0x0 REVERT JUMPDEST PUSH1 0x0 PUSH2 0x2A2 DUP3 PUSH2 0x1B7 JUMP JUMPDEST SWAP2 POP PUSH2 0x2AD DUP4 PUSH2 0x1B7 JUMP JUMPDEST SWAP3 POP DUP3 DUP3 ADD SWAP1 POP DUP1 DUP3 GT ISZERO PUSH2 0x2C5 JUMPI PUSH2 0x2C4 PUSH2 0x268 JUMP JUMPDEST JUMPDEST SWAP3 SWAP2 POP POP JUMP JUMPDEST PUSH1 0x0 PUSH2 0x2D6 DUP3 PUSH2 0x1B7 JUMP JUMPDEST SWAP2 POP PUSH1 0x0 DUP3 SUB PUSH2 0x2E9 JUMPI PUSH2 0x2E8 PUSH2 0x268 JUMP JUMPDEST JUMPDEST PUSH1 0x1 DUP3 SUB SWAP1 POP SWAP2 SWAP1 POP JUMP JUMPDEST PUSH1 0x0 PUSH2 0x2FF DUP3 PUSH2 0x1B7 JUMP JUMPDEST SWAP2 POP PUSH32 0xFFFFFFFFFFFFFFFFFFFFFFFFFFFFFFFFFFFFFFFFFFFFFFFFFFFFFFFFFFFFFFFF DUP3 SUB PUSH2 0x331 JUMPI PUSH2 0x330 PUSH2 0x268 JUMP JUMPDEST JUMPDEST PUSH1 0x1 DUP3 ADD SWAP1 POP SWAP2 SWAP1 POP JUMP JUMPDEST PUSH1 0x0 PUSH2 0x347 DUP3 PUSH2 0x1B7 JUMP JUMPDEST SWAP2 POP PUSH2 0x352 DUP4 PUSH2 0x1B7 JUMP JUMPDEST SWAP3 POP DUP3 DUP3 MUL PUSH2 0x360 DUP2 PUSH2 0x1B7 JUMP JUMPDEST SWAP2 POP DUP3 DUP3 DIV DUP5 EQ DUP4 ISZERO OR PUSH2 0x377 JUMPI PUSH2 0x376 PUSH2 0x268 JUMP JUMPDEST JUMPDEST POP SWAP3 SWAP2 POP POP JUMP INVALID LOG2 PUSH5 0x6970667358 0x22 SLT KECCAK256 RETURNDATASIZE DUP14 0x5C 0xC6 0xCA EXTCODEHASH SWAP11 0xE3 SELFBALANCE 0xBF NUMBER LOG3 CREATE 0xC5 EQ PUSH25 0xA7B8ED1D53D820EEF25AFF1F2A5C467F64736F6C6343000812 STOP CALLER "
		},
		"gasEstimates": {
			"creation": {
				"codeDepositCost": "189600",
				"executionCost": "232",
				"totalCost": "189832"
			},
			"external": {
				"aMinus()": "24501",
				"aPlus()": "24523",
				"doubleA()": "infinite",
				"getA()": "2481",
				"plusTen()": "infinite"
			}
		},
		"methodIdentifiers": {
			"aMinus()": "6e9b0ac0",
			"aPlus()": "af80bf29",
			"doubleA()": "e720d8ec",
			"getA()": "d46300fd",
			"plusTen()": "40993a3c"
		}
	},
	"abi": [
		{
			"inputs": [],
			"name": "aMinus",
			"outputs": [],
			"stateMutability": "nonpayable",
			"type": "function"
		},
		{
			"inputs": [],
			"name": "aPlus",
			"outputs": [],
			"stateMutability": "nonpayable",
			"type": "function"
		},
		{
			"inputs": [],
			"name": "doubleA",
			"outputs": [],
			"stateMutability": "nonpayable",
			"type": "function"
		},
		{
			"inputs": [],
			"name": "getA",
			"outputs": [
				{
					"internalType": "uint256",
					"name": "",
					"type": "uint256"
				}
			],
			"stateMutability": "view",
			"type": "function"
		},
		{
			"inputs": [],
			"name": "plusTen",
			"outputs": [],
			"stateMutability": "nonpayable",
			"type": "function"
		}
	]
}