{
	"data": {
		"bytecode": {
			"linkReferences": {},
			"object": "608060405234801561001057600080fd5b50610657806100206000396000f3fe608060405234801561001057600080fd5b50600436106100935760003560e01c8063b129842811610066578063b129842814610134578063b87f328014610152578063c2d1ad4014610170578063c5457732146101a0578063deee4403146101d057610093565b8063236a5e58146100985780633a21c719146100c857806367e06858146100e6578063aa1696d114610104575b600080fd5b6100b260048036038101906100ad91906102f3565b6101ee565b6040516100bf9190610342565b60405180910390f35b6100d0610204565b6040516100dd9190610342565b60405180910390f35b6100ee61021a565b6040516100fb9190610342565b60405180910390f35b61011e600480360381019061011991906102f3565b610231565b60405161012b9190610342565b60405180910390f35b61013c610247565b6040516101499190610342565b60405180910390f35b61015a61025e565b6040516101679190610342565b60405180910390f35b61018a600480360381019061018591906102f3565b610275565b6040516101979190610342565b60405180910390f35b6101ba60048036038101906101b591906102f3565b61028b565b6040516101c79190610342565b60405180910390f35b6101d86102a1565b6040516101e59190610342565b60405180910390f35b600081836101fc919061038c565b905092915050565b600060026000546102159190610500565b905090565b600060015460005461022c919061038c565b905090565b6000818361023f919061054b565b905092915050565b6000600154600054610259919061054b565b905090565b6000600154600054610270919061058d565b905090565b60008183610283919061058d565b905092915050565b6000818361029991906105f0565b905092915050565b60006001546000546102b391906105f0565b905090565b600080fd5b6000819050919050565b6102d0816102bd565b81146102db57600080fd5b50565b6000813590506102ed816102c7565b92915050565b6000806040838503121561030a576103096102b8565b5b6000610318858286016102de565b9250506020610329858286016102de565b9150509250929050565b61033c816102bd565b82525050565b60006020820190506103576000830184610333565b92915050565b7f4e487b7100000000000000000000000000000000000000000000000000000000600052601160045260246000fd5b6000610397826102bd565b91506103a2836102bd565b92508282019050808211156103ba576103b961035d565b5b92915050565b60008160011c9050919050565b6000808291508390505b6001851115610417578086048111156103f3576103f261035d565b5b60018516156104025780820291505b8081029050610410856103c0565b94506103d7565b94509492505050565b60008261043057600190506104ec565b8161043e57600090506104ec565b8160018114610454576002811461045e5761048d565b60019150506104ec565b60ff8411156104705761046f61035d565b5b8360020a9150848211156104875761048661035d565b5b506104ec565b5060208310610133831016604e8410600b84101617156104c25782820a9050838111156104bd576104bc61035d565b5b6104ec565b6104cf84848460016103cd565b925090508184048111156104e6576104e561035d565b5b81810290505b9392505050565b600060ff82169050919050565b600061050b826102bd565b9150610516836104f3565b92506105437fffffffffffffffffffffffffffffffffffffffffffffffffffffffffffffffff8484610420565b905092915050565b6000610556826102bd565b9150610561836102bd565b925082820261056f816102bd565b915082820484148315176105865761058561035d565b5b5092915050565b6000610598826102bd565b91506105a3836102bd565b92508282039050818111156105bb576105ba61035d565b5b92915050565b7f4e487b7100000000000000000000000000000000000000000000000000000000600052601260045260246000fd5b60006105fb826102bd565b9150610606836102bd565b925082610616576106156105c1565b5b82820490509291505056fea264697066735822122047ca59e7569cd2a27ebcd3791b7d393ad7d4c095c6a0e224d76fed66ae450b6264736f6c63430008120033",
			"opcodes": "PUSH1 0x80 PUSH1 0x40 MSTORE CALLVALUE DUP1 ISZERO PUSH2 0x10 JUMPI PUSH1 0x0 DUP1 REVERT JUMPDEST POP PUSH2 0x657 DUP1 PUSH2 0x20 PUSH1 0x0 CODECOPY PUSH1 0x0 RETURN INVALID PUSH1 0x80 PUSH1 0x40 MSTORE CALLVALUE DUP1 ISZERO PUSH2 0x10 JUMPI PUSH1 0x0 DUP1 REVERT JUMPDEST POP PUSH1 0x4 CALLDATASIZE LT PUSH2 0x93 JUMPI PUSH1 0x0 CALLDATALOAD PUSH1 0xE0 SHR DUP1 PUSH4 0xB1298428 GT PUSH2 0x66 JUMPI DUP1 PUSH4 0xB1298428 EQ PUSH2 0x134 JUMPI DUP1 PUSH4 0xB87F3280 EQ PUSH2 0x152 JUMPI DUP1 PUSH4 0xC2D1AD40 EQ PUSH2 0x170 JUMPI DUP1 PUSH4 0xC5457732 EQ PUSH2 0x1A0 JUMPI DUP1 PUSH4 0xDEEE4403 EQ PUSH2 0x1D0 JUMPI PUSH2 0x93 JUMP JUMPDEST DUP1 PUSH4 0x236A5E58 EQ PUSH2 0x98 JUMPI DUP1 PUSH4 0x3A21C719 EQ PUSH2 0xC8 JUMPI DUP1 PUSH4 0x67E06858 EQ PUSH2 0xE6 JUMPI DUP1 PUSH4 0xAA1696D1 EQ PUSH2 0x104 JUMPI JUMPDEST PUSH1 0x0 DUP1 REVERT JUMPDEST PUSH2 0xB2 PUSH1 0x4 DUP1 CALLDATASIZE SUB DUP2 ADD SWAP1 PUSH2 0xAD SWAP2 SWAP1 PUSH2 0x2F3 JUMP JUMPDEST PUSH2 0x1EE JUMP JUMPDEST PUSH1 0x40 MLOAD PUSH2 0xBF SWAP2 SWAP1 PUSH2 0x342 JUMP JUMPDEST PUSH1 0x40 MLOAD DUP1 SWAP2 SUB SWAP1 RETURN JUMPDEST PUSH2 0xD0 PUSH2 0x204 JUMP JUMPDEST PUSH1 0x40 MLOAD PUSH2 0xDD SWAP2 SWAP1 PUSH2 0x342 JUMP JUMPDEST PUSH1 0x40 MLOAD DUP1 SWAP2 SUB SWAP1 RETURN JUMPDEST PUSH2 0xEE PUSH2 0x21A JUMP JUMPDEST PUSH1 0x40 MLOAD PUSH2 0xFB SWAP2 SWAP1 PUSH2 0x342 JUMP JUMPDEST PUSH1 0x40 MLOAD DUP1 SWAP2 SUB SWAP1 RETURN JUMPDEST PUSH2 0x11E PUSH1 0x4 DUP1 CALLDATASIZE SUB DUP2 ADD SWAP1 PUSH2 0x119 SWAP2 SWAP1 PUSH2 0x2F3 JUMP JUMPDEST PUSH2 0x231 JUMP JUMPDEST PUSH1 0x40 MLOAD PUSH2 0x12B SWAP2 SWAP1 PUSH2 0x342 JUMP JUMPDEST PUSH1 0x40 MLOAD DUP1 SWAP2 SUB SWAP1 RETURN JUMPDEST PUSH2 0x13C PUSH2 0x247 JUMP JUMPDEST PUSH1 0x40 MLOAD PUSH2 0x149 SWAP2 SWAP1 PUSH2 0x342 JUMP JUMPDEST PUSH1 0x40 MLOAD DUP1 SWAP2 SUB SWAP1 RETURN JUMPDEST PUSH2 0x15A PUSH2 0x25E JUMP JUMPDEST PUSH1 0x40 MLOAD PUSH2 0x167 SWAP2 SWAP1 PUSH2 0x342 JUMP JUMPDEST PUSH1 0x40 MLOAD DUP1 SWAP2 SUB SWAP1 RETURN JUMPDEST PUSH2 0x18A PUSH1 0x4 DUP1 CALLDATASIZE SUB DUP2 ADD SWAP1 PUSH2 0x185 SWAP2 SWAP1 PUSH2 0x2F3 JUMP JUMPDEST PUSH2 0x275 JUMP JUMPDEST PUSH1 0x40 MLOAD PUSH2 0x197 SWAP2 SWAP1 PUSH2 0x342 JUMP JUMPDEST PUSH1 0x40 MLOAD DUP1 SWAP2 SUB SWAP1 RETURN JUMPDEST PUSH2 0x1BA PUSH1 0x4 DUP1 CALLDATASIZE SUB DUP2 ADD SWAP1 PUSH2 0x1B5 SWAP2 SWAP1 PUSH2 0x2F3 JUMP JUMPDEST PUSH2 0x28B JUMP JUMPDEST PUSH1 0x40 MLOAD PUSH2 0x1C7 SWAP2 SWAP1 PUSH2 0x342 JUMP JUMPDEST PUSH1 0x40 MLOAD DUP1 SWAP2 SUB SWAP1 RETURN JUMPDEST PUSH2 0x1D8 PUSH2 0x2A1 JUMP JUMPDEST PUSH1 0x40 MLOAD PUSH2 0x1E5 SWAP2 SWAP1 PUSH2 0x342 JUMP JUMPDEST PUSH1 0x40 MLOAD DUP1 SWAP2 SUB SWAP1 RETURN JUMPDEST PUSH1 0x0 DUP2 DUP4 PUSH2 0x1FC SWAP2 SWAP1 PUSH2 0x38C JUMP JUMPDEST SWAP1 POP SWAP3 SWAP2 POP POP JUMP JUMPDEST PUSH1 0x0 PUSH1 0x2 PUSH1 0x0 SLOAD PUSH2 0x215 SWAP2 SWAP1 PUSH2 0x500 JUMP JUMPDEST SWAP1 POP SWAP1 JUMP JUMPDEST PUSH1 0x0 PUSH1 0x1 SLOAD PUSH1 0x0 SLOAD PUSH2 0x22C SWAP2 SWAP1 PUSH2 0x38C JUMP JUMPDEST SWAP1 POP SWAP1 JUMP JUMPDEST PUSH1 0x0 DUP2 DUP4 PUSH2 0x23F SWAP2 SWAP1 PUSH2 0x54B JUMP JUMPDEST SWAP1 POP SWAP3 SWAP2 POP POP JUMP JUMPDEST PUSH1 0x0 PUSH1 0x1 SLOAD PUSH1 0x0 SLOAD PUSH2 0x259 SWAP2 SWAP1 PUSH2 0x54B JUMP JUMPDEST SWAP1 POP SWAP1 JUMP JUMPDEST PUSH1 0x0 PUSH1 0x1 SLOAD PUSH1 0x0 SLOAD PUSH2 0x270 SWAP2 SWAP1 PUSH2 0x58D JUMP JUMPDEST SWAP1 POP SWAP1 JUMP JUMPDEST PUSH1 0x0 DUP2 DUP4 PUSH2 0x283 SWAP2 SWAP1 PUSH2 0x58D JUMP JUMPDEST SWAP1 POP SWAP3 SWAP2 POP POP JUMP JUMPDEST PUSH1 0x0 DUP2 DUP4 PUSH2 0x299 SWAP2 SWAP1 PUSH2 0x5F0 JUMP JUMPDEST SWAP1 POP SWAP3 SWAP2 POP POP JUMP JUMPDEST PUSH1 0x0 PUSH1 0x1 SLOAD PUSH1 0x0 SLOAD PUSH2 0x2B3 SWAP2 SWAP1 PUSH2 0x5F0 JUMP JUMPDEST SWAP1 POP SWAP1 JUMP JUMPDEST PUSH1 0x0 DUP1 REVERT JUMPDEST PUSH1 0x0 DUP2 SWAP1 POP SWAP2 SWAP1 POP JUMP JUMPDEST PUSH2 0x2D0 DUP2 PUSH2 0x2BD JUMP JUMPDEST DUP2 EQ PUSH2 0x2DB JUMPI PUSH1 0x0 DUP1 REVERT JUMPDEST POP JUMP JUMPDEST PUSH1 0x0 DUP2 CALLDATALOAD SWAP1 POP PUSH2 0x2ED DUP2 PUSH2 0x2C7 JUMP JUMPDEST SWAP3 SWAP2 POP POP JUMP JUMPDEST PUSH1 0x0 DUP1 PUSH1 0x40 DUP4 DUP6 SUB SLT ISZERO PUSH2 0x30A JUMPI PUSH2 0x309 PUSH2 0x2B8 JUMP JUMPDEST JUMPDEST PUSH1 0x0 PUSH2 0x318 DUP6 DUP3 DUP7 ADD PUSH2 0x2DE JUMP JUMPDEST SWAP3 POP POP PUSH1 0x20 PUSH2 0x329 DUP6 DUP3 DUP7 ADD PUSH2 0x2DE JUMP JUMPDEST SWAP2 POP POP SWAP3 POP SWAP3 SWAP1 POP JUMP JUMPDEST PUSH2 0x33C DUP2 PUSH2 0x2BD JUMP JUMPDEST DUP3 MSTORE POP POP JUMP JUMPDEST PUSH1 0x0 PUSH1 0x20 DUP3 ADD SWAP1 POP PUSH2 0x357 PUSH1 0x0 DUP4 ADD DUP5 PUSH2 0x333 JUMP JUMPDEST SWAP3 SWAP2 POP POP JUMP JUMPDEST PUSH32 0x4E487B7100000000000000000000000000000000000000000000000000000000 PUSH1 0x0 MSTORE PUSH1 0x11 PUSH1 0x4 MSTORE PUSH1 0x24 PUSH1 0x0 REVERT JUMPDEST PUSH1 0x0 PUSH2 0x397 DUP3 PUSH2 0x2BD JUMP JUMPDEST SWAP2 POP PUSH2 0x3A2 DUP4 PUSH2 0x2BD JUMP JUMPDEST SWAP3 POP DUP3 DUP3 ADD SWAP1 POP DUP1 DUP3 GT ISZERO PUSH2 0x3BA JUMPI PUSH2 0x3B9 PUSH2 0x35D JUMP JUMPDEST JUMPDEST SWAP3 SWAP2 POP POP JUMP JUMPDEST PUSH1 0x0 DUP2 PUSH1 0x1 SHR SWAP1 POP SWAP2 SWAP1 POP JUMP JUMPDEST PUSH1 0x0 DUP1 DUP3 SWAP2 POP DUP4 SWAP1 POP JUMPDEST PUSH1 0x1 DUP6 GT ISZERO PUSH2 0x417 JUMPI DUP1 DUP7 DIV DUP2 GT ISZERO PUSH2 0x3F3 JUMPI PUSH2 0x3F2 PUSH2 0x35D JUMP JUMPDEST JUMPDEST PUSH1 0x1 DUP6 AND ISZERO PUSH2 0x402 JUMPI DUP1 DUP3 MUL SWAP2 POP JUMPDEST DUP1 DUP2 MUL SWAP1 POP PUSH2 0x410 DUP6 PUSH2 0x3C0 JUMP JUMPDEST SWAP5 POP PUSH2 0x3D7 JUMP JUMPDEST SWAP5 POP SWAP5 SWAP3 POP POP POP JUMP JUMPDEST PUSH1 0x0 DUP3 PUSH2 0x430 JUMPI PUSH1 0x1 SWAP1 POP PUSH2 0x4EC JUMP JUMPDEST DUP2 PUSH2 0x43E JUMPI PUSH1 0x0 SWAP1 POP PUSH2 0x4EC JUMP JUMPDEST DUP2 PUSH1 0x1 DUP2 EQ PUSH2 0x454 JUMPI PUSH1 0x2 DUP2 EQ PUSH2 0x45E JUMPI PUSH2 0x48D JUMP JUMPDEST PUSH1 0x1 SWAP2 POP POP PUSH2 0x4EC JUMP JUMPDEST PUSH1 0xFF DUP5 GT ISZERO PUSH2 0x470 JUMPI PUSH2 0x46F PUSH2 0x35D JUMP JUMPDEST JUMPDEST DUP4 PUSH1 0x2 EXP SWAP2 POP DUP5 DUP3 GT ISZERO PUSH2 0x487 JUMPI PUSH2 0x486 PUSH2 0x35D JUMP JUMPDEST JUMPDEST POP PUSH2 0x4EC JUMP JUMPDEST POP PUSH1 0x20 DUP4 LT PUSH2 0x133 DUP4 LT AND PUSH1 0x4E DUP5 LT PUSH1 0xB DUP5 LT AND OR ISZERO PUSH2 0x4C2 JUMPI DUP3 DUP3 EXP SWAP1 POP DUP4 DUP2 GT ISZERO PUSH2 0x4BD JUMPI PUSH2 0x4BC PUSH2 0x35D JUMP JUMPDEST JUMPDEST PUSH2 0x4EC JUMP JUMPDEST PUSH2 0x4CF DUP5 DUP5 DUP5 PUSH1 0x1 PUSH2 0x3CD JUMP JUMPDEST SWAP3 POP SWAP1 POP DUP2 DUP5 DIV DUP2 GT ISZERO PUSH2 0x4E6 JUMPI PUSH2 0x4E5 PUSH2 0x35D JUMP JUMPDEST JUMPDEST DUP2 DUP2 MUL SWAP1 POP JUMPDEST SWAP4 SWAP3 POP POP POP JUMP JUMPDEST PUSH1 0x0 PUSH1 0xFF DUP3 AND SWAP1 POP SWAP2 SWAP1 POP JUMP JUMPDEST PUSH1 0x0 PUSH2 0x50B DUP3 PUSH2 0x2BD JUMP JUMPDEST SWAP2 POP PUSH2 0x516 DUP4 PUSH2 0x4F3 JUMP JUMPDEST SWAP3 POP PUSH2 0x543 PUSH32 0xFFFFFFFFFFFFFFFFFFFFFFFFFFFFFFFFFFFFFFFFFFFFFFFFFFFFFFFFFFFFFFFF DUP5 DUP5 PUSH2 0x420 JUMP JUMPDEST SWAP1 POP SWAP3 SWAP2 POP POP JUMP JUMPDEST PUSH1 0x0 PUSH2 0x556 DUP3 PUSH2 0x2BD JUMP JUMPDEST SWAP2 POP PUSH2 0x561 DUP4 PUSH2 0x2BD JUMP JUMPDEST SWAP3 POP DUP3 DUP3 MUL PUSH2 0x56F DUP2 PUSH2 0x2BD JUMP JUMPDEST SWAP2 POP DUP3 DUP3 DIV DUP5 EQ DUP4 ISZERO OR PUSH2 0x586 JUMPI PUSH2 0x585 PUSH2 0x35D JUMP JUMPDEST JUMPDEST POP SWAP3 SWAP2 POP POP JUMP JUMPDEST PUSH1 0x0 PUSH2 0x598 DUP3 PUSH2 0x2BD JUMP JUMPDEST SWAP2 POP PUSH2 0x5A3 DUP4 PUSH2 0x2BD JUMP JUMPDEST SWAP3 POP DUP3 DUP3 SUB SWAP1 POP DUP2 DUP2 GT ISZERO PUSH2 0x5BB JUMPI PUSH2 0x5BA PUSH2 0x35D JUMP JUMPDEST JUMPDEST SWAP3 SWAP2 POP POP JUMP JUMPDEST PUSH32 0x4E487B7100000000000000000000000000000000000000000000000000000000 PUSH1 0x0 MSTORE PUSH1 0x12 PUSH1 0x4 MSTORE PUSH1 0x24 PUSH1 0x0 REVERT JUMPDEST PUSH1 0x0 PUSH2 0x5FB DUP3 PUSH2 0x2BD JUMP JUMPDEST SWAP2 POP PUSH2 0x606 DUP4 PUSH2 0x2BD JUMP JUMPDEST SWAP3 POP DUP3 PUSH2 0x616 JUMPI PUSH2 0x615 PUSH2 0x5C1 JUMP JUMPDEST JUMPDEST DUP3 DUP3 DIV SWAP1 POP SWAP3 SWAP2 POP POP JUMP INVALID LOG2 PUSH5 0x6970667358 0x22 SLT KECCAK256 SELFBALANCE 0xCA MSIZE 0xE7 JUMP SWAP13 0xD2 LOG2 PUSH31 0xBCD3791B7D393AD7D4C095C6A0E224D76FED66AE450B6264736F6C63430008 SLT STOP CALLER "
		},
		"gasEstimates": {
			"creation": {
				"codeDepositCost": "324600",
				"executionCost": "362",
				"totalCost": "324962"
			},
			"external": {
				"Add()": "infinite",
				"Add2(uint256,uint256)": "infinite",
				"Div()": "infinite",
				"Div2(uint256,uint256)": "infinite",
				"MM()": "infinite",
				"Mul()": "infinite",
				"Mul2(uint256,uint256)": "infinite",
				"Sub()": "infinite",
				"Sub2(uint256,uint256)": "infinite"
			}
		},
		"methodIdentifiers": {
			"Add()": "67e06858",
			"Add2(uint256,uint256)": "236a5e58",
			"Div()": "deee4403",
			"Div2(uint256,uint256)": "c5457732",
			"MM()": "3a21c719",
			"Mul()": "b1298428",
			"Mul2(uint256,uint256)": "aa1696d1",
			"Sub()": "b87f3280",
			"Sub2(uint256,uint256)": "c2d1ad40"
		}
	},
	"abi": [
		{
			"inputs": [],
			"name": "Add",
			"outputs": [
				{
					"internalType": "uint256",
					"name": "",
					"type": "uint256"
				}
			],
			"stateMutability": "view",
			"type": "function"
		},
		{
			"inputs": [
				{
					"internalType": "uint256",
					"name": "_a",
					"type": "uint256"
				},
				{
					"internalType": "uint256",
					"name": "_b",
					"type": "uint256"
				}
			],
			"name": "Add2",
			"outputs": [
				{
					"internalType": "uint256",
					"name": "",
					"type": "uint256"
				}
			],
			"stateMutability": "pure",
			"type": "function"
		},
		{
			"inputs": [],
			"name": "Div",
			"outputs": [
				{
					"internalType": "uint256",
					"name": "",
					"type": "uint256"
				}
			],
			"stateMutability": "view",
			"type": "function"
		},
		{
			"inputs": [
				{
					"internalType": "uint256",
					"name": "_a",
					"type": "uint256"
				},
				{
					"internalType": "uint256",
					"name": "_b",
					"type": "uint256"
				}
			],
			"name": "Div2",
			"outputs": [
				{
					"internalType": "uint256",
					"name": "",
					"type": "uint256"
				}
			],
			"stateMutability": "pure",
			"type": "function"
		},
		{
			"inputs": [],
			"name": "MM",
			"outputs": [
				{
					"internalType": "uint256",
					"name": "",
					"type": "uint256"
				}
			],
			"stateMutability": "view",
			"type": "function"
		},
		{
			"inputs": [],
			"name": "Mul",
			"outputs": [
				{
					"internalType": "uint256",
					"name": "",
					"type": "uint256"
				}
			],
			"stateMutability": "view",
			"type": "function"
		},
		{
			"inputs": [
				{
					"internalType": "uint256",
					"name": "_a",
					"type": "uint256"
				},
				{
					"internalType": "uint256",
					"name": "_b",
					"type": "uint256"
				}
			],
			"name": "Mul2",
			"outputs": [
				{
					"internalType": "uint256",
					"name": "",
					"type": "uint256"
				}
			],
			"stateMutability": "pure",
			"type": "function"
		},
		{
			"inputs": [],
			"name": "Sub",
			"outputs": [
				{
					"internalType": "uint256",
					"name": "",
					"type": "uint256"
				}
			],
			"stateMutability": "view",
			"type": "function"
		},
		{
			"inputs": [
				{
					"internalType": "uint256",
					"name": "_a",
					"type": "uint256"
				},
				{
					"internalType": "uint256",
					"name": "_b",
					"type": "uint256"
				}
			],
			"name": "Sub2",
			"outputs": [
				{
					"internalType": "uint256",
					"name": "",
					"type": "uint256"
				}
			],
			"stateMutability": "pure",
			"type": "function"
		}
	]
}