{
	"data": {
		"bytecode": {
			"linkReferences": {},
			"object": "608060405234801561001057600080fd5b50610452806100206000396000f3fe608060405234801561001057600080fd5b506004361061004c5760003560e01c8063aa80e49214610051578063c736694e1461006d578063d80f28741461008e578063f010cb28146100aa575b600080fd5b61006b60048036038101906100669190610297565b6100cb565b005b610075610116565b604051610085949392919061032b565b60405180910390f35b6100a860048036038101906100a39190610370565b61014f565b005b6100b26101a3565b6040516100c294939291906103d7565b60405180910390f35b8360008190555082600160006101000a81548160ff021916908360ff160217905550816001806101000a81548161ffff021916908361ffff1602179055508060028190555050505050565b600080600080600054600160009054906101000a900460ff1660018054906101000a900461ffff16600254935093509350935090919293565b8360ff1660008190555082600160006101000a81548160ff021916908360ff1602179055508160ff166001806101000a81548161ffff021916908361ffff1602179055508060ff1660028190555050505050565b600080600080600054600160009054906101000a900460ff1660018054906101000a900461ffff166002548260ff1692508161ffff169150935093509350935090919293565b600080fd5b6000819050919050565b610201816101ee565b811461020c57600080fd5b50565b60008135905061021e816101f8565b92915050565b600060ff82169050919050565b61023a81610224565b811461024557600080fd5b50565b60008135905061025781610231565b92915050565b600061ffff82169050919050565b6102748161025d565b811461027f57600080fd5b50565b6000813590506102918161026b565b92915050565b600080600080608085870312156102b1576102b06101e9565b5b60006102bf8782880161020f565b94505060206102d087828801610248565b93505060406102e187828801610282565b92505060606102f28782880161020f565b91505092959194509250565b610307816101ee565b82525050565b61031681610224565b82525050565b6103258161025d565b82525050565b600060808201905061034060008301876102fe565b61034d602083018661030d565b61035a604083018561031c565b61036760608301846102fe565b95945050505050565b6000806000806080858703121561038a576103896101e9565b5b600061039887828801610248565b94505060206103a987828801610248565b93505060406103ba87828801610248565b92505060606103cb87828801610248565b91505092959194509250565b60006080820190506103ec60008301876102fe565b6103f960208301866102fe565b61040660408301856102fe565b61041360608301846102fe565b9594505050505056fea264697066735822122065715be504755aef7277c734a0a2efda28f46dd8364f8aa42a4f136ae12156e164736f6c63430008120033",
			"opcodes": "PUSH1 0x80 PUSH1 0x40 MSTORE CALLVALUE DUP1 ISZERO PUSH2 0x10 JUMPI PUSH1 0x0 DUP1 REVERT JUMPDEST POP PUSH2 0x452 DUP1 PUSH2 0x20 PUSH1 0x0 CODECOPY PUSH1 0x0 RETURN INVALID PUSH1 0x80 PUSH1 0x40 MSTORE CALLVALUE DUP1 ISZERO PUSH2 0x10 JUMPI PUSH1 0x0 DUP1 REVERT JUMPDEST POP PUSH1 0x4 CALLDATASIZE LT PUSH2 0x4C JUMPI PUSH1 0x0 CALLDATALOAD PUSH1 0xE0 SHR DUP1 PUSH4 0xAA80E492 EQ PUSH2 0x51 JUMPI DUP1 PUSH4 0xC736694E EQ PUSH2 0x6D JUMPI DUP1 PUSH4 0xD80F2874 EQ PUSH2 0x8E JUMPI DUP1 PUSH4 0xF010CB28 EQ PUSH2 0xAA JUMPI JUMPDEST PUSH1 0x0 DUP1 REVERT JUMPDEST PUSH2 0x6B PUSH1 0x4 DUP1 CALLDATASIZE SUB DUP2 ADD SWAP1 PUSH2 0x66 SWAP2 SWAP1 PUSH2 0x297 JUMP JUMPDEST PUSH2 0xCB JUMP JUMPDEST STOP JUMPDEST PUSH2 0x75 PUSH2 0x116 JUMP JUMPDEST PUSH1 0x40 MLOAD PUSH2 0x85 SWAP5 SWAP4 SWAP3 SWAP2 SWAP1 PUSH2 0x32B JUMP JUMPDEST PUSH1 0x40 MLOAD DUP1 SWAP2 SUB SWAP1 RETURN JUMPDEST PUSH2 0xA8 PUSH1 0x4 DUP1 CALLDATASIZE SUB DUP2 ADD SWAP1 PUSH2 0xA3 SWAP2 SWAP1 PUSH2 0x370 JUMP JUMPDEST PUSH2 0x14F JUMP JUMPDEST STOP JUMPDEST PUSH2 0xB2 PUSH2 0x1A3 JUMP JUMPDEST PUSH1 0x40 MLOAD PUSH2 0xC2 SWAP5 SWAP4 SWAP3 SWAP2 SWAP1 PUSH2 0x3D7 JUMP JUMPDEST PUSH1 0x40 MLOAD DUP1 SWAP2 SUB SWAP1 RETURN JUMPDEST DUP4 PUSH1 0x0 DUP2 SWAP1 SSTORE POP DUP3 PUSH1 0x1 PUSH1 0x0 PUSH2 0x100 EXP DUP2 SLOAD DUP2 PUSH1 0xFF MUL NOT AND SWAP1 DUP4 PUSH1 0xFF AND MUL OR SWAP1 SSTORE POP DUP2 PUSH1 0x1 DUP1 PUSH2 0x100 EXP DUP2 SLOAD DUP2 PUSH2 0xFFFF MUL NOT AND SWAP1 DUP4 PUSH2 0xFFFF AND MUL OR SWAP1 SSTORE POP DUP1 PUSH1 0x2 DUP2 SWAP1 SSTORE POP POP POP POP POP JUMP JUMPDEST PUSH1 0x0 DUP1 PUSH1 0x0 DUP1 PUSH1 0x0 SLOAD PUSH1 0x1 PUSH1 0x0 SWAP1 SLOAD SWAP1 PUSH2 0x100 EXP SWAP1 DIV PUSH1 0xFF AND PUSH1 0x1 DUP1 SLOAD SWAP1 PUSH2 0x100 EXP SWAP1 DIV PUSH2 0xFFFF AND PUSH1 0x2 SLOAD SWAP4 POP SWAP4 POP SWAP4 POP SWAP4 POP SWAP1 SWAP2 SWAP3 SWAP4 JUMP JUMPDEST DUP4 PUSH1 0xFF AND PUSH1 0x0 DUP2 SWAP1 SSTORE POP DUP3 PUSH1 0x1 PUSH1 0x0 PUSH2 0x100 EXP DUP2 SLOAD DUP2 PUSH1 0xFF MUL NOT AND SWAP1 DUP4 PUSH1 0xFF AND MUL OR SWAP1 SSTORE POP DUP2 PUSH1 0xFF AND PUSH1 0x1 DUP1 PUSH2 0x100 EXP DUP2 SLOAD DUP2 PUSH2 0xFFFF MUL NOT AND SWAP1 DUP4 PUSH2 0xFFFF AND MUL OR SWAP1 SSTORE POP DUP1 PUSH1 0xFF AND PUSH1 0x2 DUP2 SWAP1 SSTORE POP POP POP POP POP JUMP JUMPDEST PUSH1 0x0 DUP1 PUSH1 0x0 DUP1 PUSH1 0x0 SLOAD PUSH1 0x1 PUSH1 0x0 SWAP1 SLOAD SWAP1 PUSH2 0x100 EXP SWAP1 DIV PUSH1 0xFF AND PUSH1 0x1 DUP1 SLOAD SWAP1 PUSH2 0x100 EXP SWAP1 DIV PUSH2 0xFFFF AND PUSH1 0x2 SLOAD DUP3 PUSH1 0xFF AND SWAP3 POP DUP2 PUSH2 0xFFFF AND SWAP2 POP SWAP4 POP SWAP4 POP SWAP4 POP SWAP4 POP SWAP1 SWAP2 SWAP3 SWAP4 JUMP JUMPDEST PUSH1 0x0 DUP1 REVERT JUMPDEST PUSH1 0x0 DUP2 SWAP1 POP SWAP2 SWAP1 POP JUMP JUMPDEST PUSH2 0x201 DUP2 PUSH2 0x1EE JUMP JUMPDEST DUP2 EQ PUSH2 0x20C JUMPI PUSH1 0x0 DUP1 REVERT JUMPDEST POP JUMP JUMPDEST PUSH1 0x0 DUP2 CALLDATALOAD SWAP1 POP PUSH2 0x21E DUP2 PUSH2 0x1F8 JUMP JUMPDEST SWAP3 SWAP2 POP POP JUMP JUMPDEST PUSH1 0x0 PUSH1 0xFF DUP3 AND SWAP1 POP SWAP2 SWAP1 POP JUMP JUMPDEST PUSH2 0x23A DUP2 PUSH2 0x224 JUMP JUMPDEST DUP2 EQ PUSH2 0x245 JUMPI PUSH1 0x0 DUP1 REVERT JUMPDEST POP JUMP JUMPDEST PUSH1 0x0 DUP2 CALLDATALOAD SWAP1 POP PUSH2 0x257 DUP2 PUSH2 0x231 JUMP JUMPDEST SWAP3 SWAP2 POP POP JUMP JUMPDEST PUSH1 0x0 PUSH2 0xFFFF DUP3 AND SWAP1 POP SWAP2 SWAP1 POP JUMP JUMPDEST PUSH2 0x274 DUP2 PUSH2 0x25D JUMP JUMPDEST DUP2 EQ PUSH2 0x27F JUMPI PUSH1 0x0 DUP1 REVERT JUMPDEST POP JUMP JUMPDEST PUSH1 0x0 DUP2 CALLDATALOAD SWAP1 POP PUSH2 0x291 DUP2 PUSH2 0x26B JUMP JUMPDEST SWAP3 SWAP2 POP POP JUMP JUMPDEST PUSH1 0x0 DUP1 PUSH1 0x0 DUP1 PUSH1 0x80 DUP6 DUP8 SUB SLT ISZERO PUSH2 0x2B1 JUMPI PUSH2 0x2B0 PUSH2 0x1E9 JUMP JUMPDEST JUMPDEST PUSH1 0x0 PUSH2 0x2BF DUP8 DUP3 DUP9 ADD PUSH2 0x20F JUMP JUMPDEST SWAP5 POP POP PUSH1 0x20 PUSH2 0x2D0 DUP8 DUP3 DUP9 ADD PUSH2 0x248 JUMP JUMPDEST SWAP4 POP POP PUSH1 0x40 PUSH2 0x2E1 DUP8 DUP3 DUP9 ADD PUSH2 0x282 JUMP JUMPDEST SWAP3 POP POP PUSH1 0x60 PUSH2 0x2F2 DUP8 DUP3 DUP9 ADD PUSH2 0x20F JUMP JUMPDEST SWAP2 POP POP SWAP3 SWAP6 SWAP2 SWAP5 POP SWAP3 POP JUMP JUMPDEST PUSH2 0x307 DUP2 PUSH2 0x1EE JUMP JUMPDEST DUP3 MSTORE POP POP JUMP JUMPDEST PUSH2 0x316 DUP2 PUSH2 0x224 JUMP JUMPDEST DUP3 MSTORE POP POP JUMP JUMPDEST PUSH2 0x325 DUP2 PUSH2 0x25D JUMP JUMPDEST DUP3 MSTORE POP POP JUMP JUMPDEST PUSH1 0x0 PUSH1 0x80 DUP3 ADD SWAP1 POP PUSH2 0x340 PUSH1 0x0 DUP4 ADD DUP8 PUSH2 0x2FE JUMP JUMPDEST PUSH2 0x34D PUSH1 0x20 DUP4 ADD DUP7 PUSH2 0x30D JUMP JUMPDEST PUSH2 0x35A PUSH1 0x40 DUP4 ADD DUP6 PUSH2 0x31C JUMP JUMPDEST PUSH2 0x367 PUSH1 0x60 DUP4 ADD DUP5 PUSH2 0x2FE JUMP JUMPDEST SWAP6 SWAP5 POP POP POP POP POP JUMP JUMPDEST PUSH1 0x0 DUP1 PUSH1 0x0 DUP1 PUSH1 0x80 DUP6 DUP8 SUB SLT ISZERO PUSH2 0x38A JUMPI PUSH2 0x389 PUSH2 0x1E9 JUMP JUMPDEST JUMPDEST PUSH1 0x0 PUSH2 0x398 DUP8 DUP3 DUP9 ADD PUSH2 0x248 JUMP JUMPDEST SWAP5 POP POP PUSH1 0x20 PUSH2 0x3A9 DUP8 DUP3 DUP9 ADD PUSH2 0x248 JUMP JUMPDEST SWAP4 POP POP PUSH1 0x40 PUSH2 0x3BA DUP8 DUP3 DUP9 ADD PUSH2 0x248 JUMP JUMPDEST SWAP3 POP POP PUSH1 0x60 PUSH2 0x3CB DUP8 DUP3 DUP9 ADD PUSH2 0x248 JUMP JUMPDEST SWAP2 POP POP SWAP3 SWAP6 SWAP2 SWAP5 POP SWAP3 POP JUMP JUMPDEST PUSH1 0x0 PUSH1 0x80 DUP3 ADD SWAP1 POP PUSH2 0x3EC PUSH1 0x0 DUP4 ADD DUP8 PUSH2 0x2FE JUMP JUMPDEST PUSH2 0x3F9 PUSH1 0x20 DUP4 ADD DUP7 PUSH2 0x2FE JUMP JUMPDEST PUSH2 0x406 PUSH1 0x40 DUP4 ADD DUP6 PUSH2 0x2FE JUMP JUMPDEST PUSH2 0x413 PUSH1 0x60 DUP4 ADD DUP5 PUSH2 0x2FE JUMP JUMPDEST SWAP6 SWAP5 POP POP POP POP POP JUMP INVALID LOG2 PUSH5 0x6970667358 0x22 SLT KECCAK256 PUSH6 0x715BE504755A 0xEF PUSH19 0x77C734A0A2EFDA28F46DD8364F8AA42A4F136A 0xE1 0x21 JUMP 0xE1 PUSH5 0x736F6C6343 STOP ADDMOD SLT STOP CALLER "
		},
		"gasEstimates": {
			"creation": {
				"codeDepositCost": "221200",
				"executionCost": "263",
				"totalCost": "221463"
			},
			"external": {
				"getABCD()": "infinite",
				"getABCD2()": "infinite",
				"setABCD(uint256,uint8,uint16,uint256)": "infinite",
				"setABCD2(uint8,uint8,uint8,uint8)": "infinite"
			}
		},
		"methodIdentifiers": {
			"getABCD()": "c736694e",
			"getABCD2()": "f010cb28",
			"setABCD(uint256,uint8,uint16,uint256)": "aa80e492",
			"setABCD2(uint8,uint8,uint8,uint8)": "d80f2874"
		}
	},
	"abi": [
		{
			"inputs": [],
			"name": "getABCD",
			"outputs": [
				{
					"internalType": "uint256",
					"name": "",
					"type": "uint256"
				},
				{
					"internalType": "uint8",
					"name": "",
					"type": "uint8"
				},
				{
					"internalType": "uint16",
					"name": "",
					"type": "uint16"
				},
				{
					"internalType": "uint256",
					"name": "",
					"type": "uint256"
				}
			],
			"stateMutability": "view",
			"type": "function"
		},
		{
			"inputs": [],
			"name": "getABCD2",
			"outputs": [
				{
					"internalType": "uint256",
					"name": "",
					"type": "uint256"
				},
				{
					"internalType": "uint256",
					"name": "",
					"type": "uint256"
				},
				{
					"internalType": "uint256",
					"name": "",
					"type": "uint256"
				},
				{
					"internalType": "uint256",
					"name": "",
					"type": "uint256"
				}
			],
			"stateMutability": "view",
			"type": "function"
		},
		{
			"inputs": [
				{
					"internalType": "uint256",
					"name": "_a",
					"type": "uint256"
				},
				{
					"internalType": "uint8",
					"name": "_b",
					"type": "uint8"
				},
				{
					"internalType": "uint16",
					"name": "_c",
					"type": "uint16"
				},
				{
					"internalType": "uint256",
					"name": "_d",
					"type": "uint256"
				}
			],
			"name": "setABCD",
			"outputs": [],
			"stateMutability": "nonpayable",
			"type": "function"
		},
		{
			"inputs": [
				{
					"internalType": "uint8",
					"name": "_a",
					"type": "uint8"
				},
				{
					"internalType": "uint8",
					"name": "_b",
					"type": "uint8"
				},
				{
					"internalType": "uint8",
					"name": "_c",
					"type": "uint8"
				},
				{
					"internalType": "uint8",
					"name": "_d",
					"type": "uint8"
				}
			],
			"name": "setABCD2",
			"outputs": [],
			"stateMutability": "nonpayable",
			"type": "function"
		}
	]
}