{
	"data": {
		"bytecode": {
			"linkReferences": {},
			"object": "608060405234801561001057600080fd5b50610886806100206000396000f3fe608060405234801561001057600080fd5b506004361061007d5760003560e01c8063a1c519151161005b578063a1c51915146100a0578063b5e7bc60146100be578063d46300fd146100da578063ee919d50146100f85761007d565b806371c59316146100825780637abbb5681461008c5780639b36f8da14610096575b600080fd5b61008a610114565b005b61009461015b565b005b61009e6101a2565b005b6100a86101e9565b6040516100b59190610331565b60405180910390f35b6100d860048036038101906100d3919061049c565b61027b565b005b6100e261028e565b6040516100ef91906104fe565b60405180910390f35b610112600480360381019061010d9190610545565b610297565b005b6040518060400160405280600381526020017f616263000000000000000000000000000000000000000000000000000000000081525060019081610158919061077e565b50565b6040518060400160405280600181526020017f63000000000000000000000000000000000000000000000000000000000000008152506001908161019f919061077e565b50565b6040518060400160405280600181526020017f4300000000000000000000000000000000000000000000000000000000000000815250600190816101e6919061077e565b50565b6060600180546101f8906105a1565b80601f0160208091040260200160405190810160405280929190818152602001828054610224906105a1565b80156102715780601f1061024657610100808354040283529160200191610271565b820191906000526020600020905b81548152906001019060200180831161025457829003601f168201915b5050505050905090565b806001908161028a919061077e565b5050565b60008054905090565b8060008190555050565b600081519050919050565b600082825260208201905092915050565b60005b838110156102db5780820151818401526020810190506102c0565b60008484015250505050565b6000601f19601f8301169050919050565b6000610303826102a1565b61030d81856102ac565b935061031d8185602086016102bd565b610326816102e7565b840191505092915050565b6000602082019050818103600083015261034b81846102f8565b905092915050565b6000604051905090565b600080fd5b600080fd5b600080fd5b600080fd5b7f4e487b7100000000000000000000000000000000000000000000000000000000600052604160045260246000fd5b6103a9826102e7565b810181811067ffffffffffffffff821117156103c8576103c7610371565b5b80604052505050565b60006103db610353565b90506103e782826103a0565b919050565b600067ffffffffffffffff82111561040757610406610371565b5b610410826102e7565b9050602081019050919050565b82818337600083830152505050565b600061043f61043a846103ec565b6103d1565b90508281526020810184848401111561045b5761045a61036c565b5b61046684828561041d565b509392505050565b600082601f83011261048357610482610367565b5b813561049384826020860161042c565b91505092915050565b6000602082840312156104b2576104b161035d565b5b600082013567ffffffffffffffff8111156104d0576104cf610362565b5b6104dc8482850161046e565b91505092915050565b6000819050919050565b6104f8816104e5565b82525050565b600060208201905061051360008301846104ef565b92915050565b610522816104e5565b811461052d57600080fd5b50565b60008135905061053f81610519565b92915050565b60006020828403121561055b5761055a61035d565b5b600061056984828501610530565b91505092915050565b7f4e487b7100000000000000000000000000000000000000000000000000000000600052602260045260246000fd5b600060028204905060018216806105b957607f821691505b6020821081036105cc576105cb610572565b5b50919050565b60008190508160005260206000209050919050565b60006020601f8301049050919050565b600082821b905092915050565b6000600883026106347fffffffffffffffffffffffffffffffffffffffffffffffffffffffffffffffff826105f7565b61063e86836105f7565b95508019841693508086168417925050509392505050565b6000819050919050565b600061067b610676610671846104e5565b610656565b6104e5565b9050919050565b6000819050919050565b61069583610660565b6106a96106a182610682565b848454610604565b825550505050565b600090565b6106be6106b1565b6106c981848461068c565b505050565b5b818110156106ed576106e26000826106b6565b6001810190506106cf565b5050565b601f82111561073257610703816105d2565b61070c846105e7565b8101602085101561071b578190505b61072f610727856105e7565b8301826106ce565b50505b505050565b600082821c905092915050565b600061075560001984600802610737565b1980831691505092915050565b600061076e8383610744565b9150826002028217905092915050565b610787826102a1565b67ffffffffffffffff8111156107a05761079f610371565b5b6107aa82546105a1565b6107b58282856106f1565b600060209050601f8311600181146107e857600084156107d6578287015190505b6107e08582610762565b865550610848565b601f1984166107f6866105d2565b60005b8281101561081e578489015182556001820191506020850194506020810190506107f9565b8683101561083b5784890151610837601f891682610744565b8355505b6001600288020188555050505b50505050505056fea264697066735822122018722fe301b88bd163dd5247d05a81d9538c9cb1e533181220917e05e9073c6364736f6c63430008120033",
			"opcodes": "PUSH1 0x80 PUSH1 0x40 MSTORE CALLVALUE DUP1 ISZERO PUSH2 0x10 JUMPI PUSH1 0x0 DUP1 REVERT JUMPDEST POP PUSH2 0x886 DUP1 PUSH2 0x20 PUSH1 0x0 CODECOPY PUSH1 0x0 RETURN INVALID PUSH1 0x80 PUSH1 0x40 MSTORE CALLVALUE DUP1 ISZERO PUSH2 0x10 JUMPI PUSH1 0x0 DUP1 REVERT JUMPDEST POP PUSH1 0x4 CALLDATASIZE LT PUSH2 0x7D JUMPI PUSH1 0x0 CALLDATALOAD PUSH1 0xE0 SHR DUP1 PUSH4 0xA1C51915 GT PUSH2 0x5B JUMPI DUP1 PUSH4 0xA1C51915 EQ PUSH2 0xA0 JUMPI DUP1 PUSH4 0xB5E7BC60 EQ PUSH2 0xBE JUMPI DUP1 PUSH4 0xD46300FD EQ PUSH2 0xDA JUMPI DUP1 PUSH4 0xEE919D50 EQ PUSH2 0xF8 JUMPI PUSH2 0x7D JUMP JUMPDEST DUP1 PUSH4 0x71C59316 EQ PUSH2 0x82 JUMPI DUP1 PUSH4 0x7ABBB568 EQ PUSH2 0x8C JUMPI DUP1 PUSH4 0x9B36F8DA EQ PUSH2 0x96 JUMPI JUMPDEST PUSH1 0x0 DUP1 REVERT JUMPDEST PUSH2 0x8A PUSH2 0x114 JUMP JUMPDEST STOP JUMPDEST PUSH2 0x94 PUSH2 0x15B JUMP JUMPDEST STOP JUMPDEST PUSH2 0x9E PUSH2 0x1A2 JUMP JUMPDEST STOP JUMPDEST PUSH2 0xA8 PUSH2 0x1E9 JUMP JUMPDEST PUSH1 0x40 MLOAD PUSH2 0xB5 SWAP2 SWAP1 PUSH2 0x331 JUMP JUMPDEST PUSH1 0x40 MLOAD DUP1 SWAP2 SUB SWAP1 RETURN JUMPDEST PUSH2 0xD8 PUSH1 0x4 DUP1 CALLDATASIZE SUB DUP2 ADD SWAP1 PUSH2 0xD3 SWAP2 SWAP1 PUSH2 0x49C JUMP JUMPDEST PUSH2 0x27B JUMP JUMPDEST STOP JUMPDEST PUSH2 0xE2 PUSH2 0x28E JUMP JUMPDEST PUSH1 0x40 MLOAD PUSH2 0xEF SWAP2 SWAP1 PUSH2 0x4FE JUMP JUMPDEST PUSH1 0x40 MLOAD DUP1 SWAP2 SUB SWAP1 RETURN JUMPDEST PUSH2 0x112 PUSH1 0x4 DUP1 CALLDATASIZE SUB DUP2 ADD SWAP1 PUSH2 0x10D SWAP2 SWAP1 PUSH2 0x545 JUMP JUMPDEST PUSH2 0x297 JUMP JUMPDEST STOP JUMPDEST PUSH1 0x40 MLOAD DUP1 PUSH1 0x40 ADD PUSH1 0x40 MSTORE DUP1 PUSH1 0x3 DUP2 MSTORE PUSH1 0x20 ADD PUSH32 0x6162630000000000000000000000000000000000000000000000000000000000 DUP2 MSTORE POP PUSH1 0x1 SWAP1 DUP2 PUSH2 0x158 SWAP2 SWAP1 PUSH2 0x77E JUMP JUMPDEST POP JUMP JUMPDEST PUSH1 0x40 MLOAD DUP1 PUSH1 0x40 ADD PUSH1 0x40 MSTORE DUP1 PUSH1 0x1 DUP2 MSTORE PUSH1 0x20 ADD PUSH32 0x6300000000000000000000000000000000000000000000000000000000000000 DUP2 MSTORE POP PUSH1 0x1 SWAP1 DUP2 PUSH2 0x19F SWAP2 SWAP1 PUSH2 0x77E JUMP JUMPDEST POP JUMP JUMPDEST PUSH1 0x40 MLOAD DUP1 PUSH1 0x40 ADD PUSH1 0x40 MSTORE DUP1 PUSH1 0x1 DUP2 MSTORE PUSH1 0x20 ADD PUSH32 0x4300000000000000000000000000000000000000000000000000000000000000 DUP2 MSTORE POP PUSH1 0x1 SWAP1 DUP2 PUSH2 0x1E6 SWAP2 SWAP1 PUSH2 0x77E JUMP JUMPDEST POP JUMP JUMPDEST PUSH1 0x60 PUSH1 0x1 DUP1 SLOAD PUSH2 0x1F8 SWAP1 PUSH2 0x5A1 JUMP JUMPDEST DUP1 PUSH1 0x1F ADD PUSH1 0x20 DUP1 SWAP2 DIV MUL PUSH1 0x20 ADD PUSH1 0x40 MLOAD SWAP1 DUP2 ADD PUSH1 0x40 MSTORE DUP1 SWAP3 SWAP2 SWAP1 DUP2 DUP2 MSTORE PUSH1 0x20 ADD DUP3 DUP1 SLOAD PUSH2 0x224 SWAP1 PUSH2 0x5A1 JUMP JUMPDEST DUP1 ISZERO PUSH2 0x271 JUMPI DUP1 PUSH1 0x1F LT PUSH2 0x246 JUMPI PUSH2 0x100 DUP1 DUP4 SLOAD DIV MUL DUP4 MSTORE SWAP2 PUSH1 0x20 ADD SWAP2 PUSH2 0x271 JUMP JUMPDEST DUP3 ADD SWAP2 SWAP1 PUSH1 0x0 MSTORE PUSH1 0x20 PUSH1 0x0 KECCAK256 SWAP1 JUMPDEST DUP2 SLOAD DUP2 MSTORE SWAP1 PUSH1 0x1 ADD SWAP1 PUSH1 0x20 ADD DUP1 DUP4 GT PUSH2 0x254 JUMPI DUP3 SWAP1 SUB PUSH1 0x1F AND DUP3 ADD SWAP2 JUMPDEST POP POP POP POP POP SWAP1 POP SWAP1 JUMP JUMPDEST DUP1 PUSH1 0x1 SWAP1 DUP2 PUSH2 0x28A SWAP2 SWAP1 PUSH2 0x77E JUMP JUMPDEST POP POP JUMP JUMPDEST PUSH1 0x0 DUP1 SLOAD SWAP1 POP SWAP1 JUMP JUMPDEST DUP1 PUSH1 0x0 DUP2 SWAP1 SSTORE POP POP JUMP JUMPDEST PUSH1 0x0 DUP2 MLOAD SWAP1 POP SWAP2 SWAP1 POP JUMP JUMPDEST PUSH1 0x0 DUP3 DUP3 MSTORE PUSH1 0x20 DUP3 ADD SWAP1 POP SWAP3 SWAP2 POP POP JUMP JUMPDEST PUSH1 0x0 JUMPDEST DUP4 DUP2 LT ISZERO PUSH2 0x2DB JUMPI DUP1 DUP3 ADD MLOAD DUP2 DUP5 ADD MSTORE PUSH1 0x20 DUP2 ADD SWAP1 POP PUSH2 0x2C0 JUMP JUMPDEST PUSH1 0x0 DUP5 DUP5 ADD MSTORE POP POP POP POP JUMP JUMPDEST PUSH1 0x0 PUSH1 0x1F NOT PUSH1 0x1F DUP4 ADD AND SWAP1 POP SWAP2 SWAP1 POP JUMP JUMPDEST PUSH1 0x0 PUSH2 0x303 DUP3 PUSH2 0x2A1 JUMP JUMPDEST PUSH2 0x30D DUP2 DUP6 PUSH2 0x2AC JUMP JUMPDEST SWAP4 POP PUSH2 0x31D DUP2 DUP6 PUSH1 0x20 DUP7 ADD PUSH2 0x2BD JUMP JUMPDEST PUSH2 0x326 DUP2 PUSH2 0x2E7 JUMP JUMPDEST DUP5 ADD SWAP2 POP POP SWAP3 SWAP2 POP POP JUMP JUMPDEST PUSH1 0x0 PUSH1 0x20 DUP3 ADD SWAP1 POP DUP2 DUP2 SUB PUSH1 0x0 DUP4 ADD MSTORE PUSH2 0x34B DUP2 DUP5 PUSH2 0x2F8 JUMP JUMPDEST SWAP1 POP SWAP3 SWAP2 POP POP JUMP JUMPDEST PUSH1 0x0 PUSH1 0x40 MLOAD SWAP1 POP SWAP1 JUMP JUMPDEST PUSH1 0x0 DUP1 REVERT JUMPDEST PUSH1 0x0 DUP1 REVERT JUMPDEST PUSH1 0x0 DUP1 REVERT JUMPDEST PUSH1 0x0 DUP1 REVERT JUMPDEST PUSH32 0x4E487B7100000000000000000000000000000000000000000000000000000000 PUSH1 0x0 MSTORE PUSH1 0x41 PUSH1 0x4 MSTORE PUSH1 0x24 PUSH1 0x0 REVERT JUMPDEST PUSH2 0x3A9 DUP3 PUSH2 0x2E7 JUMP JUMPDEST DUP2 ADD DUP2 DUP2 LT PUSH8 0xFFFFFFFFFFFFFFFF DUP3 GT OR ISZERO PUSH2 0x3C8 JUMPI PUSH2 0x3C7 PUSH2 0x371 JUMP JUMPDEST JUMPDEST DUP1 PUSH1 0x40 MSTORE POP POP POP JUMP JUMPDEST PUSH1 0x0 PUSH2 0x3DB PUSH2 0x353 JUMP JUMPDEST SWAP1 POP PUSH2 0x3E7 DUP3 DUP3 PUSH2 0x3A0 JUMP JUMPDEST SWAP2 SWAP1 POP JUMP JUMPDEST PUSH1 0x0 PUSH8 0xFFFFFFFFFFFFFFFF DUP3 GT ISZERO PUSH2 0x407 JUMPI PUSH2 0x406 PUSH2 0x371 JUMP JUMPDEST JUMPDEST PUSH2 0x410 DUP3 PUSH2 0x2E7 JUMP JUMPDEST SWAP1 POP PUSH1 0x20 DUP2 ADD SWAP1 POP SWAP2 SWAP1 POP JUMP JUMPDEST DUP3 DUP2 DUP4 CALLDATACOPY PUSH1 0x0 DUP4 DUP4 ADD MSTORE POP POP POP JUMP JUMPDEST PUSH1 0x0 PUSH2 0x43F PUSH2 0x43A DUP5 PUSH2 0x3EC JUMP JUMPDEST PUSH2 0x3D1 JUMP JUMPDEST SWAP1 POP DUP3 DUP2 MSTORE PUSH1 0x20 DUP2 ADD DUP5 DUP5 DUP5 ADD GT ISZERO PUSH2 0x45B JUMPI PUSH2 0x45A PUSH2 0x36C JUMP JUMPDEST JUMPDEST PUSH2 0x466 DUP5 DUP3 DUP6 PUSH2 0x41D JUMP JUMPDEST POP SWAP4 SWAP3 POP POP POP JUMP JUMPDEST PUSH1 0x0 DUP3 PUSH1 0x1F DUP4 ADD SLT PUSH2 0x483 JUMPI PUSH2 0x482 PUSH2 0x367 JUMP JUMPDEST JUMPDEST DUP2 CALLDATALOAD PUSH2 0x493 DUP5 DUP3 PUSH1 0x20 DUP7 ADD PUSH2 0x42C JUMP JUMPDEST SWAP2 POP POP SWAP3 SWAP2 POP POP JUMP JUMPDEST PUSH1 0x0 PUSH1 0x20 DUP3 DUP5 SUB SLT ISZERO PUSH2 0x4B2 JUMPI PUSH2 0x4B1 PUSH2 0x35D JUMP JUMPDEST JUMPDEST PUSH1 0x0 DUP3 ADD CALLDATALOAD PUSH8 0xFFFFFFFFFFFFFFFF DUP2 GT ISZERO PUSH2 0x4D0 JUMPI PUSH2 0x4CF PUSH2 0x362 JUMP JUMPDEST JUMPDEST PUSH2 0x4DC DUP5 DUP3 DUP6 ADD PUSH2 0x46E JUMP JUMPDEST SWAP2 POP POP SWAP3 SWAP2 POP POP JUMP JUMPDEST PUSH1 0x0 DUP2 SWAP1 POP SWAP2 SWAP1 POP JUMP JUMPDEST PUSH2 0x4F8 DUP2 PUSH2 0x4E5 JUMP JUMPDEST DUP3 MSTORE POP POP JUMP JUMPDEST PUSH1 0x0 PUSH1 0x20 DUP3 ADD SWAP1 POP PUSH2 0x513 PUSH1 0x0 DUP4 ADD DUP5 PUSH2 0x4EF JUMP JUMPDEST SWAP3 SWAP2 POP POP JUMP JUMPDEST PUSH2 0x522 DUP2 PUSH2 0x4E5 JUMP JUMPDEST DUP2 EQ PUSH2 0x52D JUMPI PUSH1 0x0 DUP1 REVERT JUMPDEST POP JUMP JUMPDEST PUSH1 0x0 DUP2 CALLDATALOAD SWAP1 POP PUSH2 0x53F DUP2 PUSH2 0x519 JUMP JUMPDEST SWAP3 SWAP2 POP POP JUMP JUMPDEST PUSH1 0x0 PUSH1 0x20 DUP3 DUP5 SUB SLT ISZERO PUSH2 0x55B JUMPI PUSH2 0x55A PUSH2 0x35D JUMP JUMPDEST JUMPDEST PUSH1 0x0 PUSH2 0x569 DUP5 DUP3 DUP6 ADD PUSH2 0x530 JUMP JUMPDEST SWAP2 POP POP SWAP3 SWAP2 POP POP JUMP JUMPDEST PUSH32 0x4E487B7100000000000000000000000000000000000000000000000000000000 PUSH1 0x0 MSTORE PUSH1 0x22 PUSH1 0x4 MSTORE PUSH1 0x24 PUSH1 0x0 REVERT JUMPDEST PUSH1 0x0 PUSH1 0x2 DUP3 DIV SWAP1 POP PUSH1 0x1 DUP3 AND DUP1 PUSH2 0x5B9 JUMPI PUSH1 0x7F DUP3 AND SWAP2 POP JUMPDEST PUSH1 0x20 DUP3 LT DUP2 SUB PUSH2 0x5CC JUMPI PUSH2 0x5CB PUSH2 0x572 JUMP JUMPDEST JUMPDEST POP SWAP2 SWAP1 POP JUMP JUMPDEST PUSH1 0x0 DUP2 SWAP1 POP DUP2 PUSH1 0x0 MSTORE PUSH1 0x20 PUSH1 0x0 KECCAK256 SWAP1 POP SWAP2 SWAP1 POP JUMP JUMPDEST PUSH1 0x0 PUSH1 0x20 PUSH1 0x1F DUP4 ADD DIV SWAP1 POP SWAP2 SWAP1 POP JUMP JUMPDEST PUSH1 0x0 DUP3 DUP3 SHL SWAP1 POP SWAP3 SWAP2 POP POP JUMP JUMPDEST PUSH1 0x0 PUSH1 0x8 DUP4 MUL PUSH2 0x634 PUSH32 0xFFFFFFFFFFFFFFFFFFFFFFFFFFFFFFFFFFFFFFFFFFFFFFFFFFFFFFFFFFFFFFFF DUP3 PUSH2 0x5F7 JUMP JUMPDEST PUSH2 0x63E DUP7 DUP4 PUSH2 0x5F7 JUMP JUMPDEST SWAP6 POP DUP1 NOT DUP5 AND SWAP4 POP DUP1 DUP7 AND DUP5 OR SWAP3 POP POP POP SWAP4 SWAP3 POP POP POP JUMP JUMPDEST PUSH1 0x0 DUP2 SWAP1 POP SWAP2 SWAP1 POP JUMP JUMPDEST PUSH1 0x0 PUSH2 0x67B PUSH2 0x676 PUSH2 0x671 DUP5 PUSH2 0x4E5 JUMP JUMPDEST PUSH2 0x656 JUMP JUMPDEST PUSH2 0x4E5 JUMP JUMPDEST SWAP1 POP SWAP2 SWAP1 POP JUMP JUMPDEST PUSH1 0x0 DUP2 SWAP1 POP SWAP2 SWAP1 POP JUMP JUMPDEST PUSH2 0x695 DUP4 PUSH2 0x660 JUMP JUMPDEST PUSH2 0x6A9 PUSH2 0x6A1 DUP3 PUSH2 0x682 JUMP JUMPDEST DUP5 DUP5 SLOAD PUSH2 0x604 JUMP JUMPDEST DUP3 SSTORE POP POP POP POP JUMP JUMPDEST PUSH1 0x0 SWAP1 JUMP JUMPDEST PUSH2 0x6BE PUSH2 0x6B1 JUMP JUMPDEST PUSH2 0x6C9 DUP2 DUP5 DUP5 PUSH2 0x68C JUMP JUMPDEST POP POP POP JUMP JUMPDEST JUMPDEST DUP2 DUP2 LT ISZERO PUSH2 0x6ED JUMPI PUSH2 0x6E2 PUSH1 0x0 DUP3 PUSH2 0x6B6 JUMP JUMPDEST PUSH1 0x1 DUP2 ADD SWAP1 POP PUSH2 0x6CF JUMP JUMPDEST POP POP JUMP JUMPDEST PUSH1 0x1F DUP3 GT ISZERO PUSH2 0x732 JUMPI PUSH2 0x703 DUP2 PUSH2 0x5D2 JUMP JUMPDEST PUSH2 0x70C DUP5 PUSH2 0x5E7 JUMP JUMPDEST DUP2 ADD PUSH1 0x20 DUP6 LT ISZERO PUSH2 0x71B JUMPI DUP2 SWAP1 POP JUMPDEST PUSH2 0x72F PUSH2 0x727 DUP6 PUSH2 0x5E7 JUMP JUMPDEST DUP4 ADD DUP3 PUSH2 0x6CE JUMP JUMPDEST POP POP JUMPDEST POP POP POP JUMP JUMPDEST PUSH1 0x0 DUP3 DUP3 SHR SWAP1 POP SWAP3 SWAP2 POP POP JUMP JUMPDEST PUSH1 0x0 PUSH2 0x755 PUSH1 0x0 NOT DUP5 PUSH1 0x8 MUL PUSH2 0x737 JUMP JUMPDEST NOT DUP1 DUP4 AND SWAP2 POP POP SWAP3 SWAP2 POP POP JUMP JUMPDEST PUSH1 0x0 PUSH2 0x76E DUP4 DUP4 PUSH2 0x744 JUMP JUMPDEST SWAP2 POP DUP3 PUSH1 0x2 MUL DUP3 OR SWAP1 POP SWAP3 SWAP2 POP POP JUMP JUMPDEST PUSH2 0x787 DUP3 PUSH2 0x2A1 JUMP JUMPDEST PUSH8 0xFFFFFFFFFFFFFFFF DUP2 GT ISZERO PUSH2 0x7A0 JUMPI PUSH2 0x79F PUSH2 0x371 JUMP JUMPDEST JUMPDEST PUSH2 0x7AA DUP3 SLOAD PUSH2 0x5A1 JUMP JUMPDEST PUSH2 0x7B5 DUP3 DUP3 DUP6 PUSH2 0x6F1 JUMP JUMPDEST PUSH1 0x0 PUSH1 0x20 SWAP1 POP PUSH1 0x1F DUP4 GT PUSH1 0x1 DUP2 EQ PUSH2 0x7E8 JUMPI PUSH1 0x0 DUP5 ISZERO PUSH2 0x7D6 JUMPI DUP3 DUP8 ADD MLOAD SWAP1 POP JUMPDEST PUSH2 0x7E0 DUP6 DUP3 PUSH2 0x762 JUMP JUMPDEST DUP7 SSTORE POP PUSH2 0x848 JUMP JUMPDEST PUSH1 0x1F NOT DUP5 AND PUSH2 0x7F6 DUP7 PUSH2 0x5D2 JUMP JUMPDEST PUSH1 0x0 JUMPDEST DUP3 DUP2 LT ISZERO PUSH2 0x81E JUMPI DUP5 DUP10 ADD MLOAD DUP3 SSTORE PUSH1 0x1 DUP3 ADD SWAP2 POP PUSH1 0x20 DUP6 ADD SWAP5 POP PUSH1 0x20 DUP2 ADD SWAP1 POP PUSH2 0x7F9 JUMP JUMPDEST DUP7 DUP4 LT ISZERO PUSH2 0x83B JUMPI DUP5 DUP10 ADD MLOAD PUSH2 0x837 PUSH1 0x1F DUP10 AND DUP3 PUSH2 0x744 JUMP JUMPDEST DUP4 SSTORE POP JUMPDEST PUSH1 0x1 PUSH1 0x2 DUP9 MUL ADD DUP9 SSTORE POP POP POP JUMPDEST POP POP POP POP POP POP JUMP INVALID LOG2 PUSH5 0x6970667358 0x22 SLT KECCAK256 XOR PUSH19 0x2FE301B88BD163DD5247D05A81D9538C9CB1E5 CALLER XOR SLT KECCAK256 SWAP2 PUSH31 0x5E9073C6364736F6C63430008120033000000000000000000000000000000 "
		},
		"gasEstimates": {
			"creation": {
				"codeDepositCost": "436400",
				"executionCost": "474",
				"totalCost": "436874"
			},
			"external": {
				"getA()": "2481",
				"getB()": "infinite",
				"setA(uint256)": "22586",
				"setB(string)": "infinite",
				"setBacC()": "infinite",
				"setBasABC()": "infinite",
				"setBasC()": "infinite"
			}
		},
		"methodIdentifiers": {
			"getA()": "d46300fd",
			"getB()": "a1c51915",
			"setA(uint256)": "ee919d50",
			"setB(string)": "b5e7bc60",
			"setBacC()": "7abbb568",
			"setBasABC()": "71c59316",
			"setBasC()": "9b36f8da"
		}
	},
	"abi": [
		{
			"inputs": [],
			"name": "getA",
			"outputs": [
				{
					"internalType": "uint256",
					"name": "",
					"type": "uint256"
				}
			],
			"stateMutability": "view",
			"type": "function"
		},
		{
			"inputs": [],
			"name": "getB",
			"outputs": [
				{
					"internalType": "string",
					"name": "",
					"type": "string"
				}
			],
			"stateMutability": "view",
			"type": "function"
		},
		{
			"inputs": [
				{
					"internalType": "uint256",
					"name": "_a",
					"type": "uint256"
				}
			],
			"name": "setA",
			"outputs": [],
			"stateMutability": "nonpayable",
			"type": "function"
		},
		{
			"inputs": [
				{
					"internalType": "string",
					"name": "_b",
					"type": "string"
				}
			],
			"name": "setB",
			"outputs": [],
			"stateMutability": "nonpayable",
			"type": "function"
		},
		{
			"inputs": [],
			"name": "setBacC",
			"outputs": [],
			"stateMutability": "nonpayable",
			"type": "function"
		},
		{
			"inputs": [],
			"name": "setBasABC",
			"outputs": [],
			"stateMutability": "nonpayable",
			"type": "function"
		},
		{
			"inputs": [],
			"name": "setBasC",
			"outputs": [],
			"stateMutability": "nonpayable",
			"type": "function"
		}
	]
}