{
	"contracts/230525/1.sol": {
		"Bank": {
			"abi": [
				{
					"inputs": [
						{
							"internalType": "address",
							"name": "_account",
							"type": "address"
						},
						{
							"internalType": "uint256",
							"name": "_amount",
							"type": "uint256"
						}
					],
					"name": "Deposit",
					"outputs": [],
					"stateMutability": "nonpayable",
					"type": "function"
				},
				{
					"inputs": [
						{
							"internalType": "address",
							"name": "_account",
							"type": "address"
						},
						{
							"internalType": "uint256",
							"name": "_amount",
							"type": "uint256"
						}
					],
					"name": "Withdraw",
					"outputs": [],
					"stateMutability": "nonpayable",
					"type": "function"
				},
				{
					"inputs": [
						{
							"internalType": "address",
							"name": "",
							"type": "address"
						}
					],
					"name": "balance",
					"outputs": [
						{
							"internalType": "uint256",
							"name": "",
							"type": "uint256"
						}
					],
					"stateMutability": "view",
					"type": "function"
				},
				{
					"inputs": [],
					"name": "balanceOf",
					"outputs": [
						{
							"internalType": "uint256",
							"name": "",
							"type": "uint256"
						}
					],
					"stateMutability": "view",
					"type": "function"
				},
				{
					"inputs": [
						{
							"internalType": "uint256",
							"name": "_amount",
							"type": "uint256"
						}
					],
					"name": "deposit",
					"outputs": [],
					"stateMutability": "payable",
					"type": "function"
				},
				{
					"inputs": [
						{
							"internalType": "address",
							"name": "_bAccount",
							"type": "address"
						},
						{
							"internalType": "uint256",
							"name": "_amount",
							"type": "uint256"
						}
					],
					"name": "transferTo",
					"outputs": [],
					"stateMutability": "nonpayable",
					"type": "function"
				},
				{
					"inputs": [
						{
							"internalType": "address",
							"name": "_bAccount",
							"type": "address"
						},
						{
							"internalType": "address payable",
							"name": "anotherBank",
							"type": "address"
						},
						{
							"internalType": "uint256",
							"name": "_amount",
							"type": "uint256"
						}
					],
					"name": "transferWire",
					"outputs": [],
					"stateMutability": "nonpayable",
					"type": "function"
				},
				{
					"inputs": [
						{
							"internalType": "uint256",
							"name": "_amount",
							"type": "uint256"
						}
					],
					"name": "withraw",
					"outputs": [],
					"stateMutability": "nonpayable",
					"type": "function"
				},
				{
					"stateMutability": "payable",
					"type": "receive"
				}
			],
			"devdoc": {
				"kind": "dev",
				"methods": {},
				"version": 1
			},
			"evm": {
				"assembly": "    /* \"contracts/230525/1.sol\":2454:4452  contract Bank{... */\n  mstore(0x40, 0x80)\n  callvalue\n  dup1\n  iszero\n  tag_1\n  jumpi\n  0x00\n  dup1\n  revert\ntag_1:\n  pop\n  dataSize(sub_0)\n  dup1\n  dataOffset(sub_0)\n  0x00\n  codecopy\n  0x00\n  return\nstop\n\nsub_0: assembly {\n        /* \"contracts/230525/1.sol\":2454:4452  contract Bank{... */\n      mstore(0x40, 0x80)\n      jumpi(tag_1, lt(calldatasize, 0x04))\n      shr(0xe0, calldataload(0x00))\n      dup1\n      0xb6b55f25\n      gt\n      tag_11\n      jumpi\n      dup1\n      0xb6b55f25\n      eq\n      tag_7\n      jumpi\n      dup1\n      0xe1fffcc4\n      eq\n      tag_8\n      jumpi\n      dup1\n      0xe3d670d7\n      eq\n      tag_9\n      jumpi\n      dup1\n      0xf03cc2b9\n      eq\n      tag_10\n      jumpi\n      jump(tag_2)\n    tag_11:\n      dup1\n      0x0ebeb29d\n      eq\n      tag_3\n      jumpi\n      dup1\n      0x2ccb1b30\n      eq\n      tag_4\n      jumpi\n      dup1\n      0x722713f7\n      eq\n      tag_5\n      jumpi\n      dup1\n      0x884edad9\n      eq\n      tag_6\n      jumpi\n      jump(tag_2)\n    tag_1:\n      jumpi(tag_2, calldatasize)\n      stop\n    tag_2:\n      0x00\n      dup1\n      revert\n        /* \"contracts/230525/1.sol\":4131:4449  function transferWire(address _bAccount, address payable anotherBank, uint _amount) public {... */\n    tag_3:\n      callvalue\n      dup1\n      iszero\n      tag_14\n      jumpi\n      0x00\n      dup1\n      revert\n    tag_14:\n      pop\n      tag_15\n      0x04\n      dup1\n      calldatasize\n      sub\n      dup2\n      add\n      swap1\n      tag_16\n      swap2\n      swap1\n      tag_17\n      jump\t// in\n    tag_16:\n      tag_18\n      jump\t// in\n    tag_15:\n      stop\n        /* \"contracts/230525/1.sol\":3892:4038  function transferTo(address _bAccount, uint _amount) public {... */\n    tag_4:\n      callvalue\n      dup1\n      iszero\n      tag_19\n      jumpi\n      0x00\n      dup1\n      revert\n    tag_19:\n      pop\n      tag_20\n      0x04\n      dup1\n      calldatasize\n      sub\n      dup2\n      add\n      swap1\n      tag_21\n      swap2\n      swap1\n      tag_22\n      jump\t// in\n    tag_21:\n      tag_23\n      jump\t// in\n    tag_20:\n      stop\n        /* \"contracts/230525/1.sol\":2570:2661  function balanceOf() public view returns (uint) {... */\n    tag_5:\n      callvalue\n      dup1\n      iszero\n      tag_24\n      jumpi\n      0x00\n      dup1\n      revert\n    tag_24:\n      pop\n      tag_25\n      tag_26\n      jump\t// in\n    tag_25:\n      mload(0x40)\n      tag_27\n      swap2\n      swap1\n      tag_28\n      jump\t// in\n    tag_27:\n      mload(0x40)\n      dup1\n      swap2\n      sub\n      swap1\n      return\n        /* \"contracts/230525/1.sol\":3682:3831  function Withdraw(address _account, uint _amount) public {... */\n    tag_6:\n      callvalue\n      dup1\n      iszero\n      tag_29\n      jumpi\n      0x00\n      dup1\n      revert\n    tag_29:\n      pop\n      tag_30\n      0x04\n      dup1\n      calldatasize\n      sub\n      dup2\n      add\n      swap1\n      tag_31\n      swap2\n      swap1\n      tag_22\n      jump\t// in\n    tag_31:\n      tag_32\n      jump\t// in\n    tag_30:\n      stop\n        /* \"contracts/230525/1.sol\":2855:2950  function deposit(uint _amount) public payable {... */\n    tag_7:\n      tag_33\n      0x04\n      dup1\n      calldatasize\n      sub\n      dup2\n      add\n      swap1\n      tag_34\n      swap2\n      swap1\n      tag_35\n      jump\t// in\n    tag_34:\n      tag_36\n      jump\t// in\n    tag_33:\n      stop\n        /* \"contracts/230525/1.sol\":3160:3321  function Deposit(address _account, uint _amount) public {... */\n    tag_8:\n      callvalue\n      dup1\n      iszero\n      tag_37\n      jumpi\n      0x00\n      dup1\n      revert\n    tag_37:\n      pop\n      tag_38\n      0x04\n      dup1\n      calldatasize\n      sub\n      dup2\n      add\n      swap1\n      tag_39\n      swap2\n      swap1\n      tag_22\n      jump\t// in\n    tag_39:\n      tag_40\n      jump\t// in\n    tag_38:\n      stop\n        /* \"contracts/230525/1.sol\":2473:2510  mapping(address=>uint) public balance */\n    tag_9:\n      callvalue\n      dup1\n      iszero\n      tag_41\n      jumpi\n      0x00\n      dup1\n      revert\n    tag_41:\n      pop\n      tag_42\n      0x04\n      dup1\n      calldatasize\n      sub\n      dup2\n      add\n      swap1\n      tag_43\n      swap2\n      swap1\n      tag_44\n      jump\t// in\n    tag_43:\n      tag_45\n      jump\t// in\n    tag_42:\n      mload(0x40)\n      tag_46\n      swap2\n      swap1\n      tag_28\n      jump\t// in\n    tag_46:\n      mload(0x40)\n      dup1\n      swap2\n      sub\n      swap1\n      return\n        /* \"contracts/230525/1.sol\":3382:3514  function withraw(uint _amount) public {... */\n    tag_10:\n      callvalue\n      dup1\n      iszero\n      tag_47\n      jumpi\n      0x00\n      dup1\n      revert\n    tag_47:\n      pop\n      tag_48\n      0x04\n      dup1\n      calldatasize\n      sub\n      dup2\n      add\n      swap1\n      tag_49\n      swap2\n      swap1\n      tag_35\n      jump\t// in\n    tag_49:\n      tag_50\n      jump\t// in\n    tag_48:\n      stop\n        /* \"contracts/230525/1.sol\":4131:4449  function transferWire(address _bAccount, address payable anotherBank, uint _amount) public {... */\n    tag_18:\n        /* \"contracts/230525/1.sol\":4232:4238  Bank B */\n      0x00\n        /* \"contracts/230525/1.sol\":4246:4257  anotherBank */\n      dup3\n        /* \"contracts/230525/1.sol\":4232:4258  Bank B = Bank(anotherBank) */\n      swap1\n      pop\n        /* \"contracts/230525/1.sol\":4291:4298  _amount */\n      dup2\n        /* \"contracts/230525/1.sol\":4268:4275  balance */\n      0x00\n        /* \"contracts/230525/1.sol\":4268:4287  balance[msg.sender] */\n      dup1\n        /* \"contracts/230525/1.sol\":4276:4286  msg.sender */\n      caller\n        /* \"contracts/230525/1.sol\":4268:4287  balance[msg.sender] */\n      0xffffffffffffffffffffffffffffffffffffffff\n      and\n      0xffffffffffffffffffffffffffffffffffffffff\n      and\n      dup2\n      mstore\n      0x20\n      add\n      swap1\n      dup2\n      mstore\n      0x20\n      add\n      0x00\n      keccak256\n      0x00\n        /* \"contracts/230525/1.sol\":4268:4298  balance[msg.sender] -= _amount */\n      dup3\n      dup3\n      sload\n      tag_52\n      swap2\n      swap1\n      tag_53\n      jump\t// in\n    tag_52:\n      swap3\n      pop\n      pop\n      dup2\n      swap1\n      sstore\n      pop\n        /* \"contracts/230525/1.sol\":4316:4317  B */\n      dup1\n        /* \"contracts/230525/1.sol\":4308:4327  payable(B).transfer */\n      0xffffffffffffffffffffffffffffffffffffffff\n      and\n        /* \"contracts/230525/1.sol\":4308:4336  payable(B).transfer(_amount) */\n      0x08fc\n        /* \"contracts/230525/1.sol\":4328:4335  _amount */\n      dup4\n        /* \"contracts/230525/1.sol\":4308:4336  payable(B).transfer(_amount) */\n      swap1\n      dup2\n      iszero\n      mul\n      swap1\n      mload(0x40)\n      0x00\n      mload(0x40)\n      dup1\n      dup4\n      sub\n      dup2\n      dup6\n      dup9\n      dup9\n      call\n      swap4\n      pop\n      pop\n      pop\n      pop\n      iszero\n      dup1\n      iszero\n      tag_55\n      jumpi\n      returndatasize\n      0x00\n      dup1\n      returndatacopy\n      revert(0x00, returndatasize)\n    tag_55:\n      pop\n        /* \"contracts/230525/1.sol\":4413:4414  B */\n      dup1\n        /* \"contracts/230525/1.sol\":4413:4422  B.Deposit */\n      0xffffffffffffffffffffffffffffffffffffffff\n      and\n      0xe1fffcc4\n        /* \"contracts/230525/1.sol\":4423:4432  _bAccount */\n      dup6\n        /* \"contracts/230525/1.sol\":4434:4441  _amount */\n      dup5\n        /* \"contracts/230525/1.sol\":4413:4442  B.Deposit(_bAccount, _amount) */\n      mload(0x40)\n      dup4\n      0xffffffff\n      and\n      0xe0\n      shl\n      dup2\n      mstore\n      0x04\n      add\n      tag_56\n      swap3\n      swap2\n      swap1\n      tag_57\n      jump\t// in\n    tag_56:\n      0x00\n      mload(0x40)\n      dup1\n      dup4\n      sub\n      dup2\n      0x00\n      dup8\n      dup1\n      extcodesize\n      iszero\n      dup1\n      iszero\n      tag_58\n      jumpi\n      0x00\n      dup1\n      revert\n    tag_58:\n      pop\n      gas\n      call\n      iszero\n      dup1\n      iszero\n      tag_60\n      jumpi\n      returndatasize\n      0x00\n      dup1\n      returndatacopy\n      revert(0x00, returndatasize)\n    tag_60:\n      pop\n      pop\n      pop\n      pop\n        /* \"contracts/230525/1.sol\":4222:4449  {... */\n      pop\n        /* \"contracts/230525/1.sol\":4131:4449  function transferWire(address _bAccount, address payable anotherBank, uint _amount) public {... */\n      pop\n      pop\n      pop\n      jump\t// out\n        /* \"contracts/230525/1.sol\":3892:4038  function transferTo(address _bAccount, uint _amount) public {... */\n    tag_23:\n        /* \"contracts/230525/1.sol\":3985:3992  _amount */\n      dup1\n        /* \"contracts/230525/1.sol\":3962:3969  balance */\n      0x00\n        /* \"contracts/230525/1.sol\":3962:3981  balance[msg.sender] */\n      dup1\n        /* \"contracts/230525/1.sol\":3970:3980  msg.sender */\n      caller\n        /* \"contracts/230525/1.sol\":3962:3981  balance[msg.sender] */\n      0xffffffffffffffffffffffffffffffffffffffff\n      and\n      0xffffffffffffffffffffffffffffffffffffffff\n      and\n      dup2\n      mstore\n      0x20\n      add\n      swap1\n      dup2\n      mstore\n      0x20\n      add\n      0x00\n      keccak256\n      0x00\n        /* \"contracts/230525/1.sol\":3962:3992  balance[msg.sender] -= _amount */\n      dup3\n      dup3\n      sload\n      tag_62\n      swap2\n      swap1\n      tag_53\n      jump\t// in\n    tag_62:\n      swap3\n      pop\n      pop\n      dup2\n      swap1\n      sstore\n      pop\n        /* \"contracts/230525/1.sol\":4024:4031  _amount */\n      dup1\n        /* \"contracts/230525/1.sol\":4002:4009  balance */\n      0x00\n        /* \"contracts/230525/1.sol\":4002:4020  balance[_bAccount] */\n      dup1\n        /* \"contracts/230525/1.sol\":4010:4019  _bAccount */\n      dup5\n        /* \"contracts/230525/1.sol\":4002:4020  balance[_bAccount] */\n      0xffffffffffffffffffffffffffffffffffffffff\n      and\n      0xffffffffffffffffffffffffffffffffffffffff\n      and\n      dup2\n      mstore\n      0x20\n      add\n      swap1\n      dup2\n      mstore\n      0x20\n      add\n      0x00\n      keccak256\n      0x00\n        /* \"contracts/230525/1.sol\":4002:4031  balance[_bAccount] += _amount */\n      dup3\n      dup3\n      sload\n      tag_63\n      swap2\n      swap1\n      tag_64\n      jump\t// in\n    tag_63:\n      swap3\n      pop\n      pop\n      dup2\n      swap1\n      sstore\n      pop\n        /* \"contracts/230525/1.sol\":3892:4038  function transferTo(address _bAccount, uint _amount) public {... */\n      pop\n      pop\n      jump\t// out\n        /* \"contracts/230525/1.sol\":2570:2661  function balanceOf() public view returns (uint) {... */\n    tag_26:\n        /* \"contracts/230525/1.sol\":2612:2616  uint */\n      0x00\n        /* \"contracts/230525/1.sol\":2635:2642  balance */\n      dup1\n        /* \"contracts/230525/1.sol\":2635:2654  balance[msg.sender] */\n      0x00\n        /* \"contracts/230525/1.sol\":2643:2653  msg.sender */\n      caller\n        /* \"contracts/230525/1.sol\":2635:2654  balance[msg.sender] */\n      0xffffffffffffffffffffffffffffffffffffffff\n      and\n      0xffffffffffffffffffffffffffffffffffffffff\n      and\n      dup2\n      mstore\n      0x20\n      add\n      swap1\n      dup2\n      mstore\n      0x20\n      add\n      0x00\n      keccak256\n      sload\n        /* \"contracts/230525/1.sol\":2628:2654  return balance[msg.sender] */\n      swap1\n      pop\n        /* \"contracts/230525/1.sol\":2570:2661  function balanceOf() public view returns (uint) {... */\n      swap1\n      jump\t// out\n        /* \"contracts/230525/1.sol\":3682:3831  function Withdraw(address _account, uint _amount) public {... */\n    tag_32:\n        /* \"contracts/230525/1.sol\":3778:3785  _amount */\n      dup1\n        /* \"contracts/230525/1.sol\":3757:3764  balance */\n      0x00\n        /* \"contracts/230525/1.sol\":3757:3774  balance[_account] */\n      dup1\n        /* \"contracts/230525/1.sol\":3765:3773  _account */\n      dup5\n        /* \"contracts/230525/1.sol\":3757:3774  balance[_account] */\n      0xffffffffffffffffffffffffffffffffffffffff\n      and\n      0xffffffffffffffffffffffffffffffffffffffff\n      and\n      dup2\n      mstore\n      0x20\n      add\n      swap1\n      dup2\n      mstore\n      0x20\n      add\n      0x00\n      keccak256\n      sload\n        /* \"contracts/230525/1.sol\":3757:3785  balance[_account] >= _amount */\n      lt\n      iszero\n        /* \"contracts/230525/1.sol\":3749:3786  require(balance[_account] >= _amount) */\n      tag_67\n      jumpi\n      0x00\n      dup1\n      revert\n    tag_67:\n        /* \"contracts/230525/1.sol\":3796:3824  _withdraw(_account, _amount) */\n      tag_68\n        /* \"contracts/230525/1.sol\":3806:3814  _account */\n      dup3\n        /* \"contracts/230525/1.sol\":3816:3823  _amount */\n      dup3\n        /* \"contracts/230525/1.sol\":3796:3805  _withdraw */\n      tag_69\n        /* \"contracts/230525/1.sol\":3796:3824  _withdraw(_account, _amount) */\n      jump\t// in\n    tag_68:\n        /* \"contracts/230525/1.sol\":3682:3831  function Withdraw(address _account, uint _amount) public {... */\n      pop\n      pop\n      jump\t// out\n        /* \"contracts/230525/1.sol\":2855:2950  function deposit(uint _amount) public payable {... */\n    tag_36:\n        /* \"contracts/230525/1.sol\":2934:2943  msg.value */\n      callvalue\n        /* \"contracts/230525/1.sol\":2911:2918  balance */\n      0x00\n        /* \"contracts/230525/1.sol\":2911:2930  balance[msg.sender] */\n      dup1\n        /* \"contracts/230525/1.sol\":2919:2929  msg.sender */\n      caller\n        /* \"contracts/230525/1.sol\":2911:2930  balance[msg.sender] */\n      0xffffffffffffffffffffffffffffffffffffffff\n      and\n      0xffffffffffffffffffffffffffffffffffffffff\n      and\n      dup2\n      mstore\n      0x20\n      add\n      swap1\n      dup2\n      mstore\n      0x20\n      add\n      0x00\n      keccak256\n      0x00\n        /* \"contracts/230525/1.sol\":2911:2943  balance[msg.sender] += msg.value */\n      dup3\n      dup3\n      sload\n      tag_71\n      swap2\n      swap1\n      tag_64\n      jump\t// in\n    tag_71:\n      swap3\n      pop\n      pop\n      dup2\n      swap1\n      sstore\n      pop\n        /* \"contracts/230525/1.sol\":2855:2950  function deposit(uint _amount) public payable {... */\n      pop\n      jump\t// out\n        /* \"contracts/230525/1.sol\":3160:3321  function Deposit(address _account, uint _amount) public {... */\n    tag_40:\n        /* \"contracts/230525/1.sol\":3245:3246  0 */\n      0x00\n        /* \"contracts/230525/1.sol\":3234:3241  _amount */\n      dup2\n        /* \"contracts/230525/1.sol\":3234:3246  _amount != 0 */\n      sub\n        /* \"contracts/230525/1.sol\":3226:3277  require(_amount != 0, \"Amount should not be zero.\") */\n      tag_73\n      jumpi\n      mload(0x40)\n      0x08c379a000000000000000000000000000000000000000000000000000000000\n      dup2\n      mstore\n      0x04\n      add\n      tag_74\n      swap1\n      tag_75\n      jump\t// in\n    tag_74:\n      mload(0x40)\n      dup1\n      swap2\n      sub\n      swap1\n      revert\n    tag_73:\n        /* \"contracts/230525/1.sol\":3287:3314  _deposit(_account, _amount) */\n      tag_76\n        /* \"contracts/230525/1.sol\":3296:3304  _account */\n      dup3\n        /* \"contracts/230525/1.sol\":3306:3313  _amount */\n      dup3\n        /* \"contracts/230525/1.sol\":3287:3295  _deposit */\n      tag_77\n        /* \"contracts/230525/1.sol\":3287:3314  _deposit(_account, _amount) */\n      jump\t// in\n    tag_76:\n        /* \"contracts/230525/1.sol\":3160:3321  function Deposit(address _account, uint _amount) public {... */\n      pop\n      pop\n      jump\t// out\n        /* \"contracts/230525/1.sol\":2473:2510  mapping(address=>uint) public balance */\n    tag_45:\n      mstore(0x20, 0x00)\n      dup1\n      0x00\n      mstore\n      keccak256(0x00, 0x40)\n      0x00\n      swap2\n      pop\n      swap1\n      pop\n      sload\n      dup2\n      jump\t// out\n        /* \"contracts/230525/1.sol\":3382:3514  function withraw(uint _amount) public {... */\n    tag_50:\n        /* \"contracts/230525/1.sol\":3453:3460  _amount */\n      dup1\n        /* \"contracts/230525/1.sol\":3430:3437  balance */\n      0x00\n        /* \"contracts/230525/1.sol\":3430:3449  balance[msg.sender] */\n      dup1\n        /* \"contracts/230525/1.sol\":3438:3448  msg.sender */\n      caller\n        /* \"contracts/230525/1.sol\":3430:3449  balance[msg.sender] */\n      0xffffffffffffffffffffffffffffffffffffffff\n      and\n      0xffffffffffffffffffffffffffffffffffffffff\n      and\n      dup2\n      mstore\n      0x20\n      add\n      swap1\n      dup2\n      mstore\n      0x20\n      add\n      0x00\n      keccak256\n      0x00\n        /* \"contracts/230525/1.sol\":3430:3460  balance[msg.sender] -= _amount */\n      dup3\n      dup3\n      sload\n      tag_79\n      swap2\n      swap1\n      tag_53\n      jump\t// in\n    tag_79:\n      swap3\n      pop\n      pop\n      dup2\n      swap1\n      sstore\n      pop\n        /* \"contracts/230525/1.sol\":3478:3488  msg.sender */\n      caller\n        /* \"contracts/230525/1.sol\":3470:3498  payable(msg.sender).transfer */\n      0xffffffffffffffffffffffffffffffffffffffff\n      and\n        /* \"contracts/230525/1.sol\":3470:3507  payable(msg.sender).transfer(_amount) */\n      0x08fc\n        /* \"contracts/230525/1.sol\":3499:3506  _amount */\n      dup3\n        /* \"contracts/230525/1.sol\":3470:3507  payable(msg.sender).transfer(_amount) */\n      swap1\n      dup2\n      iszero\n      mul\n      swap1\n      mload(0x40)\n      0x00\n      mload(0x40)\n      dup1\n      dup4\n      sub\n      dup2\n      dup6\n      dup9\n      dup9\n      call\n      swap4\n      pop\n      pop\n      pop\n      pop\n      iszero\n      dup1\n      iszero\n      tag_81\n      jumpi\n      returndatasize\n      0x00\n      dup1\n      returndatacopy\n      revert(0x00, returndatasize)\n    tag_81:\n      pop\n        /* \"contracts/230525/1.sol\":3382:3514  function withraw(uint _amount) public {... */\n      pop\n      jump\t// out\n        /* \"contracts/230525/1.sol\":3525:3676  function _withdraw(address _account, uint _amount) internal {... */\n    tag_69:\n        /* \"contracts/230525/1.sol\":3615:3622  _amount */\n      dup1\n        /* \"contracts/230525/1.sol\":3595:3602  balance */\n      0x00\n        /* \"contracts/230525/1.sol\":3595:3612  balance[_account] */\n      dup1\n        /* \"contracts/230525/1.sol\":3603:3611  _account */\n      dup5\n        /* \"contracts/230525/1.sol\":3595:3612  balance[_account] */\n      0xffffffffffffffffffffffffffffffffffffffff\n      and\n      0xffffffffffffffffffffffffffffffffffffffff\n      and\n      dup2\n      mstore\n      0x20\n      add\n      swap1\n      dup2\n      mstore\n      0x20\n      add\n      0x00\n      keccak256\n      0x00\n        /* \"contracts/230525/1.sol\":3595:3622  balance[_account] -=_amount */\n      dup3\n      dup3\n      sload\n      tag_83\n      swap2\n      swap1\n      tag_53\n      jump\t// in\n    tag_83:\n      swap3\n      pop\n      pop\n      dup2\n      swap1\n      sstore\n      pop\n        /* \"contracts/230525/1.sol\":3640:3650  msg.sender */\n      caller\n        /* \"contracts/230525/1.sol\":3632:3660  payable(msg.sender).transfer */\n      0xffffffffffffffffffffffffffffffffffffffff\n      and\n        /* \"contracts/230525/1.sol\":3632:3669  payable(msg.sender).transfer(_amount) */\n      0x08fc\n        /* \"contracts/230525/1.sol\":3661:3668  _amount */\n      dup3\n        /* \"contracts/230525/1.sol\":3632:3669  payable(msg.sender).transfer(_amount) */\n      swap1\n      dup2\n      iszero\n      mul\n      swap1\n      mload(0x40)\n      0x00\n      mload(0x40)\n      dup1\n      dup4\n      sub\n      dup2\n      dup6\n      dup9\n      dup9\n      call\n      swap4\n      pop\n      pop\n      pop\n      pop\n      iszero\n      dup1\n      iszero\n      tag_85\n      jumpi\n      returndatasize\n      0x00\n      dup1\n      returndatacopy\n      revert(0x00, returndatasize)\n    tag_85:\n      pop\n        /* \"contracts/230525/1.sol\":3525:3676  function _withdraw(address _account, uint _amount) internal {... */\n      pop\n      pop\n      jump\t// out\n        /* \"contracts/230525/1.sol\":3051:3154  function _deposit(address _account, uint _amount)internal {... */\n    tag_77:\n        /* \"contracts/230525/1.sol\":3140:3147  _amount */\n      dup1\n        /* \"contracts/230525/1.sol\":3119:3126  balance */\n      0x00\n        /* \"contracts/230525/1.sol\":3119:3136  balance[_account] */\n      dup1\n        /* \"contracts/230525/1.sol\":3127:3135  _account */\n      dup5\n        /* \"contracts/230525/1.sol\":3119:3136  balance[_account] */\n      0xffffffffffffffffffffffffffffffffffffffff\n      and\n      0xffffffffffffffffffffffffffffffffffffffff\n      and\n      dup2\n      mstore\n      0x20\n      add\n      swap1\n      dup2\n      mstore\n      0x20\n      add\n      0x00\n      keccak256\n      0x00\n        /* \"contracts/230525/1.sol\":3119:3147  balance[_account] += _amount */\n      dup3\n      dup3\n      sload\n      tag_87\n      swap2\n      swap1\n      tag_64\n      jump\t// in\n    tag_87:\n      swap3\n      pop\n      pop\n      dup2\n      swap1\n      sstore\n      pop\n        /* \"contracts/230525/1.sol\":3051:3154  function _deposit(address _account, uint _amount)internal {... */\n      pop\n      pop\n      jump\t// out\n        /* \"#utility.yul\":88:205   */\n    tag_89:\n        /* \"#utility.yul\":197:198   */\n      0x00\n        /* \"#utility.yul\":194:195   */\n      dup1\n        /* \"#utility.yul\":187:199   */\n      revert\n        /* \"#utility.yul\":334:460   */\n    tag_91:\n        /* \"#utility.yul\":371:378   */\n      0x00\n        /* \"#utility.yul\":411:453   */\n      0xffffffffffffffffffffffffffffffffffffffff\n        /* \"#utility.yul\":404:409   */\n      dup3\n        /* \"#utility.yul\":400:454   */\n      and\n        /* \"#utility.yul\":389:454   */\n      swap1\n      pop\n        /* \"#utility.yul\":334:460   */\n      swap2\n      swap1\n      pop\n      jump\t// out\n        /* \"#utility.yul\":466:562   */\n    tag_92:\n        /* \"#utility.yul\":503:510   */\n      0x00\n        /* \"#utility.yul\":532:556   */\n      tag_113\n        /* \"#utility.yul\":550:555   */\n      dup3\n        /* \"#utility.yul\":532:556   */\n      tag_91\n      jump\t// in\n    tag_113:\n        /* \"#utility.yul\":521:556   */\n      swap1\n      pop\n        /* \"#utility.yul\":466:562   */\n      swap2\n      swap1\n      pop\n      jump\t// out\n        /* \"#utility.yul\":568:690   */\n    tag_93:\n        /* \"#utility.yul\":641:665   */\n      tag_115\n        /* \"#utility.yul\":659:664   */\n      dup2\n        /* \"#utility.yul\":641:665   */\n      tag_92\n      jump\t// in\n    tag_115:\n        /* \"#utility.yul\":634:639   */\n      dup2\n        /* \"#utility.yul\":631:666   */\n      eq\n        /* \"#utility.yul\":621:684   */\n      tag_116\n      jumpi\n        /* \"#utility.yul\":680:681   */\n      0x00\n        /* \"#utility.yul\":677:678   */\n      dup1\n        /* \"#utility.yul\":670:682   */\n      revert\n        /* \"#utility.yul\":621:684   */\n    tag_116:\n        /* \"#utility.yul\":568:690   */\n      pop\n      jump\t// out\n        /* \"#utility.yul\":696:835   */\n    tag_94:\n        /* \"#utility.yul\":742:747   */\n      0x00\n        /* \"#utility.yul\":780:786   */\n      dup2\n        /* \"#utility.yul\":767:787   */\n      calldataload\n        /* \"#utility.yul\":758:787   */\n      swap1\n      pop\n        /* \"#utility.yul\":796:829   */\n      tag_118\n        /* \"#utility.yul\":823:828   */\n      dup2\n        /* \"#utility.yul\":796:829   */\n      tag_93\n      jump\t// in\n    tag_118:\n        /* \"#utility.yul\":696:835   */\n      swap3\n      swap2\n      pop\n      pop\n      jump\t// out\n        /* \"#utility.yul\":841:945   */\n    tag_95:\n        /* \"#utility.yul\":886:893   */\n      0x00\n        /* \"#utility.yul\":915:939   */\n      tag_120\n        /* \"#utility.yul\":933:938   */\n      dup3\n        /* \"#utility.yul\":915:939   */\n      tag_91\n      jump\t// in\n    tag_120:\n        /* \"#utility.yul\":904:939   */\n      swap1\n      pop\n        /* \"#utility.yul\":841:945   */\n      swap2\n      swap1\n      pop\n      jump\t// out\n        /* \"#utility.yul\":951:1089   */\n    tag_96:\n        /* \"#utility.yul\":1032:1064   */\n      tag_122\n        /* \"#utility.yul\":1058:1063   */\n      dup2\n        /* \"#utility.yul\":1032:1064   */\n      tag_95\n      jump\t// in\n    tag_122:\n        /* \"#utility.yul\":1025:1030   */\n      dup2\n        /* \"#utility.yul\":1022:1065   */\n      eq\n        /* \"#utility.yul\":1012:1083   */\n      tag_123\n      jumpi\n        /* \"#utility.yul\":1079:1080   */\n      0x00\n        /* \"#utility.yul\":1076:1077   */\n      dup1\n        /* \"#utility.yul\":1069:1081   */\n      revert\n        /* \"#utility.yul\":1012:1083   */\n    tag_123:\n        /* \"#utility.yul\":951:1089   */\n      pop\n      jump\t// out\n        /* \"#utility.yul\":1095:1250   */\n    tag_97:\n        /* \"#utility.yul\":1149:1154   */\n      0x00\n        /* \"#utility.yul\":1187:1193   */\n      dup2\n        /* \"#utility.yul\":1174:1194   */\n      calldataload\n        /* \"#utility.yul\":1165:1194   */\n      swap1\n      pop\n        /* \"#utility.yul\":1203:1244   */\n      tag_125\n        /* \"#utility.yul\":1238:1243   */\n      dup2\n        /* \"#utility.yul\":1203:1244   */\n      tag_96\n      jump\t// in\n    tag_125:\n        /* \"#utility.yul\":1095:1250   */\n      swap3\n      swap2\n      pop\n      pop\n      jump\t// out\n        /* \"#utility.yul\":1256:1333   */\n    tag_98:\n        /* \"#utility.yul\":1293:1300   */\n      0x00\n        /* \"#utility.yul\":1322:1327   */\n      dup2\n        /* \"#utility.yul\":1311:1327   */\n      swap1\n      pop\n        /* \"#utility.yul\":1256:1333   */\n      swap2\n      swap1\n      pop\n      jump\t// out\n        /* \"#utility.yul\":1339:1461   */\n    tag_99:\n        /* \"#utility.yul\":1412:1436   */\n      tag_128\n        /* \"#utility.yul\":1430:1435   */\n      dup2\n        /* \"#utility.yul\":1412:1436   */\n      tag_98\n      jump\t// in\n    tag_128:\n        /* \"#utility.yul\":1405:1410   */\n      dup2\n        /* \"#utility.yul\":1402:1437   */\n      eq\n        /* \"#utility.yul\":1392:1455   */\n      tag_129\n      jumpi\n        /* \"#utility.yul\":1451:1452   */\n      0x00\n        /* \"#utility.yul\":1448:1449   */\n      dup1\n        /* \"#utility.yul\":1441:1453   */\n      revert\n        /* \"#utility.yul\":1392:1455   */\n    tag_129:\n        /* \"#utility.yul\":1339:1461   */\n      pop\n      jump\t// out\n        /* \"#utility.yul\":1467:1606   */\n    tag_100:\n        /* \"#utility.yul\":1513:1518   */\n      0x00\n        /* \"#utility.yul\":1551:1557   */\n      dup2\n        /* \"#utility.yul\":1538:1558   */\n      calldataload\n        /* \"#utility.yul\":1529:1558   */\n      swap1\n      pop\n        /* \"#utility.yul\":1567:1600   */\n      tag_131\n        /* \"#utility.yul\":1594:1599   */\n      dup2\n        /* \"#utility.yul\":1567:1600   */\n      tag_99\n      jump\t// in\n    tag_131:\n        /* \"#utility.yul\":1467:1606   */\n      swap3\n      swap2\n      pop\n      pop\n      jump\t// out\n        /* \"#utility.yul\":1612:2247   */\n    tag_17:\n        /* \"#utility.yul\":1697:1703   */\n      0x00\n        /* \"#utility.yul\":1705:1711   */\n      dup1\n        /* \"#utility.yul\":1713:1719   */\n      0x00\n        /* \"#utility.yul\":1762:1764   */\n      0x60\n        /* \"#utility.yul\":1750:1759   */\n      dup5\n        /* \"#utility.yul\":1741:1748   */\n      dup7\n        /* \"#utility.yul\":1737:1760   */\n      sub\n        /* \"#utility.yul\":1733:1765   */\n      slt\n        /* \"#utility.yul\":1730:1849   */\n      iszero\n      tag_133\n      jumpi\n        /* \"#utility.yul\":1768:1847   */\n      tag_134\n      tag_89\n      jump\t// in\n    tag_134:\n        /* \"#utility.yul\":1730:1849   */\n    tag_133:\n        /* \"#utility.yul\":1888:1889   */\n      0x00\n        /* \"#utility.yul\":1913:1966   */\n      tag_135\n        /* \"#utility.yul\":1958:1965   */\n      dup7\n        /* \"#utility.yul\":1949:1955   */\n      dup3\n        /* \"#utility.yul\":1938:1947   */\n      dup8\n        /* \"#utility.yul\":1934:1956   */\n      add\n        /* \"#utility.yul\":1913:1966   */\n      tag_94\n      jump\t// in\n    tag_135:\n        /* \"#utility.yul\":1903:1966   */\n      swap4\n      pop\n        /* \"#utility.yul\":1859:1976   */\n      pop\n        /* \"#utility.yul\":2015:2017   */\n      0x20\n        /* \"#utility.yul\":2041:2102   */\n      tag_136\n        /* \"#utility.yul\":2094:2101   */\n      dup7\n        /* \"#utility.yul\":2085:2091   */\n      dup3\n        /* \"#utility.yul\":2074:2083   */\n      dup8\n        /* \"#utility.yul\":2070:2092   */\n      add\n        /* \"#utility.yul\":2041:2102   */\n      tag_97\n      jump\t// in\n    tag_136:\n        /* \"#utility.yul\":2031:2102   */\n      swap3\n      pop\n        /* \"#utility.yul\":1986:2112   */\n      pop\n        /* \"#utility.yul\":2151:2153   */\n      0x40\n        /* \"#utility.yul\":2177:2230   */\n      tag_137\n        /* \"#utility.yul\":2222:2229   */\n      dup7\n        /* \"#utility.yul\":2213:2219   */\n      dup3\n        /* \"#utility.yul\":2202:2211   */\n      dup8\n        /* \"#utility.yul\":2198:2220   */\n      add\n        /* \"#utility.yul\":2177:2230   */\n      tag_100\n      jump\t// in\n    tag_137:\n        /* \"#utility.yul\":2167:2230   */\n      swap2\n      pop\n        /* \"#utility.yul\":2122:2240   */\n      pop\n        /* \"#utility.yul\":1612:2247   */\n      swap3\n      pop\n      swap3\n      pop\n      swap3\n      jump\t// out\n        /* \"#utility.yul\":2253:2727   */\n    tag_22:\n        /* \"#utility.yul\":2321:2327   */\n      0x00\n        /* \"#utility.yul\":2329:2335   */\n      dup1\n        /* \"#utility.yul\":2378:2380   */\n      0x40\n        /* \"#utility.yul\":2366:2375   */\n      dup4\n        /* \"#utility.yul\":2357:2364   */\n      dup6\n        /* \"#utility.yul\":2353:2376   */\n      sub\n        /* \"#utility.yul\":2349:2381   */\n      slt\n        /* \"#utility.yul\":2346:2465   */\n      iszero\n      tag_139\n      jumpi\n        /* \"#utility.yul\":2384:2463   */\n      tag_140\n      tag_89\n      jump\t// in\n    tag_140:\n        /* \"#utility.yul\":2346:2465   */\n    tag_139:\n        /* \"#utility.yul\":2504:2505   */\n      0x00\n        /* \"#utility.yul\":2529:2582   */\n      tag_141\n        /* \"#utility.yul\":2574:2581   */\n      dup6\n        /* \"#utility.yul\":2565:2571   */\n      dup3\n        /* \"#utility.yul\":2554:2563   */\n      dup7\n        /* \"#utility.yul\":2550:2572   */\n      add\n        /* \"#utility.yul\":2529:2582   */\n      tag_94\n      jump\t// in\n    tag_141:\n        /* \"#utility.yul\":2519:2582   */\n      swap3\n      pop\n        /* \"#utility.yul\":2475:2592   */\n      pop\n        /* \"#utility.yul\":2631:2633   */\n      0x20\n        /* \"#utility.yul\":2657:2710   */\n      tag_142\n        /* \"#utility.yul\":2702:2709   */\n      dup6\n        /* \"#utility.yul\":2693:2699   */\n      dup3\n        /* \"#utility.yul\":2682:2691   */\n      dup7\n        /* \"#utility.yul\":2678:2700   */\n      add\n        /* \"#utility.yul\":2657:2710   */\n      tag_100\n      jump\t// in\n    tag_142:\n        /* \"#utility.yul\":2647:2710   */\n      swap2\n      pop\n        /* \"#utility.yul\":2602:2720   */\n      pop\n        /* \"#utility.yul\":2253:2727   */\n      swap3\n      pop\n      swap3\n      swap1\n      pop\n      jump\t// out\n        /* \"#utility.yul\":2733:2851   */\n    tag_101:\n        /* \"#utility.yul\":2820:2844   */\n      tag_144\n        /* \"#utility.yul\":2838:2843   */\n      dup2\n        /* \"#utility.yul\":2820:2844   */\n      tag_98\n      jump\t// in\n    tag_144:\n        /* \"#utility.yul\":2815:2818   */\n      dup3\n        /* \"#utility.yul\":2808:2845   */\n      mstore\n        /* \"#utility.yul\":2733:2851   */\n      pop\n      pop\n      jump\t// out\n        /* \"#utility.yul\":2857:3079   */\n    tag_28:\n        /* \"#utility.yul\":2950:2954   */\n      0x00\n        /* \"#utility.yul\":2988:2990   */\n      0x20\n        /* \"#utility.yul\":2977:2986   */\n      dup3\n        /* \"#utility.yul\":2973:2991   */\n      add\n        /* \"#utility.yul\":2965:2991   */\n      swap1\n      pop\n        /* \"#utility.yul\":3001:3072   */\n      tag_146\n        /* \"#utility.yul\":3069:3070   */\n      0x00\n        /* \"#utility.yul\":3058:3067   */\n      dup4\n        /* \"#utility.yul\":3054:3071   */\n      add\n        /* \"#utility.yul\":3045:3051   */\n      dup5\n        /* \"#utility.yul\":3001:3072   */\n      tag_101\n      jump\t// in\n    tag_146:\n        /* \"#utility.yul\":2857:3079   */\n      swap3\n      swap2\n      pop\n      pop\n      jump\t// out\n        /* \"#utility.yul\":3085:3414   */\n    tag_35:\n        /* \"#utility.yul\":3144:3150   */\n      0x00\n        /* \"#utility.yul\":3193:3195   */\n      0x20\n        /* \"#utility.yul\":3181:3190   */\n      dup3\n        /* \"#utility.yul\":3172:3179   */\n      dup5\n        /* \"#utility.yul\":3168:3191   */\n      sub\n        /* \"#utility.yul\":3164:3196   */\n      slt\n        /* \"#utility.yul\":3161:3280   */\n      iszero\n      tag_148\n      jumpi\n        /* \"#utility.yul\":3199:3278   */\n      tag_149\n      tag_89\n      jump\t// in\n    tag_149:\n        /* \"#utility.yul\":3161:3280   */\n    tag_148:\n        /* \"#utility.yul\":3319:3320   */\n      0x00\n        /* \"#utility.yul\":3344:3397   */\n      tag_150\n        /* \"#utility.yul\":3389:3396   */\n      dup5\n        /* \"#utility.yul\":3380:3386   */\n      dup3\n        /* \"#utility.yul\":3369:3378   */\n      dup6\n        /* \"#utility.yul\":3365:3387   */\n      add\n        /* \"#utility.yul\":3344:3397   */\n      tag_100\n      jump\t// in\n    tag_150:\n        /* \"#utility.yul\":3334:3397   */\n      swap2\n      pop\n        /* \"#utility.yul\":3290:3407   */\n      pop\n        /* \"#utility.yul\":3085:3414   */\n      swap3\n      swap2\n      pop\n      pop\n      jump\t// out\n        /* \"#utility.yul\":3420:3749   */\n    tag_44:\n        /* \"#utility.yul\":3479:3485   */\n      0x00\n        /* \"#utility.yul\":3528:3530   */\n      0x20\n        /* \"#utility.yul\":3516:3525   */\n      dup3\n        /* \"#utility.yul\":3507:3514   */\n      dup5\n        /* \"#utility.yul\":3503:3526   */\n      sub\n        /* \"#utility.yul\":3499:3531   */\n      slt\n        /* \"#utility.yul\":3496:3615   */\n      iszero\n      tag_152\n      jumpi\n        /* \"#utility.yul\":3534:3613   */\n      tag_153\n      tag_89\n      jump\t// in\n    tag_153:\n        /* \"#utility.yul\":3496:3615   */\n    tag_152:\n        /* \"#utility.yul\":3654:3655   */\n      0x00\n        /* \"#utility.yul\":3679:3732   */\n      tag_154\n        /* \"#utility.yul\":3724:3731   */\n      dup5\n        /* \"#utility.yul\":3715:3721   */\n      dup3\n        /* \"#utility.yul\":3704:3713   */\n      dup6\n        /* \"#utility.yul\":3700:3722   */\n      add\n        /* \"#utility.yul\":3679:3732   */\n      tag_94\n      jump\t// in\n    tag_154:\n        /* \"#utility.yul\":3669:3732   */\n      swap2\n      pop\n        /* \"#utility.yul\":3625:3742   */\n      pop\n        /* \"#utility.yul\":3420:3749   */\n      swap3\n      swap2\n      pop\n      pop\n      jump\t// out\n        /* \"#utility.yul\":3755:3935   */\n    tag_102:\n        /* \"#utility.yul\":3803:3880   */\n      0x4e487b7100000000000000000000000000000000000000000000000000000000\n        /* \"#utility.yul\":3800:3801   */\n      0x00\n        /* \"#utility.yul\":3793:3881   */\n      mstore\n        /* \"#utility.yul\":3900:3904   */\n      0x11\n        /* \"#utility.yul\":3897:3898   */\n      0x04\n        /* \"#utility.yul\":3890:3905   */\n      mstore\n        /* \"#utility.yul\":3924:3928   */\n      0x24\n        /* \"#utility.yul\":3921:3922   */\n      0x00\n        /* \"#utility.yul\":3914:3929   */\n      revert\n        /* \"#utility.yul\":3941:4135   */\n    tag_53:\n        /* \"#utility.yul\":3981:3985   */\n      0x00\n        /* \"#utility.yul\":4001:4021   */\n      tag_157\n        /* \"#utility.yul\":4019:4020   */\n      dup3\n        /* \"#utility.yul\":4001:4021   */\n      tag_98\n      jump\t// in\n    tag_157:\n        /* \"#utility.yul\":3996:4021   */\n      swap2\n      pop\n        /* \"#utility.yul\":4035:4055   */\n      tag_158\n        /* \"#utility.yul\":4053:4054   */\n      dup4\n        /* \"#utility.yul\":4035:4055   */\n      tag_98\n      jump\t// in\n    tag_158:\n        /* \"#utility.yul\":4030:4055   */\n      swap3\n      pop\n        /* \"#utility.yul\":4079:4080   */\n      dup3\n        /* \"#utility.yul\":4076:4077   */\n      dup3\n        /* \"#utility.yul\":4072:4081   */\n      sub\n        /* \"#utility.yul\":4064:4081   */\n      swap1\n      pop\n        /* \"#utility.yul\":4103:4104   */\n      dup2\n        /* \"#utility.yul\":4097:4101   */\n      dup2\n        /* \"#utility.yul\":4094:4105   */\n      gt\n        /* \"#utility.yul\":4091:4128   */\n      iszero\n      tag_159\n      jumpi\n        /* \"#utility.yul\":4108:4126   */\n      tag_160\n      tag_102\n      jump\t// in\n    tag_160:\n        /* \"#utility.yul\":4091:4128   */\n    tag_159:\n        /* \"#utility.yul\":3941:4135   */\n      swap3\n      swap2\n      pop\n      pop\n      jump\t// out\n        /* \"#utility.yul\":4141:4259   */\n    tag_103:\n        /* \"#utility.yul\":4228:4252   */\n      tag_162\n        /* \"#utility.yul\":4246:4251   */\n      dup2\n        /* \"#utility.yul\":4228:4252   */\n      tag_92\n      jump\t// in\n    tag_162:\n        /* \"#utility.yul\":4223:4226   */\n      dup3\n        /* \"#utility.yul\":4216:4253   */\n      mstore\n        /* \"#utility.yul\":4141:4259   */\n      pop\n      pop\n      jump\t// out\n        /* \"#utility.yul\":4265:4597   */\n    tag_57:\n        /* \"#utility.yul\":4386:4390   */\n      0x00\n        /* \"#utility.yul\":4424:4426   */\n      0x40\n        /* \"#utility.yul\":4413:4422   */\n      dup3\n        /* \"#utility.yul\":4409:4427   */\n      add\n        /* \"#utility.yul\":4401:4427   */\n      swap1\n      pop\n        /* \"#utility.yul\":4437:4508   */\n      tag_164\n        /* \"#utility.yul\":4505:4506   */\n      0x00\n        /* \"#utility.yul\":4494:4503   */\n      dup4\n        /* \"#utility.yul\":4490:4507   */\n      add\n        /* \"#utility.yul\":4481:4487   */\n      dup6\n        /* \"#utility.yul\":4437:4508   */\n      tag_103\n      jump\t// in\n    tag_164:\n        /* \"#utility.yul\":4518:4590   */\n      tag_165\n        /* \"#utility.yul\":4586:4588   */\n      0x20\n        /* \"#utility.yul\":4575:4584   */\n      dup4\n        /* \"#utility.yul\":4571:4589   */\n      add\n        /* \"#utility.yul\":4562:4568   */\n      dup5\n        /* \"#utility.yul\":4518:4590   */\n      tag_101\n      jump\t// in\n    tag_165:\n        /* \"#utility.yul\":4265:4597   */\n      swap4\n      swap3\n      pop\n      pop\n      pop\n      jump\t// out\n        /* \"#utility.yul\":4603:4794   */\n    tag_64:\n        /* \"#utility.yul\":4643:4646   */\n      0x00\n        /* \"#utility.yul\":4662:4682   */\n      tag_167\n        /* \"#utility.yul\":4680:4681   */\n      dup3\n        /* \"#utility.yul\":4662:4682   */\n      tag_98\n      jump\t// in\n    tag_167:\n        /* \"#utility.yul\":4657:4682   */\n      swap2\n      pop\n        /* \"#utility.yul\":4696:4716   */\n      tag_168\n        /* \"#utility.yul\":4714:4715   */\n      dup4\n        /* \"#utility.yul\":4696:4716   */\n      tag_98\n      jump\t// in\n    tag_168:\n        /* \"#utility.yul\":4691:4716   */\n      swap3\n      pop\n        /* \"#utility.yul\":4739:4740   */\n      dup3\n        /* \"#utility.yul\":4736:4737   */\n      dup3\n        /* \"#utility.yul\":4732:4741   */\n      add\n        /* \"#utility.yul\":4725:4741   */\n      swap1\n      pop\n        /* \"#utility.yul\":4760:4763   */\n      dup1\n        /* \"#utility.yul\":4757:4758   */\n      dup3\n        /* \"#utility.yul\":4754:4764   */\n      gt\n        /* \"#utility.yul\":4751:4787   */\n      iszero\n      tag_169\n      jumpi\n        /* \"#utility.yul\":4767:4785   */\n      tag_170\n      tag_102\n      jump\t// in\n    tag_170:\n        /* \"#utility.yul\":4751:4787   */\n    tag_169:\n        /* \"#utility.yul\":4603:4794   */\n      swap3\n      swap2\n      pop\n      pop\n      jump\t// out\n        /* \"#utility.yul\":4800:4969   */\n    tag_104:\n        /* \"#utility.yul\":4884:4895   */\n      0x00\n        /* \"#utility.yul\":4918:4924   */\n      dup3\n        /* \"#utility.yul\":4913:4916   */\n      dup3\n        /* \"#utility.yul\":4906:4925   */\n      mstore\n        /* \"#utility.yul\":4958:4962   */\n      0x20\n        /* \"#utility.yul\":4953:4956   */\n      dup3\n        /* \"#utility.yul\":4949:4963   */\n      add\n        /* \"#utility.yul\":4934:4963   */\n      swap1\n      pop\n        /* \"#utility.yul\":4800:4969   */\n      swap3\n      swap2\n      pop\n      pop\n      jump\t// out\n        /* \"#utility.yul\":4975:5151   */\n    tag_105:\n        /* \"#utility.yul\":5115:5143   */\n      0x416d6f756e742073686f756c64206e6f74206265207a65726f2e000000000000\n        /* \"#utility.yul\":5111:5112   */\n      0x00\n        /* \"#utility.yul\":5103:5109   */\n      dup3\n        /* \"#utility.yul\":5099:5113   */\n      add\n        /* \"#utility.yul\":5092:5144   */\n      mstore\n        /* \"#utility.yul\":4975:5151   */\n      pop\n      jump\t// out\n        /* \"#utility.yul\":5157:5523   */\n    tag_106:\n        /* \"#utility.yul\":5299:5302   */\n      0x00\n        /* \"#utility.yul\":5320:5387   */\n      tag_174\n        /* \"#utility.yul\":5384:5386   */\n      0x1a\n        /* \"#utility.yul\":5379:5382   */\n      dup4\n        /* \"#utility.yul\":5320:5387   */\n      tag_104\n      jump\t// in\n    tag_174:\n        /* \"#utility.yul\":5313:5387   */\n      swap2\n      pop\n        /* \"#utility.yul\":5396:5489   */\n      tag_175\n        /* \"#utility.yul\":5485:5488   */\n      dup3\n        /* \"#utility.yul\":5396:5489   */\n      tag_105\n      jump\t// in\n    tag_175:\n        /* \"#utility.yul\":5514:5516   */\n      0x20\n        /* \"#utility.yul\":5509:5512   */\n      dup3\n        /* \"#utility.yul\":5505:5517   */\n      add\n        /* \"#utility.yul\":5498:5517   */\n      swap1\n      pop\n        /* \"#utility.yul\":5157:5523   */\n      swap2\n      swap1\n      pop\n      jump\t// out\n        /* \"#utility.yul\":5529:5948   */\n    tag_75:\n        /* \"#utility.yul\":5695:5699   */\n      0x00\n        /* \"#utility.yul\":5733:5735   */\n      0x20\n        /* \"#utility.yul\":5722:5731   */\n      dup3\n        /* \"#utility.yul\":5718:5736   */\n      add\n        /* \"#utility.yul\":5710:5736   */\n      swap1\n      pop\n        /* \"#utility.yul\":5782:5791   */\n      dup2\n        /* \"#utility.yul\":5776:5780   */\n      dup2\n        /* \"#utility.yul\":5772:5792   */\n      sub\n        /* \"#utility.yul\":5768:5769   */\n      0x00\n        /* \"#utility.yul\":5757:5766   */\n      dup4\n        /* \"#utility.yul\":5753:5770   */\n      add\n        /* \"#utility.yul\":5746:5793   */\n      mstore\n        /* \"#utility.yul\":5810:5941   */\n      tag_177\n        /* \"#utility.yul\":5936:5940   */\n      dup2\n        /* \"#utility.yul\":5810:5941   */\n      tag_106\n      jump\t// in\n    tag_177:\n        /* \"#utility.yul\":5802:5941   */\n      swap1\n      pop\n        /* \"#utility.yul\":5529:5948   */\n      swap2\n      swap1\n      pop\n      jump\t// out\n\n    auxdata: 0xa2646970667358221220ad4390ef3b709040e31b683ce11bd13b35f7fff0d5d88a4cf21c1bf058de349264736f6c63430008120033\n}\n",
				"bytecode": {
					"linkReferences": {},
					"object": "608060405234801561001057600080fd5b50610a06806100206000396000f3fe60806040526004361061007f5760003560e01c8063b6b55f251161004e578063b6b55f2514610131578063e1fffcc41461014d578063e3d670d714610176578063f03cc2b9146101b357610086565b80630ebeb29d1461008b5780632ccb1b30146100b4578063722713f7146100dd578063884edad91461010857610086565b3661008657005b600080fd5b34801561009757600080fd5b506100b260048036038101906100ad919061076d565b6101dc565b005b3480156100c057600080fd5b506100db60048036038101906100d691906107c0565b6102f0565b005b3480156100e957600080fd5b506100f261039e565b6040516100ff919061080f565b60405180910390f35b34801561011457600080fd5b5061012f600480360381019061012a91906107c0565b6103e4565b005b61014b6004803603810190610146919061082a565b61043d565b005b34801561015957600080fd5b50610174600480360381019061016f91906107c0565b610495565b005b34801561018257600080fd5b5061019d60048036038101906101989190610857565b6104e6565b6040516101aa919061080f565b60405180910390f35b3480156101bf57600080fd5b506101da60048036038101906101d5919061082a565b6104fe565b005b6000829050816000803373ffffffffffffffffffffffffffffffffffffffff1673ffffffffffffffffffffffffffffffffffffffff168152602001908152602001600020600082825461022f91906108b3565b925050819055508073ffffffffffffffffffffffffffffffffffffffff166108fc839081150290604051600060405180830381858888f1935050505015801561027c573d6000803e3d6000fd5b508073ffffffffffffffffffffffffffffffffffffffff1663e1fffcc485846040518363ffffffff1660e01b81526004016102b89291906108f6565b600060405180830381600087803b1580156102d257600080fd5b505af11580156102e6573d6000803e3d6000fd5b5050505050505050565b806000803373ffffffffffffffffffffffffffffffffffffffff1673ffffffffffffffffffffffffffffffffffffffff168152602001908152602001600020600082825461033e91906108b3565b92505081905550806000808473ffffffffffffffffffffffffffffffffffffffff1673ffffffffffffffffffffffffffffffffffffffff1681526020019081526020016000206000828254610393919061091f565b925050819055505050565b60008060003373ffffffffffffffffffffffffffffffffffffffff1673ffffffffffffffffffffffffffffffffffffffff16815260200190815260200160002054905090565b806000808473ffffffffffffffffffffffffffffffffffffffff1673ffffffffffffffffffffffffffffffffffffffff16815260200190815260200160002054101561042f57600080fd5b610439828261059d565b5050565b346000803373ffffffffffffffffffffffffffffffffffffffff1673ffffffffffffffffffffffffffffffffffffffff168152602001908152602001600020600082825461048b919061091f565b9250508190555050565b600081036104d8576040517f08c379a00000000000000000000000000000000000000000000000000000000081526004016104cf906109b0565b60405180910390fd5b6104e2828261063d565b5050565b60006020528060005260406000206000915090505481565b806000803373ffffffffffffffffffffffffffffffffffffffff1673ffffffffffffffffffffffffffffffffffffffff168152602001908152602001600020600082825461054c91906108b3565b925050819055503373ffffffffffffffffffffffffffffffffffffffff166108fc829081150290604051600060405180830381858888f19350505050158015610599573d6000803e3d6000fd5b5050565b806000808473ffffffffffffffffffffffffffffffffffffffff1673ffffffffffffffffffffffffffffffffffffffff16815260200190815260200160002060008282546105eb91906108b3565b925050819055503373ffffffffffffffffffffffffffffffffffffffff166108fc829081150290604051600060405180830381858888f19350505050158015610638573d6000803e3d6000fd5b505050565b806000808473ffffffffffffffffffffffffffffffffffffffff1673ffffffffffffffffffffffffffffffffffffffff168152602001908152602001600020600082825461068b919061091f565b925050819055505050565b600080fd5b600073ffffffffffffffffffffffffffffffffffffffff82169050919050565b60006106c68261069b565b9050919050565b6106d6816106bb565b81146106e157600080fd5b50565b6000813590506106f3816106cd565b92915050565b60006107048261069b565b9050919050565b610714816106f9565b811461071f57600080fd5b50565b6000813590506107318161070b565b92915050565b6000819050919050565b61074a81610737565b811461075557600080fd5b50565b60008135905061076781610741565b92915050565b60008060006060848603121561078657610785610696565b5b6000610794868287016106e4565b93505060206107a586828701610722565b92505060406107b686828701610758565b9150509250925092565b600080604083850312156107d7576107d6610696565b5b60006107e5858286016106e4565b92505060206107f685828601610758565b9150509250929050565b61080981610737565b82525050565b60006020820190506108246000830184610800565b92915050565b6000602082840312156108405761083f610696565b5b600061084e84828501610758565b91505092915050565b60006020828403121561086d5761086c610696565b5b600061087b848285016106e4565b91505092915050565b7f4e487b7100000000000000000000000000000000000000000000000000000000600052601160045260246000fd5b60006108be82610737565b91506108c983610737565b92508282039050818111156108e1576108e0610884565b5b92915050565b6108f0816106bb565b82525050565b600060408201905061090b60008301856108e7565b6109186020830184610800565b9392505050565b600061092a82610737565b915061093583610737565b925082820190508082111561094d5761094c610884565b5b92915050565b600082825260208201905092915050565b7f416d6f756e742073686f756c64206e6f74206265207a65726f2e000000000000600082015250565b600061099a601a83610953565b91506109a582610964565b602082019050919050565b600060208201905081810360008301526109c98161098d565b905091905056fea2646970667358221220ad4390ef3b709040e31b683ce11bd13b35f7fff0d5d88a4cf21c1bf058de349264736f6c63430008120033",
					"opcodes": "PUSH1 0x80 PUSH1 0x40 MSTORE CALLVALUE DUP1 ISZERO PUSH2 0x10 JUMPI PUSH1 0x0 DUP1 REVERT JUMPDEST POP PUSH2 0xA06 DUP1 PUSH2 0x20 PUSH1 0x0 CODECOPY PUSH1 0x0 RETURN INVALID PUSH1 0x80 PUSH1 0x40 MSTORE PUSH1 0x4 CALLDATASIZE LT PUSH2 0x7F JUMPI PUSH1 0x0 CALLDATALOAD PUSH1 0xE0 SHR DUP1 PUSH4 0xB6B55F25 GT PUSH2 0x4E JUMPI DUP1 PUSH4 0xB6B55F25 EQ PUSH2 0x131 JUMPI DUP1 PUSH4 0xE1FFFCC4 EQ PUSH2 0x14D JUMPI DUP1 PUSH4 0xE3D670D7 EQ PUSH2 0x176 JUMPI DUP1 PUSH4 0xF03CC2B9 EQ PUSH2 0x1B3 JUMPI PUSH2 0x86 JUMP JUMPDEST DUP1 PUSH4 0xEBEB29D EQ PUSH2 0x8B JUMPI DUP1 PUSH4 0x2CCB1B30 EQ PUSH2 0xB4 JUMPI DUP1 PUSH4 0x722713F7 EQ PUSH2 0xDD JUMPI DUP1 PUSH4 0x884EDAD9 EQ PUSH2 0x108 JUMPI PUSH2 0x86 JUMP JUMPDEST CALLDATASIZE PUSH2 0x86 JUMPI STOP JUMPDEST PUSH1 0x0 DUP1 REVERT JUMPDEST CALLVALUE DUP1 ISZERO PUSH2 0x97 JUMPI PUSH1 0x0 DUP1 REVERT JUMPDEST POP PUSH2 0xB2 PUSH1 0x4 DUP1 CALLDATASIZE SUB DUP2 ADD SWAP1 PUSH2 0xAD SWAP2 SWAP1 PUSH2 0x76D JUMP JUMPDEST PUSH2 0x1DC JUMP JUMPDEST STOP JUMPDEST CALLVALUE DUP1 ISZERO PUSH2 0xC0 JUMPI PUSH1 0x0 DUP1 REVERT JUMPDEST POP PUSH2 0xDB PUSH1 0x4 DUP1 CALLDATASIZE SUB DUP2 ADD SWAP1 PUSH2 0xD6 SWAP2 SWAP1 PUSH2 0x7C0 JUMP JUMPDEST PUSH2 0x2F0 JUMP JUMPDEST STOP JUMPDEST CALLVALUE DUP1 ISZERO PUSH2 0xE9 JUMPI PUSH1 0x0 DUP1 REVERT JUMPDEST POP PUSH2 0xF2 PUSH2 0x39E JUMP JUMPDEST PUSH1 0x40 MLOAD PUSH2 0xFF SWAP2 SWAP1 PUSH2 0x80F JUMP JUMPDEST PUSH1 0x40 MLOAD DUP1 SWAP2 SUB SWAP1 RETURN JUMPDEST CALLVALUE DUP1 ISZERO PUSH2 0x114 JUMPI PUSH1 0x0 DUP1 REVERT JUMPDEST POP PUSH2 0x12F PUSH1 0x4 DUP1 CALLDATASIZE SUB DUP2 ADD SWAP1 PUSH2 0x12A SWAP2 SWAP1 PUSH2 0x7C0 JUMP JUMPDEST PUSH2 0x3E4 JUMP JUMPDEST STOP JUMPDEST PUSH2 0x14B PUSH1 0x4 DUP1 CALLDATASIZE SUB DUP2 ADD SWAP1 PUSH2 0x146 SWAP2 SWAP1 PUSH2 0x82A JUMP JUMPDEST PUSH2 0x43D JUMP JUMPDEST STOP JUMPDEST CALLVALUE DUP1 ISZERO PUSH2 0x159 JUMPI PUSH1 0x0 DUP1 REVERT JUMPDEST POP PUSH2 0x174 PUSH1 0x4 DUP1 CALLDATASIZE SUB DUP2 ADD SWAP1 PUSH2 0x16F SWAP2 SWAP1 PUSH2 0x7C0 JUMP JUMPDEST PUSH2 0x495 JUMP JUMPDEST STOP JUMPDEST CALLVALUE DUP1 ISZERO PUSH2 0x182 JUMPI PUSH1 0x0 DUP1 REVERT JUMPDEST POP PUSH2 0x19D PUSH1 0x4 DUP1 CALLDATASIZE SUB DUP2 ADD SWAP1 PUSH2 0x198 SWAP2 SWAP1 PUSH2 0x857 JUMP JUMPDEST PUSH2 0x4E6 JUMP JUMPDEST PUSH1 0x40 MLOAD PUSH2 0x1AA SWAP2 SWAP1 PUSH2 0x80F JUMP JUMPDEST PUSH1 0x40 MLOAD DUP1 SWAP2 SUB SWAP1 RETURN JUMPDEST CALLVALUE DUP1 ISZERO PUSH2 0x1BF JUMPI PUSH1 0x0 DUP1 REVERT JUMPDEST POP PUSH2 0x1DA PUSH1 0x4 DUP1 CALLDATASIZE SUB DUP2 ADD SWAP1 PUSH2 0x1D5 SWAP2 SWAP1 PUSH2 0x82A JUMP JUMPDEST PUSH2 0x4FE JUMP JUMPDEST STOP JUMPDEST PUSH1 0x0 DUP3 SWAP1 POP DUP2 PUSH1 0x0 DUP1 CALLER PUSH20 0xFFFFFFFFFFFFFFFFFFFFFFFFFFFFFFFFFFFFFFFF AND PUSH20 0xFFFFFFFFFFFFFFFFFFFFFFFFFFFFFFFFFFFFFFFF AND DUP2 MSTORE PUSH1 0x20 ADD SWAP1 DUP2 MSTORE PUSH1 0x20 ADD PUSH1 0x0 KECCAK256 PUSH1 0x0 DUP3 DUP3 SLOAD PUSH2 0x22F SWAP2 SWAP1 PUSH2 0x8B3 JUMP JUMPDEST SWAP3 POP POP DUP2 SWAP1 SSTORE POP DUP1 PUSH20 0xFFFFFFFFFFFFFFFFFFFFFFFFFFFFFFFFFFFFFFFF AND PUSH2 0x8FC DUP4 SWAP1 DUP2 ISZERO MUL SWAP1 PUSH1 0x40 MLOAD PUSH1 0x0 PUSH1 0x40 MLOAD DUP1 DUP4 SUB DUP2 DUP6 DUP9 DUP9 CALL SWAP4 POP POP POP POP ISZERO DUP1 ISZERO PUSH2 0x27C JUMPI RETURNDATASIZE PUSH1 0x0 DUP1 RETURNDATACOPY RETURNDATASIZE PUSH1 0x0 REVERT JUMPDEST POP DUP1 PUSH20 0xFFFFFFFFFFFFFFFFFFFFFFFFFFFFFFFFFFFFFFFF AND PUSH4 0xE1FFFCC4 DUP6 DUP5 PUSH1 0x40 MLOAD DUP4 PUSH4 0xFFFFFFFF AND PUSH1 0xE0 SHL DUP2 MSTORE PUSH1 0x4 ADD PUSH2 0x2B8 SWAP3 SWAP2 SWAP1 PUSH2 0x8F6 JUMP JUMPDEST PUSH1 0x0 PUSH1 0x40 MLOAD DUP1 DUP4 SUB DUP2 PUSH1 0x0 DUP8 DUP1 EXTCODESIZE ISZERO DUP1 ISZERO PUSH2 0x2D2 JUMPI PUSH1 0x0 DUP1 REVERT JUMPDEST POP GAS CALL ISZERO DUP1 ISZERO PUSH2 0x2E6 JUMPI RETURNDATASIZE PUSH1 0x0 DUP1 RETURNDATACOPY RETURNDATASIZE PUSH1 0x0 REVERT JUMPDEST POP POP POP POP POP POP POP POP JUMP JUMPDEST DUP1 PUSH1 0x0 DUP1 CALLER PUSH20 0xFFFFFFFFFFFFFFFFFFFFFFFFFFFFFFFFFFFFFFFF AND PUSH20 0xFFFFFFFFFFFFFFFFFFFFFFFFFFFFFFFFFFFFFFFF AND DUP2 MSTORE PUSH1 0x20 ADD SWAP1 DUP2 MSTORE PUSH1 0x20 ADD PUSH1 0x0 KECCAK256 PUSH1 0x0 DUP3 DUP3 SLOAD PUSH2 0x33E SWAP2 SWAP1 PUSH2 0x8B3 JUMP JUMPDEST SWAP3 POP POP DUP2 SWAP1 SSTORE POP DUP1 PUSH1 0x0 DUP1 DUP5 PUSH20 0xFFFFFFFFFFFFFFFFFFFFFFFFFFFFFFFFFFFFFFFF AND PUSH20 0xFFFFFFFFFFFFFFFFFFFFFFFFFFFFFFFFFFFFFFFF AND DUP2 MSTORE PUSH1 0x20 ADD SWAP1 DUP2 MSTORE PUSH1 0x20 ADD PUSH1 0x0 KECCAK256 PUSH1 0x0 DUP3 DUP3 SLOAD PUSH2 0x393 SWAP2 SWAP1 PUSH2 0x91F JUMP JUMPDEST SWAP3 POP POP DUP2 SWAP1 SSTORE POP POP POP JUMP JUMPDEST PUSH1 0x0 DUP1 PUSH1 0x0 CALLER PUSH20 0xFFFFFFFFFFFFFFFFFFFFFFFFFFFFFFFFFFFFFFFF AND PUSH20 0xFFFFFFFFFFFFFFFFFFFFFFFFFFFFFFFFFFFFFFFF AND DUP2 MSTORE PUSH1 0x20 ADD SWAP1 DUP2 MSTORE PUSH1 0x20 ADD PUSH1 0x0 KECCAK256 SLOAD SWAP1 POP SWAP1 JUMP JUMPDEST DUP1 PUSH1 0x0 DUP1 DUP5 PUSH20 0xFFFFFFFFFFFFFFFFFFFFFFFFFFFFFFFFFFFFFFFF AND PUSH20 0xFFFFFFFFFFFFFFFFFFFFFFFFFFFFFFFFFFFFFFFF AND DUP2 MSTORE PUSH1 0x20 ADD SWAP1 DUP2 MSTORE PUSH1 0x20 ADD PUSH1 0x0 KECCAK256 SLOAD LT ISZERO PUSH2 0x42F JUMPI PUSH1 0x0 DUP1 REVERT JUMPDEST PUSH2 0x439 DUP3 DUP3 PUSH2 0x59D JUMP JUMPDEST POP POP JUMP JUMPDEST CALLVALUE PUSH1 0x0 DUP1 CALLER PUSH20 0xFFFFFFFFFFFFFFFFFFFFFFFFFFFFFFFFFFFFFFFF AND PUSH20 0xFFFFFFFFFFFFFFFFFFFFFFFFFFFFFFFFFFFFFFFF AND DUP2 MSTORE PUSH1 0x20 ADD SWAP1 DUP2 MSTORE PUSH1 0x20 ADD PUSH1 0x0 KECCAK256 PUSH1 0x0 DUP3 DUP3 SLOAD PUSH2 0x48B SWAP2 SWAP1 PUSH2 0x91F JUMP JUMPDEST SWAP3 POP POP DUP2 SWAP1 SSTORE POP POP JUMP JUMPDEST PUSH1 0x0 DUP2 SUB PUSH2 0x4D8 JUMPI PUSH1 0x40 MLOAD PUSH32 0x8C379A000000000000000000000000000000000000000000000000000000000 DUP2 MSTORE PUSH1 0x4 ADD PUSH2 0x4CF SWAP1 PUSH2 0x9B0 JUMP JUMPDEST PUSH1 0x40 MLOAD DUP1 SWAP2 SUB SWAP1 REVERT JUMPDEST PUSH2 0x4E2 DUP3 DUP3 PUSH2 0x63D JUMP JUMPDEST POP POP JUMP JUMPDEST PUSH1 0x0 PUSH1 0x20 MSTORE DUP1 PUSH1 0x0 MSTORE PUSH1 0x40 PUSH1 0x0 KECCAK256 PUSH1 0x0 SWAP2 POP SWAP1 POP SLOAD DUP2 JUMP JUMPDEST DUP1 PUSH1 0x0 DUP1 CALLER PUSH20 0xFFFFFFFFFFFFFFFFFFFFFFFFFFFFFFFFFFFFFFFF AND PUSH20 0xFFFFFFFFFFFFFFFFFFFFFFFFFFFFFFFFFFFFFFFF AND DUP2 MSTORE PUSH1 0x20 ADD SWAP1 DUP2 MSTORE PUSH1 0x20 ADD PUSH1 0x0 KECCAK256 PUSH1 0x0 DUP3 DUP3 SLOAD PUSH2 0x54C SWAP2 SWAP1 PUSH2 0x8B3 JUMP JUMPDEST SWAP3 POP POP DUP2 SWAP1 SSTORE POP CALLER PUSH20 0xFFFFFFFFFFFFFFFFFFFFFFFFFFFFFFFFFFFFFFFF AND PUSH2 0x8FC DUP3 SWAP1 DUP2 ISZERO MUL SWAP1 PUSH1 0x40 MLOAD PUSH1 0x0 PUSH1 0x40 MLOAD DUP1 DUP4 SUB DUP2 DUP6 DUP9 DUP9 CALL SWAP4 POP POP POP POP ISZERO DUP1 ISZERO PUSH2 0x599 JUMPI RETURNDATASIZE PUSH1 0x0 DUP1 RETURNDATACOPY RETURNDATASIZE PUSH1 0x0 REVERT JUMPDEST POP POP JUMP JUMPDEST DUP1 PUSH1 0x0 DUP1 DUP5 PUSH20 0xFFFFFFFFFFFFFFFFFFFFFFFFFFFFFFFFFFFFFFFF AND PUSH20 0xFFFFFFFFFFFFFFFFFFFFFFFFFFFFFFFFFFFFFFFF AND DUP2 MSTORE PUSH1 0x20 ADD SWAP1 DUP2 MSTORE PUSH1 0x20 ADD PUSH1 0x0 KECCAK256 PUSH1 0x0 DUP3 DUP3 SLOAD PUSH2 0x5EB SWAP2 SWAP1 PUSH2 0x8B3 JUMP JUMPDEST SWAP3 POP POP DUP2 SWAP1 SSTORE POP CALLER PUSH20 0xFFFFFFFFFFFFFFFFFFFFFFFFFFFFFFFFFFFFFFFF AND PUSH2 0x8FC DUP3 SWAP1 DUP2 ISZERO MUL SWAP1 PUSH1 0x40 MLOAD PUSH1 0x0 PUSH1 0x40 MLOAD DUP1 DUP4 SUB DUP2 DUP6 DUP9 DUP9 CALL SWAP4 POP POP POP POP ISZERO DUP1 ISZERO PUSH2 0x638 JUMPI RETURNDATASIZE PUSH1 0x0 DUP1 RETURNDATACOPY RETURNDATASIZE PUSH1 0x0 REVERT JUMPDEST POP POP POP JUMP JUMPDEST DUP1 PUSH1 0x0 DUP1 DUP5 PUSH20 0xFFFFFFFFFFFFFFFFFFFFFFFFFFFFFFFFFFFFFFFF AND PUSH20 0xFFFFFFFFFFFFFFFFFFFFFFFFFFFFFFFFFFFFFFFF AND DUP2 MSTORE PUSH1 0x20 ADD SWAP1 DUP2 MSTORE PUSH1 0x20 ADD PUSH1 0x0 KECCAK256 PUSH1 0x0 DUP3 DUP3 SLOAD PUSH2 0x68B SWAP2 SWAP1 PUSH2 0x91F JUMP JUMPDEST SWAP3 POP POP DUP2 SWAP1 SSTORE POP POP POP JUMP JUMPDEST PUSH1 0x0 DUP1 REVERT JUMPDEST PUSH1 0x0 PUSH20 0xFFFFFFFFFFFFFFFFFFFFFFFFFFFFFFFFFFFFFFFF DUP3 AND SWAP1 POP SWAP2 SWAP1 POP JUMP JUMPDEST PUSH1 0x0 PUSH2 0x6C6 DUP3 PUSH2 0x69B JUMP JUMPDEST SWAP1 POP SWAP2 SWAP1 POP JUMP JUMPDEST PUSH2 0x6D6 DUP2 PUSH2 0x6BB JUMP JUMPDEST DUP2 EQ PUSH2 0x6E1 JUMPI PUSH1 0x0 DUP1 REVERT JUMPDEST POP JUMP JUMPDEST PUSH1 0x0 DUP2 CALLDATALOAD SWAP1 POP PUSH2 0x6F3 DUP2 PUSH2 0x6CD JUMP JUMPDEST SWAP3 SWAP2 POP POP JUMP JUMPDEST PUSH1 0x0 PUSH2 0x704 DUP3 PUSH2 0x69B JUMP JUMPDEST SWAP1 POP SWAP2 SWAP1 POP JUMP JUMPDEST PUSH2 0x714 DUP2 PUSH2 0x6F9 JUMP JUMPDEST DUP2 EQ PUSH2 0x71F JUMPI PUSH1 0x0 DUP1 REVERT JUMPDEST POP JUMP JUMPDEST PUSH1 0x0 DUP2 CALLDATALOAD SWAP1 POP PUSH2 0x731 DUP2 PUSH2 0x70B JUMP JUMPDEST SWAP3 SWAP2 POP POP JUMP JUMPDEST PUSH1 0x0 DUP2 SWAP1 POP SWAP2 SWAP1 POP JUMP JUMPDEST PUSH2 0x74A DUP2 PUSH2 0x737 JUMP JUMPDEST DUP2 EQ PUSH2 0x755 JUMPI PUSH1 0x0 DUP1 REVERT JUMPDEST POP JUMP JUMPDEST PUSH1 0x0 DUP2 CALLDATALOAD SWAP1 POP PUSH2 0x767 DUP2 PUSH2 0x741 JUMP JUMPDEST SWAP3 SWAP2 POP POP JUMP JUMPDEST PUSH1 0x0 DUP1 PUSH1 0x0 PUSH1 0x60 DUP5 DUP7 SUB SLT ISZERO PUSH2 0x786 JUMPI PUSH2 0x785 PUSH2 0x696 JUMP JUMPDEST JUMPDEST PUSH1 0x0 PUSH2 0x794 DUP7 DUP3 DUP8 ADD PUSH2 0x6E4 JUMP JUMPDEST SWAP4 POP POP PUSH1 0x20 PUSH2 0x7A5 DUP7 DUP3 DUP8 ADD PUSH2 0x722 JUMP JUMPDEST SWAP3 POP POP PUSH1 0x40 PUSH2 0x7B6 DUP7 DUP3 DUP8 ADD PUSH2 0x758 JUMP JUMPDEST SWAP2 POP POP SWAP3 POP SWAP3 POP SWAP3 JUMP JUMPDEST PUSH1 0x0 DUP1 PUSH1 0x40 DUP4 DUP6 SUB SLT ISZERO PUSH2 0x7D7 JUMPI PUSH2 0x7D6 PUSH2 0x696 JUMP JUMPDEST JUMPDEST PUSH1 0x0 PUSH2 0x7E5 DUP6 DUP3 DUP7 ADD PUSH2 0x6E4 JUMP JUMPDEST SWAP3 POP POP PUSH1 0x20 PUSH2 0x7F6 DUP6 DUP3 DUP7 ADD PUSH2 0x758 JUMP JUMPDEST SWAP2 POP POP SWAP3 POP SWAP3 SWAP1 POP JUMP JUMPDEST PUSH2 0x809 DUP2 PUSH2 0x737 JUMP JUMPDEST DUP3 MSTORE POP POP JUMP JUMPDEST PUSH1 0x0 PUSH1 0x20 DUP3 ADD SWAP1 POP PUSH2 0x824 PUSH1 0x0 DUP4 ADD DUP5 PUSH2 0x800 JUMP JUMPDEST SWAP3 SWAP2 POP POP JUMP JUMPDEST PUSH1 0x0 PUSH1 0x20 DUP3 DUP5 SUB SLT ISZERO PUSH2 0x840 JUMPI PUSH2 0x83F PUSH2 0x696 JUMP JUMPDEST JUMPDEST PUSH1 0x0 PUSH2 0x84E DUP5 DUP3 DUP6 ADD PUSH2 0x758 JUMP JUMPDEST SWAP2 POP POP SWAP3 SWAP2 POP POP JUMP JUMPDEST PUSH1 0x0 PUSH1 0x20 DUP3 DUP5 SUB SLT ISZERO PUSH2 0x86D JUMPI PUSH2 0x86C PUSH2 0x696 JUMP JUMPDEST JUMPDEST PUSH1 0x0 PUSH2 0x87B DUP5 DUP3 DUP6 ADD PUSH2 0x6E4 JUMP JUMPDEST SWAP2 POP POP SWAP3 SWAP2 POP POP JUMP JUMPDEST PUSH32 0x4E487B7100000000000000000000000000000000000000000000000000000000 PUSH1 0x0 MSTORE PUSH1 0x11 PUSH1 0x4 MSTORE PUSH1 0x24 PUSH1 0x0 REVERT JUMPDEST PUSH1 0x0 PUSH2 0x8BE DUP3 PUSH2 0x737 JUMP JUMPDEST SWAP2 POP PUSH2 0x8C9 DUP4 PUSH2 0x737 JUMP JUMPDEST SWAP3 POP DUP3 DUP3 SUB SWAP1 POP DUP2 DUP2 GT ISZERO PUSH2 0x8E1 JUMPI PUSH2 0x8E0 PUSH2 0x884 JUMP JUMPDEST JUMPDEST SWAP3 SWAP2 POP POP JUMP JUMPDEST PUSH2 0x8F0 DUP2 PUSH2 0x6BB JUMP JUMPDEST DUP3 MSTORE POP POP JUMP JUMPDEST PUSH1 0x0 PUSH1 0x40 DUP3 ADD SWAP1 POP PUSH2 0x90B PUSH1 0x0 DUP4 ADD DUP6 PUSH2 0x8E7 JUMP JUMPDEST PUSH2 0x918 PUSH1 0x20 DUP4 ADD DUP5 PUSH2 0x800 JUMP JUMPDEST SWAP4 SWAP3 POP POP POP JUMP JUMPDEST PUSH1 0x0 PUSH2 0x92A DUP3 PUSH2 0x737 JUMP JUMPDEST SWAP2 POP PUSH2 0x935 DUP4 PUSH2 0x737 JUMP JUMPDEST SWAP3 POP DUP3 DUP3 ADD SWAP1 POP DUP1 DUP3 GT ISZERO PUSH2 0x94D JUMPI PUSH2 0x94C PUSH2 0x884 JUMP JUMPDEST JUMPDEST SWAP3 SWAP2 POP POP JUMP JUMPDEST PUSH1 0x0 DUP3 DUP3 MSTORE PUSH1 0x20 DUP3 ADD SWAP1 POP SWAP3 SWAP2 POP POP JUMP JUMPDEST PUSH32 0x416D6F756E742073686F756C64206E6F74206265207A65726F2E000000000000 PUSH1 0x0 DUP3 ADD MSTORE POP JUMP JUMPDEST PUSH1 0x0 PUSH2 0x99A PUSH1 0x1A DUP4 PUSH2 0x953 JUMP JUMPDEST SWAP2 POP PUSH2 0x9A5 DUP3 PUSH2 0x964 JUMP JUMPDEST PUSH1 0x20 DUP3 ADD SWAP1 POP SWAP2 SWAP1 POP JUMP JUMPDEST PUSH1 0x0 PUSH1 0x20 DUP3 ADD SWAP1 POP DUP2 DUP2 SUB PUSH1 0x0 DUP4 ADD MSTORE PUSH2 0x9C9 DUP2 PUSH2 0x98D JUMP JUMPDEST SWAP1 POP SWAP2 SWAP1 POP JUMP INVALID LOG2 PUSH5 0x6970667358 0x22 SLT KECCAK256 0xAD NUMBER SWAP1 0xEF EXTCODESIZE PUSH17 0x9040E31B683CE11BD13B35F7FFF0D5D88A 0x4C CALLCODE SHR SHL CREATE PC 0xDE CALLVALUE SWAP3 PUSH5 0x736F6C6343 STOP ADDMOD SLT STOP CALLER "
				},
				"gasEstimates": {
					"creation": {
						"codeDepositCost": "513200",
						"executionCost": "549",
						"totalCost": "513749"
					},
					"external": {
						"Deposit(address,uint256)": "infinite",
						"Withdraw(address,uint256)": "infinite",
						"balance(address)": "2858",
						"balanceOf()": "2571",
						"deposit(uint256)": "infinite",
						"transferTo(address,uint256)": "infinite",
						"transferWire(address,address,uint256)": "infinite",
						"withraw(uint256)": "infinite"
					},
					"internal": {
						"_deposit(address,uint256)": "infinite",
						"_withdraw(address,uint256)": "infinite"
					}
				},
				"methodIdentifiers": {
					"Deposit(address,uint256)": "e1fffcc4",
					"Withdraw(address,uint256)": "884edad9",
					"balance(address)": "e3d670d7",
					"balanceOf()": "722713f7",
					"deposit(uint256)": "b6b55f25",
					"transferTo(address,uint256)": "2ccb1b30",
					"transferWire(address,address,uint256)": "0ebeb29d",
					"withraw(uint256)": "f03cc2b9"
				}
			},
			"storageLayout": {
				"storage": [
					{
						"astId": 242,
						"contract": "contracts/230525/1.sol:Bank",
						"label": "balance",
						"offset": 0,
						"slot": "0",
						"type": "t_mapping(t_address,t_uint256)"
					}
				],
				"types": {
					"t_address": {
						"encoding": "inplace",
						"label": "address",
						"numberOfBytes": "20"
					},
					"t_mapping(t_address,t_uint256)": {
						"encoding": "mapping",
						"key": "t_address",
						"label": "mapping(address => uint256)",
						"numberOfBytes": "32",
						"value": "t_uint256"
					},
					"t_uint256": {
						"encoding": "inplace",
						"label": "uint256",
						"numberOfBytes": "32"
					}
				}
			},
			"userdoc": {
				"kind": "user",
				"methods": {},
				"version": 1
			}
		}
	}
}