{
	"contracts/230525/1.sol": {
		"Note": {
			"abi": [
				{
					"inputs": [
						{
							"internalType": "address payable",
							"name": "_bank",
							"type": "address"
						},
						{
							"internalType": "address",
							"name": "_to",
							"type": "address"
						},
						{
							"internalType": "uint256",
							"name": "_amount",
							"type": "uint256"
						}
					],
					"name": "_depositToBank",
					"outputs": [],
					"stateMutability": "nonpayable",
					"type": "function"
				},
				{
					"inputs": [
						{
							"internalType": "uint256",
							"name": "_amount",
							"type": "uint256"
						}
					],
					"name": "depositToApp",
					"outputs": [],
					"stateMutability": "payable",
					"type": "function"
				},
				{
					"inputs": [
						{
							"internalType": "address payable",
							"name": "_bank",
							"type": "address"
						},
						{
							"internalType": "uint256",
							"name": "_amount",
							"type": "uint256"
						}
					],
					"name": "depositToBank",
					"outputs": [],
					"stateMutability": "nonpayable",
					"type": "function"
				},
				{
					"inputs": [
						{
							"internalType": "address",
							"name": "_bAccount",
							"type": "address"
						},
						{
							"internalType": "uint256",
							"name": "_amount",
							"type": "uint256"
						}
					],
					"name": "transferTo",
					"outputs": [],
					"stateMutability": "nonpayable",
					"type": "function"
				},
				{
					"inputs": [
						{
							"internalType": "address payable",
							"name": "_aBank",
							"type": "address"
						},
						{
							"internalType": "address",
							"name": "_bAccount",
							"type": "address"
						},
						{
							"internalType": "address payable",
							"name": "_bBank",
							"type": "address"
						},
						{
							"internalType": "uint256",
							"name": "_amount",
							"type": "uint256"
						}
					],
					"name": "transferWire",
					"outputs": [],
					"stateMutability": "nonpayable",
					"type": "function"
				},
				{
					"inputs": [
						{
							"internalType": "uint256",
							"name": "_amount",
							"type": "uint256"
						}
					],
					"name": "withdrawFromApp",
					"outputs": [],
					"stateMutability": "payable",
					"type": "function"
				},
				{
					"inputs": [
						{
							"internalType": "address payable",
							"name": "_bank",
							"type": "address"
						},
						{
							"internalType": "uint256",
							"name": "_amount",
							"type": "uint256"
						}
					],
					"name": "withdrawFromBank",
					"outputs": [],
					"stateMutability": "nonpayable",
					"type": "function"
				},
				{
					"stateMutability": "payable",
					"type": "receive"
				}
			],
			"devdoc": {
				"kind": "dev",
				"methods": {},
				"version": 1
			},
			"evm": {
				"assembly": "    /* \"contracts/230525/1.sol\":235:2450  contract Note {... */\n  mstore(0x40, 0x80)\n  callvalue\n  dup1\n  iszero\n  tag_1\n  jumpi\n  0x00\n  dup1\n  revert\ntag_1:\n  pop\n  dataSize(sub_0)\n  dup1\n  dataOffset(sub_0)\n  0x00\n  codecopy\n  0x00\n  return\nstop\n\nsub_0: assembly {\n        /* \"contracts/230525/1.sol\":235:2450  contract Note {... */\n      mstore(0x40, 0x80)\n      jumpi(tag_1, lt(calldatasize, 0x04))\n      shr(0xe0, calldataload(0x00))\n      dup1\n      0x5d74f844\n      gt\n      tag_10\n      jumpi\n      dup1\n      0x5d74f844\n      eq\n      tag_6\n      jumpi\n      dup1\n      0x8458e57c\n      eq\n      tag_7\n      jumpi\n      dup1\n      0xbb85f016\n      eq\n      tag_8\n      jumpi\n      dup1\n      0xe473adc2\n      eq\n      tag_9\n      jumpi\n      jump(tag_2)\n    tag_10:\n      dup1\n      0x274956e9\n      eq\n      tag_3\n      jumpi\n      dup1\n      0x27b52dde\n      eq\n      tag_4\n      jumpi\n      dup1\n      0x2ccb1b30\n      eq\n      tag_5\n      jumpi\n      jump(tag_2)\n    tag_1:\n      jumpi(tag_2, calldatasize)\n      stop\n    tag_2:\n      0x00\n      dup1\n      revert\n        /* \"contracts/230525/1.sol\":2236:2448  function transferWire(address payable _aBank, address _bAccount, address payable _bBank, uint _amount) public {... */\n    tag_3:\n      callvalue\n      dup1\n      iszero\n      tag_13\n      jumpi\n      0x00\n      dup1\n      revert\n    tag_13:\n      pop\n      tag_14\n      0x04\n      dup1\n      calldatasize\n      sub\n      dup2\n      add\n      swap1\n      tag_15\n      swap2\n      swap1\n      tag_16\n      jump\t// in\n    tag_15:\n      tag_17\n      jump\t// in\n    tag_14:\n      stop\n        /* \"contracts/230525/1.sol\":1450:1598  function withdrawFromApp(uint _amount) public payable {... */\n    tag_4:\n      tag_18\n      0x04\n      dup1\n      calldatasize\n      sub\n      dup2\n      add\n      swap1\n      tag_19\n      swap2\n      swap1\n      tag_20\n      jump\t// in\n    tag_19:\n      tag_21\n      jump\t// in\n    tag_18:\n      stop\n        /* \"contracts/230525/1.sol\":1957:2137  function transferTo(address _bAccount, uint _amount) public balanceCheck(msg.sender, _amount){... */\n    tag_5:\n      callvalue\n      dup1\n      iszero\n      tag_22\n      jumpi\n      0x00\n      dup1\n      revert\n    tag_22:\n      pop\n      tag_23\n      0x04\n      dup1\n      calldatasize\n      sub\n      dup2\n      add\n      swap1\n      tag_24\n      swap2\n      swap1\n      tag_25\n      jump\t// in\n    tag_24:\n      tag_26\n      jump\t// in\n    tag_23:\n      stop\n        /* \"contracts/230525/1.sol\":1679:1885  function withdrawFromBank(address payable _bank, uint _amount) public {... */\n    tag_6:\n      callvalue\n      dup1\n      iszero\n      tag_27\n      jumpi\n      0x00\n      dup1\n      revert\n    tag_27:\n      pop\n      tag_28\n      0x04\n      dup1\n      calldatasize\n      sub\n      dup2\n      add\n      swap1\n      tag_29\n      swap2\n      swap1\n      tag_30\n      jump\t// in\n    tag_29:\n      tag_31\n      jump\t// in\n    tag_28:\n      stop\n        /* \"contracts/230525/1.sol\":595:695  function depositToApp(uint _amount) public payable {... */\n    tag_7:\n      tag_32\n      0x04\n      dup1\n      calldatasize\n      sub\n      dup2\n      add\n      swap1\n      tag_33\n      swap2\n      swap1\n      tag_20\n      jump\t// in\n    tag_33:\n      tag_34\n      jump\t// in\n    tag_32:\n      stop\n        /* \"contracts/230525/1.sol\":1081:1372  function _depositToBank(address payable _bank, address _to, uint _amount) public {... */\n    tag_8:\n      callvalue\n      dup1\n      iszero\n      tag_35\n      jumpi\n      0x00\n      dup1\n      revert\n    tag_35:\n      pop\n      tag_36\n      0x04\n      dup1\n      calldatasize\n      sub\n      dup2\n      add\n      swap1\n      tag_37\n      swap2\n      swap1\n      tag_38\n      jump\t// in\n    tag_37:\n      tag_39\n      jump\t// in\n    tag_36:\n      stop\n        /* \"contracts/230525/1.sol\":776:1074  function depositToBank(address payable _bank, uint _amount) public {... */\n    tag_9:\n      callvalue\n      dup1\n      iszero\n      tag_40\n      jumpi\n      0x00\n      dup1\n      revert\n    tag_40:\n      pop\n      tag_41\n      0x04\n      dup1\n      calldatasize\n      sub\n      dup2\n      add\n      swap1\n      tag_42\n      swap2\n      swap1\n      tag_30\n      jump\t// in\n    tag_42:\n      tag_43\n      jump\t// in\n    tag_41:\n      stop\n        /* \"contracts/230525/1.sol\":2236:2448  function transferWire(address payable _aBank, address _bAccount, address payable _bBank, uint _amount) public {... */\n    tag_17:\n        /* \"contracts/230525/1.sol\":2356:2389  withdrawFromBank(_aBank, _amount) */\n      tag_45\n        /* \"contracts/230525/1.sol\":2373:2379  _aBank */\n      dup5\n        /* \"contracts/230525/1.sol\":2381:2388  _amount */\n      dup3\n        /* \"contracts/230525/1.sol\":2356:2372  withdrawFromBank */\n      tag_31\n        /* \"contracts/230525/1.sol\":2356:2389  withdrawFromBank(_aBank, _amount) */\n      jump\t// in\n    tag_45:\n        /* \"contracts/230525/1.sol\":2399:2441  _depositToBank(_bBank, _bAccount, _amount) */\n      tag_46\n        /* \"contracts/230525/1.sol\":2414:2420  _bBank */\n      dup3\n        /* \"contracts/230525/1.sol\":2422:2431  _bAccount */\n      dup5\n        /* \"contracts/230525/1.sol\":2433:2440  _amount */\n      dup4\n        /* \"contracts/230525/1.sol\":2399:2413  _depositToBank */\n      tag_39\n        /* \"contracts/230525/1.sol\":2399:2441  _depositToBank(_bBank, _bAccount, _amount) */\n      jump\t// in\n    tag_46:\n        /* \"contracts/230525/1.sol\":2236:2448  function transferWire(address payable _aBank, address _bAccount, address payable _bBank, uint _amount) public {... */\n      pop\n      pop\n      pop\n      pop\n      jump\t// out\n        /* \"contracts/230525/1.sol\":1450:1598  function withdrawFromApp(uint _amount) public payable {... */\n    tag_21:\n        /* \"contracts/230525/1.sol\":1537:1544  _amount */\n      dup1\n        /* \"contracts/230525/1.sol\":1514:1521  balance */\n      0x00\n        /* \"contracts/230525/1.sol\":1514:1533  balance[msg.sender] */\n      dup1\n        /* \"contracts/230525/1.sol\":1522:1532  msg.sender */\n      caller\n        /* \"contracts/230525/1.sol\":1514:1533  balance[msg.sender] */\n      0xffffffffffffffffffffffffffffffffffffffff\n      and\n      0xffffffffffffffffffffffffffffffffffffffff\n      and\n      dup2\n      mstore\n      0x20\n      add\n      swap1\n      dup2\n      mstore\n      0x20\n      add\n      0x00\n      keccak256\n      0x00\n        /* \"contracts/230525/1.sol\":1514:1544  balance[msg.sender] += _amount */\n      dup3\n      dup3\n      sload\n      tag_48\n      swap2\n      swap1\n      tag_49\n      jump\t// in\n    tag_48:\n      swap3\n      pop\n      pop\n      dup2\n      swap1\n      sstore\n      pop\n        /* \"contracts/230525/1.sol\":1562:1572  msg.sender */\n      caller\n        /* \"contracts/230525/1.sol\":1554:1582  payable(msg.sender).transfer */\n      0xffffffffffffffffffffffffffffffffffffffff\n      and\n        /* \"contracts/230525/1.sol\":1554:1591  payable(msg.sender).transfer(_amount) */\n      0x08fc\n        /* \"contracts/230525/1.sol\":1583:1590  _amount */\n      dup3\n        /* \"contracts/230525/1.sol\":1554:1591  payable(msg.sender).transfer(_amount) */\n      swap1\n      dup2\n      iszero\n      mul\n      swap1\n      mload(0x40)\n      0x00\n      mload(0x40)\n      dup1\n      dup4\n      sub\n      dup2\n      dup6\n      dup9\n      dup9\n      call\n      swap4\n      pop\n      pop\n      pop\n      pop\n      iszero\n      dup1\n      iszero\n      tag_51\n      jumpi\n      returndatasize\n      0x00\n      dup1\n      returndatacopy\n      revert(0x00, returndatasize)\n    tag_51:\n      pop\n        /* \"contracts/230525/1.sol\":1450:1598  function withdrawFromApp(uint _amount) public payable {... */\n      pop\n      jump\t// out\n        /* \"contracts/230525/1.sol\":1957:2137  function transferTo(address _bAccount, uint _amount) public balanceCheck(msg.sender, _amount){... */\n    tag_26:\n        /* \"contracts/230525/1.sol\":2030:2040  msg.sender */\n      caller\n        /* \"contracts/230525/1.sol\":2042:2049  _amount */\n      dup2\n        /* \"contracts/230525/1.sol\":490:497  _amount */\n      dup1\n        /* \"contracts/230525/1.sol\":475:482  balance */\n      0x00\n        /* \"contracts/230525/1.sol\":475:486  balance[_a] */\n      dup1\n        /* \"contracts/230525/1.sol\":483:485  _a */\n      dup5\n        /* \"contracts/230525/1.sol\":475:486  balance[_a] */\n      0xffffffffffffffffffffffffffffffffffffffff\n      and\n      0xffffffffffffffffffffffffffffffffffffffff\n      and\n      dup2\n      mstore\n      0x20\n      add\n      swap1\n      dup2\n      mstore\n      0x20\n      add\n      0x00\n      keccak256\n      pop\n        /* \"contracts/230525/1.sol\":475:497  balance[_a] >= _amount */\n      pop\n        /* \"contracts/230525/1.sol\":2084:2091  _amount */\n      dup3\n        /* \"contracts/230525/1.sol\":2061:2068  balance */\n      0x00\n        /* \"contracts/230525/1.sol\":2061:2080  balance[msg.sender] */\n      dup1\n        /* \"contracts/230525/1.sol\":2069:2079  msg.sender */\n      caller\n        /* \"contracts/230525/1.sol\":2061:2080  balance[msg.sender] */\n      0xffffffffffffffffffffffffffffffffffffffff\n      and\n      0xffffffffffffffffffffffffffffffffffffffff\n      and\n      dup2\n      mstore\n      0x20\n      add\n      swap1\n      dup2\n      mstore\n      0x20\n      add\n      0x00\n      keccak256\n      0x00\n        /* \"contracts/230525/1.sol\":2061:2091  balance[msg.sender] -= _amount */\n      dup3\n      dup3\n      sload\n      tag_54\n      swap2\n      swap1\n      tag_55\n      jump\t// in\n    tag_54:\n      swap3\n      pop\n      pop\n      dup2\n      swap1\n      sstore\n      pop\n        /* \"contracts/230525/1.sol\":2123:2130  _amount */\n      dup3\n        /* \"contracts/230525/1.sol\":2101:2108  balance */\n      0x00\n        /* \"contracts/230525/1.sol\":2101:2119  balance[_bAccount] */\n      dup1\n        /* \"contracts/230525/1.sol\":2109:2118  _bAccount */\n      dup7\n        /* \"contracts/230525/1.sol\":2101:2119  balance[_bAccount] */\n      0xffffffffffffffffffffffffffffffffffffffff\n      and\n      0xffffffffffffffffffffffffffffffffffffffff\n      and\n      dup2\n      mstore\n      0x20\n      add\n      swap1\n      dup2\n      mstore\n      0x20\n      add\n      0x00\n      keccak256\n      0x00\n        /* \"contracts/230525/1.sol\":2101:2130  balance[_bAccount] += _amount */\n      dup3\n      dup3\n      sload\n      tag_56\n      swap2\n      swap1\n      tag_49\n      jump\t// in\n    tag_56:\n      swap3\n      pop\n      pop\n      dup2\n      swap1\n      sstore\n      pop\n        /* \"contracts/230525/1.sol\":1957:2137  function transferTo(address _bAccount, uint _amount) public balanceCheck(msg.sender, _amount){... */\n      pop\n      pop\n      pop\n      pop\n      jump\t// out\n        /* \"contracts/230525/1.sol\":1679:1885  function withdrawFromBank(address payable _bank, uint _amount) public {... */\n    tag_31:\n        /* \"contracts/230525/1.sol\":1759:1774  Bank targetBank */\n      0x00\n        /* \"contracts/230525/1.sol\":1782:1787  _bank */\n      dup3\n        /* \"contracts/230525/1.sol\":1759:1788  Bank targetBank = Bank(_bank) */\n      swap1\n      pop\n        /* \"contracts/230525/1.sol\":1798:1808  targetBank */\n      dup1\n        /* \"contracts/230525/1.sol\":1798:1817  targetBank.Withdraw */\n      0xffffffffffffffffffffffffffffffffffffffff\n      and\n      0x884edad9\n        /* \"contracts/230525/1.sol\":1818:1828  msg.sender */\n      caller\n        /* \"contracts/230525/1.sol\":1830:1837  _amount */\n      dup5\n        /* \"contracts/230525/1.sol\":1798:1838  targetBank.Withdraw(msg.sender, _amount) */\n      mload(0x40)\n      dup4\n      0xffffffff\n      and\n      0xe0\n      shl\n      dup2\n      mstore\n      0x04\n      add\n      tag_58\n      swap3\n      swap2\n      swap1\n      tag_59\n      jump\t// in\n    tag_58:\n      0x00\n      mload(0x40)\n      dup1\n      dup4\n      sub\n      dup2\n      0x00\n      dup8\n      dup1\n      extcodesize\n      iszero\n      dup1\n      iszero\n      tag_60\n      jumpi\n      0x00\n      dup1\n      revert\n    tag_60:\n      pop\n      gas\n      call\n      iszero\n      dup1\n      iszero\n      tag_62\n      jumpi\n      returndatasize\n      0x00\n      dup1\n      returndatacopy\n      revert(0x00, returndatasize)\n    tag_62:\n      pop\n      pop\n      pop\n      pop\n        /* \"contracts/230525/1.sol\":1871:1878  _amount */\n      dup2\n        /* \"contracts/230525/1.sol\":1848:1855  balance */\n      0x00\n        /* \"contracts/230525/1.sol\":1848:1867  balance[msg.sender] */\n      dup1\n        /* \"contracts/230525/1.sol\":1856:1866  msg.sender */\n      caller\n        /* \"contracts/230525/1.sol\":1848:1867  balance[msg.sender] */\n      0xffffffffffffffffffffffffffffffffffffffff\n      and\n      0xffffffffffffffffffffffffffffffffffffffff\n      and\n      dup2\n      mstore\n      0x20\n      add\n      swap1\n      dup2\n      mstore\n      0x20\n      add\n      0x00\n      keccak256\n      0x00\n        /* \"contracts/230525/1.sol\":1848:1878  balance[msg.sender] += _amount */\n      dup3\n      dup3\n      sload\n      tag_63\n      swap2\n      swap1\n      tag_49\n      jump\t// in\n    tag_63:\n      swap3\n      pop\n      pop\n      dup2\n      swap1\n      sstore\n      pop\n        /* \"contracts/230525/1.sol\":1749:1885  {... */\n      pop\n        /* \"contracts/230525/1.sol\":1679:1885  function withdrawFromBank(address payable _bank, uint _amount) public {... */\n      pop\n      pop\n      jump\t// out\n        /* \"contracts/230525/1.sol\":595:695  function depositToApp(uint _amount) public payable {... */\n    tag_34:\n        /* \"contracts/230525/1.sol\":679:688  msg.value */\n      callvalue\n        /* \"contracts/230525/1.sol\":656:663  balance */\n      0x00\n        /* \"contracts/230525/1.sol\":656:675  balance[msg.sender] */\n      dup1\n        /* \"contracts/230525/1.sol\":664:674  msg.sender */\n      caller\n        /* \"contracts/230525/1.sol\":656:675  balance[msg.sender] */\n      0xffffffffffffffffffffffffffffffffffffffff\n      and\n      0xffffffffffffffffffffffffffffffffffffffff\n      and\n      dup2\n      mstore\n      0x20\n      add\n      swap1\n      dup2\n      mstore\n      0x20\n      add\n      0x00\n      keccak256\n      0x00\n        /* \"contracts/230525/1.sol\":656:688  balance[msg.sender] += msg.value */\n      dup3\n      dup3\n      sload\n      tag_65\n      swap2\n      swap1\n      tag_49\n      jump\t// in\n    tag_65:\n      swap3\n      pop\n      pop\n      dup2\n      swap1\n      sstore\n      pop\n        /* \"contracts/230525/1.sol\":595:695  function depositToApp(uint _amount) public payable {... */\n      pop\n      jump\t// out\n        /* \"contracts/230525/1.sol\":1081:1372  function _depositToBank(address payable _bank, address _to, uint _amount) public {... */\n    tag_39:\n        /* \"contracts/230525/1.sol\":1172:1187  Bank targetBank */\n      0x00\n        /* \"contracts/230525/1.sol\":1195:1200  _bank */\n      dup4\n        /* \"contracts/230525/1.sol\":1172:1201  Bank targetBank = Bank(_bank) */\n      swap1\n      pop\n        /* \"contracts/230525/1.sol\":1235:1242  _amount */\n      dup2\n        /* \"contracts/230525/1.sol\":1219:1226  balance */\n      0x00\n        /* \"contracts/230525/1.sol\":1219:1231  balance[_to] */\n      dup1\n        /* \"contracts/230525/1.sol\":1227:1230  _to */\n      dup6\n        /* \"contracts/230525/1.sol\":1219:1231  balance[_to] */\n      0xffffffffffffffffffffffffffffffffffffffff\n      and\n      0xffffffffffffffffffffffffffffffffffffffff\n      and\n      dup2\n      mstore\n      0x20\n      add\n      swap1\n      dup2\n      mstore\n      0x20\n      add\n      0x00\n      keccak256\n      sload\n        /* \"contracts/230525/1.sol\":1219:1242  balance[_to] >= _amount */\n      lt\n      iszero\n        /* \"contracts/230525/1.sol\":1211:1243  require(balance[_to] >= _amount) */\n      tag_67\n      jumpi\n      0x00\n      dup1\n      revert\n    tag_67:\n        /* \"contracts/230525/1.sol\":1261:1271  targetBank */\n      dup1\n        /* \"contracts/230525/1.sol\":1253:1281  payable(targetBank).transfer */\n      0xffffffffffffffffffffffffffffffffffffffff\n      and\n        /* \"contracts/230525/1.sol\":1253:1290  payable(targetBank).transfer(_amount) */\n      0x08fc\n        /* \"contracts/230525/1.sol\":1282:1289  _amount */\n      dup4\n        /* \"contracts/230525/1.sol\":1253:1290  payable(targetBank).transfer(_amount) */\n      swap1\n      dup2\n      iszero\n      mul\n      swap1\n      mload(0x40)\n      0x00\n      mload(0x40)\n      dup1\n      dup4\n      sub\n      dup2\n      dup6\n      dup9\n      dup9\n      call\n      swap4\n      pop\n      pop\n      pop\n      pop\n      iszero\n      dup1\n      iszero\n      tag_69\n      jumpi\n      returndatasize\n      0x00\n      dup1\n      returndatacopy\n      revert(0x00, returndatasize)\n    tag_69:\n      pop\n        /* \"contracts/230525/1.sol\":1316:1323  _amount */\n      dup2\n        /* \"contracts/230525/1.sol\":1300:1307  balance */\n      0x00\n        /* \"contracts/230525/1.sol\":1300:1312  balance[_to] */\n      dup1\n        /* \"contracts/230525/1.sol\":1308:1311  _to */\n      dup6\n        /* \"contracts/230525/1.sol\":1300:1312  balance[_to] */\n      0xffffffffffffffffffffffffffffffffffffffff\n      and\n      0xffffffffffffffffffffffffffffffffffffffff\n      and\n      dup2\n      mstore\n      0x20\n      add\n      swap1\n      dup2\n      mstore\n      0x20\n      add\n      0x00\n      keccak256\n      0x00\n        /* \"contracts/230525/1.sol\":1300:1323  balance[_to] -= _amount */\n      dup3\n      dup3\n      sload\n      tag_70\n      swap2\n      swap1\n      tag_55\n      jump\t// in\n    tag_70:\n      swap3\n      pop\n      pop\n      dup2\n      swap1\n      sstore\n      pop\n        /* \"contracts/230525/1.sol\":1333:1343  targetBank */\n      dup1\n        /* \"contracts/230525/1.sol\":1333:1351  targetBank.Deposit */\n      0xffffffffffffffffffffffffffffffffffffffff\n      and\n      0xe1fffcc4\n        /* \"contracts/230525/1.sol\":1352:1355  _to */\n      dup5\n        /* \"contracts/230525/1.sol\":1357:1364  _amount */\n      dup5\n        /* \"contracts/230525/1.sol\":1333:1365  targetBank.Deposit(_to, _amount) */\n      mload(0x40)\n      dup4\n      0xffffffff\n      and\n      0xe0\n      shl\n      dup2\n      mstore\n      0x04\n      add\n      tag_71\n      swap3\n      swap2\n      swap1\n      tag_59\n      jump\t// in\n    tag_71:\n      0x00\n      mload(0x40)\n      dup1\n      dup4\n      sub\n      dup2\n      0x00\n      dup8\n      dup1\n      extcodesize\n      iszero\n      dup1\n      iszero\n      tag_72\n      jumpi\n      0x00\n      dup1\n      revert\n    tag_72:\n      pop\n      gas\n      call\n      iszero\n      dup1\n      iszero\n      tag_74\n      jumpi\n      returndatasize\n      0x00\n      dup1\n      returndatacopy\n      revert(0x00, returndatasize)\n    tag_74:\n      pop\n      pop\n      pop\n      pop\n        /* \"contracts/230525/1.sol\":1162:1372  {... */\n      pop\n        /* \"contracts/230525/1.sol\":1081:1372  function _depositToBank(address payable _bank, address _to, uint _amount) public {... */\n      pop\n      pop\n      pop\n      jump\t// out\n        /* \"contracts/230525/1.sol\":776:1074  function depositToBank(address payable _bank, uint _amount) public {... */\n    tag_43:\n        /* \"contracts/230525/1.sol\":853:868  Bank targetBank */\n      0x00\n        /* \"contracts/230525/1.sol\":876:881  _bank */\n      dup3\n        /* \"contracts/230525/1.sol\":853:882  Bank targetBank = Bank(_bank) */\n      swap1\n      pop\n        /* \"contracts/230525/1.sol\":923:930  _amount */\n      dup2\n        /* \"contracts/230525/1.sol\":900:907  balance */\n      0x00\n        /* \"contracts/230525/1.sol\":900:919  balance[msg.sender] */\n      dup1\n        /* \"contracts/230525/1.sol\":908:918  msg.sender */\n      caller\n        /* \"contracts/230525/1.sol\":900:919  balance[msg.sender] */\n      0xffffffffffffffffffffffffffffffffffffffff\n      and\n      0xffffffffffffffffffffffffffffffffffffffff\n      and\n      dup2\n      mstore\n      0x20\n      add\n      swap1\n      dup2\n      mstore\n      0x20\n      add\n      0x00\n      keccak256\n      sload\n        /* \"contracts/230525/1.sol\":900:930  balance[msg.sender] >= _amount */\n      lt\n      iszero\n        /* \"contracts/230525/1.sol\":892:931  require(balance[msg.sender] >= _amount) */\n      tag_76\n      jumpi\n      0x00\n      dup1\n      revert\n    tag_76:\n        /* \"contracts/230525/1.sol\":949:959  targetBank */\n      dup1\n        /* \"contracts/230525/1.sol\":941:969  payable(targetBank).transfer */\n      0xffffffffffffffffffffffffffffffffffffffff\n      and\n        /* \"contracts/230525/1.sol\":941:978  payable(targetBank).transfer(_amount) */\n      0x08fc\n        /* \"contracts/230525/1.sol\":970:977  _amount */\n      dup4\n        /* \"contracts/230525/1.sol\":941:978  payable(targetBank).transfer(_amount) */\n      swap1\n      dup2\n      iszero\n      mul\n      swap1\n      mload(0x40)\n      0x00\n      mload(0x40)\n      dup1\n      dup4\n      sub\n      dup2\n      dup6\n      dup9\n      dup9\n      call\n      swap4\n      pop\n      pop\n      pop\n      pop\n      iszero\n      dup1\n      iszero\n      tag_78\n      jumpi\n      returndatasize\n      0x00\n      dup1\n      returndatacopy\n      revert(0x00, returndatasize)\n    tag_78:\n      pop\n        /* \"contracts/230525/1.sol\":1011:1018  _amount */\n      dup2\n        /* \"contracts/230525/1.sol\":988:995  balance */\n      0x00\n        /* \"contracts/230525/1.sol\":988:1007  balance[msg.sender] */\n      dup1\n        /* \"contracts/230525/1.sol\":996:1006  msg.sender */\n      caller\n        /* \"contracts/230525/1.sol\":988:1007  balance[msg.sender] */\n      0xffffffffffffffffffffffffffffffffffffffff\n      and\n      0xffffffffffffffffffffffffffffffffffffffff\n      and\n      dup2\n      mstore\n      0x20\n      add\n      swap1\n      dup2\n      mstore\n      0x20\n      add\n      0x00\n      keccak256\n      0x00\n        /* \"contracts/230525/1.sol\":988:1018  balance[msg.sender] -= _amount */\n      dup3\n      dup3\n      sload\n      tag_79\n      swap2\n      swap1\n      tag_55\n      jump\t// in\n    tag_79:\n      swap3\n      pop\n      pop\n      dup2\n      swap1\n      sstore\n      pop\n        /* \"contracts/230525/1.sol\":1028:1038  targetBank */\n      dup1\n        /* \"contracts/230525/1.sol\":1028:1046  targetBank.Deposit */\n      0xffffffffffffffffffffffffffffffffffffffff\n      and\n      0xe1fffcc4\n        /* \"contracts/230525/1.sol\":1047:1057  msg.sender */\n      caller\n        /* \"contracts/230525/1.sol\":1059:1066  _amount */\n      dup5\n        /* \"contracts/230525/1.sol\":1028:1067  targetBank.Deposit(msg.sender, _amount) */\n      mload(0x40)\n      dup4\n      0xffffffff\n      and\n      0xe0\n      shl\n      dup2\n      mstore\n      0x04\n      add\n      tag_80\n      swap3\n      swap2\n      swap1\n      tag_59\n      jump\t// in\n    tag_80:\n      0x00\n      mload(0x40)\n      dup1\n      dup4\n      sub\n      dup2\n      0x00\n      dup8\n      dup1\n      extcodesize\n      iszero\n      dup1\n      iszero\n      tag_81\n      jumpi\n      0x00\n      dup1\n      revert\n    tag_81:\n      pop\n      gas\n      call\n      iszero\n      dup1\n      iszero\n      tag_83\n      jumpi\n      returndatasize\n      0x00\n      dup1\n      returndatacopy\n      revert(0x00, returndatasize)\n    tag_83:\n      pop\n      pop\n      pop\n      pop\n        /* \"contracts/230525/1.sol\":843:1074  {... */\n      pop\n        /* \"contracts/230525/1.sol\":776:1074  function depositToBank(address payable _bank, uint _amount) public {... */\n      pop\n      pop\n      jump\t// out\n        /* \"#utility.yul\":88:205   */\n    tag_85:\n        /* \"#utility.yul\":197:198   */\n      0x00\n        /* \"#utility.yul\":194:195   */\n      dup1\n        /* \"#utility.yul\":187:199   */\n      revert\n        /* \"#utility.yul\":334:460   */\n    tag_87:\n        /* \"#utility.yul\":371:378   */\n      0x00\n        /* \"#utility.yul\":411:453   */\n      0xffffffffffffffffffffffffffffffffffffffff\n        /* \"#utility.yul\":404:409   */\n      dup3\n        /* \"#utility.yul\":400:454   */\n      and\n        /* \"#utility.yul\":389:454   */\n      swap1\n      pop\n        /* \"#utility.yul\":334:460   */\n      swap2\n      swap1\n      pop\n      jump\t// out\n        /* \"#utility.yul\":466:570   */\n    tag_88:\n        /* \"#utility.yul\":511:518   */\n      0x00\n        /* \"#utility.yul\":540:564   */\n      tag_106\n        /* \"#utility.yul\":558:563   */\n      dup3\n        /* \"#utility.yul\":540:564   */\n      tag_87\n      jump\t// in\n    tag_106:\n        /* \"#utility.yul\":529:564   */\n      swap1\n      pop\n        /* \"#utility.yul\":466:570   */\n      swap2\n      swap1\n      pop\n      jump\t// out\n        /* \"#utility.yul\":576:714   */\n    tag_89:\n        /* \"#utility.yul\":657:689   */\n      tag_108\n        /* \"#utility.yul\":683:688   */\n      dup2\n        /* \"#utility.yul\":657:689   */\n      tag_88\n      jump\t// in\n    tag_108:\n        /* \"#utility.yul\":650:655   */\n      dup2\n        /* \"#utility.yul\":647:690   */\n      eq\n        /* \"#utility.yul\":637:708   */\n      tag_109\n      jumpi\n        /* \"#utility.yul\":704:705   */\n      0x00\n        /* \"#utility.yul\":701:702   */\n      dup1\n        /* \"#utility.yul\":694:706   */\n      revert\n        /* \"#utility.yul\":637:708   */\n    tag_109:\n        /* \"#utility.yul\":576:714   */\n      pop\n      jump\t// out\n        /* \"#utility.yul\":720:875   */\n    tag_90:\n        /* \"#utility.yul\":774:779   */\n      0x00\n        /* \"#utility.yul\":812:818   */\n      dup2\n        /* \"#utility.yul\":799:819   */\n      calldataload\n        /* \"#utility.yul\":790:819   */\n      swap1\n      pop\n        /* \"#utility.yul\":828:869   */\n      tag_111\n        /* \"#utility.yul\":863:868   */\n      dup2\n        /* \"#utility.yul\":828:869   */\n      tag_89\n      jump\t// in\n    tag_111:\n        /* \"#utility.yul\":720:875   */\n      swap3\n      swap2\n      pop\n      pop\n      jump\t// out\n        /* \"#utility.yul\":881:977   */\n    tag_91:\n        /* \"#utility.yul\":918:925   */\n      0x00\n        /* \"#utility.yul\":947:971   */\n      tag_113\n        /* \"#utility.yul\":965:970   */\n      dup3\n        /* \"#utility.yul\":947:971   */\n      tag_87\n      jump\t// in\n    tag_113:\n        /* \"#utility.yul\":936:971   */\n      swap1\n      pop\n        /* \"#utility.yul\":881:977   */\n      swap2\n      swap1\n      pop\n      jump\t// out\n        /* \"#utility.yul\":983:1105   */\n    tag_92:\n        /* \"#utility.yul\":1056:1080   */\n      tag_115\n        /* \"#utility.yul\":1074:1079   */\n      dup2\n        /* \"#utility.yul\":1056:1080   */\n      tag_91\n      jump\t// in\n    tag_115:\n        /* \"#utility.yul\":1049:1054   */\n      dup2\n        /* \"#utility.yul\":1046:1081   */\n      eq\n        /* \"#utility.yul\":1036:1099   */\n      tag_116\n      jumpi\n        /* \"#utility.yul\":1095:1096   */\n      0x00\n        /* \"#utility.yul\":1092:1093   */\n      dup1\n        /* \"#utility.yul\":1085:1097   */\n      revert\n        /* \"#utility.yul\":1036:1099   */\n    tag_116:\n        /* \"#utility.yul\":983:1105   */\n      pop\n      jump\t// out\n        /* \"#utility.yul\":1111:1250   */\n    tag_93:\n        /* \"#utility.yul\":1157:1162   */\n      0x00\n        /* \"#utility.yul\":1195:1201   */\n      dup2\n        /* \"#utility.yul\":1182:1202   */\n      calldataload\n        /* \"#utility.yul\":1173:1202   */\n      swap1\n      pop\n        /* \"#utility.yul\":1211:1244   */\n      tag_118\n        /* \"#utility.yul\":1238:1243   */\n      dup2\n        /* \"#utility.yul\":1211:1244   */\n      tag_92\n      jump\t// in\n    tag_118:\n        /* \"#utility.yul\":1111:1250   */\n      swap3\n      swap2\n      pop\n      pop\n      jump\t// out\n        /* \"#utility.yul\":1256:1333   */\n    tag_94:\n        /* \"#utility.yul\":1293:1300   */\n      0x00\n        /* \"#utility.yul\":1322:1327   */\n      dup2\n        /* \"#utility.yul\":1311:1327   */\n      swap1\n      pop\n        /* \"#utility.yul\":1256:1333   */\n      swap2\n      swap1\n      pop\n      jump\t// out\n        /* \"#utility.yul\":1339:1461   */\n    tag_95:\n        /* \"#utility.yul\":1412:1436   */\n      tag_121\n        /* \"#utility.yul\":1430:1435   */\n      dup2\n        /* \"#utility.yul\":1412:1436   */\n      tag_94\n      jump\t// in\n    tag_121:\n        /* \"#utility.yul\":1405:1410   */\n      dup2\n        /* \"#utility.yul\":1402:1437   */\n      eq\n        /* \"#utility.yul\":1392:1455   */\n      tag_122\n      jumpi\n        /* \"#utility.yul\":1451:1452   */\n      0x00\n        /* \"#utility.yul\":1448:1449   */\n      dup1\n        /* \"#utility.yul\":1441:1453   */\n      revert\n        /* \"#utility.yul\":1392:1455   */\n    tag_122:\n        /* \"#utility.yul\":1339:1461   */\n      pop\n      jump\t// out\n        /* \"#utility.yul\":1467:1606   */\n    tag_96:\n        /* \"#utility.yul\":1513:1518   */\n      0x00\n        /* \"#utility.yul\":1551:1557   */\n      dup2\n        /* \"#utility.yul\":1538:1558   */\n      calldataload\n        /* \"#utility.yul\":1529:1558   */\n      swap1\n      pop\n        /* \"#utility.yul\":1567:1600   */\n      tag_124\n        /* \"#utility.yul\":1594:1599   */\n      dup2\n        /* \"#utility.yul\":1567:1600   */\n      tag_95\n      jump\t// in\n    tag_124:\n        /* \"#utility.yul\":1467:1606   */\n      swap3\n      swap2\n      pop\n      pop\n      jump\t// out\n        /* \"#utility.yul\":1612:2409   */\n    tag_16:\n        /* \"#utility.yul\":1714:1720   */\n      0x00\n        /* \"#utility.yul\":1722:1728   */\n      dup1\n        /* \"#utility.yul\":1730:1736   */\n      0x00\n        /* \"#utility.yul\":1738:1744   */\n      dup1\n        /* \"#utility.yul\":1787:1790   */\n      0x80\n        /* \"#utility.yul\":1775:1784   */\n      dup6\n        /* \"#utility.yul\":1766:1773   */\n      dup8\n        /* \"#utility.yul\":1762:1785   */\n      sub\n        /* \"#utility.yul\":1758:1791   */\n      slt\n        /* \"#utility.yul\":1755:1875   */\n      iszero\n      tag_126\n      jumpi\n        /* \"#utility.yul\":1794:1873   */\n      tag_127\n      tag_85\n      jump\t// in\n    tag_127:\n        /* \"#utility.yul\":1755:1875   */\n    tag_126:\n        /* \"#utility.yul\":1914:1915   */\n      0x00\n        /* \"#utility.yul\":1939:2000   */\n      tag_128\n        /* \"#utility.yul\":1992:1999   */\n      dup8\n        /* \"#utility.yul\":1983:1989   */\n      dup3\n        /* \"#utility.yul\":1972:1981   */\n      dup9\n        /* \"#utility.yul\":1968:1990   */\n      add\n        /* \"#utility.yul\":1939:2000   */\n      tag_90\n      jump\t// in\n    tag_128:\n        /* \"#utility.yul\":1929:2000   */\n      swap5\n      pop\n        /* \"#utility.yul\":1885:2010   */\n      pop\n        /* \"#utility.yul\":2049:2051   */\n      0x20\n        /* \"#utility.yul\":2075:2128   */\n      tag_129\n        /* \"#utility.yul\":2120:2127   */\n      dup8\n        /* \"#utility.yul\":2111:2117   */\n      dup3\n        /* \"#utility.yul\":2100:2109   */\n      dup9\n        /* \"#utility.yul\":2096:2118   */\n      add\n        /* \"#utility.yul\":2075:2128   */\n      tag_93\n      jump\t// in\n    tag_129:\n        /* \"#utility.yul\":2065:2128   */\n      swap4\n      pop\n        /* \"#utility.yul\":2020:2138   */\n      pop\n        /* \"#utility.yul\":2177:2179   */\n      0x40\n        /* \"#utility.yul\":2203:2264   */\n      tag_130\n        /* \"#utility.yul\":2256:2263   */\n      dup8\n        /* \"#utility.yul\":2247:2253   */\n      dup3\n        /* \"#utility.yul\":2236:2245   */\n      dup9\n        /* \"#utility.yul\":2232:2254   */\n      add\n        /* \"#utility.yul\":2203:2264   */\n      tag_90\n      jump\t// in\n    tag_130:\n        /* \"#utility.yul\":2193:2264   */\n      swap3\n      pop\n        /* \"#utility.yul\":2148:2274   */\n      pop\n        /* \"#utility.yul\":2313:2315   */\n      0x60\n        /* \"#utility.yul\":2339:2392   */\n      tag_131\n        /* \"#utility.yul\":2384:2391   */\n      dup8\n        /* \"#utility.yul\":2375:2381   */\n      dup3\n        /* \"#utility.yul\":2364:2373   */\n      dup9\n        /* \"#utility.yul\":2360:2382   */\n      add\n        /* \"#utility.yul\":2339:2392   */\n      tag_96\n      jump\t// in\n    tag_131:\n        /* \"#utility.yul\":2329:2392   */\n      swap2\n      pop\n        /* \"#utility.yul\":2284:2402   */\n      pop\n        /* \"#utility.yul\":1612:2409   */\n      swap3\n      swap6\n      swap2\n      swap5\n      pop\n      swap3\n      pop\n      jump\t// out\n        /* \"#utility.yul\":2415:2744   */\n    tag_20:\n        /* \"#utility.yul\":2474:2480   */\n      0x00\n        /* \"#utility.yul\":2523:2525   */\n      0x20\n        /* \"#utility.yul\":2511:2520   */\n      dup3\n        /* \"#utility.yul\":2502:2509   */\n      dup5\n        /* \"#utility.yul\":2498:2521   */\n      sub\n        /* \"#utility.yul\":2494:2526   */\n      slt\n        /* \"#utility.yul\":2491:2610   */\n      iszero\n      tag_133\n      jumpi\n        /* \"#utility.yul\":2529:2608   */\n      tag_134\n      tag_85\n      jump\t// in\n    tag_134:\n        /* \"#utility.yul\":2491:2610   */\n    tag_133:\n        /* \"#utility.yul\":2649:2650   */\n      0x00\n        /* \"#utility.yul\":2674:2727   */\n      tag_135\n        /* \"#utility.yul\":2719:2726   */\n      dup5\n        /* \"#utility.yul\":2710:2716   */\n      dup3\n        /* \"#utility.yul\":2699:2708   */\n      dup6\n        /* \"#utility.yul\":2695:2717   */\n      add\n        /* \"#utility.yul\":2674:2727   */\n      tag_96\n      jump\t// in\n    tag_135:\n        /* \"#utility.yul\":2664:2727   */\n      swap2\n      pop\n        /* \"#utility.yul\":2620:2737   */\n      pop\n        /* \"#utility.yul\":2415:2744   */\n      swap3\n      swap2\n      pop\n      pop\n      jump\t// out\n        /* \"#utility.yul\":2750:3224   */\n    tag_25:\n        /* \"#utility.yul\":2818:2824   */\n      0x00\n        /* \"#utility.yul\":2826:2832   */\n      dup1\n        /* \"#utility.yul\":2875:2877   */\n      0x40\n        /* \"#utility.yul\":2863:2872   */\n      dup4\n        /* \"#utility.yul\":2854:2861   */\n      dup6\n        /* \"#utility.yul\":2850:2873   */\n      sub\n        /* \"#utility.yul\":2846:2878   */\n      slt\n        /* \"#utility.yul\":2843:2962   */\n      iszero\n      tag_137\n      jumpi\n        /* \"#utility.yul\":2881:2960   */\n      tag_138\n      tag_85\n      jump\t// in\n    tag_138:\n        /* \"#utility.yul\":2843:2962   */\n    tag_137:\n        /* \"#utility.yul\":3001:3002   */\n      0x00\n        /* \"#utility.yul\":3026:3079   */\n      tag_139\n        /* \"#utility.yul\":3071:3078   */\n      dup6\n        /* \"#utility.yul\":3062:3068   */\n      dup3\n        /* \"#utility.yul\":3051:3060   */\n      dup7\n        /* \"#utility.yul\":3047:3069   */\n      add\n        /* \"#utility.yul\":3026:3079   */\n      tag_93\n      jump\t// in\n    tag_139:\n        /* \"#utility.yul\":3016:3079   */\n      swap3\n      pop\n        /* \"#utility.yul\":2972:3089   */\n      pop\n        /* \"#utility.yul\":3128:3130   */\n      0x20\n        /* \"#utility.yul\":3154:3207   */\n      tag_140\n        /* \"#utility.yul\":3199:3206   */\n      dup6\n        /* \"#utility.yul\":3190:3196   */\n      dup3\n        /* \"#utility.yul\":3179:3188   */\n      dup7\n        /* \"#utility.yul\":3175:3197   */\n      add\n        /* \"#utility.yul\":3154:3207   */\n      tag_96\n      jump\t// in\n    tag_140:\n        /* \"#utility.yul\":3144:3207   */\n      swap2\n      pop\n        /* \"#utility.yul\":3099:3217   */\n      pop\n        /* \"#utility.yul\":2750:3224   */\n      swap3\n      pop\n      swap3\n      swap1\n      pop\n      jump\t// out\n        /* \"#utility.yul\":3230:3720   */\n    tag_30:\n        /* \"#utility.yul\":3306:3312   */\n      0x00\n        /* \"#utility.yul\":3314:3320   */\n      dup1\n        /* \"#utility.yul\":3363:3365   */\n      0x40\n        /* \"#utility.yul\":3351:3360   */\n      dup4\n        /* \"#utility.yul\":3342:3349   */\n      dup6\n        /* \"#utility.yul\":3338:3361   */\n      sub\n        /* \"#utility.yul\":3334:3366   */\n      slt\n        /* \"#utility.yul\":3331:3450   */\n      iszero\n      tag_142\n      jumpi\n        /* \"#utility.yul\":3369:3448   */\n      tag_143\n      tag_85\n      jump\t// in\n    tag_143:\n        /* \"#utility.yul\":3331:3450   */\n    tag_142:\n        /* \"#utility.yul\":3489:3490   */\n      0x00\n        /* \"#utility.yul\":3514:3575   */\n      tag_144\n        /* \"#utility.yul\":3567:3574   */\n      dup6\n        /* \"#utility.yul\":3558:3564   */\n      dup3\n        /* \"#utility.yul\":3547:3556   */\n      dup7\n        /* \"#utility.yul\":3543:3565   */\n      add\n        /* \"#utility.yul\":3514:3575   */\n      tag_90\n      jump\t// in\n    tag_144:\n        /* \"#utility.yul\":3504:3575   */\n      swap3\n      pop\n        /* \"#utility.yul\":3460:3585   */\n      pop\n        /* \"#utility.yul\":3624:3626   */\n      0x20\n        /* \"#utility.yul\":3650:3703   */\n      tag_145\n        /* \"#utility.yul\":3695:3702   */\n      dup6\n        /* \"#utility.yul\":3686:3692   */\n      dup3\n        /* \"#utility.yul\":3675:3684   */\n      dup7\n        /* \"#utility.yul\":3671:3693   */\n      add\n        /* \"#utility.yul\":3650:3703   */\n      tag_96\n      jump\t// in\n    tag_145:\n        /* \"#utility.yul\":3640:3703   */\n      swap2\n      pop\n        /* \"#utility.yul\":3595:3713   */\n      pop\n        /* \"#utility.yul\":3230:3720   */\n      swap3\n      pop\n      swap3\n      swap1\n      pop\n      jump\t// out\n        /* \"#utility.yul\":3726:4361   */\n    tag_38:\n        /* \"#utility.yul\":3811:3817   */\n      0x00\n        /* \"#utility.yul\":3819:3825   */\n      dup1\n        /* \"#utility.yul\":3827:3833   */\n      0x00\n        /* \"#utility.yul\":3876:3878   */\n      0x60\n        /* \"#utility.yul\":3864:3873   */\n      dup5\n        /* \"#utility.yul\":3855:3862   */\n      dup7\n        /* \"#utility.yul\":3851:3874   */\n      sub\n        /* \"#utility.yul\":3847:3879   */\n      slt\n        /* \"#utility.yul\":3844:3963   */\n      iszero\n      tag_147\n      jumpi\n        /* \"#utility.yul\":3882:3961   */\n      tag_148\n      tag_85\n      jump\t// in\n    tag_148:\n        /* \"#utility.yul\":3844:3963   */\n    tag_147:\n        /* \"#utility.yul\":4002:4003   */\n      0x00\n        /* \"#utility.yul\":4027:4088   */\n      tag_149\n        /* \"#utility.yul\":4080:4087   */\n      dup7\n        /* \"#utility.yul\":4071:4077   */\n      dup3\n        /* \"#utility.yul\":4060:4069   */\n      dup8\n        /* \"#utility.yul\":4056:4078   */\n      add\n        /* \"#utility.yul\":4027:4088   */\n      tag_90\n      jump\t// in\n    tag_149:\n        /* \"#utility.yul\":4017:4088   */\n      swap4\n      pop\n        /* \"#utility.yul\":3973:4098   */\n      pop\n        /* \"#utility.yul\":4137:4139   */\n      0x20\n        /* \"#utility.yul\":4163:4216   */\n      tag_150\n        /* \"#utility.yul\":4208:4215   */\n      dup7\n        /* \"#utility.yul\":4199:4205   */\n      dup3\n        /* \"#utility.yul\":4188:4197   */\n      dup8\n        /* \"#utility.yul\":4184:4206   */\n      add\n        /* \"#utility.yul\":4163:4216   */\n      tag_93\n      jump\t// in\n    tag_150:\n        /* \"#utility.yul\":4153:4216   */\n      swap3\n      pop\n        /* \"#utility.yul\":4108:4226   */\n      pop\n        /* \"#utility.yul\":4265:4267   */\n      0x40\n        /* \"#utility.yul\":4291:4344   */\n      tag_151\n        /* \"#utility.yul\":4336:4343   */\n      dup7\n        /* \"#utility.yul\":4327:4333   */\n      dup3\n        /* \"#utility.yul\":4316:4325   */\n      dup8\n        /* \"#utility.yul\":4312:4334   */\n      add\n        /* \"#utility.yul\":4291:4344   */\n      tag_96\n      jump\t// in\n    tag_151:\n        /* \"#utility.yul\":4281:4344   */\n      swap2\n      pop\n        /* \"#utility.yul\":4236:4354   */\n      pop\n        /* \"#utility.yul\":3726:4361   */\n      swap3\n      pop\n      swap3\n      pop\n      swap3\n      jump\t// out\n        /* \"#utility.yul\":4367:4547   */\n    tag_97:\n        /* \"#utility.yul\":4415:4492   */\n      0x4e487b7100000000000000000000000000000000000000000000000000000000\n        /* \"#utility.yul\":4412:4413   */\n      0x00\n        /* \"#utility.yul\":4405:4493   */\n      mstore\n        /* \"#utility.yul\":4512:4516   */\n      0x11\n        /* \"#utility.yul\":4509:4510   */\n      0x04\n        /* \"#utility.yul\":4502:4517   */\n      mstore\n        /* \"#utility.yul\":4536:4540   */\n      0x24\n        /* \"#utility.yul\":4533:4534   */\n      0x00\n        /* \"#utility.yul\":4526:4541   */\n      revert\n        /* \"#utility.yul\":4553:4744   */\n    tag_49:\n        /* \"#utility.yul\":4593:4596   */\n      0x00\n        /* \"#utility.yul\":4612:4632   */\n      tag_154\n        /* \"#utility.yul\":4630:4631   */\n      dup3\n        /* \"#utility.yul\":4612:4632   */\n      tag_94\n      jump\t// in\n    tag_154:\n        /* \"#utility.yul\":4607:4632   */\n      swap2\n      pop\n        /* \"#utility.yul\":4646:4666   */\n      tag_155\n        /* \"#utility.yul\":4664:4665   */\n      dup4\n        /* \"#utility.yul\":4646:4666   */\n      tag_94\n      jump\t// in\n    tag_155:\n        /* \"#utility.yul\":4641:4666   */\n      swap3\n      pop\n        /* \"#utility.yul\":4689:4690   */\n      dup3\n        /* \"#utility.yul\":4686:4687   */\n      dup3\n        /* \"#utility.yul\":4682:4691   */\n      add\n        /* \"#utility.yul\":4675:4691   */\n      swap1\n      pop\n        /* \"#utility.yul\":4710:4713   */\n      dup1\n        /* \"#utility.yul\":4707:4708   */\n      dup3\n        /* \"#utility.yul\":4704:4714   */\n      gt\n        /* \"#utility.yul\":4701:4737   */\n      iszero\n      tag_156\n      jumpi\n        /* \"#utility.yul\":4717:4735   */\n      tag_157\n      tag_97\n      jump\t// in\n    tag_157:\n        /* \"#utility.yul\":4701:4737   */\n    tag_156:\n        /* \"#utility.yul\":4553:4744   */\n      swap3\n      swap2\n      pop\n      pop\n      jump\t// out\n        /* \"#utility.yul\":4750:4944   */\n    tag_55:\n        /* \"#utility.yul\":4790:4794   */\n      0x00\n        /* \"#utility.yul\":4810:4830   */\n      tag_159\n        /* \"#utility.yul\":4828:4829   */\n      dup3\n        /* \"#utility.yul\":4810:4830   */\n      tag_94\n      jump\t// in\n    tag_159:\n        /* \"#utility.yul\":4805:4830   */\n      swap2\n      pop\n        /* \"#utility.yul\":4844:4864   */\n      tag_160\n        /* \"#utility.yul\":4862:4863   */\n      dup4\n        /* \"#utility.yul\":4844:4864   */\n      tag_94\n      jump\t// in\n    tag_160:\n        /* \"#utility.yul\":4839:4864   */\n      swap3\n      pop\n        /* \"#utility.yul\":4888:4889   */\n      dup3\n        /* \"#utility.yul\":4885:4886   */\n      dup3\n        /* \"#utility.yul\":4881:4890   */\n      sub\n        /* \"#utility.yul\":4873:4890   */\n      swap1\n      pop\n        /* \"#utility.yul\":4912:4913   */\n      dup2\n        /* \"#utility.yul\":4906:4910   */\n      dup2\n        /* \"#utility.yul\":4903:4914   */\n      gt\n        /* \"#utility.yul\":4900:4937   */\n      iszero\n      tag_161\n      jumpi\n        /* \"#utility.yul\":4917:4935   */\n      tag_162\n      tag_97\n      jump\t// in\n    tag_162:\n        /* \"#utility.yul\":4900:4937   */\n    tag_161:\n        /* \"#utility.yul\":4750:4944   */\n      swap3\n      swap2\n      pop\n      pop\n      jump\t// out\n        /* \"#utility.yul\":4950:5068   */\n    tag_98:\n        /* \"#utility.yul\":5037:5061   */\n      tag_164\n        /* \"#utility.yul\":5055:5060   */\n      dup2\n        /* \"#utility.yul\":5037:5061   */\n      tag_91\n      jump\t// in\n    tag_164:\n        /* \"#utility.yul\":5032:5035   */\n      dup3\n        /* \"#utility.yul\":5025:5062   */\n      mstore\n        /* \"#utility.yul\":4950:5068   */\n      pop\n      pop\n      jump\t// out\n        /* \"#utility.yul\":5074:5192   */\n    tag_99:\n        /* \"#utility.yul\":5161:5185   */\n      tag_166\n        /* \"#utility.yul\":5179:5184   */\n      dup2\n        /* \"#utility.yul\":5161:5185   */\n      tag_94\n      jump\t// in\n    tag_166:\n        /* \"#utility.yul\":5156:5159   */\n      dup3\n        /* \"#utility.yul\":5149:5186   */\n      mstore\n        /* \"#utility.yul\":5074:5192   */\n      pop\n      pop\n      jump\t// out\n        /* \"#utility.yul\":5198:5530   */\n    tag_59:\n        /* \"#utility.yul\":5319:5323   */\n      0x00\n        /* \"#utility.yul\":5357:5359   */\n      0x40\n        /* \"#utility.yul\":5346:5355   */\n      dup3\n        /* \"#utility.yul\":5342:5360   */\n      add\n        /* \"#utility.yul\":5334:5360   */\n      swap1\n      pop\n        /* \"#utility.yul\":5370:5441   */\n      tag_168\n        /* \"#utility.yul\":5438:5439   */\n      0x00\n        /* \"#utility.yul\":5427:5436   */\n      dup4\n        /* \"#utility.yul\":5423:5440   */\n      add\n        /* \"#utility.yul\":5414:5420   */\n      dup6\n        /* \"#utility.yul\":5370:5441   */\n      tag_98\n      jump\t// in\n    tag_168:\n        /* \"#utility.yul\":5451:5523   */\n      tag_169\n        /* \"#utility.yul\":5519:5521   */\n      0x20\n        /* \"#utility.yul\":5508:5517   */\n      dup4\n        /* \"#utility.yul\":5504:5522   */\n      add\n        /* \"#utility.yul\":5495:5501   */\n      dup5\n        /* \"#utility.yul\":5451:5523   */\n      tag_99\n      jump\t// in\n    tag_169:\n        /* \"#utility.yul\":5198:5530   */\n      swap4\n      swap3\n      pop\n      pop\n      pop\n      jump\t// out\n\n    auxdata: 0xa2646970667358221220ccaec59e378d7d384d859c7333305295adfe0c319304989f28f70ae4119b785e64736f6c63430008120033\n}\n",
				"bytecode": {
					"linkReferences": {},
					"object": "608060405234801561001057600080fd5b50610a65806100206000396000f3fe6080604052600436106100745760003560e01c80635d74f8441161004e5780635d74f844146100ee5780638458e57c14610117578063bb85f01614610133578063e473adc21461015c5761007b565b8063274956e91461008057806327b52dde146100a95780632ccb1b30146100c55761007b565b3661007b57005b600080fd5b34801561008c57600080fd5b506100a760048036038101906100a291906107ea565b610185565b005b6100c360048036038101906100be9190610851565b6101a0565b005b3480156100d157600080fd5b506100ec60048036038101906100e7919061087e565b61023f565b005b3480156100fa57600080fd5b50610115600480360381019061011091906108be565b610332565b005b610131600480360381019061012c9190610851565b6103fe565b005b34801561013f57600080fd5b5061015a600480360381019061015591906108fe565b610456565b005b34801561016857600080fd5b50610183600480360381019061017e91906108be565b6105b5565b005b61018f8482610332565b61019a828483610456565b50505050565b806000803373ffffffffffffffffffffffffffffffffffffffff1673ffffffffffffffffffffffffffffffffffffffff16815260200190815260200160002060008282546101ee9190610980565b925050819055503373ffffffffffffffffffffffffffffffffffffffff166108fc829081150290604051600060405180830381858888f1935050505015801561023b573d6000803e3d6000fd5b5050565b3381806000808473ffffffffffffffffffffffffffffffffffffffff1673ffffffffffffffffffffffffffffffffffffffff1681526020019081526020016000205050826000803373ffffffffffffffffffffffffffffffffffffffff1673ffffffffffffffffffffffffffffffffffffffff16815260200190815260200160002060008282546102d091906109b4565b92505081905550826000808673ffffffffffffffffffffffffffffffffffffffff1673ffffffffffffffffffffffffffffffffffffffff16815260200190815260200160002060008282546103259190610980565b9250508190555050505050565b60008290508073ffffffffffffffffffffffffffffffffffffffff1663884edad933846040518363ffffffff1660e01b8152600401610372929190610a06565b600060405180830381600087803b15801561038c57600080fd5b505af11580156103a0573d6000803e3d6000fd5b50505050816000803373ffffffffffffffffffffffffffffffffffffffff1673ffffffffffffffffffffffffffffffffffffffff16815260200190815260200160002060008282546103f29190610980565b92505081905550505050565b346000803373ffffffffffffffffffffffffffffffffffffffff1673ffffffffffffffffffffffffffffffffffffffff168152602001908152602001600020600082825461044c9190610980565b9250508190555050565b6000839050816000808573ffffffffffffffffffffffffffffffffffffffff1673ffffffffffffffffffffffffffffffffffffffff1681526020019081526020016000205410156104a657600080fd5b8073ffffffffffffffffffffffffffffffffffffffff166108fc839081150290604051600060405180830381858888f193505050501580156104ec573d6000803e3d6000fd5b50816000808573ffffffffffffffffffffffffffffffffffffffff1673ffffffffffffffffffffffffffffffffffffffff168152602001908152602001600020600082825461053b91906109b4565b925050819055508073ffffffffffffffffffffffffffffffffffffffff1663e1fffcc484846040518363ffffffff1660e01b815260040161057d929190610a06565b600060405180830381600087803b15801561059757600080fd5b505af11580156105ab573d6000803e3d6000fd5b5050505050505050565b6000829050816000803373ffffffffffffffffffffffffffffffffffffffff1673ffffffffffffffffffffffffffffffffffffffff16815260200190815260200160002054101561060557600080fd5b8073ffffffffffffffffffffffffffffffffffffffff166108fc839081150290604051600060405180830381858888f1935050505015801561064b573d6000803e3d6000fd5b50816000803373ffffffffffffffffffffffffffffffffffffffff1673ffffffffffffffffffffffffffffffffffffffff168152602001908152602001600020600082825461069a91906109b4565b925050819055508073ffffffffffffffffffffffffffffffffffffffff1663e1fffcc433846040518363ffffffff1660e01b81526004016106dc929190610a06565b600060405180830381600087803b1580156106f657600080fd5b505af115801561070a573d6000803e3d6000fd5b50505050505050565b600080fd5b600073ffffffffffffffffffffffffffffffffffffffff82169050919050565b600061074382610718565b9050919050565b61075381610738565b811461075e57600080fd5b50565b6000813590506107708161074a565b92915050565b600061078182610718565b9050919050565b61079181610776565b811461079c57600080fd5b50565b6000813590506107ae81610788565b92915050565b6000819050919050565b6107c7816107b4565b81146107d257600080fd5b50565b6000813590506107e4816107be565b92915050565b6000806000806080858703121561080457610803610713565b5b600061081287828801610761565b94505060206108238782880161079f565b935050604061083487828801610761565b9250506060610845878288016107d5565b91505092959194509250565b60006020828403121561086757610866610713565b5b6000610875848285016107d5565b91505092915050565b6000806040838503121561089557610894610713565b5b60006108a38582860161079f565b92505060206108b4858286016107d5565b9150509250929050565b600080604083850312156108d5576108d4610713565b5b60006108e385828601610761565b92505060206108f4858286016107d5565b9150509250929050565b60008060006060848603121561091757610916610713565b5b600061092586828701610761565b93505060206109368682870161079f565b9250506040610947868287016107d5565b9150509250925092565b7f4e487b7100000000000000000000000000000000000000000000000000000000600052601160045260246000fd5b600061098b826107b4565b9150610996836107b4565b92508282019050808211156109ae576109ad610951565b5b92915050565b60006109bf826107b4565b91506109ca836107b4565b92508282039050818111156109e2576109e1610951565b5b92915050565b6109f181610776565b82525050565b610a00816107b4565b82525050565b6000604082019050610a1b60008301856109e8565b610a2860208301846109f7565b939250505056fea2646970667358221220ccaec59e378d7d384d859c7333305295adfe0c319304989f28f70ae4119b785e64736f6c63430008120033",
					"opcodes": "PUSH1 0x80 PUSH1 0x40 MSTORE CALLVALUE DUP1 ISZERO PUSH2 0x10 JUMPI PUSH1 0x0 DUP1 REVERT JUMPDEST POP PUSH2 0xA65 DUP1 PUSH2 0x20 PUSH1 0x0 CODECOPY PUSH1 0x0 RETURN INVALID PUSH1 0x80 PUSH1 0x40 MSTORE PUSH1 0x4 CALLDATASIZE LT PUSH2 0x74 JUMPI PUSH1 0x0 CALLDATALOAD PUSH1 0xE0 SHR DUP1 PUSH4 0x5D74F844 GT PUSH2 0x4E JUMPI DUP1 PUSH4 0x5D74F844 EQ PUSH2 0xEE JUMPI DUP1 PUSH4 0x8458E57C EQ PUSH2 0x117 JUMPI DUP1 PUSH4 0xBB85F016 EQ PUSH2 0x133 JUMPI DUP1 PUSH4 0xE473ADC2 EQ PUSH2 0x15C JUMPI PUSH2 0x7B JUMP JUMPDEST DUP1 PUSH4 0x274956E9 EQ PUSH2 0x80 JUMPI DUP1 PUSH4 0x27B52DDE EQ PUSH2 0xA9 JUMPI DUP1 PUSH4 0x2CCB1B30 EQ PUSH2 0xC5 JUMPI PUSH2 0x7B JUMP JUMPDEST CALLDATASIZE PUSH2 0x7B JUMPI STOP JUMPDEST PUSH1 0x0 DUP1 REVERT JUMPDEST CALLVALUE DUP1 ISZERO PUSH2 0x8C JUMPI PUSH1 0x0 DUP1 REVERT JUMPDEST POP PUSH2 0xA7 PUSH1 0x4 DUP1 CALLDATASIZE SUB DUP2 ADD SWAP1 PUSH2 0xA2 SWAP2 SWAP1 PUSH2 0x7EA JUMP JUMPDEST PUSH2 0x185 JUMP JUMPDEST STOP JUMPDEST PUSH2 0xC3 PUSH1 0x4 DUP1 CALLDATASIZE SUB DUP2 ADD SWAP1 PUSH2 0xBE SWAP2 SWAP1 PUSH2 0x851 JUMP JUMPDEST PUSH2 0x1A0 JUMP JUMPDEST STOP JUMPDEST CALLVALUE DUP1 ISZERO PUSH2 0xD1 JUMPI PUSH1 0x0 DUP1 REVERT JUMPDEST POP PUSH2 0xEC PUSH1 0x4 DUP1 CALLDATASIZE SUB DUP2 ADD SWAP1 PUSH2 0xE7 SWAP2 SWAP1 PUSH2 0x87E JUMP JUMPDEST PUSH2 0x23F JUMP JUMPDEST STOP JUMPDEST CALLVALUE DUP1 ISZERO PUSH2 0xFA JUMPI PUSH1 0x0 DUP1 REVERT JUMPDEST POP PUSH2 0x115 PUSH1 0x4 DUP1 CALLDATASIZE SUB DUP2 ADD SWAP1 PUSH2 0x110 SWAP2 SWAP1 PUSH2 0x8BE JUMP JUMPDEST PUSH2 0x332 JUMP JUMPDEST STOP JUMPDEST PUSH2 0x131 PUSH1 0x4 DUP1 CALLDATASIZE SUB DUP2 ADD SWAP1 PUSH2 0x12C SWAP2 SWAP1 PUSH2 0x851 JUMP JUMPDEST PUSH2 0x3FE JUMP JUMPDEST STOP JUMPDEST CALLVALUE DUP1 ISZERO PUSH2 0x13F JUMPI PUSH1 0x0 DUP1 REVERT JUMPDEST POP PUSH2 0x15A PUSH1 0x4 DUP1 CALLDATASIZE SUB DUP2 ADD SWAP1 PUSH2 0x155 SWAP2 SWAP1 PUSH2 0x8FE JUMP JUMPDEST PUSH2 0x456 JUMP JUMPDEST STOP JUMPDEST CALLVALUE DUP1 ISZERO PUSH2 0x168 JUMPI PUSH1 0x0 DUP1 REVERT JUMPDEST POP PUSH2 0x183 PUSH1 0x4 DUP1 CALLDATASIZE SUB DUP2 ADD SWAP1 PUSH2 0x17E SWAP2 SWAP1 PUSH2 0x8BE JUMP JUMPDEST PUSH2 0x5B5 JUMP JUMPDEST STOP JUMPDEST PUSH2 0x18F DUP5 DUP3 PUSH2 0x332 JUMP JUMPDEST PUSH2 0x19A DUP3 DUP5 DUP4 PUSH2 0x456 JUMP JUMPDEST POP POP POP POP JUMP JUMPDEST DUP1 PUSH1 0x0 DUP1 CALLER PUSH20 0xFFFFFFFFFFFFFFFFFFFFFFFFFFFFFFFFFFFFFFFF AND PUSH20 0xFFFFFFFFFFFFFFFFFFFFFFFFFFFFFFFFFFFFFFFF AND DUP2 MSTORE PUSH1 0x20 ADD SWAP1 DUP2 MSTORE PUSH1 0x20 ADD PUSH1 0x0 KECCAK256 PUSH1 0x0 DUP3 DUP3 SLOAD PUSH2 0x1EE SWAP2 SWAP1 PUSH2 0x980 JUMP JUMPDEST SWAP3 POP POP DUP2 SWAP1 SSTORE POP CALLER PUSH20 0xFFFFFFFFFFFFFFFFFFFFFFFFFFFFFFFFFFFFFFFF AND PUSH2 0x8FC DUP3 SWAP1 DUP2 ISZERO MUL SWAP1 PUSH1 0x40 MLOAD PUSH1 0x0 PUSH1 0x40 MLOAD DUP1 DUP4 SUB DUP2 DUP6 DUP9 DUP9 CALL SWAP4 POP POP POP POP ISZERO DUP1 ISZERO PUSH2 0x23B JUMPI RETURNDATASIZE PUSH1 0x0 DUP1 RETURNDATACOPY RETURNDATASIZE PUSH1 0x0 REVERT JUMPDEST POP POP JUMP JUMPDEST CALLER DUP2 DUP1 PUSH1 0x0 DUP1 DUP5 PUSH20 0xFFFFFFFFFFFFFFFFFFFFFFFFFFFFFFFFFFFFFFFF AND PUSH20 0xFFFFFFFFFFFFFFFFFFFFFFFFFFFFFFFFFFFFFFFF AND DUP2 MSTORE PUSH1 0x20 ADD SWAP1 DUP2 MSTORE PUSH1 0x20 ADD PUSH1 0x0 KECCAK256 POP POP DUP3 PUSH1 0x0 DUP1 CALLER PUSH20 0xFFFFFFFFFFFFFFFFFFFFFFFFFFFFFFFFFFFFFFFF AND PUSH20 0xFFFFFFFFFFFFFFFFFFFFFFFFFFFFFFFFFFFFFFFF AND DUP2 MSTORE PUSH1 0x20 ADD SWAP1 DUP2 MSTORE PUSH1 0x20 ADD PUSH1 0x0 KECCAK256 PUSH1 0x0 DUP3 DUP3 SLOAD PUSH2 0x2D0 SWAP2 SWAP1 PUSH2 0x9B4 JUMP JUMPDEST SWAP3 POP POP DUP2 SWAP1 SSTORE POP DUP3 PUSH1 0x0 DUP1 DUP7 PUSH20 0xFFFFFFFFFFFFFFFFFFFFFFFFFFFFFFFFFFFFFFFF AND PUSH20 0xFFFFFFFFFFFFFFFFFFFFFFFFFFFFFFFFFFFFFFFF AND DUP2 MSTORE PUSH1 0x20 ADD SWAP1 DUP2 MSTORE PUSH1 0x20 ADD PUSH1 0x0 KECCAK256 PUSH1 0x0 DUP3 DUP3 SLOAD PUSH2 0x325 SWAP2 SWAP1 PUSH2 0x980 JUMP JUMPDEST SWAP3 POP POP DUP2 SWAP1 SSTORE POP POP POP POP POP JUMP JUMPDEST PUSH1 0x0 DUP3 SWAP1 POP DUP1 PUSH20 0xFFFFFFFFFFFFFFFFFFFFFFFFFFFFFFFFFFFFFFFF AND PUSH4 0x884EDAD9 CALLER DUP5 PUSH1 0x40 MLOAD DUP4 PUSH4 0xFFFFFFFF AND PUSH1 0xE0 SHL DUP2 MSTORE PUSH1 0x4 ADD PUSH2 0x372 SWAP3 SWAP2 SWAP1 PUSH2 0xA06 JUMP JUMPDEST PUSH1 0x0 PUSH1 0x40 MLOAD DUP1 DUP4 SUB DUP2 PUSH1 0x0 DUP8 DUP1 EXTCODESIZE ISZERO DUP1 ISZERO PUSH2 0x38C JUMPI PUSH1 0x0 DUP1 REVERT JUMPDEST POP GAS CALL ISZERO DUP1 ISZERO PUSH2 0x3A0 JUMPI RETURNDATASIZE PUSH1 0x0 DUP1 RETURNDATACOPY RETURNDATASIZE PUSH1 0x0 REVERT JUMPDEST POP POP POP POP DUP2 PUSH1 0x0 DUP1 CALLER PUSH20 0xFFFFFFFFFFFFFFFFFFFFFFFFFFFFFFFFFFFFFFFF AND PUSH20 0xFFFFFFFFFFFFFFFFFFFFFFFFFFFFFFFFFFFFFFFF AND DUP2 MSTORE PUSH1 0x20 ADD SWAP1 DUP2 MSTORE PUSH1 0x20 ADD PUSH1 0x0 KECCAK256 PUSH1 0x0 DUP3 DUP3 SLOAD PUSH2 0x3F2 SWAP2 SWAP1 PUSH2 0x980 JUMP JUMPDEST SWAP3 POP POP DUP2 SWAP1 SSTORE POP POP POP POP JUMP JUMPDEST CALLVALUE PUSH1 0x0 DUP1 CALLER PUSH20 0xFFFFFFFFFFFFFFFFFFFFFFFFFFFFFFFFFFFFFFFF AND PUSH20 0xFFFFFFFFFFFFFFFFFFFFFFFFFFFFFFFFFFFFFFFF AND DUP2 MSTORE PUSH1 0x20 ADD SWAP1 DUP2 MSTORE PUSH1 0x20 ADD PUSH1 0x0 KECCAK256 PUSH1 0x0 DUP3 DUP3 SLOAD PUSH2 0x44C SWAP2 SWAP1 PUSH2 0x980 JUMP JUMPDEST SWAP3 POP POP DUP2 SWAP1 SSTORE POP POP JUMP JUMPDEST PUSH1 0x0 DUP4 SWAP1 POP DUP2 PUSH1 0x0 DUP1 DUP6 PUSH20 0xFFFFFFFFFFFFFFFFFFFFFFFFFFFFFFFFFFFFFFFF AND PUSH20 0xFFFFFFFFFFFFFFFFFFFFFFFFFFFFFFFFFFFFFFFF AND DUP2 MSTORE PUSH1 0x20 ADD SWAP1 DUP2 MSTORE PUSH1 0x20 ADD PUSH1 0x0 KECCAK256 SLOAD LT ISZERO PUSH2 0x4A6 JUMPI PUSH1 0x0 DUP1 REVERT JUMPDEST DUP1 PUSH20 0xFFFFFFFFFFFFFFFFFFFFFFFFFFFFFFFFFFFFFFFF AND PUSH2 0x8FC DUP4 SWAP1 DUP2 ISZERO MUL SWAP1 PUSH1 0x40 MLOAD PUSH1 0x0 PUSH1 0x40 MLOAD DUP1 DUP4 SUB DUP2 DUP6 DUP9 DUP9 CALL SWAP4 POP POP POP POP ISZERO DUP1 ISZERO PUSH2 0x4EC JUMPI RETURNDATASIZE PUSH1 0x0 DUP1 RETURNDATACOPY RETURNDATASIZE PUSH1 0x0 REVERT JUMPDEST POP DUP2 PUSH1 0x0 DUP1 DUP6 PUSH20 0xFFFFFFFFFFFFFFFFFFFFFFFFFFFFFFFFFFFFFFFF AND PUSH20 0xFFFFFFFFFFFFFFFFFFFFFFFFFFFFFFFFFFFFFFFF AND DUP2 MSTORE PUSH1 0x20 ADD SWAP1 DUP2 MSTORE PUSH1 0x20 ADD PUSH1 0x0 KECCAK256 PUSH1 0x0 DUP3 DUP3 SLOAD PUSH2 0x53B SWAP2 SWAP1 PUSH2 0x9B4 JUMP JUMPDEST SWAP3 POP POP DUP2 SWAP1 SSTORE POP DUP1 PUSH20 0xFFFFFFFFFFFFFFFFFFFFFFFFFFFFFFFFFFFFFFFF AND PUSH4 0xE1FFFCC4 DUP5 DUP5 PUSH1 0x40 MLOAD DUP4 PUSH4 0xFFFFFFFF AND PUSH1 0xE0 SHL DUP2 MSTORE PUSH1 0x4 ADD PUSH2 0x57D SWAP3 SWAP2 SWAP1 PUSH2 0xA06 JUMP JUMPDEST PUSH1 0x0 PUSH1 0x40 MLOAD DUP1 DUP4 SUB DUP2 PUSH1 0x0 DUP8 DUP1 EXTCODESIZE ISZERO DUP1 ISZERO PUSH2 0x597 JUMPI PUSH1 0x0 DUP1 REVERT JUMPDEST POP GAS CALL ISZERO DUP1 ISZERO PUSH2 0x5AB JUMPI RETURNDATASIZE PUSH1 0x0 DUP1 RETURNDATACOPY RETURNDATASIZE PUSH1 0x0 REVERT JUMPDEST POP POP POP POP POP POP POP POP JUMP JUMPDEST PUSH1 0x0 DUP3 SWAP1 POP DUP2 PUSH1 0x0 DUP1 CALLER PUSH20 0xFFFFFFFFFFFFFFFFFFFFFFFFFFFFFFFFFFFFFFFF AND PUSH20 0xFFFFFFFFFFFFFFFFFFFFFFFFFFFFFFFFFFFFFFFF AND DUP2 MSTORE PUSH1 0x20 ADD SWAP1 DUP2 MSTORE PUSH1 0x20 ADD PUSH1 0x0 KECCAK256 SLOAD LT ISZERO PUSH2 0x605 JUMPI PUSH1 0x0 DUP1 REVERT JUMPDEST DUP1 PUSH20 0xFFFFFFFFFFFFFFFFFFFFFFFFFFFFFFFFFFFFFFFF AND PUSH2 0x8FC DUP4 SWAP1 DUP2 ISZERO MUL SWAP1 PUSH1 0x40 MLOAD PUSH1 0x0 PUSH1 0x40 MLOAD DUP1 DUP4 SUB DUP2 DUP6 DUP9 DUP9 CALL SWAP4 POP POP POP POP ISZERO DUP1 ISZERO PUSH2 0x64B JUMPI RETURNDATASIZE PUSH1 0x0 DUP1 RETURNDATACOPY RETURNDATASIZE PUSH1 0x0 REVERT JUMPDEST POP DUP2 PUSH1 0x0 DUP1 CALLER PUSH20 0xFFFFFFFFFFFFFFFFFFFFFFFFFFFFFFFFFFFFFFFF AND PUSH20 0xFFFFFFFFFFFFFFFFFFFFFFFFFFFFFFFFFFFFFFFF AND DUP2 MSTORE PUSH1 0x20 ADD SWAP1 DUP2 MSTORE PUSH1 0x20 ADD PUSH1 0x0 KECCAK256 PUSH1 0x0 DUP3 DUP3 SLOAD PUSH2 0x69A SWAP2 SWAP1 PUSH2 0x9B4 JUMP JUMPDEST SWAP3 POP POP DUP2 SWAP1 SSTORE POP DUP1 PUSH20 0xFFFFFFFFFFFFFFFFFFFFFFFFFFFFFFFFFFFFFFFF AND PUSH4 0xE1FFFCC4 CALLER DUP5 PUSH1 0x40 MLOAD DUP4 PUSH4 0xFFFFFFFF AND PUSH1 0xE0 SHL DUP2 MSTORE PUSH1 0x4 ADD PUSH2 0x6DC SWAP3 SWAP2 SWAP1 PUSH2 0xA06 JUMP JUMPDEST PUSH1 0x0 PUSH1 0x40 MLOAD DUP1 DUP4 SUB DUP2 PUSH1 0x0 DUP8 DUP1 EXTCODESIZE ISZERO DUP1 ISZERO PUSH2 0x6F6 JUMPI PUSH1 0x0 DUP1 REVERT JUMPDEST POP GAS CALL ISZERO DUP1 ISZERO PUSH2 0x70A JUMPI RETURNDATASIZE PUSH1 0x0 DUP1 RETURNDATACOPY RETURNDATASIZE PUSH1 0x0 REVERT JUMPDEST POP POP POP POP POP POP POP JUMP JUMPDEST PUSH1 0x0 DUP1 REVERT JUMPDEST PUSH1 0x0 PUSH20 0xFFFFFFFFFFFFFFFFFFFFFFFFFFFFFFFFFFFFFFFF DUP3 AND SWAP1 POP SWAP2 SWAP1 POP JUMP JUMPDEST PUSH1 0x0 PUSH2 0x743 DUP3 PUSH2 0x718 JUMP JUMPDEST SWAP1 POP SWAP2 SWAP1 POP JUMP JUMPDEST PUSH2 0x753 DUP2 PUSH2 0x738 JUMP JUMPDEST DUP2 EQ PUSH2 0x75E JUMPI PUSH1 0x0 DUP1 REVERT JUMPDEST POP JUMP JUMPDEST PUSH1 0x0 DUP2 CALLDATALOAD SWAP1 POP PUSH2 0x770 DUP2 PUSH2 0x74A JUMP JUMPDEST SWAP3 SWAP2 POP POP JUMP JUMPDEST PUSH1 0x0 PUSH2 0x781 DUP3 PUSH2 0x718 JUMP JUMPDEST SWAP1 POP SWAP2 SWAP1 POP JUMP JUMPDEST PUSH2 0x791 DUP2 PUSH2 0x776 JUMP JUMPDEST DUP2 EQ PUSH2 0x79C JUMPI PUSH1 0x0 DUP1 REVERT JUMPDEST POP JUMP JUMPDEST PUSH1 0x0 DUP2 CALLDATALOAD SWAP1 POP PUSH2 0x7AE DUP2 PUSH2 0x788 JUMP JUMPDEST SWAP3 SWAP2 POP POP JUMP JUMPDEST PUSH1 0x0 DUP2 SWAP1 POP SWAP2 SWAP1 POP JUMP JUMPDEST PUSH2 0x7C7 DUP2 PUSH2 0x7B4 JUMP JUMPDEST DUP2 EQ PUSH2 0x7D2 JUMPI PUSH1 0x0 DUP1 REVERT JUMPDEST POP JUMP JUMPDEST PUSH1 0x0 DUP2 CALLDATALOAD SWAP1 POP PUSH2 0x7E4 DUP2 PUSH2 0x7BE JUMP JUMPDEST SWAP3 SWAP2 POP POP JUMP JUMPDEST PUSH1 0x0 DUP1 PUSH1 0x0 DUP1 PUSH1 0x80 DUP6 DUP8 SUB SLT ISZERO PUSH2 0x804 JUMPI PUSH2 0x803 PUSH2 0x713 JUMP JUMPDEST JUMPDEST PUSH1 0x0 PUSH2 0x812 DUP8 DUP3 DUP9 ADD PUSH2 0x761 JUMP JUMPDEST SWAP5 POP POP PUSH1 0x20 PUSH2 0x823 DUP8 DUP3 DUP9 ADD PUSH2 0x79F JUMP JUMPDEST SWAP4 POP POP PUSH1 0x40 PUSH2 0x834 DUP8 DUP3 DUP9 ADD PUSH2 0x761 JUMP JUMPDEST SWAP3 POP POP PUSH1 0x60 PUSH2 0x845 DUP8 DUP3 DUP9 ADD PUSH2 0x7D5 JUMP JUMPDEST SWAP2 POP POP SWAP3 SWAP6 SWAP2 SWAP5 POP SWAP3 POP JUMP JUMPDEST PUSH1 0x0 PUSH1 0x20 DUP3 DUP5 SUB SLT ISZERO PUSH2 0x867 JUMPI PUSH2 0x866 PUSH2 0x713 JUMP JUMPDEST JUMPDEST PUSH1 0x0 PUSH2 0x875 DUP5 DUP3 DUP6 ADD PUSH2 0x7D5 JUMP JUMPDEST SWAP2 POP POP SWAP3 SWAP2 POP POP JUMP JUMPDEST PUSH1 0x0 DUP1 PUSH1 0x40 DUP4 DUP6 SUB SLT ISZERO PUSH2 0x895 JUMPI PUSH2 0x894 PUSH2 0x713 JUMP JUMPDEST JUMPDEST PUSH1 0x0 PUSH2 0x8A3 DUP6 DUP3 DUP7 ADD PUSH2 0x79F JUMP JUMPDEST SWAP3 POP POP PUSH1 0x20 PUSH2 0x8B4 DUP6 DUP3 DUP7 ADD PUSH2 0x7D5 JUMP JUMPDEST SWAP2 POP POP SWAP3 POP SWAP3 SWAP1 POP JUMP JUMPDEST PUSH1 0x0 DUP1 PUSH1 0x40 DUP4 DUP6 SUB SLT ISZERO PUSH2 0x8D5 JUMPI PUSH2 0x8D4 PUSH2 0x713 JUMP JUMPDEST JUMPDEST PUSH1 0x0 PUSH2 0x8E3 DUP6 DUP3 DUP7 ADD PUSH2 0x761 JUMP JUMPDEST SWAP3 POP POP PUSH1 0x20 PUSH2 0x8F4 DUP6 DUP3 DUP7 ADD PUSH2 0x7D5 JUMP JUMPDEST SWAP2 POP POP SWAP3 POP SWAP3 SWAP1 POP JUMP JUMPDEST PUSH1 0x0 DUP1 PUSH1 0x0 PUSH1 0x60 DUP5 DUP7 SUB SLT ISZERO PUSH2 0x917 JUMPI PUSH2 0x916 PUSH2 0x713 JUMP JUMPDEST JUMPDEST PUSH1 0x0 PUSH2 0x925 DUP7 DUP3 DUP8 ADD PUSH2 0x761 JUMP JUMPDEST SWAP4 POP POP PUSH1 0x20 PUSH2 0x936 DUP7 DUP3 DUP8 ADD PUSH2 0x79F JUMP JUMPDEST SWAP3 POP POP PUSH1 0x40 PUSH2 0x947 DUP7 DUP3 DUP8 ADD PUSH2 0x7D5 JUMP JUMPDEST SWAP2 POP POP SWAP3 POP SWAP3 POP SWAP3 JUMP JUMPDEST PUSH32 0x4E487B7100000000000000000000000000000000000000000000000000000000 PUSH1 0x0 MSTORE PUSH1 0x11 PUSH1 0x4 MSTORE PUSH1 0x24 PUSH1 0x0 REVERT JUMPDEST PUSH1 0x0 PUSH2 0x98B DUP3 PUSH2 0x7B4 JUMP JUMPDEST SWAP2 POP PUSH2 0x996 DUP4 PUSH2 0x7B4 JUMP JUMPDEST SWAP3 POP DUP3 DUP3 ADD SWAP1 POP DUP1 DUP3 GT ISZERO PUSH2 0x9AE JUMPI PUSH2 0x9AD PUSH2 0x951 JUMP JUMPDEST JUMPDEST SWAP3 SWAP2 POP POP JUMP JUMPDEST PUSH1 0x0 PUSH2 0x9BF DUP3 PUSH2 0x7B4 JUMP JUMPDEST SWAP2 POP PUSH2 0x9CA DUP4 PUSH2 0x7B4 JUMP JUMPDEST SWAP3 POP DUP3 DUP3 SUB SWAP1 POP DUP2 DUP2 GT ISZERO PUSH2 0x9E2 JUMPI PUSH2 0x9E1 PUSH2 0x951 JUMP JUMPDEST JUMPDEST SWAP3 SWAP2 POP POP JUMP JUMPDEST PUSH2 0x9F1 DUP2 PUSH2 0x776 JUMP JUMPDEST DUP3 MSTORE POP POP JUMP JUMPDEST PUSH2 0xA00 DUP2 PUSH2 0x7B4 JUMP JUMPDEST DUP3 MSTORE POP POP JUMP JUMPDEST PUSH1 0x0 PUSH1 0x40 DUP3 ADD SWAP1 POP PUSH2 0xA1B PUSH1 0x0 DUP4 ADD DUP6 PUSH2 0x9E8 JUMP JUMPDEST PUSH2 0xA28 PUSH1 0x20 DUP4 ADD DUP5 PUSH2 0x9F7 JUMP JUMPDEST SWAP4 SWAP3 POP POP POP JUMP INVALID LOG2 PUSH5 0x6970667358 0x22 SLT KECCAK256 0xCC 0xAE 0xC5 SWAP15 CALLDATACOPY DUP14 PUSH30 0x384D859C7333305295ADFE0C319304989F28F70AE4119B785E64736F6C63 NUMBER STOP ADDMOD SLT STOP CALLER "
				},
				"gasEstimates": {
					"creation": {
						"codeDepositCost": "532200",
						"executionCost": "568",
						"totalCost": "532768"
					},
					"external": {
						"_depositToBank(address,address,uint256)": "infinite",
						"depositToApp(uint256)": "infinite",
						"depositToBank(address,uint256)": "infinite",
						"transferTo(address,uint256)": "infinite",
						"transferWire(address,address,address,uint256)": "infinite",
						"withdrawFromApp(uint256)": "infinite",
						"withdrawFromBank(address,uint256)": "infinite"
					}
				},
				"methodIdentifiers": {
					"_depositToBank(address,address,uint256)": "bb85f016",
					"depositToApp(uint256)": "8458e57c",
					"depositToBank(address,uint256)": "e473adc2",
					"transferTo(address,uint256)": "2ccb1b30",
					"transferWire(address,address,address,uint256)": "274956e9",
					"withdrawFromApp(uint256)": "27b52dde",
					"withdrawFromBank(address,uint256)": "5d74f844"
				}
			},
			"storageLayout": {
				"storage": [
					{
						"astId": 5,
						"contract": "contracts/230525/1.sol:Note",
						"label": "balance",
						"offset": 0,
						"slot": "0",
						"type": "t_mapping(t_address,t_uint256)"
					},
					{
						"astId": 11,
						"contract": "contracts/230525/1.sol:Note",
						"label": "bankAccounts",
						"offset": 0,
						"slot": "1",
						"type": "t_mapping(t_address,t_mapping(t_address,t_uint256))"
					}
				],
				"types": {
					"t_address": {
						"encoding": "inplace",
						"label": "address",
						"numberOfBytes": "20"
					},
					"t_mapping(t_address,t_mapping(t_address,t_uint256))": {
						"encoding": "mapping",
						"key": "t_address",
						"label": "mapping(address => mapping(address => uint256))",
						"numberOfBytes": "32",
						"value": "t_mapping(t_address,t_uint256)"
					},
					"t_mapping(t_address,t_uint256)": {
						"encoding": "mapping",
						"key": "t_address",
						"label": "mapping(address => uint256)",
						"numberOfBytes": "32",
						"value": "t_uint256"
					},
					"t_uint256": {
						"encoding": "inplace",
						"label": "uint256",
						"numberOfBytes": "32"
					}
				}
			},
			"userdoc": {
				"kind": "user",
				"methods": {},
				"version": 1
			}
		}
	}
}