{
	"data": {
		"bytecode": {
			"linkReferences": {},
			"object": "608060405234801561001057600080fd5b50610944806100206000396000f3fe608060405234801561001057600080fd5b50600436106100365760003560e01c8063168bee491461003b578063de42b6d61461006b575b600080fd5b6100556004803603810190610050919061041a565b61009c565b60405161006291906104fd565b60405180910390f35b61008560048036038101906100809190610654565b610191565b6040516100939291906106e5565b60405180910390f35b6060600182101580156100b05750601a8211155b6100b957600080fd5b60006100c4856101af565b905060006100d1856101af565b905060006040518060400160405280601a81526020017f6162636465666768696a6b6c6d6e6f707172737475767778797a000000000000815250905060008160018761011d919061073d565b8151811061012e5761012d610771565b5b602001015160f81c60f81b905060008160405160200161014e91906107ed565b604051602081830303815290604052905084848260405160200161017493929190610890565b604051602081830303815290604052955050505050509392505050565b60008083805190602001208380519060200120915091509250929050565b6060600060016101be8461027d565b01905060008167ffffffffffffffff8111156101dd576101dc610529565b5b6040519080825280601f01601f19166020018201604052801561020f5781602001600182028036833780820191505090505b509050600082602001820190505b600115610272578080600190039150507f3031323334353637383961626364656600000000000000000000000000000000600a86061a8153600a8581610266576102656108df565b5b0494506000850361021d575b819350505050919050565b600080600090507a184f03e93ff9f4daa797ed6e38ed64bf6a1f01000000000000000083106102db577a184f03e93ff9f4daa797ed6e38ed64bf6a1f01000000000000000083816102d1576102d06108df565b5b0492506040810190505b6d04ee2d6d415b85acef81000000008310610318576d04ee2d6d415b85acef8100000000838161030e5761030d6108df565b5b0492506020810190505b662386f26fc10000831061034757662386f26fc10000838161033d5761033c6108df565b5b0492506010810190505b6305f5e1008310610370576305f5e1008381610366576103656108df565b5b0492506008810190505b612710831061039557612710838161038b5761038a6108df565b5b0492506004810190505b606483106103b857606483816103ae576103ad6108df565b5b0492506002810190505b600a83106103c7576001810190505b80915050919050565b6000604051905090565b600080fd5b600080fd5b6000819050919050565b6103f7816103e4565b811461040257600080fd5b50565b600081359050610414816103ee565b92915050565b600080600060608486031215610433576104326103da565b5b600061044186828701610405565b935050602061045286828701610405565b925050604061046386828701610405565b9150509250925092565b600081519050919050565b600082825260208201905092915050565b60005b838110156104a757808201518184015260208101905061048c565b60008484015250505050565b6000601f19601f8301169050919050565b60006104cf8261046d565b6104d98185610478565b93506104e9818560208601610489565b6104f2816104b3565b840191505092915050565b6000602082019050818103600083015261051781846104c4565b905092915050565b600080fd5b600080fd5b7f4e487b7100000000000000000000000000000000000000000000000000000000600052604160045260246000fd5b610561826104b3565b810181811067ffffffffffffffff821117156105805761057f610529565b5b80604052505050565b60006105936103d0565b905061059f8282610558565b919050565b600067ffffffffffffffff8211156105bf576105be610529565b5b6105c8826104b3565b9050602081019050919050565b82818337600083830152505050565b60006105f76105f2846105a4565b610589565b90508281526020810184848401111561061357610612610524565b5b61061e8482856105d5565b509392505050565b600082601f83011261063b5761063a61051f565b5b813561064b8482602086016105e4565b91505092915050565b6000806040838503121561066b5761066a6103da565b5b600083013567ffffffffffffffff811115610689576106886103df565b5b61069585828601610626565b925050602083013567ffffffffffffffff8111156106b6576106b56103df565b5b6106c285828601610626565b9150509250929050565b6000819050919050565b6106df816106cc565b82525050565b60006040820190506106fa60008301856106d6565b61070760208301846106d6565b9392505050565b7f4e487b7100000000000000000000000000000000000000000000000000000000600052601160045260246000fd5b6000610748826103e4565b9150610753836103e4565b925082820390508181111561076b5761076a61070e565b5b92915050565b7f4e487b7100000000000000000000000000000000000000000000000000000000600052603260045260246000fd5b60007fff0000000000000000000000000000000000000000000000000000000000000082169050919050565b6000819050919050565b6107e76107e2826107a0565b6107cc565b82525050565b60006107f982846107d6565b60018201915081905092915050565b600081905092915050565b600061081e8261046d565b6108288185610808565b9350610838818560208601610489565b80840191505092915050565b7f20616e6420000000000000000000000000000000000000000000000000000000815250565b7f206f722000000000000000000000000000000000000000000000000000000000815250565b600061089c8286610813565b91506108a782610844565b6005820191506108b78285610813565b91506108c28261086a565b6004820191506108d28284610813565b9150819050949350505050565b7f4e487b7100000000000000000000000000000000000000000000000000000000600052601260045260246000fdfea2646970667358221220c623cd39a6cc2672a52094a77cf70bbe4ffc2c8ac9b33f76d696767d7daf090564736f6c63430008120033",
			"opcodes": "PUSH1 0x80 PUSH1 0x40 MSTORE CALLVALUE DUP1 ISZERO PUSH2 0x10 JUMPI PUSH1 0x0 DUP1 REVERT JUMPDEST POP PUSH2 0x944 DUP1 PUSH2 0x20 PUSH1 0x0 CODECOPY PUSH1 0x0 RETURN INVALID PUSH1 0x80 PUSH1 0x40 MSTORE CALLVALUE DUP1 ISZERO PUSH2 0x10 JUMPI PUSH1 0x0 DUP1 REVERT JUMPDEST POP PUSH1 0x4 CALLDATASIZE LT PUSH2 0x36 JUMPI PUSH1 0x0 CALLDATALOAD PUSH1 0xE0 SHR DUP1 PUSH4 0x168BEE49 EQ PUSH2 0x3B JUMPI DUP1 PUSH4 0xDE42B6D6 EQ PUSH2 0x6B JUMPI JUMPDEST PUSH1 0x0 DUP1 REVERT JUMPDEST PUSH2 0x55 PUSH1 0x4 DUP1 CALLDATASIZE SUB DUP2 ADD SWAP1 PUSH2 0x50 SWAP2 SWAP1 PUSH2 0x41A JUMP JUMPDEST PUSH2 0x9C JUMP JUMPDEST PUSH1 0x40 MLOAD PUSH2 0x62 SWAP2 SWAP1 PUSH2 0x4FD JUMP JUMPDEST PUSH1 0x40 MLOAD DUP1 SWAP2 SUB SWAP1 RETURN JUMPDEST PUSH2 0x85 PUSH1 0x4 DUP1 CALLDATASIZE SUB DUP2 ADD SWAP1 PUSH2 0x80 SWAP2 SWAP1 PUSH2 0x654 JUMP JUMPDEST PUSH2 0x191 JUMP JUMPDEST PUSH1 0x40 MLOAD PUSH2 0x93 SWAP3 SWAP2 SWAP1 PUSH2 0x6E5 JUMP JUMPDEST PUSH1 0x40 MLOAD DUP1 SWAP2 SUB SWAP1 RETURN JUMPDEST PUSH1 0x60 PUSH1 0x1 DUP3 LT ISZERO DUP1 ISZERO PUSH2 0xB0 JUMPI POP PUSH1 0x1A DUP3 GT ISZERO JUMPDEST PUSH2 0xB9 JUMPI PUSH1 0x0 DUP1 REVERT JUMPDEST PUSH1 0x0 PUSH2 0xC4 DUP6 PUSH2 0x1AF JUMP JUMPDEST SWAP1 POP PUSH1 0x0 PUSH2 0xD1 DUP6 PUSH2 0x1AF JUMP JUMPDEST SWAP1 POP PUSH1 0x0 PUSH1 0x40 MLOAD DUP1 PUSH1 0x40 ADD PUSH1 0x40 MSTORE DUP1 PUSH1 0x1A DUP2 MSTORE PUSH1 0x20 ADD PUSH32 0x6162636465666768696A6B6C6D6E6F707172737475767778797A000000000000 DUP2 MSTORE POP SWAP1 POP PUSH1 0x0 DUP2 PUSH1 0x1 DUP8 PUSH2 0x11D SWAP2 SWAP1 PUSH2 0x73D JUMP JUMPDEST DUP2 MLOAD DUP2 LT PUSH2 0x12E JUMPI PUSH2 0x12D PUSH2 0x771 JUMP JUMPDEST JUMPDEST PUSH1 0x20 ADD ADD MLOAD PUSH1 0xF8 SHR PUSH1 0xF8 SHL SWAP1 POP PUSH1 0x0 DUP2 PUSH1 0x40 MLOAD PUSH1 0x20 ADD PUSH2 0x14E SWAP2 SWAP1 PUSH2 0x7ED JUMP JUMPDEST PUSH1 0x40 MLOAD PUSH1 0x20 DUP2 DUP4 SUB SUB DUP2 MSTORE SWAP1 PUSH1 0x40 MSTORE SWAP1 POP DUP5 DUP5 DUP3 PUSH1 0x40 MLOAD PUSH1 0x20 ADD PUSH2 0x174 SWAP4 SWAP3 SWAP2 SWAP1 PUSH2 0x890 JUMP JUMPDEST PUSH1 0x40 MLOAD PUSH1 0x20 DUP2 DUP4 SUB SUB DUP2 MSTORE SWAP1 PUSH1 0x40 MSTORE SWAP6 POP POP POP POP POP POP SWAP4 SWAP3 POP POP POP JUMP JUMPDEST PUSH1 0x0 DUP1 DUP4 DUP1 MLOAD SWAP1 PUSH1 0x20 ADD KECCAK256 DUP4 DUP1 MLOAD SWAP1 PUSH1 0x20 ADD KECCAK256 SWAP2 POP SWAP2 POP SWAP3 POP SWAP3 SWAP1 POP JUMP JUMPDEST PUSH1 0x60 PUSH1 0x0 PUSH1 0x1 PUSH2 0x1BE DUP5 PUSH2 0x27D JUMP JUMPDEST ADD SWAP1 POP PUSH1 0x0 DUP2 PUSH8 0xFFFFFFFFFFFFFFFF DUP2 GT ISZERO PUSH2 0x1DD JUMPI PUSH2 0x1DC PUSH2 0x529 JUMP JUMPDEST JUMPDEST PUSH1 0x40 MLOAD SWAP1 DUP1 DUP3 MSTORE DUP1 PUSH1 0x1F ADD PUSH1 0x1F NOT AND PUSH1 0x20 ADD DUP3 ADD PUSH1 0x40 MSTORE DUP1 ISZERO PUSH2 0x20F JUMPI DUP2 PUSH1 0x20 ADD PUSH1 0x1 DUP3 MUL DUP1 CALLDATASIZE DUP4 CALLDATACOPY DUP1 DUP3 ADD SWAP2 POP POP SWAP1 POP JUMPDEST POP SWAP1 POP PUSH1 0x0 DUP3 PUSH1 0x20 ADD DUP3 ADD SWAP1 POP JUMPDEST PUSH1 0x1 ISZERO PUSH2 0x272 JUMPI DUP1 DUP1 PUSH1 0x1 SWAP1 SUB SWAP2 POP POP PUSH32 0x3031323334353637383961626364656600000000000000000000000000000000 PUSH1 0xA DUP7 MOD BYTE DUP2 MSTORE8 PUSH1 0xA DUP6 DUP2 PUSH2 0x266 JUMPI PUSH2 0x265 PUSH2 0x8DF JUMP JUMPDEST JUMPDEST DIV SWAP5 POP PUSH1 0x0 DUP6 SUB PUSH2 0x21D JUMPI JUMPDEST DUP2 SWAP4 POP POP POP POP SWAP2 SWAP1 POP JUMP JUMPDEST PUSH1 0x0 DUP1 PUSH1 0x0 SWAP1 POP PUSH27 0x184F03E93FF9F4DAA797ED6E38ED64BF6A1F010000000000000000 DUP4 LT PUSH2 0x2DB JUMPI PUSH27 0x184F03E93FF9F4DAA797ED6E38ED64BF6A1F010000000000000000 DUP4 DUP2 PUSH2 0x2D1 JUMPI PUSH2 0x2D0 PUSH2 0x8DF JUMP JUMPDEST JUMPDEST DIV SWAP3 POP PUSH1 0x40 DUP2 ADD SWAP1 POP JUMPDEST PUSH14 0x4EE2D6D415B85ACEF8100000000 DUP4 LT PUSH2 0x318 JUMPI PUSH14 0x4EE2D6D415B85ACEF8100000000 DUP4 DUP2 PUSH2 0x30E JUMPI PUSH2 0x30D PUSH2 0x8DF JUMP JUMPDEST JUMPDEST DIV SWAP3 POP PUSH1 0x20 DUP2 ADD SWAP1 POP JUMPDEST PUSH7 0x2386F26FC10000 DUP4 LT PUSH2 0x347 JUMPI PUSH7 0x2386F26FC10000 DUP4 DUP2 PUSH2 0x33D JUMPI PUSH2 0x33C PUSH2 0x8DF JUMP JUMPDEST JUMPDEST DIV SWAP3 POP PUSH1 0x10 DUP2 ADD SWAP1 POP JUMPDEST PUSH4 0x5F5E100 DUP4 LT PUSH2 0x370 JUMPI PUSH4 0x5F5E100 DUP4 DUP2 PUSH2 0x366 JUMPI PUSH2 0x365 PUSH2 0x8DF JUMP JUMPDEST JUMPDEST DIV SWAP3 POP PUSH1 0x8 DUP2 ADD SWAP1 POP JUMPDEST PUSH2 0x2710 DUP4 LT PUSH2 0x395 JUMPI PUSH2 0x2710 DUP4 DUP2 PUSH2 0x38B JUMPI PUSH2 0x38A PUSH2 0x8DF JUMP JUMPDEST JUMPDEST DIV SWAP3 POP PUSH1 0x4 DUP2 ADD SWAP1 POP JUMPDEST PUSH1 0x64 DUP4 LT PUSH2 0x3B8 JUMPI PUSH1 0x64 DUP4 DUP2 PUSH2 0x3AE JUMPI PUSH2 0x3AD PUSH2 0x8DF JUMP JUMPDEST JUMPDEST DIV SWAP3 POP PUSH1 0x2 DUP2 ADD SWAP1 POP JUMPDEST PUSH1 0xA DUP4 LT PUSH2 0x3C7 JUMPI PUSH1 0x1 DUP2 ADD SWAP1 POP JUMPDEST DUP1 SWAP2 POP POP SWAP2 SWAP1 POP JUMP JUMPDEST PUSH1 0x0 PUSH1 0x40 MLOAD SWAP1 POP SWAP1 JUMP JUMPDEST PUSH1 0x0 DUP1 REVERT JUMPDEST PUSH1 0x0 DUP1 REVERT JUMPDEST PUSH1 0x0 DUP2 SWAP1 POP SWAP2 SWAP1 POP JUMP JUMPDEST PUSH2 0x3F7 DUP2 PUSH2 0x3E4 JUMP JUMPDEST DUP2 EQ PUSH2 0x402 JUMPI PUSH1 0x0 DUP1 REVERT JUMPDEST POP JUMP JUMPDEST PUSH1 0x0 DUP2 CALLDATALOAD SWAP1 POP PUSH2 0x414 DUP2 PUSH2 0x3EE JUMP JUMPDEST SWAP3 SWAP2 POP POP JUMP JUMPDEST PUSH1 0x0 DUP1 PUSH1 0x0 PUSH1 0x60 DUP5 DUP7 SUB SLT ISZERO PUSH2 0x433 JUMPI PUSH2 0x432 PUSH2 0x3DA JUMP JUMPDEST JUMPDEST PUSH1 0x0 PUSH2 0x441 DUP7 DUP3 DUP8 ADD PUSH2 0x405 JUMP JUMPDEST SWAP4 POP POP PUSH1 0x20 PUSH2 0x452 DUP7 DUP3 DUP8 ADD PUSH2 0x405 JUMP JUMPDEST SWAP3 POP POP PUSH1 0x40 PUSH2 0x463 DUP7 DUP3 DUP8 ADD PUSH2 0x405 JUMP JUMPDEST SWAP2 POP POP SWAP3 POP SWAP3 POP SWAP3 JUMP JUMPDEST PUSH1 0x0 DUP2 MLOAD SWAP1 POP SWAP2 SWAP1 POP JUMP JUMPDEST PUSH1 0x0 DUP3 DUP3 MSTORE PUSH1 0x20 DUP3 ADD SWAP1 POP SWAP3 SWAP2 POP POP JUMP JUMPDEST PUSH1 0x0 JUMPDEST DUP4 DUP2 LT ISZERO PUSH2 0x4A7 JUMPI DUP1 DUP3 ADD MLOAD DUP2 DUP5 ADD MSTORE PUSH1 0x20 DUP2 ADD SWAP1 POP PUSH2 0x48C JUMP JUMPDEST PUSH1 0x0 DUP5 DUP5 ADD MSTORE POP POP POP POP JUMP JUMPDEST PUSH1 0x0 PUSH1 0x1F NOT PUSH1 0x1F DUP4 ADD AND SWAP1 POP SWAP2 SWAP1 POP JUMP JUMPDEST PUSH1 0x0 PUSH2 0x4CF DUP3 PUSH2 0x46D JUMP JUMPDEST PUSH2 0x4D9 DUP2 DUP6 PUSH2 0x478 JUMP JUMPDEST SWAP4 POP PUSH2 0x4E9 DUP2 DUP6 PUSH1 0x20 DUP7 ADD PUSH2 0x489 JUMP JUMPDEST PUSH2 0x4F2 DUP2 PUSH2 0x4B3 JUMP JUMPDEST DUP5 ADD SWAP2 POP POP SWAP3 SWAP2 POP POP JUMP JUMPDEST PUSH1 0x0 PUSH1 0x20 DUP3 ADD SWAP1 POP DUP2 DUP2 SUB PUSH1 0x0 DUP4 ADD MSTORE PUSH2 0x517 DUP2 DUP5 PUSH2 0x4C4 JUMP JUMPDEST SWAP1 POP SWAP3 SWAP2 POP POP JUMP JUMPDEST PUSH1 0x0 DUP1 REVERT JUMPDEST PUSH1 0x0 DUP1 REVERT JUMPDEST PUSH32 0x4E487B7100000000000000000000000000000000000000000000000000000000 PUSH1 0x0 MSTORE PUSH1 0x41 PUSH1 0x4 MSTORE PUSH1 0x24 PUSH1 0x0 REVERT JUMPDEST PUSH2 0x561 DUP3 PUSH2 0x4B3 JUMP JUMPDEST DUP2 ADD DUP2 DUP2 LT PUSH8 0xFFFFFFFFFFFFFFFF DUP3 GT OR ISZERO PUSH2 0x580 JUMPI PUSH2 0x57F PUSH2 0x529 JUMP JUMPDEST JUMPDEST DUP1 PUSH1 0x40 MSTORE POP POP POP JUMP JUMPDEST PUSH1 0x0 PUSH2 0x593 PUSH2 0x3D0 JUMP JUMPDEST SWAP1 POP PUSH2 0x59F DUP3 DUP3 PUSH2 0x558 JUMP JUMPDEST SWAP2 SWAP1 POP JUMP JUMPDEST PUSH1 0x0 PUSH8 0xFFFFFFFFFFFFFFFF DUP3 GT ISZERO PUSH2 0x5BF JUMPI PUSH2 0x5BE PUSH2 0x529 JUMP JUMPDEST JUMPDEST PUSH2 0x5C8 DUP3 PUSH2 0x4B3 JUMP JUMPDEST SWAP1 POP PUSH1 0x20 DUP2 ADD SWAP1 POP SWAP2 SWAP1 POP JUMP JUMPDEST DUP3 DUP2 DUP4 CALLDATACOPY PUSH1 0x0 DUP4 DUP4 ADD MSTORE POP POP POP JUMP JUMPDEST PUSH1 0x0 PUSH2 0x5F7 PUSH2 0x5F2 DUP5 PUSH2 0x5A4 JUMP JUMPDEST PUSH2 0x589 JUMP JUMPDEST SWAP1 POP DUP3 DUP2 MSTORE PUSH1 0x20 DUP2 ADD DUP5 DUP5 DUP5 ADD GT ISZERO PUSH2 0x613 JUMPI PUSH2 0x612 PUSH2 0x524 JUMP JUMPDEST JUMPDEST PUSH2 0x61E DUP5 DUP3 DUP6 PUSH2 0x5D5 JUMP JUMPDEST POP SWAP4 SWAP3 POP POP POP JUMP JUMPDEST PUSH1 0x0 DUP3 PUSH1 0x1F DUP4 ADD SLT PUSH2 0x63B JUMPI PUSH2 0x63A PUSH2 0x51F JUMP JUMPDEST JUMPDEST DUP2 CALLDATALOAD PUSH2 0x64B DUP5 DUP3 PUSH1 0x20 DUP7 ADD PUSH2 0x5E4 JUMP JUMPDEST SWAP2 POP POP SWAP3 SWAP2 POP POP JUMP JUMPDEST PUSH1 0x0 DUP1 PUSH1 0x40 DUP4 DUP6 SUB SLT ISZERO PUSH2 0x66B JUMPI PUSH2 0x66A PUSH2 0x3DA JUMP JUMPDEST JUMPDEST PUSH1 0x0 DUP4 ADD CALLDATALOAD PUSH8 0xFFFFFFFFFFFFFFFF DUP2 GT ISZERO PUSH2 0x689 JUMPI PUSH2 0x688 PUSH2 0x3DF JUMP JUMPDEST JUMPDEST PUSH2 0x695 DUP6 DUP3 DUP7 ADD PUSH2 0x626 JUMP JUMPDEST SWAP3 POP POP PUSH1 0x20 DUP4 ADD CALLDATALOAD PUSH8 0xFFFFFFFFFFFFFFFF DUP2 GT ISZERO PUSH2 0x6B6 JUMPI PUSH2 0x6B5 PUSH2 0x3DF JUMP JUMPDEST JUMPDEST PUSH2 0x6C2 DUP6 DUP3 DUP7 ADD PUSH2 0x626 JUMP JUMPDEST SWAP2 POP POP SWAP3 POP SWAP3 SWAP1 POP JUMP JUMPDEST PUSH1 0x0 DUP2 SWAP1 POP SWAP2 SWAP1 POP JUMP JUMPDEST PUSH2 0x6DF DUP2 PUSH2 0x6CC JUMP JUMPDEST DUP3 MSTORE POP POP JUMP JUMPDEST PUSH1 0x0 PUSH1 0x40 DUP3 ADD SWAP1 POP PUSH2 0x6FA PUSH1 0x0 DUP4 ADD DUP6 PUSH2 0x6D6 JUMP JUMPDEST PUSH2 0x707 PUSH1 0x20 DUP4 ADD DUP5 PUSH2 0x6D6 JUMP JUMPDEST SWAP4 SWAP3 POP POP POP JUMP JUMPDEST PUSH32 0x4E487B7100000000000000000000000000000000000000000000000000000000 PUSH1 0x0 MSTORE PUSH1 0x11 PUSH1 0x4 MSTORE PUSH1 0x24 PUSH1 0x0 REVERT JUMPDEST PUSH1 0x0 PUSH2 0x748 DUP3 PUSH2 0x3E4 JUMP JUMPDEST SWAP2 POP PUSH2 0x753 DUP4 PUSH2 0x3E4 JUMP JUMPDEST SWAP3 POP DUP3 DUP3 SUB SWAP1 POP DUP2 DUP2 GT ISZERO PUSH2 0x76B JUMPI PUSH2 0x76A PUSH2 0x70E JUMP JUMPDEST JUMPDEST SWAP3 SWAP2 POP POP JUMP JUMPDEST PUSH32 0x4E487B7100000000000000000000000000000000000000000000000000000000 PUSH1 0x0 MSTORE PUSH1 0x32 PUSH1 0x4 MSTORE PUSH1 0x24 PUSH1 0x0 REVERT JUMPDEST PUSH1 0x0 PUSH32 0xFF00000000000000000000000000000000000000000000000000000000000000 DUP3 AND SWAP1 POP SWAP2 SWAP1 POP JUMP JUMPDEST PUSH1 0x0 DUP2 SWAP1 POP SWAP2 SWAP1 POP JUMP JUMPDEST PUSH2 0x7E7 PUSH2 0x7E2 DUP3 PUSH2 0x7A0 JUMP JUMPDEST PUSH2 0x7CC JUMP JUMPDEST DUP3 MSTORE POP POP JUMP JUMPDEST PUSH1 0x0 PUSH2 0x7F9 DUP3 DUP5 PUSH2 0x7D6 JUMP JUMPDEST PUSH1 0x1 DUP3 ADD SWAP2 POP DUP2 SWAP1 POP SWAP3 SWAP2 POP POP JUMP JUMPDEST PUSH1 0x0 DUP2 SWAP1 POP SWAP3 SWAP2 POP POP JUMP JUMPDEST PUSH1 0x0 PUSH2 0x81E DUP3 PUSH2 0x46D JUMP JUMPDEST PUSH2 0x828 DUP2 DUP6 PUSH2 0x808 JUMP JUMPDEST SWAP4 POP PUSH2 0x838 DUP2 DUP6 PUSH1 0x20 DUP7 ADD PUSH2 0x489 JUMP JUMPDEST DUP1 DUP5 ADD SWAP2 POP POP SWAP3 SWAP2 POP POP JUMP JUMPDEST PUSH32 0x20616E6420000000000000000000000000000000000000000000000000000000 DUP2 MSTORE POP JUMP JUMPDEST PUSH32 0x206F722000000000000000000000000000000000000000000000000000000000 DUP2 MSTORE POP JUMP JUMPDEST PUSH1 0x0 PUSH2 0x89C DUP3 DUP7 PUSH2 0x813 JUMP JUMPDEST SWAP2 POP PUSH2 0x8A7 DUP3 PUSH2 0x844 JUMP JUMPDEST PUSH1 0x5 DUP3 ADD SWAP2 POP PUSH2 0x8B7 DUP3 DUP6 PUSH2 0x813 JUMP JUMPDEST SWAP2 POP PUSH2 0x8C2 DUP3 PUSH2 0x86A JUMP JUMPDEST PUSH1 0x4 DUP3 ADD SWAP2 POP PUSH2 0x8D2 DUP3 DUP5 PUSH2 0x813 JUMP JUMPDEST SWAP2 POP DUP2 SWAP1 POP SWAP5 SWAP4 POP POP POP POP JUMP JUMPDEST PUSH32 0x4E487B7100000000000000000000000000000000000000000000000000000000 PUSH1 0x0 MSTORE PUSH1 0x12 PUSH1 0x4 MSTORE PUSH1 0x24 PUSH1 0x0 REVERT INVALID LOG2 PUSH5 0x6970667358 0x22 SLT KECCAK256 0xC6 0x23 0xCD CODECOPY 0xA6 0xCC 0x26 PUSH19 0xA52094A77CF70BBE4FFC2C8AC9B33F76D69676 PUSH30 0x7DAF090564736F6C63430008120033000000000000000000000000000000 "
		},
		"gasEstimates": {
			"creation": {
				"codeDepositCost": "474400",
				"executionCost": "511",
				"totalCost": "474911"
			},
			"external": {
				"Q28(string,string)": "infinite",
				"Q69(uint256,uint256,uint256)": "infinite"
			}
		},
		"methodIdentifiers": {
			"Q28(string,string)": "de42b6d6",
			"Q69(uint256,uint256,uint256)": "168bee49"
		}
	},
	"abi": [
		{
			"inputs": [
				{
					"internalType": "string",
					"name": "_ID",
					"type": "string"
				},
				{
					"internalType": "string",
					"name": "_PW",
					"type": "string"
				}
			],
			"name": "Q28",
			"outputs": [
				{
					"internalType": "bytes32",
					"name": "",
					"type": "bytes32"
				},
				{
					"internalType": "bytes32",
					"name": "",
					"type": "bytes32"
				}
			],
			"stateMutability": "pure",
			"type": "function"
		},
		{
			"inputs": [
				{
					"internalType": "uint256",
					"name": "_a",
					"type": "uint256"
				},
				{
					"internalType": "uint256",
					"name": "_b",
					"type": "uint256"
				},
				{
					"internalType": "uint256",
					"name": "_c",
					"type": "uint256"
				}
			],
			"name": "Q69",
			"outputs": [
				{
					"internalType": "string",
					"name": "",
					"type": "string"
				}
			],
			"stateMutability": "pure",
			"type": "function"
		}
	]
}