{
	"contracts/Solidity Break!!/7.sol": {
		"Q7": {
			"abi": [
				{
					"inputs": [],
					"name": "allAdd",
					"outputs": [
						{
							"internalType": "uint256",
							"name": "",
							"type": "uint256"
						}
					],
					"stateMutability": "view",
					"type": "function"
				},
				{
					"inputs": [],
					"name": "autoNum",
					"outputs": [],
					"stateMutability": "nonpayable",
					"type": "function"
				},
				{
					"inputs": [],
					"name": "getArray",
					"outputs": [
						{
							"internalType": "uint256[]",
							"name": "",
							"type": "uint256[]"
						}
					],
					"stateMutability": "view",
					"type": "function"
				}
			],
			"devdoc": {
				"kind": "dev",
				"methods": {},
				"version": 1
			},
			"evm": {
				"assembly": "    /* \"contracts/Solidity Break!!/7.sol\":300:727  contract Q7 {... */\n  mstore(0x40, 0x80)\n  callvalue\n  dup1\n  iszero\n  tag_1\n  jumpi\n  0x00\n  dup1\n  revert\ntag_1:\n  pop\n  dataSize(sub_0)\n  dup1\n  dataOffset(sub_0)\n  0x00\n  codecopy\n  0x00\n  return\nstop\n\nsub_0: assembly {\n        /* \"contracts/Solidity Break!!/7.sol\":300:727  contract Q7 {... */\n      mstore(0x40, 0x80)\n      callvalue\n      dup1\n      iszero\n      tag_1\n      jumpi\n      0x00\n      dup1\n      revert\n    tag_1:\n      pop\n      jumpi(tag_2, lt(calldatasize, 0x04))\n      shr(0xe0, calldataload(0x00))\n      dup1\n      0x0a30ba3d\n      eq\n      tag_3\n      jumpi\n      dup1\n      0x679bb917\n      eq\n      tag_4\n      jumpi\n      dup1\n      0xd504ea1d\n      eq\n      tag_5\n      jumpi\n    tag_2:\n      0x00\n      dup1\n      revert\n        /* \"contracts/Solidity Break!!/7.sol\":545:725  function allAdd() public view returns (uint) {... */\n    tag_3:\n      tag_6\n      tag_7\n      jump\t// in\n    tag_6:\n      mload(0x40)\n      tag_8\n      swap2\n      swap1\n      tag_9\n      jump\t// in\n    tag_8:\n      mload(0x40)\n      dup1\n      swap2\n      sub\n      swap1\n      return\n        /* \"contracts/Solidity Break!!/7.sol\":339:443  function autoNum() public {... */\n    tag_4:\n      tag_10\n      tag_11\n      jump\t// in\n    tag_10:\n      stop\n        /* \"contracts/Solidity Break!!/7.sol\":453:539  function getArray() public view returns(uint[] memory) {... */\n    tag_5:\n      tag_12\n      tag_13\n      jump\t// in\n    tag_12:\n      mload(0x40)\n      tag_14\n      swap2\n      swap1\n      tag_15\n      jump\t// in\n    tag_14:\n      mload(0x40)\n      dup1\n      swap2\n      sub\n      swap1\n      return\n        /* \"contracts/Solidity Break!!/7.sol\":545:725  function allAdd() public view returns (uint) {... */\n    tag_7:\n        /* \"contracts/Solidity Break!!/7.sol\":584:588  uint */\n      0x00\n        /* \"contracts/Solidity Break!!/7.sol\":600:608  uint sum */\n      dup1\n        /* \"contracts/Solidity Break!!/7.sol\":622:628  uint i */\n      0x00\n        /* \"contracts/Solidity Break!!/7.sol\":618:699  for(uint i = 0;i < numbers.length; i++){... */\n    tag_17:\n        /* \"contracts/Solidity Break!!/7.sol\":637:644  numbers */\n      0x00\n        /* \"contracts/Solidity Break!!/7.sol\":637:651  numbers.length */\n      dup1\n      sload\n      swap1\n      pop\n        /* \"contracts/Solidity Break!!/7.sol\":633:634  i */\n      dup2\n        /* \"contracts/Solidity Break!!/7.sol\":633:651  i < numbers.length */\n      lt\n        /* \"contracts/Solidity Break!!/7.sol\":618:699  for(uint i = 0;i < numbers.length; i++){... */\n      iszero\n      tag_18\n      jumpi\n        /* \"contracts/Solidity Break!!/7.sol\":678:685  numbers */\n      0x00\n        /* \"contracts/Solidity Break!!/7.sol\":686:687  i */\n      dup2\n        /* \"contracts/Solidity Break!!/7.sol\":678:688  numbers[i] */\n      dup2\n      sload\n      dup2\n      lt\n      tag_20\n      jumpi\n      tag_21\n      tag_22\n      jump\t// in\n    tag_21:\n    tag_20:\n      swap1\n      0x00\n      mstore\n      keccak256(0x00, 0x20)\n      add\n      sload\n        /* \"contracts/Solidity Break!!/7.sol\":671:688  sum += numbers[i] */\n      dup3\n      tag_24\n      swap2\n      swap1\n      tag_25\n      jump\t// in\n    tag_24:\n      swap2\n      pop\n        /* \"contracts/Solidity Break!!/7.sol\":653:656  i++ */\n      dup1\n      dup1\n      tag_26\n      swap1\n      tag_27\n      jump\t// in\n    tag_26:\n      swap2\n      pop\n      pop\n        /* \"contracts/Solidity Break!!/7.sol\":618:699  for(uint i = 0;i < numbers.length; i++){... */\n      jump(tag_17)\n    tag_18:\n      pop\n        /* \"contracts/Solidity Break!!/7.sol\":715:718  sum */\n      dup1\n        /* \"contracts/Solidity Break!!/7.sol\":708:718  return sum */\n      swap2\n      pop\n      pop\n        /* \"contracts/Solidity Break!!/7.sol\":545:725  function allAdd() public view returns (uint) {... */\n      swap1\n      jump\t// out\n        /* \"contracts/Solidity Break!!/7.sol\":339:443  function autoNum() public {... */\n    tag_11:\n        /* \"contracts/Solidity Break!!/7.sol\":379:385  uint i */\n      0x00\n        /* \"contracts/Solidity Break!!/7.sol\":375:436  for(uint i = 0; i <= 5; i++)... */\n    tag_29:\n        /* \"contracts/Solidity Break!!/7.sol\":396:397  5 */\n      0x05\n        /* \"contracts/Solidity Break!!/7.sol\":391:392  i */\n      dup2\n        /* \"contracts/Solidity Break!!/7.sol\":391:397  i <= 5 */\n      gt\n        /* \"contracts/Solidity Break!!/7.sol\":375:436  for(uint i = 0; i <= 5; i++)... */\n      tag_30\n      jumpi\n        /* \"contracts/Solidity Break!!/7.sol\":421:428  numbers */\n      0x00\n        /* \"contracts/Solidity Break!!/7.sol\":434:435  i */\n      dup2\n        /* \"contracts/Solidity Break!!/7.sol\":421:436  numbers.push(i) */\n      swap1\n      dup1\n      0x01\n      dup2\n      sload\n      add\n      dup1\n      dup3\n      sstore\n      dup1\n      swap2\n      pop\n      pop\n      0x01\n      swap1\n      sub\n      swap1\n      0x00\n      mstore\n      keccak256(0x00, 0x20)\n      add\n      0x00\n      swap1\n      swap2\n      swap1\n      swap2\n      swap1\n      swap2\n      pop\n      sstore\n        /* \"contracts/Solidity Break!!/7.sol\":399:402  i++ */\n      dup1\n      dup1\n      tag_33\n      swap1\n      tag_27\n      jump\t// in\n    tag_33:\n      swap2\n      pop\n      pop\n        /* \"contracts/Solidity Break!!/7.sol\":375:436  for(uint i = 0; i <= 5; i++)... */\n      jump(tag_29)\n    tag_30:\n      pop\n        /* \"contracts/Solidity Break!!/7.sol\":339:443  function autoNum() public {... */\n      jump\t// out\n        /* \"contracts/Solidity Break!!/7.sol\":453:539  function getArray() public view returns(uint[] memory) {... */\n    tag_13:\n        /* \"contracts/Solidity Break!!/7.sol\":493:506  uint[] memory */\n      0x60\n        /* \"contracts/Solidity Break!!/7.sol\":525:532  numbers */\n      0x00\n        /* \"contracts/Solidity Break!!/7.sol\":518:532  return numbers */\n      dup1\n      sload\n      dup1\n      0x20\n      mul\n      0x20\n      add\n      mload(0x40)\n      swap1\n      dup2\n      add\n      0x40\n      mstore\n      dup1\n      swap3\n      swap2\n      swap1\n      dup2\n      dup2\n      mstore\n      0x20\n      add\n      dup3\n      dup1\n      sload\n      dup1\n      iszero\n      tag_35\n      jumpi\n      0x20\n      mul\n      dup3\n      add\n      swap2\n      swap1\n      0x00\n      mstore\n      keccak256(0x00, 0x20)\n      swap1\n    tag_36:\n      dup2\n      sload\n      dup2\n      mstore\n      0x20\n      add\n      swap1\n      0x01\n      add\n      swap1\n      dup1\n      dup4\n      gt\n      tag_36\n      jumpi\n    tag_35:\n      pop\n      pop\n      pop\n      pop\n      pop\n      swap1\n      pop\n        /* \"contracts/Solidity Break!!/7.sol\":453:539  function getArray() public view returns(uint[] memory) {... */\n      swap1\n      jump\t// out\n        /* \"#utility.yul\":7:84   */\n    tag_37:\n        /* \"#utility.yul\":44:51   */\n      0x00\n        /* \"#utility.yul\":73:78   */\n      dup2\n        /* \"#utility.yul\":62:78   */\n      swap1\n      pop\n        /* \"#utility.yul\":7:84   */\n      swap2\n      swap1\n      pop\n      jump\t// out\n        /* \"#utility.yul\":90:208   */\n    tag_38:\n        /* \"#utility.yul\":177:201   */\n      tag_50\n        /* \"#utility.yul\":195:200   */\n      dup2\n        /* \"#utility.yul\":177:201   */\n      tag_37\n      jump\t// in\n    tag_50:\n        /* \"#utility.yul\":172:175   */\n      dup3\n        /* \"#utility.yul\":165:202   */\n      mstore\n        /* \"#utility.yul\":90:208   */\n      pop\n      pop\n      jump\t// out\n        /* \"#utility.yul\":214:436   */\n    tag_9:\n        /* \"#utility.yul\":307:311   */\n      0x00\n        /* \"#utility.yul\":345:347   */\n      0x20\n        /* \"#utility.yul\":334:343   */\n      dup3\n        /* \"#utility.yul\":330:348   */\n      add\n        /* \"#utility.yul\":322:348   */\n      swap1\n      pop\n        /* \"#utility.yul\":358:429   */\n      tag_52\n        /* \"#utility.yul\":426:427   */\n      0x00\n        /* \"#utility.yul\":415:424   */\n      dup4\n        /* \"#utility.yul\":411:428   */\n      add\n        /* \"#utility.yul\":402:408   */\n      dup5\n        /* \"#utility.yul\":358:429   */\n      tag_38\n      jump\t// in\n    tag_52:\n        /* \"#utility.yul\":214:436   */\n      swap3\n      swap2\n      pop\n      pop\n      jump\t// out\n        /* \"#utility.yul\":442:556   */\n    tag_39:\n        /* \"#utility.yul\":509:515   */\n      0x00\n        /* \"#utility.yul\":543:548   */\n      dup2\n        /* \"#utility.yul\":537:549   */\n      mload\n        /* \"#utility.yul\":527:549   */\n      swap1\n      pop\n        /* \"#utility.yul\":442:556   */\n      swap2\n      swap1\n      pop\n      jump\t// out\n        /* \"#utility.yul\":562:746   */\n    tag_40:\n        /* \"#utility.yul\":661:672   */\n      0x00\n        /* \"#utility.yul\":695:701   */\n      dup3\n        /* \"#utility.yul\":690:693   */\n      dup3\n        /* \"#utility.yul\":683:702   */\n      mstore\n        /* \"#utility.yul\":735:739   */\n      0x20\n        /* \"#utility.yul\":730:733   */\n      dup3\n        /* \"#utility.yul\":726:740   */\n      add\n        /* \"#utility.yul\":711:740   */\n      swap1\n      pop\n        /* \"#utility.yul\":562:746   */\n      swap3\n      swap2\n      pop\n      pop\n      jump\t// out\n        /* \"#utility.yul\":752:884   */\n    tag_41:\n        /* \"#utility.yul\":819:823   */\n      0x00\n        /* \"#utility.yul\":842:845   */\n      dup2\n        /* \"#utility.yul\":834:845   */\n      swap1\n      pop\n        /* \"#utility.yul\":872:876   */\n      0x20\n        /* \"#utility.yul\":867:870   */\n      dup3\n        /* \"#utility.yul\":863:877   */\n      add\n        /* \"#utility.yul\":855:877   */\n      swap1\n      pop\n        /* \"#utility.yul\":752:884   */\n      swap2\n      swap1\n      pop\n      jump\t// out\n        /* \"#utility.yul\":890:998   */\n    tag_42:\n        /* \"#utility.yul\":967:991   */\n      tag_57\n        /* \"#utility.yul\":985:990   */\n      dup2\n        /* \"#utility.yul\":967:991   */\n      tag_37\n      jump\t// in\n    tag_57:\n        /* \"#utility.yul\":962:965   */\n      dup3\n        /* \"#utility.yul\":955:992   */\n      mstore\n        /* \"#utility.yul\":890:998   */\n      pop\n      pop\n      jump\t// out\n        /* \"#utility.yul\":1004:1183   */\n    tag_43:\n        /* \"#utility.yul\":1073:1083   */\n      0x00\n        /* \"#utility.yul\":1094:1140   */\n      tag_59\n        /* \"#utility.yul\":1136:1139   */\n      dup4\n        /* \"#utility.yul\":1128:1134   */\n      dup4\n        /* \"#utility.yul\":1094:1140   */\n      tag_42\n      jump\t// in\n    tag_59:\n        /* \"#utility.yul\":1172:1176   */\n      0x20\n        /* \"#utility.yul\":1167:1170   */\n      dup4\n        /* \"#utility.yul\":1163:1177   */\n      add\n        /* \"#utility.yul\":1149:1177   */\n      swap1\n      pop\n        /* \"#utility.yul\":1004:1183   */\n      swap3\n      swap2\n      pop\n      pop\n      jump\t// out\n        /* \"#utility.yul\":1189:1302   */\n    tag_44:\n        /* \"#utility.yul\":1259:1263   */\n      0x00\n        /* \"#utility.yul\":1291:1295   */\n      0x20\n        /* \"#utility.yul\":1286:1289   */\n      dup3\n        /* \"#utility.yul\":1282:1296   */\n      add\n        /* \"#utility.yul\":1274:1296   */\n      swap1\n      pop\n        /* \"#utility.yul\":1189:1302   */\n      swap2\n      swap1\n      pop\n      jump\t// out\n        /* \"#utility.yul\":1338:2070   */\n    tag_45:\n        /* \"#utility.yul\":1457:1460   */\n      0x00\n        /* \"#utility.yul\":1486:1540   */\n      tag_62\n        /* \"#utility.yul\":1534:1539   */\n      dup3\n        /* \"#utility.yul\":1486:1540   */\n      tag_39\n      jump\t// in\n    tag_62:\n        /* \"#utility.yul\":1556:1642   */\n      tag_63\n        /* \"#utility.yul\":1635:1641   */\n      dup2\n        /* \"#utility.yul\":1630:1633   */\n      dup6\n        /* \"#utility.yul\":1556:1642   */\n      tag_40\n      jump\t// in\n    tag_63:\n        /* \"#utility.yul\":1549:1642   */\n      swap4\n      pop\n        /* \"#utility.yul\":1666:1722   */\n      tag_64\n        /* \"#utility.yul\":1716:1721   */\n      dup4\n        /* \"#utility.yul\":1666:1722   */\n      tag_41\n      jump\t// in\n    tag_64:\n        /* \"#utility.yul\":1745:1752   */\n      dup1\n        /* \"#utility.yul\":1776:1777   */\n      0x00\n        /* \"#utility.yul\":1761:2045   */\n    tag_65:\n        /* \"#utility.yul\":1786:1792   */\n      dup4\n        /* \"#utility.yul\":1783:1784   */\n      dup2\n        /* \"#utility.yul\":1780:1793   */\n      lt\n        /* \"#utility.yul\":1761:2045   */\n      iszero\n      tag_67\n      jumpi\n        /* \"#utility.yul\":1862:1868   */\n      dup2\n        /* \"#utility.yul\":1856:1869   */\n      mload\n        /* \"#utility.yul\":1889:1952   */\n      tag_68\n        /* \"#utility.yul\":1948:1951   */\n      dup9\n        /* \"#utility.yul\":1933:1946   */\n      dup3\n        /* \"#utility.yul\":1889:1952   */\n      tag_43\n      jump\t// in\n    tag_68:\n        /* \"#utility.yul\":1882:1952   */\n      swap8\n      pop\n        /* \"#utility.yul\":1975:2035   */\n      tag_69\n        /* \"#utility.yul\":2028:2034   */\n      dup4\n        /* \"#utility.yul\":1975:2035   */\n      tag_44\n      jump\t// in\n    tag_69:\n        /* \"#utility.yul\":1965:2035   */\n      swap3\n      pop\n        /* \"#utility.yul\":1821:2045   */\n      pop\n        /* \"#utility.yul\":1808:1809   */\n      0x01\n        /* \"#utility.yul\":1805:1806   */\n      dup2\n        /* \"#utility.yul\":1801:1810   */\n      add\n        /* \"#utility.yul\":1796:1810   */\n      swap1\n      pop\n        /* \"#utility.yul\":1761:2045   */\n      jump(tag_65)\n    tag_67:\n        /* \"#utility.yul\":1765:1779   */\n      pop\n        /* \"#utility.yul\":2061:2064   */\n      dup6\n        /* \"#utility.yul\":2054:2064   */\n      swap4\n      pop\n        /* \"#utility.yul\":1462:2070   */\n      pop\n      pop\n      pop\n        /* \"#utility.yul\":1338:2070   */\n      swap3\n      swap2\n      pop\n      pop\n      jump\t// out\n        /* \"#utility.yul\":2076:2449   */\n    tag_15:\n        /* \"#utility.yul\":2219:2223   */\n      0x00\n        /* \"#utility.yul\":2257:2259   */\n      0x20\n        /* \"#utility.yul\":2246:2255   */\n      dup3\n        /* \"#utility.yul\":2242:2260   */\n      add\n        /* \"#utility.yul\":2234:2260   */\n      swap1\n      pop\n        /* \"#utility.yul\":2306:2315   */\n      dup2\n        /* \"#utility.yul\":2300:2304   */\n      dup2\n        /* \"#utility.yul\":2296:2316   */\n      sub\n        /* \"#utility.yul\":2292:2293   */\n      0x00\n        /* \"#utility.yul\":2281:2290   */\n      dup4\n        /* \"#utility.yul\":2277:2294   */\n      add\n        /* \"#utility.yul\":2270:2317   */\n      mstore\n        /* \"#utility.yul\":2334:2442   */\n      tag_71\n        /* \"#utility.yul\":2437:2441   */\n      dup2\n        /* \"#utility.yul\":2428:2434   */\n      dup5\n        /* \"#utility.yul\":2334:2442   */\n      tag_45\n      jump\t// in\n    tag_71:\n        /* \"#utility.yul\":2326:2442   */\n      swap1\n      pop\n        /* \"#utility.yul\":2076:2449   */\n      swap3\n      swap2\n      pop\n      pop\n      jump\t// out\n        /* \"#utility.yul\":2455:2635   */\n    tag_22:\n        /* \"#utility.yul\":2503:2580   */\n      0x4e487b7100000000000000000000000000000000000000000000000000000000\n        /* \"#utility.yul\":2500:2501   */\n      0x00\n        /* \"#utility.yul\":2493:2581   */\n      mstore\n        /* \"#utility.yul\":2600:2604   */\n      0x32\n        /* \"#utility.yul\":2597:2598   */\n      0x04\n        /* \"#utility.yul\":2590:2605   */\n      mstore\n        /* \"#utility.yul\":2624:2628   */\n      0x24\n        /* \"#utility.yul\":2621:2622   */\n      0x00\n        /* \"#utility.yul\":2614:2629   */\n      revert\n        /* \"#utility.yul\":2641:2821   */\n    tag_46:\n        /* \"#utility.yul\":2689:2766   */\n      0x4e487b7100000000000000000000000000000000000000000000000000000000\n        /* \"#utility.yul\":2686:2687   */\n      0x00\n        /* \"#utility.yul\":2679:2767   */\n      mstore\n        /* \"#utility.yul\":2786:2790   */\n      0x11\n        /* \"#utility.yul\":2783:2784   */\n      0x04\n        /* \"#utility.yul\":2776:2791   */\n      mstore\n        /* \"#utility.yul\":2810:2814   */\n      0x24\n        /* \"#utility.yul\":2807:2808   */\n      0x00\n        /* \"#utility.yul\":2800:2815   */\n      revert\n        /* \"#utility.yul\":2827:3018   */\n    tag_25:\n        /* \"#utility.yul\":2867:2870   */\n      0x00\n        /* \"#utility.yul\":2886:2906   */\n      tag_75\n        /* \"#utility.yul\":2904:2905   */\n      dup3\n        /* \"#utility.yul\":2886:2906   */\n      tag_37\n      jump\t// in\n    tag_75:\n        /* \"#utility.yul\":2881:2906   */\n      swap2\n      pop\n        /* \"#utility.yul\":2920:2940   */\n      tag_76\n        /* \"#utility.yul\":2938:2939   */\n      dup4\n        /* \"#utility.yul\":2920:2940   */\n      tag_37\n      jump\t// in\n    tag_76:\n        /* \"#utility.yul\":2915:2940   */\n      swap3\n      pop\n        /* \"#utility.yul\":2963:2964   */\n      dup3\n        /* \"#utility.yul\":2960:2961   */\n      dup3\n        /* \"#utility.yul\":2956:2965   */\n      add\n        /* \"#utility.yul\":2949:2965   */\n      swap1\n      pop\n        /* \"#utility.yul\":2984:2987   */\n      dup1\n        /* \"#utility.yul\":2981:2982   */\n      dup3\n        /* \"#utility.yul\":2978:2988   */\n      gt\n        /* \"#utility.yul\":2975:3011   */\n      iszero\n      tag_77\n      jumpi\n        /* \"#utility.yul\":2991:3009   */\n      tag_78\n      tag_46\n      jump\t// in\n    tag_78:\n        /* \"#utility.yul\":2975:3011   */\n    tag_77:\n        /* \"#utility.yul\":2827:3018   */\n      swap3\n      swap2\n      pop\n      pop\n      jump\t// out\n        /* \"#utility.yul\":3024:3257   */\n    tag_27:\n        /* \"#utility.yul\":3063:3066   */\n      0x00\n        /* \"#utility.yul\":3086:3110   */\n      tag_80\n        /* \"#utility.yul\":3104:3109   */\n      dup3\n        /* \"#utility.yul\":3086:3110   */\n      tag_37\n      jump\t// in\n    tag_80:\n        /* \"#utility.yul\":3077:3110   */\n      swap2\n      pop\n        /* \"#utility.yul\":3132:3198   */\n      0xffffffffffffffffffffffffffffffffffffffffffffffffffffffffffffffff\n        /* \"#utility.yul\":3125:3130   */\n      dup3\n        /* \"#utility.yul\":3122:3199   */\n      sub\n        /* \"#utility.yul\":3119:3222   */\n      tag_81\n      jumpi\n        /* \"#utility.yul\":3202:3220   */\n      tag_82\n      tag_46\n      jump\t// in\n    tag_82:\n        /* \"#utility.yul\":3119:3222   */\n    tag_81:\n        /* \"#utility.yul\":3249:3250   */\n      0x01\n        /* \"#utility.yul\":3242:3247   */\n      dup3\n        /* \"#utility.yul\":3238:3251   */\n      add\n        /* \"#utility.yul\":3231:3251   */\n      swap1\n      pop\n        /* \"#utility.yul\":3024:3257   */\n      swap2\n      swap1\n      pop\n      jump\t// out\n\n    auxdata: 0xa26469706673582212203576a517b841d4581c691f2e98561ee9e5ff3c98f299f2b4876a640789b0aa3f64736f6c63430008120033\n}\n",
				"bytecode": {
					"linkReferences": {},
					"object": "608060405234801561001057600080fd5b506103ac806100206000396000f3fe608060405234801561001057600080fd5b50600436106100415760003560e01c80630a30ba3d14610046578063679bb91714610064578063d504ea1d1461006e575b600080fd5b61004e61008c565b60405161005b91906101a1565b60405180910390f35b61006c6100e6565b005b610076610130565b604051610083919061027a565b60405180910390f35b60008060005b6000805490508110156100de57600081815481106100b3576100b261029c565b5b9060005260206000200154826100c991906102fa565b915080806100d69061032e565b915050610092565b508091505090565b60005b6005811161012d57600081908060018154018082558091505060019003906000526020600020016000909190919091505580806101259061032e565b9150506100e9565b50565b6060600080548060200260200160405190810160405280929190818152602001828054801561017e57602002820191906000526020600020905b81548152602001906001019080831161016a575b5050505050905090565b6000819050919050565b61019b81610188565b82525050565b60006020820190506101b66000830184610192565b92915050565b600081519050919050565b600082825260208201905092915050565b6000819050602082019050919050565b6101f181610188565b82525050565b600061020383836101e8565b60208301905092915050565b6000602082019050919050565b6000610227826101bc565b61023181856101c7565b935061023c836101d8565b8060005b8381101561026d57815161025488826101f7565b975061025f8361020f565b925050600181019050610240565b5085935050505092915050565b60006020820190508181036000830152610294818461021c565b905092915050565b7f4e487b7100000000000000000000000000000000000000000000000000000000600052603260045260246000fd5b7f4e487b7100000000000000000000000000000000000000000000000000000000600052601160045260246000fd5b600061030582610188565b915061031083610188565b9250828201905080821115610328576103276102cb565b5b92915050565b600061033982610188565b91507fffffffffffffffffffffffffffffffffffffffffffffffffffffffffffffffff820361036b5761036a6102cb565b5b60018201905091905056fea26469706673582212203576a517b841d4581c691f2e98561ee9e5ff3c98f299f2b4876a640789b0aa3f64736f6c63430008120033",
					"opcodes": "PUSH1 0x80 PUSH1 0x40 MSTORE CALLVALUE DUP1 ISZERO PUSH2 0x10 JUMPI PUSH1 0x0 DUP1 REVERT JUMPDEST POP PUSH2 0x3AC DUP1 PUSH2 0x20 PUSH1 0x0 CODECOPY PUSH1 0x0 RETURN INVALID PUSH1 0x80 PUSH1 0x40 MSTORE CALLVALUE DUP1 ISZERO PUSH2 0x10 JUMPI PUSH1 0x0 DUP1 REVERT JUMPDEST POP PUSH1 0x4 CALLDATASIZE LT PUSH2 0x41 JUMPI PUSH1 0x0 CALLDATALOAD PUSH1 0xE0 SHR DUP1 PUSH4 0xA30BA3D EQ PUSH2 0x46 JUMPI DUP1 PUSH4 0x679BB917 EQ PUSH2 0x64 JUMPI DUP1 PUSH4 0xD504EA1D EQ PUSH2 0x6E JUMPI JUMPDEST PUSH1 0x0 DUP1 REVERT JUMPDEST PUSH2 0x4E PUSH2 0x8C JUMP JUMPDEST PUSH1 0x40 MLOAD PUSH2 0x5B SWAP2 SWAP1 PUSH2 0x1A1 JUMP JUMPDEST PUSH1 0x40 MLOAD DUP1 SWAP2 SUB SWAP1 RETURN JUMPDEST PUSH2 0x6C PUSH2 0xE6 JUMP JUMPDEST STOP JUMPDEST PUSH2 0x76 PUSH2 0x130 JUMP JUMPDEST PUSH1 0x40 MLOAD PUSH2 0x83 SWAP2 SWAP1 PUSH2 0x27A JUMP JUMPDEST PUSH1 0x40 MLOAD DUP1 SWAP2 SUB SWAP1 RETURN JUMPDEST PUSH1 0x0 DUP1 PUSH1 0x0 JUMPDEST PUSH1 0x0 DUP1 SLOAD SWAP1 POP DUP2 LT ISZERO PUSH2 0xDE JUMPI PUSH1 0x0 DUP2 DUP2 SLOAD DUP2 LT PUSH2 0xB3 JUMPI PUSH2 0xB2 PUSH2 0x29C JUMP JUMPDEST JUMPDEST SWAP1 PUSH1 0x0 MSTORE PUSH1 0x20 PUSH1 0x0 KECCAK256 ADD SLOAD DUP3 PUSH2 0xC9 SWAP2 SWAP1 PUSH2 0x2FA JUMP JUMPDEST SWAP2 POP DUP1 DUP1 PUSH2 0xD6 SWAP1 PUSH2 0x32E JUMP JUMPDEST SWAP2 POP POP PUSH2 0x92 JUMP JUMPDEST POP DUP1 SWAP2 POP POP SWAP1 JUMP JUMPDEST PUSH1 0x0 JUMPDEST PUSH1 0x5 DUP2 GT PUSH2 0x12D JUMPI PUSH1 0x0 DUP2 SWAP1 DUP1 PUSH1 0x1 DUP2 SLOAD ADD DUP1 DUP3 SSTORE DUP1 SWAP2 POP POP PUSH1 0x1 SWAP1 SUB SWAP1 PUSH1 0x0 MSTORE PUSH1 0x20 PUSH1 0x0 KECCAK256 ADD PUSH1 0x0 SWAP1 SWAP2 SWAP1 SWAP2 SWAP1 SWAP2 POP SSTORE DUP1 DUP1 PUSH2 0x125 SWAP1 PUSH2 0x32E JUMP JUMPDEST SWAP2 POP POP PUSH2 0xE9 JUMP JUMPDEST POP JUMP JUMPDEST PUSH1 0x60 PUSH1 0x0 DUP1 SLOAD DUP1 PUSH1 0x20 MUL PUSH1 0x20 ADD PUSH1 0x40 MLOAD SWAP1 DUP2 ADD PUSH1 0x40 MSTORE DUP1 SWAP3 SWAP2 SWAP1 DUP2 DUP2 MSTORE PUSH1 0x20 ADD DUP3 DUP1 SLOAD DUP1 ISZERO PUSH2 0x17E JUMPI PUSH1 0x20 MUL DUP3 ADD SWAP2 SWAP1 PUSH1 0x0 MSTORE PUSH1 0x20 PUSH1 0x0 KECCAK256 SWAP1 JUMPDEST DUP2 SLOAD DUP2 MSTORE PUSH1 0x20 ADD SWAP1 PUSH1 0x1 ADD SWAP1 DUP1 DUP4 GT PUSH2 0x16A JUMPI JUMPDEST POP POP POP POP POP SWAP1 POP SWAP1 JUMP JUMPDEST PUSH1 0x0 DUP2 SWAP1 POP SWAP2 SWAP1 POP JUMP JUMPDEST PUSH2 0x19B DUP2 PUSH2 0x188 JUMP JUMPDEST DUP3 MSTORE POP POP JUMP JUMPDEST PUSH1 0x0 PUSH1 0x20 DUP3 ADD SWAP1 POP PUSH2 0x1B6 PUSH1 0x0 DUP4 ADD DUP5 PUSH2 0x192 JUMP JUMPDEST SWAP3 SWAP2 POP POP JUMP JUMPDEST PUSH1 0x0 DUP2 MLOAD SWAP1 POP SWAP2 SWAP1 POP JUMP JUMPDEST PUSH1 0x0 DUP3 DUP3 MSTORE PUSH1 0x20 DUP3 ADD SWAP1 POP SWAP3 SWAP2 POP POP JUMP JUMPDEST PUSH1 0x0 DUP2 SWAP1 POP PUSH1 0x20 DUP3 ADD SWAP1 POP SWAP2 SWAP1 POP JUMP JUMPDEST PUSH2 0x1F1 DUP2 PUSH2 0x188 JUMP JUMPDEST DUP3 MSTORE POP POP JUMP JUMPDEST PUSH1 0x0 PUSH2 0x203 DUP4 DUP4 PUSH2 0x1E8 JUMP JUMPDEST PUSH1 0x20 DUP4 ADD SWAP1 POP SWAP3 SWAP2 POP POP JUMP JUMPDEST PUSH1 0x0 PUSH1 0x20 DUP3 ADD SWAP1 POP SWAP2 SWAP1 POP JUMP JUMPDEST PUSH1 0x0 PUSH2 0x227 DUP3 PUSH2 0x1BC JUMP JUMPDEST PUSH2 0x231 DUP2 DUP6 PUSH2 0x1C7 JUMP JUMPDEST SWAP4 POP PUSH2 0x23C DUP4 PUSH2 0x1D8 JUMP JUMPDEST DUP1 PUSH1 0x0 JUMPDEST DUP4 DUP2 LT ISZERO PUSH2 0x26D JUMPI DUP2 MLOAD PUSH2 0x254 DUP9 DUP3 PUSH2 0x1F7 JUMP JUMPDEST SWAP8 POP PUSH2 0x25F DUP4 PUSH2 0x20F JUMP JUMPDEST SWAP3 POP POP PUSH1 0x1 DUP2 ADD SWAP1 POP PUSH2 0x240 JUMP JUMPDEST POP DUP6 SWAP4 POP POP POP POP SWAP3 SWAP2 POP POP JUMP JUMPDEST PUSH1 0x0 PUSH1 0x20 DUP3 ADD SWAP1 POP DUP2 DUP2 SUB PUSH1 0x0 DUP4 ADD MSTORE PUSH2 0x294 DUP2 DUP5 PUSH2 0x21C JUMP JUMPDEST SWAP1 POP SWAP3 SWAP2 POP POP JUMP JUMPDEST PUSH32 0x4E487B7100000000000000000000000000000000000000000000000000000000 PUSH1 0x0 MSTORE PUSH1 0x32 PUSH1 0x4 MSTORE PUSH1 0x24 PUSH1 0x0 REVERT JUMPDEST PUSH32 0x4E487B7100000000000000000000000000000000000000000000000000000000 PUSH1 0x0 MSTORE PUSH1 0x11 PUSH1 0x4 MSTORE PUSH1 0x24 PUSH1 0x0 REVERT JUMPDEST PUSH1 0x0 PUSH2 0x305 DUP3 PUSH2 0x188 JUMP JUMPDEST SWAP2 POP PUSH2 0x310 DUP4 PUSH2 0x188 JUMP JUMPDEST SWAP3 POP DUP3 DUP3 ADD SWAP1 POP DUP1 DUP3 GT ISZERO PUSH2 0x328 JUMPI PUSH2 0x327 PUSH2 0x2CB JUMP JUMPDEST JUMPDEST SWAP3 SWAP2 POP POP JUMP JUMPDEST PUSH1 0x0 PUSH2 0x339 DUP3 PUSH2 0x188 JUMP JUMPDEST SWAP2 POP PUSH32 0xFFFFFFFFFFFFFFFFFFFFFFFFFFFFFFFFFFFFFFFFFFFFFFFFFFFFFFFFFFFFFFFF DUP3 SUB PUSH2 0x36B JUMPI PUSH2 0x36A PUSH2 0x2CB JUMP JUMPDEST JUMPDEST PUSH1 0x1 DUP3 ADD SWAP1 POP SWAP2 SWAP1 POP JUMP INVALID LOG2 PUSH5 0x6970667358 0x22 SLT KECCAK256 CALLDATALOAD PUSH23 0xA517B841D4581C691F2E98561EE9E5FF3C98F299F2B487 PUSH11 0x640789B0AA3F64736F6C63 NUMBER STOP ADDMOD SLT STOP CALLER "
				},
				"gasEstimates": {
					"creation": {
						"codeDepositCost": "188000",
						"executionCost": "232",
						"totalCost": "188232"
					},
					"external": {
						"allAdd()": "infinite",
						"autoNum()": "infinite",
						"getArray()": "infinite"
					}
				},
				"methodIdentifiers": {
					"allAdd()": "0a30ba3d",
					"autoNum()": "679bb917",
					"getArray()": "d504ea1d"
				}
			},
			"storageLayout": {
				"storage": [
					{
						"astId": 4,
						"contract": "contracts/Solidity Break!!/7.sol:Q7",
						"label": "numbers",
						"offset": 0,
						"slot": "0",
						"type": "t_array(t_uint256)dyn_storage"
					}
				],
				"types": {
					"t_array(t_uint256)dyn_storage": {
						"base": "t_uint256",
						"encoding": "dynamic_array",
						"label": "uint256[]",
						"numberOfBytes": "32"
					},
					"t_uint256": {
						"encoding": "inplace",
						"label": "uint256",
						"numberOfBytes": "32"
					}
				}
			},
			"userdoc": {
				"kind": "user",
				"methods": {},
				"version": 1
			}
		}
	}
}