{
	"contracts/230607/babylion.sol": {
		"ABI": {
			"abi": [
				{
					"inputs": [
						{
							"internalType": "string",
							"name": "_ID",
							"type": "string"
						},
						{
							"internalType": "string",
							"name": "_PW",
							"type": "string"
						}
					],
					"name": "Q28",
					"outputs": [
						{
							"internalType": "bytes32",
							"name": "",
							"type": "bytes32"
						},
						{
							"internalType": "bytes32",
							"name": "",
							"type": "bytes32"
						}
					],
					"stateMutability": "pure",
					"type": "function"
				},
				{
					"inputs": [
						{
							"internalType": "uint256",
							"name": "_a",
							"type": "uint256"
						},
						{
							"internalType": "uint256",
							"name": "_b",
							"type": "uint256"
						},
						{
							"internalType": "uint256",
							"name": "_c",
							"type": "uint256"
						}
					],
					"name": "Q69",
					"outputs": [
						{
							"internalType": "string",
							"name": "",
							"type": "string"
						}
					],
					"stateMutability": "pure",
					"type": "function"
				}
			],
			"devdoc": {
				"kind": "dev",
				"methods": {},
				"version": 1
			},
			"evm": {
				"assembly": "    /* \"contracts/230607/babylion.sol\":800:1435  contract ABI {... */\n  mstore(0x40, 0x80)\n  callvalue\n  dup1\n  iszero\n  tag_1\n  jumpi\n  0x00\n  dup1\n  revert\ntag_1:\n  pop\n  dataSize(sub_0)\n  dup1\n  dataOffset(sub_0)\n  0x00\n  codecopy\n  0x00\n  return\nstop\n\nsub_0: assembly {\n        /* \"contracts/230607/babylion.sol\":800:1435  contract ABI {... */\n      mstore(0x40, 0x80)\n      callvalue\n      dup1\n      iszero\n      tag_1\n      jumpi\n      0x00\n      dup1\n      revert\n    tag_1:\n      pop\n      jumpi(tag_2, lt(calldatasize, 0x04))\n      shr(0xe0, calldataload(0x00))\n      dup1\n      0x168bee49\n      eq\n      tag_3\n      jumpi\n      dup1\n      0xde42b6d6\n      eq\n      tag_4\n      jumpi\n    tag_2:\n      0x00\n      dup1\n      revert\n        /* \"contracts/230607/babylion.sol\":991:1433  function Q69(uint _a, uint _b, uint _c) public pure returns(string memory) {... */\n    tag_3:\n      tag_5\n      0x04\n      dup1\n      calldatasize\n      sub\n      dup2\n      add\n      swap1\n      tag_6\n      swap2\n      swap1\n      tag_7\n      jump\t// in\n    tag_6:\n      tag_8\n      jump\t// in\n    tag_5:\n      mload(0x40)\n      tag_9\n      swap2\n      swap1\n      tag_10\n      jump\t// in\n    tag_9:\n      mload(0x40)\n      dup1\n      swap2\n      sub\n      swap1\n      return\n        /* \"contracts/230607/babylion.sol\":819:985  function Q28(string memory _ID, string memory _PW) public pure returns(bytes32, bytes32){... */\n    tag_4:\n      tag_11\n      0x04\n      dup1\n      calldatasize\n      sub\n      dup2\n      add\n      swap1\n      tag_12\n      swap2\n      swap1\n      tag_13\n      jump\t// in\n    tag_12:\n      tag_14\n      jump\t// in\n    tag_11:\n      mload(0x40)\n      tag_15\n      swap3\n      swap2\n      swap1\n      tag_16\n      jump\t// in\n    tag_15:\n      mload(0x40)\n      dup1\n      swap2\n      sub\n      swap1\n      return\n        /* \"contracts/230607/babylion.sol\":991:1433  function Q69(uint _a, uint _b, uint _c) public pure returns(string memory) {... */\n    tag_8:\n        /* \"contracts/230607/babylion.sol\":1051:1064  string memory */\n      0x60\n        /* \"contracts/230607/babylion.sol\":1090:1091  1 */\n      0x01\n        /* \"contracts/230607/babylion.sol\":1084:1086  _c */\n      dup3\n        /* \"contracts/230607/babylion.sol\":1084:1091  _c >= 1 */\n      lt\n      iszero\n        /* \"contracts/230607/babylion.sol\":1084:1103  _c >= 1 && _c <= 26 */\n      dup1\n      iszero\n      tag_18\n      jumpi\n      pop\n        /* \"contracts/230607/babylion.sol\":1101:1103  26 */\n      0x1a\n        /* \"contracts/230607/babylion.sol\":1095:1097  _c */\n      dup3\n        /* \"contracts/230607/babylion.sol\":1095:1103  _c <= 26 */\n      gt\n      iszero\n        /* \"contracts/230607/babylion.sol\":1084:1103  _c >= 1 && _c <= 26 */\n    tag_18:\n        /* \"contracts/230607/babylion.sol\":1076:1104  require(_c >= 1 && _c <= 26) */\n      tag_19\n      jumpi\n      0x00\n      dup1\n      revert\n    tag_19:\n        /* \"contracts/230607/babylion.sol\":1114:1130  string memory aa */\n      0x00\n        /* \"contracts/230607/babylion.sol\":1133:1153  Strings.toString(_a) */\n      tag_20\n        /* \"contracts/230607/babylion.sol\":1150:1152  _a */\n      dup6\n        /* \"contracts/230607/babylion.sol\":1133:1149  Strings.toString */\n      tag_21\n        /* \"contracts/230607/babylion.sol\":1133:1153  Strings.toString(_a) */\n      jump\t// in\n    tag_20:\n        /* \"contracts/230607/babylion.sol\":1114:1153  string memory aa = Strings.toString(_a) */\n      swap1\n      pop\n        /* \"contracts/230607/babylion.sol\":1163:1179  string memory bb */\n      0x00\n        /* \"contracts/230607/babylion.sol\":1182:1202  Strings.toString(_b) */\n      tag_22\n        /* \"contracts/230607/babylion.sol\":1199:1201  _b */\n      dup6\n        /* \"contracts/230607/babylion.sol\":1182:1198  Strings.toString */\n      tag_21\n        /* \"contracts/230607/babylion.sol\":1182:1202  Strings.toString(_b) */\n      jump\t// in\n    tag_22:\n        /* \"contracts/230607/babylion.sol\":1163:1202  string memory bb = Strings.toString(_b) */\n      swap1\n      pop\n        /* \"contracts/230607/babylion.sol\":1212:1234  string memory alphabet */\n      0x00\n        /* \"contracts/230607/babylion.sol\":1212:1265  string memory alphabet = \"abcdefghijklmnopqrstuvwxyz\" */\n      mload(0x40)\n      dup1\n      0x40\n      add\n      0x40\n      mstore\n      dup1\n      0x1a\n      dup2\n      mstore\n      0x20\n      add\n      0x6162636465666768696a6b6c6d6e6f707172737475767778797a000000000000\n      dup2\n      mstore\n      pop\n      swap1\n      pop\n        /* \"contracts/230607/babylion.sol\":1275:1284  bytes1 cc */\n      0x00\n        /* \"contracts/230607/babylion.sol\":1293:1301  alphabet */\n      dup2\n        /* \"contracts/230607/babylion.sol\":1306:1307  1 */\n      0x01\n        /* \"contracts/230607/babylion.sol\":1303:1305  _c */\n      dup8\n        /* \"contracts/230607/babylion.sol\":1303:1307  _c-1 */\n      tag_23\n      swap2\n      swap1\n      tag_24\n      jump\t// in\n    tag_23:\n        /* \"contracts/230607/babylion.sol\":1287:1308  bytes(alphabet)[_c-1] */\n      dup2\n      mload\n      dup2\n      lt\n      tag_25\n      jumpi\n      tag_26\n      tag_27\n      jump\t// in\n    tag_26:\n    tag_25:\n      0x20\n      add\n      add\n      mload\n      0xf8\n      shr\n      0xf8\n      shl\n        /* \"contracts/230607/babylion.sol\":1275:1308  bytes1 cc = bytes(alphabet)[_c-1] */\n      swap1\n      pop\n        /* \"contracts/230607/babylion.sol\":1318:1335  string memory ccc */\n      0x00\n        /* \"contracts/230607/babylion.sol\":1362:1364  cc */\n      dup2\n        /* \"contracts/230607/babylion.sol\":1345:1365  abi.encodePacked(cc) */\n      add(0x20, mload(0x40))\n      tag_28\n      swap2\n      swap1\n      tag_29\n      jump\t// in\n    tag_28:\n      mload(0x40)\n      0x20\n      dup2\n      dup4\n      sub\n      sub\n      dup2\n      mstore\n      swap1\n      0x40\n      mstore\n        /* \"contracts/230607/babylion.sol\":1318:1366  string memory ccc = string(abi.encodePacked(cc)) */\n      swap1\n      pop\n        /* \"contracts/230607/babylion.sol\":1397:1399  aa */\n      dup5\n        /* \"contracts/230607/babylion.sol\":1410:1412  bb */\n      dup5\n        /* \"contracts/230607/babylion.sol\":1422:1425  ccc */\n      dup3\n        /* \"contracts/230607/babylion.sol\":1383:1426  string.concat(aa, \" and \", bb, \" or \", ccc) */\n      add(0x20, mload(0x40))\n      tag_30\n      swap4\n      swap3\n      swap2\n      swap1\n      tag_31\n      jump\t// in\n    tag_30:\n      mload(0x40)\n      0x20\n      dup2\n      dup4\n      sub\n      sub\n      dup2\n      mstore\n      swap1\n      0x40\n      mstore\n        /* \"contracts/230607/babylion.sol\":1376:1426  return string.concat(aa, \" and \", bb, \" or \", ccc) */\n      swap6\n      pop\n      pop\n      pop\n      pop\n      pop\n      pop\n        /* \"contracts/230607/babylion.sol\":991:1433  function Q69(uint _a, uint _b, uint _c) public pure returns(string memory) {... */\n      swap4\n      swap3\n      pop\n      pop\n      pop\n      jump\t// out\n        /* \"contracts/230607/babylion.sol\":819:985  function Q28(string memory _ID, string memory _PW) public pure returns(bytes32, bytes32){... */\n    tag_14:\n        /* \"contracts/230607/babylion.sol\":890:897  bytes32 */\n      0x00\n        /* \"contracts/230607/babylion.sol\":899:906  bytes32 */\n      dup1\n        /* \"contracts/230607/babylion.sol\":942:945  _ID */\n      dup4\n        /* \"contracts/230607/babylion.sol\":926:947  keccak256(bytes(_ID)) */\n      dup1\n      mload\n      swap1\n      0x20\n      add\n      keccak256\n        /* \"contracts/230607/babylion.sol\":967:970  _PW */\n      dup4\n        /* \"contracts/230607/babylion.sol\":951:972  keccak256(bytes(_PW)) */\n      dup1\n      mload\n      swap1\n      0x20\n      add\n      keccak256\n        /* \"contracts/230607/babylion.sol\":917:974  return ((keccak256(bytes(_ID))), (keccak256(bytes(_PW)))) */\n      swap2\n      pop\n      swap2\n      pop\n        /* \"contracts/230607/babylion.sol\":819:985  function Q28(string memory _ID, string memory _PW) public pure returns(bytes32, bytes32){... */\n      swap3\n      pop\n      swap3\n      swap1\n      pop\n      jump\t// out\n        /* \"@openzeppelin/contracts/utils/Strings.sol\":447:1143  function toString(uint256 value) internal pure returns (string memory) {... */\n    tag_21:\n        /* \"@openzeppelin/contracts/utils/Strings.sol\":503:516  string memory */\n      0x60\n        /* \"@openzeppelin/contracts/utils/Strings.sol\":552:566  uint256 length */\n      0x00\n        /* \"@openzeppelin/contracts/utils/Strings.sol\":589:590  1 */\n      0x01\n        /* \"@openzeppelin/contracts/utils/Strings.sol\":569:586  Math.log10(value) */\n      tag_34\n        /* \"@openzeppelin/contracts/utils/Strings.sol\":580:585  value */\n      dup5\n        /* \"@openzeppelin/contracts/utils/Strings.sol\":569:579  Math.log10 */\n      tag_35\n        /* \"@openzeppelin/contracts/utils/Strings.sol\":569:586  Math.log10(value) */\n      jump\t// in\n    tag_34:\n        /* \"@openzeppelin/contracts/utils/Strings.sol\":569:590  Math.log10(value) + 1 */\n      add\n        /* \"@openzeppelin/contracts/utils/Strings.sol\":552:590  uint256 length = Math.log10(value) + 1 */\n      swap1\n      pop\n        /* \"@openzeppelin/contracts/utils/Strings.sol\":604:624  string memory buffer */\n      0x00\n        /* \"@openzeppelin/contracts/utils/Strings.sol\":638:644  length */\n      dup2\n        /* \"@openzeppelin/contracts/utils/Strings.sol\":627:645  new string(length) */\n      0xffffffffffffffff\n      dup2\n      gt\n      iszero\n      tag_36\n      jumpi\n      tag_37\n      tag_38\n      jump\t// in\n    tag_37:\n    tag_36:\n      mload(0x40)\n      swap1\n      dup1\n      dup3\n      mstore\n      dup1\n      0x1f\n      add\n      not(0x1f)\n      and\n      0x20\n      add\n      dup3\n      add\n      0x40\n      mstore\n      dup1\n      iszero\n      tag_39\n      jumpi\n      dup2\n      0x20\n      add\n      0x01\n      dup3\n      mul\n      dup1\n      calldatasize\n      dup4\n      calldatacopy\n      dup1\n      dup3\n      add\n      swap2\n      pop\n      pop\n      swap1\n      pop\n    tag_39:\n      pop\n        /* \"@openzeppelin/contracts/utils/Strings.sol\":604:645  string memory buffer = new string(length) */\n      swap1\n      pop\n        /* \"@openzeppelin/contracts/utils/Strings.sol\":659:670  uint256 ptr */\n      0x00\n        /* \"@openzeppelin/contracts/utils/Strings.sol\":785:791  length */\n      dup3\n        /* \"@openzeppelin/contracts/utils/Strings.sol\":781:783  32 */\n      0x20\n        /* \"@openzeppelin/contracts/utils/Strings.sol\":777:792  add(32, length) */\n      add\n        /* \"@openzeppelin/contracts/utils/Strings.sol\":769:775  buffer */\n      dup3\n        /* \"@openzeppelin/contracts/utils/Strings.sol\":765:793  add(buffer, add(32, length)) */\n      add\n        /* \"@openzeppelin/contracts/utils/Strings.sol\":758:793  ptr := add(buffer, add(32, length)) */\n      swap1\n      pop\n        /* \"@openzeppelin/contracts/utils/Strings.sol\":820:1100  while (true) {... */\n    tag_40:\n        /* \"@openzeppelin/contracts/utils/Strings.sol\":827:831  true */\n      0x01\n        /* \"@openzeppelin/contracts/utils/Strings.sol\":820:1100  while (true) {... */\n      iszero\n      tag_41\n      jumpi\n        /* \"@openzeppelin/contracts/utils/Strings.sol\":851:856  ptr-- */\n      dup1\n      dup1\n      0x01\n      swap1\n      sub\n      swap2\n      pop\n      pop\n        /* \"@openzeppelin/contracts/utils/Strings.sol\":990:998  _SYMBOLS */\n      0x3031323334353637383961626364656600000000000000000000000000000000\n        /* \"@openzeppelin/contracts/utils/Strings.sol\":985:987  10 */\n      0x0a\n        /* \"@openzeppelin/contracts/utils/Strings.sol\":978:983  value */\n      dup7\n        /* \"@openzeppelin/contracts/utils/Strings.sol\":974:988  mod(value, 10) */\n      mod\n        /* \"@openzeppelin/contracts/utils/Strings.sol\":969:999  byte(mod(value, 10), _SYMBOLS) */\n      byte\n        /* \"@openzeppelin/contracts/utils/Strings.sol\":964:967  ptr */\n      dup2\n        /* \"@openzeppelin/contracts/utils/Strings.sol\":956:1000  mstore8(ptr, byte(mod(value, 10), _SYMBOLS)) */\n      mstore8\n        /* \"@openzeppelin/contracts/utils/Strings.sol\":1044:1046  10 */\n      0x0a\n        /* \"@openzeppelin/contracts/utils/Strings.sol\":1035:1046  value /= 10 */\n      dup6\n      dup2\n      tag_42\n      jumpi\n      tag_43\n      tag_44\n      jump\t// in\n    tag_43:\n    tag_42:\n      div\n      swap5\n      pop\n        /* \"@openzeppelin/contracts/utils/Strings.sol\":1077:1078  0 */\n      0x00\n        /* \"@openzeppelin/contracts/utils/Strings.sol\":1068:1073  value */\n      dup6\n        /* \"@openzeppelin/contracts/utils/Strings.sol\":1068:1078  value == 0 */\n      sub\n        /* \"@openzeppelin/contracts/utils/Strings.sol\":820:1100  while (true) {... */\n      tag_40\n        /* \"@openzeppelin/contracts/utils/Strings.sol\":1064:1085  if (value == 0) break */\n      jumpi\n        /* \"@openzeppelin/contracts/utils/Strings.sol\":820:1100  while (true) {... */\n    tag_41:\n        /* \"@openzeppelin/contracts/utils/Strings.sol\":1120:1126  buffer */\n      dup2\n        /* \"@openzeppelin/contracts/utils/Strings.sol\":1113:1126  return buffer */\n      swap4\n      pop\n      pop\n      pop\n      pop\n        /* \"@openzeppelin/contracts/utils/Strings.sol\":447:1143  function toString(uint256 value) internal pure returns (string memory) {... */\n      swap2\n      swap1\n      pop\n      jump\t// out\n        /* \"@openzeppelin/contracts/utils/math/Math.sol\":10139:11055  function log10(uint256 value) internal pure returns (uint256) {... */\n    tag_35:\n        /* \"@openzeppelin/contracts/utils/math/Math.sol\":10192:10199  uint256 */\n      0x00\n        /* \"@openzeppelin/contracts/utils/math/Math.sol\":10211:10225  uint256 result */\n      dup1\n        /* \"@openzeppelin/contracts/utils/math/Math.sol\":10228:10229  0 */\n      0x00\n        /* \"@openzeppelin/contracts/utils/math/Math.sol\":10211:10229  uint256 result = 0 */\n      swap1\n      pop\n        /* \"@openzeppelin/contracts/utils/math/Math.sol\":10276:10284  10 ** 64 */\n      0x184f03e93ff9f4daa797ed6e38ed64bf6a1f010000000000000000\n        /* \"@openzeppelin/contracts/utils/math/Math.sol\":10267:10272  value */\n      dup4\n        /* \"@openzeppelin/contracts/utils/math/Math.sol\":10267:10284  value >= 10 ** 64 */\n      lt\n        /* \"@openzeppelin/contracts/utils/math/Math.sol\":10263:10366  if (value >= 10 ** 64) {... */\n      tag_47\n      jumpi\n        /* \"@openzeppelin/contracts/utils/math/Math.sol\":10313:10321  10 ** 64 */\n      0x184f03e93ff9f4daa797ed6e38ed64bf6a1f010000000000000000\n        /* \"@openzeppelin/contracts/utils/math/Math.sol\":10304:10321  value /= 10 ** 64 */\n      dup4\n      dup2\n      tag_48\n      jumpi\n      tag_49\n      tag_44\n      jump\t// in\n    tag_49:\n    tag_48:\n      div\n      swap3\n      pop\n        /* \"@openzeppelin/contracts/utils/math/Math.sol\":10349:10351  64 */\n      0x40\n        /* \"@openzeppelin/contracts/utils/math/Math.sol\":10339:10351  result += 64 */\n      dup2\n      add\n      swap1\n      pop\n        /* \"@openzeppelin/contracts/utils/math/Math.sol\":10263:10366  if (value >= 10 ** 64) {... */\n    tag_47:\n        /* \"@openzeppelin/contracts/utils/math/Math.sol\":10392:10400  10 ** 32 */\n      0x04ee2d6d415b85acef8100000000\n        /* \"@openzeppelin/contracts/utils/math/Math.sol\":10383:10388  value */\n      dup4\n        /* \"@openzeppelin/contracts/utils/math/Math.sol\":10383:10400  value >= 10 ** 32 */\n      lt\n        /* \"@openzeppelin/contracts/utils/math/Math.sol\":10379:10482  if (value >= 10 ** 32) {... */\n      tag_50\n      jumpi\n        /* \"@openzeppelin/contracts/utils/math/Math.sol\":10429:10437  10 ** 32 */\n      0x04ee2d6d415b85acef8100000000\n        /* \"@openzeppelin/contracts/utils/math/Math.sol\":10420:10437  value /= 10 ** 32 */\n      dup4\n      dup2\n      tag_51\n      jumpi\n      tag_52\n      tag_44\n      jump\t// in\n    tag_52:\n    tag_51:\n      div\n      swap3\n      pop\n        /* \"@openzeppelin/contracts/utils/math/Math.sol\":10465:10467  32 */\n      0x20\n        /* \"@openzeppelin/contracts/utils/math/Math.sol\":10455:10467  result += 32 */\n      dup2\n      add\n      swap1\n      pop\n        /* \"@openzeppelin/contracts/utils/math/Math.sol\":10379:10482  if (value >= 10 ** 32) {... */\n    tag_50:\n        /* \"@openzeppelin/contracts/utils/math/Math.sol\":10508:10516  10 ** 16 */\n      0x2386f26fc10000\n        /* \"@openzeppelin/contracts/utils/math/Math.sol\":10499:10504  value */\n      dup4\n        /* \"@openzeppelin/contracts/utils/math/Math.sol\":10499:10516  value >= 10 ** 16 */\n      lt\n        /* \"@openzeppelin/contracts/utils/math/Math.sol\":10495:10598  if (value >= 10 ** 16) {... */\n      tag_53\n      jumpi\n        /* \"@openzeppelin/contracts/utils/math/Math.sol\":10545:10553  10 ** 16 */\n      0x2386f26fc10000\n        /* \"@openzeppelin/contracts/utils/math/Math.sol\":10536:10553  value /= 10 ** 16 */\n      dup4\n      dup2\n      tag_54\n      jumpi\n      tag_55\n      tag_44\n      jump\t// in\n    tag_55:\n    tag_54:\n      div\n      swap3\n      pop\n        /* \"@openzeppelin/contracts/utils/math/Math.sol\":10581:10583  16 */\n      0x10\n        /* \"@openzeppelin/contracts/utils/math/Math.sol\":10571:10583  result += 16 */\n      dup2\n      add\n      swap1\n      pop\n        /* \"@openzeppelin/contracts/utils/math/Math.sol\":10495:10598  if (value >= 10 ** 16) {... */\n    tag_53:\n        /* \"@openzeppelin/contracts/utils/math/Math.sol\":10624:10631  10 ** 8 */\n      0x05f5e100\n        /* \"@openzeppelin/contracts/utils/math/Math.sol\":10615:10620  value */\n      dup4\n        /* \"@openzeppelin/contracts/utils/math/Math.sol\":10615:10631  value >= 10 ** 8 */\n      lt\n        /* \"@openzeppelin/contracts/utils/math/Math.sol\":10611:10711  if (value >= 10 ** 8) {... */\n      tag_56\n      jumpi\n        /* \"@openzeppelin/contracts/utils/math/Math.sol\":10660:10667  10 ** 8 */\n      0x05f5e100\n        /* \"@openzeppelin/contracts/utils/math/Math.sol\":10651:10667  value /= 10 ** 8 */\n      dup4\n      dup2\n      tag_57\n      jumpi\n      tag_58\n      tag_44\n      jump\t// in\n    tag_58:\n    tag_57:\n      div\n      swap3\n      pop\n        /* \"@openzeppelin/contracts/utils/math/Math.sol\":10695:10696  8 */\n      0x08\n        /* \"@openzeppelin/contracts/utils/math/Math.sol\":10685:10696  result += 8 */\n      dup2\n      add\n      swap1\n      pop\n        /* \"@openzeppelin/contracts/utils/math/Math.sol\":10611:10711  if (value >= 10 ** 8) {... */\n    tag_56:\n        /* \"@openzeppelin/contracts/utils/math/Math.sol\":10737:10744  10 ** 4 */\n      0x2710\n        /* \"@openzeppelin/contracts/utils/math/Math.sol\":10728:10733  value */\n      dup4\n        /* \"@openzeppelin/contracts/utils/math/Math.sol\":10728:10744  value >= 10 ** 4 */\n      lt\n        /* \"@openzeppelin/contracts/utils/math/Math.sol\":10724:10824  if (value >= 10 ** 4) {... */\n      tag_59\n      jumpi\n        /* \"@openzeppelin/contracts/utils/math/Math.sol\":10773:10780  10 ** 4 */\n      0x2710\n        /* \"@openzeppelin/contracts/utils/math/Math.sol\":10764:10780  value /= 10 ** 4 */\n      dup4\n      dup2\n      tag_60\n      jumpi\n      tag_61\n      tag_44\n      jump\t// in\n    tag_61:\n    tag_60:\n      div\n      swap3\n      pop\n        /* \"@openzeppelin/contracts/utils/math/Math.sol\":10808:10809  4 */\n      0x04\n        /* \"@openzeppelin/contracts/utils/math/Math.sol\":10798:10809  result += 4 */\n      dup2\n      add\n      swap1\n      pop\n        /* \"@openzeppelin/contracts/utils/math/Math.sol\":10724:10824  if (value >= 10 ** 4) {... */\n    tag_59:\n        /* \"@openzeppelin/contracts/utils/math/Math.sol\":10850:10857  10 ** 2 */\n      0x64\n        /* \"@openzeppelin/contracts/utils/math/Math.sol\":10841:10846  value */\n      dup4\n        /* \"@openzeppelin/contracts/utils/math/Math.sol\":10841:10857  value >= 10 ** 2 */\n      lt\n        /* \"@openzeppelin/contracts/utils/math/Math.sol\":10837:10937  if (value >= 10 ** 2) {... */\n      tag_62\n      jumpi\n        /* \"@openzeppelin/contracts/utils/math/Math.sol\":10886:10893  10 ** 2 */\n      0x64\n        /* \"@openzeppelin/contracts/utils/math/Math.sol\":10877:10893  value /= 10 ** 2 */\n      dup4\n      dup2\n      tag_63\n      jumpi\n      tag_64\n      tag_44\n      jump\t// in\n    tag_64:\n    tag_63:\n      div\n      swap3\n      pop\n        /* \"@openzeppelin/contracts/utils/math/Math.sol\":10921:10922  2 */\n      0x02\n        /* \"@openzeppelin/contracts/utils/math/Math.sol\":10911:10922  result += 2 */\n      dup2\n      add\n      swap1\n      pop\n        /* \"@openzeppelin/contracts/utils/math/Math.sol\":10837:10937  if (value >= 10 ** 2) {... */\n    tag_62:\n        /* \"@openzeppelin/contracts/utils/math/Math.sol\":10963:10970  10 ** 1 */\n      0x0a\n        /* \"@openzeppelin/contracts/utils/math/Math.sol\":10954:10959  value */\n      dup4\n        /* \"@openzeppelin/contracts/utils/math/Math.sol\":10954:10970  value >= 10 ** 1 */\n      lt\n        /* \"@openzeppelin/contracts/utils/math/Math.sol\":10950:11016  if (value >= 10 ** 1) {... */\n      tag_65\n      jumpi\n        /* \"@openzeppelin/contracts/utils/math/Math.sol\":11000:11001  1 */\n      0x01\n        /* \"@openzeppelin/contracts/utils/math/Math.sol\":10990:11001  result += 1 */\n      dup2\n      add\n      swap1\n      pop\n        /* \"@openzeppelin/contracts/utils/math/Math.sol\":10950:11016  if (value >= 10 ** 1) {... */\n    tag_65:\n        /* \"@openzeppelin/contracts/utils/math/Math.sol\":11042:11048  result */\n      dup1\n        /* \"@openzeppelin/contracts/utils/math/Math.sol\":11035:11048  return result */\n      swap2\n      pop\n      pop\n        /* \"@openzeppelin/contracts/utils/math/Math.sol\":10139:11055  function log10(uint256 value) internal pure returns (uint256) {... */\n      swap2\n      swap1\n      pop\n      jump\t// out\n        /* \"#utility.yul\":7:82   */\n    tag_66:\n        /* \"#utility.yul\":40:46   */\n      0x00\n        /* \"#utility.yul\":73:75   */\n      0x40\n        /* \"#utility.yul\":67:76   */\n      mload\n        /* \"#utility.yul\":57:76   */\n      swap1\n      pop\n        /* \"#utility.yul\":7:82   */\n      swap1\n      jump\t// out\n        /* \"#utility.yul\":88:205   */\n    tag_67:\n        /* \"#utility.yul\":197:198   */\n      0x00\n        /* \"#utility.yul\":194:195   */\n      dup1\n        /* \"#utility.yul\":187:199   */\n      revert\n        /* \"#utility.yul\":211:328   */\n    tag_68:\n        /* \"#utility.yul\":320:321   */\n      0x00\n        /* \"#utility.yul\":317:318   */\n      dup1\n        /* \"#utility.yul\":310:322   */\n      revert\n        /* \"#utility.yul\":334:411   */\n    tag_69:\n        /* \"#utility.yul\":371:378   */\n      0x00\n        /* \"#utility.yul\":400:405   */\n      dup2\n        /* \"#utility.yul\":389:405   */\n      swap1\n      pop\n        /* \"#utility.yul\":334:411   */\n      swap2\n      swap1\n      pop\n      jump\t// out\n        /* \"#utility.yul\":417:539   */\n    tag_70:\n        /* \"#utility.yul\":490:514   */\n      tag_101\n        /* \"#utility.yul\":508:513   */\n      dup2\n        /* \"#utility.yul\":490:514   */\n      tag_69\n      jump\t// in\n    tag_101:\n        /* \"#utility.yul\":483:488   */\n      dup2\n        /* \"#utility.yul\":480:515   */\n      eq\n        /* \"#utility.yul\":470:533   */\n      tag_102\n      jumpi\n        /* \"#utility.yul\":529:530   */\n      0x00\n        /* \"#utility.yul\":526:527   */\n      dup1\n        /* \"#utility.yul\":519:531   */\n      revert\n        /* \"#utility.yul\":470:533   */\n    tag_102:\n        /* \"#utility.yul\":417:539   */\n      pop\n      jump\t// out\n        /* \"#utility.yul\":545:684   */\n    tag_71:\n        /* \"#utility.yul\":591:596   */\n      0x00\n        /* \"#utility.yul\":629:635   */\n      dup2\n        /* \"#utility.yul\":616:636   */\n      calldataload\n        /* \"#utility.yul\":607:636   */\n      swap1\n      pop\n        /* \"#utility.yul\":645:678   */\n      tag_104\n        /* \"#utility.yul\":672:677   */\n      dup2\n        /* \"#utility.yul\":645:678   */\n      tag_70\n      jump\t// in\n    tag_104:\n        /* \"#utility.yul\":545:684   */\n      swap3\n      swap2\n      pop\n      pop\n      jump\t// out\n        /* \"#utility.yul\":690:1309   */\n    tag_7:\n        /* \"#utility.yul\":767:773   */\n      0x00\n        /* \"#utility.yul\":775:781   */\n      dup1\n        /* \"#utility.yul\":783:789   */\n      0x00\n        /* \"#utility.yul\":832:834   */\n      0x60\n        /* \"#utility.yul\":820:829   */\n      dup5\n        /* \"#utility.yul\":811:818   */\n      dup7\n        /* \"#utility.yul\":807:830   */\n      sub\n        /* \"#utility.yul\":803:835   */\n      slt\n        /* \"#utility.yul\":800:919   */\n      iszero\n      tag_106\n      jumpi\n        /* \"#utility.yul\":838:917   */\n      tag_107\n      tag_67\n      jump\t// in\n    tag_107:\n        /* \"#utility.yul\":800:919   */\n    tag_106:\n        /* \"#utility.yul\":958:959   */\n      0x00\n        /* \"#utility.yul\":983:1036   */\n      tag_108\n        /* \"#utility.yul\":1028:1035   */\n      dup7\n        /* \"#utility.yul\":1019:1025   */\n      dup3\n        /* \"#utility.yul\":1008:1017   */\n      dup8\n        /* \"#utility.yul\":1004:1026   */\n      add\n        /* \"#utility.yul\":983:1036   */\n      tag_71\n      jump\t// in\n    tag_108:\n        /* \"#utility.yul\":973:1036   */\n      swap4\n      pop\n        /* \"#utility.yul\":929:1046   */\n      pop\n        /* \"#utility.yul\":1085:1087   */\n      0x20\n        /* \"#utility.yul\":1111:1164   */\n      tag_109\n        /* \"#utility.yul\":1156:1163   */\n      dup7\n        /* \"#utility.yul\":1147:1153   */\n      dup3\n        /* \"#utility.yul\":1136:1145   */\n      dup8\n        /* \"#utility.yul\":1132:1154   */\n      add\n        /* \"#utility.yul\":1111:1164   */\n      tag_71\n      jump\t// in\n    tag_109:\n        /* \"#utility.yul\":1101:1164   */\n      swap3\n      pop\n        /* \"#utility.yul\":1056:1174   */\n      pop\n        /* \"#utility.yul\":1213:1215   */\n      0x40\n        /* \"#utility.yul\":1239:1292   */\n      tag_110\n        /* \"#utility.yul\":1284:1291   */\n      dup7\n        /* \"#utility.yul\":1275:1281   */\n      dup3\n        /* \"#utility.yul\":1264:1273   */\n      dup8\n        /* \"#utility.yul\":1260:1282   */\n      add\n        /* \"#utility.yul\":1239:1292   */\n      tag_71\n      jump\t// in\n    tag_110:\n        /* \"#utility.yul\":1229:1292   */\n      swap2\n      pop\n        /* \"#utility.yul\":1184:1302   */\n      pop\n        /* \"#utility.yul\":690:1309   */\n      swap3\n      pop\n      swap3\n      pop\n      swap3\n      jump\t// out\n        /* \"#utility.yul\":1315:1414   */\n    tag_72:\n        /* \"#utility.yul\":1367:1373   */\n      0x00\n        /* \"#utility.yul\":1401:1406   */\n      dup2\n        /* \"#utility.yul\":1395:1407   */\n      mload\n        /* \"#utility.yul\":1385:1407   */\n      swap1\n      pop\n        /* \"#utility.yul\":1315:1414   */\n      swap2\n      swap1\n      pop\n      jump\t// out\n        /* \"#utility.yul\":1420:1589   */\n    tag_73:\n        /* \"#utility.yul\":1504:1515   */\n      0x00\n        /* \"#utility.yul\":1538:1544   */\n      dup3\n        /* \"#utility.yul\":1533:1536   */\n      dup3\n        /* \"#utility.yul\":1526:1545   */\n      mstore\n        /* \"#utility.yul\":1578:1582   */\n      0x20\n        /* \"#utility.yul\":1573:1576   */\n      dup3\n        /* \"#utility.yul\":1569:1583   */\n      add\n        /* \"#utility.yul\":1554:1583   */\n      swap1\n      pop\n        /* \"#utility.yul\":1420:1589   */\n      swap3\n      swap2\n      pop\n      pop\n      jump\t// out\n        /* \"#utility.yul\":1595:1841   */\n    tag_74:\n        /* \"#utility.yul\":1676:1677   */\n      0x00\n        /* \"#utility.yul\":1686:1799   */\n    tag_114:\n        /* \"#utility.yul\":1700:1706   */\n      dup4\n        /* \"#utility.yul\":1697:1698   */\n      dup2\n        /* \"#utility.yul\":1694:1707   */\n      lt\n        /* \"#utility.yul\":1686:1799   */\n      iszero\n      tag_116\n      jumpi\n        /* \"#utility.yul\":1785:1786   */\n      dup1\n        /* \"#utility.yul\":1780:1783   */\n      dup3\n        /* \"#utility.yul\":1776:1787   */\n      add\n        /* \"#utility.yul\":1770:1788   */\n      mload\n        /* \"#utility.yul\":1766:1767   */\n      dup2\n        /* \"#utility.yul\":1761:1764   */\n      dup5\n        /* \"#utility.yul\":1757:1768   */\n      add\n        /* \"#utility.yul\":1750:1789   */\n      mstore\n        /* \"#utility.yul\":1722:1724   */\n      0x20\n        /* \"#utility.yul\":1719:1720   */\n      dup2\n        /* \"#utility.yul\":1715:1725   */\n      add\n        /* \"#utility.yul\":1710:1725   */\n      swap1\n      pop\n        /* \"#utility.yul\":1686:1799   */\n      jump(tag_114)\n    tag_116:\n        /* \"#utility.yul\":1833:1834   */\n      0x00\n        /* \"#utility.yul\":1824:1830   */\n      dup5\n        /* \"#utility.yul\":1819:1822   */\n      dup5\n        /* \"#utility.yul\":1815:1831   */\n      add\n        /* \"#utility.yul\":1808:1835   */\n      mstore\n        /* \"#utility.yul\":1657:1841   */\n      pop\n        /* \"#utility.yul\":1595:1841   */\n      pop\n      pop\n      pop\n      jump\t// out\n        /* \"#utility.yul\":1847:1949   */\n    tag_75:\n        /* \"#utility.yul\":1888:1894   */\n      0x00\n        /* \"#utility.yul\":1939:1941   */\n      0x1f\n        /* \"#utility.yul\":1935:1942   */\n      not\n        /* \"#utility.yul\":1930:1932   */\n      0x1f\n        /* \"#utility.yul\":1923:1928   */\n      dup4\n        /* \"#utility.yul\":1919:1933   */\n      add\n        /* \"#utility.yul\":1915:1943   */\n      and\n        /* \"#utility.yul\":1905:1943   */\n      swap1\n      pop\n        /* \"#utility.yul\":1847:1949   */\n      swap2\n      swap1\n      pop\n      jump\t// out\n        /* \"#utility.yul\":1955:2332   */\n    tag_76:\n        /* \"#utility.yul\":2043:2046   */\n      0x00\n        /* \"#utility.yul\":2071:2110   */\n      tag_119\n        /* \"#utility.yul\":2104:2109   */\n      dup3\n        /* \"#utility.yul\":2071:2110   */\n      tag_72\n      jump\t// in\n    tag_119:\n        /* \"#utility.yul\":2126:2197   */\n      tag_120\n        /* \"#utility.yul\":2190:2196   */\n      dup2\n        /* \"#utility.yul\":2185:2188   */\n      dup6\n        /* \"#utility.yul\":2126:2197   */\n      tag_73\n      jump\t// in\n    tag_120:\n        /* \"#utility.yul\":2119:2197   */\n      swap4\n      pop\n        /* \"#utility.yul\":2206:2271   */\n      tag_121\n        /* \"#utility.yul\":2264:2270   */\n      dup2\n        /* \"#utility.yul\":2259:2262   */\n      dup6\n        /* \"#utility.yul\":2252:2256   */\n      0x20\n        /* \"#utility.yul\":2245:2250   */\n      dup7\n        /* \"#utility.yul\":2241:2257   */\n      add\n        /* \"#utility.yul\":2206:2271   */\n      tag_74\n      jump\t// in\n    tag_121:\n        /* \"#utility.yul\":2296:2325   */\n      tag_122\n        /* \"#utility.yul\":2318:2324   */\n      dup2\n        /* \"#utility.yul\":2296:2325   */\n      tag_75\n      jump\t// in\n    tag_122:\n        /* \"#utility.yul\":2291:2294   */\n      dup5\n        /* \"#utility.yul\":2287:2326   */\n      add\n        /* \"#utility.yul\":2280:2326   */\n      swap2\n      pop\n        /* \"#utility.yul\":2047:2332   */\n      pop\n        /* \"#utility.yul\":1955:2332   */\n      swap3\n      swap2\n      pop\n      pop\n      jump\t// out\n        /* \"#utility.yul\":2338:2651   */\n    tag_10:\n        /* \"#utility.yul\":2451:2455   */\n      0x00\n        /* \"#utility.yul\":2489:2491   */\n      0x20\n        /* \"#utility.yul\":2478:2487   */\n      dup3\n        /* \"#utility.yul\":2474:2492   */\n      add\n        /* \"#utility.yul\":2466:2492   */\n      swap1\n      pop\n        /* \"#utility.yul\":2538:2547   */\n      dup2\n        /* \"#utility.yul\":2532:2536   */\n      dup2\n        /* \"#utility.yul\":2528:2548   */\n      sub\n        /* \"#utility.yul\":2524:2525   */\n      0x00\n        /* \"#utility.yul\":2513:2522   */\n      dup4\n        /* \"#utility.yul\":2509:2526   */\n      add\n        /* \"#utility.yul\":2502:2549   */\n      mstore\n        /* \"#utility.yul\":2566:2644   */\n      tag_124\n        /* \"#utility.yul\":2639:2643   */\n      dup2\n        /* \"#utility.yul\":2630:2636   */\n      dup5\n        /* \"#utility.yul\":2566:2644   */\n      tag_76\n      jump\t// in\n    tag_124:\n        /* \"#utility.yul\":2558:2644   */\n      swap1\n      pop\n        /* \"#utility.yul\":2338:2651   */\n      swap3\n      swap2\n      pop\n      pop\n      jump\t// out\n        /* \"#utility.yul\":2657:2774   */\n    tag_77:\n        /* \"#utility.yul\":2766:2767   */\n      0x00\n        /* \"#utility.yul\":2763:2764   */\n      dup1\n        /* \"#utility.yul\":2756:2768   */\n      revert\n        /* \"#utility.yul\":2780:2897   */\n    tag_78:\n        /* \"#utility.yul\":2889:2890   */\n      0x00\n        /* \"#utility.yul\":2886:2887   */\n      dup1\n        /* \"#utility.yul\":2879:2891   */\n      revert\n        /* \"#utility.yul\":2903:3083   */\n    tag_38:\n        /* \"#utility.yul\":2951:3028   */\n      0x4e487b7100000000000000000000000000000000000000000000000000000000\n        /* \"#utility.yul\":2948:2949   */\n      0x00\n        /* \"#utility.yul\":2941:3029   */\n      mstore\n        /* \"#utility.yul\":3048:3052   */\n      0x41\n        /* \"#utility.yul\":3045:3046   */\n      0x04\n        /* \"#utility.yul\":3038:3053   */\n      mstore\n        /* \"#utility.yul\":3072:3076   */\n      0x24\n        /* \"#utility.yul\":3069:3070   */\n      0x00\n        /* \"#utility.yul\":3062:3077   */\n      revert\n        /* \"#utility.yul\":3089:3370   */\n    tag_79:\n        /* \"#utility.yul\":3172:3199   */\n      tag_129\n        /* \"#utility.yul\":3194:3198   */\n      dup3\n        /* \"#utility.yul\":3172:3199   */\n      tag_75\n      jump\t// in\n    tag_129:\n        /* \"#utility.yul\":3164:3170   */\n      dup2\n        /* \"#utility.yul\":3160:3200   */\n      add\n        /* \"#utility.yul\":3302:3308   */\n      dup2\n        /* \"#utility.yul\":3290:3300   */\n      dup2\n        /* \"#utility.yul\":3287:3309   */\n      lt\n        /* \"#utility.yul\":3266:3284   */\n      0xffffffffffffffff\n        /* \"#utility.yul\":3254:3264   */\n      dup3\n        /* \"#utility.yul\":3251:3285   */\n      gt\n        /* \"#utility.yul\":3248:3310   */\n      or\n        /* \"#utility.yul\":3245:3333   */\n      iszero\n      tag_130\n      jumpi\n        /* \"#utility.yul\":3313:3331   */\n      tag_131\n      tag_38\n      jump\t// in\n    tag_131:\n        /* \"#utility.yul\":3245:3333   */\n    tag_130:\n        /* \"#utility.yul\":3353:3363   */\n      dup1\n        /* \"#utility.yul\":3349:3351   */\n      0x40\n        /* \"#utility.yul\":3342:3364   */\n      mstore\n        /* \"#utility.yul\":3132:3370   */\n      pop\n        /* \"#utility.yul\":3089:3370   */\n      pop\n      pop\n      jump\t// out\n        /* \"#utility.yul\":3376:3505   */\n    tag_80:\n        /* \"#utility.yul\":3410:3416   */\n      0x00\n        /* \"#utility.yul\":3437:3457   */\n      tag_133\n      tag_66\n      jump\t// in\n    tag_133:\n        /* \"#utility.yul\":3427:3457   */\n      swap1\n      pop\n        /* \"#utility.yul\":3466:3499   */\n      tag_134\n        /* \"#utility.yul\":3494:3498   */\n      dup3\n        /* \"#utility.yul\":3486:3492   */\n      dup3\n        /* \"#utility.yul\":3466:3499   */\n      tag_79\n      jump\t// in\n    tag_134:\n        /* \"#utility.yul\":3376:3505   */\n      swap2\n      swap1\n      pop\n      jump\t// out\n        /* \"#utility.yul\":3511:3819   */\n    tag_81:\n        /* \"#utility.yul\":3573:3577   */\n      0x00\n        /* \"#utility.yul\":3663:3681   */\n      0xffffffffffffffff\n        /* \"#utility.yul\":3655:3661   */\n      dup3\n        /* \"#utility.yul\":3652:3682   */\n      gt\n        /* \"#utility.yul\":3649:3705   */\n      iszero\n      tag_136\n      jumpi\n        /* \"#utility.yul\":3685:3703   */\n      tag_137\n      tag_38\n      jump\t// in\n    tag_137:\n        /* \"#utility.yul\":3649:3705   */\n    tag_136:\n        /* \"#utility.yul\":3723:3752   */\n      tag_138\n        /* \"#utility.yul\":3745:3751   */\n      dup3\n        /* \"#utility.yul\":3723:3752   */\n      tag_75\n      jump\t// in\n    tag_138:\n        /* \"#utility.yul\":3715:3752   */\n      swap1\n      pop\n        /* \"#utility.yul\":3807:3811   */\n      0x20\n        /* \"#utility.yul\":3801:3805   */\n      dup2\n        /* \"#utility.yul\":3797:3812   */\n      add\n        /* \"#utility.yul\":3789:3812   */\n      swap1\n      pop\n        /* \"#utility.yul\":3511:3819   */\n      swap2\n      swap1\n      pop\n      jump\t// out\n        /* \"#utility.yul\":3825:3971   */\n    tag_82:\n        /* \"#utility.yul\":3922:3928   */\n      dup3\n        /* \"#utility.yul\":3917:3920   */\n      dup2\n        /* \"#utility.yul\":3912:3915   */\n      dup4\n        /* \"#utility.yul\":3899:3929   */\n      calldatacopy\n        /* \"#utility.yul\":3963:3964   */\n      0x00\n        /* \"#utility.yul\":3954:3960   */\n      dup4\n        /* \"#utility.yul\":3949:3952   */\n      dup4\n        /* \"#utility.yul\":3945:3961   */\n      add\n        /* \"#utility.yul\":3938:3965   */\n      mstore\n        /* \"#utility.yul\":3825:3971   */\n      pop\n      pop\n      pop\n      jump\t// out\n        /* \"#utility.yul\":3977:4402   */\n    tag_83:\n        /* \"#utility.yul\":4055:4060   */\n      0x00\n        /* \"#utility.yul\":4080:4146   */\n      tag_141\n        /* \"#utility.yul\":4096:4145   */\n      tag_142\n        /* \"#utility.yul\":4138:4144   */\n      dup5\n        /* \"#utility.yul\":4096:4145   */\n      tag_81\n      jump\t// in\n    tag_142:\n        /* \"#utility.yul\":4080:4146   */\n      tag_80\n      jump\t// in\n    tag_141:\n        /* \"#utility.yul\":4071:4146   */\n      swap1\n      pop\n        /* \"#utility.yul\":4169:4175   */\n      dup3\n        /* \"#utility.yul\":4162:4167   */\n      dup2\n        /* \"#utility.yul\":4155:4176   */\n      mstore\n        /* \"#utility.yul\":4207:4211   */\n      0x20\n        /* \"#utility.yul\":4200:4205   */\n      dup2\n        /* \"#utility.yul\":4196:4212   */\n      add\n        /* \"#utility.yul\":4245:4248   */\n      dup5\n        /* \"#utility.yul\":4236:4242   */\n      dup5\n        /* \"#utility.yul\":4231:4234   */\n      dup5\n        /* \"#utility.yul\":4227:4243   */\n      add\n        /* \"#utility.yul\":4224:4249   */\n      gt\n        /* \"#utility.yul\":4221:4333   */\n      iszero\n      tag_143\n      jumpi\n        /* \"#utility.yul\":4252:4331   */\n      tag_144\n      tag_78\n      jump\t// in\n    tag_144:\n        /* \"#utility.yul\":4221:4333   */\n    tag_143:\n        /* \"#utility.yul\":4342:4396   */\n      tag_145\n        /* \"#utility.yul\":4389:4395   */\n      dup5\n        /* \"#utility.yul\":4384:4387   */\n      dup3\n        /* \"#utility.yul\":4379:4382   */\n      dup6\n        /* \"#utility.yul\":4342:4396   */\n      tag_82\n      jump\t// in\n    tag_145:\n        /* \"#utility.yul\":4061:4402   */\n      pop\n        /* \"#utility.yul\":3977:4402   */\n      swap4\n      swap3\n      pop\n      pop\n      pop\n      jump\t// out\n        /* \"#utility.yul\":4422:4762   */\n    tag_84:\n        /* \"#utility.yul\":4478:4483   */\n      0x00\n        /* \"#utility.yul\":4527:4530   */\n      dup3\n        /* \"#utility.yul\":4520:4524   */\n      0x1f\n        /* \"#utility.yul\":4512:4518   */\n      dup4\n        /* \"#utility.yul\":4508:4525   */\n      add\n        /* \"#utility.yul\":4504:4531   */\n      slt\n        /* \"#utility.yul\":4494:4616   */\n      tag_147\n      jumpi\n        /* \"#utility.yul\":4535:4614   */\n      tag_148\n      tag_77\n      jump\t// in\n    tag_148:\n        /* \"#utility.yul\":4494:4616   */\n    tag_147:\n        /* \"#utility.yul\":4652:4658   */\n      dup2\n        /* \"#utility.yul\":4639:4659   */\n      calldataload\n        /* \"#utility.yul\":4677:4756   */\n      tag_149\n        /* \"#utility.yul\":4752:4755   */\n      dup5\n        /* \"#utility.yul\":4744:4750   */\n      dup3\n        /* \"#utility.yul\":4737:4741   */\n      0x20\n        /* \"#utility.yul\":4729:4735   */\n      dup7\n        /* \"#utility.yul\":4725:4742   */\n      add\n        /* \"#utility.yul\":4677:4756   */\n      tag_83\n      jump\t// in\n    tag_149:\n        /* \"#utility.yul\":4668:4756   */\n      swap2\n      pop\n        /* \"#utility.yul\":4484:4762   */\n      pop\n        /* \"#utility.yul\":4422:4762   */\n      swap3\n      swap2\n      pop\n      pop\n      jump\t// out\n        /* \"#utility.yul\":4768:5602   */\n    tag_13:\n        /* \"#utility.yul\":4856:4862   */\n      0x00\n        /* \"#utility.yul\":4864:4870   */\n      dup1\n        /* \"#utility.yul\":4913:4915   */\n      0x40\n        /* \"#utility.yul\":4901:4910   */\n      dup4\n        /* \"#utility.yul\":4892:4899   */\n      dup6\n        /* \"#utility.yul\":4888:4911   */\n      sub\n        /* \"#utility.yul\":4884:4916   */\n      slt\n        /* \"#utility.yul\":4881:5000   */\n      iszero\n      tag_151\n      jumpi\n        /* \"#utility.yul\":4919:4998   */\n      tag_152\n      tag_67\n      jump\t// in\n    tag_152:\n        /* \"#utility.yul\":4881:5000   */\n    tag_151:\n        /* \"#utility.yul\":5067:5068   */\n      0x00\n        /* \"#utility.yul\":5056:5065   */\n      dup4\n        /* \"#utility.yul\":5052:5069   */\n      add\n        /* \"#utility.yul\":5039:5070   */\n      calldataload\n        /* \"#utility.yul\":5097:5115   */\n      0xffffffffffffffff\n        /* \"#utility.yul\":5089:5095   */\n      dup2\n        /* \"#utility.yul\":5086:5116   */\n      gt\n        /* \"#utility.yul\":5083:5200   */\n      iszero\n      tag_153\n      jumpi\n        /* \"#utility.yul\":5119:5198   */\n      tag_154\n      tag_68\n      jump\t// in\n    tag_154:\n        /* \"#utility.yul\":5083:5200   */\n    tag_153:\n        /* \"#utility.yul\":5224:5287   */\n      tag_155\n        /* \"#utility.yul\":5279:5286   */\n      dup6\n        /* \"#utility.yul\":5270:5276   */\n      dup3\n        /* \"#utility.yul\":5259:5268   */\n      dup7\n        /* \"#utility.yul\":5255:5277   */\n      add\n        /* \"#utility.yul\":5224:5287   */\n      tag_84\n      jump\t// in\n    tag_155:\n        /* \"#utility.yul\":5214:5287   */\n      swap3\n      pop\n        /* \"#utility.yul\":5010:5297   */\n      pop\n        /* \"#utility.yul\":5364:5366   */\n      0x20\n        /* \"#utility.yul\":5353:5362   */\n      dup4\n        /* \"#utility.yul\":5349:5367   */\n      add\n        /* \"#utility.yul\":5336:5368   */\n      calldataload\n        /* \"#utility.yul\":5395:5413   */\n      0xffffffffffffffff\n        /* \"#utility.yul\":5387:5393   */\n      dup2\n        /* \"#utility.yul\":5384:5414   */\n      gt\n        /* \"#utility.yul\":5381:5498   */\n      iszero\n      tag_156\n      jumpi\n        /* \"#utility.yul\":5417:5496   */\n      tag_157\n      tag_68\n      jump\t// in\n    tag_157:\n        /* \"#utility.yul\":5381:5498   */\n    tag_156:\n        /* \"#utility.yul\":5522:5585   */\n      tag_158\n        /* \"#utility.yul\":5577:5584   */\n      dup6\n        /* \"#utility.yul\":5568:5574   */\n      dup3\n        /* \"#utility.yul\":5557:5566   */\n      dup7\n        /* \"#utility.yul\":5553:5575   */\n      add\n        /* \"#utility.yul\":5522:5585   */\n      tag_84\n      jump\t// in\n    tag_158:\n        /* \"#utility.yul\":5512:5585   */\n      swap2\n      pop\n        /* \"#utility.yul\":5307:5595   */\n      pop\n        /* \"#utility.yul\":4768:5602   */\n      swap3\n      pop\n      swap3\n      swap1\n      pop\n      jump\t// out\n        /* \"#utility.yul\":5608:5685   */\n    tag_85:\n        /* \"#utility.yul\":5645:5652   */\n      0x00\n        /* \"#utility.yul\":5674:5679   */\n      dup2\n        /* \"#utility.yul\":5663:5679   */\n      swap1\n      pop\n        /* \"#utility.yul\":5608:5685   */\n      swap2\n      swap1\n      pop\n      jump\t// out\n        /* \"#utility.yul\":5691:5809   */\n    tag_86:\n        /* \"#utility.yul\":5778:5802   */\n      tag_161\n        /* \"#utility.yul\":5796:5801   */\n      dup2\n        /* \"#utility.yul\":5778:5802   */\n      tag_85\n      jump\t// in\n    tag_161:\n        /* \"#utility.yul\":5773:5776   */\n      dup3\n        /* \"#utility.yul\":5766:5803   */\n      mstore\n        /* \"#utility.yul\":5691:5809   */\n      pop\n      pop\n      jump\t// out\n        /* \"#utility.yul\":5815:6147   */\n    tag_16:\n        /* \"#utility.yul\":5936:5940   */\n      0x00\n        /* \"#utility.yul\":5974:5976   */\n      0x40\n        /* \"#utility.yul\":5963:5972   */\n      dup3\n        /* \"#utility.yul\":5959:5977   */\n      add\n        /* \"#utility.yul\":5951:5977   */\n      swap1\n      pop\n        /* \"#utility.yul\":5987:6058   */\n      tag_163\n        /* \"#utility.yul\":6055:6056   */\n      0x00\n        /* \"#utility.yul\":6044:6053   */\n      dup4\n        /* \"#utility.yul\":6040:6057   */\n      add\n        /* \"#utility.yul\":6031:6037   */\n      dup6\n        /* \"#utility.yul\":5987:6058   */\n      tag_86\n      jump\t// in\n    tag_163:\n        /* \"#utility.yul\":6068:6140   */\n      tag_164\n        /* \"#utility.yul\":6136:6138   */\n      0x20\n        /* \"#utility.yul\":6125:6134   */\n      dup4\n        /* \"#utility.yul\":6121:6139   */\n      add\n        /* \"#utility.yul\":6112:6118   */\n      dup5\n        /* \"#utility.yul\":6068:6140   */\n      tag_86\n      jump\t// in\n    tag_164:\n        /* \"#utility.yul\":5815:6147   */\n      swap4\n      swap3\n      pop\n      pop\n      pop\n      jump\t// out\n        /* \"#utility.yul\":6153:6333   */\n    tag_87:\n        /* \"#utility.yul\":6201:6278   */\n      0x4e487b7100000000000000000000000000000000000000000000000000000000\n        /* \"#utility.yul\":6198:6199   */\n      0x00\n        /* \"#utility.yul\":6191:6279   */\n      mstore\n        /* \"#utility.yul\":6298:6302   */\n      0x11\n        /* \"#utility.yul\":6295:6296   */\n      0x04\n        /* \"#utility.yul\":6288:6303   */\n      mstore\n        /* \"#utility.yul\":6322:6326   */\n      0x24\n        /* \"#utility.yul\":6319:6320   */\n      0x00\n        /* \"#utility.yul\":6312:6327   */\n      revert\n        /* \"#utility.yul\":6339:6533   */\n    tag_24:\n        /* \"#utility.yul\":6379:6383   */\n      0x00\n        /* \"#utility.yul\":6399:6419   */\n      tag_167\n        /* \"#utility.yul\":6417:6418   */\n      dup3\n        /* \"#utility.yul\":6399:6419   */\n      tag_69\n      jump\t// in\n    tag_167:\n        /* \"#utility.yul\":6394:6419   */\n      swap2\n      pop\n        /* \"#utility.yul\":6433:6453   */\n      tag_168\n        /* \"#utility.yul\":6451:6452   */\n      dup4\n        /* \"#utility.yul\":6433:6453   */\n      tag_69\n      jump\t// in\n    tag_168:\n        /* \"#utility.yul\":6428:6453   */\n      swap3\n      pop\n        /* \"#utility.yul\":6477:6478   */\n      dup3\n        /* \"#utility.yul\":6474:6475   */\n      dup3\n        /* \"#utility.yul\":6470:6479   */\n      sub\n        /* \"#utility.yul\":6462:6479   */\n      swap1\n      pop\n        /* \"#utility.yul\":6501:6502   */\n      dup2\n        /* \"#utility.yul\":6495:6499   */\n      dup2\n        /* \"#utility.yul\":6492:6503   */\n      gt\n        /* \"#utility.yul\":6489:6526   */\n      iszero\n      tag_169\n      jumpi\n        /* \"#utility.yul\":6506:6524   */\n      tag_170\n      tag_87\n      jump\t// in\n    tag_170:\n        /* \"#utility.yul\":6489:6526   */\n    tag_169:\n        /* \"#utility.yul\":6339:6533   */\n      swap3\n      swap2\n      pop\n      pop\n      jump\t// out\n        /* \"#utility.yul\":6539:6719   */\n    tag_27:\n        /* \"#utility.yul\":6587:6664   */\n      0x4e487b7100000000000000000000000000000000000000000000000000000000\n        /* \"#utility.yul\":6584:6585   */\n      0x00\n        /* \"#utility.yul\":6577:6665   */\n      mstore\n        /* \"#utility.yul\":6684:6688   */\n      0x32\n        /* \"#utility.yul\":6681:6682   */\n      0x04\n        /* \"#utility.yul\":6674:6689   */\n      mstore\n        /* \"#utility.yul\":6708:6712   */\n      0x24\n        /* \"#utility.yul\":6705:6706   */\n      0x00\n        /* \"#utility.yul\":6698:6713   */\n      revert\n        /* \"#utility.yul\":6725:6874   */\n    tag_88:\n        /* \"#utility.yul\":6761:6768   */\n      0x00\n        /* \"#utility.yul\":6801:6867   */\n      0xff00000000000000000000000000000000000000000000000000000000000000\n        /* \"#utility.yul\":6794:6799   */\n      dup3\n        /* \"#utility.yul\":6790:6868   */\n      and\n        /* \"#utility.yul\":6779:6868   */\n      swap1\n      pop\n        /* \"#utility.yul\":6725:6874   */\n      swap2\n      swap1\n      pop\n      jump\t// out\n        /* \"#utility.yul\":6880:6958   */\n    tag_89:\n        /* \"#utility.yul\":6918:6925   */\n      0x00\n        /* \"#utility.yul\":6947:6952   */\n      dup2\n        /* \"#utility.yul\":6936:6952   */\n      swap1\n      pop\n        /* \"#utility.yul\":6880:6958   */\n      swap2\n      swap1\n      pop\n      jump\t// out\n        /* \"#utility.yul\":6964:7117   */\n    tag_90:\n        /* \"#utility.yul\":7067:7110   */\n      tag_175\n        /* \"#utility.yul\":7086:7109   */\n      tag_176\n        /* \"#utility.yul\":7103:7108   */\n      dup3\n        /* \"#utility.yul\":7086:7109   */\n      tag_88\n      jump\t// in\n    tag_176:\n        /* \"#utility.yul\":7067:7110   */\n      tag_89\n      jump\t// in\n    tag_175:\n        /* \"#utility.yul\":7062:7065   */\n      dup3\n        /* \"#utility.yul\":7055:7111   */\n      mstore\n        /* \"#utility.yul\":6964:7117   */\n      pop\n      pop\n      jump\t// out\n        /* \"#utility.yul\":7123:7374   */\n    tag_29:\n        /* \"#utility.yul\":7233:7236   */\n      0x00\n        /* \"#utility.yul\":7248:7321   */\n      tag_178\n        /* \"#utility.yul\":7317:7320   */\n      dup3\n        /* \"#utility.yul\":7308:7314   */\n      dup5\n        /* \"#utility.yul\":7248:7321   */\n      tag_90\n      jump\t// in\n    tag_178:\n        /* \"#utility.yul\":7346:7347   */\n      0x01\n        /* \"#utility.yul\":7341:7344   */\n      dup3\n        /* \"#utility.yul\":7337:7348   */\n      add\n        /* \"#utility.yul\":7330:7348   */\n      swap2\n      pop\n        /* \"#utility.yul\":7365:7368   */\n      dup2\n        /* \"#utility.yul\":7358:7368   */\n      swap1\n      pop\n        /* \"#utility.yul\":7123:7374   */\n      swap3\n      swap2\n      pop\n      pop\n      jump\t// out\n        /* \"#utility.yul\":7380:7528   */\n    tag_91:\n        /* \"#utility.yul\":7482:7493   */\n      0x00\n        /* \"#utility.yul\":7519:7522   */\n      dup2\n        /* \"#utility.yul\":7504:7522   */\n      swap1\n      pop\n        /* \"#utility.yul\":7380:7528   */\n      swap3\n      swap2\n      pop\n      pop\n      jump\t// out\n        /* \"#utility.yul\":7534:7924   */\n    tag_92:\n        /* \"#utility.yul\":7640:7643   */\n      0x00\n        /* \"#utility.yul\":7668:7707   */\n      tag_181\n        /* \"#utility.yul\":7701:7706   */\n      dup3\n        /* \"#utility.yul\":7668:7707   */\n      tag_72\n      jump\t// in\n    tag_181:\n        /* \"#utility.yul\":7723:7812   */\n      tag_182\n        /* \"#utility.yul\":7805:7811   */\n      dup2\n        /* \"#utility.yul\":7800:7803   */\n      dup6\n        /* \"#utility.yul\":7723:7812   */\n      tag_91\n      jump\t// in\n    tag_182:\n        /* \"#utility.yul\":7716:7812   */\n      swap4\n      pop\n        /* \"#utility.yul\":7821:7886   */\n      tag_183\n        /* \"#utility.yul\":7879:7885   */\n      dup2\n        /* \"#utility.yul\":7874:7877   */\n      dup6\n        /* \"#utility.yul\":7867:7871   */\n      0x20\n        /* \"#utility.yul\":7860:7865   */\n      dup7\n        /* \"#utility.yul\":7856:7872   */\n      add\n        /* \"#utility.yul\":7821:7886   */\n      tag_74\n      jump\t// in\n    tag_183:\n        /* \"#utility.yul\":7911:7917   */\n      dup1\n        /* \"#utility.yul\":7906:7909   */\n      dup5\n        /* \"#utility.yul\":7902:7918   */\n      add\n        /* \"#utility.yul\":7895:7918   */\n      swap2\n      pop\n        /* \"#utility.yul\":7644:7924   */\n      pop\n        /* \"#utility.yul\":7534:7924   */\n      swap3\n      swap2\n      pop\n      pop\n      jump\t// out\n        /* \"#utility.yul\":7930:8112   */\n    tag_93:\n        /* \"#utility.yul\":8098:8105   */\n      0x20616e6420000000000000000000000000000000000000000000000000000000\n        /* \"#utility.yul\":8093:8096   */\n      dup2\n        /* \"#utility.yul\":8086:8106   */\n      mstore\n        /* \"#utility.yul\":7930:8112   */\n      pop\n      jump\t// out\n        /* \"#utility.yul\":8118:8299   */\n    tag_94:\n        /* \"#utility.yul\":8286:8292   */\n      0x206f722000000000000000000000000000000000000000000000000000000000\n        /* \"#utility.yul\":8281:8284   */\n      dup2\n        /* \"#utility.yul\":8274:8293   */\n      mstore\n        /* \"#utility.yul\":8118:8299   */\n      pop\n      jump\t// out\n        /* \"#utility.yul\":8305:9428   */\n    tag_31:\n        /* \"#utility.yul\":8713:8716   */\n      0x00\n        /* \"#utility.yul\":8735:8830   */\n      tag_187\n        /* \"#utility.yul\":8826:8829   */\n      dup3\n        /* \"#utility.yul\":8817:8823   */\n      dup7\n        /* \"#utility.yul\":8735:8830   */\n      tag_92\n      jump\t// in\n    tag_187:\n        /* \"#utility.yul\":8728:8830   */\n      swap2\n      pop\n        /* \"#utility.yul\":8840:8977   */\n      tag_188\n        /* \"#utility.yul\":8973:8976   */\n      dup3\n        /* \"#utility.yul\":8840:8977   */\n      tag_93\n      jump\t// in\n    tag_188:\n        /* \"#utility.yul\":9002:9003   */\n      0x05\n        /* \"#utility.yul\":8997:9000   */\n      dup3\n        /* \"#utility.yul\":8993:9004   */\n      add\n        /* \"#utility.yul\":8986:9004   */\n      swap2\n      pop\n        /* \"#utility.yul\":9021:9116   */\n      tag_189\n        /* \"#utility.yul\":9112:9115   */\n      dup3\n        /* \"#utility.yul\":9103:9109   */\n      dup6\n        /* \"#utility.yul\":9021:9116   */\n      tag_92\n      jump\t// in\n    tag_189:\n        /* \"#utility.yul\":9014:9116   */\n      swap2\n      pop\n        /* \"#utility.yul\":9126:9263   */\n      tag_190\n        /* \"#utility.yul\":9259:9262   */\n      dup3\n        /* \"#utility.yul\":9126:9263   */\n      tag_94\n      jump\t// in\n    tag_190:\n        /* \"#utility.yul\":9288:9289   */\n      0x04\n        /* \"#utility.yul\":9283:9286   */\n      dup3\n        /* \"#utility.yul\":9279:9290   */\n      add\n        /* \"#utility.yul\":9272:9290   */\n      swap2\n      pop\n        /* \"#utility.yul\":9307:9402   */\n      tag_191\n        /* \"#utility.yul\":9398:9401   */\n      dup3\n        /* \"#utility.yul\":9389:9395   */\n      dup5\n        /* \"#utility.yul\":9307:9402   */\n      tag_92\n      jump\t// in\n    tag_191:\n        /* \"#utility.yul\":9300:9402   */\n      swap2\n      pop\n        /* \"#utility.yul\":9419:9422   */\n      dup2\n        /* \"#utility.yul\":9412:9422   */\n      swap1\n      pop\n        /* \"#utility.yul\":8305:9428   */\n      swap5\n      swap4\n      pop\n      pop\n      pop\n      pop\n      jump\t// out\n        /* \"#utility.yul\":9434:9614   */\n    tag_44:\n        /* \"#utility.yul\":9482:9559   */\n      0x4e487b7100000000000000000000000000000000000000000000000000000000\n        /* \"#utility.yul\":9479:9480   */\n      0x00\n        /* \"#utility.yul\":9472:9560   */\n      mstore\n        /* \"#utility.yul\":9579:9583   */\n      0x12\n        /* \"#utility.yul\":9576:9577   */\n      0x04\n        /* \"#utility.yul\":9569:9584   */\n      mstore\n        /* \"#utility.yul\":9603:9607   */\n      0x24\n        /* \"#utility.yul\":9600:9601   */\n      0x00\n        /* \"#utility.yul\":9593:9608   */\n      revert\n\n    auxdata: 0xa2646970667358221220c623cd39a6cc2672a52094a77cf70bbe4ffc2c8ac9b33f76d696767d7daf090564736f6c63430008120033\n}\n",
				"bytecode": {
					"linkReferences": {},
					"object": "608060405234801561001057600080fd5b50610944806100206000396000f3fe608060405234801561001057600080fd5b50600436106100365760003560e01c8063168bee491461003b578063de42b6d61461006b575b600080fd5b6100556004803603810190610050919061041a565b61009c565b60405161006291906104fd565b60405180910390f35b61008560048036038101906100809190610654565b610191565b6040516100939291906106e5565b60405180910390f35b6060600182101580156100b05750601a8211155b6100b957600080fd5b60006100c4856101af565b905060006100d1856101af565b905060006040518060400160405280601a81526020017f6162636465666768696a6b6c6d6e6f707172737475767778797a000000000000815250905060008160018761011d919061073d565b8151811061012e5761012d610771565b5b602001015160f81c60f81b905060008160405160200161014e91906107ed565b604051602081830303815290604052905084848260405160200161017493929190610890565b604051602081830303815290604052955050505050509392505050565b60008083805190602001208380519060200120915091509250929050565b6060600060016101be8461027d565b01905060008167ffffffffffffffff8111156101dd576101dc610529565b5b6040519080825280601f01601f19166020018201604052801561020f5781602001600182028036833780820191505090505b509050600082602001820190505b600115610272578080600190039150507f3031323334353637383961626364656600000000000000000000000000000000600a86061a8153600a8581610266576102656108df565b5b0494506000850361021d575b819350505050919050565b600080600090507a184f03e93ff9f4daa797ed6e38ed64bf6a1f01000000000000000083106102db577a184f03e93ff9f4daa797ed6e38ed64bf6a1f01000000000000000083816102d1576102d06108df565b5b0492506040810190505b6d04ee2d6d415b85acef81000000008310610318576d04ee2d6d415b85acef8100000000838161030e5761030d6108df565b5b0492506020810190505b662386f26fc10000831061034757662386f26fc10000838161033d5761033c6108df565b5b0492506010810190505b6305f5e1008310610370576305f5e1008381610366576103656108df565b5b0492506008810190505b612710831061039557612710838161038b5761038a6108df565b5b0492506004810190505b606483106103b857606483816103ae576103ad6108df565b5b0492506002810190505b600a83106103c7576001810190505b80915050919050565b6000604051905090565b600080fd5b600080fd5b6000819050919050565b6103f7816103e4565b811461040257600080fd5b50565b600081359050610414816103ee565b92915050565b600080600060608486031215610433576104326103da565b5b600061044186828701610405565b935050602061045286828701610405565b925050604061046386828701610405565b9150509250925092565b600081519050919050565b600082825260208201905092915050565b60005b838110156104a757808201518184015260208101905061048c565b60008484015250505050565b6000601f19601f8301169050919050565b60006104cf8261046d565b6104d98185610478565b93506104e9818560208601610489565b6104f2816104b3565b840191505092915050565b6000602082019050818103600083015261051781846104c4565b905092915050565b600080fd5b600080fd5b7f4e487b7100000000000000000000000000000000000000000000000000000000600052604160045260246000fd5b610561826104b3565b810181811067ffffffffffffffff821117156105805761057f610529565b5b80604052505050565b60006105936103d0565b905061059f8282610558565b919050565b600067ffffffffffffffff8211156105bf576105be610529565b5b6105c8826104b3565b9050602081019050919050565b82818337600083830152505050565b60006105f76105f2846105a4565b610589565b90508281526020810184848401111561061357610612610524565b5b61061e8482856105d5565b509392505050565b600082601f83011261063b5761063a61051f565b5b813561064b8482602086016105e4565b91505092915050565b6000806040838503121561066b5761066a6103da565b5b600083013567ffffffffffffffff811115610689576106886103df565b5b61069585828601610626565b925050602083013567ffffffffffffffff8111156106b6576106b56103df565b5b6106c285828601610626565b9150509250929050565b6000819050919050565b6106df816106cc565b82525050565b60006040820190506106fa60008301856106d6565b61070760208301846106d6565b9392505050565b7f4e487b7100000000000000000000000000000000000000000000000000000000600052601160045260246000fd5b6000610748826103e4565b9150610753836103e4565b925082820390508181111561076b5761076a61070e565b5b92915050565b7f4e487b7100000000000000000000000000000000000000000000000000000000600052603260045260246000fd5b60007fff0000000000000000000000000000000000000000000000000000000000000082169050919050565b6000819050919050565b6107e76107e2826107a0565b6107cc565b82525050565b60006107f982846107d6565b60018201915081905092915050565b600081905092915050565b600061081e8261046d565b6108288185610808565b9350610838818560208601610489565b80840191505092915050565b7f20616e6420000000000000000000000000000000000000000000000000000000815250565b7f206f722000000000000000000000000000000000000000000000000000000000815250565b600061089c8286610813565b91506108a782610844565b6005820191506108b78285610813565b91506108c28261086a565b6004820191506108d28284610813565b9150819050949350505050565b7f4e487b7100000000000000000000000000000000000000000000000000000000600052601260045260246000fdfea2646970667358221220c623cd39a6cc2672a52094a77cf70bbe4ffc2c8ac9b33f76d696767d7daf090564736f6c63430008120033",
					"opcodes": "PUSH1 0x80 PUSH1 0x40 MSTORE CALLVALUE DUP1 ISZERO PUSH2 0x10 JUMPI PUSH1 0x0 DUP1 REVERT JUMPDEST POP PUSH2 0x944 DUP1 PUSH2 0x20 PUSH1 0x0 CODECOPY PUSH1 0x0 RETURN INVALID PUSH1 0x80 PUSH1 0x40 MSTORE CALLVALUE DUP1 ISZERO PUSH2 0x10 JUMPI PUSH1 0x0 DUP1 REVERT JUMPDEST POP PUSH1 0x4 CALLDATASIZE LT PUSH2 0x36 JUMPI PUSH1 0x0 CALLDATALOAD PUSH1 0xE0 SHR DUP1 PUSH4 0x168BEE49 EQ PUSH2 0x3B JUMPI DUP1 PUSH4 0xDE42B6D6 EQ PUSH2 0x6B JUMPI JUMPDEST PUSH1 0x0 DUP1 REVERT JUMPDEST PUSH2 0x55 PUSH1 0x4 DUP1 CALLDATASIZE SUB DUP2 ADD SWAP1 PUSH2 0x50 SWAP2 SWAP1 PUSH2 0x41A JUMP JUMPDEST PUSH2 0x9C JUMP JUMPDEST PUSH1 0x40 MLOAD PUSH2 0x62 SWAP2 SWAP1 PUSH2 0x4FD JUMP JUMPDEST PUSH1 0x40 MLOAD DUP1 SWAP2 SUB SWAP1 RETURN JUMPDEST PUSH2 0x85 PUSH1 0x4 DUP1 CALLDATASIZE SUB DUP2 ADD SWAP1 PUSH2 0x80 SWAP2 SWAP1 PUSH2 0x654 JUMP JUMPDEST PUSH2 0x191 JUMP JUMPDEST PUSH1 0x40 MLOAD PUSH2 0x93 SWAP3 SWAP2 SWAP1 PUSH2 0x6E5 JUMP JUMPDEST PUSH1 0x40 MLOAD DUP1 SWAP2 SUB SWAP1 RETURN JUMPDEST PUSH1 0x60 PUSH1 0x1 DUP3 LT ISZERO DUP1 ISZERO PUSH2 0xB0 JUMPI POP PUSH1 0x1A DUP3 GT ISZERO JUMPDEST PUSH2 0xB9 JUMPI PUSH1 0x0 DUP1 REVERT JUMPDEST PUSH1 0x0 PUSH2 0xC4 DUP6 PUSH2 0x1AF JUMP JUMPDEST SWAP1 POP PUSH1 0x0 PUSH2 0xD1 DUP6 PUSH2 0x1AF JUMP JUMPDEST SWAP1 POP PUSH1 0x0 PUSH1 0x40 MLOAD DUP1 PUSH1 0x40 ADD PUSH1 0x40 MSTORE DUP1 PUSH1 0x1A DUP2 MSTORE PUSH1 0x20 ADD PUSH32 0x6162636465666768696A6B6C6D6E6F707172737475767778797A000000000000 DUP2 MSTORE POP SWAP1 POP PUSH1 0x0 DUP2 PUSH1 0x1 DUP8 PUSH2 0x11D SWAP2 SWAP1 PUSH2 0x73D JUMP JUMPDEST DUP2 MLOAD DUP2 LT PUSH2 0x12E JUMPI PUSH2 0x12D PUSH2 0x771 JUMP JUMPDEST JUMPDEST PUSH1 0x20 ADD ADD MLOAD PUSH1 0xF8 SHR PUSH1 0xF8 SHL SWAP1 POP PUSH1 0x0 DUP2 PUSH1 0x40 MLOAD PUSH1 0x20 ADD PUSH2 0x14E SWAP2 SWAP1 PUSH2 0x7ED JUMP JUMPDEST PUSH1 0x40 MLOAD PUSH1 0x20 DUP2 DUP4 SUB SUB DUP2 MSTORE SWAP1 PUSH1 0x40 MSTORE SWAP1 POP DUP5 DUP5 DUP3 PUSH1 0x40 MLOAD PUSH1 0x20 ADD PUSH2 0x174 SWAP4 SWAP3 SWAP2 SWAP1 PUSH2 0x890 JUMP JUMPDEST PUSH1 0x40 MLOAD PUSH1 0x20 DUP2 DUP4 SUB SUB DUP2 MSTORE SWAP1 PUSH1 0x40 MSTORE SWAP6 POP POP POP POP POP POP SWAP4 SWAP3 POP POP POP JUMP JUMPDEST PUSH1 0x0 DUP1 DUP4 DUP1 MLOAD SWAP1 PUSH1 0x20 ADD KECCAK256 DUP4 DUP1 MLOAD SWAP1 PUSH1 0x20 ADD KECCAK256 SWAP2 POP SWAP2 POP SWAP3 POP SWAP3 SWAP1 POP JUMP JUMPDEST PUSH1 0x60 PUSH1 0x0 PUSH1 0x1 PUSH2 0x1BE DUP5 PUSH2 0x27D JUMP JUMPDEST ADD SWAP1 POP PUSH1 0x0 DUP2 PUSH8 0xFFFFFFFFFFFFFFFF DUP2 GT ISZERO PUSH2 0x1DD JUMPI PUSH2 0x1DC PUSH2 0x529 JUMP JUMPDEST JUMPDEST PUSH1 0x40 MLOAD SWAP1 DUP1 DUP3 MSTORE DUP1 PUSH1 0x1F ADD PUSH1 0x1F NOT AND PUSH1 0x20 ADD DUP3 ADD PUSH1 0x40 MSTORE DUP1 ISZERO PUSH2 0x20F JUMPI DUP2 PUSH1 0x20 ADD PUSH1 0x1 DUP3 MUL DUP1 CALLDATASIZE DUP4 CALLDATACOPY DUP1 DUP3 ADD SWAP2 POP POP SWAP1 POP JUMPDEST POP SWAP1 POP PUSH1 0x0 DUP3 PUSH1 0x20 ADD DUP3 ADD SWAP1 POP JUMPDEST PUSH1 0x1 ISZERO PUSH2 0x272 JUMPI DUP1 DUP1 PUSH1 0x1 SWAP1 SUB SWAP2 POP POP PUSH32 0x3031323334353637383961626364656600000000000000000000000000000000 PUSH1 0xA DUP7 MOD BYTE DUP2 MSTORE8 PUSH1 0xA DUP6 DUP2 PUSH2 0x266 JUMPI PUSH2 0x265 PUSH2 0x8DF JUMP JUMPDEST JUMPDEST DIV SWAP5 POP PUSH1 0x0 DUP6 SUB PUSH2 0x21D JUMPI JUMPDEST DUP2 SWAP4 POP POP POP POP SWAP2 SWAP1 POP JUMP JUMPDEST PUSH1 0x0 DUP1 PUSH1 0x0 SWAP1 POP PUSH27 0x184F03E93FF9F4DAA797ED6E38ED64BF6A1F010000000000000000 DUP4 LT PUSH2 0x2DB JUMPI PUSH27 0x184F03E93FF9F4DAA797ED6E38ED64BF6A1F010000000000000000 DUP4 DUP2 PUSH2 0x2D1 JUMPI PUSH2 0x2D0 PUSH2 0x8DF JUMP JUMPDEST JUMPDEST DIV SWAP3 POP PUSH1 0x40 DUP2 ADD SWAP1 POP JUMPDEST PUSH14 0x4EE2D6D415B85ACEF8100000000 DUP4 LT PUSH2 0x318 JUMPI PUSH14 0x4EE2D6D415B85ACEF8100000000 DUP4 DUP2 PUSH2 0x30E JUMPI PUSH2 0x30D PUSH2 0x8DF JUMP JUMPDEST JUMPDEST DIV SWAP3 POP PUSH1 0x20 DUP2 ADD SWAP1 POP JUMPDEST PUSH7 0x2386F26FC10000 DUP4 LT PUSH2 0x347 JUMPI PUSH7 0x2386F26FC10000 DUP4 DUP2 PUSH2 0x33D JUMPI PUSH2 0x33C PUSH2 0x8DF JUMP JUMPDEST JUMPDEST DIV SWAP3 POP PUSH1 0x10 DUP2 ADD SWAP1 POP JUMPDEST PUSH4 0x5F5E100 DUP4 LT PUSH2 0x370 JUMPI PUSH4 0x5F5E100 DUP4 DUP2 PUSH2 0x366 JUMPI PUSH2 0x365 PUSH2 0x8DF JUMP JUMPDEST JUMPDEST DIV SWAP3 POP PUSH1 0x8 DUP2 ADD SWAP1 POP JUMPDEST PUSH2 0x2710 DUP4 LT PUSH2 0x395 JUMPI PUSH2 0x2710 DUP4 DUP2 PUSH2 0x38B JUMPI PUSH2 0x38A PUSH2 0x8DF JUMP JUMPDEST JUMPDEST DIV SWAP3 POP PUSH1 0x4 DUP2 ADD SWAP1 POP JUMPDEST PUSH1 0x64 DUP4 LT PUSH2 0x3B8 JUMPI PUSH1 0x64 DUP4 DUP2 PUSH2 0x3AE JUMPI PUSH2 0x3AD PUSH2 0x8DF JUMP JUMPDEST JUMPDEST DIV SWAP3 POP PUSH1 0x2 DUP2 ADD SWAP1 POP JUMPDEST PUSH1 0xA DUP4 LT PUSH2 0x3C7 JUMPI PUSH1 0x1 DUP2 ADD SWAP1 POP JUMPDEST DUP1 SWAP2 POP POP SWAP2 SWAP1 POP JUMP JUMPDEST PUSH1 0x0 PUSH1 0x40 MLOAD SWAP1 POP SWAP1 JUMP JUMPDEST PUSH1 0x0 DUP1 REVERT JUMPDEST PUSH1 0x0 DUP1 REVERT JUMPDEST PUSH1 0x0 DUP2 SWAP1 POP SWAP2 SWAP1 POP JUMP JUMPDEST PUSH2 0x3F7 DUP2 PUSH2 0x3E4 JUMP JUMPDEST DUP2 EQ PUSH2 0x402 JUMPI PUSH1 0x0 DUP1 REVERT JUMPDEST POP JUMP JUMPDEST PUSH1 0x0 DUP2 CALLDATALOAD SWAP1 POP PUSH2 0x414 DUP2 PUSH2 0x3EE JUMP JUMPDEST SWAP3 SWAP2 POP POP JUMP JUMPDEST PUSH1 0x0 DUP1 PUSH1 0x0 PUSH1 0x60 DUP5 DUP7 SUB SLT ISZERO PUSH2 0x433 JUMPI PUSH2 0x432 PUSH2 0x3DA JUMP JUMPDEST JUMPDEST PUSH1 0x0 PUSH2 0x441 DUP7 DUP3 DUP8 ADD PUSH2 0x405 JUMP JUMPDEST SWAP4 POP POP PUSH1 0x20 PUSH2 0x452 DUP7 DUP3 DUP8 ADD PUSH2 0x405 JUMP JUMPDEST SWAP3 POP POP PUSH1 0x40 PUSH2 0x463 DUP7 DUP3 DUP8 ADD PUSH2 0x405 JUMP JUMPDEST SWAP2 POP POP SWAP3 POP SWAP3 POP SWAP3 JUMP JUMPDEST PUSH1 0x0 DUP2 MLOAD SWAP1 POP SWAP2 SWAP1 POP JUMP JUMPDEST PUSH1 0x0 DUP3 DUP3 MSTORE PUSH1 0x20 DUP3 ADD SWAP1 POP SWAP3 SWAP2 POP POP JUMP JUMPDEST PUSH1 0x0 JUMPDEST DUP4 DUP2 LT ISZERO PUSH2 0x4A7 JUMPI DUP1 DUP3 ADD MLOAD DUP2 DUP5 ADD MSTORE PUSH1 0x20 DUP2 ADD SWAP1 POP PUSH2 0x48C JUMP JUMPDEST PUSH1 0x0 DUP5 DUP5 ADD MSTORE POP POP POP POP JUMP JUMPDEST PUSH1 0x0 PUSH1 0x1F NOT PUSH1 0x1F DUP4 ADD AND SWAP1 POP SWAP2 SWAP1 POP JUMP JUMPDEST PUSH1 0x0 PUSH2 0x4CF DUP3 PUSH2 0x46D JUMP JUMPDEST PUSH2 0x4D9 DUP2 DUP6 PUSH2 0x478 JUMP JUMPDEST SWAP4 POP PUSH2 0x4E9 DUP2 DUP6 PUSH1 0x20 DUP7 ADD PUSH2 0x489 JUMP JUMPDEST PUSH2 0x4F2 DUP2 PUSH2 0x4B3 JUMP JUMPDEST DUP5 ADD SWAP2 POP POP SWAP3 SWAP2 POP POP JUMP JUMPDEST PUSH1 0x0 PUSH1 0x20 DUP3 ADD SWAP1 POP DUP2 DUP2 SUB PUSH1 0x0 DUP4 ADD MSTORE PUSH2 0x517 DUP2 DUP5 PUSH2 0x4C4 JUMP JUMPDEST SWAP1 POP SWAP3 SWAP2 POP POP JUMP JUMPDEST PUSH1 0x0 DUP1 REVERT JUMPDEST PUSH1 0x0 DUP1 REVERT JUMPDEST PUSH32 0x4E487B7100000000000000000000000000000000000000000000000000000000 PUSH1 0x0 MSTORE PUSH1 0x41 PUSH1 0x4 MSTORE PUSH1 0x24 PUSH1 0x0 REVERT JUMPDEST PUSH2 0x561 DUP3 PUSH2 0x4B3 JUMP JUMPDEST DUP2 ADD DUP2 DUP2 LT PUSH8 0xFFFFFFFFFFFFFFFF DUP3 GT OR ISZERO PUSH2 0x580 JUMPI PUSH2 0x57F PUSH2 0x529 JUMP JUMPDEST JUMPDEST DUP1 PUSH1 0x40 MSTORE POP POP POP JUMP JUMPDEST PUSH1 0x0 PUSH2 0x593 PUSH2 0x3D0 JUMP JUMPDEST SWAP1 POP PUSH2 0x59F DUP3 DUP3 PUSH2 0x558 JUMP JUMPDEST SWAP2 SWAP1 POP JUMP JUMPDEST PUSH1 0x0 PUSH8 0xFFFFFFFFFFFFFFFF DUP3 GT ISZERO PUSH2 0x5BF JUMPI PUSH2 0x5BE PUSH2 0x529 JUMP JUMPDEST JUMPDEST PUSH2 0x5C8 DUP3 PUSH2 0x4B3 JUMP JUMPDEST SWAP1 POP PUSH1 0x20 DUP2 ADD SWAP1 POP SWAP2 SWAP1 POP JUMP JUMPDEST DUP3 DUP2 DUP4 CALLDATACOPY PUSH1 0x0 DUP4 DUP4 ADD MSTORE POP POP POP JUMP JUMPDEST PUSH1 0x0 PUSH2 0x5F7 PUSH2 0x5F2 DUP5 PUSH2 0x5A4 JUMP JUMPDEST PUSH2 0x589 JUMP JUMPDEST SWAP1 POP DUP3 DUP2 MSTORE PUSH1 0x20 DUP2 ADD DUP5 DUP5 DUP5 ADD GT ISZERO PUSH2 0x613 JUMPI PUSH2 0x612 PUSH2 0x524 JUMP JUMPDEST JUMPDEST PUSH2 0x61E DUP5 DUP3 DUP6 PUSH2 0x5D5 JUMP JUMPDEST POP SWAP4 SWAP3 POP POP POP JUMP JUMPDEST PUSH1 0x0 DUP3 PUSH1 0x1F DUP4 ADD SLT PUSH2 0x63B JUMPI PUSH2 0x63A PUSH2 0x51F JUMP JUMPDEST JUMPDEST DUP2 CALLDATALOAD PUSH2 0x64B DUP5 DUP3 PUSH1 0x20 DUP7 ADD PUSH2 0x5E4 JUMP JUMPDEST SWAP2 POP POP SWAP3 SWAP2 POP POP JUMP JUMPDEST PUSH1 0x0 DUP1 PUSH1 0x40 DUP4 DUP6 SUB SLT ISZERO PUSH2 0x66B JUMPI PUSH2 0x66A PUSH2 0x3DA JUMP JUMPDEST JUMPDEST PUSH1 0x0 DUP4 ADD CALLDATALOAD PUSH8 0xFFFFFFFFFFFFFFFF DUP2 GT ISZERO PUSH2 0x689 JUMPI PUSH2 0x688 PUSH2 0x3DF JUMP JUMPDEST JUMPDEST PUSH2 0x695 DUP6 DUP3 DUP7 ADD PUSH2 0x626 JUMP JUMPDEST SWAP3 POP POP PUSH1 0x20 DUP4 ADD CALLDATALOAD PUSH8 0xFFFFFFFFFFFFFFFF DUP2 GT ISZERO PUSH2 0x6B6 JUMPI PUSH2 0x6B5 PUSH2 0x3DF JUMP JUMPDEST JUMPDEST PUSH2 0x6C2 DUP6 DUP3 DUP7 ADD PUSH2 0x626 JUMP JUMPDEST SWAP2 POP POP SWAP3 POP SWAP3 SWAP1 POP JUMP JUMPDEST PUSH1 0x0 DUP2 SWAP1 POP SWAP2 SWAP1 POP JUMP JUMPDEST PUSH2 0x6DF DUP2 PUSH2 0x6CC JUMP JUMPDEST DUP3 MSTORE POP POP JUMP JUMPDEST PUSH1 0x0 PUSH1 0x40 DUP3 ADD SWAP1 POP PUSH2 0x6FA PUSH1 0x0 DUP4 ADD DUP6 PUSH2 0x6D6 JUMP JUMPDEST PUSH2 0x707 PUSH1 0x20 DUP4 ADD DUP5 PUSH2 0x6D6 JUMP JUMPDEST SWAP4 SWAP3 POP POP POP JUMP JUMPDEST PUSH32 0x4E487B7100000000000000000000000000000000000000000000000000000000 PUSH1 0x0 MSTORE PUSH1 0x11 PUSH1 0x4 MSTORE PUSH1 0x24 PUSH1 0x0 REVERT JUMPDEST PUSH1 0x0 PUSH2 0x748 DUP3 PUSH2 0x3E4 JUMP JUMPDEST SWAP2 POP PUSH2 0x753 DUP4 PUSH2 0x3E4 JUMP JUMPDEST SWAP3 POP DUP3 DUP3 SUB SWAP1 POP DUP2 DUP2 GT ISZERO PUSH2 0x76B JUMPI PUSH2 0x76A PUSH2 0x70E JUMP JUMPDEST JUMPDEST SWAP3 SWAP2 POP POP JUMP JUMPDEST PUSH32 0x4E487B7100000000000000000000000000000000000000000000000000000000 PUSH1 0x0 MSTORE PUSH1 0x32 PUSH1 0x4 MSTORE PUSH1 0x24 PUSH1 0x0 REVERT JUMPDEST PUSH1 0x0 PUSH32 0xFF00000000000000000000000000000000000000000000000000000000000000 DUP3 AND SWAP1 POP SWAP2 SWAP1 POP JUMP JUMPDEST PUSH1 0x0 DUP2 SWAP1 POP SWAP2 SWAP1 POP JUMP JUMPDEST PUSH2 0x7E7 PUSH2 0x7E2 DUP3 PUSH2 0x7A0 JUMP JUMPDEST PUSH2 0x7CC JUMP JUMPDEST DUP3 MSTORE POP POP JUMP JUMPDEST PUSH1 0x0 PUSH2 0x7F9 DUP3 DUP5 PUSH2 0x7D6 JUMP JUMPDEST PUSH1 0x1 DUP3 ADD SWAP2 POP DUP2 SWAP1 POP SWAP3 SWAP2 POP POP JUMP JUMPDEST PUSH1 0x0 DUP2 SWAP1 POP SWAP3 SWAP2 POP POP JUMP JUMPDEST PUSH1 0x0 PUSH2 0x81E DUP3 PUSH2 0x46D JUMP JUMPDEST PUSH2 0x828 DUP2 DUP6 PUSH2 0x808 JUMP JUMPDEST SWAP4 POP PUSH2 0x838 DUP2 DUP6 PUSH1 0x20 DUP7 ADD PUSH2 0x489 JUMP JUMPDEST DUP1 DUP5 ADD SWAP2 POP POP SWAP3 SWAP2 POP POP JUMP JUMPDEST PUSH32 0x20616E6420000000000000000000000000000000000000000000000000000000 DUP2 MSTORE POP JUMP JUMPDEST PUSH32 0x206F722000000000000000000000000000000000000000000000000000000000 DUP2 MSTORE POP JUMP JUMPDEST PUSH1 0x0 PUSH2 0x89C DUP3 DUP7 PUSH2 0x813 JUMP JUMPDEST SWAP2 POP PUSH2 0x8A7 DUP3 PUSH2 0x844 JUMP JUMPDEST PUSH1 0x5 DUP3 ADD SWAP2 POP PUSH2 0x8B7 DUP3 DUP6 PUSH2 0x813 JUMP JUMPDEST SWAP2 POP PUSH2 0x8C2 DUP3 PUSH2 0x86A JUMP JUMPDEST PUSH1 0x4 DUP3 ADD SWAP2 POP PUSH2 0x8D2 DUP3 DUP5 PUSH2 0x813 JUMP JUMPDEST SWAP2 POP DUP2 SWAP1 POP SWAP5 SWAP4 POP POP POP POP JUMP JUMPDEST PUSH32 0x4E487B7100000000000000000000000000000000000000000000000000000000 PUSH1 0x0 MSTORE PUSH1 0x12 PUSH1 0x4 MSTORE PUSH1 0x24 PUSH1 0x0 REVERT INVALID LOG2 PUSH5 0x6970667358 0x22 SLT KECCAK256 0xC6 0x23 0xCD CODECOPY 0xA6 0xCC 0x26 PUSH19 0xA52094A77CF70BBE4FFC2C8AC9B33F76D69676 PUSH30 0x7DAF090564736F6C63430008120033000000000000000000000000000000 "
				},
				"gasEstimates": {
					"creation": {
						"codeDepositCost": "474400",
						"executionCost": "511",
						"totalCost": "474911"
					},
					"external": {
						"Q28(string,string)": "infinite",
						"Q69(uint256,uint256,uint256)": "infinite"
					}
				},
				"methodIdentifiers": {
					"Q28(string,string)": "de42b6d6",
					"Q69(uint256,uint256,uint256)": "168bee49"
				}
			},
			"storageLayout": {
				"storage": [],
				"types": null
			},
			"userdoc": {
				"kind": "user",
				"methods": {},
				"version": 1
			}
		}
	}
}