{
	"contracts/230607/babylion.sol": {
		"CONCAT": {
			"abi": [
				{
					"inputs": [],
					"name": "aa",
					"outputs": [
						{
							"internalType": "uint256",
							"name": "",
							"type": "uint256"
						}
					],
					"stateMutability": "view",
					"type": "function"
				},
				{
					"inputs": [
						{
							"internalType": "string",
							"name": "a",
							"type": "string"
						},
						{
							"internalType": "string",
							"name": "b",
							"type": "string"
						}
					],
					"name": "concat1",
					"outputs": [
						{
							"internalType": "string",
							"name": "",
							"type": "string"
						}
					],
					"stateMutability": "pure",
					"type": "function"
				},
				{
					"inputs": [
						{
							"internalType": "string",
							"name": "a",
							"type": "string"
						},
						{
							"internalType": "string",
							"name": "b",
							"type": "string"
						}
					],
					"name": "concat2",
					"outputs": [
						{
							"internalType": "string",
							"name": "",
							"type": "string"
						}
					],
					"stateMutability": "pure",
					"type": "function"
				},
				{
					"inputs": [
						{
							"internalType": "string",
							"name": "a",
							"type": "string"
						},
						{
							"internalType": "string",
							"name": "b",
							"type": "string"
						}
					],
					"name": "concat2_2",
					"outputs": [
						{
							"internalType": "string",
							"name": "",
							"type": "string"
						}
					],
					"stateMutability": "pure",
					"type": "function"
				},
				{
					"inputs": [],
					"name": "concat3",
					"outputs": [
						{
							"internalType": "string",
							"name": "",
							"type": "string"
						}
					],
					"stateMutability": "view",
					"type": "function"
				}
			],
			"devdoc": {
				"kind": "dev",
				"methods": {},
				"version": 1
			},
			"evm": {
				"assembly": "    /* \"contracts/230607/babylion.sol\":117:798  contract CONCAT {... */\n  mstore(0x40, 0x80)\n    /* \"contracts/230607/babylion.sol\":783:795  block.number */\n  number\n    /* \"contracts/230607/babylion.sol\":766:795  uint public aa = block.number */\n  0x00\n  sstore\n    /* \"contracts/230607/babylion.sol\":117:798  contract CONCAT {... */\n  callvalue\n  dup1\n  iszero\n  tag_1\n  jumpi\n  0x00\n  dup1\n  revert\ntag_1:\n  pop\n  dataSize(sub_0)\n  dup1\n  dataOffset(sub_0)\n  0x00\n  codecopy\n  0x00\n  return\nstop\n\nsub_0: assembly {\n        /* \"contracts/230607/babylion.sol\":117:798  contract CONCAT {... */\n      mstore(0x40, 0x80)\n      callvalue\n      dup1\n      iszero\n      tag_1\n      jumpi\n      0x00\n      dup1\n      revert\n    tag_1:\n      pop\n      jumpi(tag_2, lt(calldatasize, 0x04))\n      shr(0xe0, calldataload(0x00))\n      dup1\n      0x252a1437\n      eq\n      tag_3\n      jumpi\n      dup1\n      0x3d9799b4\n      eq\n      tag_4\n      jumpi\n      dup1\n      0x574eba86\n      eq\n      tag_5\n      jumpi\n      dup1\n      0x8466c3e6\n      eq\n      tag_6\n      jumpi\n      dup1\n      0xf6084f07\n      eq\n      tag_7\n      jumpi\n    tag_2:\n      0x00\n      dup1\n      revert\n        /* \"contracts/230607/babylion.sol\":288:416  function concat2(string memory a, string memory b) public pure returns(string memory) {... */\n    tag_3:\n      tag_8\n      0x04\n      dup1\n      calldatasize\n      sub\n      dup2\n      add\n      swap1\n      tag_9\n      swap2\n      swap1\n      tag_10\n      jump\t// in\n    tag_9:\n      tag_11\n      jump\t// in\n    tag_8:\n      mload(0x40)\n      tag_12\n      swap2\n      swap1\n      tag_13\n      jump\t// in\n    tag_12:\n      mload(0x40)\n      dup1\n      swap2\n      sub\n      swap1\n      return\n        /* \"contracts/230607/babylion.sol\":139:278  function concat1(string memory a, string memory b) public pure returns(string memory) {... */\n    tag_4:\n      tag_14\n      0x04\n      dup1\n      calldatasize\n      sub\n      dup2\n      add\n      swap1\n      tag_15\n      swap2\n      swap1\n      tag_10\n      jump\t// in\n    tag_15:\n      tag_16\n      jump\t// in\n    tag_14:\n      mload(0x40)\n      tag_17\n      swap2\n      swap1\n      tag_13\n      jump\t// in\n    tag_17:\n      mload(0x40)\n      dup1\n      swap2\n      sub\n      swap1\n      return\n        /* \"contracts/230607/babylion.sol\":422:580  function concat2_2(string memory a, string memory b) public pure returns(string memory) {... */\n    tag_5:\n      tag_18\n      0x04\n      dup1\n      calldatasize\n      sub\n      dup2\n      add\n      swap1\n      tag_19\n      swap2\n      swap1\n      tag_10\n      jump\t// in\n    tag_19:\n      tag_20\n      jump\t// in\n    tag_18:\n      mload(0x40)\n      tag_21\n      swap2\n      swap1\n      tag_13\n      jump\t// in\n    tag_21:\n      mload(0x40)\n      dup1\n      swap2\n      sub\n      swap1\n      return\n        /* \"contracts/230607/babylion.sol\":766:795  uint public aa = block.number */\n    tag_6:\n      tag_22\n      tag_23\n      jump\t// in\n    tag_22:\n      mload(0x40)\n      tag_24\n      swap2\n      swap1\n      tag_25\n      jump\t// in\n    tag_24:\n      mload(0x40)\n      dup1\n      swap2\n      sub\n      swap1\n      return\n        /* \"contracts/230607/babylion.sol\":586:760  function concat3() public view returns(string memory) {... */\n    tag_7:\n      tag_26\n      tag_27\n      jump\t// in\n    tag_26:\n      mload(0x40)\n      tag_28\n      swap2\n      swap1\n      tag_13\n      jump\t// in\n    tag_28:\n      mload(0x40)\n      dup1\n      swap2\n      sub\n      swap1\n      return\n        /* \"contracts/230607/babylion.sol\":288:416  function concat2(string memory a, string memory b) public pure returns(string memory) {... */\n    tag_11:\n        /* \"contracts/230607/babylion.sol\":359:372  string memory */\n      0x60\n        /* \"contracts/230607/babylion.sol\":405:406  a */\n      dup3\n        /* \"contracts/230607/babylion.sol\":407:408  b */\n      dup3\n        /* \"contracts/230607/babylion.sol\":391:409  string.concat(a,b) */\n      add(0x20, mload(0x40))\n      tag_30\n      swap3\n      swap2\n      swap1\n      tag_31\n      jump\t// in\n    tag_30:\n      mload(0x40)\n      0x20\n      dup2\n      dup4\n      sub\n      sub\n      dup2\n      mstore\n      swap1\n      0x40\n      mstore\n        /* \"contracts/230607/babylion.sol\":384:409  return string.concat(a,b) */\n      swap1\n      pop\n        /* \"contracts/230607/babylion.sol\":288:416  function concat2(string memory a, string memory b) public pure returns(string memory) {... */\n      swap3\n      swap2\n      pop\n      pop\n      jump\t// out\n        /* \"contracts/230607/babylion.sol\":139:278  function concat1(string memory a, string memory b) public pure returns(string memory) {... */\n    tag_16:\n        /* \"contracts/230607/babylion.sol\":210:223  string memory */\n      0x60\n        /* \"contracts/230607/babylion.sol\":266:267  a */\n      dup3\n        /* \"contracts/230607/babylion.sol\":268:269  b */\n      dup3\n        /* \"contracts/230607/babylion.sol\":249:270  abi.encodePacked(a,b) */\n      add(0x20, mload(0x40))\n      tag_33\n      swap3\n      swap2\n      swap1\n      tag_31\n      jump\t// in\n    tag_33:\n      mload(0x40)\n      0x20\n      dup2\n      dup4\n      sub\n      sub\n      dup2\n      mstore\n      swap1\n      0x40\n      mstore\n        /* \"contracts/230607/babylion.sol\":235:271  return string(abi.encodePacked(a,b)) */\n      swap1\n      pop\n        /* \"contracts/230607/babylion.sol\":139:278  function concat1(string memory a, string memory b) public pure returns(string memory) {... */\n      swap3\n      swap2\n      pop\n      pop\n      jump\t// out\n        /* \"contracts/230607/babylion.sol\":422:580  function concat2_2(string memory a, string memory b) public pure returns(string memory) {... */\n    tag_20:\n        /* \"contracts/230607/babylion.sol\":495:508  string memory */\n      0x60\n        /* \"contracts/230607/babylion.sol\":541:542  a */\n      dup3\n        /* \"contracts/230607/babylion.sol\":548:549  a */\n      dup4\n        /* \"contracts/230607/babylion.sol\":551:552  a */\n      dup5\n        /* \"contracts/230607/babylion.sol\":559:560  b */\n      dup5\n        /* \"contracts/230607/babylion.sol\":567:568  b */\n      dup6\n        /* \"contracts/230607/babylion.sol\":570:571  b */\n      dup7\n        /* \"contracts/230607/babylion.sol\":527:572  string.concat(a,\":\", a, a, \" \", b, \":\", b, b) */\n      add(0x20, mload(0x40))\n      tag_35\n      swap7\n      swap6\n      swap5\n      swap4\n      swap3\n      swap2\n      swap1\n      tag_36\n      jump\t// in\n    tag_35:\n      mload(0x40)\n      0x20\n      dup2\n      dup4\n      sub\n      sub\n      dup2\n      mstore\n      swap1\n      0x40\n      mstore\n        /* \"contracts/230607/babylion.sol\":520:572  return string.concat(a,\":\", a, a, \" \", b, \":\", b, b) */\n      swap1\n      pop\n        /* \"contracts/230607/babylion.sol\":422:580  function concat2_2(string memory a, string memory b) public pure returns(string memory) {... */\n      swap3\n      swap2\n      pop\n      pop\n      jump\t// out\n        /* \"contracts/230607/babylion.sol\":766:795  uint public aa = block.number */\n    tag_23:\n      sload(0x00)\n      dup2\n      jump\t// out\n        /* \"contracts/230607/babylion.sol\":586:760  function concat3() public view returns(string memory) {... */\n    tag_27:\n        /* \"contracts/230607/babylion.sol\":625:638  string memory */\n      0x60\n        /* \"contracts/230607/babylion.sol\":650:665  string memory a */\n      0x00\n        /* \"contracts/230607/babylion.sol\":668:698  Strings.toString(block.number) */\n      tag_38\n        /* \"contracts/230607/babylion.sol\":685:697  block.number */\n      number\n        /* \"contracts/230607/babylion.sol\":668:684  Strings.toString */\n      tag_39\n        /* \"contracts/230607/babylion.sol\":668:698  Strings.toString(block.number) */\n      jump\t// in\n    tag_38:\n        /* \"contracts/230607/babylion.sol\":650:698  string memory a = Strings.toString(block.number) */\n      swap1\n      pop\n        /* \"contracts/230607/babylion.sol\":751:752  a */\n      dup1\n        /* \"contracts/230607/babylion.sol\":715:753  string.concat(\"The block number is\",a) */\n      add(0x20, mload(0x40))\n      tag_40\n      swap2\n      swap1\n      tag_41\n      jump\t// in\n    tag_40:\n      mload(0x40)\n      0x20\n      dup2\n      dup4\n      sub\n      sub\n      dup2\n      mstore\n      swap1\n      0x40\n      mstore\n        /* \"contracts/230607/babylion.sol\":708:753  return string.concat(\"The block number is\",a) */\n      swap2\n      pop\n      pop\n        /* \"contracts/230607/babylion.sol\":586:760  function concat3() public view returns(string memory) {... */\n      swap1\n      jump\t// out\n        /* \"@openzeppelin/contracts/utils/Strings.sol\":447:1143  function toString(uint256 value) internal pure returns (string memory) {... */\n    tag_39:\n        /* \"@openzeppelin/contracts/utils/Strings.sol\":503:516  string memory */\n      0x60\n        /* \"@openzeppelin/contracts/utils/Strings.sol\":552:566  uint256 length */\n      0x00\n        /* \"@openzeppelin/contracts/utils/Strings.sol\":589:590  1 */\n      0x01\n        /* \"@openzeppelin/contracts/utils/Strings.sol\":569:586  Math.log10(value) */\n      tag_43\n        /* \"@openzeppelin/contracts/utils/Strings.sol\":580:585  value */\n      dup5\n        /* \"@openzeppelin/contracts/utils/Strings.sol\":569:579  Math.log10 */\n      tag_44\n        /* \"@openzeppelin/contracts/utils/Strings.sol\":569:586  Math.log10(value) */\n      jump\t// in\n    tag_43:\n        /* \"@openzeppelin/contracts/utils/Strings.sol\":569:590  Math.log10(value) + 1 */\n      add\n        /* \"@openzeppelin/contracts/utils/Strings.sol\":552:590  uint256 length = Math.log10(value) + 1 */\n      swap1\n      pop\n        /* \"@openzeppelin/contracts/utils/Strings.sol\":604:624  string memory buffer */\n      0x00\n        /* \"@openzeppelin/contracts/utils/Strings.sol\":638:644  length */\n      dup2\n        /* \"@openzeppelin/contracts/utils/Strings.sol\":627:645  new string(length) */\n      0xffffffffffffffff\n      dup2\n      gt\n      iszero\n      tag_45\n      jumpi\n      tag_46\n      tag_47\n      jump\t// in\n    tag_46:\n    tag_45:\n      mload(0x40)\n      swap1\n      dup1\n      dup3\n      mstore\n      dup1\n      0x1f\n      add\n      not(0x1f)\n      and\n      0x20\n      add\n      dup3\n      add\n      0x40\n      mstore\n      dup1\n      iszero\n      tag_48\n      jumpi\n      dup2\n      0x20\n      add\n      0x01\n      dup3\n      mul\n      dup1\n      calldatasize\n      dup4\n      calldatacopy\n      dup1\n      dup3\n      add\n      swap2\n      pop\n      pop\n      swap1\n      pop\n    tag_48:\n      pop\n        /* \"@openzeppelin/contracts/utils/Strings.sol\":604:645  string memory buffer = new string(length) */\n      swap1\n      pop\n        /* \"@openzeppelin/contracts/utils/Strings.sol\":659:670  uint256 ptr */\n      0x00\n        /* \"@openzeppelin/contracts/utils/Strings.sol\":785:791  length */\n      dup3\n        /* \"@openzeppelin/contracts/utils/Strings.sol\":781:783  32 */\n      0x20\n        /* \"@openzeppelin/contracts/utils/Strings.sol\":777:792  add(32, length) */\n      add\n        /* \"@openzeppelin/contracts/utils/Strings.sol\":769:775  buffer */\n      dup3\n        /* \"@openzeppelin/contracts/utils/Strings.sol\":765:793  add(buffer, add(32, length)) */\n      add\n        /* \"@openzeppelin/contracts/utils/Strings.sol\":758:793  ptr := add(buffer, add(32, length)) */\n      swap1\n      pop\n        /* \"@openzeppelin/contracts/utils/Strings.sol\":820:1100  while (true) {... */\n    tag_49:\n        /* \"@openzeppelin/contracts/utils/Strings.sol\":827:831  true */\n      0x01\n        /* \"@openzeppelin/contracts/utils/Strings.sol\":820:1100  while (true) {... */\n      iszero\n      tag_50\n      jumpi\n        /* \"@openzeppelin/contracts/utils/Strings.sol\":851:856  ptr-- */\n      dup1\n      dup1\n      0x01\n      swap1\n      sub\n      swap2\n      pop\n      pop\n        /* \"@openzeppelin/contracts/utils/Strings.sol\":990:998  _SYMBOLS */\n      0x3031323334353637383961626364656600000000000000000000000000000000\n        /* \"@openzeppelin/contracts/utils/Strings.sol\":985:987  10 */\n      0x0a\n        /* \"@openzeppelin/contracts/utils/Strings.sol\":978:983  value */\n      dup7\n        /* \"@openzeppelin/contracts/utils/Strings.sol\":974:988  mod(value, 10) */\n      mod\n        /* \"@openzeppelin/contracts/utils/Strings.sol\":969:999  byte(mod(value, 10), _SYMBOLS) */\n      byte\n        /* \"@openzeppelin/contracts/utils/Strings.sol\":964:967  ptr */\n      dup2\n        /* \"@openzeppelin/contracts/utils/Strings.sol\":956:1000  mstore8(ptr, byte(mod(value, 10), _SYMBOLS)) */\n      mstore8\n        /* \"@openzeppelin/contracts/utils/Strings.sol\":1044:1046  10 */\n      0x0a\n        /* \"@openzeppelin/contracts/utils/Strings.sol\":1035:1046  value /= 10 */\n      dup6\n      dup2\n      tag_51\n      jumpi\n      tag_52\n      tag_53\n      jump\t// in\n    tag_52:\n    tag_51:\n      div\n      swap5\n      pop\n        /* \"@openzeppelin/contracts/utils/Strings.sol\":1077:1078  0 */\n      0x00\n        /* \"@openzeppelin/contracts/utils/Strings.sol\":1068:1073  value */\n      dup6\n        /* \"@openzeppelin/contracts/utils/Strings.sol\":1068:1078  value == 0 */\n      sub\n        /* \"@openzeppelin/contracts/utils/Strings.sol\":820:1100  while (true) {... */\n      tag_49\n        /* \"@openzeppelin/contracts/utils/Strings.sol\":1064:1085  if (value == 0) break */\n      jumpi\n        /* \"@openzeppelin/contracts/utils/Strings.sol\":820:1100  while (true) {... */\n    tag_50:\n        /* \"@openzeppelin/contracts/utils/Strings.sol\":1120:1126  buffer */\n      dup2\n        /* \"@openzeppelin/contracts/utils/Strings.sol\":1113:1126  return buffer */\n      swap4\n      pop\n      pop\n      pop\n      pop\n        /* \"@openzeppelin/contracts/utils/Strings.sol\":447:1143  function toString(uint256 value) internal pure returns (string memory) {... */\n      swap2\n      swap1\n      pop\n      jump\t// out\n        /* \"@openzeppelin/contracts/utils/math/Math.sol\":10139:11055  function log10(uint256 value) internal pure returns (uint256) {... */\n    tag_44:\n        /* \"@openzeppelin/contracts/utils/math/Math.sol\":10192:10199  uint256 */\n      0x00\n        /* \"@openzeppelin/contracts/utils/math/Math.sol\":10211:10225  uint256 result */\n      dup1\n        /* \"@openzeppelin/contracts/utils/math/Math.sol\":10228:10229  0 */\n      0x00\n        /* \"@openzeppelin/contracts/utils/math/Math.sol\":10211:10229  uint256 result = 0 */\n      swap1\n      pop\n        /* \"@openzeppelin/contracts/utils/math/Math.sol\":10276:10284  10 ** 64 */\n      0x184f03e93ff9f4daa797ed6e38ed64bf6a1f010000000000000000\n        /* \"@openzeppelin/contracts/utils/math/Math.sol\":10267:10272  value */\n      dup4\n        /* \"@openzeppelin/contracts/utils/math/Math.sol\":10267:10284  value >= 10 ** 64 */\n      lt\n        /* \"@openzeppelin/contracts/utils/math/Math.sol\":10263:10366  if (value >= 10 ** 64) {... */\n      tag_56\n      jumpi\n        /* \"@openzeppelin/contracts/utils/math/Math.sol\":10313:10321  10 ** 64 */\n      0x184f03e93ff9f4daa797ed6e38ed64bf6a1f010000000000000000\n        /* \"@openzeppelin/contracts/utils/math/Math.sol\":10304:10321  value /= 10 ** 64 */\n      dup4\n      dup2\n      tag_57\n      jumpi\n      tag_58\n      tag_53\n      jump\t// in\n    tag_58:\n    tag_57:\n      div\n      swap3\n      pop\n        /* \"@openzeppelin/contracts/utils/math/Math.sol\":10349:10351  64 */\n      0x40\n        /* \"@openzeppelin/contracts/utils/math/Math.sol\":10339:10351  result += 64 */\n      dup2\n      add\n      swap1\n      pop\n        /* \"@openzeppelin/contracts/utils/math/Math.sol\":10263:10366  if (value >= 10 ** 64) {... */\n    tag_56:\n        /* \"@openzeppelin/contracts/utils/math/Math.sol\":10392:10400  10 ** 32 */\n      0x04ee2d6d415b85acef8100000000\n        /* \"@openzeppelin/contracts/utils/math/Math.sol\":10383:10388  value */\n      dup4\n        /* \"@openzeppelin/contracts/utils/math/Math.sol\":10383:10400  value >= 10 ** 32 */\n      lt\n        /* \"@openzeppelin/contracts/utils/math/Math.sol\":10379:10482  if (value >= 10 ** 32) {... */\n      tag_59\n      jumpi\n        /* \"@openzeppelin/contracts/utils/math/Math.sol\":10429:10437  10 ** 32 */\n      0x04ee2d6d415b85acef8100000000\n        /* \"@openzeppelin/contracts/utils/math/Math.sol\":10420:10437  value /= 10 ** 32 */\n      dup4\n      dup2\n      tag_60\n      jumpi\n      tag_61\n      tag_53\n      jump\t// in\n    tag_61:\n    tag_60:\n      div\n      swap3\n      pop\n        /* \"@openzeppelin/contracts/utils/math/Math.sol\":10465:10467  32 */\n      0x20\n        /* \"@openzeppelin/contracts/utils/math/Math.sol\":10455:10467  result += 32 */\n      dup2\n      add\n      swap1\n      pop\n        /* \"@openzeppelin/contracts/utils/math/Math.sol\":10379:10482  if (value >= 10 ** 32) {... */\n    tag_59:\n        /* \"@openzeppelin/contracts/utils/math/Math.sol\":10508:10516  10 ** 16 */\n      0x2386f26fc10000\n        /* \"@openzeppelin/contracts/utils/math/Math.sol\":10499:10504  value */\n      dup4\n        /* \"@openzeppelin/contracts/utils/math/Math.sol\":10499:10516  value >= 10 ** 16 */\n      lt\n        /* \"@openzeppelin/contracts/utils/math/Math.sol\":10495:10598  if (value >= 10 ** 16) {... */\n      tag_62\n      jumpi\n        /* \"@openzeppelin/contracts/utils/math/Math.sol\":10545:10553  10 ** 16 */\n      0x2386f26fc10000\n        /* \"@openzeppelin/contracts/utils/math/Math.sol\":10536:10553  value /= 10 ** 16 */\n      dup4\n      dup2\n      tag_63\n      jumpi\n      tag_64\n      tag_53\n      jump\t// in\n    tag_64:\n    tag_63:\n      div\n      swap3\n      pop\n        /* \"@openzeppelin/contracts/utils/math/Math.sol\":10581:10583  16 */\n      0x10\n        /* \"@openzeppelin/contracts/utils/math/Math.sol\":10571:10583  result += 16 */\n      dup2\n      add\n      swap1\n      pop\n        /* \"@openzeppelin/contracts/utils/math/Math.sol\":10495:10598  if (value >= 10 ** 16) {... */\n    tag_62:\n        /* \"@openzeppelin/contracts/utils/math/Math.sol\":10624:10631  10 ** 8 */\n      0x05f5e100\n        /* \"@openzeppelin/contracts/utils/math/Math.sol\":10615:10620  value */\n      dup4\n        /* \"@openzeppelin/contracts/utils/math/Math.sol\":10615:10631  value >= 10 ** 8 */\n      lt\n        /* \"@openzeppelin/contracts/utils/math/Math.sol\":10611:10711  if (value >= 10 ** 8) {... */\n      tag_65\n      jumpi\n        /* \"@openzeppelin/contracts/utils/math/Math.sol\":10660:10667  10 ** 8 */\n      0x05f5e100\n        /* \"@openzeppelin/contracts/utils/math/Math.sol\":10651:10667  value /= 10 ** 8 */\n      dup4\n      dup2\n      tag_66\n      jumpi\n      tag_67\n      tag_53\n      jump\t// in\n    tag_67:\n    tag_66:\n      div\n      swap3\n      pop\n        /* \"@openzeppelin/contracts/utils/math/Math.sol\":10695:10696  8 */\n      0x08\n        /* \"@openzeppelin/contracts/utils/math/Math.sol\":10685:10696  result += 8 */\n      dup2\n      add\n      swap1\n      pop\n        /* \"@openzeppelin/contracts/utils/math/Math.sol\":10611:10711  if (value >= 10 ** 8) {... */\n    tag_65:\n        /* \"@openzeppelin/contracts/utils/math/Math.sol\":10737:10744  10 ** 4 */\n      0x2710\n        /* \"@openzeppelin/contracts/utils/math/Math.sol\":10728:10733  value */\n      dup4\n        /* \"@openzeppelin/contracts/utils/math/Math.sol\":10728:10744  value >= 10 ** 4 */\n      lt\n        /* \"@openzeppelin/contracts/utils/math/Math.sol\":10724:10824  if (value >= 10 ** 4) {... */\n      tag_68\n      jumpi\n        /* \"@openzeppelin/contracts/utils/math/Math.sol\":10773:10780  10 ** 4 */\n      0x2710\n        /* \"@openzeppelin/contracts/utils/math/Math.sol\":10764:10780  value /= 10 ** 4 */\n      dup4\n      dup2\n      tag_69\n      jumpi\n      tag_70\n      tag_53\n      jump\t// in\n    tag_70:\n    tag_69:\n      div\n      swap3\n      pop\n        /* \"@openzeppelin/contracts/utils/math/Math.sol\":10808:10809  4 */\n      0x04\n        /* \"@openzeppelin/contracts/utils/math/Math.sol\":10798:10809  result += 4 */\n      dup2\n      add\n      swap1\n      pop\n        /* \"@openzeppelin/contracts/utils/math/Math.sol\":10724:10824  if (value >= 10 ** 4) {... */\n    tag_68:\n        /* \"@openzeppelin/contracts/utils/math/Math.sol\":10850:10857  10 ** 2 */\n      0x64\n        /* \"@openzeppelin/contracts/utils/math/Math.sol\":10841:10846  value */\n      dup4\n        /* \"@openzeppelin/contracts/utils/math/Math.sol\":10841:10857  value >= 10 ** 2 */\n      lt\n        /* \"@openzeppelin/contracts/utils/math/Math.sol\":10837:10937  if (value >= 10 ** 2) {... */\n      tag_71\n      jumpi\n        /* \"@openzeppelin/contracts/utils/math/Math.sol\":10886:10893  10 ** 2 */\n      0x64\n        /* \"@openzeppelin/contracts/utils/math/Math.sol\":10877:10893  value /= 10 ** 2 */\n      dup4\n      dup2\n      tag_72\n      jumpi\n      tag_73\n      tag_53\n      jump\t// in\n    tag_73:\n    tag_72:\n      div\n      swap3\n      pop\n        /* \"@openzeppelin/contracts/utils/math/Math.sol\":10921:10922  2 */\n      0x02\n        /* \"@openzeppelin/contracts/utils/math/Math.sol\":10911:10922  result += 2 */\n      dup2\n      add\n      swap1\n      pop\n        /* \"@openzeppelin/contracts/utils/math/Math.sol\":10837:10937  if (value >= 10 ** 2) {... */\n    tag_71:\n        /* \"@openzeppelin/contracts/utils/math/Math.sol\":10963:10970  10 ** 1 */\n      0x0a\n        /* \"@openzeppelin/contracts/utils/math/Math.sol\":10954:10959  value */\n      dup4\n        /* \"@openzeppelin/contracts/utils/math/Math.sol\":10954:10970  value >= 10 ** 1 */\n      lt\n        /* \"@openzeppelin/contracts/utils/math/Math.sol\":10950:11016  if (value >= 10 ** 1) {... */\n      tag_74\n      jumpi\n        /* \"@openzeppelin/contracts/utils/math/Math.sol\":11000:11001  1 */\n      0x01\n        /* \"@openzeppelin/contracts/utils/math/Math.sol\":10990:11001  result += 1 */\n      dup2\n      add\n      swap1\n      pop\n        /* \"@openzeppelin/contracts/utils/math/Math.sol\":10950:11016  if (value >= 10 ** 1) {... */\n    tag_74:\n        /* \"@openzeppelin/contracts/utils/math/Math.sol\":11042:11048  result */\n      dup1\n        /* \"@openzeppelin/contracts/utils/math/Math.sol\":11035:11048  return result */\n      swap2\n      pop\n      pop\n        /* \"@openzeppelin/contracts/utils/math/Math.sol\":10139:11055  function log10(uint256 value) internal pure returns (uint256) {... */\n      swap2\n      swap1\n      pop\n      jump\t// out\n        /* \"#utility.yul\":7:82   */\n    tag_75:\n        /* \"#utility.yul\":40:46   */\n      0x00\n        /* \"#utility.yul\":73:75   */\n      0x40\n        /* \"#utility.yul\":67:76   */\n      mload\n        /* \"#utility.yul\":57:76   */\n      swap1\n      pop\n        /* \"#utility.yul\":7:82   */\n      swap1\n      jump\t// out\n        /* \"#utility.yul\":88:205   */\n    tag_76:\n        /* \"#utility.yul\":197:198   */\n      0x00\n        /* \"#utility.yul\":194:195   */\n      dup1\n        /* \"#utility.yul\":187:199   */\n      revert\n        /* \"#utility.yul\":211:328   */\n    tag_77:\n        /* \"#utility.yul\":320:321   */\n      0x00\n        /* \"#utility.yul\":317:318   */\n      dup1\n        /* \"#utility.yul\":310:322   */\n      revert\n        /* \"#utility.yul\":334:451   */\n    tag_78:\n        /* \"#utility.yul\":443:444   */\n      0x00\n        /* \"#utility.yul\":440:441   */\n      dup1\n        /* \"#utility.yul\":433:445   */\n      revert\n        /* \"#utility.yul\":457:574   */\n    tag_79:\n        /* \"#utility.yul\":566:567   */\n      0x00\n        /* \"#utility.yul\":563:564   */\n      dup1\n        /* \"#utility.yul\":556:568   */\n      revert\n        /* \"#utility.yul\":580:682   */\n    tag_80:\n        /* \"#utility.yul\":621:627   */\n      0x00\n        /* \"#utility.yul\":672:674   */\n      0x1f\n        /* \"#utility.yul\":668:675   */\n      not\n        /* \"#utility.yul\":663:665   */\n      0x1f\n        /* \"#utility.yul\":656:661   */\n      dup4\n        /* \"#utility.yul\":652:666   */\n      add\n        /* \"#utility.yul\":648:676   */\n      and\n        /* \"#utility.yul\":638:676   */\n      swap1\n      pop\n        /* \"#utility.yul\":580:682   */\n      swap2\n      swap1\n      pop\n      jump\t// out\n        /* \"#utility.yul\":688:868   */\n    tag_47:\n        /* \"#utility.yul\":736:813   */\n      0x4e487b7100000000000000000000000000000000000000000000000000000000\n        /* \"#utility.yul\":733:734   */\n      0x00\n        /* \"#utility.yul\":726:814   */\n      mstore\n        /* \"#utility.yul\":833:837   */\n      0x41\n        /* \"#utility.yul\":830:831   */\n      0x04\n        /* \"#utility.yul\":823:838   */\n      mstore\n        /* \"#utility.yul\":857:861   */\n      0x24\n        /* \"#utility.yul\":854:855   */\n      0x00\n        /* \"#utility.yul\":847:862   */\n      revert\n        /* \"#utility.yul\":874:1155   */\n    tag_81:\n        /* \"#utility.yul\":957:984   */\n      tag_107\n        /* \"#utility.yul\":979:983   */\n      dup3\n        /* \"#utility.yul\":957:984   */\n      tag_80\n      jump\t// in\n    tag_107:\n        /* \"#utility.yul\":949:955   */\n      dup2\n        /* \"#utility.yul\":945:985   */\n      add\n        /* \"#utility.yul\":1087:1093   */\n      dup2\n        /* \"#utility.yul\":1075:1085   */\n      dup2\n        /* \"#utility.yul\":1072:1094   */\n      lt\n        /* \"#utility.yul\":1051:1069   */\n      0xffffffffffffffff\n        /* \"#utility.yul\":1039:1049   */\n      dup3\n        /* \"#utility.yul\":1036:1070   */\n      gt\n        /* \"#utility.yul\":1033:1095   */\n      or\n        /* \"#utility.yul\":1030:1118   */\n      iszero\n      tag_108\n      jumpi\n        /* \"#utility.yul\":1098:1116   */\n      tag_109\n      tag_47\n      jump\t// in\n    tag_109:\n        /* \"#utility.yul\":1030:1118   */\n    tag_108:\n        /* \"#utility.yul\":1138:1148   */\n      dup1\n        /* \"#utility.yul\":1134:1136   */\n      0x40\n        /* \"#utility.yul\":1127:1149   */\n      mstore\n        /* \"#utility.yul\":917:1155   */\n      pop\n        /* \"#utility.yul\":874:1155   */\n      pop\n      pop\n      jump\t// out\n        /* \"#utility.yul\":1161:1290   */\n    tag_82:\n        /* \"#utility.yul\":1195:1201   */\n      0x00\n        /* \"#utility.yul\":1222:1242   */\n      tag_111\n      tag_75\n      jump\t// in\n    tag_111:\n        /* \"#utility.yul\":1212:1242   */\n      swap1\n      pop\n        /* \"#utility.yul\":1251:1284   */\n      tag_112\n        /* \"#utility.yul\":1279:1283   */\n      dup3\n        /* \"#utility.yul\":1271:1277   */\n      dup3\n        /* \"#utility.yul\":1251:1284   */\n      tag_81\n      jump\t// in\n    tag_112:\n        /* \"#utility.yul\":1161:1290   */\n      swap2\n      swap1\n      pop\n      jump\t// out\n        /* \"#utility.yul\":1296:1604   */\n    tag_83:\n        /* \"#utility.yul\":1358:1362   */\n      0x00\n        /* \"#utility.yul\":1448:1466   */\n      0xffffffffffffffff\n        /* \"#utility.yul\":1440:1446   */\n      dup3\n        /* \"#utility.yul\":1437:1467   */\n      gt\n        /* \"#utility.yul\":1434:1490   */\n      iszero\n      tag_114\n      jumpi\n        /* \"#utility.yul\":1470:1488   */\n      tag_115\n      tag_47\n      jump\t// in\n    tag_115:\n        /* \"#utility.yul\":1434:1490   */\n    tag_114:\n        /* \"#utility.yul\":1508:1537   */\n      tag_116\n        /* \"#utility.yul\":1530:1536   */\n      dup3\n        /* \"#utility.yul\":1508:1537   */\n      tag_80\n      jump\t// in\n    tag_116:\n        /* \"#utility.yul\":1500:1537   */\n      swap1\n      pop\n        /* \"#utility.yul\":1592:1596   */\n      0x20\n        /* \"#utility.yul\":1586:1590   */\n      dup2\n        /* \"#utility.yul\":1582:1597   */\n      add\n        /* \"#utility.yul\":1574:1597   */\n      swap1\n      pop\n        /* \"#utility.yul\":1296:1604   */\n      swap2\n      swap1\n      pop\n      jump\t// out\n        /* \"#utility.yul\":1610:1756   */\n    tag_84:\n        /* \"#utility.yul\":1707:1713   */\n      dup3\n        /* \"#utility.yul\":1702:1705   */\n      dup2\n        /* \"#utility.yul\":1697:1700   */\n      dup4\n        /* \"#utility.yul\":1684:1714   */\n      calldatacopy\n        /* \"#utility.yul\":1748:1749   */\n      0x00\n        /* \"#utility.yul\":1739:1745   */\n      dup4\n        /* \"#utility.yul\":1734:1737   */\n      dup4\n        /* \"#utility.yul\":1730:1746   */\n      add\n        /* \"#utility.yul\":1723:1750   */\n      mstore\n        /* \"#utility.yul\":1610:1756   */\n      pop\n      pop\n      pop\n      jump\t// out\n        /* \"#utility.yul\":1762:2187   */\n    tag_85:\n        /* \"#utility.yul\":1840:1845   */\n      0x00\n        /* \"#utility.yul\":1865:1931   */\n      tag_119\n        /* \"#utility.yul\":1881:1930   */\n      tag_120\n        /* \"#utility.yul\":1923:1929   */\n      dup5\n        /* \"#utility.yul\":1881:1930   */\n      tag_83\n      jump\t// in\n    tag_120:\n        /* \"#utility.yul\":1865:1931   */\n      tag_82\n      jump\t// in\n    tag_119:\n        /* \"#utility.yul\":1856:1931   */\n      swap1\n      pop\n        /* \"#utility.yul\":1954:1960   */\n      dup3\n        /* \"#utility.yul\":1947:1952   */\n      dup2\n        /* \"#utility.yul\":1940:1961   */\n      mstore\n        /* \"#utility.yul\":1992:1996   */\n      0x20\n        /* \"#utility.yul\":1985:1990   */\n      dup2\n        /* \"#utility.yul\":1981:1997   */\n      add\n        /* \"#utility.yul\":2030:2033   */\n      dup5\n        /* \"#utility.yul\":2021:2027   */\n      dup5\n        /* \"#utility.yul\":2016:2019   */\n      dup5\n        /* \"#utility.yul\":2012:2028   */\n      add\n        /* \"#utility.yul\":2009:2034   */\n      gt\n        /* \"#utility.yul\":2006:2118   */\n      iszero\n      tag_121\n      jumpi\n        /* \"#utility.yul\":2037:2116   */\n      tag_122\n      tag_79\n      jump\t// in\n    tag_122:\n        /* \"#utility.yul\":2006:2118   */\n    tag_121:\n        /* \"#utility.yul\":2127:2181   */\n      tag_123\n        /* \"#utility.yul\":2174:2180   */\n      dup5\n        /* \"#utility.yul\":2169:2172   */\n      dup3\n        /* \"#utility.yul\":2164:2167   */\n      dup6\n        /* \"#utility.yul\":2127:2181   */\n      tag_84\n      jump\t// in\n    tag_123:\n        /* \"#utility.yul\":1846:2187   */\n      pop\n        /* \"#utility.yul\":1762:2187   */\n      swap4\n      swap3\n      pop\n      pop\n      pop\n      jump\t// out\n        /* \"#utility.yul\":2207:2547   */\n    tag_86:\n        /* \"#utility.yul\":2263:2268   */\n      0x00\n        /* \"#utility.yul\":2312:2315   */\n      dup3\n        /* \"#utility.yul\":2305:2309   */\n      0x1f\n        /* \"#utility.yul\":2297:2303   */\n      dup4\n        /* \"#utility.yul\":2293:2310   */\n      add\n        /* \"#utility.yul\":2289:2316   */\n      slt\n        /* \"#utility.yul\":2279:2401   */\n      tag_125\n      jumpi\n        /* \"#utility.yul\":2320:2399   */\n      tag_126\n      tag_78\n      jump\t// in\n    tag_126:\n        /* \"#utility.yul\":2279:2401   */\n    tag_125:\n        /* \"#utility.yul\":2437:2443   */\n      dup2\n        /* \"#utility.yul\":2424:2444   */\n      calldataload\n        /* \"#utility.yul\":2462:2541   */\n      tag_127\n        /* \"#utility.yul\":2537:2540   */\n      dup5\n        /* \"#utility.yul\":2529:2535   */\n      dup3\n        /* \"#utility.yul\":2522:2526   */\n      0x20\n        /* \"#utility.yul\":2514:2520   */\n      dup7\n        /* \"#utility.yul\":2510:2527   */\n      add\n        /* \"#utility.yul\":2462:2541   */\n      tag_85\n      jump\t// in\n    tag_127:\n        /* \"#utility.yul\":2453:2541   */\n      swap2\n      pop\n        /* \"#utility.yul\":2269:2547   */\n      pop\n        /* \"#utility.yul\":2207:2547   */\n      swap3\n      swap2\n      pop\n      pop\n      jump\t// out\n        /* \"#utility.yul\":2553:3387   */\n    tag_10:\n        /* \"#utility.yul\":2641:2647   */\n      0x00\n        /* \"#utility.yul\":2649:2655   */\n      dup1\n        /* \"#utility.yul\":2698:2700   */\n      0x40\n        /* \"#utility.yul\":2686:2695   */\n      dup4\n        /* \"#utility.yul\":2677:2684   */\n      dup6\n        /* \"#utility.yul\":2673:2696   */\n      sub\n        /* \"#utility.yul\":2669:2701   */\n      slt\n        /* \"#utility.yul\":2666:2785   */\n      iszero\n      tag_129\n      jumpi\n        /* \"#utility.yul\":2704:2783   */\n      tag_130\n      tag_76\n      jump\t// in\n    tag_130:\n        /* \"#utility.yul\":2666:2785   */\n    tag_129:\n        /* \"#utility.yul\":2852:2853   */\n      0x00\n        /* \"#utility.yul\":2841:2850   */\n      dup4\n        /* \"#utility.yul\":2837:2854   */\n      add\n        /* \"#utility.yul\":2824:2855   */\n      calldataload\n        /* \"#utility.yul\":2882:2900   */\n      0xffffffffffffffff\n        /* \"#utility.yul\":2874:2880   */\n      dup2\n        /* \"#utility.yul\":2871:2901   */\n      gt\n        /* \"#utility.yul\":2868:2985   */\n      iszero\n      tag_131\n      jumpi\n        /* \"#utility.yul\":2904:2983   */\n      tag_132\n      tag_77\n      jump\t// in\n    tag_132:\n        /* \"#utility.yul\":2868:2985   */\n    tag_131:\n        /* \"#utility.yul\":3009:3072   */\n      tag_133\n        /* \"#utility.yul\":3064:3071   */\n      dup6\n        /* \"#utility.yul\":3055:3061   */\n      dup3\n        /* \"#utility.yul\":3044:3053   */\n      dup7\n        /* \"#utility.yul\":3040:3062   */\n      add\n        /* \"#utility.yul\":3009:3072   */\n      tag_86\n      jump\t// in\n    tag_133:\n        /* \"#utility.yul\":2999:3072   */\n      swap3\n      pop\n        /* \"#utility.yul\":2795:3082   */\n      pop\n        /* \"#utility.yul\":3149:3151   */\n      0x20\n        /* \"#utility.yul\":3138:3147   */\n      dup4\n        /* \"#utility.yul\":3134:3152   */\n      add\n        /* \"#utility.yul\":3121:3153   */\n      calldataload\n        /* \"#utility.yul\":3180:3198   */\n      0xffffffffffffffff\n        /* \"#utility.yul\":3172:3178   */\n      dup2\n        /* \"#utility.yul\":3169:3199   */\n      gt\n        /* \"#utility.yul\":3166:3283   */\n      iszero\n      tag_134\n      jumpi\n        /* \"#utility.yul\":3202:3281   */\n      tag_135\n      tag_77\n      jump\t// in\n    tag_135:\n        /* \"#utility.yul\":3166:3283   */\n    tag_134:\n        /* \"#utility.yul\":3307:3370   */\n      tag_136\n        /* \"#utility.yul\":3362:3369   */\n      dup6\n        /* \"#utility.yul\":3353:3359   */\n      dup3\n        /* \"#utility.yul\":3342:3351   */\n      dup7\n        /* \"#utility.yul\":3338:3360   */\n      add\n        /* \"#utility.yul\":3307:3370   */\n      tag_86\n      jump\t// in\n    tag_136:\n        /* \"#utility.yul\":3297:3370   */\n      swap2\n      pop\n        /* \"#utility.yul\":3092:3380   */\n      pop\n        /* \"#utility.yul\":2553:3387   */\n      swap3\n      pop\n      swap3\n      swap1\n      pop\n      jump\t// out\n        /* \"#utility.yul\":3393:3492   */\n    tag_87:\n        /* \"#utility.yul\":3445:3451   */\n      0x00\n        /* \"#utility.yul\":3479:3484   */\n      dup2\n        /* \"#utility.yul\":3473:3485   */\n      mload\n        /* \"#utility.yul\":3463:3485   */\n      swap1\n      pop\n        /* \"#utility.yul\":3393:3492   */\n      swap2\n      swap1\n      pop\n      jump\t// out\n        /* \"#utility.yul\":3498:3667   */\n    tag_88:\n        /* \"#utility.yul\":3582:3593   */\n      0x00\n        /* \"#utility.yul\":3616:3622   */\n      dup3\n        /* \"#utility.yul\":3611:3614   */\n      dup3\n        /* \"#utility.yul\":3604:3623   */\n      mstore\n        /* \"#utility.yul\":3656:3660   */\n      0x20\n        /* \"#utility.yul\":3651:3654   */\n      dup3\n        /* \"#utility.yul\":3647:3661   */\n      add\n        /* \"#utility.yul\":3632:3661   */\n      swap1\n      pop\n        /* \"#utility.yul\":3498:3667   */\n      swap3\n      swap2\n      pop\n      pop\n      jump\t// out\n        /* \"#utility.yul\":3673:3919   */\n    tag_89:\n        /* \"#utility.yul\":3754:3755   */\n      0x00\n        /* \"#utility.yul\":3764:3877   */\n    tag_140:\n        /* \"#utility.yul\":3778:3784   */\n      dup4\n        /* \"#utility.yul\":3775:3776   */\n      dup2\n        /* \"#utility.yul\":3772:3785   */\n      lt\n        /* \"#utility.yul\":3764:3877   */\n      iszero\n      tag_142\n      jumpi\n        /* \"#utility.yul\":3863:3864   */\n      dup1\n        /* \"#utility.yul\":3858:3861   */\n      dup3\n        /* \"#utility.yul\":3854:3865   */\n      add\n        /* \"#utility.yul\":3848:3866   */\n      mload\n        /* \"#utility.yul\":3844:3845   */\n      dup2\n        /* \"#utility.yul\":3839:3842   */\n      dup5\n        /* \"#utility.yul\":3835:3846   */\n      add\n        /* \"#utility.yul\":3828:3867   */\n      mstore\n        /* \"#utility.yul\":3800:3802   */\n      0x20\n        /* \"#utility.yul\":3797:3798   */\n      dup2\n        /* \"#utility.yul\":3793:3803   */\n      add\n        /* \"#utility.yul\":3788:3803   */\n      swap1\n      pop\n        /* \"#utility.yul\":3764:3877   */\n      jump(tag_140)\n    tag_142:\n        /* \"#utility.yul\":3911:3912   */\n      0x00\n        /* \"#utility.yul\":3902:3908   */\n      dup5\n        /* \"#utility.yul\":3897:3900   */\n      dup5\n        /* \"#utility.yul\":3893:3909   */\n      add\n        /* \"#utility.yul\":3886:3913   */\n      mstore\n        /* \"#utility.yul\":3735:3919   */\n      pop\n        /* \"#utility.yul\":3673:3919   */\n      pop\n      pop\n      pop\n      jump\t// out\n        /* \"#utility.yul\":3925:4302   */\n    tag_90:\n        /* \"#utility.yul\":4013:4016   */\n      0x00\n        /* \"#utility.yul\":4041:4080   */\n      tag_144\n        /* \"#utility.yul\":4074:4079   */\n      dup3\n        /* \"#utility.yul\":4041:4080   */\n      tag_87\n      jump\t// in\n    tag_144:\n        /* \"#utility.yul\":4096:4167   */\n      tag_145\n        /* \"#utility.yul\":4160:4166   */\n      dup2\n        /* \"#utility.yul\":4155:4158   */\n      dup6\n        /* \"#utility.yul\":4096:4167   */\n      tag_88\n      jump\t// in\n    tag_145:\n        /* \"#utility.yul\":4089:4167   */\n      swap4\n      pop\n        /* \"#utility.yul\":4176:4241   */\n      tag_146\n        /* \"#utility.yul\":4234:4240   */\n      dup2\n        /* \"#utility.yul\":4229:4232   */\n      dup6\n        /* \"#utility.yul\":4222:4226   */\n      0x20\n        /* \"#utility.yul\":4215:4220   */\n      dup7\n        /* \"#utility.yul\":4211:4227   */\n      add\n        /* \"#utility.yul\":4176:4241   */\n      tag_89\n      jump\t// in\n    tag_146:\n        /* \"#utility.yul\":4266:4295   */\n      tag_147\n        /* \"#utility.yul\":4288:4294   */\n      dup2\n        /* \"#utility.yul\":4266:4295   */\n      tag_80\n      jump\t// in\n    tag_147:\n        /* \"#utility.yul\":4261:4264   */\n      dup5\n        /* \"#utility.yul\":4257:4296   */\n      add\n        /* \"#utility.yul\":4250:4296   */\n      swap2\n      pop\n        /* \"#utility.yul\":4017:4302   */\n      pop\n        /* \"#utility.yul\":3925:4302   */\n      swap3\n      swap2\n      pop\n      pop\n      jump\t// out\n        /* \"#utility.yul\":4308:4621   */\n    tag_13:\n        /* \"#utility.yul\":4421:4425   */\n      0x00\n        /* \"#utility.yul\":4459:4461   */\n      0x20\n        /* \"#utility.yul\":4448:4457   */\n      dup3\n        /* \"#utility.yul\":4444:4462   */\n      add\n        /* \"#utility.yul\":4436:4462   */\n      swap1\n      pop\n        /* \"#utility.yul\":4508:4517   */\n      dup2\n        /* \"#utility.yul\":4502:4506   */\n      dup2\n        /* \"#utility.yul\":4498:4518   */\n      sub\n        /* \"#utility.yul\":4494:4495   */\n      0x00\n        /* \"#utility.yul\":4483:4492   */\n      dup4\n        /* \"#utility.yul\":4479:4496   */\n      add\n        /* \"#utility.yul\":4472:4519   */\n      mstore\n        /* \"#utility.yul\":4536:4614   */\n      tag_149\n        /* \"#utility.yul\":4609:4613   */\n      dup2\n        /* \"#utility.yul\":4600:4606   */\n      dup5\n        /* \"#utility.yul\":4536:4614   */\n      tag_90\n      jump\t// in\n    tag_149:\n        /* \"#utility.yul\":4528:4614   */\n      swap1\n      pop\n        /* \"#utility.yul\":4308:4621   */\n      swap3\n      swap2\n      pop\n      pop\n      jump\t// out\n        /* \"#utility.yul\":4627:4704   */\n    tag_91:\n        /* \"#utility.yul\":4664:4671   */\n      0x00\n        /* \"#utility.yul\":4693:4698   */\n      dup2\n        /* \"#utility.yul\":4682:4698   */\n      swap1\n      pop\n        /* \"#utility.yul\":4627:4704   */\n      swap2\n      swap1\n      pop\n      jump\t// out\n        /* \"#utility.yul\":4710:4828   */\n    tag_92:\n        /* \"#utility.yul\":4797:4821   */\n      tag_152\n        /* \"#utility.yul\":4815:4820   */\n      dup2\n        /* \"#utility.yul\":4797:4821   */\n      tag_91\n      jump\t// in\n    tag_152:\n        /* \"#utility.yul\":4792:4795   */\n      dup3\n        /* \"#utility.yul\":4785:4822   */\n      mstore\n        /* \"#utility.yul\":4710:4828   */\n      pop\n      pop\n      jump\t// out\n        /* \"#utility.yul\":4834:5056   */\n    tag_25:\n        /* \"#utility.yul\":4927:4931   */\n      0x00\n        /* \"#utility.yul\":4965:4967   */\n      0x20\n        /* \"#utility.yul\":4954:4963   */\n      dup3\n        /* \"#utility.yul\":4950:4968   */\n      add\n        /* \"#utility.yul\":4942:4968   */\n      swap1\n      pop\n        /* \"#utility.yul\":4978:5049   */\n      tag_154\n        /* \"#utility.yul\":5046:5047   */\n      0x00\n        /* \"#utility.yul\":5035:5044   */\n      dup4\n        /* \"#utility.yul\":5031:5048   */\n      add\n        /* \"#utility.yul\":5022:5028   */\n      dup5\n        /* \"#utility.yul\":4978:5049   */\n      tag_92\n      jump\t// in\n    tag_154:\n        /* \"#utility.yul\":4834:5056   */\n      swap3\n      swap2\n      pop\n      pop\n      jump\t// out\n        /* \"#utility.yul\":5062:5210   */\n    tag_93:\n        /* \"#utility.yul\":5164:5175   */\n      0x00\n        /* \"#utility.yul\":5201:5204   */\n      dup2\n        /* \"#utility.yul\":5186:5204   */\n      swap1\n      pop\n        /* \"#utility.yul\":5062:5210   */\n      swap3\n      swap2\n      pop\n      pop\n      jump\t// out\n        /* \"#utility.yul\":5216:5606   */\n    tag_94:\n        /* \"#utility.yul\":5322:5325   */\n      0x00\n        /* \"#utility.yul\":5350:5389   */\n      tag_157\n        /* \"#utility.yul\":5383:5388   */\n      dup3\n        /* \"#utility.yul\":5350:5389   */\n      tag_87\n      jump\t// in\n    tag_157:\n        /* \"#utility.yul\":5405:5494   */\n      tag_158\n        /* \"#utility.yul\":5487:5493   */\n      dup2\n        /* \"#utility.yul\":5482:5485   */\n      dup6\n        /* \"#utility.yul\":5405:5494   */\n      tag_93\n      jump\t// in\n    tag_158:\n        /* \"#utility.yul\":5398:5494   */\n      swap4\n      pop\n        /* \"#utility.yul\":5503:5568   */\n      tag_159\n        /* \"#utility.yul\":5561:5567   */\n      dup2\n        /* \"#utility.yul\":5556:5559   */\n      dup6\n        /* \"#utility.yul\":5549:5553   */\n      0x20\n        /* \"#utility.yul\":5542:5547   */\n      dup7\n        /* \"#utility.yul\":5538:5554   */\n      add\n        /* \"#utility.yul\":5503:5568   */\n      tag_89\n      jump\t// in\n    tag_159:\n        /* \"#utility.yul\":5593:5599   */\n      dup1\n        /* \"#utility.yul\":5588:5591   */\n      dup5\n        /* \"#utility.yul\":5584:5600   */\n      add\n        /* \"#utility.yul\":5577:5600   */\n      swap2\n      pop\n        /* \"#utility.yul\":5326:5606   */\n      pop\n        /* \"#utility.yul\":5216:5606   */\n      swap3\n      swap2\n      pop\n      pop\n      jump\t// out\n        /* \"#utility.yul\":5612:6047   */\n    tag_31:\n        /* \"#utility.yul\":5792:5795   */\n      0x00\n        /* \"#utility.yul\":5814:5909   */\n      tag_161\n        /* \"#utility.yul\":5905:5908   */\n      dup3\n        /* \"#utility.yul\":5896:5902   */\n      dup6\n        /* \"#utility.yul\":5814:5909   */\n      tag_94\n      jump\t// in\n    tag_161:\n        /* \"#utility.yul\":5807:5909   */\n      swap2\n      pop\n        /* \"#utility.yul\":5926:6021   */\n      tag_162\n        /* \"#utility.yul\":6017:6020   */\n      dup3\n        /* \"#utility.yul\":6008:6014   */\n      dup5\n        /* \"#utility.yul\":5926:6021   */\n      tag_94\n      jump\t// in\n    tag_162:\n        /* \"#utility.yul\":5919:6021   */\n      swap2\n      pop\n        /* \"#utility.yul\":6038:6041   */\n      dup2\n        /* \"#utility.yul\":6031:6041   */\n      swap1\n      pop\n        /* \"#utility.yul\":5612:6047   */\n      swap4\n      swap3\n      pop\n      pop\n      pop\n      jump\t// out\n        /* \"#utility.yul\":6053:6231   */\n    tag_95:\n        /* \"#utility.yul\":6221:6224   */\n      0x3a00000000000000000000000000000000000000000000000000000000000000\n        /* \"#utility.yul\":6216:6219   */\n      dup2\n        /* \"#utility.yul\":6209:6225   */\n      mstore\n        /* \"#utility.yul\":6053:6231   */\n      pop\n      jump\t// out\n        /* \"#utility.yul\":6237:6415   */\n    tag_96:\n        /* \"#utility.yul\":6405:6408   */\n      0x2000000000000000000000000000000000000000000000000000000000000000\n        /* \"#utility.yul\":6400:6403   */\n      dup2\n        /* \"#utility.yul\":6393:6409   */\n      mstore\n        /* \"#utility.yul\":6237:6415   */\n      pop\n      jump\t// out\n        /* \"#utility.yul\":6421:8288   */\n    tag_36:\n        /* \"#utility.yul\":7063:7066   */\n      0x00\n        /* \"#utility.yul\":7085:7180   */\n      tag_166\n        /* \"#utility.yul\":7176:7179   */\n      dup3\n        /* \"#utility.yul\":7167:7173   */\n      dup10\n        /* \"#utility.yul\":7085:7180   */\n      tag_94\n      jump\t// in\n    tag_166:\n        /* \"#utility.yul\":7078:7180   */\n      swap2\n      pop\n        /* \"#utility.yul\":7190:7327   */\n      tag_167\n        /* \"#utility.yul\":7323:7326   */\n      dup3\n        /* \"#utility.yul\":7190:7327   */\n      tag_95\n      jump\t// in\n    tag_167:\n        /* \"#utility.yul\":7352:7353   */\n      0x01\n        /* \"#utility.yul\":7347:7350   */\n      dup3\n        /* \"#utility.yul\":7343:7354   */\n      add\n        /* \"#utility.yul\":7336:7354   */\n      swap2\n      pop\n        /* \"#utility.yul\":7371:7466   */\n      tag_168\n        /* \"#utility.yul\":7462:7465   */\n      dup3\n        /* \"#utility.yul\":7453:7459   */\n      dup9\n        /* \"#utility.yul\":7371:7466   */\n      tag_94\n      jump\t// in\n    tag_168:\n        /* \"#utility.yul\":7364:7466   */\n      swap2\n      pop\n        /* \"#utility.yul\":7483:7578   */\n      tag_169\n        /* \"#utility.yul\":7574:7577   */\n      dup3\n        /* \"#utility.yul\":7565:7571   */\n      dup8\n        /* \"#utility.yul\":7483:7578   */\n      tag_94\n      jump\t// in\n    tag_169:\n        /* \"#utility.yul\":7476:7578   */\n      swap2\n      pop\n        /* \"#utility.yul\":7588:7725   */\n      tag_170\n        /* \"#utility.yul\":7721:7724   */\n      dup3\n        /* \"#utility.yul\":7588:7725   */\n      tag_96\n      jump\t// in\n    tag_170:\n        /* \"#utility.yul\":7750:7751   */\n      0x01\n        /* \"#utility.yul\":7745:7748   */\n      dup3\n        /* \"#utility.yul\":7741:7752   */\n      add\n        /* \"#utility.yul\":7734:7752   */\n      swap2\n      pop\n        /* \"#utility.yul\":7769:7864   */\n      tag_171\n        /* \"#utility.yul\":7860:7863   */\n      dup3\n        /* \"#utility.yul\":7851:7857   */\n      dup7\n        /* \"#utility.yul\":7769:7864   */\n      tag_94\n      jump\t// in\n    tag_171:\n        /* \"#utility.yul\":7762:7864   */\n      swap2\n      pop\n        /* \"#utility.yul\":7874:8011   */\n      tag_172\n        /* \"#utility.yul\":8007:8010   */\n      dup3\n        /* \"#utility.yul\":7874:8011   */\n      tag_95\n      jump\t// in\n    tag_172:\n        /* \"#utility.yul\":8036:8037   */\n      0x01\n        /* \"#utility.yul\":8031:8034   */\n      dup3\n        /* \"#utility.yul\":8027:8038   */\n      add\n        /* \"#utility.yul\":8020:8038   */\n      swap2\n      pop\n        /* \"#utility.yul\":8055:8150   */\n      tag_173\n        /* \"#utility.yul\":8146:8149   */\n      dup3\n        /* \"#utility.yul\":8137:8143   */\n      dup6\n        /* \"#utility.yul\":8055:8150   */\n      tag_94\n      jump\t// in\n    tag_173:\n        /* \"#utility.yul\":8048:8150   */\n      swap2\n      pop\n        /* \"#utility.yul\":8167:8262   */\n      tag_174\n        /* \"#utility.yul\":8258:8261   */\n      dup3\n        /* \"#utility.yul\":8249:8255   */\n      dup5\n        /* \"#utility.yul\":8167:8262   */\n      tag_94\n      jump\t// in\n    tag_174:\n        /* \"#utility.yul\":8160:8262   */\n      swap2\n      pop\n        /* \"#utility.yul\":8279:8282   */\n      dup2\n        /* \"#utility.yul\":8272:8282   */\n      swap1\n      pop\n        /* \"#utility.yul\":6421:8288   */\n      swap8\n      swap7\n      pop\n      pop\n      pop\n      pop\n      pop\n      pop\n      pop\n      jump\t// out\n        /* \"#utility.yul\":8294:8491   */\n    tag_97:\n        /* \"#utility.yul\":8463:8484   */\n      0x54686520626c6f636b206e756d62657220697300000000000000000000000000\n        /* \"#utility.yul\":8458:8461   */\n      dup2\n        /* \"#utility.yul\":8451:8485   */\n      mstore\n        /* \"#utility.yul\":8294:8491   */\n      pop\n      jump\t// out\n        /* \"#utility.yul\":8497:9039   */\n    tag_41:\n        /* \"#utility.yul\":8720:8723   */\n      0x00\n        /* \"#utility.yul\":8735:8873   */\n      tag_177\n        /* \"#utility.yul\":8869:8872   */\n      dup3\n        /* \"#utility.yul\":8735:8873   */\n      tag_97\n      jump\t// in\n    tag_177:\n        /* \"#utility.yul\":8898:8900   */\n      0x13\n        /* \"#utility.yul\":8893:8896   */\n      dup3\n        /* \"#utility.yul\":8889:8901   */\n      add\n        /* \"#utility.yul\":8882:8901   */\n      swap2\n      pop\n        /* \"#utility.yul\":8918:9013   */\n      tag_178\n        /* \"#utility.yul\":9009:9012   */\n      dup3\n        /* \"#utility.yul\":9000:9006   */\n      dup5\n        /* \"#utility.yul\":8918:9013   */\n      tag_94\n      jump\t// in\n    tag_178:\n        /* \"#utility.yul\":8911:9013   */\n      swap2\n      pop\n        /* \"#utility.yul\":9030:9033   */\n      dup2\n        /* \"#utility.yul\":9023:9033   */\n      swap1\n      pop\n        /* \"#utility.yul\":8497:9039   */\n      swap3\n      swap2\n      pop\n      pop\n      jump\t// out\n        /* \"#utility.yul\":9045:9225   */\n    tag_53:\n        /* \"#utility.yul\":9093:9170   */\n      0x4e487b7100000000000000000000000000000000000000000000000000000000\n        /* \"#utility.yul\":9090:9091   */\n      0x00\n        /* \"#utility.yul\":9083:9171   */\n      mstore\n        /* \"#utility.yul\":9190:9194   */\n      0x12\n        /* \"#utility.yul\":9187:9188   */\n      0x04\n        /* \"#utility.yul\":9180:9195   */\n      mstore\n        /* \"#utility.yul\":9214:9218   */\n      0x24\n        /* \"#utility.yul\":9211:9212   */\n      0x00\n        /* \"#utility.yul\":9204:9219   */\n      revert\n\n    auxdata: 0xa2646970667358221220e2b7dc64d75409c71182becb6fe2a8a40a73d5b8f4d812b391d54e011003824864736f6c63430008120033\n}\n",
				"bytecode": {
					"linkReferences": {},
					"object": "60806040524360005534801561001457600080fd5b50610899806100246000396000f3fe608060405234801561001057600080fd5b50600436106100575760003560e01c8063252a14371461005c5780633d9799b41461008c578063574eba86146100bc5780638466c3e6146100ec578063f6084f071461010a575b600080fd5b6100766004803603810190610071919061056a565b610128565b6040516100839190610661565b60405180910390f35b6100a660048036038101906100a1919061056a565b610154565b6040516100b39190610661565b60405180910390f35b6100d660048036038101906100d1919061056a565b610180565b6040516100e39190610661565b60405180910390f35b6100f46101b4565b604051610101919061069c565b60405180910390f35b6101126101ba565b60405161011f9190610661565b60405180910390f35b6060828260405160200161013d9291906106f3565b604051602081830303815290604052905092915050565b606082826040516020016101699291906106f3565b604051602081830303815290604052905092915050565b606082838484858660405160200161019d96959493929190610763565b604051602081830303815290604052905092915050565b60005481565b606060006101c7436101ef565b9050806040516020016101da919061080e565b60405160208183030381529060405291505090565b6060600060016101fe846102bd565b01905060008167ffffffffffffffff81111561021d5761021c61043f565b5b6040519080825280601f01601f19166020018201604052801561024f5781602001600182028036833780820191505090505b509050600082602001820190505b6001156102b2578080600190039150507f3031323334353637383961626364656600000000000000000000000000000000600a86061a8153600a85816102a6576102a5610834565b5b0494506000850361025d575b819350505050919050565b600080600090507a184f03e93ff9f4daa797ed6e38ed64bf6a1f010000000000000000831061031b577a184f03e93ff9f4daa797ed6e38ed64bf6a1f010000000000000000838161031157610310610834565b5b0492506040810190505b6d04ee2d6d415b85acef81000000008310610358576d04ee2d6d415b85acef8100000000838161034e5761034d610834565b5b0492506020810190505b662386f26fc10000831061038757662386f26fc10000838161037d5761037c610834565b5b0492506010810190505b6305f5e10083106103b0576305f5e10083816103a6576103a5610834565b5b0492506008810190505b61271083106103d55761271083816103cb576103ca610834565b5b0492506004810190505b606483106103f857606483816103ee576103ed610834565b5b0492506002810190505b600a8310610407576001810190505b80915050919050565b6000604051905090565b600080fd5b600080fd5b600080fd5b600080fd5b6000601f19601f8301169050919050565b7f4e487b7100000000000000000000000000000000000000000000000000000000600052604160045260246000fd5b6104778261042e565b810181811067ffffffffffffffff821117156104965761049561043f565b5b80604052505050565b60006104a9610410565b90506104b5828261046e565b919050565b600067ffffffffffffffff8211156104d5576104d461043f565b5b6104de8261042e565b9050602081019050919050565b82818337600083830152505050565b600061050d610508846104ba565b61049f565b90508281526020810184848401111561052957610528610429565b5b6105348482856104eb565b509392505050565b600082601f83011261055157610550610424565b5b81356105618482602086016104fa565b91505092915050565b600080604083850312156105815761058061041a565b5b600083013567ffffffffffffffff81111561059f5761059e61041f565b5b6105ab8582860161053c565b925050602083013567ffffffffffffffff8111156105cc576105cb61041f565b5b6105d88582860161053c565b9150509250929050565b600081519050919050565b600082825260208201905092915050565b60005b8381101561061c578082015181840152602081019050610601565b60008484015250505050565b6000610633826105e2565b61063d81856105ed565b935061064d8185602086016105fe565b6106568161042e565b840191505092915050565b6000602082019050818103600083015261067b8184610628565b905092915050565b6000819050919050565b61069681610683565b82525050565b60006020820190506106b1600083018461068d565b92915050565b600081905092915050565b60006106cd826105e2565b6106d781856106b7565b93506106e78185602086016105fe565b80840191505092915050565b60006106ff82856106c2565b915061070b82846106c2565b91508190509392505050565b7f3a00000000000000000000000000000000000000000000000000000000000000815250565b7f2000000000000000000000000000000000000000000000000000000000000000815250565b600061076f82896106c2565b915061077a82610717565b60018201915061078a82886106c2565b915061079682876106c2565b91506107a18261073d565b6001820191506107b182866106c2565b91506107bc82610717565b6001820191506107cc82856106c2565b91506107d882846106c2565b9150819050979650505050505050565b7f54686520626c6f636b206e756d62657220697300000000000000000000000000815250565b6000610819826107e8565b60138201915061082982846106c2565b915081905092915050565b7f4e487b7100000000000000000000000000000000000000000000000000000000600052601260045260246000fdfea2646970667358221220e2b7dc64d75409c71182becb6fe2a8a40a73d5b8f4d812b391d54e011003824864736f6c63430008120033",
					"opcodes": "PUSH1 0x80 PUSH1 0x40 MSTORE NUMBER PUSH1 0x0 SSTORE CALLVALUE DUP1 ISZERO PUSH2 0x14 JUMPI PUSH1 0x0 DUP1 REVERT JUMPDEST POP PUSH2 0x899 DUP1 PUSH2 0x24 PUSH1 0x0 CODECOPY PUSH1 0x0 RETURN INVALID PUSH1 0x80 PUSH1 0x40 MSTORE CALLVALUE DUP1 ISZERO PUSH2 0x10 JUMPI PUSH1 0x0 DUP1 REVERT JUMPDEST POP PUSH1 0x4 CALLDATASIZE LT PUSH2 0x57 JUMPI PUSH1 0x0 CALLDATALOAD PUSH1 0xE0 SHR DUP1 PUSH4 0x252A1437 EQ PUSH2 0x5C JUMPI DUP1 PUSH4 0x3D9799B4 EQ PUSH2 0x8C JUMPI DUP1 PUSH4 0x574EBA86 EQ PUSH2 0xBC JUMPI DUP1 PUSH4 0x8466C3E6 EQ PUSH2 0xEC JUMPI DUP1 PUSH4 0xF6084F07 EQ PUSH2 0x10A JUMPI JUMPDEST PUSH1 0x0 DUP1 REVERT JUMPDEST PUSH2 0x76 PUSH1 0x4 DUP1 CALLDATASIZE SUB DUP2 ADD SWAP1 PUSH2 0x71 SWAP2 SWAP1 PUSH2 0x56A JUMP JUMPDEST PUSH2 0x128 JUMP JUMPDEST PUSH1 0x40 MLOAD PUSH2 0x83 SWAP2 SWAP1 PUSH2 0x661 JUMP JUMPDEST PUSH1 0x40 MLOAD DUP1 SWAP2 SUB SWAP1 RETURN JUMPDEST PUSH2 0xA6 PUSH1 0x4 DUP1 CALLDATASIZE SUB DUP2 ADD SWAP1 PUSH2 0xA1 SWAP2 SWAP1 PUSH2 0x56A JUMP JUMPDEST PUSH2 0x154 JUMP JUMPDEST PUSH1 0x40 MLOAD PUSH2 0xB3 SWAP2 SWAP1 PUSH2 0x661 JUMP JUMPDEST PUSH1 0x40 MLOAD DUP1 SWAP2 SUB SWAP1 RETURN JUMPDEST PUSH2 0xD6 PUSH1 0x4 DUP1 CALLDATASIZE SUB DUP2 ADD SWAP1 PUSH2 0xD1 SWAP2 SWAP1 PUSH2 0x56A JUMP JUMPDEST PUSH2 0x180 JUMP JUMPDEST PUSH1 0x40 MLOAD PUSH2 0xE3 SWAP2 SWAP1 PUSH2 0x661 JUMP JUMPDEST PUSH1 0x40 MLOAD DUP1 SWAP2 SUB SWAP1 RETURN JUMPDEST PUSH2 0xF4 PUSH2 0x1B4 JUMP JUMPDEST PUSH1 0x40 MLOAD PUSH2 0x101 SWAP2 SWAP1 PUSH2 0x69C JUMP JUMPDEST PUSH1 0x40 MLOAD DUP1 SWAP2 SUB SWAP1 RETURN JUMPDEST PUSH2 0x112 PUSH2 0x1BA JUMP JUMPDEST PUSH1 0x40 MLOAD PUSH2 0x11F SWAP2 SWAP1 PUSH2 0x661 JUMP JUMPDEST PUSH1 0x40 MLOAD DUP1 SWAP2 SUB SWAP1 RETURN JUMPDEST PUSH1 0x60 DUP3 DUP3 PUSH1 0x40 MLOAD PUSH1 0x20 ADD PUSH2 0x13D SWAP3 SWAP2 SWAP1 PUSH2 0x6F3 JUMP JUMPDEST PUSH1 0x40 MLOAD PUSH1 0x20 DUP2 DUP4 SUB SUB DUP2 MSTORE SWAP1 PUSH1 0x40 MSTORE SWAP1 POP SWAP3 SWAP2 POP POP JUMP JUMPDEST PUSH1 0x60 DUP3 DUP3 PUSH1 0x40 MLOAD PUSH1 0x20 ADD PUSH2 0x169 SWAP3 SWAP2 SWAP1 PUSH2 0x6F3 JUMP JUMPDEST PUSH1 0x40 MLOAD PUSH1 0x20 DUP2 DUP4 SUB SUB DUP2 MSTORE SWAP1 PUSH1 0x40 MSTORE SWAP1 POP SWAP3 SWAP2 POP POP JUMP JUMPDEST PUSH1 0x60 DUP3 DUP4 DUP5 DUP5 DUP6 DUP7 PUSH1 0x40 MLOAD PUSH1 0x20 ADD PUSH2 0x19D SWAP7 SWAP6 SWAP5 SWAP4 SWAP3 SWAP2 SWAP1 PUSH2 0x763 JUMP JUMPDEST PUSH1 0x40 MLOAD PUSH1 0x20 DUP2 DUP4 SUB SUB DUP2 MSTORE SWAP1 PUSH1 0x40 MSTORE SWAP1 POP SWAP3 SWAP2 POP POP JUMP JUMPDEST PUSH1 0x0 SLOAD DUP2 JUMP JUMPDEST PUSH1 0x60 PUSH1 0x0 PUSH2 0x1C7 NUMBER PUSH2 0x1EF JUMP JUMPDEST SWAP1 POP DUP1 PUSH1 0x40 MLOAD PUSH1 0x20 ADD PUSH2 0x1DA SWAP2 SWAP1 PUSH2 0x80E JUMP JUMPDEST PUSH1 0x40 MLOAD PUSH1 0x20 DUP2 DUP4 SUB SUB DUP2 MSTORE SWAP1 PUSH1 0x40 MSTORE SWAP2 POP POP SWAP1 JUMP JUMPDEST PUSH1 0x60 PUSH1 0x0 PUSH1 0x1 PUSH2 0x1FE DUP5 PUSH2 0x2BD JUMP JUMPDEST ADD SWAP1 POP PUSH1 0x0 DUP2 PUSH8 0xFFFFFFFFFFFFFFFF DUP2 GT ISZERO PUSH2 0x21D JUMPI PUSH2 0x21C PUSH2 0x43F JUMP JUMPDEST JUMPDEST PUSH1 0x40 MLOAD SWAP1 DUP1 DUP3 MSTORE DUP1 PUSH1 0x1F ADD PUSH1 0x1F NOT AND PUSH1 0x20 ADD DUP3 ADD PUSH1 0x40 MSTORE DUP1 ISZERO PUSH2 0x24F JUMPI DUP2 PUSH1 0x20 ADD PUSH1 0x1 DUP3 MUL DUP1 CALLDATASIZE DUP4 CALLDATACOPY DUP1 DUP3 ADD SWAP2 POP POP SWAP1 POP JUMPDEST POP SWAP1 POP PUSH1 0x0 DUP3 PUSH1 0x20 ADD DUP3 ADD SWAP1 POP JUMPDEST PUSH1 0x1 ISZERO PUSH2 0x2B2 JUMPI DUP1 DUP1 PUSH1 0x1 SWAP1 SUB SWAP2 POP POP PUSH32 0x3031323334353637383961626364656600000000000000000000000000000000 PUSH1 0xA DUP7 MOD BYTE DUP2 MSTORE8 PUSH1 0xA DUP6 DUP2 PUSH2 0x2A6 JUMPI PUSH2 0x2A5 PUSH2 0x834 JUMP JUMPDEST JUMPDEST DIV SWAP5 POP PUSH1 0x0 DUP6 SUB PUSH2 0x25D JUMPI JUMPDEST DUP2 SWAP4 POP POP POP POP SWAP2 SWAP1 POP JUMP JUMPDEST PUSH1 0x0 DUP1 PUSH1 0x0 SWAP1 POP PUSH27 0x184F03E93FF9F4DAA797ED6E38ED64BF6A1F010000000000000000 DUP4 LT PUSH2 0x31B JUMPI PUSH27 0x184F03E93FF9F4DAA797ED6E38ED64BF6A1F010000000000000000 DUP4 DUP2 PUSH2 0x311 JUMPI PUSH2 0x310 PUSH2 0x834 JUMP JUMPDEST JUMPDEST DIV SWAP3 POP PUSH1 0x40 DUP2 ADD SWAP1 POP JUMPDEST PUSH14 0x4EE2D6D415B85ACEF8100000000 DUP4 LT PUSH2 0x358 JUMPI PUSH14 0x4EE2D6D415B85ACEF8100000000 DUP4 DUP2 PUSH2 0x34E JUMPI PUSH2 0x34D PUSH2 0x834 JUMP JUMPDEST JUMPDEST DIV SWAP3 POP PUSH1 0x20 DUP2 ADD SWAP1 POP JUMPDEST PUSH7 0x2386F26FC10000 DUP4 LT PUSH2 0x387 JUMPI PUSH7 0x2386F26FC10000 DUP4 DUP2 PUSH2 0x37D JUMPI PUSH2 0x37C PUSH2 0x834 JUMP JUMPDEST JUMPDEST DIV SWAP3 POP PUSH1 0x10 DUP2 ADD SWAP1 POP JUMPDEST PUSH4 0x5F5E100 DUP4 LT PUSH2 0x3B0 JUMPI PUSH4 0x5F5E100 DUP4 DUP2 PUSH2 0x3A6 JUMPI PUSH2 0x3A5 PUSH2 0x834 JUMP JUMPDEST JUMPDEST DIV SWAP3 POP PUSH1 0x8 DUP2 ADD SWAP1 POP JUMPDEST PUSH2 0x2710 DUP4 LT PUSH2 0x3D5 JUMPI PUSH2 0x2710 DUP4 DUP2 PUSH2 0x3CB JUMPI PUSH2 0x3CA PUSH2 0x834 JUMP JUMPDEST JUMPDEST DIV SWAP3 POP PUSH1 0x4 DUP2 ADD SWAP1 POP JUMPDEST PUSH1 0x64 DUP4 LT PUSH2 0x3F8 JUMPI PUSH1 0x64 DUP4 DUP2 PUSH2 0x3EE JUMPI PUSH2 0x3ED PUSH2 0x834 JUMP JUMPDEST JUMPDEST DIV SWAP3 POP PUSH1 0x2 DUP2 ADD SWAP1 POP JUMPDEST PUSH1 0xA DUP4 LT PUSH2 0x407 JUMPI PUSH1 0x1 DUP2 ADD SWAP1 POP JUMPDEST DUP1 SWAP2 POP POP SWAP2 SWAP1 POP JUMP JUMPDEST PUSH1 0x0 PUSH1 0x40 MLOAD SWAP1 POP SWAP1 JUMP JUMPDEST PUSH1 0x0 DUP1 REVERT JUMPDEST PUSH1 0x0 DUP1 REVERT JUMPDEST PUSH1 0x0 DUP1 REVERT JUMPDEST PUSH1 0x0 DUP1 REVERT JUMPDEST PUSH1 0x0 PUSH1 0x1F NOT PUSH1 0x1F DUP4 ADD AND SWAP1 POP SWAP2 SWAP1 POP JUMP JUMPDEST PUSH32 0x4E487B7100000000000000000000000000000000000000000000000000000000 PUSH1 0x0 MSTORE PUSH1 0x41 PUSH1 0x4 MSTORE PUSH1 0x24 PUSH1 0x0 REVERT JUMPDEST PUSH2 0x477 DUP3 PUSH2 0x42E JUMP JUMPDEST DUP2 ADD DUP2 DUP2 LT PUSH8 0xFFFFFFFFFFFFFFFF DUP3 GT OR ISZERO PUSH2 0x496 JUMPI PUSH2 0x495 PUSH2 0x43F JUMP JUMPDEST JUMPDEST DUP1 PUSH1 0x40 MSTORE POP POP POP JUMP JUMPDEST PUSH1 0x0 PUSH2 0x4A9 PUSH2 0x410 JUMP JUMPDEST SWAP1 POP PUSH2 0x4B5 DUP3 DUP3 PUSH2 0x46E JUMP JUMPDEST SWAP2 SWAP1 POP JUMP JUMPDEST PUSH1 0x0 PUSH8 0xFFFFFFFFFFFFFFFF DUP3 GT ISZERO PUSH2 0x4D5 JUMPI PUSH2 0x4D4 PUSH2 0x43F JUMP JUMPDEST JUMPDEST PUSH2 0x4DE DUP3 PUSH2 0x42E JUMP JUMPDEST SWAP1 POP PUSH1 0x20 DUP2 ADD SWAP1 POP SWAP2 SWAP1 POP JUMP JUMPDEST DUP3 DUP2 DUP4 CALLDATACOPY PUSH1 0x0 DUP4 DUP4 ADD MSTORE POP POP POP JUMP JUMPDEST PUSH1 0x0 PUSH2 0x50D PUSH2 0x508 DUP5 PUSH2 0x4BA JUMP JUMPDEST PUSH2 0x49F JUMP JUMPDEST SWAP1 POP DUP3 DUP2 MSTORE PUSH1 0x20 DUP2 ADD DUP5 DUP5 DUP5 ADD GT ISZERO PUSH2 0x529 JUMPI PUSH2 0x528 PUSH2 0x429 JUMP JUMPDEST JUMPDEST PUSH2 0x534 DUP5 DUP3 DUP6 PUSH2 0x4EB JUMP JUMPDEST POP SWAP4 SWAP3 POP POP POP JUMP JUMPDEST PUSH1 0x0 DUP3 PUSH1 0x1F DUP4 ADD SLT PUSH2 0x551 JUMPI PUSH2 0x550 PUSH2 0x424 JUMP JUMPDEST JUMPDEST DUP2 CALLDATALOAD PUSH2 0x561 DUP5 DUP3 PUSH1 0x20 DUP7 ADD PUSH2 0x4FA JUMP JUMPDEST SWAP2 POP POP SWAP3 SWAP2 POP POP JUMP JUMPDEST PUSH1 0x0 DUP1 PUSH1 0x40 DUP4 DUP6 SUB SLT ISZERO PUSH2 0x581 JUMPI PUSH2 0x580 PUSH2 0x41A JUMP JUMPDEST JUMPDEST PUSH1 0x0 DUP4 ADD CALLDATALOAD PUSH8 0xFFFFFFFFFFFFFFFF DUP2 GT ISZERO PUSH2 0x59F JUMPI PUSH2 0x59E PUSH2 0x41F JUMP JUMPDEST JUMPDEST PUSH2 0x5AB DUP6 DUP3 DUP7 ADD PUSH2 0x53C JUMP JUMPDEST SWAP3 POP POP PUSH1 0x20 DUP4 ADD CALLDATALOAD PUSH8 0xFFFFFFFFFFFFFFFF DUP2 GT ISZERO PUSH2 0x5CC JUMPI PUSH2 0x5CB PUSH2 0x41F JUMP JUMPDEST JUMPDEST PUSH2 0x5D8 DUP6 DUP3 DUP7 ADD PUSH2 0x53C JUMP JUMPDEST SWAP2 POP POP SWAP3 POP SWAP3 SWAP1 POP JUMP JUMPDEST PUSH1 0x0 DUP2 MLOAD SWAP1 POP SWAP2 SWAP1 POP JUMP JUMPDEST PUSH1 0x0 DUP3 DUP3 MSTORE PUSH1 0x20 DUP3 ADD SWAP1 POP SWAP3 SWAP2 POP POP JUMP JUMPDEST PUSH1 0x0 JUMPDEST DUP4 DUP2 LT ISZERO PUSH2 0x61C JUMPI DUP1 DUP3 ADD MLOAD DUP2 DUP5 ADD MSTORE PUSH1 0x20 DUP2 ADD SWAP1 POP PUSH2 0x601 JUMP JUMPDEST PUSH1 0x0 DUP5 DUP5 ADD MSTORE POP POP POP POP JUMP JUMPDEST PUSH1 0x0 PUSH2 0x633 DUP3 PUSH2 0x5E2 JUMP JUMPDEST PUSH2 0x63D DUP2 DUP6 PUSH2 0x5ED JUMP JUMPDEST SWAP4 POP PUSH2 0x64D DUP2 DUP6 PUSH1 0x20 DUP7 ADD PUSH2 0x5FE JUMP JUMPDEST PUSH2 0x656 DUP2 PUSH2 0x42E JUMP JUMPDEST DUP5 ADD SWAP2 POP POP SWAP3 SWAP2 POP POP JUMP JUMPDEST PUSH1 0x0 PUSH1 0x20 DUP3 ADD SWAP1 POP DUP2 DUP2 SUB PUSH1 0x0 DUP4 ADD MSTORE PUSH2 0x67B DUP2 DUP5 PUSH2 0x628 JUMP JUMPDEST SWAP1 POP SWAP3 SWAP2 POP POP JUMP JUMPDEST PUSH1 0x0 DUP2 SWAP1 POP SWAP2 SWAP1 POP JUMP JUMPDEST PUSH2 0x696 DUP2 PUSH2 0x683 JUMP JUMPDEST DUP3 MSTORE POP POP JUMP JUMPDEST PUSH1 0x0 PUSH1 0x20 DUP3 ADD SWAP1 POP PUSH2 0x6B1 PUSH1 0x0 DUP4 ADD DUP5 PUSH2 0x68D JUMP JUMPDEST SWAP3 SWAP2 POP POP JUMP JUMPDEST PUSH1 0x0 DUP2 SWAP1 POP SWAP3 SWAP2 POP POP JUMP JUMPDEST PUSH1 0x0 PUSH2 0x6CD DUP3 PUSH2 0x5E2 JUMP JUMPDEST PUSH2 0x6D7 DUP2 DUP6 PUSH2 0x6B7 JUMP JUMPDEST SWAP4 POP PUSH2 0x6E7 DUP2 DUP6 PUSH1 0x20 DUP7 ADD PUSH2 0x5FE JUMP JUMPDEST DUP1 DUP5 ADD SWAP2 POP POP SWAP3 SWAP2 POP POP JUMP JUMPDEST PUSH1 0x0 PUSH2 0x6FF DUP3 DUP6 PUSH2 0x6C2 JUMP JUMPDEST SWAP2 POP PUSH2 0x70B DUP3 DUP5 PUSH2 0x6C2 JUMP JUMPDEST SWAP2 POP DUP2 SWAP1 POP SWAP4 SWAP3 POP POP POP JUMP JUMPDEST PUSH32 0x3A00000000000000000000000000000000000000000000000000000000000000 DUP2 MSTORE POP JUMP JUMPDEST PUSH32 0x2000000000000000000000000000000000000000000000000000000000000000 DUP2 MSTORE POP JUMP JUMPDEST PUSH1 0x0 PUSH2 0x76F DUP3 DUP10 PUSH2 0x6C2 JUMP JUMPDEST SWAP2 POP PUSH2 0x77A DUP3 PUSH2 0x717 JUMP JUMPDEST PUSH1 0x1 DUP3 ADD SWAP2 POP PUSH2 0x78A DUP3 DUP9 PUSH2 0x6C2 JUMP JUMPDEST SWAP2 POP PUSH2 0x796 DUP3 DUP8 PUSH2 0x6C2 JUMP JUMPDEST SWAP2 POP PUSH2 0x7A1 DUP3 PUSH2 0x73D JUMP JUMPDEST PUSH1 0x1 DUP3 ADD SWAP2 POP PUSH2 0x7B1 DUP3 DUP7 PUSH2 0x6C2 JUMP JUMPDEST SWAP2 POP PUSH2 0x7BC DUP3 PUSH2 0x717 JUMP JUMPDEST PUSH1 0x1 DUP3 ADD SWAP2 POP PUSH2 0x7CC DUP3 DUP6 PUSH2 0x6C2 JUMP JUMPDEST SWAP2 POP PUSH2 0x7D8 DUP3 DUP5 PUSH2 0x6C2 JUMP JUMPDEST SWAP2 POP DUP2 SWAP1 POP SWAP8 SWAP7 POP POP POP POP POP POP POP JUMP JUMPDEST PUSH32 0x54686520626C6F636B206E756D62657220697300000000000000000000000000 DUP2 MSTORE POP JUMP JUMPDEST PUSH1 0x0 PUSH2 0x819 DUP3 PUSH2 0x7E8 JUMP JUMPDEST PUSH1 0x13 DUP3 ADD SWAP2 POP PUSH2 0x829 DUP3 DUP5 PUSH2 0x6C2 JUMP JUMPDEST SWAP2 POP DUP2 SWAP1 POP SWAP3 SWAP2 POP POP JUMP JUMPDEST PUSH32 0x4E487B7100000000000000000000000000000000000000000000000000000000 PUSH1 0x0 MSTORE PUSH1 0x12 PUSH1 0x4 MSTORE PUSH1 0x24 PUSH1 0x0 REVERT INVALID LOG2 PUSH5 0x6970667358 0x22 SLT KECCAK256 0xE2 0xB7 0xDC PUSH5 0xD75409C711 DUP3 0xBE 0xCB PUSH16 0xE2A8A40A73D5B8F4D812B391D54E0110 SUB DUP3 BASEFEE PUSH5 0x736F6C6343 STOP ADDMOD SLT STOP CALLER "
				},
				"gasEstimates": {
					"creation": {
						"codeDepositCost": "440200",
						"executionCost": "22579",
						"totalCost": "462779"
					},
					"external": {
						"aa()": "2473",
						"concat1(string,string)": "infinite",
						"concat2(string,string)": "infinite",
						"concat2_2(string,string)": "infinite",
						"concat3()": "infinite"
					}
				},
				"methodIdentifiers": {
					"aa()": "8466c3e6",
					"concat1(string,string)": "3d9799b4",
					"concat2(string,string)": "252a1437",
					"concat2_2(string,string)": "574eba86",
					"concat3()": "f6084f07"
				}
			},
			"storageLayout": {
				"storage": [
					{
						"astId": 1287,
						"contract": "contracts/230607/babylion.sol:CONCAT",
						"label": "aa",
						"offset": 0,
						"slot": "0",
						"type": "t_uint256"
					}
				],
				"types": {
					"t_uint256": {
						"encoding": "inplace",
						"label": "uint256",
						"numberOfBytes": "32"
					}
				}
			},
			"userdoc": {
				"kind": "user",
				"methods": {},
				"version": 1
			}
		}
	}
}