{
	"data": {
		"bytecode": {
			"linkReferences": {},
			"object": "608060405234801561001057600080fd5b50610822806100206000396000f3fe608060405234801561001057600080fd5b506004361061002b5760003560e01c8063aaa8996214610030575b600080fd5b61004a60048036038101906100459190610478565b61004c565b005b600160405180606001604052808581526020018473ffffffffffffffffffffffffffffffffffffffff16815260200183815250908060018154018082558091505060019003906000526020600020906008020160009091909190915060008201518160000190816100bd919061071a565b5060208201518160010160006101000a81548173ffffffffffffffffffffffffffffffffffffffff021916908373ffffffffffffffffffffffffffffffffffffffff16021790555060408201518160020160008201518160000155602082015181600101908161012d919061071a565b506040820151816002019081610143919061071a565b5060608201518160030160006101000a81548173ffffffffffffffffffffffffffffffffffffffff021916908373ffffffffffffffffffffffffffffffffffffffff1602179055506080820151816004015560a0820151816005015550505050505050565b6000604051905090565b600080fd5b600080fd5b600080fd5b600080fd5b6000601f19601f8301169050919050565b7f4e487b7100000000000000000000000000000000000000000000000000000000600052604160045260246000fd5b61020f826101c6565b810181811067ffffffffffffffff8211171561022e5761022d6101d7565b5b80604052505050565b60006102416101a8565b905061024d8282610206565b919050565b600067ffffffffffffffff82111561026d5761026c6101d7565b5b610276826101c6565b9050602081019050919050565b82818337600083830152505050565b60006102a56102a084610252565b610237565b9050828152602081018484840111156102c1576102c06101c1565b5b6102cc848285610283565b509392505050565b600082601f8301126102e9576102e86101bc565b5b81356102f9848260208601610292565b91505092915050565b600073ffffffffffffffffffffffffffffffffffffffff82169050919050565b600061032d82610302565b9050919050565b61033d81610322565b811461034857600080fd5b50565b60008135905061035a81610334565b92915050565b600080fd5b600080fd5b6000819050919050565b61037d8161036a565b811461038857600080fd5b50565b60008135905061039a81610374565b92915050565b600060c082840312156103b6576103b5610360565b5b6103c060c0610237565b905060006103d08482850161038b565b600083015250602082013567ffffffffffffffff8111156103f4576103f3610365565b5b610400848285016102d4565b602083015250604082013567ffffffffffffffff81111561042457610423610365565b5b610430848285016102d4565b60408301525060606104448482850161034b565b60608301525060806104588482850161038b565b60808301525060a061046c8482850161038b565b60a08301525092915050565b600080600060608486031215610491576104906101b2565b5b600084013567ffffffffffffffff8111156104af576104ae6101b7565b5b6104bb868287016102d4565b93505060206104cc8682870161034b565b925050604084013567ffffffffffffffff8111156104ed576104ec6101b7565b5b6104f9868287016103a0565b9150509250925092565b600081519050919050565b7f4e487b7100000000000000000000000000000000000000000000000000000000600052602260045260246000fd5b6000600282049050600182168061055557607f821691505b6020821081036105685761056761050e565b5b50919050565b60008190508160005260206000209050919050565b60006020601f8301049050919050565b600082821b905092915050565b6000600883026105d07fffffffffffffffffffffffffffffffffffffffffffffffffffffffffffffffff82610593565b6105da8683610593565b95508019841693508086168417925050509392505050565b6000819050919050565b600061061761061261060d8461036a565b6105f2565b61036a565b9050919050565b6000819050919050565b610631836105fc565b61064561063d8261061e565b8484546105a0565b825550505050565b600090565b61065a61064d565b610665818484610628565b505050565b5b818110156106895761067e600082610652565b60018101905061066b565b5050565b601f8211156106ce5761069f8161056e565b6106a884610583565b810160208510156106b7578190505b6106cb6106c385610583565b83018261066a565b50505b505050565b600082821c905092915050565b60006106f1600019846008026106d3565b1980831691505092915050565b600061070a83836106e0565b9150826002028217905092915050565b61072382610503565b67ffffffffffffffff81111561073c5761073b6101d7565b5b610746825461053d565b61075182828561068d565b600060209050601f8311600181146107845760008415610772578287015190505b61077c85826106fe565b8655506107e4565b601f1984166107928661056e565b60005b828110156107ba57848901518255600182019150602085019450602081019050610795565b868310156107d757848901516107d3601f8916826106e0565b8355505b6001600288020188555050505b50505050505056fea2646970667358221220d36c0839488907b42965a2b9e9eec2e1636aa4068bc23331248457ff2cff832964736f6c63430008120033",
			"opcodes": "PUSH1 0x80 PUSH1 0x40 MSTORE CALLVALUE DUP1 ISZERO PUSH2 0x10 JUMPI PUSH1 0x0 DUP1 REVERT JUMPDEST POP PUSH2 0x822 DUP1 PUSH2 0x20 PUSH1 0x0 CODECOPY PUSH1 0x0 RETURN INVALID PUSH1 0x80 PUSH1 0x40 MSTORE CALLVALUE DUP1 ISZERO PUSH2 0x10 JUMPI PUSH1 0x0 DUP1 REVERT JUMPDEST POP PUSH1 0x4 CALLDATASIZE LT PUSH2 0x2B JUMPI PUSH1 0x0 CALLDATALOAD PUSH1 0xE0 SHR DUP1 PUSH4 0xAAA89962 EQ PUSH2 0x30 JUMPI JUMPDEST PUSH1 0x0 DUP1 REVERT JUMPDEST PUSH2 0x4A PUSH1 0x4 DUP1 CALLDATASIZE SUB DUP2 ADD SWAP1 PUSH2 0x45 SWAP2 SWAP1 PUSH2 0x478 JUMP JUMPDEST PUSH2 0x4C JUMP JUMPDEST STOP JUMPDEST PUSH1 0x1 PUSH1 0x40 MLOAD DUP1 PUSH1 0x60 ADD PUSH1 0x40 MSTORE DUP1 DUP6 DUP2 MSTORE PUSH1 0x20 ADD DUP5 PUSH20 0xFFFFFFFFFFFFFFFFFFFFFFFFFFFFFFFFFFFFFFFF AND DUP2 MSTORE PUSH1 0x20 ADD DUP4 DUP2 MSTORE POP SWAP1 DUP1 PUSH1 0x1 DUP2 SLOAD ADD DUP1 DUP3 SSTORE DUP1 SWAP2 POP POP PUSH1 0x1 SWAP1 SUB SWAP1 PUSH1 0x0 MSTORE PUSH1 0x20 PUSH1 0x0 KECCAK256 SWAP1 PUSH1 0x8 MUL ADD PUSH1 0x0 SWAP1 SWAP2 SWAP1 SWAP2 SWAP1 SWAP2 POP PUSH1 0x0 DUP3 ADD MLOAD DUP2 PUSH1 0x0 ADD SWAP1 DUP2 PUSH2 0xBD SWAP2 SWAP1 PUSH2 0x71A JUMP JUMPDEST POP PUSH1 0x20 DUP3 ADD MLOAD DUP2 PUSH1 0x1 ADD PUSH1 0x0 PUSH2 0x100 EXP DUP2 SLOAD DUP2 PUSH20 0xFFFFFFFFFFFFFFFFFFFFFFFFFFFFFFFFFFFFFFFF MUL NOT AND SWAP1 DUP4 PUSH20 0xFFFFFFFFFFFFFFFFFFFFFFFFFFFFFFFFFFFFFFFF AND MUL OR SWAP1 SSTORE POP PUSH1 0x40 DUP3 ADD MLOAD DUP2 PUSH1 0x2 ADD PUSH1 0x0 DUP3 ADD MLOAD DUP2 PUSH1 0x0 ADD SSTORE PUSH1 0x20 DUP3 ADD MLOAD DUP2 PUSH1 0x1 ADD SWAP1 DUP2 PUSH2 0x12D SWAP2 SWAP1 PUSH2 0x71A JUMP JUMPDEST POP PUSH1 0x40 DUP3 ADD MLOAD DUP2 PUSH1 0x2 ADD SWAP1 DUP2 PUSH2 0x143 SWAP2 SWAP1 PUSH2 0x71A JUMP JUMPDEST POP PUSH1 0x60 DUP3 ADD MLOAD DUP2 PUSH1 0x3 ADD PUSH1 0x0 PUSH2 0x100 EXP DUP2 SLOAD DUP2 PUSH20 0xFFFFFFFFFFFFFFFFFFFFFFFFFFFFFFFFFFFFFFFF MUL NOT AND SWAP1 DUP4 PUSH20 0xFFFFFFFFFFFFFFFFFFFFFFFFFFFFFFFFFFFFFFFF AND MUL OR SWAP1 SSTORE POP PUSH1 0x80 DUP3 ADD MLOAD DUP2 PUSH1 0x4 ADD SSTORE PUSH1 0xA0 DUP3 ADD MLOAD DUP2 PUSH1 0x5 ADD SSTORE POP POP POP POP POP POP POP JUMP JUMPDEST PUSH1 0x0 PUSH1 0x40 MLOAD SWAP1 POP SWAP1 JUMP JUMPDEST PUSH1 0x0 DUP1 REVERT JUMPDEST PUSH1 0x0 DUP1 REVERT JUMPDEST PUSH1 0x0 DUP1 REVERT JUMPDEST PUSH1 0x0 DUP1 REVERT JUMPDEST PUSH1 0x0 PUSH1 0x1F NOT PUSH1 0x1F DUP4 ADD AND SWAP1 POP SWAP2 SWAP1 POP JUMP JUMPDEST PUSH32 0x4E487B7100000000000000000000000000000000000000000000000000000000 PUSH1 0x0 MSTORE PUSH1 0x41 PUSH1 0x4 MSTORE PUSH1 0x24 PUSH1 0x0 REVERT JUMPDEST PUSH2 0x20F DUP3 PUSH2 0x1C6 JUMP JUMPDEST DUP2 ADD DUP2 DUP2 LT PUSH8 0xFFFFFFFFFFFFFFFF DUP3 GT OR ISZERO PUSH2 0x22E JUMPI PUSH2 0x22D PUSH2 0x1D7 JUMP JUMPDEST JUMPDEST DUP1 PUSH1 0x40 MSTORE POP POP POP JUMP JUMPDEST PUSH1 0x0 PUSH2 0x241 PUSH2 0x1A8 JUMP JUMPDEST SWAP1 POP PUSH2 0x24D DUP3 DUP3 PUSH2 0x206 JUMP JUMPDEST SWAP2 SWAP1 POP JUMP JUMPDEST PUSH1 0x0 PUSH8 0xFFFFFFFFFFFFFFFF DUP3 GT ISZERO PUSH2 0x26D JUMPI PUSH2 0x26C PUSH2 0x1D7 JUMP JUMPDEST JUMPDEST PUSH2 0x276 DUP3 PUSH2 0x1C6 JUMP JUMPDEST SWAP1 POP PUSH1 0x20 DUP2 ADD SWAP1 POP SWAP2 SWAP1 POP JUMP JUMPDEST DUP3 DUP2 DUP4 CALLDATACOPY PUSH1 0x0 DUP4 DUP4 ADD MSTORE POP POP POP JUMP JUMPDEST PUSH1 0x0 PUSH2 0x2A5 PUSH2 0x2A0 DUP5 PUSH2 0x252 JUMP JUMPDEST PUSH2 0x237 JUMP JUMPDEST SWAP1 POP DUP3 DUP2 MSTORE PUSH1 0x20 DUP2 ADD DUP5 DUP5 DUP5 ADD GT ISZERO PUSH2 0x2C1 JUMPI PUSH2 0x2C0 PUSH2 0x1C1 JUMP JUMPDEST JUMPDEST PUSH2 0x2CC DUP5 DUP3 DUP6 PUSH2 0x283 JUMP JUMPDEST POP SWAP4 SWAP3 POP POP POP JUMP JUMPDEST PUSH1 0x0 DUP3 PUSH1 0x1F DUP4 ADD SLT PUSH2 0x2E9 JUMPI PUSH2 0x2E8 PUSH2 0x1BC JUMP JUMPDEST JUMPDEST DUP2 CALLDATALOAD PUSH2 0x2F9 DUP5 DUP3 PUSH1 0x20 DUP7 ADD PUSH2 0x292 JUMP JUMPDEST SWAP2 POP POP SWAP3 SWAP2 POP POP JUMP JUMPDEST PUSH1 0x0 PUSH20 0xFFFFFFFFFFFFFFFFFFFFFFFFFFFFFFFFFFFFFFFF DUP3 AND SWAP1 POP SWAP2 SWAP1 POP JUMP JUMPDEST PUSH1 0x0 PUSH2 0x32D DUP3 PUSH2 0x302 JUMP JUMPDEST SWAP1 POP SWAP2 SWAP1 POP JUMP JUMPDEST PUSH2 0x33D DUP2 PUSH2 0x322 JUMP JUMPDEST DUP2 EQ PUSH2 0x348 JUMPI PUSH1 0x0 DUP1 REVERT JUMPDEST POP JUMP JUMPDEST PUSH1 0x0 DUP2 CALLDATALOAD SWAP1 POP PUSH2 0x35A DUP2 PUSH2 0x334 JUMP JUMPDEST SWAP3 SWAP2 POP POP JUMP JUMPDEST PUSH1 0x0 DUP1 REVERT JUMPDEST PUSH1 0x0 DUP1 REVERT JUMPDEST PUSH1 0x0 DUP2 SWAP1 POP SWAP2 SWAP1 POP JUMP JUMPDEST PUSH2 0x37D DUP2 PUSH2 0x36A JUMP JUMPDEST DUP2 EQ PUSH2 0x388 JUMPI PUSH1 0x0 DUP1 REVERT JUMPDEST POP JUMP JUMPDEST PUSH1 0x0 DUP2 CALLDATALOAD SWAP1 POP PUSH2 0x39A DUP2 PUSH2 0x374 JUMP JUMPDEST SWAP3 SWAP2 POP POP JUMP JUMPDEST PUSH1 0x0 PUSH1 0xC0 DUP3 DUP5 SUB SLT ISZERO PUSH2 0x3B6 JUMPI PUSH2 0x3B5 PUSH2 0x360 JUMP JUMPDEST JUMPDEST PUSH2 0x3C0 PUSH1 0xC0 PUSH2 0x237 JUMP JUMPDEST SWAP1 POP PUSH1 0x0 PUSH2 0x3D0 DUP5 DUP3 DUP6 ADD PUSH2 0x38B JUMP JUMPDEST PUSH1 0x0 DUP4 ADD MSTORE POP PUSH1 0x20 DUP3 ADD CALLDATALOAD PUSH8 0xFFFFFFFFFFFFFFFF DUP2 GT ISZERO PUSH2 0x3F4 JUMPI PUSH2 0x3F3 PUSH2 0x365 JUMP JUMPDEST JUMPDEST PUSH2 0x400 DUP5 DUP3 DUP6 ADD PUSH2 0x2D4 JUMP JUMPDEST PUSH1 0x20 DUP4 ADD MSTORE POP PUSH1 0x40 DUP3 ADD CALLDATALOAD PUSH8 0xFFFFFFFFFFFFFFFF DUP2 GT ISZERO PUSH2 0x424 JUMPI PUSH2 0x423 PUSH2 0x365 JUMP JUMPDEST JUMPDEST PUSH2 0x430 DUP5 DUP3 DUP6 ADD PUSH2 0x2D4 JUMP JUMPDEST PUSH1 0x40 DUP4 ADD MSTORE POP PUSH1 0x60 PUSH2 0x444 DUP5 DUP3 DUP6 ADD PUSH2 0x34B JUMP JUMPDEST PUSH1 0x60 DUP4 ADD MSTORE POP PUSH1 0x80 PUSH2 0x458 DUP5 DUP3 DUP6 ADD PUSH2 0x38B JUMP JUMPDEST PUSH1 0x80 DUP4 ADD MSTORE POP PUSH1 0xA0 PUSH2 0x46C DUP5 DUP3 DUP6 ADD PUSH2 0x38B JUMP JUMPDEST PUSH1 0xA0 DUP4 ADD MSTORE POP SWAP3 SWAP2 POP POP JUMP JUMPDEST PUSH1 0x0 DUP1 PUSH1 0x0 PUSH1 0x60 DUP5 DUP7 SUB SLT ISZERO PUSH2 0x491 JUMPI PUSH2 0x490 PUSH2 0x1B2 JUMP JUMPDEST JUMPDEST PUSH1 0x0 DUP5 ADD CALLDATALOAD PUSH8 0xFFFFFFFFFFFFFFFF DUP2 GT ISZERO PUSH2 0x4AF JUMPI PUSH2 0x4AE PUSH2 0x1B7 JUMP JUMPDEST JUMPDEST PUSH2 0x4BB DUP7 DUP3 DUP8 ADD PUSH2 0x2D4 JUMP JUMPDEST SWAP4 POP POP PUSH1 0x20 PUSH2 0x4CC DUP7 DUP3 DUP8 ADD PUSH2 0x34B JUMP JUMPDEST SWAP3 POP POP PUSH1 0x40 DUP5 ADD CALLDATALOAD PUSH8 0xFFFFFFFFFFFFFFFF DUP2 GT ISZERO PUSH2 0x4ED JUMPI PUSH2 0x4EC PUSH2 0x1B7 JUMP JUMPDEST JUMPDEST PUSH2 0x4F9 DUP7 DUP3 DUP8 ADD PUSH2 0x3A0 JUMP JUMPDEST SWAP2 POP POP SWAP3 POP SWAP3 POP SWAP3 JUMP JUMPDEST PUSH1 0x0 DUP2 MLOAD SWAP1 POP SWAP2 SWAP1 POP JUMP JUMPDEST PUSH32 0x4E487B7100000000000000000000000000000000000000000000000000000000 PUSH1 0x0 MSTORE PUSH1 0x22 PUSH1 0x4 MSTORE PUSH1 0x24 PUSH1 0x0 REVERT JUMPDEST PUSH1 0x0 PUSH1 0x2 DUP3 DIV SWAP1 POP PUSH1 0x1 DUP3 AND DUP1 PUSH2 0x555 JUMPI PUSH1 0x7F DUP3 AND SWAP2 POP JUMPDEST PUSH1 0x20 DUP3 LT DUP2 SUB PUSH2 0x568 JUMPI PUSH2 0x567 PUSH2 0x50E JUMP JUMPDEST JUMPDEST POP SWAP2 SWAP1 POP JUMP JUMPDEST PUSH1 0x0 DUP2 SWAP1 POP DUP2 PUSH1 0x0 MSTORE PUSH1 0x20 PUSH1 0x0 KECCAK256 SWAP1 POP SWAP2 SWAP1 POP JUMP JUMPDEST PUSH1 0x0 PUSH1 0x20 PUSH1 0x1F DUP4 ADD DIV SWAP1 POP SWAP2 SWAP1 POP JUMP JUMPDEST PUSH1 0x0 DUP3 DUP3 SHL SWAP1 POP SWAP3 SWAP2 POP POP JUMP JUMPDEST PUSH1 0x0 PUSH1 0x8 DUP4 MUL PUSH2 0x5D0 PUSH32 0xFFFFFFFFFFFFFFFFFFFFFFFFFFFFFFFFFFFFFFFFFFFFFFFFFFFFFFFFFFFFFFFF DUP3 PUSH2 0x593 JUMP JUMPDEST PUSH2 0x5DA DUP7 DUP4 PUSH2 0x593 JUMP JUMPDEST SWAP6 POP DUP1 NOT DUP5 AND SWAP4 POP DUP1 DUP7 AND DUP5 OR SWAP3 POP POP POP SWAP4 SWAP3 POP POP POP JUMP JUMPDEST PUSH1 0x0 DUP2 SWAP1 POP SWAP2 SWAP1 POP JUMP JUMPDEST PUSH1 0x0 PUSH2 0x617 PUSH2 0x612 PUSH2 0x60D DUP5 PUSH2 0x36A JUMP JUMPDEST PUSH2 0x5F2 JUMP JUMPDEST PUSH2 0x36A JUMP JUMPDEST SWAP1 POP SWAP2 SWAP1 POP JUMP JUMPDEST PUSH1 0x0 DUP2 SWAP1 POP SWAP2 SWAP1 POP JUMP JUMPDEST PUSH2 0x631 DUP4 PUSH2 0x5FC JUMP JUMPDEST PUSH2 0x645 PUSH2 0x63D DUP3 PUSH2 0x61E JUMP JUMPDEST DUP5 DUP5 SLOAD PUSH2 0x5A0 JUMP JUMPDEST DUP3 SSTORE POP POP POP POP JUMP JUMPDEST PUSH1 0x0 SWAP1 JUMP JUMPDEST PUSH2 0x65A PUSH2 0x64D JUMP JUMPDEST PUSH2 0x665 DUP2 DUP5 DUP5 PUSH2 0x628 JUMP JUMPDEST POP POP POP JUMP JUMPDEST JUMPDEST DUP2 DUP2 LT ISZERO PUSH2 0x689 JUMPI PUSH2 0x67E PUSH1 0x0 DUP3 PUSH2 0x652 JUMP JUMPDEST PUSH1 0x1 DUP2 ADD SWAP1 POP PUSH2 0x66B JUMP JUMPDEST POP POP JUMP JUMPDEST PUSH1 0x1F DUP3 GT ISZERO PUSH2 0x6CE JUMPI PUSH2 0x69F DUP2 PUSH2 0x56E JUMP JUMPDEST PUSH2 0x6A8 DUP5 PUSH2 0x583 JUMP JUMPDEST DUP2 ADD PUSH1 0x20 DUP6 LT ISZERO PUSH2 0x6B7 JUMPI DUP2 SWAP1 POP JUMPDEST PUSH2 0x6CB PUSH2 0x6C3 DUP6 PUSH2 0x583 JUMP JUMPDEST DUP4 ADD DUP3 PUSH2 0x66A JUMP JUMPDEST POP POP JUMPDEST POP POP POP JUMP JUMPDEST PUSH1 0x0 DUP3 DUP3 SHR SWAP1 POP SWAP3 SWAP2 POP POP JUMP JUMPDEST PUSH1 0x0 PUSH2 0x6F1 PUSH1 0x0 NOT DUP5 PUSH1 0x8 MUL PUSH2 0x6D3 JUMP JUMPDEST NOT DUP1 DUP4 AND SWAP2 POP POP SWAP3 SWAP2 POP POP JUMP JUMPDEST PUSH1 0x0 PUSH2 0x70A DUP4 DUP4 PUSH2 0x6E0 JUMP JUMPDEST SWAP2 POP DUP3 PUSH1 0x2 MUL DUP3 OR SWAP1 POP SWAP3 SWAP2 POP POP JUMP JUMPDEST PUSH2 0x723 DUP3 PUSH2 0x503 JUMP JUMPDEST PUSH8 0xFFFFFFFFFFFFFFFF DUP2 GT ISZERO PUSH2 0x73C JUMPI PUSH2 0x73B PUSH2 0x1D7 JUMP JUMPDEST JUMPDEST PUSH2 0x746 DUP3 SLOAD PUSH2 0x53D JUMP JUMPDEST PUSH2 0x751 DUP3 DUP3 DUP6 PUSH2 0x68D JUMP JUMPDEST PUSH1 0x0 PUSH1 0x20 SWAP1 POP PUSH1 0x1F DUP4 GT PUSH1 0x1 DUP2 EQ PUSH2 0x784 JUMPI PUSH1 0x0 DUP5 ISZERO PUSH2 0x772 JUMPI DUP3 DUP8 ADD MLOAD SWAP1 POP JUMPDEST PUSH2 0x77C DUP6 DUP3 PUSH2 0x6FE JUMP JUMPDEST DUP7 SSTORE POP PUSH2 0x7E4 JUMP JUMPDEST PUSH1 0x1F NOT DUP5 AND PUSH2 0x792 DUP7 PUSH2 0x56E JUMP JUMPDEST PUSH1 0x0 JUMPDEST DUP3 DUP2 LT ISZERO PUSH2 0x7BA JUMPI DUP5 DUP10 ADD MLOAD DUP3 SSTORE PUSH1 0x1 DUP3 ADD SWAP2 POP PUSH1 0x20 DUP6 ADD SWAP5 POP PUSH1 0x20 DUP2 ADD SWAP1 POP PUSH2 0x795 JUMP JUMPDEST DUP7 DUP4 LT ISZERO PUSH2 0x7D7 JUMPI DUP5 DUP10 ADD MLOAD PUSH2 0x7D3 PUSH1 0x1F DUP10 AND DUP3 PUSH2 0x6E0 JUMP JUMPDEST DUP4 SSTORE POP JUMPDEST PUSH1 0x1 PUSH1 0x2 DUP9 MUL ADD DUP9 SSTORE POP POP POP JUMPDEST POP POP POP POP POP POP JUMP INVALID LOG2 PUSH5 0x6970667358 0x22 SLT KECCAK256 0xD3 PUSH13 0x839488907B42965A2B9E9EEC2 0xE1 PUSH4 0x6AA4068B 0xC2 CALLER BALANCE 0x24 DUP5 JUMPI SELFDESTRUCT 0x2C SELFDESTRUCT DUP4 0x29 PUSH5 0x736F6C6343 STOP ADDMOD SLT STOP CALLER "
		},
		"gasEstimates": {
			"creation": {
				"codeDepositCost": "416400",
				"executionCost": "455",
				"totalCost": "416855"
			},
			"external": {
				"setUser(string,address,(uint256,string,string,address,uint256,uint256))": "infinite"
			}
		},
		"methodIdentifiers": {
			"setUser(string,address,(uint256,string,string,address,uint256,uint256))": "aaa89962"
		}
	},
	"abi": [
		{
			"inputs": [
				{
					"internalType": "string",
					"name": "_name",
					"type": "string"
				},
				{
					"internalType": "address",
					"name": "_wallet",
					"type": "address"
				},
				{
					"components": [
						{
							"internalType": "uint256",
							"name": "number",
							"type": "uint256"
						},
						{
							"internalType": "string",
							"name": "title",
							"type": "string"
						},
						{
							"internalType": "string",
							"name": "content",
							"type": "string"
						},
						{
							"internalType": "address",
							"name": "proposer",
							"type": "address"
						},
						{
							"internalType": "uint256",
							"name": "proponent",
							"type": "uint256"
						},
						{
							"internalType": "uint256",
							"name": "opponent",
							"type": "uint256"
						}
					],
					"internalType": "struct test.issue",
					"name": "_issueName",
					"type": "tuple"
				}
			],
			"name": "setUser",
			"outputs": [],
			"stateMutability": "nonpayable",
			"type": "function"
		}
	]
}