{
	"contracts/230530/lotto.sol": {
		"Q8": {
			"abi": [
				{
					"inputs": [],
					"stateMutability": "nonpayable",
					"type": "constructor"
				},
				{
					"inputs": [
						{
							"internalType": "string[]",
							"name": "_myLetter",
							"type": "string[]"
						}
					],
					"name": "isSameLetter",
					"outputs": [
						{
							"internalType": "uint256",
							"name": "",
							"type": "uint256"
						}
					],
					"stateMutability": "view",
					"type": "function"
				},
				{
					"inputs": [
						{
							"internalType": "uint256[]",
							"name": "_myNumber",
							"type": "uint256[]"
						}
					],
					"name": "isSameNumber",
					"outputs": [
						{
							"internalType": "uint256",
							"name": "",
							"type": "uint256"
						}
					],
					"stateMutability": "view",
					"type": "function"
				},
				{
					"inputs": [
						{
							"internalType": "string",
							"name": "_a",
							"type": "string"
						},
						{
							"internalType": "string",
							"name": "_b",
							"type": "string"
						}
					],
					"name": "letterCompare",
					"outputs": [
						{
							"internalType": "bool",
							"name": "",
							"type": "bool"
						}
					],
					"stateMutability": "pure",
					"type": "function"
				},
				{
					"inputs": [
						{
							"internalType": "uint256",
							"name": "",
							"type": "uint256"
						}
					],
					"name": "letters",
					"outputs": [
						{
							"internalType": "string",
							"name": "",
							"type": "string"
						}
					],
					"stateMutability": "view",
					"type": "function"
				},
				{
					"inputs": [
						{
							"internalType": "uint256",
							"name": "",
							"type": "uint256"
						}
					],
					"name": "numbers",
					"outputs": [
						{
							"internalType": "uint256",
							"name": "",
							"type": "uint256"
						}
					],
					"stateMutability": "view",
					"type": "function"
				},
				{
					"inputs": [
						{
							"internalType": "uint256[]",
							"name": "_numbers",
							"type": "uint256[]"
						},
						{
							"internalType": "string[]",
							"name": "_letters",
							"type": "string[]"
						}
					],
					"name": "setLotto",
					"outputs": [],
					"stateMutability": "payable",
					"type": "function"
				},
				{
					"inputs": [
						{
							"internalType": "uint256[]",
							"name": "_numbers",
							"type": "uint256[]"
						},
						{
							"internalType": "string[]",
							"name": "_letters",
							"type": "string[]"
						}
					],
					"name": "setTargetNumber",
					"outputs": [],
					"stateMutability": "nonpayable",
					"type": "function"
				},
				{
					"inputs": [
						{
							"internalType": "uint256",
							"name": "_a",
							"type": "uint256"
						}
					],
					"name": "uintToString",
					"outputs": [
						{
							"internalType": "string",
							"name": "",
							"type": "string"
						}
					],
					"stateMutability": "view",
					"type": "function"
				}
			],
			"devdoc": {
				"kind": "dev",
				"methods": {},
				"version": 1
			},
			"evm": {
				"assembly": "    /* \"contracts/230530/lotto.sol\":890:2861  contract Q8 {... */\n  mstore(0x40, 0x80)\n    /* \"contracts/230530/lotto.sol\":908:941  uint[] public numbers = [1,2,3,4] */\n  mload(0x40)\n  dup1\n  0x80\n  add\n  0x40\n  mstore\n  dup1\n    /* \"contracts/230530/lotto.sol\":933:934  1 */\n  0x01\n    /* \"contracts/230530/lotto.sol\":908:941  uint[] public numbers = [1,2,3,4] */\n  0xff\n  and\n  dup2\n  mstore\n  0x20\n  add\n    /* \"contracts/230530/lotto.sol\":935:936  2 */\n  0x02\n    /* \"contracts/230530/lotto.sol\":908:941  uint[] public numbers = [1,2,3,4] */\n  0xff\n  and\n  dup2\n  mstore\n  0x20\n  add\n    /* \"contracts/230530/lotto.sol\":937:938  3 */\n  0x03\n    /* \"contracts/230530/lotto.sol\":908:941  uint[] public numbers = [1,2,3,4] */\n  0xff\n  and\n  dup2\n  mstore\n  0x20\n  add\n    /* \"contracts/230530/lotto.sol\":939:940  4 */\n  0x04\n    /* \"contracts/230530/lotto.sol\":908:941  uint[] public numbers = [1,2,3,4] */\n  0xff\n  and\n  dup2\n  mstore\n  pop\n  0x00\n  swap1\n  0x04\n  tag_1\n  swap3\n  swap2\n  swap1\n  tag_2\n  jump\t// in\ntag_1:\n  pop\n    /* \"contracts/230530/lotto.sol\":947:983  string[] public letters = [\"a\", \"b\"] */\n  mload(0x40)\n  dup1\n  0x40\n  add\n  0x40\n  mstore\n  dup1\n  mload(0x40)\n  dup1\n  0x40\n  add\n  0x40\n  mstore\n  dup1\n  0x01\n  dup2\n  mstore\n  0x20\n  add\n  0x6100000000000000000000000000000000000000000000000000000000000000\n  dup2\n  mstore\n  pop\n  dup2\n  mstore\n  0x20\n  add\n  mload(0x40)\n  dup1\n  0x40\n  add\n  0x40\n  mstore\n  dup1\n  0x01\n  dup2\n  mstore\n  0x20\n  add\n  0x6200000000000000000000000000000000000000000000000000000000000000\n  dup2\n  mstore\n  pop\n  dup2\n  mstore\n  pop\n  0x01\n  swap1\n  0x02\n  tag_3\n  swap3\n  swap2\n  swap1\n  tag_4\n  jump\t// in\ntag_3:\n  pop\n    /* \"contracts/230530/lotto.sol\":1010:1059  constructor() {... */\n  callvalue\n  dup1\n  iszero\n  tag_5\n  jumpi\n  0x00\n  dup1\n  revert\ntag_5:\n  pop\n    /* \"contracts/230530/lotto.sol\":1042:1052  msg.sender */\n  caller\n    /* \"contracts/230530/lotto.sol\":1034:1039  owner */\n  0x02\n  0x00\n    /* \"contracts/230530/lotto.sol\":1034:1052  owner = msg.sender */\n  0x0100\n  exp\n  dup2\n  sload\n  dup2\n  0xffffffffffffffffffffffffffffffffffffffff\n  mul\n  not\n  and\n  swap1\n  dup4\n  0xffffffffffffffffffffffffffffffffffffffff\n  and\n  mul\n  or\n  swap1\n  sstore\n  pop\n    /* \"contracts/230530/lotto.sol\":890:2861  contract Q8 {... */\n  jump(tag_8)\ntag_2:\n  dup3\n  dup1\n  sload\n  dup3\n  dup3\n  sstore\n  swap1\n  0x00\n  mstore\n  keccak256(0x00, 0x20)\n  swap1\n  dup2\n  add\n  swap3\n  dup3\n  iszero\n  tag_9\n  jumpi\n  swap2\n  0x20\n  mul\n  dup3\n  add\ntag_10:\n  dup3\n  dup2\n  gt\n  iszero\n  tag_11\n  jumpi\n  dup3\n  mload\n  dup3\n  swap1\n  0xff\n  and\n  swap1\n  sstore\n  swap2\n  0x20\n  add\n  swap2\n  swap1\n  0x01\n  add\n  swap1\n  jump(tag_10)\ntag_11:\ntag_9:\n  pop\n  swap1\n  pop\n  tag_12\n  swap2\n  swap1\n  tag_13\n  jump\t// in\ntag_12:\n  pop\n  swap1\n  jump\t// out\ntag_4:\n  dup3\n  dup1\n  sload\n  dup3\n  dup3\n  sstore\n  swap1\n  0x00\n  mstore\n  keccak256(0x00, 0x20)\n  swap1\n  dup2\n  add\n  swap3\n  dup3\n  iszero\n  tag_14\n  jumpi\n  swap2\n  0x20\n  mul\n  dup3\n  add\ntag_15:\n  dup3\n  dup2\n  gt\n  iszero\n  tag_16\n  jumpi\n  dup3\n  mload\n  dup3\n  swap1\n  dup2\n  tag_17\n  swap2\n  swap1\n  tag_18\n  jump\t// in\ntag_17:\n  pop\n  swap2\n  0x20\n  add\n  swap2\n  swap1\n  0x01\n  add\n  swap1\n  jump(tag_15)\ntag_16:\ntag_14:\n  pop\n  swap1\n  pop\n  tag_19\n  swap2\n  swap1\n  tag_20\n  jump\t// in\ntag_19:\n  pop\n  swap1\n  jump\t// out\ntag_13:\ntag_21:\n  dup1\n  dup3\n  gt\n  iszero\n  tag_22\n  jumpi\n  0x00\n  dup2\n  0x00\n  swap1\n  sstore\n  pop\n  0x01\n  add\n  jump(tag_21)\ntag_22:\n  pop\n  swap1\n  jump\t// out\ntag_20:\ntag_23:\n  dup1\n  dup3\n  gt\n  iszero\n  tag_24\n  jumpi\n  0x00\n  dup2\n  dup2\n  tag_25\n  swap2\n  swap1\n  tag_26\n  jump\t// in\ntag_25:\n  pop\n  0x01\n  add\n  jump(tag_23)\ntag_24:\n  pop\n  swap1\n  jump\t// out\ntag_26:\n  pop\n  dup1\n  sload\n  tag_27\n  swap1\n  tag_28\n  jump\t// in\ntag_27:\n  0x00\n  dup3\n  sstore\n  dup1\n  0x1f\n  lt\n  tag_30\n  jumpi\n  pop\n  jump(tag_29)\ntag_30:\n  0x1f\n  add\n  0x20\n  swap1\n  div\n  swap1\n  0x00\n  mstore\n  keccak256(0x00, 0x20)\n  swap1\n  dup2\n  add\n  swap1\n  tag_31\n  swap2\n  swap1\n  tag_13\n  jump\t// in\ntag_31:\ntag_29:\n  pop\n  jump\t// out\n    /* \"#utility.yul\":7:106   */\ntag_32:\n    /* \"#utility.yul\":59:65   */\n  0x00\n    /* \"#utility.yul\":93:98   */\n  dup2\n    /* \"#utility.yul\":87:99   */\n  mload\n    /* \"#utility.yul\":77:99   */\n  swap1\n  pop\n    /* \"#utility.yul\":7:106   */\n  swap2\n  swap1\n  pop\n  jump\t// out\n    /* \"#utility.yul\":112:292   */\ntag_33:\n    /* \"#utility.yul\":160:237   */\n  0x4e487b7100000000000000000000000000000000000000000000000000000000\n    /* \"#utility.yul\":157:158   */\n  0x00\n    /* \"#utility.yul\":150:238   */\n  mstore\n    /* \"#utility.yul\":257:261   */\n  0x41\n    /* \"#utility.yul\":254:255   */\n  0x04\n    /* \"#utility.yul\":247:262   */\n  mstore\n    /* \"#utility.yul\":281:285   */\n  0x24\n    /* \"#utility.yul\":278:279   */\n  0x00\n    /* \"#utility.yul\":271:286   */\n  revert\n    /* \"#utility.yul\":298:478   */\ntag_34:\n    /* \"#utility.yul\":346:423   */\n  0x4e487b7100000000000000000000000000000000000000000000000000000000\n    /* \"#utility.yul\":343:344   */\n  0x00\n    /* \"#utility.yul\":336:424   */\n  mstore\n    /* \"#utility.yul\":443:447   */\n  0x22\n    /* \"#utility.yul\":440:441   */\n  0x04\n    /* \"#utility.yul\":433:448   */\n  mstore\n    /* \"#utility.yul\":467:471   */\n  0x24\n    /* \"#utility.yul\":464:465   */\n  0x00\n    /* \"#utility.yul\":457:472   */\n  revert\n    /* \"#utility.yul\":484:804   */\ntag_28:\n    /* \"#utility.yul\":528:534   */\n  0x00\n    /* \"#utility.yul\":565:566   */\n  0x02\n    /* \"#utility.yul\":559:563   */\n  dup3\n    /* \"#utility.yul\":555:567   */\n  div\n    /* \"#utility.yul\":545:567   */\n  swap1\n  pop\n    /* \"#utility.yul\":612:613   */\n  0x01\n    /* \"#utility.yul\":606:610   */\n  dup3\n    /* \"#utility.yul\":602:614   */\n  and\n    /* \"#utility.yul\":633:651   */\n  dup1\n    /* \"#utility.yul\":623:704   */\n  tag_56\n  jumpi\n    /* \"#utility.yul\":689:693   */\n  0x7f\n    /* \"#utility.yul\":681:687   */\n  dup3\n    /* \"#utility.yul\":677:694   */\n  and\n    /* \"#utility.yul\":667:694   */\n  swap2\n  pop\n    /* \"#utility.yul\":623:704   */\ntag_56:\n    /* \"#utility.yul\":751:753   */\n  0x20\n    /* \"#utility.yul\":743:749   */\n  dup3\n    /* \"#utility.yul\":740:754   */\n  lt\n    /* \"#utility.yul\":720:738   */\n  dup2\n    /* \"#utility.yul\":717:755   */\n  sub\n    /* \"#utility.yul\":714:798   */\n  tag_57\n  jumpi\n    /* \"#utility.yul\":770:788   */\n  tag_58\n  tag_34\n  jump\t// in\ntag_58:\n    /* \"#utility.yul\":714:798   */\ntag_57:\n    /* \"#utility.yul\":535:804   */\n  pop\n    /* \"#utility.yul\":484:804   */\n  swap2\n  swap1\n  pop\n  jump\t// out\n    /* \"#utility.yul\":810:951   */\ntag_35:\n    /* \"#utility.yul\":859:863   */\n  0x00\n    /* \"#utility.yul\":882:885   */\n  dup2\n    /* \"#utility.yul\":874:885   */\n  swap1\n  pop\n    /* \"#utility.yul\":905:908   */\n  dup2\n    /* \"#utility.yul\":902:903   */\n  0x00\n    /* \"#utility.yul\":895:909   */\n  mstore\n    /* \"#utility.yul\":939:943   */\n  0x20\n    /* \"#utility.yul\":936:937   */\n  0x00\n    /* \"#utility.yul\":926:944   */\n  keccak256\n    /* \"#utility.yul\":918:944   */\n  swap1\n  pop\n    /* \"#utility.yul\":810:951   */\n  swap2\n  swap1\n  pop\n  jump\t// out\n    /* \"#utility.yul\":957:1050   */\ntag_36:\n    /* \"#utility.yul\":994:1000   */\n  0x00\n    /* \"#utility.yul\":1041:1043   */\n  0x20\n    /* \"#utility.yul\":1036:1038   */\n  0x1f\n    /* \"#utility.yul\":1029:1034   */\n  dup4\n    /* \"#utility.yul\":1025:1039   */\n  add\n    /* \"#utility.yul\":1021:1044   */\n  div\n    /* \"#utility.yul\":1011:1044   */\n  swap1\n  pop\n    /* \"#utility.yul\":957:1050   */\n  swap2\n  swap1\n  pop\n  jump\t// out\n    /* \"#utility.yul\":1056:1163   */\ntag_37:\n    /* \"#utility.yul\":1100:1108   */\n  0x00\n    /* \"#utility.yul\":1150:1155   */\n  dup3\n    /* \"#utility.yul\":1144:1148   */\n  dup3\n    /* \"#utility.yul\":1140:1156   */\n  shl\n    /* \"#utility.yul\":1119:1156   */\n  swap1\n  pop\n    /* \"#utility.yul\":1056:1163   */\n  swap3\n  swap2\n  pop\n  pop\n  jump\t// out\n    /* \"#utility.yul\":1169:1562   */\ntag_38:\n    /* \"#utility.yul\":1238:1244   */\n  0x00\n    /* \"#utility.yul\":1288:1289   */\n  0x08\n    /* \"#utility.yul\":1276:1286   */\n  dup4\n    /* \"#utility.yul\":1272:1290   */\n  mul\n    /* \"#utility.yul\":1311:1408   */\n  tag_63\n    /* \"#utility.yul\":1341:1407   */\n  0xffffffffffffffffffffffffffffffffffffffffffffffffffffffffffffffff\n    /* \"#utility.yul\":1330:1339   */\n  dup3\n    /* \"#utility.yul\":1311:1408   */\n  tag_37\n  jump\t// in\ntag_63:\n    /* \"#utility.yul\":1429:1468   */\n  tag_64\n    /* \"#utility.yul\":1459:1467   */\n  dup7\n    /* \"#utility.yul\":1448:1457   */\n  dup4\n    /* \"#utility.yul\":1429:1468   */\n  tag_37\n  jump\t// in\ntag_64:\n    /* \"#utility.yul\":1417:1468   */\n  swap6\n  pop\n    /* \"#utility.yul\":1501:1505   */\n  dup1\n    /* \"#utility.yul\":1497:1506   */\n  not\n    /* \"#utility.yul\":1490:1495   */\n  dup5\n    /* \"#utility.yul\":1486:1507   */\n  and\n    /* \"#utility.yul\":1477:1507   */\n  swap4\n  pop\n    /* \"#utility.yul\":1550:1554   */\n  dup1\n    /* \"#utility.yul\":1540:1548   */\n  dup7\n    /* \"#utility.yul\":1536:1555   */\n  and\n    /* \"#utility.yul\":1529:1534   */\n  dup5\n    /* \"#utility.yul\":1526:1556   */\n  or\n    /* \"#utility.yul\":1516:1556   */\n  swap3\n  pop\n    /* \"#utility.yul\":1245:1562   */\n  pop\n  pop\n    /* \"#utility.yul\":1169:1562   */\n  swap4\n  swap3\n  pop\n  pop\n  pop\n  jump\t// out\n    /* \"#utility.yul\":1568:1645   */\ntag_39:\n    /* \"#utility.yul\":1605:1612   */\n  0x00\n    /* \"#utility.yul\":1634:1639   */\n  dup2\n    /* \"#utility.yul\":1623:1639   */\n  swap1\n  pop\n    /* \"#utility.yul\":1568:1645   */\n  swap2\n  swap1\n  pop\n  jump\t// out\n    /* \"#utility.yul\":1651:1711   */\ntag_40:\n    /* \"#utility.yul\":1679:1682   */\n  0x00\n    /* \"#utility.yul\":1700:1705   */\n  dup2\n    /* \"#utility.yul\":1693:1705   */\n  swap1\n  pop\n    /* \"#utility.yul\":1651:1711   */\n  swap2\n  swap1\n  pop\n  jump\t// out\n    /* \"#utility.yul\":1717:1859   */\ntag_41:\n    /* \"#utility.yul\":1767:1776   */\n  0x00\n    /* \"#utility.yul\":1800:1853   */\n  tag_68\n    /* \"#utility.yul\":1818:1852   */\n  tag_69\n    /* \"#utility.yul\":1827:1851   */\n  tag_70\n    /* \"#utility.yul\":1845:1850   */\n  dup5\n    /* \"#utility.yul\":1827:1851   */\n  tag_39\n  jump\t// in\ntag_70:\n    /* \"#utility.yul\":1818:1852   */\n  tag_40\n  jump\t// in\ntag_69:\n    /* \"#utility.yul\":1800:1853   */\n  tag_39\n  jump\t// in\ntag_68:\n    /* \"#utility.yul\":1787:1853   */\n  swap1\n  pop\n    /* \"#utility.yul\":1717:1859   */\n  swap2\n  swap1\n  pop\n  jump\t// out\n    /* \"#utility.yul\":1865:1940   */\ntag_42:\n    /* \"#utility.yul\":1908:1911   */\n  0x00\n    /* \"#utility.yul\":1929:1934   */\n  dup2\n    /* \"#utility.yul\":1922:1934   */\n  swap1\n  pop\n    /* \"#utility.yul\":1865:1940   */\n  swap2\n  swap1\n  pop\n  jump\t// out\n    /* \"#utility.yul\":1946:2215   */\ntag_43:\n    /* \"#utility.yul\":2056:2095   */\n  tag_73\n    /* \"#utility.yul\":2087:2094   */\n  dup4\n    /* \"#utility.yul\":2056:2095   */\n  tag_41\n  jump\t// in\ntag_73:\n    /* \"#utility.yul\":2117:2208   */\n  tag_74\n    /* \"#utility.yul\":2166:2207   */\n  tag_75\n    /* \"#utility.yul\":2190:2206   */\n  dup3\n    /* \"#utility.yul\":2166:2207   */\n  tag_42\n  jump\t// in\ntag_75:\n    /* \"#utility.yul\":2158:2164   */\n  dup5\n    /* \"#utility.yul\":2151:2155   */\n  dup5\n    /* \"#utility.yul\":2145:2156   */\n  sload\n    /* \"#utility.yul\":2117:2208   */\n  tag_38\n  jump\t// in\ntag_74:\n    /* \"#utility.yul\":2111:2115   */\n  dup3\n    /* \"#utility.yul\":2104:2209   */\n  sstore\n    /* \"#utility.yul\":2022:2215   */\n  pop\n    /* \"#utility.yul\":1946:2215   */\n  pop\n  pop\n  pop\n  jump\t// out\n    /* \"#utility.yul\":2221:2294   */\ntag_44:\n    /* \"#utility.yul\":2266:2269   */\n  0x00\n    /* \"#utility.yul\":2221:2294   */\n  swap1\n  jump\t// out\n    /* \"#utility.yul\":2300:2489   */\ntag_45:\n    /* \"#utility.yul\":2377:2409   */\n  tag_78\n  tag_44\n  jump\t// in\ntag_78:\n    /* \"#utility.yul\":2418:2483   */\n  tag_79\n    /* \"#utility.yul\":2476:2482   */\n  dup2\n    /* \"#utility.yul\":2468:2474   */\n  dup5\n    /* \"#utility.yul\":2462:2466   */\n  dup5\n    /* \"#utility.yul\":2418:2483   */\n  tag_43\n  jump\t// in\ntag_79:\n    /* \"#utility.yul\":2353:2489   */\n  pop\n    /* \"#utility.yul\":2300:2489   */\n  pop\n  pop\n  jump\t// out\n    /* \"#utility.yul\":2495:2681   */\ntag_46:\n    /* \"#utility.yul\":2555:2675   */\ntag_81:\n    /* \"#utility.yul\":2572:2575   */\n  dup2\n    /* \"#utility.yul\":2565:2570   */\n  dup2\n    /* \"#utility.yul\":2562:2576   */\n  lt\n    /* \"#utility.yul\":2555:2675   */\n  iszero\n  tag_83\n  jumpi\n    /* \"#utility.yul\":2626:2665   */\n  tag_84\n    /* \"#utility.yul\":2663:2664   */\n  0x00\n    /* \"#utility.yul\":2656:2661   */\n  dup3\n    /* \"#utility.yul\":2626:2665   */\n  tag_45\n  jump\t// in\ntag_84:\n    /* \"#utility.yul\":2599:2600   */\n  0x01\n    /* \"#utility.yul\":2592:2597   */\n  dup2\n    /* \"#utility.yul\":2588:2601   */\n  add\n    /* \"#utility.yul\":2579:2601   */\n  swap1\n  pop\n    /* \"#utility.yul\":2555:2675   */\n  jump(tag_81)\ntag_83:\n    /* \"#utility.yul\":2495:2681   */\n  pop\n  pop\n  jump\t// out\n    /* \"#utility.yul\":2687:3230   */\ntag_47:\n    /* \"#utility.yul\":2788:2790   */\n  0x1f\n    /* \"#utility.yul\":2783:2786   */\n  dup3\n    /* \"#utility.yul\":2780:2791   */\n  gt\n    /* \"#utility.yul\":2777:3223   */\n  iszero\n  tag_86\n  jumpi\n    /* \"#utility.yul\":2822:2860   */\n  tag_87\n    /* \"#utility.yul\":2854:2859   */\n  dup2\n    /* \"#utility.yul\":2822:2860   */\n  tag_35\n  jump\t// in\ntag_87:\n    /* \"#utility.yul\":2906:2935   */\n  tag_88\n    /* \"#utility.yul\":2924:2934   */\n  dup5\n    /* \"#utility.yul\":2906:2935   */\n  tag_36\n  jump\t// in\ntag_88:\n    /* \"#utility.yul\":2896:2904   */\n  dup2\n    /* \"#utility.yul\":2892:2936   */\n  add\n    /* \"#utility.yul\":3089:3091   */\n  0x20\n    /* \"#utility.yul\":3077:3087   */\n  dup6\n    /* \"#utility.yul\":3074:3092   */\n  lt\n    /* \"#utility.yul\":3071:3120   */\n  iszero\n  tag_89\n  jumpi\n    /* \"#utility.yul\":3110:3118   */\n  dup2\n    /* \"#utility.yul\":3095:3118   */\n  swap1\n  pop\n    /* \"#utility.yul\":3071:3120   */\ntag_89:\n    /* \"#utility.yul\":3133:3213   */\n  tag_90\n    /* \"#utility.yul\":3189:3211   */\n  tag_91\n    /* \"#utility.yul\":3207:3210   */\n  dup6\n    /* \"#utility.yul\":3189:3211   */\n  tag_36\n  jump\t// in\ntag_91:\n    /* \"#utility.yul\":3179:3187   */\n  dup4\n    /* \"#utility.yul\":3175:3212   */\n  add\n    /* \"#utility.yul\":3162:3173   */\n  dup3\n    /* \"#utility.yul\":3133:3213   */\n  tag_46\n  jump\t// in\ntag_90:\n    /* \"#utility.yul\":2792:3223   */\n  pop\n  pop\n    /* \"#utility.yul\":2777:3223   */\ntag_86:\n    /* \"#utility.yul\":2687:3230   */\n  pop\n  pop\n  pop\n  jump\t// out\n    /* \"#utility.yul\":3236:3353   */\ntag_48:\n    /* \"#utility.yul\":3290:3298   */\n  0x00\n    /* \"#utility.yul\":3340:3345   */\n  dup3\n    /* \"#utility.yul\":3334:3338   */\n  dup3\n    /* \"#utility.yul\":3330:3346   */\n  shr\n    /* \"#utility.yul\":3309:3346   */\n  swap1\n  pop\n    /* \"#utility.yul\":3236:3353   */\n  swap3\n  swap2\n  pop\n  pop\n  jump\t// out\n    /* \"#utility.yul\":3359:3528   */\ntag_49:\n    /* \"#utility.yul\":3403:3409   */\n  0x00\n    /* \"#utility.yul\":3436:3487   */\n  tag_94\n    /* \"#utility.yul\":3484:3485   */\n  0x00\n    /* \"#utility.yul\":3480:3486   */\n  not\n    /* \"#utility.yul\":3472:3477   */\n  dup5\n    /* \"#utility.yul\":3469:3470   */\n  0x08\n    /* \"#utility.yul\":3465:3478   */\n  mul\n    /* \"#utility.yul\":3436:3487   */\n  tag_48\n  jump\t// in\ntag_94:\n    /* \"#utility.yul\":3432:3488   */\n  not\n    /* \"#utility.yul\":3517:3521   */\n  dup1\n    /* \"#utility.yul\":3511:3515   */\n  dup4\n    /* \"#utility.yul\":3507:3522   */\n  and\n    /* \"#utility.yul\":3497:3522   */\n  swap2\n  pop\n    /* \"#utility.yul\":3410:3528   */\n  pop\n    /* \"#utility.yul\":3359:3528   */\n  swap3\n  swap2\n  pop\n  pop\n  jump\t// out\n    /* \"#utility.yul\":3533:3828   */\ntag_50:\n    /* \"#utility.yul\":3609:3613   */\n  0x00\n    /* \"#utility.yul\":3755:3784   */\n  tag_96\n    /* \"#utility.yul\":3780:3783   */\n  dup4\n    /* \"#utility.yul\":3774:3778   */\n  dup4\n    /* \"#utility.yul\":3755:3784   */\n  tag_49\n  jump\t// in\ntag_96:\n    /* \"#utility.yul\":3747:3784   */\n  swap2\n  pop\n    /* \"#utility.yul\":3817:3820   */\n  dup3\n    /* \"#utility.yul\":3814:3815   */\n  0x02\n    /* \"#utility.yul\":3810:3821   */\n  mul\n    /* \"#utility.yul\":3804:3808   */\n  dup3\n    /* \"#utility.yul\":3801:3822   */\n  or\n    /* \"#utility.yul\":3793:3822   */\n  swap1\n  pop\n    /* \"#utility.yul\":3533:3828   */\n  swap3\n  swap2\n  pop\n  pop\n  jump\t// out\n    /* \"#utility.yul\":3833:5228   */\ntag_18:\n    /* \"#utility.yul\":3950:3987   */\n  tag_98\n    /* \"#utility.yul\":3983:3986   */\n  dup3\n    /* \"#utility.yul\":3950:3987   */\n  tag_32\n  jump\t// in\ntag_98:\n    /* \"#utility.yul\":4052:4070   */\n  0xffffffffffffffff\n    /* \"#utility.yul\":4044:4050   */\n  dup2\n    /* \"#utility.yul\":4041:4071   */\n  gt\n    /* \"#utility.yul\":4038:4094   */\n  iszero\n  tag_99\n  jumpi\n    /* \"#utility.yul\":4074:4092   */\n  tag_100\n  tag_33\n  jump\t// in\ntag_100:\n    /* \"#utility.yul\":4038:4094   */\ntag_99:\n    /* \"#utility.yul\":4118:4156   */\n  tag_101\n    /* \"#utility.yul\":4150:4154   */\n  dup3\n    /* \"#utility.yul\":4144:4155   */\n  sload\n    /* \"#utility.yul\":4118:4156   */\n  tag_28\n  jump\t// in\ntag_101:\n    /* \"#utility.yul\":4203:4270   */\n  tag_102\n    /* \"#utility.yul\":4263:4269   */\n  dup3\n    /* \"#utility.yul\":4255:4261   */\n  dup3\n    /* \"#utility.yul\":4249:4253   */\n  dup6\n    /* \"#utility.yul\":4203:4270   */\n  tag_47\n  jump\t// in\ntag_102:\n    /* \"#utility.yul\":4297:4298   */\n  0x00\n    /* \"#utility.yul\":4321:4325   */\n  0x20\n    /* \"#utility.yul\":4308:4325   */\n  swap1\n  pop\n    /* \"#utility.yul\":4353:4355   */\n  0x1f\n    /* \"#utility.yul\":4345:4351   */\n  dup4\n    /* \"#utility.yul\":4342:4356   */\n  gt\n    /* \"#utility.yul\":4370:4371   */\n  0x01\n    /* \"#utility.yul\":4365:4983   */\n  dup2\n  eq\n  tag_104\n  jumpi\n    /* \"#utility.yul\":5027:5028   */\n  0x00\n    /* \"#utility.yul\":5044:5050   */\n  dup5\n    /* \"#utility.yul\":5041:5118   */\n  iszero\n  tag_105\n  jumpi\n    /* \"#utility.yul\":5093:5102   */\n  dup3\n    /* \"#utility.yul\":5088:5091   */\n  dup8\n    /* \"#utility.yul\":5084:5103   */\n  add\n    /* \"#utility.yul\":5078:5104   */\n  mload\n    /* \"#utility.yul\":5069:5104   */\n  swap1\n  pop\n    /* \"#utility.yul\":5041:5118   */\ntag_105:\n    /* \"#utility.yul\":5144:5211   */\n  tag_106\n    /* \"#utility.yul\":5204:5210   */\n  dup6\n    /* \"#utility.yul\":5197:5202   */\n  dup3\n    /* \"#utility.yul\":5144:5211   */\n  tag_50\n  jump\t// in\ntag_106:\n    /* \"#utility.yul\":5138:5142   */\n  dup7\n    /* \"#utility.yul\":5131:5212   */\n  sstore\n    /* \"#utility.yul\":5000:5222   */\n  pop\n    /* \"#utility.yul\":4335:5222   */\n  jump(tag_103)\n    /* \"#utility.yul\":4365:4983   */\ntag_104:\n    /* \"#utility.yul\":4417:4421   */\n  0x1f\n    /* \"#utility.yul\":4413:4422   */\n  not\n    /* \"#utility.yul\":4405:4411   */\n  dup5\n    /* \"#utility.yul\":4401:4423   */\n  and\n    /* \"#utility.yul\":4451:4488   */\n  tag_107\n    /* \"#utility.yul\":4483:4487   */\n  dup7\n    /* \"#utility.yul\":4451:4488   */\n  tag_35\n  jump\t// in\ntag_107:\n    /* \"#utility.yul\":4510:4511   */\n  0x00\n    /* \"#utility.yul\":4524:4732   */\ntag_108:\n    /* \"#utility.yul\":4538:4545   */\n  dup3\n    /* \"#utility.yul\":4535:4536   */\n  dup2\n    /* \"#utility.yul\":4532:4546   */\n  lt\n    /* \"#utility.yul\":4524:4732   */\n  iszero\n  tag_110\n  jumpi\n    /* \"#utility.yul\":4617:4626   */\n  dup5\n    /* \"#utility.yul\":4612:4615   */\n  dup10\n    /* \"#utility.yul\":4608:4627   */\n  add\n    /* \"#utility.yul\":4602:4628   */\n  mload\n    /* \"#utility.yul\":4594:4600   */\n  dup3\n    /* \"#utility.yul\":4587:4629   */\n  sstore\n    /* \"#utility.yul\":4668:4669   */\n  0x01\n    /* \"#utility.yul\":4660:4666   */\n  dup3\n    /* \"#utility.yul\":4656:4670   */\n  add\n    /* \"#utility.yul\":4646:4670   */\n  swap2\n  pop\n    /* \"#utility.yul\":4715:4717   */\n  0x20\n    /* \"#utility.yul\":4704:4713   */\n  dup6\n    /* \"#utility.yul\":4700:4718   */\n  add\n    /* \"#utility.yul\":4687:4718   */\n  swap5\n  pop\n    /* \"#utility.yul\":4561:4565   */\n  0x20\n    /* \"#utility.yul\":4558:4559   */\n  dup2\n    /* \"#utility.yul\":4554:4566   */\n  add\n    /* \"#utility.yul\":4549:4566   */\n  swap1\n  pop\n    /* \"#utility.yul\":4524:4732   */\n  jump(tag_108)\ntag_110:\n    /* \"#utility.yul\":4760:4766   */\n  dup7\n    /* \"#utility.yul\":4751:4758   */\n  dup4\n    /* \"#utility.yul\":4748:4767   */\n  lt\n    /* \"#utility.yul\":4745:4924   */\n  iszero\n  tag_111\n  jumpi\n    /* \"#utility.yul\":4818:4827   */\n  dup5\n    /* \"#utility.yul\":4813:4816   */\n  dup10\n    /* \"#utility.yul\":4809:4828   */\n  add\n    /* \"#utility.yul\":4803:4829   */\n  mload\n    /* \"#utility.yul\":4861:4909   */\n  tag_112\n    /* \"#utility.yul\":4903:4907   */\n  0x1f\n    /* \"#utility.yul\":4895:4901   */\n  dup10\n    /* \"#utility.yul\":4891:4908   */\n  and\n    /* \"#utility.yul\":4880:4889   */\n  dup3\n    /* \"#utility.yul\":4861:4909   */\n  tag_49\n  jump\t// in\ntag_112:\n    /* \"#utility.yul\":4853:4859   */\n  dup4\n    /* \"#utility.yul\":4846:4910   */\n  sstore\n    /* \"#utility.yul\":4768:4924   */\n  pop\n    /* \"#utility.yul\":4745:4924   */\ntag_111:\n    /* \"#utility.yul\":4970:4971   */\n  0x01\n    /* \"#utility.yul\":4966:4967   */\n  0x02\n    /* \"#utility.yul\":4958:4964   */\n  dup9\n    /* \"#utility.yul\":4954:4968   */\n  mul\n    /* \"#utility.yul\":4950:4972   */\n  add\n    /* \"#utility.yul\":4944:4948   */\n  dup9\n    /* \"#utility.yul\":4937:4973   */\n  sstore\n    /* \"#utility.yul\":4372:4983   */\n  pop\n  pop\n  pop\n    /* \"#utility.yul\":4335:5222   */\ntag_103:\n  pop\n    /* \"#utility.yul\":3925:5228   */\n  pop\n  pop\n  pop\n    /* \"#utility.yul\":3833:5228   */\n  pop\n  pop\n  jump\t// out\n    /* \"contracts/230530/lotto.sol\":890:2861  contract Q8 {... */\ntag_8:\n  dataSize(sub_0)\n  dup1\n  dataOffset(sub_0)\n  0x00\n  codecopy\n  0x00\n  return\nstop\n\nsub_0: assembly {\n        /* \"contracts/230530/lotto.sol\":890:2861  contract Q8 {... */\n      mstore(0x40, 0x80)\n      jumpi(tag_1, lt(calldatasize, 0x04))\n      shr(0xe0, calldataload(0x00))\n      dup1\n      0xc723f14c\n      gt\n      tag_10\n      jumpi\n      dup1\n      0xc723f14c\n      eq\n      tag_6\n      jumpi\n      dup1\n      0xd0235b30\n      eq\n      tag_7\n      jumpi\n      dup1\n      0xd39fa233\n      eq\n      tag_8\n      jumpi\n      dup1\n      0xe9395679\n      eq\n      tag_9\n      jumpi\n      jump(tag_1)\n    tag_10:\n      dup1\n      0x68c47d19\n      eq\n      tag_2\n      jumpi\n      dup1\n      0x75d61759\n      eq\n      tag_3\n      jumpi\n      dup1\n      0xa074dc3d\n      eq\n      tag_4\n      jumpi\n      dup1\n      0xa2a0e4c3\n      eq\n      tag_5\n      jumpi\n    tag_1:\n      0x00\n      dup1\n      revert\n        /* \"contracts/230530/lotto.sol\":2396:2676  function isSameLetter(string[] calldata _myLetter) public view returns(uint) {... */\n    tag_2:\n      callvalue\n      dup1\n      iszero\n      tag_11\n      jumpi\n      0x00\n      dup1\n      revert\n    tag_11:\n      pop\n      tag_12\n      0x04\n      dup1\n      calldatasize\n      sub\n      dup2\n      add\n      swap1\n      tag_13\n      swap2\n      swap1\n      tag_14\n      jump\t// in\n    tag_13:\n      tag_15\n      jump\t// in\n    tag_12:\n      mload(0x40)\n      tag_16\n      swap2\n      swap1\n      tag_17\n      jump\t// in\n    tag_16:\n      mload(0x40)\n      dup1\n      swap2\n      sub\n      swap1\n      return\n        /* \"contracts/230530/lotto.sol\":2127:2390  function isSameNumber(uint[] calldata _myNumber) public view returns(uint) {... */\n    tag_3:\n      callvalue\n      dup1\n      iszero\n      tag_18\n      jumpi\n      0x00\n      dup1\n      revert\n    tag_18:\n      pop\n      tag_19\n      0x04\n      dup1\n      calldatasize\n      sub\n      dup2\n      add\n      swap1\n      tag_20\n      swap2\n      swap1\n      tag_21\n      jump\t// in\n    tag_20:\n      tag_22\n      jump\t// in\n    tag_19:\n      mload(0x40)\n      tag_23\n      swap2\n      swap1\n      tag_17\n      jump\t// in\n    tag_23:\n      mload(0x40)\n      dup1\n      swap2\n      sub\n      swap1\n      return\n        /* \"contracts/230530/lotto.sol\":2682:2859  function letterCompare(string memory _a, string calldata _b) public pure returns(bool) {... */\n    tag_4:\n      callvalue\n      dup1\n      iszero\n      tag_24\n      jumpi\n      0x00\n      dup1\n      revert\n    tag_24:\n      pop\n      tag_25\n      0x04\n      dup1\n      calldatasize\n      sub\n      dup2\n      add\n      swap1\n      tag_26\n      swap2\n      swap1\n      tag_27\n      jump\t// in\n    tag_26:\n      tag_28\n      jump\t// in\n    tag_25:\n      mload(0x40)\n      tag_29\n      swap2\n      swap1\n      tag_30\n      jump\t// in\n    tag_29:\n      mload(0x40)\n      dup1\n      swap2\n      sub\n      swap1\n      return\n        /* \"contracts/230530/lotto.sol\":947:983  string[] public letters = [\"a\", \"b\"] */\n    tag_5:\n      callvalue\n      dup1\n      iszero\n      tag_31\n      jumpi\n      0x00\n      dup1\n      revert\n    tag_31:\n      pop\n      tag_32\n      0x04\n      dup1\n      calldatasize\n      sub\n      dup2\n      add\n      swap1\n      tag_33\n      swap2\n      swap1\n      tag_34\n      jump\t// in\n    tag_33:\n      tag_35\n      jump\t// in\n    tag_32:\n      mload(0x40)\n      tag_36\n      swap2\n      swap1\n      tag_37\n      jump\t// in\n    tag_36:\n      mload(0x40)\n      dup1\n      swap2\n      sub\n      swap1\n      return\n        /* \"contracts/230530/lotto.sol\":1500:1711  function setLotto(uint[] calldata _numbers, string[] calldata _letters) public payable {... */\n    tag_6:\n      tag_38\n      0x04\n      dup1\n      calldatasize\n      sub\n      dup2\n      add\n      swap1\n      tag_39\n      swap2\n      swap1\n      tag_40\n      jump\t// in\n    tag_39:\n      tag_41\n      jump\t// in\n    tag_38:\n      stop\n        /* \"contracts/230530/lotto.sol\":1182:1365  function setTargetNumber(uint[] memory _numbers, string[] memory _letters) public {... */\n    tag_7:\n      callvalue\n      dup1\n      iszero\n      tag_42\n      jumpi\n      0x00\n      dup1\n      revert\n    tag_42:\n      pop\n      tag_43\n      0x04\n      dup1\n      calldatasize\n      sub\n      dup2\n      add\n      swap1\n      tag_44\n      swap2\n      swap1\n      tag_45\n      jump\t// in\n    tag_44:\n      tag_46\n      jump\t// in\n    tag_43:\n      stop\n        /* \"contracts/230530/lotto.sol\":908:941  uint[] public numbers = [1,2,3,4] */\n    tag_8:\n      callvalue\n      dup1\n      iszero\n      tag_47\n      jumpi\n      0x00\n      dup1\n      revert\n    tag_47:\n      pop\n      tag_48\n      0x04\n      dup1\n      calldatasize\n      sub\n      dup2\n      add\n      swap1\n      tag_49\n      swap2\n      swap1\n      tag_34\n      jump\t// in\n    tag_49:\n      tag_50\n      jump\t// in\n    tag_48:\n      mload(0x40)\n      tag_51\n      swap2\n      swap1\n      tag_17\n      jump\t// in\n    tag_51:\n      mload(0x40)\n      dup1\n      swap2\n      sub\n      swap1\n      return\n        /* \"contracts/230530/lotto.sol\":1066:1176  function uintToString(uint _a) public view returns(string memory) {... */\n    tag_9:\n      callvalue\n      dup1\n      iszero\n      tag_52\n      jumpi\n      0x00\n      dup1\n      revert\n    tag_52:\n      pop\n      tag_53\n      0x04\n      dup1\n      calldatasize\n      sub\n      dup2\n      add\n      swap1\n      tag_54\n      swap2\n      swap1\n      tag_34\n      jump\t// in\n    tag_54:\n      tag_55\n      jump\t// in\n    tag_53:\n      mload(0x40)\n      tag_56\n      swap2\n      swap1\n      tag_37\n      jump\t// in\n    tag_56:\n      mload(0x40)\n      dup1\n      swap2\n      sub\n      swap1\n      return\n        /* \"contracts/230530/lotto.sol\":2396:2676  function isSameLetter(string[] calldata _myLetter) public view returns(uint) {... */\n    tag_15:\n        /* \"contracts/230530/lotto.sol\":2467:2471  uint */\n      0x00\n        /* \"contracts/230530/lotto.sol\":2483:2493  uint count */\n      dup1\n        /* \"contracts/230530/lotto.sol\":2507:2513  uint i */\n      0x00\n        /* \"contracts/230530/lotto.sol\":2503:2648  for(uint i=0; i<letters.length; i++) {... */\n    tag_58:\n        /* \"contracts/230530/lotto.sol\":2519:2526  letters */\n      0x01\n        /* \"contracts/230530/lotto.sol\":2519:2533  letters.length */\n      dup1\n      sload\n      swap1\n      pop\n        /* \"contracts/230530/lotto.sol\":2517:2518  i */\n      dup2\n        /* \"contracts/230530/lotto.sol\":2517:2533  i<letters.length */\n      lt\n        /* \"contracts/230530/lotto.sol\":2503:2648  for(uint i=0; i<letters.length; i++) {... */\n      iszero\n      tag_59\n      jumpi\n        /* \"contracts/230530/lotto.sol\":2557:2596  letterCompare(letters[i], _myLetter[i]) */\n      tag_61\n        /* \"contracts/230530/lotto.sol\":2571:2578  letters */\n      0x01\n        /* \"contracts/230530/lotto.sol\":2579:2580  i */\n      dup3\n        /* \"contracts/230530/lotto.sol\":2571:2581  letters[i] */\n      dup2\n      sload\n      dup2\n      lt\n      tag_62\n      jumpi\n      tag_63\n      tag_64\n      jump\t// in\n    tag_63:\n    tag_62:\n      swap1\n      0x00\n      mstore\n      keccak256(0x00, 0x20)\n      add\n        /* \"contracts/230530/lotto.sol\":2557:2596  letterCompare(letters[i], _myLetter[i]) */\n      dup1\n      sload\n      tag_66\n      swap1\n      tag_67\n      jump\t// in\n    tag_66:\n      dup1\n      0x1f\n      add\n      0x20\n      dup1\n      swap2\n      div\n      mul\n      0x20\n      add\n      mload(0x40)\n      swap1\n      dup2\n      add\n      0x40\n      mstore\n      dup1\n      swap3\n      swap2\n      swap1\n      dup2\n      dup2\n      mstore\n      0x20\n      add\n      dup3\n      dup1\n      sload\n      tag_68\n      swap1\n      tag_67\n      jump\t// in\n    tag_68:\n      dup1\n      iszero\n      tag_69\n      jumpi\n      dup1\n      0x1f\n      lt\n      tag_70\n      jumpi\n      0x0100\n      dup1\n      dup4\n      sload\n      div\n      mul\n      dup4\n      mstore\n      swap2\n      0x20\n      add\n      swap2\n      jump(tag_69)\n    tag_70:\n      dup3\n      add\n      swap2\n      swap1\n      0x00\n      mstore\n      keccak256(0x00, 0x20)\n      swap1\n    tag_71:\n      dup2\n      sload\n      dup2\n      mstore\n      swap1\n      0x01\n      add\n      swap1\n      0x20\n      add\n      dup1\n      dup4\n      gt\n      tag_71\n      jumpi\n      dup3\n      swap1\n      sub\n      0x1f\n      and\n      dup3\n      add\n      swap2\n    tag_69:\n      pop\n      pop\n      pop\n      pop\n      pop\n        /* \"contracts/230530/lotto.sol\":2583:2592  _myLetter */\n      dup7\n      dup7\n        /* \"contracts/230530/lotto.sol\":2593:2594  i */\n      dup5\n        /* \"contracts/230530/lotto.sol\":2583:2595  _myLetter[i] */\n      dup2\n      dup2\n      lt\n      tag_72\n      jumpi\n      tag_73\n      tag_64\n      jump\t// in\n    tag_73:\n    tag_72:\n      swap1\n      pop\n      0x20\n      mul\n      dup2\n      add\n      swap1\n      tag_74\n      swap2\n      swap1\n      tag_75\n      jump\t// in\n    tag_74:\n        /* \"contracts/230530/lotto.sol\":2557:2570  letterCompare */\n      tag_28\n        /* \"contracts/230530/lotto.sol\":2557:2596  letterCompare(letters[i], _myLetter[i]) */\n      jump\t// in\n    tag_61:\n        /* \"contracts/230530/lotto.sol\":2554:2638  if(letterCompare(letters[i], _myLetter[i])) {... */\n      iszero\n      tag_76\n      jumpi\n        /* \"contracts/230530/lotto.sol\":2616:2623  count++ */\n      dup2\n      dup1\n      tag_77\n      swap1\n      tag_78\n      jump\t// in\n    tag_77:\n      swap3\n      pop\n      pop\n        /* \"contracts/230530/lotto.sol\":2554:2638  if(letterCompare(letters[i], _myLetter[i])) {... */\n    tag_76:\n        /* \"contracts/230530/lotto.sol\":2535:2538  i++ */\n      dup1\n      dup1\n      tag_79\n      swap1\n      tag_78\n      jump\t// in\n    tag_79:\n      swap2\n      pop\n      pop\n        /* \"contracts/230530/lotto.sol\":2503:2648  for(uint i=0; i<letters.length; i++) {... */\n      jump(tag_58)\n    tag_59:\n      pop\n        /* \"contracts/230530/lotto.sol\":2664:2669  count */\n      dup1\n        /* \"contracts/230530/lotto.sol\":2657:2669  return count */\n      swap2\n      pop\n      pop\n        /* \"contracts/230530/lotto.sol\":2396:2676  function isSameLetter(string[] calldata _myLetter) public view returns(uint) {... */\n      swap3\n      swap2\n      pop\n      pop\n      jump\t// out\n        /* \"contracts/230530/lotto.sol\":2127:2390  function isSameNumber(uint[] calldata _myNumber) public view returns(uint) {... */\n    tag_22:\n        /* \"contracts/230530/lotto.sol\":2196:2200  uint */\n      0x00\n        /* \"contracts/230530/lotto.sol\":2212:2222  uint count */\n      dup1\n        /* \"contracts/230530/lotto.sol\":2236:2242  uint i */\n      0x00\n        /* \"contracts/230530/lotto.sol\":2232:2362  for(uint i=0; i<numbers.length; i++) {... */\n    tag_81:\n        /* \"contracts/230530/lotto.sol\":2248:2255  numbers */\n      0x00\n        /* \"contracts/230530/lotto.sol\":2248:2262  numbers.length */\n      dup1\n      sload\n      swap1\n      pop\n        /* \"contracts/230530/lotto.sol\":2246:2247  i */\n      dup2\n        /* \"contracts/230530/lotto.sol\":2246:2262  i<numbers.length */\n      lt\n        /* \"contracts/230530/lotto.sol\":2232:2362  for(uint i=0; i<numbers.length; i++) {... */\n      iszero\n      tag_82\n      jumpi\n        /* \"contracts/230530/lotto.sol\":2298:2307  _myNumber */\n      dup5\n      dup5\n        /* \"contracts/230530/lotto.sol\":2308:2309  i */\n      dup3\n        /* \"contracts/230530/lotto.sol\":2298:2310  _myNumber[i] */\n      dup2\n      dup2\n      lt\n      tag_84\n      jumpi\n      tag_85\n      tag_64\n      jump\t// in\n    tag_85:\n    tag_84:\n      swap1\n      pop\n      0x20\n      mul\n      add\n      calldataload\n        /* \"contracts/230530/lotto.sol\":2286:2293  numbers */\n      0x00\n        /* \"contracts/230530/lotto.sol\":2294:2295  i */\n      dup3\n        /* \"contracts/230530/lotto.sol\":2286:2296  numbers[i] */\n      dup2\n      sload\n      dup2\n      lt\n      tag_86\n      jumpi\n      tag_87\n      tag_64\n      jump\t// in\n    tag_87:\n    tag_86:\n      swap1\n      0x00\n      mstore\n      keccak256(0x00, 0x20)\n      add\n      sload\n        /* \"contracts/230530/lotto.sol\":2286:2310  numbers[i]==_myNumber[i] */\n      sub\n        /* \"contracts/230530/lotto.sol\":2283:2352  if(numbers[i]==_myNumber[i]) {... */\n      tag_89\n      jumpi\n        /* \"contracts/230530/lotto.sol\":2330:2337  count++ */\n      dup2\n      dup1\n      tag_90\n      swap1\n      tag_78\n      jump\t// in\n    tag_90:\n      swap3\n      pop\n      pop\n        /* \"contracts/230530/lotto.sol\":2283:2352  if(numbers[i]==_myNumber[i]) {... */\n    tag_89:\n        /* \"contracts/230530/lotto.sol\":2264:2267  i++ */\n      dup1\n      dup1\n      tag_91\n      swap1\n      tag_78\n      jump\t// in\n    tag_91:\n      swap2\n      pop\n      pop\n        /* \"contracts/230530/lotto.sol\":2232:2362  for(uint i=0; i<numbers.length; i++) {... */\n      jump(tag_81)\n    tag_82:\n      pop\n        /* \"contracts/230530/lotto.sol\":2378:2383  count */\n      dup1\n        /* \"contracts/230530/lotto.sol\":2371:2383  return count */\n      swap2\n      pop\n      pop\n        /* \"contracts/230530/lotto.sol\":2127:2390  function isSameNumber(uint[] calldata _myNumber) public view returns(uint) {... */\n      swap3\n      swap2\n      pop\n      pop\n      jump\t// out\n        /* \"contracts/230530/lotto.sol\":2682:2859  function letterCompare(string memory _a, string calldata _b) public pure returns(bool) {... */\n    tag_28:\n        /* \"contracts/230530/lotto.sol\":2763:2767  bool */\n      0x00\n        /* \"contracts/230530/lotto.sol\":2848:2850  _b */\n      dup3\n      dup3\n        /* \"contracts/230530/lotto.sol\":2831:2851  abi.encodePacked(_b) */\n      add(0x20, mload(0x40))\n      tag_93\n      swap3\n      swap2\n      swap1\n      tag_94\n      jump\t// in\n    tag_93:\n      mload(0x40)\n      0x20\n      dup2\n      dup4\n      sub\n      sub\n      dup2\n      mstore\n      swap1\n      0x40\n      mstore\n        /* \"contracts/230530/lotto.sol\":2821:2852  keccak256(abi.encodePacked(_b)) */\n      dup1\n      mload\n      swap1\n      0x20\n      add\n      keccak256\n        /* \"contracts/230530/lotto.sol\":2813:2815  _a */\n      dup5\n        /* \"contracts/230530/lotto.sol\":2796:2816  abi.encodePacked(_a) */\n      add(0x20, mload(0x40))\n      tag_95\n      swap2\n      swap1\n      tag_96\n      jump\t// in\n    tag_95:\n      mload(0x40)\n      0x20\n      dup2\n      dup4\n      sub\n      sub\n      dup2\n      mstore\n      swap1\n      0x40\n      mstore\n        /* \"contracts/230530/lotto.sol\":2786:2817  keccak256(abi.encodePacked(_a)) */\n      dup1\n      mload\n      swap1\n      0x20\n      add\n      keccak256\n        /* \"contracts/230530/lotto.sol\":2786:2852  keccak256(abi.encodePacked(_a)) == keccak256(abi.encodePacked(_b)) */\n      eq\n        /* \"contracts/230530/lotto.sol\":2779:2852  return keccak256(abi.encodePacked(_a)) == keccak256(abi.encodePacked(_b)) */\n      swap1\n      pop\n        /* \"contracts/230530/lotto.sol\":2682:2859  function letterCompare(string memory _a, string calldata _b) public pure returns(bool) {... */\n      swap4\n      swap3\n      pop\n      pop\n      pop\n      jump\t// out\n        /* \"contracts/230530/lotto.sol\":947:983  string[] public letters = [\"a\", \"b\"] */\n    tag_35:\n      0x01\n      dup2\n      dup2\n      sload\n      dup2\n      lt\n      tag_97\n      jumpi\n      0x00\n      dup1\n      revert\n    tag_97:\n      swap1\n      0x00\n      mstore\n      keccak256(0x00, 0x20)\n      add\n      0x00\n      swap2\n      pop\n      swap1\n      pop\n      dup1\n      sload\n      tag_99\n      swap1\n      tag_67\n      jump\t// in\n    tag_99:\n      dup1\n      0x1f\n      add\n      0x20\n      dup1\n      swap2\n      div\n      mul\n      0x20\n      add\n      mload(0x40)\n      swap1\n      dup2\n      add\n      0x40\n      mstore\n      dup1\n      swap3\n      swap2\n      swap1\n      dup2\n      dup2\n      mstore\n      0x20\n      add\n      dup3\n      dup1\n      sload\n      tag_100\n      swap1\n      tag_67\n      jump\t// in\n    tag_100:\n      dup1\n      iszero\n      tag_101\n      jumpi\n      dup1\n      0x1f\n      lt\n      tag_102\n      jumpi\n      0x0100\n      dup1\n      dup4\n      sload\n      div\n      mul\n      dup4\n      mstore\n      swap2\n      0x20\n      add\n      swap2\n      jump(tag_101)\n    tag_102:\n      dup3\n      add\n      swap2\n      swap1\n      0x00\n      mstore\n      keccak256(0x00, 0x20)\n      swap1\n    tag_103:\n      dup2\n      sload\n      dup2\n      mstore\n      swap1\n      0x01\n      add\n      swap1\n      0x20\n      add\n      dup1\n      dup4\n      gt\n      tag_103\n      jumpi\n      dup3\n      swap1\n      sub\n      0x1f\n      and\n      dup3\n      add\n      swap2\n    tag_101:\n      pop\n      pop\n      pop\n      pop\n      pop\n      dup2\n      jump\t// out\n        /* \"contracts/230530/lotto.sol\":1500:1711  function setLotto(uint[] calldata _numbers, string[] calldata _letters) public payable {... */\n    tag_41:\n        /* \"contracts/230530/lotto.sol\":1616:1626  0.05 ether */\n      0xb1a2bc2ec50000\n        /* \"contracts/230530/lotto.sol\":1605:1614  msg.value */\n      callvalue\n        /* \"contracts/230530/lotto.sol\":1605:1626  msg.value==0.05 ether */\n      eq\n        /* \"contracts/230530/lotto.sol\":1597:1627  require(msg.value==0.05 ether) */\n      tag_105\n      jumpi\n      0x00\n      dup1\n      revert\n    tag_105:\n        /* \"contracts/230530/lotto.sol\":1637:1645  uint fit */\n      0x00\n        /* \"contracts/230530/lotto.sol\":1673:1695  isSameLetter(_letters) */\n      tag_106\n        /* \"contracts/230530/lotto.sol\":1686:1694  _letters */\n      dup4\n      dup4\n        /* \"contracts/230530/lotto.sol\":1673:1685  isSameLetter */\n      tag_15\n        /* \"contracts/230530/lotto.sol\":1673:1695  isSameLetter(_letters) */\n      jump\t// in\n    tag_106:\n        /* \"contracts/230530/lotto.sol\":1648:1670  isSameNumber(_numbers) */\n      tag_107\n        /* \"contracts/230530/lotto.sol\":1661:1669  _numbers */\n      dup7\n      dup7\n        /* \"contracts/230530/lotto.sol\":1648:1660  isSameNumber */\n      tag_22\n        /* \"contracts/230530/lotto.sol\":1648:1670  isSameNumber(_numbers) */\n      jump\t// in\n    tag_107:\n        /* \"contracts/230530/lotto.sol\":1648:1695  isSameNumber(_numbers) + isSameLetter(_letters) */\n      tag_108\n      swap2\n      swap1\n      tag_109\n      jump\t// in\n    tag_108:\n        /* \"contracts/230530/lotto.sol\":1637:1695  uint fit = isSameNumber(_numbers) + isSameLetter(_letters) */\n      swap1\n      pop\n        /* \"contracts/230530/lotto.sol\":1587:1711  {... */\n      pop\n        /* \"contracts/230530/lotto.sol\":1500:1711  function setLotto(uint[] calldata _numbers, string[] calldata _letters) public payable {... */\n      pop\n      pop\n      pop\n      pop\n      jump\t// out\n        /* \"contracts/230530/lotto.sol\":1182:1365  function setTargetNumber(uint[] memory _numbers, string[] memory _letters) public {... */\n    tag_46:\n        /* \"contracts/230530/lotto.sol\":1291:1301  msg.sender */\n      caller\n        /* \"contracts/230530/lotto.sol\":1282:1301  owner == msg.sender */\n      0xffffffffffffffffffffffffffffffffffffffff\n      and\n        /* \"contracts/230530/lotto.sol\":1282:1287  owner */\n      0x02\n      0x00\n      swap1\n      sload\n      swap1\n      0x0100\n      exp\n      swap1\n      div\n      0xffffffffffffffffffffffffffffffffffffffff\n      and\n        /* \"contracts/230530/lotto.sol\":1282:1301  owner == msg.sender */\n      0xffffffffffffffffffffffffffffffffffffffff\n      and\n      eq\n        /* \"contracts/230530/lotto.sol\":1274:1302  require(owner == msg.sender) */\n      tag_111\n      jumpi\n      0x00\n      dup1\n      revert\n    tag_111:\n        /* \"contracts/230530/lotto.sol\":1322:1330  _numbers */\n      dup2\n        /* \"contracts/230530/lotto.sol\":1312:1319  numbers */\n      0x00\n        /* \"contracts/230530/lotto.sol\":1312:1330  numbers = _numbers */\n      swap1\n      dup1\n      mload\n      swap1\n      0x20\n      add\n      swap1\n      tag_112\n      swap3\n      swap2\n      swap1\n      tag_113\n      jump\t// in\n    tag_112:\n      pop\n        /* \"contracts/230530/lotto.sol\":1350:1358  _letters */\n      dup1\n        /* \"contracts/230530/lotto.sol\":1340:1347  letters */\n      0x01\n        /* \"contracts/230530/lotto.sol\":1340:1358  letters = _letters */\n      swap1\n      dup1\n      mload\n      swap1\n      0x20\n      add\n      swap1\n      tag_114\n      swap3\n      swap2\n      swap1\n      tag_115\n      jump\t// in\n    tag_114:\n      pop\n        /* \"contracts/230530/lotto.sol\":1182:1365  function setTargetNumber(uint[] memory _numbers, string[] memory _letters) public {... */\n      pop\n      pop\n      jump\t// out\n        /* \"contracts/230530/lotto.sol\":908:941  uint[] public numbers = [1,2,3,4] */\n    tag_50:\n      0x00\n      dup2\n      dup2\n      sload\n      dup2\n      lt\n      tag_116\n      jumpi\n      0x00\n      dup1\n      revert\n    tag_116:\n      swap1\n      0x00\n      mstore\n      keccak256(0x00, 0x20)\n      add\n      0x00\n      swap2\n      pop\n      swap1\n      pop\n      sload\n      dup2\n      jump\t// out\n        /* \"contracts/230530/lotto.sol\":1066:1176  function uintToString(uint _a) public view returns(string memory) {... */\n    tag_55:\n        /* \"contracts/230530/lotto.sol\":1117:1130  string memory */\n      0x60\n        /* \"contracts/230530/lotto.sol\":1149:1169  Strings.toString(_a) */\n      tag_119\n        /* \"contracts/230530/lotto.sol\":1166:1168  _a */\n      dup3\n        /* \"contracts/230530/lotto.sol\":1149:1165  Strings.toString */\n      tag_120\n        /* \"contracts/230530/lotto.sol\":1149:1169  Strings.toString(_a) */\n      jump\t// in\n    tag_119:\n        /* \"contracts/230530/lotto.sol\":1142:1169  return Strings.toString(_a) */\n      swap1\n      pop\n        /* \"contracts/230530/lotto.sol\":1066:1176  function uintToString(uint _a) public view returns(string memory) {... */\n      swap2\n      swap1\n      pop\n      jump\t// out\n        /* \"@openzeppelin/contracts/utils/Strings.sol\":447:1143  function toString(uint256 value) internal pure returns (string memory) {... */\n    tag_120:\n        /* \"@openzeppelin/contracts/utils/Strings.sol\":503:516  string memory */\n      0x60\n        /* \"@openzeppelin/contracts/utils/Strings.sol\":552:566  uint256 length */\n      0x00\n        /* \"@openzeppelin/contracts/utils/Strings.sol\":589:590  1 */\n      0x01\n        /* \"@openzeppelin/contracts/utils/Strings.sol\":569:586  Math.log10(value) */\n      tag_122\n        /* \"@openzeppelin/contracts/utils/Strings.sol\":580:585  value */\n      dup5\n        /* \"@openzeppelin/contracts/utils/Strings.sol\":569:579  Math.log10 */\n      tag_123\n        /* \"@openzeppelin/contracts/utils/Strings.sol\":569:586  Math.log10(value) */\n      jump\t// in\n    tag_122:\n        /* \"@openzeppelin/contracts/utils/Strings.sol\":569:590  Math.log10(value) + 1 */\n      add\n        /* \"@openzeppelin/contracts/utils/Strings.sol\":552:590  uint256 length = Math.log10(value) + 1 */\n      swap1\n      pop\n        /* \"@openzeppelin/contracts/utils/Strings.sol\":604:624  string memory buffer */\n      0x00\n        /* \"@openzeppelin/contracts/utils/Strings.sol\":638:644  length */\n      dup2\n        /* \"@openzeppelin/contracts/utils/Strings.sol\":627:645  new string(length) */\n      0xffffffffffffffff\n      dup2\n      gt\n      iszero\n      tag_124\n      jumpi\n      tag_125\n      tag_126\n      jump\t// in\n    tag_125:\n    tag_124:\n      mload(0x40)\n      swap1\n      dup1\n      dup3\n      mstore\n      dup1\n      0x1f\n      add\n      not(0x1f)\n      and\n      0x20\n      add\n      dup3\n      add\n      0x40\n      mstore\n      dup1\n      iszero\n      tag_127\n      jumpi\n      dup2\n      0x20\n      add\n      0x01\n      dup3\n      mul\n      dup1\n      calldatasize\n      dup4\n      calldatacopy\n      dup1\n      dup3\n      add\n      swap2\n      pop\n      pop\n      swap1\n      pop\n    tag_127:\n      pop\n        /* \"@openzeppelin/contracts/utils/Strings.sol\":604:645  string memory buffer = new string(length) */\n      swap1\n      pop\n        /* \"@openzeppelin/contracts/utils/Strings.sol\":659:670  uint256 ptr */\n      0x00\n        /* \"@openzeppelin/contracts/utils/Strings.sol\":785:791  length */\n      dup3\n        /* \"@openzeppelin/contracts/utils/Strings.sol\":781:783  32 */\n      0x20\n        /* \"@openzeppelin/contracts/utils/Strings.sol\":777:792  add(32, length) */\n      add\n        /* \"@openzeppelin/contracts/utils/Strings.sol\":769:775  buffer */\n      dup3\n        /* \"@openzeppelin/contracts/utils/Strings.sol\":765:793  add(buffer, add(32, length)) */\n      add\n        /* \"@openzeppelin/contracts/utils/Strings.sol\":758:793  ptr := add(buffer, add(32, length)) */\n      swap1\n      pop\n        /* \"@openzeppelin/contracts/utils/Strings.sol\":820:1100  while (true) {... */\n    tag_128:\n        /* \"@openzeppelin/contracts/utils/Strings.sol\":827:831  true */\n      0x01\n        /* \"@openzeppelin/contracts/utils/Strings.sol\":820:1100  while (true) {... */\n      iszero\n      tag_129\n      jumpi\n        /* \"@openzeppelin/contracts/utils/Strings.sol\":851:856  ptr-- */\n      dup1\n      dup1\n      0x01\n      swap1\n      sub\n      swap2\n      pop\n      pop\n        /* \"@openzeppelin/contracts/utils/Strings.sol\":990:998  _SYMBOLS */\n      0x3031323334353637383961626364656600000000000000000000000000000000\n        /* \"@openzeppelin/contracts/utils/Strings.sol\":985:987  10 */\n      0x0a\n        /* \"@openzeppelin/contracts/utils/Strings.sol\":978:983  value */\n      dup7\n        /* \"@openzeppelin/contracts/utils/Strings.sol\":974:988  mod(value, 10) */\n      mod\n        /* \"@openzeppelin/contracts/utils/Strings.sol\":969:999  byte(mod(value, 10), _SYMBOLS) */\n      byte\n        /* \"@openzeppelin/contracts/utils/Strings.sol\":964:967  ptr */\n      dup2\n        /* \"@openzeppelin/contracts/utils/Strings.sol\":956:1000  mstore8(ptr, byte(mod(value, 10), _SYMBOLS)) */\n      mstore8\n        /* \"@openzeppelin/contracts/utils/Strings.sol\":1044:1046  10 */\n      0x0a\n        /* \"@openzeppelin/contracts/utils/Strings.sol\":1035:1046  value /= 10 */\n      dup6\n      dup2\n      tag_130\n      jumpi\n      tag_131\n      tag_132\n      jump\t// in\n    tag_131:\n    tag_130:\n      div\n      swap5\n      pop\n        /* \"@openzeppelin/contracts/utils/Strings.sol\":1077:1078  0 */\n      0x00\n        /* \"@openzeppelin/contracts/utils/Strings.sol\":1068:1073  value */\n      dup6\n        /* \"@openzeppelin/contracts/utils/Strings.sol\":1068:1078  value == 0 */\n      sub\n        /* \"@openzeppelin/contracts/utils/Strings.sol\":820:1100  while (true) {... */\n      tag_128\n        /* \"@openzeppelin/contracts/utils/Strings.sol\":1064:1085  if (value == 0) break */\n      jumpi\n        /* \"@openzeppelin/contracts/utils/Strings.sol\":820:1100  while (true) {... */\n    tag_129:\n        /* \"@openzeppelin/contracts/utils/Strings.sol\":1120:1126  buffer */\n      dup2\n        /* \"@openzeppelin/contracts/utils/Strings.sol\":1113:1126  return buffer */\n      swap4\n      pop\n      pop\n      pop\n      pop\n        /* \"@openzeppelin/contracts/utils/Strings.sol\":447:1143  function toString(uint256 value) internal pure returns (string memory) {... */\n      swap2\n      swap1\n      pop\n      jump\t// out\n        /* \"@openzeppelin/contracts/utils/math/Math.sol\":10139:11055  function log10(uint256 value) internal pure returns (uint256) {... */\n    tag_123:\n        /* \"@openzeppelin/contracts/utils/math/Math.sol\":10192:10199  uint256 */\n      0x00\n        /* \"@openzeppelin/contracts/utils/math/Math.sol\":10211:10225  uint256 result */\n      dup1\n        /* \"@openzeppelin/contracts/utils/math/Math.sol\":10228:10229  0 */\n      0x00\n        /* \"@openzeppelin/contracts/utils/math/Math.sol\":10211:10229  uint256 result = 0 */\n      swap1\n      pop\n        /* \"@openzeppelin/contracts/utils/math/Math.sol\":10276:10284  10 ** 64 */\n      0x184f03e93ff9f4daa797ed6e38ed64bf6a1f010000000000000000\n        /* \"@openzeppelin/contracts/utils/math/Math.sol\":10267:10272  value */\n      dup4\n        /* \"@openzeppelin/contracts/utils/math/Math.sol\":10267:10284  value >= 10 ** 64 */\n      lt\n        /* \"@openzeppelin/contracts/utils/math/Math.sol\":10263:10366  if (value >= 10 ** 64) {... */\n      tag_135\n      jumpi\n        /* \"@openzeppelin/contracts/utils/math/Math.sol\":10313:10321  10 ** 64 */\n      0x184f03e93ff9f4daa797ed6e38ed64bf6a1f010000000000000000\n        /* \"@openzeppelin/contracts/utils/math/Math.sol\":10304:10321  value /= 10 ** 64 */\n      dup4\n      dup2\n      tag_136\n      jumpi\n      tag_137\n      tag_132\n      jump\t// in\n    tag_137:\n    tag_136:\n      div\n      swap3\n      pop\n        /* \"@openzeppelin/contracts/utils/math/Math.sol\":10349:10351  64 */\n      0x40\n        /* \"@openzeppelin/contracts/utils/math/Math.sol\":10339:10351  result += 64 */\n      dup2\n      add\n      swap1\n      pop\n        /* \"@openzeppelin/contracts/utils/math/Math.sol\":10263:10366  if (value >= 10 ** 64) {... */\n    tag_135:\n        /* \"@openzeppelin/contracts/utils/math/Math.sol\":10392:10400  10 ** 32 */\n      0x04ee2d6d415b85acef8100000000\n        /* \"@openzeppelin/contracts/utils/math/Math.sol\":10383:10388  value */\n      dup4\n        /* \"@openzeppelin/contracts/utils/math/Math.sol\":10383:10400  value >= 10 ** 32 */\n      lt\n        /* \"@openzeppelin/contracts/utils/math/Math.sol\":10379:10482  if (value >= 10 ** 32) {... */\n      tag_138\n      jumpi\n        /* \"@openzeppelin/contracts/utils/math/Math.sol\":10429:10437  10 ** 32 */\n      0x04ee2d6d415b85acef8100000000\n        /* \"@openzeppelin/contracts/utils/math/Math.sol\":10420:10437  value /= 10 ** 32 */\n      dup4\n      dup2\n      tag_139\n      jumpi\n      tag_140\n      tag_132\n      jump\t// in\n    tag_140:\n    tag_139:\n      div\n      swap3\n      pop\n        /* \"@openzeppelin/contracts/utils/math/Math.sol\":10465:10467  32 */\n      0x20\n        /* \"@openzeppelin/contracts/utils/math/Math.sol\":10455:10467  result += 32 */\n      dup2\n      add\n      swap1\n      pop\n        /* \"@openzeppelin/contracts/utils/math/Math.sol\":10379:10482  if (value >= 10 ** 32) {... */\n    tag_138:\n        /* \"@openzeppelin/contracts/utils/math/Math.sol\":10508:10516  10 ** 16 */\n      0x2386f26fc10000\n        /* \"@openzeppelin/contracts/utils/math/Math.sol\":10499:10504  value */\n      dup4\n        /* \"@openzeppelin/contracts/utils/math/Math.sol\":10499:10516  value >= 10 ** 16 */\n      lt\n        /* \"@openzeppelin/contracts/utils/math/Math.sol\":10495:10598  if (value >= 10 ** 16) {... */\n      tag_141\n      jumpi\n        /* \"@openzeppelin/contracts/utils/math/Math.sol\":10545:10553  10 ** 16 */\n      0x2386f26fc10000\n        /* \"@openzeppelin/contracts/utils/math/Math.sol\":10536:10553  value /= 10 ** 16 */\n      dup4\n      dup2\n      tag_142\n      jumpi\n      tag_143\n      tag_132\n      jump\t// in\n    tag_143:\n    tag_142:\n      div\n      swap3\n      pop\n        /* \"@openzeppelin/contracts/utils/math/Math.sol\":10581:10583  16 */\n      0x10\n        /* \"@openzeppelin/contracts/utils/math/Math.sol\":10571:10583  result += 16 */\n      dup2\n      add\n      swap1\n      pop\n        /* \"@openzeppelin/contracts/utils/math/Math.sol\":10495:10598  if (value >= 10 ** 16) {... */\n    tag_141:\n        /* \"@openzeppelin/contracts/utils/math/Math.sol\":10624:10631  10 ** 8 */\n      0x05f5e100\n        /* \"@openzeppelin/contracts/utils/math/Math.sol\":10615:10620  value */\n      dup4\n        /* \"@openzeppelin/contracts/utils/math/Math.sol\":10615:10631  value >= 10 ** 8 */\n      lt\n        /* \"@openzeppelin/contracts/utils/math/Math.sol\":10611:10711  if (value >= 10 ** 8) {... */\n      tag_144\n      jumpi\n        /* \"@openzeppelin/contracts/utils/math/Math.sol\":10660:10667  10 ** 8 */\n      0x05f5e100\n        /* \"@openzeppelin/contracts/utils/math/Math.sol\":10651:10667  value /= 10 ** 8 */\n      dup4\n      dup2\n      tag_145\n      jumpi\n      tag_146\n      tag_132\n      jump\t// in\n    tag_146:\n    tag_145:\n      div\n      swap3\n      pop\n        /* \"@openzeppelin/contracts/utils/math/Math.sol\":10695:10696  8 */\n      0x08\n        /* \"@openzeppelin/contracts/utils/math/Math.sol\":10685:10696  result += 8 */\n      dup2\n      add\n      swap1\n      pop\n        /* \"@openzeppelin/contracts/utils/math/Math.sol\":10611:10711  if (value >= 10 ** 8) {... */\n    tag_144:\n        /* \"@openzeppelin/contracts/utils/math/Math.sol\":10737:10744  10 ** 4 */\n      0x2710\n        /* \"@openzeppelin/contracts/utils/math/Math.sol\":10728:10733  value */\n      dup4\n        /* \"@openzeppelin/contracts/utils/math/Math.sol\":10728:10744  value >= 10 ** 4 */\n      lt\n        /* \"@openzeppelin/contracts/utils/math/Math.sol\":10724:10824  if (value >= 10 ** 4) {... */\n      tag_147\n      jumpi\n        /* \"@openzeppelin/contracts/utils/math/Math.sol\":10773:10780  10 ** 4 */\n      0x2710\n        /* \"@openzeppelin/contracts/utils/math/Math.sol\":10764:10780  value /= 10 ** 4 */\n      dup4\n      dup2\n      tag_148\n      jumpi\n      tag_149\n      tag_132\n      jump\t// in\n    tag_149:\n    tag_148:\n      div\n      swap3\n      pop\n        /* \"@openzeppelin/contracts/utils/math/Math.sol\":10808:10809  4 */\n      0x04\n        /* \"@openzeppelin/contracts/utils/math/Math.sol\":10798:10809  result += 4 */\n      dup2\n      add\n      swap1\n      pop\n        /* \"@openzeppelin/contracts/utils/math/Math.sol\":10724:10824  if (value >= 10 ** 4) {... */\n    tag_147:\n        /* \"@openzeppelin/contracts/utils/math/Math.sol\":10850:10857  10 ** 2 */\n      0x64\n        /* \"@openzeppelin/contracts/utils/math/Math.sol\":10841:10846  value */\n      dup4\n        /* \"@openzeppelin/contracts/utils/math/Math.sol\":10841:10857  value >= 10 ** 2 */\n      lt\n        /* \"@openzeppelin/contracts/utils/math/Math.sol\":10837:10937  if (value >= 10 ** 2) {... */\n      tag_150\n      jumpi\n        /* \"@openzeppelin/contracts/utils/math/Math.sol\":10886:10893  10 ** 2 */\n      0x64\n        /* \"@openzeppelin/contracts/utils/math/Math.sol\":10877:10893  value /= 10 ** 2 */\n      dup4\n      dup2\n      tag_151\n      jumpi\n      tag_152\n      tag_132\n      jump\t// in\n    tag_152:\n    tag_151:\n      div\n      swap3\n      pop\n        /* \"@openzeppelin/contracts/utils/math/Math.sol\":10921:10922  2 */\n      0x02\n        /* \"@openzeppelin/contracts/utils/math/Math.sol\":10911:10922  result += 2 */\n      dup2\n      add\n      swap1\n      pop\n        /* \"@openzeppelin/contracts/utils/math/Math.sol\":10837:10937  if (value >= 10 ** 2) {... */\n    tag_150:\n        /* \"@openzeppelin/contracts/utils/math/Math.sol\":10963:10970  10 ** 1 */\n      0x0a\n        /* \"@openzeppelin/contracts/utils/math/Math.sol\":10954:10959  value */\n      dup4\n        /* \"@openzeppelin/contracts/utils/math/Math.sol\":10954:10970  value >= 10 ** 1 */\n      lt\n        /* \"@openzeppelin/contracts/utils/math/Math.sol\":10950:11016  if (value >= 10 ** 1) {... */\n      tag_153\n      jumpi\n        /* \"@openzeppelin/contracts/utils/math/Math.sol\":11000:11001  1 */\n      0x01\n        /* \"@openzeppelin/contracts/utils/math/Math.sol\":10990:11001  result += 1 */\n      dup2\n      add\n      swap1\n      pop\n        /* \"@openzeppelin/contracts/utils/math/Math.sol\":10950:11016  if (value >= 10 ** 1) {... */\n    tag_153:\n        /* \"@openzeppelin/contracts/utils/math/Math.sol\":11042:11048  result */\n      dup1\n        /* \"@openzeppelin/contracts/utils/math/Math.sol\":11035:11048  return result */\n      swap2\n      pop\n      pop\n        /* \"@openzeppelin/contracts/utils/math/Math.sol\":10139:11055  function log10(uint256 value) internal pure returns (uint256) {... */\n      swap2\n      swap1\n      pop\n      jump\t// out\n    tag_113:\n      dup3\n      dup1\n      sload\n      dup3\n      dup3\n      sstore\n      swap1\n      0x00\n      mstore\n      keccak256(0x00, 0x20)\n      swap1\n      dup2\n      add\n      swap3\n      dup3\n      iszero\n      tag_154\n      jumpi\n      swap2\n      0x20\n      mul\n      dup3\n      add\n    tag_155:\n      dup3\n      dup2\n      gt\n      iszero\n      tag_156\n      jumpi\n      dup3\n      mload\n      dup3\n      sstore\n      swap2\n      0x20\n      add\n      swap2\n      swap1\n      0x01\n      add\n      swap1\n      jump(tag_155)\n    tag_156:\n    tag_154:\n      pop\n      swap1\n      pop\n      tag_157\n      swap2\n      swap1\n      tag_158\n      jump\t// in\n    tag_157:\n      pop\n      swap1\n      jump\t// out\n    tag_115:\n      dup3\n      dup1\n      sload\n      dup3\n      dup3\n      sstore\n      swap1\n      0x00\n      mstore\n      keccak256(0x00, 0x20)\n      swap1\n      dup2\n      add\n      swap3\n      dup3\n      iszero\n      tag_159\n      jumpi\n      swap2\n      0x20\n      mul\n      dup3\n      add\n    tag_160:\n      dup3\n      dup2\n      gt\n      iszero\n      tag_161\n      jumpi\n      dup3\n      mload\n      dup3\n      swap1\n      dup2\n      tag_162\n      swap2\n      swap1\n      tag_163\n      jump\t// in\n    tag_162:\n      pop\n      swap2\n      0x20\n      add\n      swap2\n      swap1\n      0x01\n      add\n      swap1\n      jump(tag_160)\n    tag_161:\n    tag_159:\n      pop\n      swap1\n      pop\n      tag_164\n      swap2\n      swap1\n      tag_165\n      jump\t// in\n    tag_164:\n      pop\n      swap1\n      jump\t// out\n    tag_158:\n    tag_166:\n      dup1\n      dup3\n      gt\n      iszero\n      tag_167\n      jumpi\n      0x00\n      dup2\n      0x00\n      swap1\n      sstore\n      pop\n      0x01\n      add\n      jump(tag_166)\n    tag_167:\n      pop\n      swap1\n      jump\t// out\n    tag_165:\n    tag_168:\n      dup1\n      dup3\n      gt\n      iszero\n      tag_169\n      jumpi\n      0x00\n      dup2\n      dup2\n      tag_170\n      swap2\n      swap1\n      tag_171\n      jump\t// in\n    tag_170:\n      pop\n      0x01\n      add\n      jump(tag_168)\n    tag_169:\n      pop\n      swap1\n      jump\t// out\n    tag_171:\n      pop\n      dup1\n      sload\n      tag_172\n      swap1\n      tag_67\n      jump\t// in\n    tag_172:\n      0x00\n      dup3\n      sstore\n      dup1\n      0x1f\n      lt\n      tag_174\n      jumpi\n      pop\n      jump(tag_173)\n    tag_174:\n      0x1f\n      add\n      0x20\n      swap1\n      div\n      swap1\n      0x00\n      mstore\n      keccak256(0x00, 0x20)\n      swap1\n      dup2\n      add\n      swap1\n      tag_175\n      swap2\n      swap1\n      tag_158\n      jump\t// in\n    tag_175:\n    tag_173:\n      pop\n      jump\t// out\n        /* \"#utility.yul\":7:82   */\n    tag_176:\n        /* \"#utility.yul\":40:46   */\n      0x00\n        /* \"#utility.yul\":73:75   */\n      0x40\n        /* \"#utility.yul\":67:76   */\n      mload\n        /* \"#utility.yul\":57:76   */\n      swap1\n      pop\n        /* \"#utility.yul\":7:82   */\n      swap1\n      jump\t// out\n        /* \"#utility.yul\":88:205   */\n    tag_177:\n        /* \"#utility.yul\":197:198   */\n      0x00\n        /* \"#utility.yul\":194:195   */\n      dup1\n        /* \"#utility.yul\":187:199   */\n      revert\n        /* \"#utility.yul\":211:328   */\n    tag_178:\n        /* \"#utility.yul\":320:321   */\n      0x00\n        /* \"#utility.yul\":317:318   */\n      dup1\n        /* \"#utility.yul\":310:322   */\n      revert\n        /* \"#utility.yul\":334:451   */\n    tag_179:\n        /* \"#utility.yul\":443:444   */\n      0x00\n        /* \"#utility.yul\":440:441   */\n      dup1\n        /* \"#utility.yul\":433:445   */\n      revert\n        /* \"#utility.yul\":457:574   */\n    tag_180:\n        /* \"#utility.yul\":566:567   */\n      0x00\n        /* \"#utility.yul\":563:564   */\n      dup1\n        /* \"#utility.yul\":556:568   */\n      revert\n        /* \"#utility.yul\":580:697   */\n    tag_181:\n        /* \"#utility.yul\":689:690   */\n      0x00\n        /* \"#utility.yul\":686:687   */\n      dup1\n        /* \"#utility.yul\":679:691   */\n      revert\n        /* \"#utility.yul\":719:1299   */\n    tag_182:\n        /* \"#utility.yul\":804:812   */\n      0x00\n        /* \"#utility.yul\":814:820   */\n      dup1\n        /* \"#utility.yul\":864:867   */\n      dup4\n        /* \"#utility.yul\":857:861   */\n      0x1f\n        /* \"#utility.yul\":849:855   */\n      dup5\n        /* \"#utility.yul\":845:862   */\n      add\n        /* \"#utility.yul\":841:868   */\n      slt\n        /* \"#utility.yul\":831:953   */\n      tag_240\n      jumpi\n        /* \"#utility.yul\":872:951   */\n      tag_241\n      tag_179\n      jump\t// in\n    tag_241:\n        /* \"#utility.yul\":831:953   */\n    tag_240:\n        /* \"#utility.yul\":985:991   */\n      dup3\n        /* \"#utility.yul\":972:992   */\n      calldataload\n        /* \"#utility.yul\":962:992   */\n      swap1\n      pop\n        /* \"#utility.yul\":1015:1033   */\n      0xffffffffffffffff\n        /* \"#utility.yul\":1007:1013   */\n      dup2\n        /* \"#utility.yul\":1004:1034   */\n      gt\n        /* \"#utility.yul\":1001:1118   */\n      iszero\n      tag_242\n      jumpi\n        /* \"#utility.yul\":1037:1116   */\n      tag_243\n      tag_180\n      jump\t// in\n    tag_243:\n        /* \"#utility.yul\":1001:1118   */\n    tag_242:\n        /* \"#utility.yul\":1151:1155   */\n      0x20\n        /* \"#utility.yul\":1143:1149   */\n      dup4\n        /* \"#utility.yul\":1139:1156   */\n      add\n        /* \"#utility.yul\":1127:1156   */\n      swap2\n      pop\n        /* \"#utility.yul\":1205:1208   */\n      dup4\n        /* \"#utility.yul\":1197:1201   */\n      0x20\n        /* \"#utility.yul\":1189:1195   */\n      dup3\n        /* \"#utility.yul\":1185:1202   */\n      mul\n        /* \"#utility.yul\":1175:1183   */\n      dup4\n        /* \"#utility.yul\":1171:1203   */\n      add\n        /* \"#utility.yul\":1168:1209   */\n      gt\n        /* \"#utility.yul\":1165:1293   */\n      iszero\n      tag_244\n      jumpi\n        /* \"#utility.yul\":1212:1291   */\n      tag_245\n      tag_181\n      jump\t// in\n    tag_245:\n        /* \"#utility.yul\":1165:1293   */\n    tag_244:\n        /* \"#utility.yul\":719:1299   */\n      swap3\n      pop\n      swap3\n      swap1\n      pop\n      jump\t// out\n        /* \"#utility.yul\":1305:1888   */\n    tag_14:\n        /* \"#utility.yul\":1403:1409   */\n      0x00\n        /* \"#utility.yul\":1411:1417   */\n      dup1\n        /* \"#utility.yul\":1460:1462   */\n      0x20\n        /* \"#utility.yul\":1448:1457   */\n      dup4\n        /* \"#utility.yul\":1439:1446   */\n      dup6\n        /* \"#utility.yul\":1435:1458   */\n      sub\n        /* \"#utility.yul\":1431:1463   */\n      slt\n        /* \"#utility.yul\":1428:1547   */\n      iszero\n      tag_247\n      jumpi\n        /* \"#utility.yul\":1466:1545   */\n      tag_248\n      tag_177\n      jump\t// in\n    tag_248:\n        /* \"#utility.yul\":1428:1547   */\n    tag_247:\n        /* \"#utility.yul\":1614:1615   */\n      0x00\n        /* \"#utility.yul\":1603:1612   */\n      dup4\n        /* \"#utility.yul\":1599:1616   */\n      add\n        /* \"#utility.yul\":1586:1617   */\n      calldataload\n        /* \"#utility.yul\":1644:1662   */\n      0xffffffffffffffff\n        /* \"#utility.yul\":1636:1642   */\n      dup2\n        /* \"#utility.yul\":1633:1663   */\n      gt\n        /* \"#utility.yul\":1630:1747   */\n      iszero\n      tag_249\n      jumpi\n        /* \"#utility.yul\":1666:1745   */\n      tag_250\n      tag_178\n      jump\t// in\n    tag_250:\n        /* \"#utility.yul\":1630:1747   */\n    tag_249:\n        /* \"#utility.yul\":1779:1871   */\n      tag_251\n        /* \"#utility.yul\":1863:1870   */\n      dup6\n        /* \"#utility.yul\":1854:1860   */\n      dup3\n        /* \"#utility.yul\":1843:1852   */\n      dup7\n        /* \"#utility.yul\":1839:1861   */\n      add\n        /* \"#utility.yul\":1779:1871   */\n      tag_182\n      jump\t// in\n    tag_251:\n        /* \"#utility.yul\":1761:1871   */\n      swap3\n      pop\n      swap3\n      pop\n        /* \"#utility.yul\":1557:1881   */\n      pop\n        /* \"#utility.yul\":1305:1888   */\n      swap3\n      pop\n      swap3\n      swap1\n      pop\n      jump\t// out\n        /* \"#utility.yul\":1894:1971   */\n    tag_183:\n        /* \"#utility.yul\":1931:1938   */\n      0x00\n        /* \"#utility.yul\":1960:1965   */\n      dup2\n        /* \"#utility.yul\":1949:1965   */\n      swap1\n      pop\n        /* \"#utility.yul\":1894:1971   */\n      swap2\n      swap1\n      pop\n      jump\t// out\n        /* \"#utility.yul\":1977:2095   */\n    tag_184:\n        /* \"#utility.yul\":2064:2088   */\n      tag_254\n        /* \"#utility.yul\":2082:2087   */\n      dup2\n        /* \"#utility.yul\":2064:2088   */\n      tag_183\n      jump\t// in\n    tag_254:\n        /* \"#utility.yul\":2059:2062   */\n      dup3\n        /* \"#utility.yul\":2052:2089   */\n      mstore\n        /* \"#utility.yul\":1977:2095   */\n      pop\n      pop\n      jump\t// out\n        /* \"#utility.yul\":2101:2323   */\n    tag_17:\n        /* \"#utility.yul\":2194:2198   */\n      0x00\n        /* \"#utility.yul\":2232:2234   */\n      0x20\n        /* \"#utility.yul\":2221:2230   */\n      dup3\n        /* \"#utility.yul\":2217:2235   */\n      add\n        /* \"#utility.yul\":2209:2235   */\n      swap1\n      pop\n        /* \"#utility.yul\":2245:2316   */\n      tag_256\n        /* \"#utility.yul\":2313:2314   */\n      0x00\n        /* \"#utility.yul\":2302:2311   */\n      dup4\n        /* \"#utility.yul\":2298:2315   */\n      add\n        /* \"#utility.yul\":2289:2295   */\n      dup5\n        /* \"#utility.yul\":2245:2316   */\n      tag_184\n      jump\t// in\n    tag_256:\n        /* \"#utility.yul\":2101:2323   */\n      swap3\n      swap2\n      pop\n      pop\n      jump\t// out\n        /* \"#utility.yul\":2346:2914   */\n    tag_185:\n        /* \"#utility.yul\":2419:2427   */\n      0x00\n        /* \"#utility.yul\":2429:2435   */\n      dup1\n        /* \"#utility.yul\":2479:2482   */\n      dup4\n        /* \"#utility.yul\":2472:2476   */\n      0x1f\n        /* \"#utility.yul\":2464:2470   */\n      dup5\n        /* \"#utility.yul\":2460:2477   */\n      add\n        /* \"#utility.yul\":2456:2483   */\n      slt\n        /* \"#utility.yul\":2446:2568   */\n      tag_258\n      jumpi\n        /* \"#utility.yul\":2487:2566   */\n      tag_259\n      tag_179\n      jump\t// in\n    tag_259:\n        /* \"#utility.yul\":2446:2568   */\n    tag_258:\n        /* \"#utility.yul\":2600:2606   */\n      dup3\n        /* \"#utility.yul\":2587:2607   */\n      calldataload\n        /* \"#utility.yul\":2577:2607   */\n      swap1\n      pop\n        /* \"#utility.yul\":2630:2648   */\n      0xffffffffffffffff\n        /* \"#utility.yul\":2622:2628   */\n      dup2\n        /* \"#utility.yul\":2619:2649   */\n      gt\n        /* \"#utility.yul\":2616:2733   */\n      iszero\n      tag_260\n      jumpi\n        /* \"#utility.yul\":2652:2731   */\n      tag_261\n      tag_180\n      jump\t// in\n    tag_261:\n        /* \"#utility.yul\":2616:2733   */\n    tag_260:\n        /* \"#utility.yul\":2766:2770   */\n      0x20\n        /* \"#utility.yul\":2758:2764   */\n      dup4\n        /* \"#utility.yul\":2754:2771   */\n      add\n        /* \"#utility.yul\":2742:2771   */\n      swap2\n      pop\n        /* \"#utility.yul\":2820:2823   */\n      dup4\n        /* \"#utility.yul\":2812:2816   */\n      0x20\n        /* \"#utility.yul\":2804:2810   */\n      dup3\n        /* \"#utility.yul\":2800:2817   */\n      mul\n        /* \"#utility.yul\":2790:2798   */\n      dup4\n        /* \"#utility.yul\":2786:2818   */\n      add\n        /* \"#utility.yul\":2783:2824   */\n      gt\n        /* \"#utility.yul\":2780:2908   */\n      iszero\n      tag_262\n      jumpi\n        /* \"#utility.yul\":2827:2906   */\n      tag_263\n      tag_181\n      jump\t// in\n    tag_263:\n        /* \"#utility.yul\":2780:2908   */\n    tag_262:\n        /* \"#utility.yul\":2346:2914   */\n      swap3\n      pop\n      swap3\n      swap1\n      pop\n      jump\t// out\n        /* \"#utility.yul\":2920:3479   */\n    tag_21:\n        /* \"#utility.yul\":3006:3012   */\n      0x00\n        /* \"#utility.yul\":3014:3020   */\n      dup1\n        /* \"#utility.yul\":3063:3065   */\n      0x20\n        /* \"#utility.yul\":3051:3060   */\n      dup4\n        /* \"#utility.yul\":3042:3049   */\n      dup6\n        /* \"#utility.yul\":3038:3061   */\n      sub\n        /* \"#utility.yul\":3034:3066   */\n      slt\n        /* \"#utility.yul\":3031:3150   */\n      iszero\n      tag_265\n      jumpi\n        /* \"#utility.yul\":3069:3148   */\n      tag_266\n      tag_177\n      jump\t// in\n    tag_266:\n        /* \"#utility.yul\":3031:3150   */\n    tag_265:\n        /* \"#utility.yul\":3217:3218   */\n      0x00\n        /* \"#utility.yul\":3206:3215   */\n      dup4\n        /* \"#utility.yul\":3202:3219   */\n      add\n        /* \"#utility.yul\":3189:3220   */\n      calldataload\n        /* \"#utility.yul\":3247:3265   */\n      0xffffffffffffffff\n        /* \"#utility.yul\":3239:3245   */\n      dup2\n        /* \"#utility.yul\":3236:3266   */\n      gt\n        /* \"#utility.yul\":3233:3350   */\n      iszero\n      tag_267\n      jumpi\n        /* \"#utility.yul\":3269:3348   */\n      tag_268\n      tag_178\n      jump\t// in\n    tag_268:\n        /* \"#utility.yul\":3233:3350   */\n    tag_267:\n        /* \"#utility.yul\":3382:3462   */\n      tag_269\n        /* \"#utility.yul\":3454:3461   */\n      dup6\n        /* \"#utility.yul\":3445:3451   */\n      dup3\n        /* \"#utility.yul\":3434:3443   */\n      dup7\n        /* \"#utility.yul\":3430:3452   */\n      add\n        /* \"#utility.yul\":3382:3462   */\n      tag_185\n      jump\t// in\n    tag_269:\n        /* \"#utility.yul\":3364:3462   */\n      swap3\n      pop\n      swap3\n      pop\n        /* \"#utility.yul\":3160:3472   */\n      pop\n        /* \"#utility.yul\":2920:3479   */\n      swap3\n      pop\n      swap3\n      swap1\n      pop\n      jump\t// out\n        /* \"#utility.yul\":3485:3602   */\n    tag_186:\n        /* \"#utility.yul\":3594:3595   */\n      0x00\n        /* \"#utility.yul\":3591:3592   */\n      dup1\n        /* \"#utility.yul\":3584:3596   */\n      revert\n        /* \"#utility.yul\":3608:3710   */\n    tag_187:\n        /* \"#utility.yul\":3649:3655   */\n      0x00\n        /* \"#utility.yul\":3700:3702   */\n      0x1f\n        /* \"#utility.yul\":3696:3703   */\n      not\n        /* \"#utility.yul\":3691:3693   */\n      0x1f\n        /* \"#utility.yul\":3684:3689   */\n      dup4\n        /* \"#utility.yul\":3680:3694   */\n      add\n        /* \"#utility.yul\":3676:3704   */\n      and\n        /* \"#utility.yul\":3666:3704   */\n      swap1\n      pop\n        /* \"#utility.yul\":3608:3710   */\n      swap2\n      swap1\n      pop\n      jump\t// out\n        /* \"#utility.yul\":3716:3896   */\n    tag_126:\n        /* \"#utility.yul\":3764:3841   */\n      0x4e487b7100000000000000000000000000000000000000000000000000000000\n        /* \"#utility.yul\":3761:3762   */\n      0x00\n        /* \"#utility.yul\":3754:3842   */\n      mstore\n        /* \"#utility.yul\":3861:3865   */\n      0x41\n        /* \"#utility.yul\":3858:3859   */\n      0x04\n        /* \"#utility.yul\":3851:3866   */\n      mstore\n        /* \"#utility.yul\":3885:3889   */\n      0x24\n        /* \"#utility.yul\":3882:3883   */\n      0x00\n        /* \"#utility.yul\":3875:3890   */\n      revert\n        /* \"#utility.yul\":3902:4183   */\n    tag_188:\n        /* \"#utility.yul\":3985:4012   */\n      tag_274\n        /* \"#utility.yul\":4007:4011   */\n      dup3\n        /* \"#utility.yul\":3985:4012   */\n      tag_187\n      jump\t// in\n    tag_274:\n        /* \"#utility.yul\":3977:3983   */\n      dup2\n        /* \"#utility.yul\":3973:4013   */\n      add\n        /* \"#utility.yul\":4115:4121   */\n      dup2\n        /* \"#utility.yul\":4103:4113   */\n      dup2\n        /* \"#utility.yul\":4100:4122   */\n      lt\n        /* \"#utility.yul\":4079:4097   */\n      0xffffffffffffffff\n        /* \"#utility.yul\":4067:4077   */\n      dup3\n        /* \"#utility.yul\":4064:4098   */\n      gt\n        /* \"#utility.yul\":4061:4123   */\n      or\n        /* \"#utility.yul\":4058:4146   */\n      iszero\n      tag_275\n      jumpi\n        /* \"#utility.yul\":4126:4144   */\n      tag_276\n      tag_126\n      jump\t// in\n    tag_276:\n        /* \"#utility.yul\":4058:4146   */\n    tag_275:\n        /* \"#utility.yul\":4166:4176   */\n      dup1\n        /* \"#utility.yul\":4162:4164   */\n      0x40\n        /* \"#utility.yul\":4155:4177   */\n      mstore\n        /* \"#utility.yul\":3945:4183   */\n      pop\n        /* \"#utility.yul\":3902:4183   */\n      pop\n      pop\n      jump\t// out\n        /* \"#utility.yul\":4189:4318   */\n    tag_189:\n        /* \"#utility.yul\":4223:4229   */\n      0x00\n        /* \"#utility.yul\":4250:4270   */\n      tag_278\n      tag_176\n      jump\t// in\n    tag_278:\n        /* \"#utility.yul\":4240:4270   */\n      swap1\n      pop\n        /* \"#utility.yul\":4279:4312   */\n      tag_279\n        /* \"#utility.yul\":4307:4311   */\n      dup3\n        /* \"#utility.yul\":4299:4305   */\n      dup3\n        /* \"#utility.yul\":4279:4312   */\n      tag_188\n      jump\t// in\n    tag_279:\n        /* \"#utility.yul\":4189:4318   */\n      swap2\n      swap1\n      pop\n      jump\t// out\n        /* \"#utility.yul\":4324:4632   */\n    tag_190:\n        /* \"#utility.yul\":4386:4390   */\n      0x00\n        /* \"#utility.yul\":4476:4494   */\n      0xffffffffffffffff\n        /* \"#utility.yul\":4468:4474   */\n      dup3\n        /* \"#utility.yul\":4465:4495   */\n      gt\n        /* \"#utility.yul\":4462:4518   */\n      iszero\n      tag_281\n      jumpi\n        /* \"#utility.yul\":4498:4516   */\n      tag_282\n      tag_126\n      jump\t// in\n    tag_282:\n        /* \"#utility.yul\":4462:4518   */\n    tag_281:\n        /* \"#utility.yul\":4536:4565   */\n      tag_283\n        /* \"#utility.yul\":4558:4564   */\n      dup3\n        /* \"#utility.yul\":4536:4565   */\n      tag_187\n      jump\t// in\n    tag_283:\n        /* \"#utility.yul\":4528:4565   */\n      swap1\n      pop\n        /* \"#utility.yul\":4620:4624   */\n      0x20\n        /* \"#utility.yul\":4614:4618   */\n      dup2\n        /* \"#utility.yul\":4610:4625   */\n      add\n        /* \"#utility.yul\":4602:4625   */\n      swap1\n      pop\n        /* \"#utility.yul\":4324:4632   */\n      swap2\n      swap1\n      pop\n      jump\t// out\n        /* \"#utility.yul\":4638:4784   */\n    tag_191:\n        /* \"#utility.yul\":4735:4741   */\n      dup3\n        /* \"#utility.yul\":4730:4733   */\n      dup2\n        /* \"#utility.yul\":4725:4728   */\n      dup4\n        /* \"#utility.yul\":4712:4742   */\n      calldatacopy\n        /* \"#utility.yul\":4776:4777   */\n      0x00\n        /* \"#utility.yul\":4767:4773   */\n      dup4\n        /* \"#utility.yul\":4762:4765   */\n      dup4\n        /* \"#utility.yul\":4758:4774   */\n      add\n        /* \"#utility.yul\":4751:4778   */\n      mstore\n        /* \"#utility.yul\":4638:4784   */\n      pop\n      pop\n      pop\n      jump\t// out\n        /* \"#utility.yul\":4790:5215   */\n    tag_192:\n        /* \"#utility.yul\":4868:4873   */\n      0x00\n        /* \"#utility.yul\":4893:4959   */\n      tag_286\n        /* \"#utility.yul\":4909:4958   */\n      tag_287\n        /* \"#utility.yul\":4951:4957   */\n      dup5\n        /* \"#utility.yul\":4909:4958   */\n      tag_190\n      jump\t// in\n    tag_287:\n        /* \"#utility.yul\":4893:4959   */\n      tag_189\n      jump\t// in\n    tag_286:\n        /* \"#utility.yul\":4884:4959   */\n      swap1\n      pop\n        /* \"#utility.yul\":4982:4988   */\n      dup3\n        /* \"#utility.yul\":4975:4980   */\n      dup2\n        /* \"#utility.yul\":4968:4989   */\n      mstore\n        /* \"#utility.yul\":5020:5024   */\n      0x20\n        /* \"#utility.yul\":5013:5018   */\n      dup2\n        /* \"#utility.yul\":5009:5025   */\n      add\n        /* \"#utility.yul\":5058:5061   */\n      dup5\n        /* \"#utility.yul\":5049:5055   */\n      dup5\n        /* \"#utility.yul\":5044:5047   */\n      dup5\n        /* \"#utility.yul\":5040:5056   */\n      add\n        /* \"#utility.yul\":5037:5062   */\n      gt\n        /* \"#utility.yul\":5034:5146   */\n      iszero\n      tag_288\n      jumpi\n        /* \"#utility.yul\":5065:5144   */\n      tag_289\n      tag_186\n      jump\t// in\n    tag_289:\n        /* \"#utility.yul\":5034:5146   */\n    tag_288:\n        /* \"#utility.yul\":5155:5209   */\n      tag_290\n        /* \"#utility.yul\":5202:5208   */\n      dup5\n        /* \"#utility.yul\":5197:5200   */\n      dup3\n        /* \"#utility.yul\":5192:5195   */\n      dup6\n        /* \"#utility.yul\":5155:5209   */\n      tag_191\n      jump\t// in\n    tag_290:\n        /* \"#utility.yul\":4874:5215   */\n      pop\n        /* \"#utility.yul\":4790:5215   */\n      swap4\n      swap3\n      pop\n      pop\n      pop\n      jump\t// out\n        /* \"#utility.yul\":5235:5575   */\n    tag_193:\n        /* \"#utility.yul\":5291:5296   */\n      0x00\n        /* \"#utility.yul\":5340:5343   */\n      dup3\n        /* \"#utility.yul\":5333:5337   */\n      0x1f\n        /* \"#utility.yul\":5325:5331   */\n      dup4\n        /* \"#utility.yul\":5321:5338   */\n      add\n        /* \"#utility.yul\":5317:5344   */\n      slt\n        /* \"#utility.yul\":5307:5429   */\n      tag_292\n      jumpi\n        /* \"#utility.yul\":5348:5427   */\n      tag_293\n      tag_179\n      jump\t// in\n    tag_293:\n        /* \"#utility.yul\":5307:5429   */\n    tag_292:\n        /* \"#utility.yul\":5465:5471   */\n      dup2\n        /* \"#utility.yul\":5452:5472   */\n      calldataload\n        /* \"#utility.yul\":5490:5569   */\n      tag_294\n        /* \"#utility.yul\":5565:5568   */\n      dup5\n        /* \"#utility.yul\":5557:5563   */\n      dup3\n        /* \"#utility.yul\":5550:5554   */\n      0x20\n        /* \"#utility.yul\":5542:5548   */\n      dup7\n        /* \"#utility.yul\":5538:5555   */\n      add\n        /* \"#utility.yul\":5490:5569   */\n      tag_192\n      jump\t// in\n    tag_294:\n        /* \"#utility.yul\":5481:5569   */\n      swap2\n      pop\n        /* \"#utility.yul\":5297:5575   */\n      pop\n        /* \"#utility.yul\":5235:5575   */\n      swap3\n      swap2\n      pop\n      pop\n      jump\t// out\n        /* \"#utility.yul\":5595:6148   */\n    tag_194:\n        /* \"#utility.yul\":5653:5661   */\n      0x00\n        /* \"#utility.yul\":5663:5669   */\n      dup1\n        /* \"#utility.yul\":5713:5716   */\n      dup4\n        /* \"#utility.yul\":5706:5710   */\n      0x1f\n        /* \"#utility.yul\":5698:5704   */\n      dup5\n        /* \"#utility.yul\":5694:5711   */\n      add\n        /* \"#utility.yul\":5690:5717   */\n      slt\n        /* \"#utility.yul\":5680:5802   */\n      tag_296\n      jumpi\n        /* \"#utility.yul\":5721:5800   */\n      tag_297\n      tag_179\n      jump\t// in\n    tag_297:\n        /* \"#utility.yul\":5680:5802   */\n    tag_296:\n        /* \"#utility.yul\":5834:5840   */\n      dup3\n        /* \"#utility.yul\":5821:5841   */\n      calldataload\n        /* \"#utility.yul\":5811:5841   */\n      swap1\n      pop\n        /* \"#utility.yul\":5864:5882   */\n      0xffffffffffffffff\n        /* \"#utility.yul\":5856:5862   */\n      dup2\n        /* \"#utility.yul\":5853:5883   */\n      gt\n        /* \"#utility.yul\":5850:5967   */\n      iszero\n      tag_298\n      jumpi\n        /* \"#utility.yul\":5886:5965   */\n      tag_299\n      tag_180\n      jump\t// in\n    tag_299:\n        /* \"#utility.yul\":5850:5967   */\n    tag_298:\n        /* \"#utility.yul\":6000:6004   */\n      0x20\n        /* \"#utility.yul\":5992:5998   */\n      dup4\n        /* \"#utility.yul\":5988:6005   */\n      add\n        /* \"#utility.yul\":5976:6005   */\n      swap2\n      pop\n        /* \"#utility.yul\":6054:6057   */\n      dup4\n        /* \"#utility.yul\":6046:6050   */\n      0x01\n        /* \"#utility.yul\":6038:6044   */\n      dup3\n        /* \"#utility.yul\":6034:6051   */\n      mul\n        /* \"#utility.yul\":6024:6032   */\n      dup4\n        /* \"#utility.yul\":6020:6052   */\n      add\n        /* \"#utility.yul\":6017:6058   */\n      gt\n        /* \"#utility.yul\":6014:6142   */\n      iszero\n      tag_300\n      jumpi\n        /* \"#utility.yul\":6061:6140   */\n      tag_301\n      tag_181\n      jump\t// in\n    tag_301:\n        /* \"#utility.yul\":6014:6142   */\n    tag_300:\n        /* \"#utility.yul\":5595:6148   */\n      swap3\n      pop\n      swap3\n      swap1\n      pop\n      jump\t// out\n        /* \"#utility.yul\":6154:7008   */\n    tag_27:\n        /* \"#utility.yul\":6244:6250   */\n      0x00\n        /* \"#utility.yul\":6252:6258   */\n      dup1\n        /* \"#utility.yul\":6260:6266   */\n      0x00\n        /* \"#utility.yul\":6309:6311   */\n      0x40\n        /* \"#utility.yul\":6297:6306   */\n      dup5\n        /* \"#utility.yul\":6288:6295   */\n      dup7\n        /* \"#utility.yul\":6284:6307   */\n      sub\n        /* \"#utility.yul\":6280:6312   */\n      slt\n        /* \"#utility.yul\":6277:6396   */\n      iszero\n      tag_303\n      jumpi\n        /* \"#utility.yul\":6315:6394   */\n      tag_304\n      tag_177\n      jump\t// in\n    tag_304:\n        /* \"#utility.yul\":6277:6396   */\n    tag_303:\n        /* \"#utility.yul\":6463:6464   */\n      0x00\n        /* \"#utility.yul\":6452:6461   */\n      dup5\n        /* \"#utility.yul\":6448:6465   */\n      add\n        /* \"#utility.yul\":6435:6466   */\n      calldataload\n        /* \"#utility.yul\":6493:6511   */\n      0xffffffffffffffff\n        /* \"#utility.yul\":6485:6491   */\n      dup2\n        /* \"#utility.yul\":6482:6512   */\n      gt\n        /* \"#utility.yul\":6479:6596   */\n      iszero\n      tag_305\n      jumpi\n        /* \"#utility.yul\":6515:6594   */\n      tag_306\n      tag_178\n      jump\t// in\n    tag_306:\n        /* \"#utility.yul\":6479:6596   */\n    tag_305:\n        /* \"#utility.yul\":6620:6683   */\n      tag_307\n        /* \"#utility.yul\":6675:6682   */\n      dup7\n        /* \"#utility.yul\":6666:6672   */\n      dup3\n        /* \"#utility.yul\":6655:6664   */\n      dup8\n        /* \"#utility.yul\":6651:6673   */\n      add\n        /* \"#utility.yul\":6620:6683   */\n      tag_193\n      jump\t// in\n    tag_307:\n        /* \"#utility.yul\":6610:6683   */\n      swap4\n      pop\n        /* \"#utility.yul\":6406:6693   */\n      pop\n        /* \"#utility.yul\":6760:6762   */\n      0x20\n        /* \"#utility.yul\":6749:6758   */\n      dup5\n        /* \"#utility.yul\":6745:6763   */\n      add\n        /* \"#utility.yul\":6732:6764   */\n      calldataload\n        /* \"#utility.yul\":6791:6809   */\n      0xffffffffffffffff\n        /* \"#utility.yul\":6783:6789   */\n      dup2\n        /* \"#utility.yul\":6780:6810   */\n      gt\n        /* \"#utility.yul\":6777:6894   */\n      iszero\n      tag_308\n      jumpi\n        /* \"#utility.yul\":6813:6892   */\n      tag_309\n      tag_178\n      jump\t// in\n    tag_309:\n        /* \"#utility.yul\":6777:6894   */\n    tag_308:\n        /* \"#utility.yul\":6926:6991   */\n      tag_310\n        /* \"#utility.yul\":6983:6990   */\n      dup7\n        /* \"#utility.yul\":6974:6980   */\n      dup3\n        /* \"#utility.yul\":6963:6972   */\n      dup8\n        /* \"#utility.yul\":6959:6981   */\n      add\n        /* \"#utility.yul\":6926:6991   */\n      tag_194\n      jump\t// in\n    tag_310:\n        /* \"#utility.yul\":6908:6991   */\n      swap3\n      pop\n      swap3\n      pop\n        /* \"#utility.yul\":6703:7001   */\n      pop\n        /* \"#utility.yul\":6154:7008   */\n      swap3\n      pop\n      swap3\n      pop\n      swap3\n      jump\t// out\n        /* \"#utility.yul\":7014:7104   */\n    tag_195:\n        /* \"#utility.yul\":7048:7055   */\n      0x00\n        /* \"#utility.yul\":7091:7096   */\n      dup2\n        /* \"#utility.yul\":7084:7097   */\n      iszero\n        /* \"#utility.yul\":7077:7098   */\n      iszero\n        /* \"#utility.yul\":7066:7098   */\n      swap1\n      pop\n        /* \"#utility.yul\":7014:7104   */\n      swap2\n      swap1\n      pop\n      jump\t// out\n        /* \"#utility.yul\":7110:7219   */\n    tag_196:\n        /* \"#utility.yul\":7191:7212   */\n      tag_313\n        /* \"#utility.yul\":7206:7211   */\n      dup2\n        /* \"#utility.yul\":7191:7212   */\n      tag_195\n      jump\t// in\n    tag_313:\n        /* \"#utility.yul\":7186:7189   */\n      dup3\n        /* \"#utility.yul\":7179:7213   */\n      mstore\n        /* \"#utility.yul\":7110:7219   */\n      pop\n      pop\n      jump\t// out\n        /* \"#utility.yul\":7225:7435   */\n    tag_30:\n        /* \"#utility.yul\":7312:7316   */\n      0x00\n        /* \"#utility.yul\":7350:7352   */\n      0x20\n        /* \"#utility.yul\":7339:7348   */\n      dup3\n        /* \"#utility.yul\":7335:7353   */\n      add\n        /* \"#utility.yul\":7327:7353   */\n      swap1\n      pop\n        /* \"#utility.yul\":7363:7428   */\n      tag_315\n        /* \"#utility.yul\":7425:7426   */\n      0x00\n        /* \"#utility.yul\":7414:7423   */\n      dup4\n        /* \"#utility.yul\":7410:7427   */\n      add\n        /* \"#utility.yul\":7401:7407   */\n      dup5\n        /* \"#utility.yul\":7363:7428   */\n      tag_196\n      jump\t// in\n    tag_315:\n        /* \"#utility.yul\":7225:7435   */\n      swap3\n      swap2\n      pop\n      pop\n      jump\t// out\n        /* \"#utility.yul\":7441:7563   */\n    tag_197:\n        /* \"#utility.yul\":7514:7538   */\n      tag_317\n        /* \"#utility.yul\":7532:7537   */\n      dup2\n        /* \"#utility.yul\":7514:7538   */\n      tag_183\n      jump\t// in\n    tag_317:\n        /* \"#utility.yul\":7507:7512   */\n      dup2\n        /* \"#utility.yul\":7504:7539   */\n      eq\n        /* \"#utility.yul\":7494:7557   */\n      tag_318\n      jumpi\n        /* \"#utility.yul\":7553:7554   */\n      0x00\n        /* \"#utility.yul\":7550:7551   */\n      dup1\n        /* \"#utility.yul\":7543:7555   */\n      revert\n        /* \"#utility.yul\":7494:7557   */\n    tag_318:\n        /* \"#utility.yul\":7441:7563   */\n      pop\n      jump\t// out\n        /* \"#utility.yul\":7569:7708   */\n    tag_198:\n        /* \"#utility.yul\":7615:7620   */\n      0x00\n        /* \"#utility.yul\":7653:7659   */\n      dup2\n        /* \"#utility.yul\":7640:7660   */\n      calldataload\n        /* \"#utility.yul\":7631:7660   */\n      swap1\n      pop\n        /* \"#utility.yul\":7669:7702   */\n      tag_320\n        /* \"#utility.yul\":7696:7701   */\n      dup2\n        /* \"#utility.yul\":7669:7702   */\n      tag_197\n      jump\t// in\n    tag_320:\n        /* \"#utility.yul\":7569:7708   */\n      swap3\n      swap2\n      pop\n      pop\n      jump\t// out\n        /* \"#utility.yul\":7714:8043   */\n    tag_34:\n        /* \"#utility.yul\":7773:7779   */\n      0x00\n        /* \"#utility.yul\":7822:7824   */\n      0x20\n        /* \"#utility.yul\":7810:7819   */\n      dup3\n        /* \"#utility.yul\":7801:7808   */\n      dup5\n        /* \"#utility.yul\":7797:7820   */\n      sub\n        /* \"#utility.yul\":7793:7825   */\n      slt\n        /* \"#utility.yul\":7790:7909   */\n      iszero\n      tag_322\n      jumpi\n        /* \"#utility.yul\":7828:7907   */\n      tag_323\n      tag_177\n      jump\t// in\n    tag_323:\n        /* \"#utility.yul\":7790:7909   */\n    tag_322:\n        /* \"#utility.yul\":7948:7949   */\n      0x00\n        /* \"#utility.yul\":7973:8026   */\n      tag_324\n        /* \"#utility.yul\":8018:8025   */\n      dup5\n        /* \"#utility.yul\":8009:8015   */\n      dup3\n        /* \"#utility.yul\":7998:8007   */\n      dup6\n        /* \"#utility.yul\":7994:8016   */\n      add\n        /* \"#utility.yul\":7973:8026   */\n      tag_198\n      jump\t// in\n    tag_324:\n        /* \"#utility.yul\":7963:8026   */\n      swap2\n      pop\n        /* \"#utility.yul\":7919:8036   */\n      pop\n        /* \"#utility.yul\":7714:8043   */\n      swap3\n      swap2\n      pop\n      pop\n      jump\t// out\n        /* \"#utility.yul\":8049:8148   */\n    tag_199:\n        /* \"#utility.yul\":8101:8107   */\n      0x00\n        /* \"#utility.yul\":8135:8140   */\n      dup2\n        /* \"#utility.yul\":8129:8141   */\n      mload\n        /* \"#utility.yul\":8119:8141   */\n      swap1\n      pop\n        /* \"#utility.yul\":8049:8148   */\n      swap2\n      swap1\n      pop\n      jump\t// out\n        /* \"#utility.yul\":8154:8323   */\n    tag_200:\n        /* \"#utility.yul\":8238:8249   */\n      0x00\n        /* \"#utility.yul\":8272:8278   */\n      dup3\n        /* \"#utility.yul\":8267:8270   */\n      dup3\n        /* \"#utility.yul\":8260:8279   */\n      mstore\n        /* \"#utility.yul\":8312:8316   */\n      0x20\n        /* \"#utility.yul\":8307:8310   */\n      dup3\n        /* \"#utility.yul\":8303:8317   */\n      add\n        /* \"#utility.yul\":8288:8317   */\n      swap1\n      pop\n        /* \"#utility.yul\":8154:8323   */\n      swap3\n      swap2\n      pop\n      pop\n      jump\t// out\n        /* \"#utility.yul\":8329:8575   */\n    tag_201:\n        /* \"#utility.yul\":8410:8411   */\n      0x00\n        /* \"#utility.yul\":8420:8533   */\n    tag_328:\n        /* \"#utility.yul\":8434:8440   */\n      dup4\n        /* \"#utility.yul\":8431:8432   */\n      dup2\n        /* \"#utility.yul\":8428:8441   */\n      lt\n        /* \"#utility.yul\":8420:8533   */\n      iszero\n      tag_330\n      jumpi\n        /* \"#utility.yul\":8519:8520   */\n      dup1\n        /* \"#utility.yul\":8514:8517   */\n      dup3\n        /* \"#utility.yul\":8510:8521   */\n      add\n        /* \"#utility.yul\":8504:8522   */\n      mload\n        /* \"#utility.yul\":8500:8501   */\n      dup2\n        /* \"#utility.yul\":8495:8498   */\n      dup5\n        /* \"#utility.yul\":8491:8502   */\n      add\n        /* \"#utility.yul\":8484:8523   */\n      mstore\n        /* \"#utility.yul\":8456:8458   */\n      0x20\n        /* \"#utility.yul\":8453:8454   */\n      dup2\n        /* \"#utility.yul\":8449:8459   */\n      add\n        /* \"#utility.yul\":8444:8459   */\n      swap1\n      pop\n        /* \"#utility.yul\":8420:8533   */\n      jump(tag_328)\n    tag_330:\n        /* \"#utility.yul\":8567:8568   */\n      0x00\n        /* \"#utility.yul\":8558:8564   */\n      dup5\n        /* \"#utility.yul\":8553:8556   */\n      dup5\n        /* \"#utility.yul\":8549:8565   */\n      add\n        /* \"#utility.yul\":8542:8569   */\n      mstore\n        /* \"#utility.yul\":8391:8575   */\n      pop\n        /* \"#utility.yul\":8329:8575   */\n      pop\n      pop\n      pop\n      jump\t// out\n        /* \"#utility.yul\":8581:8958   */\n    tag_202:\n        /* \"#utility.yul\":8669:8672   */\n      0x00\n        /* \"#utility.yul\":8697:8736   */\n      tag_332\n        /* \"#utility.yul\":8730:8735   */\n      dup3\n        /* \"#utility.yul\":8697:8736   */\n      tag_199\n      jump\t// in\n    tag_332:\n        /* \"#utility.yul\":8752:8823   */\n      tag_333\n        /* \"#utility.yul\":8816:8822   */\n      dup2\n        /* \"#utility.yul\":8811:8814   */\n      dup6\n        /* \"#utility.yul\":8752:8823   */\n      tag_200\n      jump\t// in\n    tag_333:\n        /* \"#utility.yul\":8745:8823   */\n      swap4\n      pop\n        /* \"#utility.yul\":8832:8897   */\n      tag_334\n        /* \"#utility.yul\":8890:8896   */\n      dup2\n        /* \"#utility.yul\":8885:8888   */\n      dup6\n        /* \"#utility.yul\":8878:8882   */\n      0x20\n        /* \"#utility.yul\":8871:8876   */\n      dup7\n        /* \"#utility.yul\":8867:8883   */\n      add\n        /* \"#utility.yul\":8832:8897   */\n      tag_201\n      jump\t// in\n    tag_334:\n        /* \"#utility.yul\":8922:8951   */\n      tag_335\n        /* \"#utility.yul\":8944:8950   */\n      dup2\n        /* \"#utility.yul\":8922:8951   */\n      tag_187\n      jump\t// in\n    tag_335:\n        /* \"#utility.yul\":8917:8920   */\n      dup5\n        /* \"#utility.yul\":8913:8952   */\n      add\n        /* \"#utility.yul\":8906:8952   */\n      swap2\n      pop\n        /* \"#utility.yul\":8673:8958   */\n      pop\n        /* \"#utility.yul\":8581:8958   */\n      swap3\n      swap2\n      pop\n      pop\n      jump\t// out\n        /* \"#utility.yul\":8964:9277   */\n    tag_37:\n        /* \"#utility.yul\":9077:9081   */\n      0x00\n        /* \"#utility.yul\":9115:9117   */\n      0x20\n        /* \"#utility.yul\":9104:9113   */\n      dup3\n        /* \"#utility.yul\":9100:9118   */\n      add\n        /* \"#utility.yul\":9092:9118   */\n      swap1\n      pop\n        /* \"#utility.yul\":9164:9173   */\n      dup2\n        /* \"#utility.yul\":9158:9162   */\n      dup2\n        /* \"#utility.yul\":9154:9174   */\n      sub\n        /* \"#utility.yul\":9150:9151   */\n      0x00\n        /* \"#utility.yul\":9139:9148   */\n      dup4\n        /* \"#utility.yul\":9135:9152   */\n      add\n        /* \"#utility.yul\":9128:9175   */\n      mstore\n        /* \"#utility.yul\":9192:9270   */\n      tag_337\n        /* \"#utility.yul\":9265:9269   */\n      dup2\n        /* \"#utility.yul\":9256:9262   */\n      dup5\n        /* \"#utility.yul\":9192:9270   */\n      tag_202\n      jump\t// in\n    tag_337:\n        /* \"#utility.yul\":9184:9270   */\n      swap1\n      pop\n        /* \"#utility.yul\":8964:9277   */\n      swap3\n      swap2\n      pop\n      pop\n      jump\t// out\n        /* \"#utility.yul\":9283:10241   */\n    tag_40:\n        /* \"#utility.yul\":9417:9423   */\n      0x00\n        /* \"#utility.yul\":9425:9431   */\n      dup1\n        /* \"#utility.yul\":9433:9439   */\n      0x00\n        /* \"#utility.yul\":9441:9447   */\n      dup1\n        /* \"#utility.yul\":9490:9492   */\n      0x40\n        /* \"#utility.yul\":9478:9487   */\n      dup6\n        /* \"#utility.yul\":9469:9476   */\n      dup8\n        /* \"#utility.yul\":9465:9488   */\n      sub\n        /* \"#utility.yul\":9461:9493   */\n      slt\n        /* \"#utility.yul\":9458:9577   */\n      iszero\n      tag_339\n      jumpi\n        /* \"#utility.yul\":9496:9575   */\n      tag_340\n      tag_177\n      jump\t// in\n    tag_340:\n        /* \"#utility.yul\":9458:9577   */\n    tag_339:\n        /* \"#utility.yul\":9644:9645   */\n      0x00\n        /* \"#utility.yul\":9633:9642   */\n      dup6\n        /* \"#utility.yul\":9629:9646   */\n      add\n        /* \"#utility.yul\":9616:9647   */\n      calldataload\n        /* \"#utility.yul\":9674:9692   */\n      0xffffffffffffffff\n        /* \"#utility.yul\":9666:9672   */\n      dup2\n        /* \"#utility.yul\":9663:9693   */\n      gt\n        /* \"#utility.yul\":9660:9777   */\n      iszero\n      tag_341\n      jumpi\n        /* \"#utility.yul\":9696:9775   */\n      tag_342\n      tag_178\n      jump\t// in\n    tag_342:\n        /* \"#utility.yul\":9660:9777   */\n    tag_341:\n        /* \"#utility.yul\":9809:9889   */\n      tag_343\n        /* \"#utility.yul\":9881:9888   */\n      dup8\n        /* \"#utility.yul\":9872:9878   */\n      dup3\n        /* \"#utility.yul\":9861:9870   */\n      dup9\n        /* \"#utility.yul\":9857:9879   */\n      add\n        /* \"#utility.yul\":9809:9889   */\n      tag_185\n      jump\t// in\n    tag_343:\n        /* \"#utility.yul\":9791:9889   */\n      swap5\n      pop\n      swap5\n      pop\n        /* \"#utility.yul\":9587:9899   */\n      pop\n        /* \"#utility.yul\":9966:9968   */\n      0x20\n        /* \"#utility.yul\":9955:9964   */\n      dup6\n        /* \"#utility.yul\":9951:9969   */\n      add\n        /* \"#utility.yul\":9938:9970   */\n      calldataload\n        /* \"#utility.yul\":9997:10015   */\n      0xffffffffffffffff\n        /* \"#utility.yul\":9989:9995   */\n      dup2\n        /* \"#utility.yul\":9986:10016   */\n      gt\n        /* \"#utility.yul\":9983:10100   */\n      iszero\n      tag_344\n      jumpi\n        /* \"#utility.yul\":10019:10098   */\n      tag_345\n      tag_178\n      jump\t// in\n    tag_345:\n        /* \"#utility.yul\":9983:10100   */\n    tag_344:\n        /* \"#utility.yul\":10132:10224   */\n      tag_346\n        /* \"#utility.yul\":10216:10223   */\n      dup8\n        /* \"#utility.yul\":10207:10213   */\n      dup3\n        /* \"#utility.yul\":10196:10205   */\n      dup9\n        /* \"#utility.yul\":10192:10214   */\n      add\n        /* \"#utility.yul\":10132:10224   */\n      tag_182\n      jump\t// in\n    tag_346:\n        /* \"#utility.yul\":10114:10224   */\n      swap3\n      pop\n      swap3\n      pop\n        /* \"#utility.yul\":9909:10234   */\n      pop\n        /* \"#utility.yul\":9283:10241   */\n      swap3\n      swap6\n      swap2\n      swap5\n      pop\n      swap3\n      pop\n      jump\t// out\n        /* \"#utility.yul\":10247:10558   */\n    tag_203:\n        /* \"#utility.yul\":10324:10328   */\n      0x00\n        /* \"#utility.yul\":10414:10432   */\n      0xffffffffffffffff\n        /* \"#utility.yul\":10406:10412   */\n      dup3\n        /* \"#utility.yul\":10403:10433   */\n      gt\n        /* \"#utility.yul\":10400:10456   */\n      iszero\n      tag_348\n      jumpi\n        /* \"#utility.yul\":10436:10454   */\n      tag_349\n      tag_126\n      jump\t// in\n    tag_349:\n        /* \"#utility.yul\":10400:10456   */\n    tag_348:\n        /* \"#utility.yul\":10486:10490   */\n      0x20\n        /* \"#utility.yul\":10478:10484   */\n      dup3\n        /* \"#utility.yul\":10474:10491   */\n      mul\n        /* \"#utility.yul\":10466:10491   */\n      swap1\n      pop\n        /* \"#utility.yul\":10546:10550   */\n      0x20\n        /* \"#utility.yul\":10540:10544   */\n      dup2\n        /* \"#utility.yul\":10536:10551   */\n      add\n        /* \"#utility.yul\":10528:10551   */\n      swap1\n      pop\n        /* \"#utility.yul\":10247:10558   */\n      swap2\n      swap1\n      pop\n      jump\t// out\n        /* \"#utility.yul\":10581:11291   */\n    tag_204:\n        /* \"#utility.yul\":10677:10682   */\n      0x00\n        /* \"#utility.yul\":10702:10783   */\n      tag_351\n        /* \"#utility.yul\":10718:10782   */\n      tag_352\n        /* \"#utility.yul\":10775:10781   */\n      dup5\n        /* \"#utility.yul\":10718:10782   */\n      tag_203\n      jump\t// in\n    tag_352:\n        /* \"#utility.yul\":10702:10783   */\n      tag_189\n      jump\t// in\n    tag_351:\n        /* \"#utility.yul\":10693:10783   */\n      swap1\n      pop\n        /* \"#utility.yul\":10803:10808   */\n      dup1\n        /* \"#utility.yul\":10832:10838   */\n      dup4\n        /* \"#utility.yul\":10825:10830   */\n      dup3\n        /* \"#utility.yul\":10818:10839   */\n      mstore\n        /* \"#utility.yul\":10866:10870   */\n      0x20\n        /* \"#utility.yul\":10859:10864   */\n      dup3\n        /* \"#utility.yul\":10855:10871   */\n      add\n        /* \"#utility.yul\":10848:10871   */\n      swap1\n      pop\n        /* \"#utility.yul\":10919:10923   */\n      0x20\n        /* \"#utility.yul\":10911:10917   */\n      dup5\n        /* \"#utility.yul\":10907:10924   */\n      mul\n        /* \"#utility.yul\":10899:10905   */\n      dup4\n        /* \"#utility.yul\":10895:10925   */\n      add\n        /* \"#utility.yul\":10948:10951   */\n      dup6\n        /* \"#utility.yul\":10940:10946   */\n      dup2\n        /* \"#utility.yul\":10937:10952   */\n      gt\n        /* \"#utility.yul\":10934:11056   */\n      iszero\n      tag_353\n      jumpi\n        /* \"#utility.yul\":10967:11046   */\n      tag_354\n      tag_181\n      jump\t// in\n    tag_354:\n        /* \"#utility.yul\":10934:11056   */\n    tag_353:\n        /* \"#utility.yul\":11082:11088   */\n      dup4\n        /* \"#utility.yul\":11065:11285   */\n    tag_355:\n        /* \"#utility.yul\":11099:11105   */\n      dup2\n        /* \"#utility.yul\":11094:11097   */\n      dup2\n        /* \"#utility.yul\":11091:11106   */\n      lt\n        /* \"#utility.yul\":11065:11285   */\n      iszero\n      tag_357\n      jumpi\n        /* \"#utility.yul\":11174:11177   */\n      dup1\n        /* \"#utility.yul\":11203:11240   */\n      tag_358\n        /* \"#utility.yul\":11236:11239   */\n      dup9\n        /* \"#utility.yul\":11224:11234   */\n      dup3\n        /* \"#utility.yul\":11203:11240   */\n      tag_198\n      jump\t// in\n    tag_358:\n        /* \"#utility.yul\":11198:11201   */\n      dup5\n        /* \"#utility.yul\":11191:11241   */\n      mstore\n        /* \"#utility.yul\":11270:11274   */\n      0x20\n        /* \"#utility.yul\":11265:11268   */\n      dup5\n        /* \"#utility.yul\":11261:11275   */\n      add\n        /* \"#utility.yul\":11254:11275   */\n      swap4\n      pop\n        /* \"#utility.yul\":11141:11285   */\n      pop\n        /* \"#utility.yul\":11125:11129   */\n      0x20\n        /* \"#utility.yul\":11120:11123   */\n      dup2\n        /* \"#utility.yul\":11116:11130   */\n      add\n        /* \"#utility.yul\":11109:11130   */\n      swap1\n      pop\n        /* \"#utility.yul\":11065:11285   */\n      jump(tag_355)\n    tag_357:\n        /* \"#utility.yul\":11069:11090   */\n      pop\n        /* \"#utility.yul\":10683:11291   */\n      pop\n      pop\n        /* \"#utility.yul\":10581:11291   */\n      swap4\n      swap3\n      pop\n      pop\n      pop\n      jump\t// out\n        /* \"#utility.yul\":11314:11684   */\n    tag_205:\n        /* \"#utility.yul\":11385:11390   */\n      0x00\n        /* \"#utility.yul\":11434:11437   */\n      dup3\n        /* \"#utility.yul\":11427:11431   */\n      0x1f\n        /* \"#utility.yul\":11419:11425   */\n      dup4\n        /* \"#utility.yul\":11415:11432   */\n      add\n        /* \"#utility.yul\":11411:11438   */\n      slt\n        /* \"#utility.yul\":11401:11523   */\n      tag_360\n      jumpi\n        /* \"#utility.yul\":11442:11521   */\n      tag_361\n      tag_179\n      jump\t// in\n    tag_361:\n        /* \"#utility.yul\":11401:11523   */\n    tag_360:\n        /* \"#utility.yul\":11559:11565   */\n      dup2\n        /* \"#utility.yul\":11546:11566   */\n      calldataload\n        /* \"#utility.yul\":11584:11678   */\n      tag_362\n        /* \"#utility.yul\":11674:11677   */\n      dup5\n        /* \"#utility.yul\":11666:11672   */\n      dup3\n        /* \"#utility.yul\":11659:11663   */\n      0x20\n        /* \"#utility.yul\":11651:11657   */\n      dup7\n        /* \"#utility.yul\":11647:11664   */\n      add\n        /* \"#utility.yul\":11584:11678   */\n      tag_204\n      jump\t// in\n    tag_362:\n        /* \"#utility.yul\":11575:11678   */\n      swap2\n      pop\n        /* \"#utility.yul\":11391:11684   */\n      pop\n        /* \"#utility.yul\":11314:11684   */\n      swap3\n      swap2\n      pop\n      pop\n      jump\t// out\n        /* \"#utility.yul\":11690:12011   */\n    tag_206:\n        /* \"#utility.yul\":11777:11781   */\n      0x00\n        /* \"#utility.yul\":11867:11885   */\n      0xffffffffffffffff\n        /* \"#utility.yul\":11859:11865   */\n      dup3\n        /* \"#utility.yul\":11856:11886   */\n      gt\n        /* \"#utility.yul\":11853:11909   */\n      iszero\n      tag_364\n      jumpi\n        /* \"#utility.yul\":11889:11907   */\n      tag_365\n      tag_126\n      jump\t// in\n    tag_365:\n        /* \"#utility.yul\":11853:11909   */\n    tag_364:\n        /* \"#utility.yul\":11939:11943   */\n      0x20\n        /* \"#utility.yul\":11931:11937   */\n      dup3\n        /* \"#utility.yul\":11927:11944   */\n      mul\n        /* \"#utility.yul\":11919:11944   */\n      swap1\n      pop\n        /* \"#utility.yul\":11999:12003   */\n      0x20\n        /* \"#utility.yul\":11993:11997   */\n      dup2\n        /* \"#utility.yul\":11989:12004   */\n      add\n        /* \"#utility.yul\":11981:12004   */\n      swap1\n      pop\n        /* \"#utility.yul\":11690:12011   */\n      swap2\n      swap1\n      pop\n      jump\t// out\n        /* \"#utility.yul\":12033:12978   */\n    tag_207:\n        /* \"#utility.yul\":12139:12144   */\n      0x00\n        /* \"#utility.yul\":12164:12255   */\n      tag_367\n        /* \"#utility.yul\":12180:12254   */\n      tag_368\n        /* \"#utility.yul\":12247:12253   */\n      dup5\n        /* \"#utility.yul\":12180:12254   */\n      tag_206\n      jump\t// in\n    tag_368:\n        /* \"#utility.yul\":12164:12255   */\n      tag_189\n      jump\t// in\n    tag_367:\n        /* \"#utility.yul\":12155:12255   */\n      swap1\n      pop\n        /* \"#utility.yul\":12275:12280   */\n      dup1\n        /* \"#utility.yul\":12304:12310   */\n      dup4\n        /* \"#utility.yul\":12297:12302   */\n      dup3\n        /* \"#utility.yul\":12290:12311   */\n      mstore\n        /* \"#utility.yul\":12338:12342   */\n      0x20\n        /* \"#utility.yul\":12331:12336   */\n      dup3\n        /* \"#utility.yul\":12327:12343   */\n      add\n        /* \"#utility.yul\":12320:12343   */\n      swap1\n      pop\n        /* \"#utility.yul\":12391:12395   */\n      0x20\n        /* \"#utility.yul\":12383:12389   */\n      dup5\n        /* \"#utility.yul\":12379:12396   */\n      mul\n        /* \"#utility.yul\":12371:12377   */\n      dup4\n        /* \"#utility.yul\":12367:12397   */\n      add\n        /* \"#utility.yul\":12420:12423   */\n      dup6\n        /* \"#utility.yul\":12412:12418   */\n      dup2\n        /* \"#utility.yul\":12409:12424   */\n      gt\n        /* \"#utility.yul\":12406:12528   */\n      iszero\n      tag_369\n      jumpi\n        /* \"#utility.yul\":12439:12518   */\n      tag_370\n      tag_181\n      jump\t// in\n    tag_370:\n        /* \"#utility.yul\":12406:12528   */\n    tag_369:\n        /* \"#utility.yul\":12554:12560   */\n      dup4\n        /* \"#utility.yul\":12537:12972   */\n    tag_371:\n        /* \"#utility.yul\":12571:12577   */\n      dup2\n        /* \"#utility.yul\":12566:12569   */\n      dup2\n        /* \"#utility.yul\":12563:12578   */\n      lt\n        /* \"#utility.yul\":12537:12972   */\n      iszero\n      tag_373\n      jumpi\n        /* \"#utility.yul\":12660:12663   */\n      dup1\n        /* \"#utility.yul\":12647:12664   */\n      calldataload\n        /* \"#utility.yul\":12696:12714   */\n      0xffffffffffffffff\n        /* \"#utility.yul\":12683:12694   */\n      dup2\n        /* \"#utility.yul\":12680:12715   */\n      gt\n        /* \"#utility.yul\":12677:12799   */\n      iszero\n      tag_374\n      jumpi\n        /* \"#utility.yul\":12718:12797   */\n      tag_375\n      tag_179\n      jump\t// in\n    tag_375:\n        /* \"#utility.yul\":12677:12799   */\n    tag_374:\n        /* \"#utility.yul\":12842:12853   */\n      dup1\n        /* \"#utility.yul\":12834:12840   */\n      dup7\n        /* \"#utility.yul\":12830:12854   */\n      add\n        /* \"#utility.yul\":12880:12927   */\n      tag_376\n        /* \"#utility.yul\":12923:12926   */\n      dup10\n        /* \"#utility.yul\":12911:12921   */\n      dup3\n        /* \"#utility.yul\":12880:12927   */\n      tag_193\n      jump\t// in\n    tag_376:\n        /* \"#utility.yul\":12875:12878   */\n      dup6\n        /* \"#utility.yul\":12868:12928   */\n      mstore\n        /* \"#utility.yul\":12957:12961   */\n      0x20\n        /* \"#utility.yul\":12952:12955   */\n      dup6\n        /* \"#utility.yul\":12948:12962   */\n      add\n        /* \"#utility.yul\":12941:12962   */\n      swap5\n      pop\n        /* \"#utility.yul\":12613:12972   */\n      pop\n      pop\n        /* \"#utility.yul\":12597:12601   */\n      0x20\n        /* \"#utility.yul\":12592:12595   */\n      dup2\n        /* \"#utility.yul\":12588:12602   */\n      add\n        /* \"#utility.yul\":12581:12602   */\n      swap1\n      pop\n        /* \"#utility.yul\":12537:12972   */\n      jump(tag_371)\n    tag_373:\n        /* \"#utility.yul\":12541:12562   */\n      pop\n        /* \"#utility.yul\":12145:12978   */\n      pop\n      pop\n        /* \"#utility.yul\":12033:12978   */\n      swap4\n      swap3\n      pop\n      pop\n      pop\n      jump\t// out\n        /* \"#utility.yul\":13000:13390   */\n    tag_208:\n        /* \"#utility.yul\":13081:13086   */\n      0x00\n        /* \"#utility.yul\":13130:13133   */\n      dup3\n        /* \"#utility.yul\":13123:13127   */\n      0x1f\n        /* \"#utility.yul\":13115:13121   */\n      dup4\n        /* \"#utility.yul\":13111:13128   */\n      add\n        /* \"#utility.yul\":13107:13134   */\n      slt\n        /* \"#utility.yul\":13097:13219   */\n      tag_378\n      jumpi\n        /* \"#utility.yul\":13138:13217   */\n      tag_379\n      tag_179\n      jump\t// in\n    tag_379:\n        /* \"#utility.yul\":13097:13219   */\n    tag_378:\n        /* \"#utility.yul\":13255:13261   */\n      dup2\n        /* \"#utility.yul\":13242:13262   */\n      calldataload\n        /* \"#utility.yul\":13280:13384   */\n      tag_380\n        /* \"#utility.yul\":13380:13383   */\n      dup5\n        /* \"#utility.yul\":13372:13378   */\n      dup3\n        /* \"#utility.yul\":13365:13369   */\n      0x20\n        /* \"#utility.yul\":13357:13363   */\n      dup7\n        /* \"#utility.yul\":13353:13370   */\n      add\n        /* \"#utility.yul\":13280:13384   */\n      tag_207\n      jump\t// in\n    tag_380:\n        /* \"#utility.yul\":13271:13384   */\n      swap2\n      pop\n        /* \"#utility.yul\":13087:13390   */\n      pop\n        /* \"#utility.yul\":13000:13390   */\n      swap3\n      swap2\n      pop\n      pop\n      jump\t// out\n        /* \"#utility.yul\":13396:14310   */\n    tag_45:\n        /* \"#utility.yul\":13524:13530   */\n      0x00\n        /* \"#utility.yul\":13532:13538   */\n      dup1\n        /* \"#utility.yul\":13581:13583   */\n      0x40\n        /* \"#utility.yul\":13569:13578   */\n      dup4\n        /* \"#utility.yul\":13560:13567   */\n      dup6\n        /* \"#utility.yul\":13556:13579   */\n      sub\n        /* \"#utility.yul\":13552:13584   */\n      slt\n        /* \"#utility.yul\":13549:13668   */\n      iszero\n      tag_382\n      jumpi\n        /* \"#utility.yul\":13587:13666   */\n      tag_383\n      tag_177\n      jump\t// in\n    tag_383:\n        /* \"#utility.yul\":13549:13668   */\n    tag_382:\n        /* \"#utility.yul\":13735:13736   */\n      0x00\n        /* \"#utility.yul\":13724:13733   */\n      dup4\n        /* \"#utility.yul\":13720:13737   */\n      add\n        /* \"#utility.yul\":13707:13738   */\n      calldataload\n        /* \"#utility.yul\":13765:13783   */\n      0xffffffffffffffff\n        /* \"#utility.yul\":13757:13763   */\n      dup2\n        /* \"#utility.yul\":13754:13784   */\n      gt\n        /* \"#utility.yul\":13751:13868   */\n      iszero\n      tag_384\n      jumpi\n        /* \"#utility.yul\":13787:13866   */\n      tag_385\n      tag_178\n      jump\t// in\n    tag_385:\n        /* \"#utility.yul\":13751:13868   */\n    tag_384:\n        /* \"#utility.yul\":13892:13970   */\n      tag_386\n        /* \"#utility.yul\":13962:13969   */\n      dup6\n        /* \"#utility.yul\":13953:13959   */\n      dup3\n        /* \"#utility.yul\":13942:13951   */\n      dup7\n        /* \"#utility.yul\":13938:13960   */\n      add\n        /* \"#utility.yul\":13892:13970   */\n      tag_205\n      jump\t// in\n    tag_386:\n        /* \"#utility.yul\":13882:13970   */\n      swap3\n      pop\n        /* \"#utility.yul\":13678:13980   */\n      pop\n        /* \"#utility.yul\":14047:14049   */\n      0x20\n        /* \"#utility.yul\":14036:14045   */\n      dup4\n        /* \"#utility.yul\":14032:14050   */\n      add\n        /* \"#utility.yul\":14019:14051   */\n      calldataload\n        /* \"#utility.yul\":14078:14096   */\n      0xffffffffffffffff\n        /* \"#utility.yul\":14070:14076   */\n      dup2\n        /* \"#utility.yul\":14067:14097   */\n      gt\n        /* \"#utility.yul\":14064:14181   */\n      iszero\n      tag_387\n      jumpi\n        /* \"#utility.yul\":14100:14179   */\n      tag_388\n      tag_178\n      jump\t// in\n    tag_388:\n        /* \"#utility.yul\":14064:14181   */\n    tag_387:\n        /* \"#utility.yul\":14205:14293   */\n      tag_389\n        /* \"#utility.yul\":14285:14292   */\n      dup6\n        /* \"#utility.yul\":14276:14282   */\n      dup3\n        /* \"#utility.yul\":14265:14274   */\n      dup7\n        /* \"#utility.yul\":14261:14283   */\n      add\n        /* \"#utility.yul\":14205:14293   */\n      tag_208\n      jump\t// in\n    tag_389:\n        /* \"#utility.yul\":14195:14293   */\n      swap2\n      pop\n        /* \"#utility.yul\":13990:14303   */\n      pop\n        /* \"#utility.yul\":13396:14310   */\n      swap3\n      pop\n      swap3\n      swap1\n      pop\n      jump\t// out\n        /* \"#utility.yul\":14316:14496   */\n    tag_64:\n        /* \"#utility.yul\":14364:14441   */\n      0x4e487b7100000000000000000000000000000000000000000000000000000000\n        /* \"#utility.yul\":14361:14362   */\n      0x00\n        /* \"#utility.yul\":14354:14442   */\n      mstore\n        /* \"#utility.yul\":14461:14465   */\n      0x32\n        /* \"#utility.yul\":14458:14459   */\n      0x04\n        /* \"#utility.yul\":14451:14466   */\n      mstore\n        /* \"#utility.yul\":14485:14489   */\n      0x24\n        /* \"#utility.yul\":14482:14483   */\n      0x00\n        /* \"#utility.yul\":14475:14490   */\n      revert\n        /* \"#utility.yul\":14502:14682   */\n    tag_209:\n        /* \"#utility.yul\":14550:14627   */\n      0x4e487b7100000000000000000000000000000000000000000000000000000000\n        /* \"#utility.yul\":14547:14548   */\n      0x00\n        /* \"#utility.yul\":14540:14628   */\n      mstore\n        /* \"#utility.yul\":14647:14651   */\n      0x22\n        /* \"#utility.yul\":14644:14645   */\n      0x04\n        /* \"#utility.yul\":14637:14652   */\n      mstore\n        /* \"#utility.yul\":14671:14675   */\n      0x24\n        /* \"#utility.yul\":14668:14669   */\n      0x00\n        /* \"#utility.yul\":14661:14676   */\n      revert\n        /* \"#utility.yul\":14688:15008   */\n    tag_67:\n        /* \"#utility.yul\":14732:14738   */\n      0x00\n        /* \"#utility.yul\":14769:14770   */\n      0x02\n        /* \"#utility.yul\":14763:14767   */\n      dup3\n        /* \"#utility.yul\":14759:14771   */\n      div\n        /* \"#utility.yul\":14749:14771   */\n      swap1\n      pop\n        /* \"#utility.yul\":14816:14817   */\n      0x01\n        /* \"#utility.yul\":14810:14814   */\n      dup3\n        /* \"#utility.yul\":14806:14818   */\n      and\n        /* \"#utility.yul\":14837:14855   */\n      dup1\n        /* \"#utility.yul\":14827:14908   */\n      tag_393\n      jumpi\n        /* \"#utility.yul\":14893:14897   */\n      0x7f\n        /* \"#utility.yul\":14885:14891   */\n      dup3\n        /* \"#utility.yul\":14881:14898   */\n      and\n        /* \"#utility.yul\":14871:14898   */\n      swap2\n      pop\n        /* \"#utility.yul\":14827:14908   */\n    tag_393:\n        /* \"#utility.yul\":14955:14957   */\n      0x20\n        /* \"#utility.yul\":14947:14953   */\n      dup3\n        /* \"#utility.yul\":14944:14958   */\n      lt\n        /* \"#utility.yul\":14924:14942   */\n      dup2\n        /* \"#utility.yul\":14921:14959   */\n      sub\n        /* \"#utility.yul\":14918:15002   */\n      tag_394\n      jumpi\n        /* \"#utility.yul\":14974:14992   */\n      tag_395\n      tag_209\n      jump\t// in\n    tag_395:\n        /* \"#utility.yul\":14918:15002   */\n    tag_394:\n        /* \"#utility.yul\":14739:15008   */\n      pop\n        /* \"#utility.yul\":14688:15008   */\n      swap2\n      swap1\n      pop\n      jump\t// out\n        /* \"#utility.yul\":15014:15131   */\n    tag_210:\n        /* \"#utility.yul\":15123:15124   */\n      0x00\n        /* \"#utility.yul\":15120:15121   */\n      dup1\n        /* \"#utility.yul\":15113:15125   */\n      revert\n        /* \"#utility.yul\":15137:15254   */\n    tag_211:\n        /* \"#utility.yul\":15246:15247   */\n      0x00\n        /* \"#utility.yul\":15243:15244   */\n      dup1\n        /* \"#utility.yul\":15236:15248   */\n      revert\n        /* \"#utility.yul\":15260:15377   */\n    tag_212:\n        /* \"#utility.yul\":15369:15370   */\n      0x00\n        /* \"#utility.yul\":15366:15367   */\n      dup1\n        /* \"#utility.yul\":15359:15371   */\n      revert\n        /* \"#utility.yul\":15383:16108   */\n    tag_75:\n        /* \"#utility.yul\":15461:15465   */\n      0x00\n        /* \"#utility.yul\":15467:15473   */\n      dup1\n        /* \"#utility.yul\":15523:15534   */\n      dup4\n        /* \"#utility.yul\":15510:15535   */\n      calldataload\n        /* \"#utility.yul\":15623:15624   */\n      0x01\n        /* \"#utility.yul\":15617:15621   */\n      0x20\n        /* \"#utility.yul\":15613:15625   */\n      sub\n        /* \"#utility.yul\":15602:15610   */\n      dup5\n        /* \"#utility.yul\":15586:15600   */\n      calldatasize\n        /* \"#utility.yul\":15582:15611   */\n      sub\n        /* \"#utility.yul\":15578:15626   */\n      sub\n        /* \"#utility.yul\":15558:15576   */\n      dup2\n        /* \"#utility.yul\":15554:15627   */\n      slt\n        /* \"#utility.yul\":15544:15712   */\n      tag_400\n      jumpi\n        /* \"#utility.yul\":15631:15710   */\n      tag_401\n      tag_210\n      jump\t// in\n    tag_401:\n        /* \"#utility.yul\":15544:15712   */\n    tag_400:\n        /* \"#utility.yul\":15743:15761   */\n      dup1\n        /* \"#utility.yul\":15733:15741   */\n      dup5\n        /* \"#utility.yul\":15729:15762   */\n      add\n        /* \"#utility.yul\":15721:15762   */\n      swap3\n      pop\n        /* \"#utility.yul\":15795:15799   */\n      dup3\n        /* \"#utility.yul\":15782:15800   */\n      calldataload\n        /* \"#utility.yul\":15772:15800   */\n      swap2\n      pop\n        /* \"#utility.yul\":15823:15841   */\n      0xffffffffffffffff\n        /* \"#utility.yul\":15815:15821   */\n      dup3\n        /* \"#utility.yul\":15812:15842   */\n      gt\n        /* \"#utility.yul\":15809:15926   */\n      iszero\n      tag_402\n      jumpi\n        /* \"#utility.yul\":15845:15924   */\n      tag_403\n      tag_211\n      jump\t// in\n    tag_403:\n        /* \"#utility.yul\":15809:15926   */\n    tag_402:\n        /* \"#utility.yul\":15953:15955   */\n      0x20\n        /* \"#utility.yul\":15947:15951   */\n      dup4\n        /* \"#utility.yul\":15943:15956   */\n      add\n        /* \"#utility.yul\":15935:15956   */\n      swap3\n      pop\n        /* \"#utility.yul\":16010:16014   */\n      0x01\n        /* \"#utility.yul\":16002:16008   */\n      dup3\n        /* \"#utility.yul\":15998:16015   */\n      mul\n        /* \"#utility.yul\":15982:15996   */\n      calldatasize\n        /* \"#utility.yul\":15978:16016   */\n      sub\n        /* \"#utility.yul\":15972:15976   */\n      dup4\n        /* \"#utility.yul\":15968:16017   */\n      sgt\n        /* \"#utility.yul\":15965:16101   */\n      iszero\n      tag_404\n      jumpi\n        /* \"#utility.yul\":16020:16099   */\n      tag_405\n      tag_212\n      jump\t// in\n    tag_405:\n        /* \"#utility.yul\":15965:16101   */\n    tag_404:\n        /* \"#utility.yul\":15474:16108   */\n      pop\n        /* \"#utility.yul\":15383:16108   */\n      swap3\n      pop\n      swap3\n      swap1\n      pop\n      jump\t// out\n        /* \"#utility.yul\":16114:16294   */\n    tag_213:\n        /* \"#utility.yul\":16162:16239   */\n      0x4e487b7100000000000000000000000000000000000000000000000000000000\n        /* \"#utility.yul\":16159:16160   */\n      0x00\n        /* \"#utility.yul\":16152:16240   */\n      mstore\n        /* \"#utility.yul\":16259:16263   */\n      0x11\n        /* \"#utility.yul\":16256:16257   */\n      0x04\n        /* \"#utility.yul\":16249:16264   */\n      mstore\n        /* \"#utility.yul\":16283:16287   */\n      0x24\n        /* \"#utility.yul\":16280:16281   */\n      0x00\n        /* \"#utility.yul\":16273:16288   */\n      revert\n        /* \"#utility.yul\":16300:16533   */\n    tag_78:\n        /* \"#utility.yul\":16339:16342   */\n      0x00\n        /* \"#utility.yul\":16362:16386   */\n      tag_408\n        /* \"#utility.yul\":16380:16385   */\n      dup3\n        /* \"#utility.yul\":16362:16386   */\n      tag_183\n      jump\t// in\n    tag_408:\n        /* \"#utility.yul\":16353:16386   */\n      swap2\n      pop\n        /* \"#utility.yul\":16408:16474   */\n      0xffffffffffffffffffffffffffffffffffffffffffffffffffffffffffffffff\n        /* \"#utility.yul\":16401:16406   */\n      dup3\n        /* \"#utility.yul\":16398:16475   */\n      sub\n        /* \"#utility.yul\":16395:16498   */\n      tag_409\n      jumpi\n        /* \"#utility.yul\":16478:16496   */\n      tag_410\n      tag_213\n      jump\t// in\n    tag_410:\n        /* \"#utility.yul\":16395:16498   */\n    tag_409:\n        /* \"#utility.yul\":16525:16526   */\n      0x01\n        /* \"#utility.yul\":16518:16523   */\n      dup3\n        /* \"#utility.yul\":16514:16527   */\n      add\n        /* \"#utility.yul\":16507:16527   */\n      swap1\n      pop\n        /* \"#utility.yul\":16300:16533   */\n      swap2\n      swap1\n      pop\n      jump\t// out\n        /* \"#utility.yul\":16539:16687   */\n    tag_214:\n        /* \"#utility.yul\":16641:16652   */\n      0x00\n        /* \"#utility.yul\":16678:16681   */\n      dup2\n        /* \"#utility.yul\":16663:16681   */\n      swap1\n      pop\n        /* \"#utility.yul\":16539:16687   */\n      swap3\n      swap2\n      pop\n      pop\n      jump\t// out\n        /* \"#utility.yul\":16717:17047   */\n    tag_215:\n        /* \"#utility.yul\":16833:16836   */\n      0x00\n        /* \"#utility.yul\":16854:16943   */\n      tag_413\n        /* \"#utility.yul\":16936:16942   */\n      dup4\n        /* \"#utility.yul\":16931:16934   */\n      dup6\n        /* \"#utility.yul\":16854:16943   */\n      tag_214\n      jump\t// in\n    tag_413:\n        /* \"#utility.yul\":16847:16943   */\n      swap4\n      pop\n        /* \"#utility.yul\":16953:17009   */\n      tag_414\n        /* \"#utility.yul\":17002:17008   */\n      dup4\n        /* \"#utility.yul\":16997:17000   */\n      dup6\n        /* \"#utility.yul\":16990:16995   */\n      dup5\n        /* \"#utility.yul\":16953:17009   */\n      tag_191\n      jump\t// in\n    tag_414:\n        /* \"#utility.yul\":17034:17040   */\n      dup3\n        /* \"#utility.yul\":17029:17032   */\n      dup5\n        /* \"#utility.yul\":17025:17041   */\n      add\n        /* \"#utility.yul\":17018:17041   */\n      swap1\n      pop\n        /* \"#utility.yul\":16717:17047   */\n      swap4\n      swap3\n      pop\n      pop\n      pop\n      jump\t// out\n        /* \"#utility.yul\":17053:17348   */\n    tag_94:\n        /* \"#utility.yul\":17195:17198   */\n      0x00\n        /* \"#utility.yul\":17217:17322   */\n      tag_416\n        /* \"#utility.yul\":17318:17321   */\n      dup3\n        /* \"#utility.yul\":17309:17315   */\n      dup5\n        /* \"#utility.yul\":17301:17307   */\n      dup7\n        /* \"#utility.yul\":17217:17322   */\n      tag_215\n      jump\t// in\n    tag_416:\n        /* \"#utility.yul\":17210:17322   */\n      swap2\n      pop\n        /* \"#utility.yul\":17339:17342   */\n      dup2\n        /* \"#utility.yul\":17332:17342   */\n      swap1\n      pop\n        /* \"#utility.yul\":17053:17348   */\n      swap4\n      swap3\n      pop\n      pop\n      pop\n      jump\t// out\n        /* \"#utility.yul\":17354:17744   */\n    tag_216:\n        /* \"#utility.yul\":17460:17463   */\n      0x00\n        /* \"#utility.yul\":17488:17527   */\n      tag_418\n        /* \"#utility.yul\":17521:17526   */\n      dup3\n        /* \"#utility.yul\":17488:17527   */\n      tag_199\n      jump\t// in\n    tag_418:\n        /* \"#utility.yul\":17543:17632   */\n      tag_419\n        /* \"#utility.yul\":17625:17631   */\n      dup2\n        /* \"#utility.yul\":17620:17623   */\n      dup6\n        /* \"#utility.yul\":17543:17632   */\n      tag_214\n      jump\t// in\n    tag_419:\n        /* \"#utility.yul\":17536:17632   */\n      swap4\n      pop\n        /* \"#utility.yul\":17641:17706   */\n      tag_420\n        /* \"#utility.yul\":17699:17705   */\n      dup2\n        /* \"#utility.yul\":17694:17697   */\n      dup6\n        /* \"#utility.yul\":17687:17691   */\n      0x20\n        /* \"#utility.yul\":17680:17685   */\n      dup7\n        /* \"#utility.yul\":17676:17692   */\n      add\n        /* \"#utility.yul\":17641:17706   */\n      tag_201\n      jump\t// in\n    tag_420:\n        /* \"#utility.yul\":17731:17737   */\n      dup1\n        /* \"#utility.yul\":17726:17729   */\n      dup5\n        /* \"#utility.yul\":17722:17738   */\n      add\n        /* \"#utility.yul\":17715:17738   */\n      swap2\n      pop\n        /* \"#utility.yul\":17464:17744   */\n      pop\n        /* \"#utility.yul\":17354:17744   */\n      swap3\n      swap2\n      pop\n      pop\n      jump\t// out\n        /* \"#utility.yul\":17750:18025   */\n    tag_96:\n        /* \"#utility.yul\":17882:17885   */\n      0x00\n        /* \"#utility.yul\":17904:17999   */\n      tag_422\n        /* \"#utility.yul\":17995:17998   */\n      dup3\n        /* \"#utility.yul\":17986:17992   */\n      dup5\n        /* \"#utility.yul\":17904:17999   */\n      tag_216\n      jump\t// in\n    tag_422:\n        /* \"#utility.yul\":17897:17999   */\n      swap2\n      pop\n        /* \"#utility.yul\":18016:18019   */\n      dup2\n        /* \"#utility.yul\":18009:18019   */\n      swap1\n      pop\n        /* \"#utility.yul\":17750:18025   */\n      swap3\n      swap2\n      pop\n      pop\n      jump\t// out\n        /* \"#utility.yul\":18031:18222   */\n    tag_109:\n        /* \"#utility.yul\":18071:18074   */\n      0x00\n        /* \"#utility.yul\":18090:18110   */\n      tag_424\n        /* \"#utility.yul\":18108:18109   */\n      dup3\n        /* \"#utility.yul\":18090:18110   */\n      tag_183\n      jump\t// in\n    tag_424:\n        /* \"#utility.yul\":18085:18110   */\n      swap2\n      pop\n        /* \"#utility.yul\":18124:18144   */\n      tag_425\n        /* \"#utility.yul\":18142:18143   */\n      dup4\n        /* \"#utility.yul\":18124:18144   */\n      tag_183\n      jump\t// in\n    tag_425:\n        /* \"#utility.yul\":18119:18144   */\n      swap3\n      pop\n        /* \"#utility.yul\":18167:18168   */\n      dup3\n        /* \"#utility.yul\":18164:18165   */\n      dup3\n        /* \"#utility.yul\":18160:18169   */\n      add\n        /* \"#utility.yul\":18153:18169   */\n      swap1\n      pop\n        /* \"#utility.yul\":18188:18191   */\n      dup1\n        /* \"#utility.yul\":18185:18186   */\n      dup3\n        /* \"#utility.yul\":18182:18192   */\n      gt\n        /* \"#utility.yul\":18179:18215   */\n      iszero\n      tag_426\n      jumpi\n        /* \"#utility.yul\":18195:18213   */\n      tag_427\n      tag_213\n      jump\t// in\n    tag_427:\n        /* \"#utility.yul\":18179:18215   */\n    tag_426:\n        /* \"#utility.yul\":18031:18222   */\n      swap3\n      swap2\n      pop\n      pop\n      jump\t// out\n        /* \"#utility.yul\":18228:18408   */\n    tag_132:\n        /* \"#utility.yul\":18276:18353   */\n      0x4e487b7100000000000000000000000000000000000000000000000000000000\n        /* \"#utility.yul\":18273:18274   */\n      0x00\n        /* \"#utility.yul\":18266:18354   */\n      mstore\n        /* \"#utility.yul\":18373:18377   */\n      0x12\n        /* \"#utility.yul\":18370:18371   */\n      0x04\n        /* \"#utility.yul\":18363:18378   */\n      mstore\n        /* \"#utility.yul\":18397:18401   */\n      0x24\n        /* \"#utility.yul\":18394:18395   */\n      0x00\n        /* \"#utility.yul\":18387:18402   */\n      revert\n        /* \"#utility.yul\":18414:18555   */\n    tag_217:\n        /* \"#utility.yul\":18463:18467   */\n      0x00\n        /* \"#utility.yul\":18486:18489   */\n      dup2\n        /* \"#utility.yul\":18478:18489   */\n      swap1\n      pop\n        /* \"#utility.yul\":18509:18512   */\n      dup2\n        /* \"#utility.yul\":18506:18507   */\n      0x00\n        /* \"#utility.yul\":18499:18513   */\n      mstore\n        /* \"#utility.yul\":18543:18547   */\n      0x20\n        /* \"#utility.yul\":18540:18541   */\n      0x00\n        /* \"#utility.yul\":18530:18548   */\n      keccak256\n        /* \"#utility.yul\":18522:18548   */\n      swap1\n      pop\n        /* \"#utility.yul\":18414:18555   */\n      swap2\n      swap1\n      pop\n      jump\t// out\n        /* \"#utility.yul\":18561:18654   */\n    tag_218:\n        /* \"#utility.yul\":18598:18604   */\n      0x00\n        /* \"#utility.yul\":18645:18647   */\n      0x20\n        /* \"#utility.yul\":18640:18642   */\n      0x1f\n        /* \"#utility.yul\":18633:18638   */\n      dup4\n        /* \"#utility.yul\":18629:18643   */\n      add\n        /* \"#utility.yul\":18625:18648   */\n      div\n        /* \"#utility.yul\":18615:18648   */\n      swap1\n      pop\n        /* \"#utility.yul\":18561:18654   */\n      swap2\n      swap1\n      pop\n      jump\t// out\n        /* \"#utility.yul\":18660:18767   */\n    tag_219:\n        /* \"#utility.yul\":18704:18712   */\n      0x00\n        /* \"#utility.yul\":18754:18759   */\n      dup3\n        /* \"#utility.yul\":18748:18752   */\n      dup3\n        /* \"#utility.yul\":18744:18760   */\n      shl\n        /* \"#utility.yul\":18723:18760   */\n      swap1\n      pop\n        /* \"#utility.yul\":18660:18767   */\n      swap3\n      swap2\n      pop\n      pop\n      jump\t// out\n        /* \"#utility.yul\":18773:19166   */\n    tag_220:\n        /* \"#utility.yul\":18842:18848   */\n      0x00\n        /* \"#utility.yul\":18892:18893   */\n      0x08\n        /* \"#utility.yul\":18880:18890   */\n      dup4\n        /* \"#utility.yul\":18876:18894   */\n      mul\n        /* \"#utility.yul\":18915:19012   */\n      tag_433\n        /* \"#utility.yul\":18945:19011   */\n      0xffffffffffffffffffffffffffffffffffffffffffffffffffffffffffffffff\n        /* \"#utility.yul\":18934:18943   */\n      dup3\n        /* \"#utility.yul\":18915:19012   */\n      tag_219\n      jump\t// in\n    tag_433:\n        /* \"#utility.yul\":19033:19072   */\n      tag_434\n        /* \"#utility.yul\":19063:19071   */\n      dup7\n        /* \"#utility.yul\":19052:19061   */\n      dup4\n        /* \"#utility.yul\":19033:19072   */\n      tag_219\n      jump\t// in\n    tag_434:\n        /* \"#utility.yul\":19021:19072   */\n      swap6\n      pop\n        /* \"#utility.yul\":19105:19109   */\n      dup1\n        /* \"#utility.yul\":19101:19110   */\n      not\n        /* \"#utility.yul\":19094:19099   */\n      dup5\n        /* \"#utility.yul\":19090:19111   */\n      and\n        /* \"#utility.yul\":19081:19111   */\n      swap4\n      pop\n        /* \"#utility.yul\":19154:19158   */\n      dup1\n        /* \"#utility.yul\":19144:19152   */\n      dup7\n        /* \"#utility.yul\":19140:19159   */\n      and\n        /* \"#utility.yul\":19133:19138   */\n      dup5\n        /* \"#utility.yul\":19130:19160   */\n      or\n        /* \"#utility.yul\":19120:19160   */\n      swap3\n      pop\n        /* \"#utility.yul\":18849:19166   */\n      pop\n      pop\n        /* \"#utility.yul\":18773:19166   */\n      swap4\n      swap3\n      pop\n      pop\n      pop\n      jump\t// out\n        /* \"#utility.yul\":19172:19232   */\n    tag_221:\n        /* \"#utility.yul\":19200:19203   */\n      0x00\n        /* \"#utility.yul\":19221:19226   */\n      dup2\n        /* \"#utility.yul\":19214:19226   */\n      swap1\n      pop\n        /* \"#utility.yul\":19172:19232   */\n      swap2\n      swap1\n      pop\n      jump\t// out\n        /* \"#utility.yul\":19238:19380   */\n    tag_222:\n        /* \"#utility.yul\":19288:19297   */\n      0x00\n        /* \"#utility.yul\":19321:19374   */\n      tag_437\n        /* \"#utility.yul\":19339:19373   */\n      tag_438\n        /* \"#utility.yul\":19348:19372   */\n      tag_439\n        /* \"#utility.yul\":19366:19371   */\n      dup5\n        /* \"#utility.yul\":19348:19372   */\n      tag_183\n      jump\t// in\n    tag_439:\n        /* \"#utility.yul\":19339:19373   */\n      tag_221\n      jump\t// in\n    tag_438:\n        /* \"#utility.yul\":19321:19374   */\n      tag_183\n      jump\t// in\n    tag_437:\n        /* \"#utility.yul\":19308:19374   */\n      swap1\n      pop\n        /* \"#utility.yul\":19238:19380   */\n      swap2\n      swap1\n      pop\n      jump\t// out\n        /* \"#utility.yul\":19386:19461   */\n    tag_223:\n        /* \"#utility.yul\":19429:19432   */\n      0x00\n        /* \"#utility.yul\":19450:19455   */\n      dup2\n        /* \"#utility.yul\":19443:19455   */\n      swap1\n      pop\n        /* \"#utility.yul\":19386:19461   */\n      swap2\n      swap1\n      pop\n      jump\t// out\n        /* \"#utility.yul\":19467:19736   */\n    tag_224:\n        /* \"#utility.yul\":19577:19616   */\n      tag_442\n        /* \"#utility.yul\":19608:19615   */\n      dup4\n        /* \"#utility.yul\":19577:19616   */\n      tag_222\n      jump\t// in\n    tag_442:\n        /* \"#utility.yul\":19638:19729   */\n      tag_443\n        /* \"#utility.yul\":19687:19728   */\n      tag_444\n        /* \"#utility.yul\":19711:19727   */\n      dup3\n        /* \"#utility.yul\":19687:19728   */\n      tag_223\n      jump\t// in\n    tag_444:\n        /* \"#utility.yul\":19679:19685   */\n      dup5\n        /* \"#utility.yul\":19672:19676   */\n      dup5\n        /* \"#utility.yul\":19666:19677   */\n      sload\n        /* \"#utility.yul\":19638:19729   */\n      tag_220\n      jump\t// in\n    tag_443:\n        /* \"#utility.yul\":19632:19636   */\n      dup3\n        /* \"#utility.yul\":19625:19730   */\n      sstore\n        /* \"#utility.yul\":19543:19736   */\n      pop\n        /* \"#utility.yul\":19467:19736   */\n      pop\n      pop\n      pop\n      jump\t// out\n        /* \"#utility.yul\":19742:19815   */\n    tag_225:\n        /* \"#utility.yul\":19787:19790   */\n      0x00\n        /* \"#utility.yul\":19742:19815   */\n      swap1\n      jump\t// out\n        /* \"#utility.yul\":19821:20010   */\n    tag_226:\n        /* \"#utility.yul\":19898:19930   */\n      tag_447\n      tag_225\n      jump\t// in\n    tag_447:\n        /* \"#utility.yul\":19939:20004   */\n      tag_448\n        /* \"#utility.yul\":19997:20003   */\n      dup2\n        /* \"#utility.yul\":19989:19995   */\n      dup5\n        /* \"#utility.yul\":19983:19987   */\n      dup5\n        /* \"#utility.yul\":19939:20004   */\n      tag_224\n      jump\t// in\n    tag_448:\n        /* \"#utility.yul\":19874:20010   */\n      pop\n        /* \"#utility.yul\":19821:20010   */\n      pop\n      pop\n      jump\t// out\n        /* \"#utility.yul\":20016:20202   */\n    tag_227:\n        /* \"#utility.yul\":20076:20196   */\n    tag_450:\n        /* \"#utility.yul\":20093:20096   */\n      dup2\n        /* \"#utility.yul\":20086:20091   */\n      dup2\n        /* \"#utility.yul\":20083:20097   */\n      lt\n        /* \"#utility.yul\":20076:20196   */\n      iszero\n      tag_452\n      jumpi\n        /* \"#utility.yul\":20147:20186   */\n      tag_453\n        /* \"#utility.yul\":20184:20185   */\n      0x00\n        /* \"#utility.yul\":20177:20182   */\n      dup3\n        /* \"#utility.yul\":20147:20186   */\n      tag_226\n      jump\t// in\n    tag_453:\n        /* \"#utility.yul\":20120:20121   */\n      0x01\n        /* \"#utility.yul\":20113:20118   */\n      dup2\n        /* \"#utility.yul\":20109:20122   */\n      add\n        /* \"#utility.yul\":20100:20122   */\n      swap1\n      pop\n        /* \"#utility.yul\":20076:20196   */\n      jump(tag_450)\n    tag_452:\n        /* \"#utility.yul\":20016:20202   */\n      pop\n      pop\n      jump\t// out\n        /* \"#utility.yul\":20208:20751   */\n    tag_228:\n        /* \"#utility.yul\":20309:20311   */\n      0x1f\n        /* \"#utility.yul\":20304:20307   */\n      dup3\n        /* \"#utility.yul\":20301:20312   */\n      gt\n        /* \"#utility.yul\":20298:20744   */\n      iszero\n      tag_455\n      jumpi\n        /* \"#utility.yul\":20343:20381   */\n      tag_456\n        /* \"#utility.yul\":20375:20380   */\n      dup2\n        /* \"#utility.yul\":20343:20381   */\n      tag_217\n      jump\t// in\n    tag_456:\n        /* \"#utility.yul\":20427:20456   */\n      tag_457\n        /* \"#utility.yul\":20445:20455   */\n      dup5\n        /* \"#utility.yul\":20427:20456   */\n      tag_218\n      jump\t// in\n    tag_457:\n        /* \"#utility.yul\":20417:20425   */\n      dup2\n        /* \"#utility.yul\":20413:20457   */\n      add\n        /* \"#utility.yul\":20610:20612   */\n      0x20\n        /* \"#utility.yul\":20598:20608   */\n      dup6\n        /* \"#utility.yul\":20595:20613   */\n      lt\n        /* \"#utility.yul\":20592:20641   */\n      iszero\n      tag_458\n      jumpi\n        /* \"#utility.yul\":20631:20639   */\n      dup2\n        /* \"#utility.yul\":20616:20639   */\n      swap1\n      pop\n        /* \"#utility.yul\":20592:20641   */\n    tag_458:\n        /* \"#utility.yul\":20654:20734   */\n      tag_459\n        /* \"#utility.yul\":20710:20732   */\n      tag_460\n        /* \"#utility.yul\":20728:20731   */\n      dup6\n        /* \"#utility.yul\":20710:20732   */\n      tag_218\n      jump\t// in\n    tag_460:\n        /* \"#utility.yul\":20700:20708   */\n      dup4\n        /* \"#utility.yul\":20696:20733   */\n      add\n        /* \"#utility.yul\":20683:20694   */\n      dup3\n        /* \"#utility.yul\":20654:20734   */\n      tag_227\n      jump\t// in\n    tag_459:\n        /* \"#utility.yul\":20313:20744   */\n      pop\n      pop\n        /* \"#utility.yul\":20298:20744   */\n    tag_455:\n        /* \"#utility.yul\":20208:20751   */\n      pop\n      pop\n      pop\n      jump\t// out\n        /* \"#utility.yul\":20757:20874   */\n    tag_229:\n        /* \"#utility.yul\":20811:20819   */\n      0x00\n        /* \"#utility.yul\":20861:20866   */\n      dup3\n        /* \"#utility.yul\":20855:20859   */\n      dup3\n        /* \"#utility.yul\":20851:20867   */\n      shr\n        /* \"#utility.yul\":20830:20867   */\n      swap1\n      pop\n        /* \"#utility.yul\":20757:20874   */\n      swap3\n      swap2\n      pop\n      pop\n      jump\t// out\n        /* \"#utility.yul\":20880:21049   */\n    tag_230:\n        /* \"#utility.yul\":20924:20930   */\n      0x00\n        /* \"#utility.yul\":20957:21008   */\n      tag_463\n        /* \"#utility.yul\":21005:21006   */\n      0x00\n        /* \"#utility.yul\":21001:21007   */\n      not\n        /* \"#utility.yul\":20993:20998   */\n      dup5\n        /* \"#utility.yul\":20990:20991   */\n      0x08\n        /* \"#utility.yul\":20986:20999   */\n      mul\n        /* \"#utility.yul\":20957:21008   */\n      tag_229\n      jump\t// in\n    tag_463:\n        /* \"#utility.yul\":20953:21009   */\n      not\n        /* \"#utility.yul\":21038:21042   */\n      dup1\n        /* \"#utility.yul\":21032:21036   */\n      dup4\n        /* \"#utility.yul\":21028:21043   */\n      and\n        /* \"#utility.yul\":21018:21043   */\n      swap2\n      pop\n        /* \"#utility.yul\":20931:21049   */\n      pop\n        /* \"#utility.yul\":20880:21049   */\n      swap3\n      swap2\n      pop\n      pop\n      jump\t// out\n        /* \"#utility.yul\":21054:21349   */\n    tag_231:\n        /* \"#utility.yul\":21130:21134   */\n      0x00\n        /* \"#utility.yul\":21276:21305   */\n      tag_465\n        /* \"#utility.yul\":21301:21304   */\n      dup4\n        /* \"#utility.yul\":21295:21299   */\n      dup4\n        /* \"#utility.yul\":21276:21305   */\n      tag_230\n      jump\t// in\n    tag_465:\n        /* \"#utility.yul\":21268:21305   */\n      swap2\n      pop\n        /* \"#utility.yul\":21338:21341   */\n      dup3\n        /* \"#utility.yul\":21335:21336   */\n      0x02\n        /* \"#utility.yul\":21331:21342   */\n      mul\n        /* \"#utility.yul\":21325:21329   */\n      dup3\n        /* \"#utility.yul\":21322:21343   */\n      or\n        /* \"#utility.yul\":21314:21343   */\n      swap1\n      pop\n        /* \"#utility.yul\":21054:21349   */\n      swap3\n      swap2\n      pop\n      pop\n      jump\t// out\n        /* \"#utility.yul\":21354:22749   */\n    tag_163:\n        /* \"#utility.yul\":21471:21508   */\n      tag_467\n        /* \"#utility.yul\":21504:21507   */\n      dup3\n        /* \"#utility.yul\":21471:21508   */\n      tag_199\n      jump\t// in\n    tag_467:\n        /* \"#utility.yul\":21573:21591   */\n      0xffffffffffffffff\n        /* \"#utility.yul\":21565:21571   */\n      dup2\n        /* \"#utility.yul\":21562:21592   */\n      gt\n        /* \"#utility.yul\":21559:21615   */\n      iszero\n      tag_468\n      jumpi\n        /* \"#utility.yul\":21595:21613   */\n      tag_469\n      tag_126\n      jump\t// in\n    tag_469:\n        /* \"#utility.yul\":21559:21615   */\n    tag_468:\n        /* \"#utility.yul\":21639:21677   */\n      tag_470\n        /* \"#utility.yul\":21671:21675   */\n      dup3\n        /* \"#utility.yul\":21665:21676   */\n      sload\n        /* \"#utility.yul\":21639:21677   */\n      tag_67\n      jump\t// in\n    tag_470:\n        /* \"#utility.yul\":21724:21791   */\n      tag_471\n        /* \"#utility.yul\":21784:21790   */\n      dup3\n        /* \"#utility.yul\":21776:21782   */\n      dup3\n        /* \"#utility.yul\":21770:21774   */\n      dup6\n        /* \"#utility.yul\":21724:21791   */\n      tag_228\n      jump\t// in\n    tag_471:\n        /* \"#utility.yul\":21818:21819   */\n      0x00\n        /* \"#utility.yul\":21842:21846   */\n      0x20\n        /* \"#utility.yul\":21829:21846   */\n      swap1\n      pop\n        /* \"#utility.yul\":21874:21876   */\n      0x1f\n        /* \"#utility.yul\":21866:21872   */\n      dup4\n        /* \"#utility.yul\":21863:21877   */\n      gt\n        /* \"#utility.yul\":21891:21892   */\n      0x01\n        /* \"#utility.yul\":21886:22504   */\n      dup2\n      eq\n      tag_473\n      jumpi\n        /* \"#utility.yul\":22548:22549   */\n      0x00\n        /* \"#utility.yul\":22565:22571   */\n      dup5\n        /* \"#utility.yul\":22562:22639   */\n      iszero\n      tag_474\n      jumpi\n        /* \"#utility.yul\":22614:22623   */\n      dup3\n        /* \"#utility.yul\":22609:22612   */\n      dup8\n        /* \"#utility.yul\":22605:22624   */\n      add\n        /* \"#utility.yul\":22599:22625   */\n      mload\n        /* \"#utility.yul\":22590:22625   */\n      swap1\n      pop\n        /* \"#utility.yul\":22562:22639   */\n    tag_474:\n        /* \"#utility.yul\":22665:22732   */\n      tag_475\n        /* \"#utility.yul\":22725:22731   */\n      dup6\n        /* \"#utility.yul\":22718:22723   */\n      dup3\n        /* \"#utility.yul\":22665:22732   */\n      tag_231\n      jump\t// in\n    tag_475:\n        /* \"#utility.yul\":22659:22663   */\n      dup7\n        /* \"#utility.yul\":22652:22733   */\n      sstore\n        /* \"#utility.yul\":22521:22743   */\n      pop\n        /* \"#utility.yul\":21856:22743   */\n      jump(tag_472)\n        /* \"#utility.yul\":21886:22504   */\n    tag_473:\n        /* \"#utility.yul\":21938:21942   */\n      0x1f\n        /* \"#utility.yul\":21934:21943   */\n      not\n        /* \"#utility.yul\":21926:21932   */\n      dup5\n        /* \"#utility.yul\":21922:21944   */\n      and\n        /* \"#utility.yul\":21972:22009   */\n      tag_476\n        /* \"#utility.yul\":22004:22008   */\n      dup7\n        /* \"#utility.yul\":21972:22009   */\n      tag_217\n      jump\t// in\n    tag_476:\n        /* \"#utility.yul\":22031:22032   */\n      0x00\n        /* \"#utility.yul\":22045:22253   */\n    tag_477:\n        /* \"#utility.yul\":22059:22066   */\n      dup3\n        /* \"#utility.yul\":22056:22057   */\n      dup2\n        /* \"#utility.yul\":22053:22067   */\n      lt\n        /* \"#utility.yul\":22045:22253   */\n      iszero\n      tag_479\n      jumpi\n        /* \"#utility.yul\":22138:22147   */\n      dup5\n        /* \"#utility.yul\":22133:22136   */\n      dup10\n        /* \"#utility.yul\":22129:22148   */\n      add\n        /* \"#utility.yul\":22123:22149   */\n      mload\n        /* \"#utility.yul\":22115:22121   */\n      dup3\n        /* \"#utility.yul\":22108:22150   */\n      sstore\n        /* \"#utility.yul\":22189:22190   */\n      0x01\n        /* \"#utility.yul\":22181:22187   */\n      dup3\n        /* \"#utility.yul\":22177:22191   */\n      add\n        /* \"#utility.yul\":22167:22191   */\n      swap2\n      pop\n        /* \"#utility.yul\":22236:22238   */\n      0x20\n        /* \"#utility.yul\":22225:22234   */\n      dup6\n        /* \"#utility.yul\":22221:22239   */\n      add\n        /* \"#utility.yul\":22208:22239   */\n      swap5\n      pop\n        /* \"#utility.yul\":22082:22086   */\n      0x20\n        /* \"#utility.yul\":22079:22080   */\n      dup2\n        /* \"#utility.yul\":22075:22087   */\n      add\n        /* \"#utility.yul\":22070:22087   */\n      swap1\n      pop\n        /* \"#utility.yul\":22045:22253   */\n      jump(tag_477)\n    tag_479:\n        /* \"#utility.yul\":22281:22287   */\n      dup7\n        /* \"#utility.yul\":22272:22279   */\n      dup4\n        /* \"#utility.yul\":22269:22288   */\n      lt\n        /* \"#utility.yul\":22266:22445   */\n      iszero\n      tag_480\n      jumpi\n        /* \"#utility.yul\":22339:22348   */\n      dup5\n        /* \"#utility.yul\":22334:22337   */\n      dup10\n        /* \"#utility.yul\":22330:22349   */\n      add\n        /* \"#utility.yul\":22324:22350   */\n      mload\n        /* \"#utility.yul\":22382:22430   */\n      tag_481\n        /* \"#utility.yul\":22424:22428   */\n      0x1f\n        /* \"#utility.yul\":22416:22422   */\n      dup10\n        /* \"#utility.yul\":22412:22429   */\n      and\n        /* \"#utility.yul\":22401:22410   */\n      dup3\n        /* \"#utility.yul\":22382:22430   */\n      tag_230\n      jump\t// in\n    tag_481:\n        /* \"#utility.yul\":22374:22380   */\n      dup4\n        /* \"#utility.yul\":22367:22431   */\n      sstore\n        /* \"#utility.yul\":22289:22445   */\n      pop\n        /* \"#utility.yul\":22266:22445   */\n    tag_480:\n        /* \"#utility.yul\":22491:22492   */\n      0x01\n        /* \"#utility.yul\":22487:22488   */\n      0x02\n        /* \"#utility.yul\":22479:22485   */\n      dup9\n        /* \"#utility.yul\":22475:22489   */\n      mul\n        /* \"#utility.yul\":22471:22493   */\n      add\n        /* \"#utility.yul\":22465:22469   */\n      dup9\n        /* \"#utility.yul\":22458:22494   */\n      sstore\n        /* \"#utility.yul\":21893:22504   */\n      pop\n      pop\n      pop\n        /* \"#utility.yul\":21856:22743   */\n    tag_472:\n      pop\n        /* \"#utility.yul\":21446:22749   */\n      pop\n      pop\n      pop\n        /* \"#utility.yul\":21354:22749   */\n      pop\n      pop\n      jump\t// out\n\n    auxdata: 0xa264697066735822122017c01f7f5b63768b5011ba4dc494f1ff253323c6a9eb84cad01a836a78cf03d064736f6c63430008120033\n}\n",
				"bytecode": {
					"linkReferences": {},
					"object": "60806040526040518060800160405280600160ff168152602001600260ff168152602001600360ff168152602001600460ff168152506000906004620000479291906200012f565b5060405180604001604052806040518060400160405280600181526020017f610000000000000000000000000000000000000000000000000000000000000081525081526020016040518060400160405280600181526020017f62000000000000000000000000000000000000000000000000000000000000008152508152506001906002620000d992919062000186565b50348015620000e757600080fd5b5033600260006101000a81548173ffffffffffffffffffffffffffffffffffffffff021916908373ffffffffffffffffffffffffffffffffffffffff160217905550620005d4565b82805482825590600052602060002090810192821562000173579160200282015b8281111562000172578251829060ff1690559160200191906001019062000150565b5b509050620001829190620001e6565b5090565b828054828255906000526020600020908101928215620001d3579160200282015b82811115620001d2578251829081620001c19190620004ed565b5091602001919060010190620001a7565b5b509050620001e2919062000205565b5090565b5b8082111562000201576000816000905550600101620001e7565b5090565b5b808211156200022957600081816200021f91906200022d565b5060010162000206565b5090565b5080546200023b90620002dc565b6000825580601f106200024f575062000270565b601f0160209004906000526020600020908101906200026f9190620001e6565b5b50565b600081519050919050565b7f4e487b7100000000000000000000000000000000000000000000000000000000600052604160045260246000fd5b7f4e487b7100000000000000000000000000000000000000000000000000000000600052602260045260246000fd5b60006002820490506001821680620002f557607f821691505b6020821081036200030b576200030a620002ad565b5b50919050565b60008190508160005260206000209050919050565b60006020601f8301049050919050565b600082821b905092915050565b600060088302620003757fffffffffffffffffffffffffffffffffffffffffffffffffffffffffffffffff8262000336565b62000381868362000336565b95508019841693508086168417925050509392505050565b6000819050919050565b6000819050919050565b6000620003ce620003c8620003c28462000399565b620003a3565b62000399565b9050919050565b6000819050919050565b620003ea83620003ad565b62000402620003f982620003d5565b84845462000343565b825550505050565b600090565b620004196200040a565b62000426818484620003df565b505050565b5b818110156200044e57620004426000826200040f565b6001810190506200042c565b5050565b601f8211156200049d57620004678162000311565b620004728462000326565b8101602085101562000482578190505b6200049a620004918562000326565b8301826200042b565b50505b505050565b600082821c905092915050565b6000620004c260001984600802620004a2565b1980831691505092915050565b6000620004dd8383620004af565b9150826002028217905092915050565b620004f88262000273565b67ffffffffffffffff8111156200051457620005136200027e565b5b620005208254620002dc565b6200052d82828562000452565b600060209050601f83116001811462000565576000841562000550578287015190505b6200055c8582620004cf565b865550620005cc565b601f198416620005758662000311565b60005b828110156200059f5784890151825560018201915060208501945060208101905062000578565b86831015620005bf5784890151620005bb601f891682620004af565b8355505b6001600288020188555050505b505050505050565b6115b580620005e46000396000f3fe60806040526004361061007b5760003560e01c8063c723f14c1161004e578063c723f14c14610174578063d0235b3014610190578063d39fa233146101b9578063e9395679146101f65761007b565b806368c47d191461008057806375d61759146100bd578063a074dc3d146100fa578063a2a0e4c314610137575b600080fd5b34801561008c57600080fd5b506100a760048036038101906100a29190610991565b610233565b6040516100b491906109f7565b60405180910390f35b3480156100c957600080fd5b506100e460048036038101906100df9190610a68565b61034c565b6040516100f191906109f7565b60405180910390f35b34801561010657600080fd5b50610121600480360381019061011c9190610c4c565b6103ca565b60405161012e9190610ce3565b60405180910390f35b34801561014357600080fd5b5061015e60048036038101906101599190610d2a565b610426565b60405161016b9190610dd6565b60405180910390f35b61018e60048036038101906101899190610df8565b6104d2565b005b34801561019c57600080fd5b506101b760048036038101906101b2919061101d565b61050e565b005b3480156101c557600080fd5b506101e060048036038101906101db9190610d2a565b61059a565b6040516101ed91906109f7565b60405180910390f35b34801561020257600080fd5b5061021d60048036038101906102189190610d2a565b6105be565b60405161022a9190610dd6565b60405180910390f35b60008060005b6001805490508110156103415761031a6001828154811061025d5761025c611095565b5b906000526020600020018054610272906110f3565b80601f016020809104026020016040519081016040528092919081815260200182805461029e906110f3565b80156102eb5780601f106102c0576101008083540402835291602001916102eb565b820191906000526020600020905b8154815290600101906020018083116102ce57829003601f168201915b505050505086868481811061030357610302611095565b5b90506020028101906103159190611133565b6103ca565b1561032e57818061032a906111c5565b9250505b8080610339906111c5565b915050610239565b508091505092915050565b60008060005b6000805490508110156103bf5784848281811061037257610371611095565b5b905060200201356000828154811061038d5761038c611095565b5b9060005260206000200154036103ac5781806103a8906111c5565b9250505b80806103b7906111c5565b915050610352565b508091505092915050565b600082826040516020016103df92919061123d565b60405160208183030381529060405280519060200120846040516020016104069190611287565b604051602081830303815290604052805190602001201490509392505050565b6001818154811061043657600080fd5b906000526020600020016000915090508054610451906110f3565b80601f016020809104026020016040519081016040528092919081815260200182805461047d906110f3565b80156104ca5780601f1061049f576101008083540402835291602001916104ca565b820191906000526020600020905b8154815290600101906020018083116104ad57829003601f168201915b505050505081565b66b1a2bc2ec5000034146104e557600080fd5b60006104f18383610233565b6104fb868661034c565b610505919061129e565b90505050505050565b3373ffffffffffffffffffffffffffffffffffffffff16600260009054906101000a900473ffffffffffffffffffffffffffffffffffffffff1673ffffffffffffffffffffffffffffffffffffffff161461056857600080fd5b816000908051906020019061057e9291906107f1565b50806001908051906020019061059592919061083e565b505050565b600081815481106105aa57600080fd5b906000526020600020016000915090505481565b60606105c9826105d0565b9050919050565b6060600060016105df8461069e565b01905060008167ffffffffffffffff8111156105fe576105fd610acb565b5b6040519080825280601f01601f1916602001820160405280156106305781602001600182028036833780820191505090505b509050600082602001820190505b600115610693578080600190039150507f3031323334353637383961626364656600000000000000000000000000000000600a86061a8153600a8581610687576106866112d2565b5b0494506000850361063e575b819350505050919050565b600080600090507a184f03e93ff9f4daa797ed6e38ed64bf6a1f01000000000000000083106106fc577a184f03e93ff9f4daa797ed6e38ed64bf6a1f01000000000000000083816106f2576106f16112d2565b5b0492506040810190505b6d04ee2d6d415b85acef81000000008310610739576d04ee2d6d415b85acef8100000000838161072f5761072e6112d2565b5b0492506020810190505b662386f26fc10000831061076857662386f26fc10000838161075e5761075d6112d2565b5b0492506010810190505b6305f5e1008310610791576305f5e1008381610787576107866112d2565b5b0492506008810190505b61271083106107b65761271083816107ac576107ab6112d2565b5b0492506004810190505b606483106107d957606483816107cf576107ce6112d2565b5b0492506002810190505b600a83106107e8576001810190505b80915050919050565b82805482825590600052602060002090810192821561082d579160200282015b8281111561082c578251825591602001919060010190610811565b5b50905061083a9190610897565b5090565b828054828255906000526020600020908101928215610886579160200282015b8281111561088557825182908161087591906114ad565b509160200191906001019061085e565b5b50905061089391906108b4565b5090565b5b808211156108b0576000816000905550600101610898565b5090565b5b808211156108d457600081816108cb91906108d8565b506001016108b5565b5090565b5080546108e4906110f3565b6000825580601f106108f65750610915565b601f0160209004906000526020600020908101906109149190610897565b5b50565b6000604051905090565b600080fd5b600080fd5b600080fd5b600080fd5b600080fd5b60008083601f8401126109515761095061092c565b5b8235905067ffffffffffffffff81111561096e5761096d610931565b5b60208301915083602082028301111561098a57610989610936565b5b9250929050565b600080602083850312156109a8576109a7610922565b5b600083013567ffffffffffffffff8111156109c6576109c5610927565b5b6109d28582860161093b565b92509250509250929050565b6000819050919050565b6109f1816109de565b82525050565b6000602082019050610a0c60008301846109e8565b92915050565b60008083601f840112610a2857610a2761092c565b5b8235905067ffffffffffffffff811115610a4557610a44610931565b5b602083019150836020820283011115610a6157610a60610936565b5b9250929050565b60008060208385031215610a7f57610a7e610922565b5b600083013567ffffffffffffffff811115610a9d57610a9c610927565b5b610aa985828601610a12565b92509250509250929050565b600080fd5b6000601f19601f8301169050919050565b7f4e487b7100000000000000000000000000000000000000000000000000000000600052604160045260246000fd5b610b0382610aba565b810181811067ffffffffffffffff82111715610b2257610b21610acb565b5b80604052505050565b6000610b35610918565b9050610b418282610afa565b919050565b600067ffffffffffffffff821115610b6157610b60610acb565b5b610b6a82610aba565b9050602081019050919050565b82818337600083830152505050565b6000610b99610b9484610b46565b610b2b565b905082815260208101848484011115610bb557610bb4610ab5565b5b610bc0848285610b77565b509392505050565b600082601f830112610bdd57610bdc61092c565b5b8135610bed848260208601610b86565b91505092915050565b60008083601f840112610c0c57610c0b61092c565b5b8235905067ffffffffffffffff811115610c2957610c28610931565b5b602083019150836001820283011115610c4557610c44610936565b5b9250929050565b600080600060408486031215610c6557610c64610922565b5b600084013567ffffffffffffffff811115610c8357610c82610927565b5b610c8f86828701610bc8565b935050602084013567ffffffffffffffff811115610cb057610caf610927565b5b610cbc86828701610bf6565b92509250509250925092565b60008115159050919050565b610cdd81610cc8565b82525050565b6000602082019050610cf86000830184610cd4565b92915050565b610d07816109de565b8114610d1257600080fd5b50565b600081359050610d2481610cfe565b92915050565b600060208284031215610d4057610d3f610922565b5b6000610d4e84828501610d15565b91505092915050565b600081519050919050565b600082825260208201905092915050565b60005b83811015610d91578082015181840152602081019050610d76565b60008484015250505050565b6000610da882610d57565b610db28185610d62565b9350610dc2818560208601610d73565b610dcb81610aba565b840191505092915050565b60006020820190508181036000830152610df08184610d9d565b905092915050565b60008060008060408587031215610e1257610e11610922565b5b600085013567ffffffffffffffff811115610e3057610e2f610927565b5b610e3c87828801610a12565b9450945050602085013567ffffffffffffffff811115610e5f57610e5e610927565b5b610e6b8782880161093b565b925092505092959194509250565b600067ffffffffffffffff821115610e9457610e93610acb565b5b602082029050602081019050919050565b6000610eb8610eb384610e79565b610b2b565b90508083825260208201905060208402830185811115610edb57610eda610936565b5b835b81811015610f045780610ef08882610d15565b845260208401935050602081019050610edd565b5050509392505050565b600082601f830112610f2357610f2261092c565b5b8135610f33848260208601610ea5565b91505092915050565b600067ffffffffffffffff821115610f5757610f56610acb565b5b602082029050602081019050919050565b6000610f7b610f7684610f3c565b610b2b565b90508083825260208201905060208402830185811115610f9e57610f9d610936565b5b835b81811015610fe557803567ffffffffffffffff811115610fc357610fc261092c565b5b808601610fd08982610bc8565b85526020850194505050602081019050610fa0565b5050509392505050565b600082601f8301126110045761100361092c565b5b8135611014848260208601610f68565b91505092915050565b6000806040838503121561103457611033610922565b5b600083013567ffffffffffffffff81111561105257611051610927565b5b61105e85828601610f0e565b925050602083013567ffffffffffffffff81111561107f5761107e610927565b5b61108b85828601610fef565b9150509250929050565b7f4e487b7100000000000000000000000000000000000000000000000000000000600052603260045260246000fd5b7f4e487b7100000000000000000000000000000000000000000000000000000000600052602260045260246000fd5b6000600282049050600182168061110b57607f821691505b60208210810361111e5761111d6110c4565b5b50919050565b600080fd5b600080fd5b600080fd5b600080833560016020038436030381126111505761114f611124565b5b80840192508235915067ffffffffffffffff82111561117257611171611129565b5b60208301925060018202360383131561118e5761118d61112e565b5b509250929050565b7f4e487b7100000000000000000000000000000000000000000000000000000000600052601160045260246000fd5b60006111d0826109de565b91507fffffffffffffffffffffffffffffffffffffffffffffffffffffffffffffffff820361120257611201611196565b5b600182019050919050565b600081905092915050565b6000611224838561120d565b9350611231838584610b77565b82840190509392505050565b600061124a828486611218565b91508190509392505050565b600061126182610d57565b61126b818561120d565b935061127b818560208601610d73565b80840191505092915050565b60006112938284611256565b915081905092915050565b60006112a9826109de565b91506112b4836109de565b92508282019050808211156112cc576112cb611196565b5b92915050565b7f4e487b7100000000000000000000000000000000000000000000000000000000600052601260045260246000fd5b60008190508160005260206000209050919050565b60006020601f8301049050919050565b600082821b905092915050565b6000600883026113637fffffffffffffffffffffffffffffffffffffffffffffffffffffffffffffffff82611326565b61136d8683611326565b95508019841693508086168417925050509392505050565b6000819050919050565b60006113aa6113a56113a0846109de565b611385565b6109de565b9050919050565b6000819050919050565b6113c48361138f565b6113d86113d0826113b1565b848454611333565b825550505050565b600090565b6113ed6113e0565b6113f88184846113bb565b505050565b5b8181101561141c576114116000826113e5565b6001810190506113fe565b5050565b601f8211156114615761143281611301565b61143b84611316565b8101602085101561144a578190505b61145e61145685611316565b8301826113fd565b50505b505050565b600082821c905092915050565b600061148460001984600802611466565b1980831691505092915050565b600061149d8383611473565b9150826002028217905092915050565b6114b682610d57565b67ffffffffffffffff8111156114cf576114ce610acb565b5b6114d982546110f3565b6114e4828285611420565b600060209050601f8311600181146115175760008415611505578287015190505b61150f8582611491565b865550611577565b601f19841661152586611301565b60005b8281101561154d57848901518255600182019150602085019450602081019050611528565b8683101561156a5784890151611566601f891682611473565b8355505b6001600288020188555050505b50505050505056fea264697066735822122017c01f7f5b63768b5011ba4dc494f1ff253323c6a9eb84cad01a836a78cf03d064736f6c63430008120033",
					"opcodes": "PUSH1 0x80 PUSH1 0x40 MSTORE PUSH1 0x40 MLOAD DUP1 PUSH1 0x80 ADD PUSH1 0x40 MSTORE DUP1 PUSH1 0x1 PUSH1 0xFF AND DUP2 MSTORE PUSH1 0x20 ADD PUSH1 0x2 PUSH1 0xFF AND DUP2 MSTORE PUSH1 0x20 ADD PUSH1 0x3 PUSH1 0xFF AND DUP2 MSTORE PUSH1 0x20 ADD PUSH1 0x4 PUSH1 0xFF AND DUP2 MSTORE POP PUSH1 0x0 SWAP1 PUSH1 0x4 PUSH3 0x47 SWAP3 SWAP2 SWAP1 PUSH3 0x12F JUMP JUMPDEST POP PUSH1 0x40 MLOAD DUP1 PUSH1 0x40 ADD PUSH1 0x40 MSTORE DUP1 PUSH1 0x40 MLOAD DUP1 PUSH1 0x40 ADD PUSH1 0x40 MSTORE DUP1 PUSH1 0x1 DUP2 MSTORE PUSH1 0x20 ADD PUSH32 0x6100000000000000000000000000000000000000000000000000000000000000 DUP2 MSTORE POP DUP2 MSTORE PUSH1 0x20 ADD PUSH1 0x40 MLOAD DUP1 PUSH1 0x40 ADD PUSH1 0x40 MSTORE DUP1 PUSH1 0x1 DUP2 MSTORE PUSH1 0x20 ADD PUSH32 0x6200000000000000000000000000000000000000000000000000000000000000 DUP2 MSTORE POP DUP2 MSTORE POP PUSH1 0x1 SWAP1 PUSH1 0x2 PUSH3 0xD9 SWAP3 SWAP2 SWAP1 PUSH3 0x186 JUMP JUMPDEST POP CALLVALUE DUP1 ISZERO PUSH3 0xE7 JUMPI PUSH1 0x0 DUP1 REVERT JUMPDEST POP CALLER PUSH1 0x2 PUSH1 0x0 PUSH2 0x100 EXP DUP2 SLOAD DUP2 PUSH20 0xFFFFFFFFFFFFFFFFFFFFFFFFFFFFFFFFFFFFFFFF MUL NOT AND SWAP1 DUP4 PUSH20 0xFFFFFFFFFFFFFFFFFFFFFFFFFFFFFFFFFFFFFFFF AND MUL OR SWAP1 SSTORE POP PUSH3 0x5D4 JUMP JUMPDEST DUP3 DUP1 SLOAD DUP3 DUP3 SSTORE SWAP1 PUSH1 0x0 MSTORE PUSH1 0x20 PUSH1 0x0 KECCAK256 SWAP1 DUP2 ADD SWAP3 DUP3 ISZERO PUSH3 0x173 JUMPI SWAP2 PUSH1 0x20 MUL DUP3 ADD JUMPDEST DUP3 DUP2 GT ISZERO PUSH3 0x172 JUMPI DUP3 MLOAD DUP3 SWAP1 PUSH1 0xFF AND SWAP1 SSTORE SWAP2 PUSH1 0x20 ADD SWAP2 SWAP1 PUSH1 0x1 ADD SWAP1 PUSH3 0x150 JUMP JUMPDEST JUMPDEST POP SWAP1 POP PUSH3 0x182 SWAP2 SWAP1 PUSH3 0x1E6 JUMP JUMPDEST POP SWAP1 JUMP JUMPDEST DUP3 DUP1 SLOAD DUP3 DUP3 SSTORE SWAP1 PUSH1 0x0 MSTORE PUSH1 0x20 PUSH1 0x0 KECCAK256 SWAP1 DUP2 ADD SWAP3 DUP3 ISZERO PUSH3 0x1D3 JUMPI SWAP2 PUSH1 0x20 MUL DUP3 ADD JUMPDEST DUP3 DUP2 GT ISZERO PUSH3 0x1D2 JUMPI DUP3 MLOAD DUP3 SWAP1 DUP2 PUSH3 0x1C1 SWAP2 SWAP1 PUSH3 0x4ED JUMP JUMPDEST POP SWAP2 PUSH1 0x20 ADD SWAP2 SWAP1 PUSH1 0x1 ADD SWAP1 PUSH3 0x1A7 JUMP JUMPDEST JUMPDEST POP SWAP1 POP PUSH3 0x1E2 SWAP2 SWAP1 PUSH3 0x205 JUMP JUMPDEST POP SWAP1 JUMP JUMPDEST JUMPDEST DUP1 DUP3 GT ISZERO PUSH3 0x201 JUMPI PUSH1 0x0 DUP2 PUSH1 0x0 SWAP1 SSTORE POP PUSH1 0x1 ADD PUSH3 0x1E7 JUMP JUMPDEST POP SWAP1 JUMP JUMPDEST JUMPDEST DUP1 DUP3 GT ISZERO PUSH3 0x229 JUMPI PUSH1 0x0 DUP2 DUP2 PUSH3 0x21F SWAP2 SWAP1 PUSH3 0x22D JUMP JUMPDEST POP PUSH1 0x1 ADD PUSH3 0x206 JUMP JUMPDEST POP SWAP1 JUMP JUMPDEST POP DUP1 SLOAD PUSH3 0x23B SWAP1 PUSH3 0x2DC JUMP JUMPDEST PUSH1 0x0 DUP3 SSTORE DUP1 PUSH1 0x1F LT PUSH3 0x24F JUMPI POP PUSH3 0x270 JUMP JUMPDEST PUSH1 0x1F ADD PUSH1 0x20 SWAP1 DIV SWAP1 PUSH1 0x0 MSTORE PUSH1 0x20 PUSH1 0x0 KECCAK256 SWAP1 DUP2 ADD SWAP1 PUSH3 0x26F SWAP2 SWAP1 PUSH3 0x1E6 JUMP JUMPDEST JUMPDEST POP JUMP JUMPDEST PUSH1 0x0 DUP2 MLOAD SWAP1 POP SWAP2 SWAP1 POP JUMP JUMPDEST PUSH32 0x4E487B7100000000000000000000000000000000000000000000000000000000 PUSH1 0x0 MSTORE PUSH1 0x41 PUSH1 0x4 MSTORE PUSH1 0x24 PUSH1 0x0 REVERT JUMPDEST PUSH32 0x4E487B7100000000000000000000000000000000000000000000000000000000 PUSH1 0x0 MSTORE PUSH1 0x22 PUSH1 0x4 MSTORE PUSH1 0x24 PUSH1 0x0 REVERT JUMPDEST PUSH1 0x0 PUSH1 0x2 DUP3 DIV SWAP1 POP PUSH1 0x1 DUP3 AND DUP1 PUSH3 0x2F5 JUMPI PUSH1 0x7F DUP3 AND SWAP2 POP JUMPDEST PUSH1 0x20 DUP3 LT DUP2 SUB PUSH3 0x30B JUMPI PUSH3 0x30A PUSH3 0x2AD JUMP JUMPDEST JUMPDEST POP SWAP2 SWAP1 POP JUMP JUMPDEST PUSH1 0x0 DUP2 SWAP1 POP DUP2 PUSH1 0x0 MSTORE PUSH1 0x20 PUSH1 0x0 KECCAK256 SWAP1 POP SWAP2 SWAP1 POP JUMP JUMPDEST PUSH1 0x0 PUSH1 0x20 PUSH1 0x1F DUP4 ADD DIV SWAP1 POP SWAP2 SWAP1 POP JUMP JUMPDEST PUSH1 0x0 DUP3 DUP3 SHL SWAP1 POP SWAP3 SWAP2 POP POP JUMP JUMPDEST PUSH1 0x0 PUSH1 0x8 DUP4 MUL PUSH3 0x375 PUSH32 0xFFFFFFFFFFFFFFFFFFFFFFFFFFFFFFFFFFFFFFFFFFFFFFFFFFFFFFFFFFFFFFFF DUP3 PUSH3 0x336 JUMP JUMPDEST PUSH3 0x381 DUP7 DUP4 PUSH3 0x336 JUMP JUMPDEST SWAP6 POP DUP1 NOT DUP5 AND SWAP4 POP DUP1 DUP7 AND DUP5 OR SWAP3 POP POP POP SWAP4 SWAP3 POP POP POP JUMP JUMPDEST PUSH1 0x0 DUP2 SWAP1 POP SWAP2 SWAP1 POP JUMP JUMPDEST PUSH1 0x0 DUP2 SWAP1 POP SWAP2 SWAP1 POP JUMP JUMPDEST PUSH1 0x0 PUSH3 0x3CE PUSH3 0x3C8 PUSH3 0x3C2 DUP5 PUSH3 0x399 JUMP JUMPDEST PUSH3 0x3A3 JUMP JUMPDEST PUSH3 0x399 JUMP JUMPDEST SWAP1 POP SWAP2 SWAP1 POP JUMP JUMPDEST PUSH1 0x0 DUP2 SWAP1 POP SWAP2 SWAP1 POP JUMP JUMPDEST PUSH3 0x3EA DUP4 PUSH3 0x3AD JUMP JUMPDEST PUSH3 0x402 PUSH3 0x3F9 DUP3 PUSH3 0x3D5 JUMP JUMPDEST DUP5 DUP5 SLOAD PUSH3 0x343 JUMP JUMPDEST DUP3 SSTORE POP POP POP POP JUMP JUMPDEST PUSH1 0x0 SWAP1 JUMP JUMPDEST PUSH3 0x419 PUSH3 0x40A JUMP JUMPDEST PUSH3 0x426 DUP2 DUP5 DUP5 PUSH3 0x3DF JUMP JUMPDEST POP POP POP JUMP JUMPDEST JUMPDEST DUP2 DUP2 LT ISZERO PUSH3 0x44E JUMPI PUSH3 0x442 PUSH1 0x0 DUP3 PUSH3 0x40F JUMP JUMPDEST PUSH1 0x1 DUP2 ADD SWAP1 POP PUSH3 0x42C JUMP JUMPDEST POP POP JUMP JUMPDEST PUSH1 0x1F DUP3 GT ISZERO PUSH3 0x49D JUMPI PUSH3 0x467 DUP2 PUSH3 0x311 JUMP JUMPDEST PUSH3 0x472 DUP5 PUSH3 0x326 JUMP JUMPDEST DUP2 ADD PUSH1 0x20 DUP6 LT ISZERO PUSH3 0x482 JUMPI DUP2 SWAP1 POP JUMPDEST PUSH3 0x49A PUSH3 0x491 DUP6 PUSH3 0x326 JUMP JUMPDEST DUP4 ADD DUP3 PUSH3 0x42B JUMP JUMPDEST POP POP JUMPDEST POP POP POP JUMP JUMPDEST PUSH1 0x0 DUP3 DUP3 SHR SWAP1 POP SWAP3 SWAP2 POP POP JUMP JUMPDEST PUSH1 0x0 PUSH3 0x4C2 PUSH1 0x0 NOT DUP5 PUSH1 0x8 MUL PUSH3 0x4A2 JUMP JUMPDEST NOT DUP1 DUP4 AND SWAP2 POP POP SWAP3 SWAP2 POP POP JUMP JUMPDEST PUSH1 0x0 PUSH3 0x4DD DUP4 DUP4 PUSH3 0x4AF JUMP JUMPDEST SWAP2 POP DUP3 PUSH1 0x2 MUL DUP3 OR SWAP1 POP SWAP3 SWAP2 POP POP JUMP JUMPDEST PUSH3 0x4F8 DUP3 PUSH3 0x273 JUMP JUMPDEST PUSH8 0xFFFFFFFFFFFFFFFF DUP2 GT ISZERO PUSH3 0x514 JUMPI PUSH3 0x513 PUSH3 0x27E JUMP JUMPDEST JUMPDEST PUSH3 0x520 DUP3 SLOAD PUSH3 0x2DC JUMP JUMPDEST PUSH3 0x52D DUP3 DUP3 DUP6 PUSH3 0x452 JUMP JUMPDEST PUSH1 0x0 PUSH1 0x20 SWAP1 POP PUSH1 0x1F DUP4 GT PUSH1 0x1 DUP2 EQ PUSH3 0x565 JUMPI PUSH1 0x0 DUP5 ISZERO PUSH3 0x550 JUMPI DUP3 DUP8 ADD MLOAD SWAP1 POP JUMPDEST PUSH3 0x55C DUP6 DUP3 PUSH3 0x4CF JUMP JUMPDEST DUP7 SSTORE POP PUSH3 0x5CC JUMP JUMPDEST PUSH1 0x1F NOT DUP5 AND PUSH3 0x575 DUP7 PUSH3 0x311 JUMP JUMPDEST PUSH1 0x0 JUMPDEST DUP3 DUP2 LT ISZERO PUSH3 0x59F JUMPI DUP5 DUP10 ADD MLOAD DUP3 SSTORE PUSH1 0x1 DUP3 ADD SWAP2 POP PUSH1 0x20 DUP6 ADD SWAP5 POP PUSH1 0x20 DUP2 ADD SWAP1 POP PUSH3 0x578 JUMP JUMPDEST DUP7 DUP4 LT ISZERO PUSH3 0x5BF JUMPI DUP5 DUP10 ADD MLOAD PUSH3 0x5BB PUSH1 0x1F DUP10 AND DUP3 PUSH3 0x4AF JUMP JUMPDEST DUP4 SSTORE POP JUMPDEST PUSH1 0x1 PUSH1 0x2 DUP9 MUL ADD DUP9 SSTORE POP POP POP JUMPDEST POP POP POP POP POP POP JUMP JUMPDEST PUSH2 0x15B5 DUP1 PUSH3 0x5E4 PUSH1 0x0 CODECOPY PUSH1 0x0 RETURN INVALID PUSH1 0x80 PUSH1 0x40 MSTORE PUSH1 0x4 CALLDATASIZE LT PUSH2 0x7B JUMPI PUSH1 0x0 CALLDATALOAD PUSH1 0xE0 SHR DUP1 PUSH4 0xC723F14C GT PUSH2 0x4E JUMPI DUP1 PUSH4 0xC723F14C EQ PUSH2 0x174 JUMPI DUP1 PUSH4 0xD0235B30 EQ PUSH2 0x190 JUMPI DUP1 PUSH4 0xD39FA233 EQ PUSH2 0x1B9 JUMPI DUP1 PUSH4 0xE9395679 EQ PUSH2 0x1F6 JUMPI PUSH2 0x7B JUMP JUMPDEST DUP1 PUSH4 0x68C47D19 EQ PUSH2 0x80 JUMPI DUP1 PUSH4 0x75D61759 EQ PUSH2 0xBD JUMPI DUP1 PUSH4 0xA074DC3D EQ PUSH2 0xFA JUMPI DUP1 PUSH4 0xA2A0E4C3 EQ PUSH2 0x137 JUMPI JUMPDEST PUSH1 0x0 DUP1 REVERT JUMPDEST CALLVALUE DUP1 ISZERO PUSH2 0x8C JUMPI PUSH1 0x0 DUP1 REVERT JUMPDEST POP PUSH2 0xA7 PUSH1 0x4 DUP1 CALLDATASIZE SUB DUP2 ADD SWAP1 PUSH2 0xA2 SWAP2 SWAP1 PUSH2 0x991 JUMP JUMPDEST PUSH2 0x233 JUMP JUMPDEST PUSH1 0x40 MLOAD PUSH2 0xB4 SWAP2 SWAP1 PUSH2 0x9F7 JUMP JUMPDEST PUSH1 0x40 MLOAD DUP1 SWAP2 SUB SWAP1 RETURN JUMPDEST CALLVALUE DUP1 ISZERO PUSH2 0xC9 JUMPI PUSH1 0x0 DUP1 REVERT JUMPDEST POP PUSH2 0xE4 PUSH1 0x4 DUP1 CALLDATASIZE SUB DUP2 ADD SWAP1 PUSH2 0xDF SWAP2 SWAP1 PUSH2 0xA68 JUMP JUMPDEST PUSH2 0x34C JUMP JUMPDEST PUSH1 0x40 MLOAD PUSH2 0xF1 SWAP2 SWAP1 PUSH2 0x9F7 JUMP JUMPDEST PUSH1 0x40 MLOAD DUP1 SWAP2 SUB SWAP1 RETURN JUMPDEST CALLVALUE DUP1 ISZERO PUSH2 0x106 JUMPI PUSH1 0x0 DUP1 REVERT JUMPDEST POP PUSH2 0x121 PUSH1 0x4 DUP1 CALLDATASIZE SUB DUP2 ADD SWAP1 PUSH2 0x11C SWAP2 SWAP1 PUSH2 0xC4C JUMP JUMPDEST PUSH2 0x3CA JUMP JUMPDEST PUSH1 0x40 MLOAD PUSH2 0x12E SWAP2 SWAP1 PUSH2 0xCE3 JUMP JUMPDEST PUSH1 0x40 MLOAD DUP1 SWAP2 SUB SWAP1 RETURN JUMPDEST CALLVALUE DUP1 ISZERO PUSH2 0x143 JUMPI PUSH1 0x0 DUP1 REVERT JUMPDEST POP PUSH2 0x15E PUSH1 0x4 DUP1 CALLDATASIZE SUB DUP2 ADD SWAP1 PUSH2 0x159 SWAP2 SWAP1 PUSH2 0xD2A JUMP JUMPDEST PUSH2 0x426 JUMP JUMPDEST PUSH1 0x40 MLOAD PUSH2 0x16B SWAP2 SWAP1 PUSH2 0xDD6 JUMP JUMPDEST PUSH1 0x40 MLOAD DUP1 SWAP2 SUB SWAP1 RETURN JUMPDEST PUSH2 0x18E PUSH1 0x4 DUP1 CALLDATASIZE SUB DUP2 ADD SWAP1 PUSH2 0x189 SWAP2 SWAP1 PUSH2 0xDF8 JUMP JUMPDEST PUSH2 0x4D2 JUMP JUMPDEST STOP JUMPDEST CALLVALUE DUP1 ISZERO PUSH2 0x19C JUMPI PUSH1 0x0 DUP1 REVERT JUMPDEST POP PUSH2 0x1B7 PUSH1 0x4 DUP1 CALLDATASIZE SUB DUP2 ADD SWAP1 PUSH2 0x1B2 SWAP2 SWAP1 PUSH2 0x101D JUMP JUMPDEST PUSH2 0x50E JUMP JUMPDEST STOP JUMPDEST CALLVALUE DUP1 ISZERO PUSH2 0x1C5 JUMPI PUSH1 0x0 DUP1 REVERT JUMPDEST POP PUSH2 0x1E0 PUSH1 0x4 DUP1 CALLDATASIZE SUB DUP2 ADD SWAP1 PUSH2 0x1DB SWAP2 SWAP1 PUSH2 0xD2A JUMP JUMPDEST PUSH2 0x59A JUMP JUMPDEST PUSH1 0x40 MLOAD PUSH2 0x1ED SWAP2 SWAP1 PUSH2 0x9F7 JUMP JUMPDEST PUSH1 0x40 MLOAD DUP1 SWAP2 SUB SWAP1 RETURN JUMPDEST CALLVALUE DUP1 ISZERO PUSH2 0x202 JUMPI PUSH1 0x0 DUP1 REVERT JUMPDEST POP PUSH2 0x21D PUSH1 0x4 DUP1 CALLDATASIZE SUB DUP2 ADD SWAP1 PUSH2 0x218 SWAP2 SWAP1 PUSH2 0xD2A JUMP JUMPDEST PUSH2 0x5BE JUMP JUMPDEST PUSH1 0x40 MLOAD PUSH2 0x22A SWAP2 SWAP1 PUSH2 0xDD6 JUMP JUMPDEST PUSH1 0x40 MLOAD DUP1 SWAP2 SUB SWAP1 RETURN JUMPDEST PUSH1 0x0 DUP1 PUSH1 0x0 JUMPDEST PUSH1 0x1 DUP1 SLOAD SWAP1 POP DUP2 LT ISZERO PUSH2 0x341 JUMPI PUSH2 0x31A PUSH1 0x1 DUP3 DUP2 SLOAD DUP2 LT PUSH2 0x25D JUMPI PUSH2 0x25C PUSH2 0x1095 JUMP JUMPDEST JUMPDEST SWAP1 PUSH1 0x0 MSTORE PUSH1 0x20 PUSH1 0x0 KECCAK256 ADD DUP1 SLOAD PUSH2 0x272 SWAP1 PUSH2 0x10F3 JUMP JUMPDEST DUP1 PUSH1 0x1F ADD PUSH1 0x20 DUP1 SWAP2 DIV MUL PUSH1 0x20 ADD PUSH1 0x40 MLOAD SWAP1 DUP2 ADD PUSH1 0x40 MSTORE DUP1 SWAP3 SWAP2 SWAP1 DUP2 DUP2 MSTORE PUSH1 0x20 ADD DUP3 DUP1 SLOAD PUSH2 0x29E SWAP1 PUSH2 0x10F3 JUMP JUMPDEST DUP1 ISZERO PUSH2 0x2EB JUMPI DUP1 PUSH1 0x1F LT PUSH2 0x2C0 JUMPI PUSH2 0x100 DUP1 DUP4 SLOAD DIV MUL DUP4 MSTORE SWAP2 PUSH1 0x20 ADD SWAP2 PUSH2 0x2EB JUMP JUMPDEST DUP3 ADD SWAP2 SWAP1 PUSH1 0x0 MSTORE PUSH1 0x20 PUSH1 0x0 KECCAK256 SWAP1 JUMPDEST DUP2 SLOAD DUP2 MSTORE SWAP1 PUSH1 0x1 ADD SWAP1 PUSH1 0x20 ADD DUP1 DUP4 GT PUSH2 0x2CE JUMPI DUP3 SWAP1 SUB PUSH1 0x1F AND DUP3 ADD SWAP2 JUMPDEST POP POP POP POP POP DUP7 DUP7 DUP5 DUP2 DUP2 LT PUSH2 0x303 JUMPI PUSH2 0x302 PUSH2 0x1095 JUMP JUMPDEST JUMPDEST SWAP1 POP PUSH1 0x20 MUL DUP2 ADD SWAP1 PUSH2 0x315 SWAP2 SWAP1 PUSH2 0x1133 JUMP JUMPDEST PUSH2 0x3CA JUMP JUMPDEST ISZERO PUSH2 0x32E JUMPI DUP2 DUP1 PUSH2 0x32A SWAP1 PUSH2 0x11C5 JUMP JUMPDEST SWAP3 POP POP JUMPDEST DUP1 DUP1 PUSH2 0x339 SWAP1 PUSH2 0x11C5 JUMP JUMPDEST SWAP2 POP POP PUSH2 0x239 JUMP JUMPDEST POP DUP1 SWAP2 POP POP SWAP3 SWAP2 POP POP JUMP JUMPDEST PUSH1 0x0 DUP1 PUSH1 0x0 JUMPDEST PUSH1 0x0 DUP1 SLOAD SWAP1 POP DUP2 LT ISZERO PUSH2 0x3BF JUMPI DUP5 DUP5 DUP3 DUP2 DUP2 LT PUSH2 0x372 JUMPI PUSH2 0x371 PUSH2 0x1095 JUMP JUMPDEST JUMPDEST SWAP1 POP PUSH1 0x20 MUL ADD CALLDATALOAD PUSH1 0x0 DUP3 DUP2 SLOAD DUP2 LT PUSH2 0x38D JUMPI PUSH2 0x38C PUSH2 0x1095 JUMP JUMPDEST JUMPDEST SWAP1 PUSH1 0x0 MSTORE PUSH1 0x20 PUSH1 0x0 KECCAK256 ADD SLOAD SUB PUSH2 0x3AC JUMPI DUP2 DUP1 PUSH2 0x3A8 SWAP1 PUSH2 0x11C5 JUMP JUMPDEST SWAP3 POP POP JUMPDEST DUP1 DUP1 PUSH2 0x3B7 SWAP1 PUSH2 0x11C5 JUMP JUMPDEST SWAP2 POP POP PUSH2 0x352 JUMP JUMPDEST POP DUP1 SWAP2 POP POP SWAP3 SWAP2 POP POP JUMP JUMPDEST PUSH1 0x0 DUP3 DUP3 PUSH1 0x40 MLOAD PUSH1 0x20 ADD PUSH2 0x3DF SWAP3 SWAP2 SWAP1 PUSH2 0x123D JUMP JUMPDEST PUSH1 0x40 MLOAD PUSH1 0x20 DUP2 DUP4 SUB SUB DUP2 MSTORE SWAP1 PUSH1 0x40 MSTORE DUP1 MLOAD SWAP1 PUSH1 0x20 ADD KECCAK256 DUP5 PUSH1 0x40 MLOAD PUSH1 0x20 ADD PUSH2 0x406 SWAP2 SWAP1 PUSH2 0x1287 JUMP JUMPDEST PUSH1 0x40 MLOAD PUSH1 0x20 DUP2 DUP4 SUB SUB DUP2 MSTORE SWAP1 PUSH1 0x40 MSTORE DUP1 MLOAD SWAP1 PUSH1 0x20 ADD KECCAK256 EQ SWAP1 POP SWAP4 SWAP3 POP POP POP JUMP JUMPDEST PUSH1 0x1 DUP2 DUP2 SLOAD DUP2 LT PUSH2 0x436 JUMPI PUSH1 0x0 DUP1 REVERT JUMPDEST SWAP1 PUSH1 0x0 MSTORE PUSH1 0x20 PUSH1 0x0 KECCAK256 ADD PUSH1 0x0 SWAP2 POP SWAP1 POP DUP1 SLOAD PUSH2 0x451 SWAP1 PUSH2 0x10F3 JUMP JUMPDEST DUP1 PUSH1 0x1F ADD PUSH1 0x20 DUP1 SWAP2 DIV MUL PUSH1 0x20 ADD PUSH1 0x40 MLOAD SWAP1 DUP2 ADD PUSH1 0x40 MSTORE DUP1 SWAP3 SWAP2 SWAP1 DUP2 DUP2 MSTORE PUSH1 0x20 ADD DUP3 DUP1 SLOAD PUSH2 0x47D SWAP1 PUSH2 0x10F3 JUMP JUMPDEST DUP1 ISZERO PUSH2 0x4CA JUMPI DUP1 PUSH1 0x1F LT PUSH2 0x49F JUMPI PUSH2 0x100 DUP1 DUP4 SLOAD DIV MUL DUP4 MSTORE SWAP2 PUSH1 0x20 ADD SWAP2 PUSH2 0x4CA JUMP JUMPDEST DUP3 ADD SWAP2 SWAP1 PUSH1 0x0 MSTORE PUSH1 0x20 PUSH1 0x0 KECCAK256 SWAP1 JUMPDEST DUP2 SLOAD DUP2 MSTORE SWAP1 PUSH1 0x1 ADD SWAP1 PUSH1 0x20 ADD DUP1 DUP4 GT PUSH2 0x4AD JUMPI DUP3 SWAP1 SUB PUSH1 0x1F AND DUP3 ADD SWAP2 JUMPDEST POP POP POP POP POP DUP2 JUMP JUMPDEST PUSH7 0xB1A2BC2EC50000 CALLVALUE EQ PUSH2 0x4E5 JUMPI PUSH1 0x0 DUP1 REVERT JUMPDEST PUSH1 0x0 PUSH2 0x4F1 DUP4 DUP4 PUSH2 0x233 JUMP JUMPDEST PUSH2 0x4FB DUP7 DUP7 PUSH2 0x34C JUMP JUMPDEST PUSH2 0x505 SWAP2 SWAP1 PUSH2 0x129E JUMP JUMPDEST SWAP1 POP POP POP POP POP POP JUMP JUMPDEST CALLER PUSH20 0xFFFFFFFFFFFFFFFFFFFFFFFFFFFFFFFFFFFFFFFF AND PUSH1 0x2 PUSH1 0x0 SWAP1 SLOAD SWAP1 PUSH2 0x100 EXP SWAP1 DIV PUSH20 0xFFFFFFFFFFFFFFFFFFFFFFFFFFFFFFFFFFFFFFFF AND PUSH20 0xFFFFFFFFFFFFFFFFFFFFFFFFFFFFFFFFFFFFFFFF AND EQ PUSH2 0x568 JUMPI PUSH1 0x0 DUP1 REVERT JUMPDEST DUP2 PUSH1 0x0 SWAP1 DUP1 MLOAD SWAP1 PUSH1 0x20 ADD SWAP1 PUSH2 0x57E SWAP3 SWAP2 SWAP1 PUSH2 0x7F1 JUMP JUMPDEST POP DUP1 PUSH1 0x1 SWAP1 DUP1 MLOAD SWAP1 PUSH1 0x20 ADD SWAP1 PUSH2 0x595 SWAP3 SWAP2 SWAP1 PUSH2 0x83E JUMP JUMPDEST POP POP POP JUMP JUMPDEST PUSH1 0x0 DUP2 DUP2 SLOAD DUP2 LT PUSH2 0x5AA JUMPI PUSH1 0x0 DUP1 REVERT JUMPDEST SWAP1 PUSH1 0x0 MSTORE PUSH1 0x20 PUSH1 0x0 KECCAK256 ADD PUSH1 0x0 SWAP2 POP SWAP1 POP SLOAD DUP2 JUMP JUMPDEST PUSH1 0x60 PUSH2 0x5C9 DUP3 PUSH2 0x5D0 JUMP JUMPDEST SWAP1 POP SWAP2 SWAP1 POP JUMP JUMPDEST PUSH1 0x60 PUSH1 0x0 PUSH1 0x1 PUSH2 0x5DF DUP5 PUSH2 0x69E JUMP JUMPDEST ADD SWAP1 POP PUSH1 0x0 DUP2 PUSH8 0xFFFFFFFFFFFFFFFF DUP2 GT ISZERO PUSH2 0x5FE JUMPI PUSH2 0x5FD PUSH2 0xACB JUMP JUMPDEST JUMPDEST PUSH1 0x40 MLOAD SWAP1 DUP1 DUP3 MSTORE DUP1 PUSH1 0x1F ADD PUSH1 0x1F NOT AND PUSH1 0x20 ADD DUP3 ADD PUSH1 0x40 MSTORE DUP1 ISZERO PUSH2 0x630 JUMPI DUP2 PUSH1 0x20 ADD PUSH1 0x1 DUP3 MUL DUP1 CALLDATASIZE DUP4 CALLDATACOPY DUP1 DUP3 ADD SWAP2 POP POP SWAP1 POP JUMPDEST POP SWAP1 POP PUSH1 0x0 DUP3 PUSH1 0x20 ADD DUP3 ADD SWAP1 POP JUMPDEST PUSH1 0x1 ISZERO PUSH2 0x693 JUMPI DUP1 DUP1 PUSH1 0x1 SWAP1 SUB SWAP2 POP POP PUSH32 0x3031323334353637383961626364656600000000000000000000000000000000 PUSH1 0xA DUP7 MOD BYTE DUP2 MSTORE8 PUSH1 0xA DUP6 DUP2 PUSH2 0x687 JUMPI PUSH2 0x686 PUSH2 0x12D2 JUMP JUMPDEST JUMPDEST DIV SWAP5 POP PUSH1 0x0 DUP6 SUB PUSH2 0x63E JUMPI JUMPDEST DUP2 SWAP4 POP POP POP POP SWAP2 SWAP1 POP JUMP JUMPDEST PUSH1 0x0 DUP1 PUSH1 0x0 SWAP1 POP PUSH27 0x184F03E93FF9F4DAA797ED6E38ED64BF6A1F010000000000000000 DUP4 LT PUSH2 0x6FC JUMPI PUSH27 0x184F03E93FF9F4DAA797ED6E38ED64BF6A1F010000000000000000 DUP4 DUP2 PUSH2 0x6F2 JUMPI PUSH2 0x6F1 PUSH2 0x12D2 JUMP JUMPDEST JUMPDEST DIV SWAP3 POP PUSH1 0x40 DUP2 ADD SWAP1 POP JUMPDEST PUSH14 0x4EE2D6D415B85ACEF8100000000 DUP4 LT PUSH2 0x739 JUMPI PUSH14 0x4EE2D6D415B85ACEF8100000000 DUP4 DUP2 PUSH2 0x72F JUMPI PUSH2 0x72E PUSH2 0x12D2 JUMP JUMPDEST JUMPDEST DIV SWAP3 POP PUSH1 0x20 DUP2 ADD SWAP1 POP JUMPDEST PUSH7 0x2386F26FC10000 DUP4 LT PUSH2 0x768 JUMPI PUSH7 0x2386F26FC10000 DUP4 DUP2 PUSH2 0x75E JUMPI PUSH2 0x75D PUSH2 0x12D2 JUMP JUMPDEST JUMPDEST DIV SWAP3 POP PUSH1 0x10 DUP2 ADD SWAP1 POP JUMPDEST PUSH4 0x5F5E100 DUP4 LT PUSH2 0x791 JUMPI PUSH4 0x5F5E100 DUP4 DUP2 PUSH2 0x787 JUMPI PUSH2 0x786 PUSH2 0x12D2 JUMP JUMPDEST JUMPDEST DIV SWAP3 POP PUSH1 0x8 DUP2 ADD SWAP1 POP JUMPDEST PUSH2 0x2710 DUP4 LT PUSH2 0x7B6 JUMPI PUSH2 0x2710 DUP4 DUP2 PUSH2 0x7AC JUMPI PUSH2 0x7AB PUSH2 0x12D2 JUMP JUMPDEST JUMPDEST DIV SWAP3 POP PUSH1 0x4 DUP2 ADD SWAP1 POP JUMPDEST PUSH1 0x64 DUP4 LT PUSH2 0x7D9 JUMPI PUSH1 0x64 DUP4 DUP2 PUSH2 0x7CF JUMPI PUSH2 0x7CE PUSH2 0x12D2 JUMP JUMPDEST JUMPDEST DIV SWAP3 POP PUSH1 0x2 DUP2 ADD SWAP1 POP JUMPDEST PUSH1 0xA DUP4 LT PUSH2 0x7E8 JUMPI PUSH1 0x1 DUP2 ADD SWAP1 POP JUMPDEST DUP1 SWAP2 POP POP SWAP2 SWAP1 POP JUMP JUMPDEST DUP3 DUP1 SLOAD DUP3 DUP3 SSTORE SWAP1 PUSH1 0x0 MSTORE PUSH1 0x20 PUSH1 0x0 KECCAK256 SWAP1 DUP2 ADD SWAP3 DUP3 ISZERO PUSH2 0x82D JUMPI SWAP2 PUSH1 0x20 MUL DUP3 ADD JUMPDEST DUP3 DUP2 GT ISZERO PUSH2 0x82C JUMPI DUP3 MLOAD DUP3 SSTORE SWAP2 PUSH1 0x20 ADD SWAP2 SWAP1 PUSH1 0x1 ADD SWAP1 PUSH2 0x811 JUMP JUMPDEST JUMPDEST POP SWAP1 POP PUSH2 0x83A SWAP2 SWAP1 PUSH2 0x897 JUMP JUMPDEST POP SWAP1 JUMP JUMPDEST DUP3 DUP1 SLOAD DUP3 DUP3 SSTORE SWAP1 PUSH1 0x0 MSTORE PUSH1 0x20 PUSH1 0x0 KECCAK256 SWAP1 DUP2 ADD SWAP3 DUP3 ISZERO PUSH2 0x886 JUMPI SWAP2 PUSH1 0x20 MUL DUP3 ADD JUMPDEST DUP3 DUP2 GT ISZERO PUSH2 0x885 JUMPI DUP3 MLOAD DUP3 SWAP1 DUP2 PUSH2 0x875 SWAP2 SWAP1 PUSH2 0x14AD JUMP JUMPDEST POP SWAP2 PUSH1 0x20 ADD SWAP2 SWAP1 PUSH1 0x1 ADD SWAP1 PUSH2 0x85E JUMP JUMPDEST JUMPDEST POP SWAP1 POP PUSH2 0x893 SWAP2 SWAP1 PUSH2 0x8B4 JUMP JUMPDEST POP SWAP1 JUMP JUMPDEST JUMPDEST DUP1 DUP3 GT ISZERO PUSH2 0x8B0 JUMPI PUSH1 0x0 DUP2 PUSH1 0x0 SWAP1 SSTORE POP PUSH1 0x1 ADD PUSH2 0x898 JUMP JUMPDEST POP SWAP1 JUMP JUMPDEST JUMPDEST DUP1 DUP3 GT ISZERO PUSH2 0x8D4 JUMPI PUSH1 0x0 DUP2 DUP2 PUSH2 0x8CB SWAP2 SWAP1 PUSH2 0x8D8 JUMP JUMPDEST POP PUSH1 0x1 ADD PUSH2 0x8B5 JUMP JUMPDEST POP SWAP1 JUMP JUMPDEST POP DUP1 SLOAD PUSH2 0x8E4 SWAP1 PUSH2 0x10F3 JUMP JUMPDEST PUSH1 0x0 DUP3 SSTORE DUP1 PUSH1 0x1F LT PUSH2 0x8F6 JUMPI POP PUSH2 0x915 JUMP JUMPDEST PUSH1 0x1F ADD PUSH1 0x20 SWAP1 DIV SWAP1 PUSH1 0x0 MSTORE PUSH1 0x20 PUSH1 0x0 KECCAK256 SWAP1 DUP2 ADD SWAP1 PUSH2 0x914 SWAP2 SWAP1 PUSH2 0x897 JUMP JUMPDEST JUMPDEST POP JUMP JUMPDEST PUSH1 0x0 PUSH1 0x40 MLOAD SWAP1 POP SWAP1 JUMP JUMPDEST PUSH1 0x0 DUP1 REVERT JUMPDEST PUSH1 0x0 DUP1 REVERT JUMPDEST PUSH1 0x0 DUP1 REVERT JUMPDEST PUSH1 0x0 DUP1 REVERT JUMPDEST PUSH1 0x0 DUP1 REVERT JUMPDEST PUSH1 0x0 DUP1 DUP4 PUSH1 0x1F DUP5 ADD SLT PUSH2 0x951 JUMPI PUSH2 0x950 PUSH2 0x92C JUMP JUMPDEST JUMPDEST DUP3 CALLDATALOAD SWAP1 POP PUSH8 0xFFFFFFFFFFFFFFFF DUP2 GT ISZERO PUSH2 0x96E JUMPI PUSH2 0x96D PUSH2 0x931 JUMP JUMPDEST JUMPDEST PUSH1 0x20 DUP4 ADD SWAP2 POP DUP4 PUSH1 0x20 DUP3 MUL DUP4 ADD GT ISZERO PUSH2 0x98A JUMPI PUSH2 0x989 PUSH2 0x936 JUMP JUMPDEST JUMPDEST SWAP3 POP SWAP3 SWAP1 POP JUMP JUMPDEST PUSH1 0x0 DUP1 PUSH1 0x20 DUP4 DUP6 SUB SLT ISZERO PUSH2 0x9A8 JUMPI PUSH2 0x9A7 PUSH2 0x922 JUMP JUMPDEST JUMPDEST PUSH1 0x0 DUP4 ADD CALLDATALOAD PUSH8 0xFFFFFFFFFFFFFFFF DUP2 GT ISZERO PUSH2 0x9C6 JUMPI PUSH2 0x9C5 PUSH2 0x927 JUMP JUMPDEST JUMPDEST PUSH2 0x9D2 DUP6 DUP3 DUP7 ADD PUSH2 0x93B JUMP JUMPDEST SWAP3 POP SWAP3 POP POP SWAP3 POP SWAP3 SWAP1 POP JUMP JUMPDEST PUSH1 0x0 DUP2 SWAP1 POP SWAP2 SWAP1 POP JUMP JUMPDEST PUSH2 0x9F1 DUP2 PUSH2 0x9DE JUMP JUMPDEST DUP3 MSTORE POP POP JUMP JUMPDEST PUSH1 0x0 PUSH1 0x20 DUP3 ADD SWAP1 POP PUSH2 0xA0C PUSH1 0x0 DUP4 ADD DUP5 PUSH2 0x9E8 JUMP JUMPDEST SWAP3 SWAP2 POP POP JUMP JUMPDEST PUSH1 0x0 DUP1 DUP4 PUSH1 0x1F DUP5 ADD SLT PUSH2 0xA28 JUMPI PUSH2 0xA27 PUSH2 0x92C JUMP JUMPDEST JUMPDEST DUP3 CALLDATALOAD SWAP1 POP PUSH8 0xFFFFFFFFFFFFFFFF DUP2 GT ISZERO PUSH2 0xA45 JUMPI PUSH2 0xA44 PUSH2 0x931 JUMP JUMPDEST JUMPDEST PUSH1 0x20 DUP4 ADD SWAP2 POP DUP4 PUSH1 0x20 DUP3 MUL DUP4 ADD GT ISZERO PUSH2 0xA61 JUMPI PUSH2 0xA60 PUSH2 0x936 JUMP JUMPDEST JUMPDEST SWAP3 POP SWAP3 SWAP1 POP JUMP JUMPDEST PUSH1 0x0 DUP1 PUSH1 0x20 DUP4 DUP6 SUB SLT ISZERO PUSH2 0xA7F JUMPI PUSH2 0xA7E PUSH2 0x922 JUMP JUMPDEST JUMPDEST PUSH1 0x0 DUP4 ADD CALLDATALOAD PUSH8 0xFFFFFFFFFFFFFFFF DUP2 GT ISZERO PUSH2 0xA9D JUMPI PUSH2 0xA9C PUSH2 0x927 JUMP JUMPDEST JUMPDEST PUSH2 0xAA9 DUP6 DUP3 DUP7 ADD PUSH2 0xA12 JUMP JUMPDEST SWAP3 POP SWAP3 POP POP SWAP3 POP SWAP3 SWAP1 POP JUMP JUMPDEST PUSH1 0x0 DUP1 REVERT JUMPDEST PUSH1 0x0 PUSH1 0x1F NOT PUSH1 0x1F DUP4 ADD AND SWAP1 POP SWAP2 SWAP1 POP JUMP JUMPDEST PUSH32 0x4E487B7100000000000000000000000000000000000000000000000000000000 PUSH1 0x0 MSTORE PUSH1 0x41 PUSH1 0x4 MSTORE PUSH1 0x24 PUSH1 0x0 REVERT JUMPDEST PUSH2 0xB03 DUP3 PUSH2 0xABA JUMP JUMPDEST DUP2 ADD DUP2 DUP2 LT PUSH8 0xFFFFFFFFFFFFFFFF DUP3 GT OR ISZERO PUSH2 0xB22 JUMPI PUSH2 0xB21 PUSH2 0xACB JUMP JUMPDEST JUMPDEST DUP1 PUSH1 0x40 MSTORE POP POP POP JUMP JUMPDEST PUSH1 0x0 PUSH2 0xB35 PUSH2 0x918 JUMP JUMPDEST SWAP1 POP PUSH2 0xB41 DUP3 DUP3 PUSH2 0xAFA JUMP JUMPDEST SWAP2 SWAP1 POP JUMP JUMPDEST PUSH1 0x0 PUSH8 0xFFFFFFFFFFFFFFFF DUP3 GT ISZERO PUSH2 0xB61 JUMPI PUSH2 0xB60 PUSH2 0xACB JUMP JUMPDEST JUMPDEST PUSH2 0xB6A DUP3 PUSH2 0xABA JUMP JUMPDEST SWAP1 POP PUSH1 0x20 DUP2 ADD SWAP1 POP SWAP2 SWAP1 POP JUMP JUMPDEST DUP3 DUP2 DUP4 CALLDATACOPY PUSH1 0x0 DUP4 DUP4 ADD MSTORE POP POP POP JUMP JUMPDEST PUSH1 0x0 PUSH2 0xB99 PUSH2 0xB94 DUP5 PUSH2 0xB46 JUMP JUMPDEST PUSH2 0xB2B JUMP JUMPDEST SWAP1 POP DUP3 DUP2 MSTORE PUSH1 0x20 DUP2 ADD DUP5 DUP5 DUP5 ADD GT ISZERO PUSH2 0xBB5 JUMPI PUSH2 0xBB4 PUSH2 0xAB5 JUMP JUMPDEST JUMPDEST PUSH2 0xBC0 DUP5 DUP3 DUP6 PUSH2 0xB77 JUMP JUMPDEST POP SWAP4 SWAP3 POP POP POP JUMP JUMPDEST PUSH1 0x0 DUP3 PUSH1 0x1F DUP4 ADD SLT PUSH2 0xBDD JUMPI PUSH2 0xBDC PUSH2 0x92C JUMP JUMPDEST JUMPDEST DUP2 CALLDATALOAD PUSH2 0xBED DUP5 DUP3 PUSH1 0x20 DUP7 ADD PUSH2 0xB86 JUMP JUMPDEST SWAP2 POP POP SWAP3 SWAP2 POP POP JUMP JUMPDEST PUSH1 0x0 DUP1 DUP4 PUSH1 0x1F DUP5 ADD SLT PUSH2 0xC0C JUMPI PUSH2 0xC0B PUSH2 0x92C JUMP JUMPDEST JUMPDEST DUP3 CALLDATALOAD SWAP1 POP PUSH8 0xFFFFFFFFFFFFFFFF DUP2 GT ISZERO PUSH2 0xC29 JUMPI PUSH2 0xC28 PUSH2 0x931 JUMP JUMPDEST JUMPDEST PUSH1 0x20 DUP4 ADD SWAP2 POP DUP4 PUSH1 0x1 DUP3 MUL DUP4 ADD GT ISZERO PUSH2 0xC45 JUMPI PUSH2 0xC44 PUSH2 0x936 JUMP JUMPDEST JUMPDEST SWAP3 POP SWAP3 SWAP1 POP JUMP JUMPDEST PUSH1 0x0 DUP1 PUSH1 0x0 PUSH1 0x40 DUP5 DUP7 SUB SLT ISZERO PUSH2 0xC65 JUMPI PUSH2 0xC64 PUSH2 0x922 JUMP JUMPDEST JUMPDEST PUSH1 0x0 DUP5 ADD CALLDATALOAD PUSH8 0xFFFFFFFFFFFFFFFF DUP2 GT ISZERO PUSH2 0xC83 JUMPI PUSH2 0xC82 PUSH2 0x927 JUMP JUMPDEST JUMPDEST PUSH2 0xC8F DUP7 DUP3 DUP8 ADD PUSH2 0xBC8 JUMP JUMPDEST SWAP4 POP POP PUSH1 0x20 DUP5 ADD CALLDATALOAD PUSH8 0xFFFFFFFFFFFFFFFF DUP2 GT ISZERO PUSH2 0xCB0 JUMPI PUSH2 0xCAF PUSH2 0x927 JUMP JUMPDEST JUMPDEST PUSH2 0xCBC DUP7 DUP3 DUP8 ADD PUSH2 0xBF6 JUMP JUMPDEST SWAP3 POP SWAP3 POP POP SWAP3 POP SWAP3 POP SWAP3 JUMP JUMPDEST PUSH1 0x0 DUP2 ISZERO ISZERO SWAP1 POP SWAP2 SWAP1 POP JUMP JUMPDEST PUSH2 0xCDD DUP2 PUSH2 0xCC8 JUMP JUMPDEST DUP3 MSTORE POP POP JUMP JUMPDEST PUSH1 0x0 PUSH1 0x20 DUP3 ADD SWAP1 POP PUSH2 0xCF8 PUSH1 0x0 DUP4 ADD DUP5 PUSH2 0xCD4 JUMP JUMPDEST SWAP3 SWAP2 POP POP JUMP JUMPDEST PUSH2 0xD07 DUP2 PUSH2 0x9DE JUMP JUMPDEST DUP2 EQ PUSH2 0xD12 JUMPI PUSH1 0x0 DUP1 REVERT JUMPDEST POP JUMP JUMPDEST PUSH1 0x0 DUP2 CALLDATALOAD SWAP1 POP PUSH2 0xD24 DUP2 PUSH2 0xCFE JUMP JUMPDEST SWAP3 SWAP2 POP POP JUMP JUMPDEST PUSH1 0x0 PUSH1 0x20 DUP3 DUP5 SUB SLT ISZERO PUSH2 0xD40 JUMPI PUSH2 0xD3F PUSH2 0x922 JUMP JUMPDEST JUMPDEST PUSH1 0x0 PUSH2 0xD4E DUP5 DUP3 DUP6 ADD PUSH2 0xD15 JUMP JUMPDEST SWAP2 POP POP SWAP3 SWAP2 POP POP JUMP JUMPDEST PUSH1 0x0 DUP2 MLOAD SWAP1 POP SWAP2 SWAP1 POP JUMP JUMPDEST PUSH1 0x0 DUP3 DUP3 MSTORE PUSH1 0x20 DUP3 ADD SWAP1 POP SWAP3 SWAP2 POP POP JUMP JUMPDEST PUSH1 0x0 JUMPDEST DUP4 DUP2 LT ISZERO PUSH2 0xD91 JUMPI DUP1 DUP3 ADD MLOAD DUP2 DUP5 ADD MSTORE PUSH1 0x20 DUP2 ADD SWAP1 POP PUSH2 0xD76 JUMP JUMPDEST PUSH1 0x0 DUP5 DUP5 ADD MSTORE POP POP POP POP JUMP JUMPDEST PUSH1 0x0 PUSH2 0xDA8 DUP3 PUSH2 0xD57 JUMP JUMPDEST PUSH2 0xDB2 DUP2 DUP6 PUSH2 0xD62 JUMP JUMPDEST SWAP4 POP PUSH2 0xDC2 DUP2 DUP6 PUSH1 0x20 DUP7 ADD PUSH2 0xD73 JUMP JUMPDEST PUSH2 0xDCB DUP2 PUSH2 0xABA JUMP JUMPDEST DUP5 ADD SWAP2 POP POP SWAP3 SWAP2 POP POP JUMP JUMPDEST PUSH1 0x0 PUSH1 0x20 DUP3 ADD SWAP1 POP DUP2 DUP2 SUB PUSH1 0x0 DUP4 ADD MSTORE PUSH2 0xDF0 DUP2 DUP5 PUSH2 0xD9D JUMP JUMPDEST SWAP1 POP SWAP3 SWAP2 POP POP JUMP JUMPDEST PUSH1 0x0 DUP1 PUSH1 0x0 DUP1 PUSH1 0x40 DUP6 DUP8 SUB SLT ISZERO PUSH2 0xE12 JUMPI PUSH2 0xE11 PUSH2 0x922 JUMP JUMPDEST JUMPDEST PUSH1 0x0 DUP6 ADD CALLDATALOAD PUSH8 0xFFFFFFFFFFFFFFFF DUP2 GT ISZERO PUSH2 0xE30 JUMPI PUSH2 0xE2F PUSH2 0x927 JUMP JUMPDEST JUMPDEST PUSH2 0xE3C DUP8 DUP3 DUP9 ADD PUSH2 0xA12 JUMP JUMPDEST SWAP5 POP SWAP5 POP POP PUSH1 0x20 DUP6 ADD CALLDATALOAD PUSH8 0xFFFFFFFFFFFFFFFF DUP2 GT ISZERO PUSH2 0xE5F JUMPI PUSH2 0xE5E PUSH2 0x927 JUMP JUMPDEST JUMPDEST PUSH2 0xE6B DUP8 DUP3 DUP9 ADD PUSH2 0x93B JUMP JUMPDEST SWAP3 POP SWAP3 POP POP SWAP3 SWAP6 SWAP2 SWAP5 POP SWAP3 POP JUMP JUMPDEST PUSH1 0x0 PUSH8 0xFFFFFFFFFFFFFFFF DUP3 GT ISZERO PUSH2 0xE94 JUMPI PUSH2 0xE93 PUSH2 0xACB JUMP JUMPDEST JUMPDEST PUSH1 0x20 DUP3 MUL SWAP1 POP PUSH1 0x20 DUP2 ADD SWAP1 POP SWAP2 SWAP1 POP JUMP JUMPDEST PUSH1 0x0 PUSH2 0xEB8 PUSH2 0xEB3 DUP5 PUSH2 0xE79 JUMP JUMPDEST PUSH2 0xB2B JUMP JUMPDEST SWAP1 POP DUP1 DUP4 DUP3 MSTORE PUSH1 0x20 DUP3 ADD SWAP1 POP PUSH1 0x20 DUP5 MUL DUP4 ADD DUP6 DUP2 GT ISZERO PUSH2 0xEDB JUMPI PUSH2 0xEDA PUSH2 0x936 JUMP JUMPDEST JUMPDEST DUP4 JUMPDEST DUP2 DUP2 LT ISZERO PUSH2 0xF04 JUMPI DUP1 PUSH2 0xEF0 DUP9 DUP3 PUSH2 0xD15 JUMP JUMPDEST DUP5 MSTORE PUSH1 0x20 DUP5 ADD SWAP4 POP POP PUSH1 0x20 DUP2 ADD SWAP1 POP PUSH2 0xEDD JUMP JUMPDEST POP POP POP SWAP4 SWAP3 POP POP POP JUMP JUMPDEST PUSH1 0x0 DUP3 PUSH1 0x1F DUP4 ADD SLT PUSH2 0xF23 JUMPI PUSH2 0xF22 PUSH2 0x92C JUMP JUMPDEST JUMPDEST DUP2 CALLDATALOAD PUSH2 0xF33 DUP5 DUP3 PUSH1 0x20 DUP7 ADD PUSH2 0xEA5 JUMP JUMPDEST SWAP2 POP POP SWAP3 SWAP2 POP POP JUMP JUMPDEST PUSH1 0x0 PUSH8 0xFFFFFFFFFFFFFFFF DUP3 GT ISZERO PUSH2 0xF57 JUMPI PUSH2 0xF56 PUSH2 0xACB JUMP JUMPDEST JUMPDEST PUSH1 0x20 DUP3 MUL SWAP1 POP PUSH1 0x20 DUP2 ADD SWAP1 POP SWAP2 SWAP1 POP JUMP JUMPDEST PUSH1 0x0 PUSH2 0xF7B PUSH2 0xF76 DUP5 PUSH2 0xF3C JUMP JUMPDEST PUSH2 0xB2B JUMP JUMPDEST SWAP1 POP DUP1 DUP4 DUP3 MSTORE PUSH1 0x20 DUP3 ADD SWAP1 POP PUSH1 0x20 DUP5 MUL DUP4 ADD DUP6 DUP2 GT ISZERO PUSH2 0xF9E JUMPI PUSH2 0xF9D PUSH2 0x936 JUMP JUMPDEST JUMPDEST DUP4 JUMPDEST DUP2 DUP2 LT ISZERO PUSH2 0xFE5 JUMPI DUP1 CALLDATALOAD PUSH8 0xFFFFFFFFFFFFFFFF DUP2 GT ISZERO PUSH2 0xFC3 JUMPI PUSH2 0xFC2 PUSH2 0x92C JUMP JUMPDEST JUMPDEST DUP1 DUP7 ADD PUSH2 0xFD0 DUP10 DUP3 PUSH2 0xBC8 JUMP JUMPDEST DUP6 MSTORE PUSH1 0x20 DUP6 ADD SWAP5 POP POP POP PUSH1 0x20 DUP2 ADD SWAP1 POP PUSH2 0xFA0 JUMP JUMPDEST POP POP POP SWAP4 SWAP3 POP POP POP JUMP JUMPDEST PUSH1 0x0 DUP3 PUSH1 0x1F DUP4 ADD SLT PUSH2 0x1004 JUMPI PUSH2 0x1003 PUSH2 0x92C JUMP JUMPDEST JUMPDEST DUP2 CALLDATALOAD PUSH2 0x1014 DUP5 DUP3 PUSH1 0x20 DUP7 ADD PUSH2 0xF68 JUMP JUMPDEST SWAP2 POP POP SWAP3 SWAP2 POP POP JUMP JUMPDEST PUSH1 0x0 DUP1 PUSH1 0x40 DUP4 DUP6 SUB SLT ISZERO PUSH2 0x1034 JUMPI PUSH2 0x1033 PUSH2 0x922 JUMP JUMPDEST JUMPDEST PUSH1 0x0 DUP4 ADD CALLDATALOAD PUSH8 0xFFFFFFFFFFFFFFFF DUP2 GT ISZERO PUSH2 0x1052 JUMPI PUSH2 0x1051 PUSH2 0x927 JUMP JUMPDEST JUMPDEST PUSH2 0x105E DUP6 DUP3 DUP7 ADD PUSH2 0xF0E JUMP JUMPDEST SWAP3 POP POP PUSH1 0x20 DUP4 ADD CALLDATALOAD PUSH8 0xFFFFFFFFFFFFFFFF DUP2 GT ISZERO PUSH2 0x107F JUMPI PUSH2 0x107E PUSH2 0x927 JUMP JUMPDEST JUMPDEST PUSH2 0x108B DUP6 DUP3 DUP7 ADD PUSH2 0xFEF JUMP JUMPDEST SWAP2 POP POP SWAP3 POP SWAP3 SWAP1 POP JUMP JUMPDEST PUSH32 0x4E487B7100000000000000000000000000000000000000000000000000000000 PUSH1 0x0 MSTORE PUSH1 0x32 PUSH1 0x4 MSTORE PUSH1 0x24 PUSH1 0x0 REVERT JUMPDEST PUSH32 0x4E487B7100000000000000000000000000000000000000000000000000000000 PUSH1 0x0 MSTORE PUSH1 0x22 PUSH1 0x4 MSTORE PUSH1 0x24 PUSH1 0x0 REVERT JUMPDEST PUSH1 0x0 PUSH1 0x2 DUP3 DIV SWAP1 POP PUSH1 0x1 DUP3 AND DUP1 PUSH2 0x110B JUMPI PUSH1 0x7F DUP3 AND SWAP2 POP JUMPDEST PUSH1 0x20 DUP3 LT DUP2 SUB PUSH2 0x111E JUMPI PUSH2 0x111D PUSH2 0x10C4 JUMP JUMPDEST JUMPDEST POP SWAP2 SWAP1 POP JUMP JUMPDEST PUSH1 0x0 DUP1 REVERT JUMPDEST PUSH1 0x0 DUP1 REVERT JUMPDEST PUSH1 0x0 DUP1 REVERT JUMPDEST PUSH1 0x0 DUP1 DUP4 CALLDATALOAD PUSH1 0x1 PUSH1 0x20 SUB DUP5 CALLDATASIZE SUB SUB DUP2 SLT PUSH2 0x1150 JUMPI PUSH2 0x114F PUSH2 0x1124 JUMP JUMPDEST JUMPDEST DUP1 DUP5 ADD SWAP3 POP DUP3 CALLDATALOAD SWAP2 POP PUSH8 0xFFFFFFFFFFFFFFFF DUP3 GT ISZERO PUSH2 0x1172 JUMPI PUSH2 0x1171 PUSH2 0x1129 JUMP JUMPDEST JUMPDEST PUSH1 0x20 DUP4 ADD SWAP3 POP PUSH1 0x1 DUP3 MUL CALLDATASIZE SUB DUP4 SGT ISZERO PUSH2 0x118E JUMPI PUSH2 0x118D PUSH2 0x112E JUMP JUMPDEST JUMPDEST POP SWAP3 POP SWAP3 SWAP1 POP JUMP JUMPDEST PUSH32 0x4E487B7100000000000000000000000000000000000000000000000000000000 PUSH1 0x0 MSTORE PUSH1 0x11 PUSH1 0x4 MSTORE PUSH1 0x24 PUSH1 0x0 REVERT JUMPDEST PUSH1 0x0 PUSH2 0x11D0 DUP3 PUSH2 0x9DE JUMP JUMPDEST SWAP2 POP PUSH32 0xFFFFFFFFFFFFFFFFFFFFFFFFFFFFFFFFFFFFFFFFFFFFFFFFFFFFFFFFFFFFFFFF DUP3 SUB PUSH2 0x1202 JUMPI PUSH2 0x1201 PUSH2 0x1196 JUMP JUMPDEST JUMPDEST PUSH1 0x1 DUP3 ADD SWAP1 POP SWAP2 SWAP1 POP JUMP JUMPDEST PUSH1 0x0 DUP2 SWAP1 POP SWAP3 SWAP2 POP POP JUMP JUMPDEST PUSH1 0x0 PUSH2 0x1224 DUP4 DUP6 PUSH2 0x120D JUMP JUMPDEST SWAP4 POP PUSH2 0x1231 DUP4 DUP6 DUP5 PUSH2 0xB77 JUMP JUMPDEST DUP3 DUP5 ADD SWAP1 POP SWAP4 SWAP3 POP POP POP JUMP JUMPDEST PUSH1 0x0 PUSH2 0x124A DUP3 DUP5 DUP7 PUSH2 0x1218 JUMP JUMPDEST SWAP2 POP DUP2 SWAP1 POP SWAP4 SWAP3 POP POP POP JUMP JUMPDEST PUSH1 0x0 PUSH2 0x1261 DUP3 PUSH2 0xD57 JUMP JUMPDEST PUSH2 0x126B DUP2 DUP6 PUSH2 0x120D JUMP JUMPDEST SWAP4 POP PUSH2 0x127B DUP2 DUP6 PUSH1 0x20 DUP7 ADD PUSH2 0xD73 JUMP JUMPDEST DUP1 DUP5 ADD SWAP2 POP POP SWAP3 SWAP2 POP POP JUMP JUMPDEST PUSH1 0x0 PUSH2 0x1293 DUP3 DUP5 PUSH2 0x1256 JUMP JUMPDEST SWAP2 POP DUP2 SWAP1 POP SWAP3 SWAP2 POP POP JUMP JUMPDEST PUSH1 0x0 PUSH2 0x12A9 DUP3 PUSH2 0x9DE JUMP JUMPDEST SWAP2 POP PUSH2 0x12B4 DUP4 PUSH2 0x9DE JUMP JUMPDEST SWAP3 POP DUP3 DUP3 ADD SWAP1 POP DUP1 DUP3 GT ISZERO PUSH2 0x12CC JUMPI PUSH2 0x12CB PUSH2 0x1196 JUMP JUMPDEST JUMPDEST SWAP3 SWAP2 POP POP JUMP JUMPDEST PUSH32 0x4E487B7100000000000000000000000000000000000000000000000000000000 PUSH1 0x0 MSTORE PUSH1 0x12 PUSH1 0x4 MSTORE PUSH1 0x24 PUSH1 0x0 REVERT JUMPDEST PUSH1 0x0 DUP2 SWAP1 POP DUP2 PUSH1 0x0 MSTORE PUSH1 0x20 PUSH1 0x0 KECCAK256 SWAP1 POP SWAP2 SWAP1 POP JUMP JUMPDEST PUSH1 0x0 PUSH1 0x20 PUSH1 0x1F DUP4 ADD DIV SWAP1 POP SWAP2 SWAP1 POP JUMP JUMPDEST PUSH1 0x0 DUP3 DUP3 SHL SWAP1 POP SWAP3 SWAP2 POP POP JUMP JUMPDEST PUSH1 0x0 PUSH1 0x8 DUP4 MUL PUSH2 0x1363 PUSH32 0xFFFFFFFFFFFFFFFFFFFFFFFFFFFFFFFFFFFFFFFFFFFFFFFFFFFFFFFFFFFFFFFF DUP3 PUSH2 0x1326 JUMP JUMPDEST PUSH2 0x136D DUP7 DUP4 PUSH2 0x1326 JUMP JUMPDEST SWAP6 POP DUP1 NOT DUP5 AND SWAP4 POP DUP1 DUP7 AND DUP5 OR SWAP3 POP POP POP SWAP4 SWAP3 POP POP POP JUMP JUMPDEST PUSH1 0x0 DUP2 SWAP1 POP SWAP2 SWAP1 POP JUMP JUMPDEST PUSH1 0x0 PUSH2 0x13AA PUSH2 0x13A5 PUSH2 0x13A0 DUP5 PUSH2 0x9DE JUMP JUMPDEST PUSH2 0x1385 JUMP JUMPDEST PUSH2 0x9DE JUMP JUMPDEST SWAP1 POP SWAP2 SWAP1 POP JUMP JUMPDEST PUSH1 0x0 DUP2 SWAP1 POP SWAP2 SWAP1 POP JUMP JUMPDEST PUSH2 0x13C4 DUP4 PUSH2 0x138F JUMP JUMPDEST PUSH2 0x13D8 PUSH2 0x13D0 DUP3 PUSH2 0x13B1 JUMP JUMPDEST DUP5 DUP5 SLOAD PUSH2 0x1333 JUMP JUMPDEST DUP3 SSTORE POP POP POP POP JUMP JUMPDEST PUSH1 0x0 SWAP1 JUMP JUMPDEST PUSH2 0x13ED PUSH2 0x13E0 JUMP JUMPDEST PUSH2 0x13F8 DUP2 DUP5 DUP5 PUSH2 0x13BB JUMP JUMPDEST POP POP POP JUMP JUMPDEST JUMPDEST DUP2 DUP2 LT ISZERO PUSH2 0x141C JUMPI PUSH2 0x1411 PUSH1 0x0 DUP3 PUSH2 0x13E5 JUMP JUMPDEST PUSH1 0x1 DUP2 ADD SWAP1 POP PUSH2 0x13FE JUMP JUMPDEST POP POP JUMP JUMPDEST PUSH1 0x1F DUP3 GT ISZERO PUSH2 0x1461 JUMPI PUSH2 0x1432 DUP2 PUSH2 0x1301 JUMP JUMPDEST PUSH2 0x143B DUP5 PUSH2 0x1316 JUMP JUMPDEST DUP2 ADD PUSH1 0x20 DUP6 LT ISZERO PUSH2 0x144A JUMPI DUP2 SWAP1 POP JUMPDEST PUSH2 0x145E PUSH2 0x1456 DUP6 PUSH2 0x1316 JUMP JUMPDEST DUP4 ADD DUP3 PUSH2 0x13FD JUMP JUMPDEST POP POP JUMPDEST POP POP POP JUMP JUMPDEST PUSH1 0x0 DUP3 DUP3 SHR SWAP1 POP SWAP3 SWAP2 POP POP JUMP JUMPDEST PUSH1 0x0 PUSH2 0x1484 PUSH1 0x0 NOT DUP5 PUSH1 0x8 MUL PUSH2 0x1466 JUMP JUMPDEST NOT DUP1 DUP4 AND SWAP2 POP POP SWAP3 SWAP2 POP POP JUMP JUMPDEST PUSH1 0x0 PUSH2 0x149D DUP4 DUP4 PUSH2 0x1473 JUMP JUMPDEST SWAP2 POP DUP3 PUSH1 0x2 MUL DUP3 OR SWAP1 POP SWAP3 SWAP2 POP POP JUMP JUMPDEST PUSH2 0x14B6 DUP3 PUSH2 0xD57 JUMP JUMPDEST PUSH8 0xFFFFFFFFFFFFFFFF DUP2 GT ISZERO PUSH2 0x14CF JUMPI PUSH2 0x14CE PUSH2 0xACB JUMP JUMPDEST JUMPDEST PUSH2 0x14D9 DUP3 SLOAD PUSH2 0x10F3 JUMP JUMPDEST PUSH2 0x14E4 DUP3 DUP3 DUP6 PUSH2 0x1420 JUMP JUMPDEST PUSH1 0x0 PUSH1 0x20 SWAP1 POP PUSH1 0x1F DUP4 GT PUSH1 0x1 DUP2 EQ PUSH2 0x1517 JUMPI PUSH1 0x0 DUP5 ISZERO PUSH2 0x1505 JUMPI DUP3 DUP8 ADD MLOAD SWAP1 POP JUMPDEST PUSH2 0x150F DUP6 DUP3 PUSH2 0x1491 JUMP JUMPDEST DUP7 SSTORE POP PUSH2 0x1577 JUMP JUMPDEST PUSH1 0x1F NOT DUP5 AND PUSH2 0x1525 DUP7 PUSH2 0x1301 JUMP JUMPDEST PUSH1 0x0 JUMPDEST DUP3 DUP2 LT ISZERO PUSH2 0x154D JUMPI DUP5 DUP10 ADD MLOAD DUP3 SSTORE PUSH1 0x1 DUP3 ADD SWAP2 POP PUSH1 0x20 DUP6 ADD SWAP5 POP PUSH1 0x20 DUP2 ADD SWAP1 POP PUSH2 0x1528 JUMP JUMPDEST DUP7 DUP4 LT ISZERO PUSH2 0x156A JUMPI DUP5 DUP10 ADD MLOAD PUSH2 0x1566 PUSH1 0x1F DUP10 AND DUP3 PUSH2 0x1473 JUMP JUMPDEST DUP4 SSTORE POP JUMPDEST PUSH1 0x1 PUSH1 0x2 DUP9 MUL ADD DUP9 SSTORE POP POP POP JUMPDEST POP POP POP POP POP POP JUMP INVALID LOG2 PUSH5 0x6970667358 0x22 SLT KECCAK256 OR 0xC0 0x1F PUSH32 0x5B63768B5011BA4DC494F1FF253323C6A9EB84CAD01A836A78CF03D064736F6C PUSH4 0x43000812 STOP CALLER "
				},
				"gasEstimates": {
					"creation": {
						"codeDepositCost": "1111400",
						"executionCost": "infinite",
						"totalCost": "infinite"
					},
					"external": {
						"isSameLetter(string[])": "infinite",
						"isSameNumber(uint256[])": "infinite",
						"letterCompare(string,string)": "infinite",
						"letters(uint256)": "infinite",
						"numbers(uint256)": "infinite",
						"setLotto(uint256[],string[])": "infinite",
						"setTargetNumber(uint256[],string[])": "infinite",
						"uintToString(uint256)": "infinite"
					},
					"internal": {
						"getPrize(uint256)": "infinite"
					}
				},
				"methodIdentifiers": {
					"isSameLetter(string[])": "68c47d19",
					"isSameNumber(uint256[])": "75d61759",
					"letterCompare(string,string)": "a074dc3d",
					"letters(uint256)": "a2a0e4c3",
					"numbers(uint256)": "d39fa233",
					"setLotto(uint256[],string[])": "c723f14c",
					"setTargetNumber(uint256[],string[])": "d0235b30",
					"uintToString(uint256)": "e9395679"
				}
			},
			"storageLayout": {
				"storage": [
					{
						"astId": 1210,
						"contract": "contracts/230530/lotto.sol:Q8",
						"label": "numbers",
						"offset": 0,
						"slot": "0",
						"type": "t_array(t_uint256)dyn_storage"
					},
					{
						"astId": 1216,
						"contract": "contracts/230530/lotto.sol:Q8",
						"label": "letters",
						"offset": 0,
						"slot": "1",
						"type": "t_array(t_string_storage)dyn_storage"
					},
					{
						"astId": 1218,
						"contract": "contracts/230530/lotto.sol:Q8",
						"label": "owner",
						"offset": 0,
						"slot": "2",
						"type": "t_address"
					}
				],
				"types": {
					"t_address": {
						"encoding": "inplace",
						"label": "address",
						"numberOfBytes": "20"
					},
					"t_array(t_string_storage)dyn_storage": {
						"base": "t_string_storage",
						"encoding": "dynamic_array",
						"label": "string[]",
						"numberOfBytes": "32"
					},
					"t_array(t_uint256)dyn_storage": {
						"base": "t_uint256",
						"encoding": "dynamic_array",
						"label": "uint256[]",
						"numberOfBytes": "32"
					},
					"t_string_storage": {
						"encoding": "bytes",
						"label": "string",
						"numberOfBytes": "32"
					},
					"t_uint256": {
						"encoding": "inplace",
						"label": "uint256",
						"numberOfBytes": "32"
					}
				}
			},
			"userdoc": {
				"kind": "user",
				"methods": {},
				"version": 1
			}
		}
	}
}