{
	"contracts/230524/2.sol": {
		"ABC": {
			"abi": [
				{
					"inputs": [],
					"name": "currentTime",
					"outputs": [
						{
							"internalType": "uint256",
							"name": "",
							"type": "uint256"
						}
					],
					"stateMutability": "view",
					"type": "function"
				},
				{
					"inputs": [],
					"name": "getTime",
					"outputs": [
						{
							"internalType": "uint256",
							"name": "",
							"type": "uint256"
						}
					],
					"stateMutability": "view",
					"type": "function"
				},
				{
					"inputs": [],
					"name": "getTime2",
					"outputs": [
						{
							"internalType": "uint256",
							"name": "",
							"type": "uint256"
						}
					],
					"stateMutability": "view",
					"type": "function"
				},
				{
					"inputs": [],
					"name": "getTime3",
					"outputs": [
						{
							"internalType": "uint256",
							"name": "",
							"type": "uint256"
						}
					],
					"stateMutability": "view",
					"type": "function"
				},
				{
					"inputs": [],
					"name": "getTime4",
					"outputs": [
						{
							"internalType": "uint256",
							"name": "",
							"type": "uint256"
						}
					],
					"stateMutability": "view",
					"type": "function"
				},
				{
					"inputs": [],
					"name": "getTime5",
					"outputs": [
						{
							"internalType": "uint256",
							"name": "",
							"type": "uint256"
						}
					],
					"stateMutability": "view",
					"type": "function"
				},
				{
					"inputs": [],
					"name": "getTime6",
					"outputs": [
						{
							"internalType": "uint256",
							"name": "",
							"type": "uint256"
						}
					],
					"stateMutability": "view",
					"type": "function"
				}
			],
			"devdoc": {
				"kind": "dev",
				"methods": {},
				"version": 1
			},
			"evm": {
				"assembly": "    /* \"contracts/230524/2.sol\":70:789  contract ABC {... */\n  mstore(0x40, 0x80)\n  callvalue\n  dup1\n  iszero\n  tag_1\n  jumpi\n  0x00\n  dup1\n  revert\ntag_1:\n  pop\n  dataSize(sub_0)\n  dup1\n  dataOffset(sub_0)\n  0x00\n  codecopy\n  0x00\n  return\nstop\n\nsub_0: assembly {\n        /* \"contracts/230524/2.sol\":70:789  contract ABC {... */\n      mstore(0x40, 0x80)\n      callvalue\n      dup1\n      iszero\n      tag_1\n      jumpi\n      0x00\n      dup1\n      revert\n    tag_1:\n      pop\n      jumpi(tag_2, lt(calldatasize, 0x04))\n      shr(0xe0, calldataload(0x00))\n      dup1\n      0x95c48e89\n      gt\n      tag_10\n      jumpi\n      dup1\n      0x95c48e89\n      eq\n      tag_6\n      jumpi\n      dup1\n      0x9a7738e0\n      eq\n      tag_7\n      jumpi\n      dup1\n      0xd18e81b3\n      eq\n      tag_8\n      jumpi\n      dup1\n      0xdec6fa54\n      eq\n      tag_9\n      jumpi\n      jump(tag_2)\n    tag_10:\n      dup1\n      0x557ed1ba\n      eq\n      tag_3\n      jumpi\n      dup1\n      0x646c8b31\n      eq\n      tag_4\n      jumpi\n      dup1\n      0x7d2dbac8\n      eq\n      tag_5\n      jumpi\n    tag_2:\n      0x00\n      dup1\n      revert\n        /* \"contracts/230524/2.sol\":183:273  function getTime() public view returns(uint) {... */\n    tag_3:\n      tag_11\n      tag_12\n      jump\t// in\n    tag_11:\n      mload(0x40)\n      tag_13\n      swap2\n      swap1\n      tag_14\n      jump\t// in\n    tag_13:\n      mload(0x40)\n      dup1\n      swap2\n      sub\n      swap1\n      return\n        /* \"contracts/230524/2.sol\":488:584  function getTime4() public view returns (uint) {... */\n    tag_4:\n      tag_15\n      tag_16\n      jump\t// in\n    tag_15:\n      mload(0x40)\n      tag_17\n      swap2\n      swap1\n      tag_14\n      jump\t// in\n    tag_17:\n      mload(0x40)\n      dup1\n      swap2\n      sub\n      swap1\n      return\n        /* \"contracts/230524/2.sol\":691:787  function getTime6() public view returns (uint) {... */\n    tag_5:\n      tag_18\n      tag_19\n      jump\t// in\n    tag_18:\n      mload(0x40)\n      tag_20\n      swap2\n      swap1\n      tag_14\n      jump\t// in\n    tag_20:\n      mload(0x40)\n      dup1\n      swap2\n      sub\n      swap1\n      return\n        /* \"contracts/230524/2.sol\":590:685  function getTime5() public view returns (uint) {... */\n    tag_6:\n      tag_21\n      tag_22\n      jump\t// in\n    tag_21:\n      mload(0x40)\n      tag_23\n      swap2\n      swap1\n      tag_14\n      jump\t// in\n    tag_23:\n      mload(0x40)\n      dup1\n      swap2\n      sub\n      swap1\n      return\n        /* \"contracts/230524/2.sol\":279:377  function getTime2() public view returns(uint) {... */\n    tag_7:\n      tag_24\n      tag_25\n      jump\t// in\n    tag_24:\n      mload(0x40)\n      tag_26\n      swap2\n      swap1\n      tag_14\n      jump\t// in\n    tag_26:\n      mload(0x40)\n      dup1\n      swap2\n      sub\n      swap1\n      return\n        /* \"contracts/230524/2.sol\":89:177  function currentTime() public view returns(uint) {... */\n    tag_8:\n      tag_27\n      tag_28\n      jump\t// in\n    tag_27:\n      mload(0x40)\n      tag_29\n      swap2\n      swap1\n      tag_14\n      jump\t// in\n    tag_29:\n      mload(0x40)\n      dup1\n      swap2\n      sub\n      swap1\n      return\n        /* \"contracts/230524/2.sol\":383:482  function getTime3() public view returns (uint) {... */\n    tag_9:\n      tag_30\n      tag_31\n      jump\t// in\n    tag_30:\n      mload(0x40)\n      tag_32\n      swap2\n      swap1\n      tag_14\n      jump\t// in\n    tag_32:\n      mload(0x40)\n      dup1\n      swap2\n      sub\n      swap1\n      return\n        /* \"contracts/230524/2.sol\":183:273  function getTime() public view returns(uint) {... */\n    tag_12:\n        /* \"contracts/230524/2.sol\":222:226  uint */\n      0x00\n        /* \"contracts/230524/2.sol\":263:266  100 */\n      0x64\n        /* \"contracts/230524/2.sol\":245:260  block.timestamp */\n      timestamp\n        /* \"contracts/230524/2.sol\":245:266  block.timestamp + 100 */\n      tag_34\n      swap2\n      swap1\n      tag_35\n      jump\t// in\n    tag_34:\n        /* \"contracts/230524/2.sol\":238:266  return block.timestamp + 100 */\n      swap1\n      pop\n        /* \"contracts/230524/2.sol\":183:273  function getTime() public view returns(uint) {... */\n      swap1\n      jump\t// out\n        /* \"contracts/230524/2.sol\":488:584  function getTime4() public view returns (uint) {... */\n    tag_16:\n        /* \"contracts/230524/2.sol\":529:533  uint */\n      0x00\n        /* \"contracts/230524/2.sol\":570:577  1 hours */\n      0x0e10\n        /* \"contracts/230524/2.sol\":552:567  block.timestamp */\n      timestamp\n        /* \"contracts/230524/2.sol\":552:577  block.timestamp + 1 hours */\n      tag_37\n      swap2\n      swap1\n      tag_35\n      jump\t// in\n    tag_37:\n        /* \"contracts/230524/2.sol\":545:577  return block.timestamp + 1 hours */\n      swap1\n      pop\n        /* \"contracts/230524/2.sol\":488:584  function getTime4() public view returns (uint) {... */\n      swap1\n      jump\t// out\n        /* \"contracts/230524/2.sol\":691:787  function getTime6() public view returns (uint) {... */\n    tag_19:\n        /* \"contracts/230524/2.sol\":732:736  uint */\n      0x00\n        /* \"contracts/230524/2.sol\":773:780  1 weeks */\n      0x093a80\n        /* \"contracts/230524/2.sol\":755:770  block.timestamp */\n      timestamp\n        /* \"contracts/230524/2.sol\":755:780  block.timestamp + 1 weeks */\n      tag_39\n      swap2\n      swap1\n      tag_35\n      jump\t// in\n    tag_39:\n        /* \"contracts/230524/2.sol\":748:780  return block.timestamp + 1 weeks */\n      swap1\n      pop\n        /* \"contracts/230524/2.sol\":691:787  function getTime6() public view returns (uint) {... */\n      swap1\n      jump\t// out\n        /* \"contracts/230524/2.sol\":590:685  function getTime5() public view returns (uint) {... */\n    tag_22:\n        /* \"contracts/230524/2.sol\":631:635  uint */\n      0x00\n        /* \"contracts/230524/2.sol\":672:678  1 days */\n      0x015180\n        /* \"contracts/230524/2.sol\":654:669  block.timestamp */\n      timestamp\n        /* \"contracts/230524/2.sol\":654:678  block.timestamp + 1 days */\n      tag_41\n      swap2\n      swap1\n      tag_35\n      jump\t// in\n    tag_41:\n        /* \"contracts/230524/2.sol\":647:678  return block.timestamp + 1 days */\n      swap1\n      pop\n        /* \"contracts/230524/2.sol\":590:685  function getTime5() public view returns (uint) {... */\n      swap1\n      jump\t// out\n        /* \"contracts/230524/2.sol\":279:377  function getTime2() public view returns(uint) {... */\n    tag_25:\n        /* \"contracts/230524/2.sol\":319:323  uint */\n      0x00\n        /* \"contracts/230524/2.sol\":360:370  10 seconds */\n      0x0a\n        /* \"contracts/230524/2.sol\":342:357  block.timestamp */\n      timestamp\n        /* \"contracts/230524/2.sol\":342:370  block.timestamp + 10 seconds */\n      tag_43\n      swap2\n      swap1\n      tag_35\n      jump\t// in\n    tag_43:\n        /* \"contracts/230524/2.sol\":335:370  return block.timestamp + 10 seconds */\n      swap1\n      pop\n        /* \"contracts/230524/2.sol\":279:377  function getTime2() public view returns(uint) {... */\n      swap1\n      jump\t// out\n        /* \"contracts/230524/2.sol\":89:177  function currentTime() public view returns(uint) {... */\n    tag_28:\n        /* \"contracts/230524/2.sol\":132:136  uint */\n      0x00\n        /* \"contracts/230524/2.sol\":155:170  block.timestamp */\n      timestamp\n        /* \"contracts/230524/2.sol\":148:170  return block.timestamp */\n      swap1\n      pop\n        /* \"contracts/230524/2.sol\":89:177  function currentTime() public view returns(uint) {... */\n      swap1\n      jump\t// out\n        /* \"contracts/230524/2.sol\":383:482  function getTime3() public view returns (uint) {... */\n    tag_31:\n        /* \"contracts/230524/2.sol\":424:428  uint */\n      0x00\n        /* \"contracts/230524/2.sol\":465:475  10 minutes */\n      0x0258\n        /* \"contracts/230524/2.sol\":447:462  block.timestamp */\n      timestamp\n        /* \"contracts/230524/2.sol\":447:475  block.timestamp + 10 minutes */\n      tag_46\n      swap2\n      swap1\n      tag_35\n      jump\t// in\n    tag_46:\n        /* \"contracts/230524/2.sol\":440:475  return block.timestamp + 10 minutes */\n      swap1\n      pop\n        /* \"contracts/230524/2.sol\":383:482  function getTime3() public view returns (uint) {... */\n      swap1\n      jump\t// out\n        /* \"#utility.yul\":7:84   */\n    tag_47:\n        /* \"#utility.yul\":44:51   */\n      0x00\n        /* \"#utility.yul\":73:78   */\n      dup2\n        /* \"#utility.yul\":62:78   */\n      swap1\n      pop\n        /* \"#utility.yul\":7:84   */\n      swap2\n      swap1\n      pop\n      jump\t// out\n        /* \"#utility.yul\":90:208   */\n    tag_48:\n        /* \"#utility.yul\":177:201   */\n      tag_53\n        /* \"#utility.yul\":195:200   */\n      dup2\n        /* \"#utility.yul\":177:201   */\n      tag_47\n      jump\t// in\n    tag_53:\n        /* \"#utility.yul\":172:175   */\n      dup3\n        /* \"#utility.yul\":165:202   */\n      mstore\n        /* \"#utility.yul\":90:208   */\n      pop\n      pop\n      jump\t// out\n        /* \"#utility.yul\":214:436   */\n    tag_14:\n        /* \"#utility.yul\":307:311   */\n      0x00\n        /* \"#utility.yul\":345:347   */\n      0x20\n        /* \"#utility.yul\":334:343   */\n      dup3\n        /* \"#utility.yul\":330:348   */\n      add\n        /* \"#utility.yul\":322:348   */\n      swap1\n      pop\n        /* \"#utility.yul\":358:429   */\n      tag_55\n        /* \"#utility.yul\":426:427   */\n      0x00\n        /* \"#utility.yul\":415:424   */\n      dup4\n        /* \"#utility.yul\":411:428   */\n      add\n        /* \"#utility.yul\":402:408   */\n      dup5\n        /* \"#utility.yul\":358:429   */\n      tag_48\n      jump\t// in\n    tag_55:\n        /* \"#utility.yul\":214:436   */\n      swap3\n      swap2\n      pop\n      pop\n      jump\t// out\n        /* \"#utility.yul\":442:622   */\n    tag_49:\n        /* \"#utility.yul\":490:567   */\n      0x4e487b7100000000000000000000000000000000000000000000000000000000\n        /* \"#utility.yul\":487:488   */\n      0x00\n        /* \"#utility.yul\":480:568   */\n      mstore\n        /* \"#utility.yul\":587:591   */\n      0x11\n        /* \"#utility.yul\":584:585   */\n      0x04\n        /* \"#utility.yul\":577:592   */\n      mstore\n        /* \"#utility.yul\":611:615   */\n      0x24\n        /* \"#utility.yul\":608:609   */\n      0x00\n        /* \"#utility.yul\":601:616   */\n      revert\n        /* \"#utility.yul\":628:819   */\n    tag_35:\n        /* \"#utility.yul\":668:671   */\n      0x00\n        /* \"#utility.yul\":687:707   */\n      tag_58\n        /* \"#utility.yul\":705:706   */\n      dup3\n        /* \"#utility.yul\":687:707   */\n      tag_47\n      jump\t// in\n    tag_58:\n        /* \"#utility.yul\":682:707   */\n      swap2\n      pop\n        /* \"#utility.yul\":721:741   */\n      tag_59\n        /* \"#utility.yul\":739:740   */\n      dup4\n        /* \"#utility.yul\":721:741   */\n      tag_47\n      jump\t// in\n    tag_59:\n        /* \"#utility.yul\":716:741   */\n      swap3\n      pop\n        /* \"#utility.yul\":764:765   */\n      dup3\n        /* \"#utility.yul\":761:762   */\n      dup3\n        /* \"#utility.yul\":757:766   */\n      add\n        /* \"#utility.yul\":750:766   */\n      swap1\n      pop\n        /* \"#utility.yul\":785:788   */\n      dup1\n        /* \"#utility.yul\":782:783   */\n      dup3\n        /* \"#utility.yul\":779:789   */\n      gt\n        /* \"#utility.yul\":776:812   */\n      iszero\n      tag_60\n      jumpi\n        /* \"#utility.yul\":792:810   */\n      tag_61\n      tag_49\n      jump\t// in\n    tag_61:\n        /* \"#utility.yul\":776:812   */\n    tag_60:\n        /* \"#utility.yul\":628:819   */\n      swap3\n      swap2\n      pop\n      pop\n      jump\t// out\n\n    auxdata: 0xa26469706673582212205019d43808f0a70cb6b9b3b6db7cff8cae15af419567aa6c767dbd0377f24b3064736f6c63430008120033\n}\n",
				"bytecode": {
					"linkReferences": {},
					"object": "608060405234801561001057600080fd5b506102a7806100206000396000f3fe608060405234801561001057600080fd5b506004361061007d5760003560e01c806395c48e891161005b57806395c48e89146100dc5780639a7738e0146100fa578063d18e81b314610118578063dec6fa54146101365761007d565b8063557ed1ba14610082578063646c8b31146100a05780637d2dbac8146100be575b600080fd5b61008a610154565b60405161009791906101f3565b60405180910390f35b6100a8610168565b6040516100b591906101f3565b60405180910390f35b6100c661017d565b6040516100d391906101f3565b60405180910390f35b6100e4610193565b6040516100f191906101f3565b60405180910390f35b6101026101a9565b60405161010f91906101f3565b60405180910390f35b6101206101bd565b60405161012d91906101f3565b60405180910390f35b61013e6101c5565b60405161014b91906101f3565b60405180910390f35b6000606442610163919061023d565b905090565b6000610e1042610178919061023d565b905090565b600062093a804261018e919061023d565b905090565b600062015180426101a4919061023d565b905090565b6000600a426101b8919061023d565b905090565b600042905090565b6000610258426101d5919061023d565b905090565b6000819050919050565b6101ed816101da565b82525050565b600060208201905061020860008301846101e4565b92915050565b7f4e487b7100000000000000000000000000000000000000000000000000000000600052601160045260246000fd5b6000610248826101da565b9150610253836101da565b925082820190508082111561026b5761026a61020e565b5b9291505056fea26469706673582212205019d43808f0a70cb6b9b3b6db7cff8cae15af419567aa6c767dbd0377f24b3064736f6c63430008120033",
					"opcodes": "PUSH1 0x80 PUSH1 0x40 MSTORE CALLVALUE DUP1 ISZERO PUSH2 0x10 JUMPI PUSH1 0x0 DUP1 REVERT JUMPDEST POP PUSH2 0x2A7 DUP1 PUSH2 0x20 PUSH1 0x0 CODECOPY PUSH1 0x0 RETURN INVALID PUSH1 0x80 PUSH1 0x40 MSTORE CALLVALUE DUP1 ISZERO PUSH2 0x10 JUMPI PUSH1 0x0 DUP1 REVERT JUMPDEST POP PUSH1 0x4 CALLDATASIZE LT PUSH2 0x7D JUMPI PUSH1 0x0 CALLDATALOAD PUSH1 0xE0 SHR DUP1 PUSH4 0x95C48E89 GT PUSH2 0x5B JUMPI DUP1 PUSH4 0x95C48E89 EQ PUSH2 0xDC JUMPI DUP1 PUSH4 0x9A7738E0 EQ PUSH2 0xFA JUMPI DUP1 PUSH4 0xD18E81B3 EQ PUSH2 0x118 JUMPI DUP1 PUSH4 0xDEC6FA54 EQ PUSH2 0x136 JUMPI PUSH2 0x7D JUMP JUMPDEST DUP1 PUSH4 0x557ED1BA EQ PUSH2 0x82 JUMPI DUP1 PUSH4 0x646C8B31 EQ PUSH2 0xA0 JUMPI DUP1 PUSH4 0x7D2DBAC8 EQ PUSH2 0xBE JUMPI JUMPDEST PUSH1 0x0 DUP1 REVERT JUMPDEST PUSH2 0x8A PUSH2 0x154 JUMP JUMPDEST PUSH1 0x40 MLOAD PUSH2 0x97 SWAP2 SWAP1 PUSH2 0x1F3 JUMP JUMPDEST PUSH1 0x40 MLOAD DUP1 SWAP2 SUB SWAP1 RETURN JUMPDEST PUSH2 0xA8 PUSH2 0x168 JUMP JUMPDEST PUSH1 0x40 MLOAD PUSH2 0xB5 SWAP2 SWAP1 PUSH2 0x1F3 JUMP JUMPDEST PUSH1 0x40 MLOAD DUP1 SWAP2 SUB SWAP1 RETURN JUMPDEST PUSH2 0xC6 PUSH2 0x17D JUMP JUMPDEST PUSH1 0x40 MLOAD PUSH2 0xD3 SWAP2 SWAP1 PUSH2 0x1F3 JUMP JUMPDEST PUSH1 0x40 MLOAD DUP1 SWAP2 SUB SWAP1 RETURN JUMPDEST PUSH2 0xE4 PUSH2 0x193 JUMP JUMPDEST PUSH1 0x40 MLOAD PUSH2 0xF1 SWAP2 SWAP1 PUSH2 0x1F3 JUMP JUMPDEST PUSH1 0x40 MLOAD DUP1 SWAP2 SUB SWAP1 RETURN JUMPDEST PUSH2 0x102 PUSH2 0x1A9 JUMP JUMPDEST PUSH1 0x40 MLOAD PUSH2 0x10F SWAP2 SWAP1 PUSH2 0x1F3 JUMP JUMPDEST PUSH1 0x40 MLOAD DUP1 SWAP2 SUB SWAP1 RETURN JUMPDEST PUSH2 0x120 PUSH2 0x1BD JUMP JUMPDEST PUSH1 0x40 MLOAD PUSH2 0x12D SWAP2 SWAP1 PUSH2 0x1F3 JUMP JUMPDEST PUSH1 0x40 MLOAD DUP1 SWAP2 SUB SWAP1 RETURN JUMPDEST PUSH2 0x13E PUSH2 0x1C5 JUMP JUMPDEST PUSH1 0x40 MLOAD PUSH2 0x14B SWAP2 SWAP1 PUSH2 0x1F3 JUMP JUMPDEST PUSH1 0x40 MLOAD DUP1 SWAP2 SUB SWAP1 RETURN JUMPDEST PUSH1 0x0 PUSH1 0x64 TIMESTAMP PUSH2 0x163 SWAP2 SWAP1 PUSH2 0x23D JUMP JUMPDEST SWAP1 POP SWAP1 JUMP JUMPDEST PUSH1 0x0 PUSH2 0xE10 TIMESTAMP PUSH2 0x178 SWAP2 SWAP1 PUSH2 0x23D JUMP JUMPDEST SWAP1 POP SWAP1 JUMP JUMPDEST PUSH1 0x0 PUSH3 0x93A80 TIMESTAMP PUSH2 0x18E SWAP2 SWAP1 PUSH2 0x23D JUMP JUMPDEST SWAP1 POP SWAP1 JUMP JUMPDEST PUSH1 0x0 PUSH3 0x15180 TIMESTAMP PUSH2 0x1A4 SWAP2 SWAP1 PUSH2 0x23D JUMP JUMPDEST SWAP1 POP SWAP1 JUMP JUMPDEST PUSH1 0x0 PUSH1 0xA TIMESTAMP PUSH2 0x1B8 SWAP2 SWAP1 PUSH2 0x23D JUMP JUMPDEST SWAP1 POP SWAP1 JUMP JUMPDEST PUSH1 0x0 TIMESTAMP SWAP1 POP SWAP1 JUMP JUMPDEST PUSH1 0x0 PUSH2 0x258 TIMESTAMP PUSH2 0x1D5 SWAP2 SWAP1 PUSH2 0x23D JUMP JUMPDEST SWAP1 POP SWAP1 JUMP JUMPDEST PUSH1 0x0 DUP2 SWAP1 POP SWAP2 SWAP1 POP JUMP JUMPDEST PUSH2 0x1ED DUP2 PUSH2 0x1DA JUMP JUMPDEST DUP3 MSTORE POP POP JUMP JUMPDEST PUSH1 0x0 PUSH1 0x20 DUP3 ADD SWAP1 POP PUSH2 0x208 PUSH1 0x0 DUP4 ADD DUP5 PUSH2 0x1E4 JUMP JUMPDEST SWAP3 SWAP2 POP POP JUMP JUMPDEST PUSH32 0x4E487B7100000000000000000000000000000000000000000000000000000000 PUSH1 0x0 MSTORE PUSH1 0x11 PUSH1 0x4 MSTORE PUSH1 0x24 PUSH1 0x0 REVERT JUMPDEST PUSH1 0x0 PUSH2 0x248 DUP3 PUSH2 0x1DA JUMP JUMPDEST SWAP2 POP PUSH2 0x253 DUP4 PUSH2 0x1DA JUMP JUMPDEST SWAP3 POP DUP3 DUP3 ADD SWAP1 POP DUP1 DUP3 GT ISZERO PUSH2 0x26B JUMPI PUSH2 0x26A PUSH2 0x20E JUMP JUMPDEST JUMPDEST SWAP3 SWAP2 POP POP JUMP INVALID LOG2 PUSH5 0x6970667358 0x22 SLT KECCAK256 POP NOT 0xD4 CODESIZE ADDMOD CREATE 0xA7 0xC 0xB6 0xB9 0xB3 0xB6 0xDB PUSH29 0xFF8CAE15AF419567AA6C767DBD0377F24B3064736F6C63430008120033 "
				},
				"gasEstimates": {
					"creation": {
						"codeDepositCost": "135800",
						"executionCost": "183",
						"totalCost": "135983"
					},
					"external": {
						"currentTime()": "380",
						"getTime()": "infinite",
						"getTime2()": "infinite",
						"getTime3()": "infinite",
						"getTime4()": "infinite",
						"getTime5()": "infinite",
						"getTime6()": "infinite"
					}
				},
				"methodIdentifiers": {
					"currentTime()": "d18e81b3",
					"getTime()": "557ed1ba",
					"getTime2()": "9a7738e0",
					"getTime3()": "dec6fa54",
					"getTime4()": "646c8b31",
					"getTime5()": "95c48e89",
					"getTime6()": "7d2dbac8"
				}
			},
			"storageLayout": {
				"storage": [],
				"types": null
			},
			"userdoc": {
				"kind": "user",
				"methods": {},
				"version": 1
			}
		}
	}
}